650AK001011C91800029199200  380ANCHORAGE               Alaska06      0A001A06MWU31MWU40OK41 000000                                                                                                                                                                          
650AK001011C91800029199200  380ANCHORAGE               Alaska04      0A001A36MBU23MWU11AQ26 000000                                                                                                                                                                          
650AK001011C91800029199200  380ANCHORAGE               Alaska03      0A001A28MWU39MWU13AQ45 000000                                                                                                                                                                          
650AK001011C91800029199200  380ANCHORAGE               Alaska02      0A001A42FWU27MIU20ST45 000000                                                                                                                                                                          
650AK001011C91800029199200  380ANCHORAGE               Alaska11      0A001A45MWU33MIU20ST60 000000                                                                                                                                                                          
650AK001011C91800029199200  380ANCHORAGE               Alaska01      0A001B39MBU00UUU11UN26 000000                                                                                                                                                                          
650AK001011C91800029199200  380ANCHORAGE               Alaska10      0A001A29MWU35MWU11NE42 000000                                                                                                                                                                          
650AK001011C91800029199200  380ANCHORAGE               Alaska09      0A001A24MAU25MBU11ST42 000000                                                                                                                                                                          
650AK001011C91800029199200  380ANCHORAGE               Alaska08      0A001A33MBU47MBU11BR45 000000                                                                                                                                                                          
650AK001011C91800029199200  380ANCHORAGE               Alaska07      0A001A48MWU50MWU11AQ44 000000                                                                                                                                                                          
650AK001011C91800029199200  380ANCHORAGE               Alaska12      0A001A25MBU27MWU11AQ44 000000                                                                                                                                                                          
650AK001011C91800029199200  380ANCHORAGE               Alaska04      0A002C21MWU19MBU11AQ40 000001                                                  18MIU11AQ40                                                                                                             
650AK001011C91800029199200  380ANCHORAGE               Alaska01      0A002C19FWU19MAU11ST47 000001                                                  15MBU11ST47                                                                                                             
650AK001011C91800029199200  380ANCHORAGE               Alaska03      0A002A20MIU30MWU11ST81A000000                                                                                                                                                                          
650AK001011C91800029199200  380ANCHORAGE               Alaska06      0A002A22MBU32MBU11AQ60 000000                                                                                                                                                                          
650AK001011C91800029199200  380ANCHORAGE               Alaska11      0A002B59MWU00UUU11UN99 000000                                                                                                                                                                          
650AK001011C91800029199200  380ANCHORAGE               Alaska07      0A002A15MAU16MAU11ST45 000000                                                                                                                                                                          
650AK001011C91800029199200  380ANCHORAGE               Alaska08      0A002B37MBU00UUU11UN26 000000                                                                                                                                                                          
650AK001011C91800029199200  380ANCHORAGE               Alaska10      0A002C35MWU30MAU11AQ18 000001                                                  38MBU11AQ18                                                                                                             
650AK001011C91800029199200  380ANCHORAGE               Alaska12      0A002A19MBU19MWU11ST44 000000                                                                                                                                                                          
650AK001011C91800029199200  380ANCHORAGE               Alaska01      0A003B52MIU00UUU11UN99 000000                                                                                                                                                                          
650AK001011C91800029199200  380ANCHORAGE               Alaska11      0A003A40MAU46MWU20OK45 000000                                                                                                                                                                          
650AK001011C91800029199200  380ANCHORAGE               Alaska12      0A003A19MWU19MBU11ST44 000000                                                                                                                                                                          
650AK001011C91800029199200  380ANCHORAGE               Alaska10      0B003A24MWU27MWU90OK59 000000                                                                                                                                                                          
650AK001011C91800029199200  380ANCHORAGE               Alaska07      0B003A31FBU36MBU11FR53 000000                                                                                                                                                                          
650AK001011C91800029199200  380ANCHORAGE               Alaska06      0A003A48MWU68MWU11ST80E000000                                                                                                                                                                          
650AK001011C91800029199200  380ANCHORAGE               Alaska01      0A004A32MBU32MWU11FR45 000000                                                                                                                                                                          
650AK001011C91800029199200  380ANCHORAGE               Alaska12      0A004A61MBU32MWU20ST45 000000                                                                                                                                                                          
650AK001011C91800029199200  380ANCHORAGE               Alaska11      0A004C27MBU35MIU11ST18 000001                                                  22MIU11ST18                                                                                                             
650AK001011C91800029199200  380ANCHORAGE               Alaska11      0A005B23FIU00UUU11UN99 000000                                                                                                                                                                          
650AK001024 91800003163500 2580FAIRBANKS               Alaska050217220A001ABBFBU22MWU40DA60 000000                                                                                                                                                                          
650AK001024 91800003163500 2580FAIRBANKS               Alaska060217220A001A27MIU38MWU12AQ40 000000                                                                                                                                                                          
650AK001024 91800003163500 2580FAIRBANKS               Alaska040217220A001C25MIN21MBN12ST99 000002                                                  19FIN12ST99 24MBN12ST99                                                                                                 
650AK001024 91800003163500 2580FAIRBANKS               Alaska010217220A001A26FWN19MIN12SI60 000000                                                                                                                                                                          
650AK001034 91800003192200   00JUNEAU                  Alaska030316230A001A59FWN34FWN40IL45 000000                                                                                                                                                                          
650AK001034 91800003192200   00JUNEAU                  Alaska010316230B001A55MIN27MIN40OF59 000000                                                                                                                                                                          
650AK001046 91800000830000   00KETCHIKAN               Alaska011115210A001A31MWN38MIN20AQ45 000000                                                                                                                                                                          
650AK001166 91800000327300   00KOTZEBUE                Alaska091115210A001A10FIN41MIN85OK02 000000                                                                                                                                                                          
650AK001176 91800000740300  380PALMER                  Alaska090219220B001A23FAU22MWU12FR53 000000                                                                                                                                                                          
650AK001186 91800000974300   00NORTH SLOPE BOROUGH     Alaska101115210A001A30MPU27MIU12OK99 000000                                                                                                                                                                          
650AK001186 91800000974300   00NORTH SLOPE BOROUGH     Alaska121115210B001A36MWU34MWU30EE59 000000                                                                                                                                                                          
650AK001186 91800000974300   00NORTH SLOPE BOROUGH     Alaska091115210B001ABBMIU27MIU90SO59 000000                                                                                                                                                                          
650AK001186 91800000974300   00NORTH SLOPE BOROUGH     Alaska031115210B001A03MPU29MPU13SO53 000000                                                                                                                                                                          
650AK001236 91800000788800   00KENAI                   Alaska101115210A001ABBFWU34MWU40DA60 000000                                                                                                                                                                          
650AK001565 91800001052200  380WASILLA                 Alaska081117210A001C30MBN25MWN12ST81C000002                                                  42MWN13ST81C37MWN12ST81C                                                                                                
650AKAST018A918000266098000  00ALASKA STATE TROOPERS   Alaska031029210A001C26MIU34MBU13ST81A000003                                                  37MWU13ST81A36MWU13ST81A39MWU13ST81A                                                                                    
650AKAST018A918000266098000  00ALASKA STATE TROOPERS   Alaska011029210A001A37FWU38MWU80WI45 000000                                                                                                                                                                          
650AKAST018A918000266098000  00ALASKA STATE TROOPERS   Alaska111029210A001A56MBU43MWU30NE03 000000                                                                                                                                                                          
650AKAST018A918000266098000  00ALASKA STATE TROOPERS   Alaska101029210A001A61MBU47MBU20AQ45 000000                                                                                                                                                                          
650AKAST018A918000266098000  00ALASKA STATE TROOPERS   Alaska091029210A001A58MIU61FIU20BR45 000000                                                                                                                                                                          
650AKAST018A918000266098000  00ALASKA STATE TROOPERS   Alaska081029210A001A28MIU40MWU11ST81A000000                                                                                                                                                                          
650AKAST018A918000266098000  00ALASKA STATE TROOPERS   Alaska071029210A001A38MIU34MBU11ST81A000000                                                                                                                                                                          
650AKAST018A918000266098000  00ALASKA STATE TROOPERS   Alaska061029210A001A36MWU34MWU13ST81B000000                                                                                                                                                                          
650AKAST018A918000266098000  00ALASKA STATE TROOPERS   Alaska051029210A001A66MIU39MIU13OF99 000000                                                                                                                                                                          
650AKAST018A918000266098000  00ALASKA STATE TROOPERS   Alaska041029210A001A18MIN16MIU12OK05 000000                                                                                                                                                                          
650AKAST018A918000266098000  00ALASKA STATE TROOPERS   Alaska121029210A001A38FAU44MWU12GF99 000000                                                                                                                                                                          
650AKAST018A918000266098000  00ALASKA STATE TROOPERS   Alaska051029210A002A43FWU35MIU13FR42 000000                                                                                                                                                                          
650AKAST018A918000266098000  00ALASKA STATE TROOPERS   Alaska031029210A002A70MIU21MIU40OF42 000000                                                                                                                                                                          
650AKAST018A918000266098000  00ALASKA STATE TROOPERS   Alaska071029210A002C60MBU36FWU11AQ03 000004                                                  17MWU11ST03 17MBU11ST03 35MWU11AQ03 38MWU11AQ03                                                                         
650AKAST018A918000266098000  00ALASKA STATE TROOPERS   Alaska121029210A002A26MIU29MIU20AQ80C000000                                                                                                                                                                          
650AKAST018A918000266098000  00ALASKA STATE TROOPERS   Alaska081029210A002A56FIU59MWU20WI99 000000                                                                                                                                                                          
650AKAST018A918000266098000  00ALASKA STATE TROOPERS   Alaska031029210A003A42MWU43MWU13ST81B000000                                                                                                                                                                          
650AKAST018A918000266098000  00ALASKA STATE TROOPERS   Alaska121029210A003A51MWU23MWU12FA45 000000                                                                                                                                                                          
650AKAST018A918000266098000  00ALASKA STATE TROOPERS   Alaska121029210B004ABBFAU33MAU85DA59 000000                                                                                                                                                                          
601AL001014 618000026240037 980BESSEMER                Alabam020310230A001A18MBN22FBN12OK45 000000                                                                                                                                                                          
601AL001123 618000060735037 980HOOVER                  Alabam100509220A001C23MWU00UUU12UN18 000001                                                  14MBN12UN18                                                                                                             
601AL001123 618000060735037 980HOOVER                  Alabam050509220A001C22MBN00UUU12UN99 000001                                                  28MUU12UN99                                                                                                             
601AL043024 618000030822041 570OPELIKA                 Alabam030406210A001A35MBN00UUN11UN99 000000                                                                                                                                                                          
601AL061015 618000012186061  00SYLACAUGA               Alabam070406210A001A17FWN26MBN12OK99 000000                                                                                                                                                                          
603AR001008D718000005834001  00ARKANSAS                Arkans10      0A001A41MWU48FWU90BF09 000000                                                                                                                                                                          
603AR001026 718000008696001  00STUTTGART               Arkans03      0A001B46MBNNSXU 11UN60 000000                                                                                                                                                                          
603AR002008C718000012453002  00ASHLEY                  Arkans02      0A001A61FWN47MWN13GF45 000000                                                                                                                                                                          
603AR002008C718000012453002  00ASHLEY                  Arkans12      0A001A47MBN49MBU65OF45 000000                                                                                                                                                                          
603AR002008C718000012453002  00ASHLEY                  Arkans07      0A001A55MBN78MBN11UN45 000000                                                                                                                                                                          
603AR002016 718000004920002  00CROSSETT                Arkans04      0A005B39MBNNSXU 12UN99 000000                                                                                                                                                                          
603AR002016 718000004920002  00CROSSETT                Arkans04      0A006C39MBN25MBN11UN99 000003                                                  20MBN11UN99 38FBN11UN99 41FBN11UN99                                                                                     
603AR003015 718000012315003  00MOUNTAIN HOME           Arkans06      0A001ANNFWN43FWN90UN60 000000                                                                                                                                                                          
603AR003015 718000012315003  00MOUNTAIN HOME           Arkans03      0A004A46MWN41MWN20UN99 000000                                                                                                                                                                          
603AR003015 718000012315003  00MOUNTAIN HOME           Arkans03      0A005D38FWN43MWN20WI60 00100055FWN                                                                                                                                                                     
603AR004009B7180000489600042700BENTON                  Arkans05      0A001A80FWN26FWN30OF99 000000                                                                                                                                                                          
603AR004009B7180000489600042700BENTON                  Arkans06      0A004C56MWN36FWN90AQ60 000001                                                  21MWN90AQ60                                                                                                             
603AR004009B7180000489600042700BENTON                  Arkans06      0B005C09FWN29MWN90DA59 000001                                                  31FWN90DA59                                                                                                             
603AR004023 7180000680260042700ROGERS                  Arkans09      0A001A58MWN53MWN30UN07 000000                                                                                                                                                                          
603AR004023 7180000680260042700ROGERS                  Arkans05      0A001A48FWN49MBN90GF99 000000                                                                                                                                                                          
603AR005015 718000013100005  00HARRISON                Arkans01      0B001A24MWN45MWN90UN59 000000                                                                                                                                                                          
603AR006016 718000005608006  00WARREN                  Arkans09      0A001A29MBN00UUU12UN99 000000                                                                                                                                                                          
603AR007017 718000001274007  00HAMPTON                 Arkans10      0A001A40MBU30MBU13AQ45 000000                                                                                                                                                                          
603AR008008C718000017741008  00CARROLL                 Arkans10      0A001A30MUN28MWN12AQ45 000000                                                                                                                                                                          
603AR012008C718000015999012  00CLEBURNE                Arkans08      0A001E00MWN30MWN90UN45 00100100MWN                                             30FWN90UN45                                                                                                             
603AR012008C718000015999012  00CLEBURNE                Arkans12      0A001A49FWN45MWN12GF45 000000                                                                                                                                                                          
603AR013009D7180000068810136640CLEVELAND               Arkans12      0A001D67MWN24MWN13UN45 00100060MWN                                                                                                                                                                     
603AR014008C718000012020014  00COLUMBIA                Arkans03      0A001ANNFWU23MWH40DA45 000000                                                                                                                                                                          
603AR014015 718000011425014  00MAGNOLIA                Arkans11      0A001C22MBN25MBN11UN99 000001                                                  24MBN11UN99                                                                                                             
603AR014015 718000011425014  00MAGNOLIA                Arkans11      0A002A24MBN32MBN11UN99 000000                                                                                                                                                                          
603AR015008C718000013126015  00CONWAY                  Arkans04      0B001A56MBN58MBN90UN59 000000                                                                                                                                                                          
603AR016009C7180000182570163960CRAIGHEAD               Arkans09      0B001C23MBN19UUU12FR53 000002                                                  18MWU12UN53 19MWU12UN53                                                                                                 
603AR016009C7180000182570163960CRAIGHEAD               Arkans10      0B001A60MWN40MWN90AQ59 000000                                                                                                                                                                          
603AR016013 7180000771340163960JONESBORO               Arkans11      0A001A39FWN50MWN12GF60 000000                                                                                                                                                                          
603AR016013 7180000771340163960JONESBORO               Arkans04      0A001C20MBN00UUN11UN99 000004                                                  19MBN11UN99 22MBN11UN99 25MBN11UN99 20MBN11UN99                                                                         
603AR016013 7180000771340163960JONESBORO               Arkans03      0A001A37FBN39MBN85UN45 000000                                                                                                                                                                          
603AR016013 7180000771340163960JONESBORO               Arkans04      0A002C59MWN21MWN11UN09 000002                                                  47MWN11UN09 56MWN11UN09                                                                                                 
603AR017015 7180000236080172850VAN BUREN               Arkans11      0A001C02FWN27FWN90DA45 000001                                                  34MWN90DA45                                                                                                             
603AR017015 7180000236080172850VAN BUREN               Arkans06      0A001A00FWN19MWN85DA60 000000                                                                                                                                                                          
603AR018009D7180000089540185190CRITTENDEN              Arkans09      0A001A46MBN37MBN11UN99 000000                                                                                                                                                                          
603AR018009D7180000089540185190CRITTENDEN              Arkans07      0A001D07MBN            00100002MBN                                             26FBN90UN60                                                                                                             
603AR018009D7180000089540185190CRITTENDEN              Arkans06      0A005A62MBN00UUN90UN99 000000                                                                                                                                                                          
603AR018009D7180000089540185190CRITTENDEN              Arkans06      0A006A18MBN26MBN12AQ26 000000                                                                                                                                                                          
603AR018015 7180000246680185190WEST MEMPHIS            Arkans04      0A001C25MBN22MBN12UN60 000001                                                  25MBU12UN60                                                                                                             
603AR018015 7180000246680185190WEST MEMPHIS            Arkans03      0A001A18MBN19MBN12UN47 000000                                                                                                                                                                          
603AR018015 7180000246680185190WEST MEMPHIS            Arkans02      0A001A22MBN26MBN11UN99 000000                                                                                                                                                                          
603AR018015 7180000246680185190WEST MEMPHIS            Arkans06      0A004A24MBN17MBN12UN99 000000                                                                                                                                                                          
603AR018015 7180000246680185190WEST MEMPHIS            Arkans05      0A004B39MBNNSXU 11UN99 000000                                                                                                                                                                          
603AR018015 7180000246680185190WEST MEMPHIS            Arkans12      0A004A42MWN14MWN12FA45 000000                                                                                                                                                                          
603AR018015 7180000246680185190WEST MEMPHIS            Arkans05      0A005C01MBN34FBN70SO60 000001                                                  37MBN70SO60                                                                                                             
603AR018015 7180000246680185190WEST MEMPHIS            Arkans09      0A005A55MBN22MBN14OF60 000000                                                                                                                                                                          
603AR018015 7180000246680185190WEST MEMPHIS            Arkans12      0A005A05MBN29MBN90UN60 000000                                                                                                                                                                          
603AR018015 7180000246680185190WEST MEMPHIS            Arkans07      0A005C22MBN19FWN12UN46 000001                                                  21MBN12UN46                                                                                                             
603AR018015 7180000246680185190WEST MEMPHIS            Arkans06      0A005A15FBN33MBN12UN26 000000                                                                                                                                                                          
603AR018015 7180000246680185190WEST MEMPHIS            Arkans09      0A006D25MBU            00100030MBN                                             26MBN11UN99                                                                                                             
603AR018015 7180000246680185190WEST MEMPHIS            Arkans07      0A006B17MBNNSXU 11UN99 000000                                                                                                                                                                          
603AR018015 7180000246680185190WEST MEMPHIS            Arkans01      0A009A25MBN48MBN12UN45 000000                                                                                                                                                                          
603AR018015 7180000246680185190WEST MEMPHIS            Arkans01      0A010A67MBN27MBN11UN18 000000                                                                                                                                                                          
603AR018015 7180000246680185190WEST MEMPHIS            Arkans01      0B011A34MWN45FBN90OK59 000000                                                                                                                                                                          
603AR018015 7180000246680185190WEST MEMPHIS            Arkans01      0A012B37MBNNSXU 12UN03 000000                                                                                                                                                                          
603AR018045 7180000124260185190MARION                  Arkans01      0B001A27MBN22MBN11UN59 000000                                                                                                                                                                          
603AR022016 718000009630022  00MONTICELLO              Arkans04      0B001B21MBNNSXU 12UN59 000000                                                                                                                                                                          
603AR022016 718000009630022  00MONTICELLO              Arkans02      0A001A25MBN59MBN12UN45 000000                                                                                                                                                                          
603AR022016 718000009630022  00MONTICELLO              Arkans01      0A001A32FBN29MBN90UN60 000000                                                                                                                                                                          
603AR023009B7180000445120234690FAULKNER                Arkans03      0A001C24MWN34MWN40ST60 000001                                                  31MWN40ST60                                                                                                             
603AR023009B7180000445120234690FAULKNER                Arkans11      0A001A43MWN46MWU14UN99 000000                                                                                                                                                                          
603AR023013 7180000667200234690CONWAY                  Arkans04      0A001A31MBN31FBN20BF45 000000                                                                                                                                                                          
603AR023013 7180000667200234690CONWAY                  Arkans11      0A001C56MBN23MBN12AQ03 000001                                                  20MBN12ST03                                                                                                             
603AR023013 7180000667200234690CONWAY                  Arkans09      0A001B28MBNNSXU 11UN99 000000                                                                                                                                                                          
603AR023013 7180000667200234690CONWAY                  Arkans05      0A006C18MBN17MBN12AQ99 000003                                                  18MBN12AQ99 31MBN12AQ99 29MBN12AQ99                                                                                     
603AR023013 7180000667200234690CONWAY                  Arkans05      0A007C48MWH22MWN12UN99 000004                                                  21MWN12UN99 25MWN12UN99 50FWN12UN99 25MWH12UN99                                                                         
603AR024009C7180000110430242850FRANKLIN                Arkans10      0A001D56MWN23MWN12MO45 00100053FWN                                                                                                                                                                     
603AR024009C7180000110430242850FRANKLIN                Arkans06      0A001A52MWN59MWU13FR45 000000                                                                                                                                                                          
603AR026009B7180000618980263560GARLAND                 Arkans04      0A001A27FW 31MW 12WI45 000000                                                                                                                                                                          
603AR026014 7180000370060263560HOT SPRINGS             Arkans11      0A001D71FW 46FW 20DA60 00100008FW                                                                                                                                                                      
603AR026014 7180000370060263560HOT SPRINGS             Arkans10      0A001BBBMW NSXU 90UN99 000000                                                                                                                                                                          
603AR026014 7180000370060263560HOT SPRINGS             Arkans09      0A001D49MW             00100051FW                                              19MB 90ST26                                                                                                             
603AR026014 7180000370060263560HOT SPRINGS             Arkans03      0A005B18MB NSXU 12UN18 000000                                                                                                                                                                          
603AR026014 7180000370060263560HOT SPRINGS             Arkans03      0A006A48MW 22MB 65UN99 000000                                                                                                                                                                          
603AR028014 718000028827028  00PARAGOULD               Arkans09      0A001A59FWN60MWN12XW45 000000                                                                                                                                                                          
603AR028014 718000028827028  00PARAGOULD               Arkans08      0A001A47FWN47MWN12WI45 000000                                                                                                                                                                          
603AR028014 718000028827028  00PARAGOULD               Arkans03      0A001A23MWN51MWN20SO45 000000                                                                                                                                                                          
603AR032008B718000026612032  00INDEPENDENCE            Arkans07      0A001A27MWN33MWN12OK60 000000                                                                                                                                                                          
603AR032008B718000026612032  00INDEPENDENCE            Arkans06      0A001C33MWN26MWN11AQ45 000001                                                  33MWN11UN45                                                                                                             
603AR032008B718000026612032  00INDEPENDENCE            Arkans02      0A001A50FWN48MWN40WI09 000000                                                                                                                                                                          
603AR033008C718000013663033  00IZARD                   Arkans04      0A001A29MWU22FWN20UN45 000000                                                                                                                                                                          
603AR035009C7180000191680356640JEFFERSON               Arkans07      0A001A65MWN69FWN12HU45 000000                                                                                                                                                                          
603AR035009C7180000191680356640JEFFERSON               Arkans06      0A001D34MBN27MBN12UN99 00100034MBN                                                                                                                                                                     
603AR035014 7180000421950356640PINE BLUFF              Arkans09      0A001A29MBN00UUU11UN60 000000                                                                                                                                                                          
603AR035014 7180000421950356640PINE BLUFF              Arkans12      0A001A29MBN26MBN12UN99 000000                                                                                                                                                                          
603AR035014 7180000421950356640PINE BLUFF              Arkans11      0A001C34MWN21MBN11UN60 000001                                                  21MBU11UN60                                                                                                             
603AR035014 7180000421950356640PINE BLUFF              Arkans08      0A001A47MBN00UUU11UN99 000000                                                                                                                                                                          
603AR035014 7180000421950356640PINE BLUFF              Arkans07      0A001A27MBU00UUU11UN60 000000                                                                                                                                                                          
603AR035014 7180000421950356640PINE BLUFF              Arkans06      0A001ANNMBN00UUU11UN60 000000                                                                                                                                                                          
603AR035014 7180000421950356640PINE BLUFF              Arkans05      0A001A29MBN00UUU11UN99 000000                                                                                                                                                                          
603AR035014 7180000421950356640PINE BLUFF              Arkans04      0A001A29MBN22MBN11UN99 000000                                                                                                                                                                          
603AR035014 7180000421950356640PINE BLUFF              Arkans03      0A001A37MBN26MBN12OK45 000000                                                                                                                                                                          
603AR035014 7180000421950356640PINE BLUFF              Arkans01      0A001A22MBN00MUN12UN60 000000                                                                                                                                                                          
603AR035014 7180000421950356640PINE BLUFF              Arkans07      0A002A32MBN00UUN12UN99 000000                                                                                                                                                                          
603AR035014 7180000421950356640PINE BLUFF              Arkans03      0A002A34MBN00UUU11UN99 000000                                                                                                                                                                          
603AR035014 7180000421950356640PINE BLUFF              Arkans08      0A002A36MBU00UUU11UN60 000000                                                                                                                                                                          
603AR035014 7180000421950356640PINE BLUFF              Arkans08      0A003A26MBN29MBN12UN45 000000                                                                                                                                                                          
603AR035014 7180000421950356640PINE BLUFF              Arkans08      0A004A20MBN20FBU11AQ60 000000                                                                                                                                                                          
603AR036008C718000015255036  00JOHNSON                 Arkans01      0A001C29MWU21MWN12AQ45 000003                                                  25MWU12AQ45 29MWU12AQ45 20MBN12AQ45                                                                                     
603AR036008C718000015255036  00JOHNSON                 Arkans07      0A001A50MWU38FWN20UN45 000000                                                                                                                                                                          
603AR039016 718000003492039  00MARIANNA                Arkans12      0A001C34MBU30MBN11UN99 000002                                                  20MBU11UN99 22MBN11UN99                                                                                                 
603AR040027 7180000020990406640STAR CITY               Arkans01      0B001A80FWN29FBN90UN59 000000                                                                                                                                                                          
603AR043066 7180000052780434690WARD                    Arkans03      0B001A24MWN22FWN70UN59 000000                                                                                                                                                                          
603AR044009C7180000164150442700MADISON                 Arkans08      0A001A30MWN55MWN14UN45 000000                                                                                                                                                                          
603AR045008C718000013107045  00MARION                  Arkans09      0A001D89MWN32MWN11UN45 00100058MWN                                                                                                                                                                     
603AR047008C718000012785047  00MISSISSIPPI             Arkans06      0A001A35FWU25MWN40OK99 000000                                                                                                                                                                          
603AR047015 718000013843047  00BLYTHEVILLE             Arkans05      0B001A51MBU31MBU90UN59 000000                                                                                                                                                                          
603AR047015 718000013843047  00BLYTHEVILLE             Arkans11      0A001C57MBN00UUU11UN99 000001                                                  00UUU11UN99                                                                                                             
603AR047015 718000013843047  00BLYTHEVILLE             Arkans01      0A001D24MBN00UUU11UN99 00100026MWU                                                                                                                                                                     
603AR047015 718000013843047  00BLYTHEVILLE             Arkans06      0A006A29FBN43MWN12AQ45 000000                                                                                                                                                                          
603AR047015 718000013843047  00BLYTHEVILLE             Arkans06      0A007E22MBN28MWH11AQ26 00100435MBN                                             22MWH11AQ26 26MWH11UN26 52MWH11AQ26 52MBN11OF26                                                                         
603AR047026 718000006819047  00OSCEOLA                 Arkans01      0A001A37MWN00UUU12UN99 000000                                                                                                                                                                          
603AR047067 718000000845047  00WILSON                  Arkans09      0A001A45FBN55MBN90UN45 000000                                                                                                                                                                          
603AR048016 718000002658048  00BRINKLEY                Arkans01      0A001A33MBN42MBN12FR45 000000                                                                                                                                                                          
603AR054015 718000010477054  00HELENA-WEST HELENA      Arkans10      0A001B41FBNNSXU 11UN46 000000                                                                                                                                                                          
603AR054015 718000010477054  00HELENA-WEST HELENA      Arkans05      0A001C22MBN20MBN11UN45 000004                                                  19FBN11UN45 17MBN11UN45 21MBN11UN45 17MBN11UN45                                                                         
603AR054015 718000010477054  00HELENA-WEST HELENA      Arkans11      0A005B55MBNNSXU 90UN99 000000                                                                                                                                                                          
603AR054015 718000010477054  00HELENA-WEST HELENA      Arkans11      0A006E53MBN24MBN30UN05 00200346MBN53MBN                                        34MBU30UN05 26MBN30UN05                                                                                                 
603AR054015 718000010477054  00HELENA-WEST HELENA      Arkans08      0A008C55MBN24FWU90OK45 000004                                                  37MBN90UN45 39MBN90OK45 27MWU90OK45 45MWU90OK45                                                                         
603AR054015 718000010477054  00HELENA-WEST HELENA      Arkans08      0B009A56FBN23MBN90UN59 000000                                                                                                                                                                          
603AR054015 718000010477054  00HELENA-WEST HELENA      Arkans08      0A010A19FBN38MBN11GF45 000000                                                                                                                                                                          
603AR055027 718000002070055  00GLENWOOD                Arkans01      0A001C18MWN23MWN11UN45 000003                                                  00MWU11UN45 00MWN11UN45 18MUU11UN45                                                                                     
603AR056026 7180000070710563960TRUMANN                 Arkans02      0A001A52MWN50MWU20UN45 000000                                                                                                                                                                          
603AR056026 7180000070710563960TRUMANN                 Arkans04      0A001D36MWN22MWN12OK45 00100021FWU                                                                                                                                                                     
603AR056037 7180000023530563960HARRISBURG              Arkans09      0A001A22MWN58MWN11UN26 000000                                                                                                                                                                          
603AR057016 718000005546057  00MENA                    Arkans12      0A001A04FWN33FWN90DA99 000000                                                                                                                                                                          
603AR058008B718000026851058  00POPE                    Arkans05      0A001A39MWU36MWN40AQ45 000000                                                                                                                                                                          
603AR058008B718000026851058  00POPE                    Arkans04      0A001A39FWN55MWN14WI99 000000                                                                                                                                                                          
603AR060009B7180000501040604690PULASKI                 Arkans03      0B001A28FWN31MWN90WI59 000000                                                                                                                                                                          
603AR060009B7180000501040604690PULASKI                 Arkans01      0A001A30FBN00UUU12UN99 000000                                                                                                                                                                          
603AR060014 7180000285300604690JACKSONVILLE            Arkans12      0A001A01FBN20MBN90DA60 000000                                                                                                                                                                          
603AR060014 7180000285300604690JACKSONVILLE            Arkans09      0A001A50MWN35MWN12ST81C000000                                                                                                                                                                          
603AR060014 7180000285300604690JACKSONVILLE            Arkans02      0A001A49FBN49MBN13XW99 000000                                                                                                                                                                          
603AR060022 7180001992880604690LITTLE ROCK             Arkans10      0A001C32MBN18MBN12UN99 000002                                                  24MBU12UN99 23FBN12UN99                                                                                                 
603AR060022 7180001992880604690LITTLE ROCK             Arkans07      0A001C64MBN25MBN11UN99 000001                                                  26MBN11UN99                                                                                                             
603AR060022 7180001992880604690LITTLE ROCK             Arkans07      0A002C63MBN39FBN20AQ07 000001                                                  32MBN20UN07                                                                                                             
603AR060022 7180001992880604690LITTLE ROCK             Arkans12      0A004A77MBN40MBN30FA45 000000                                                                                                                                                                          
603AR060022 7180001992880604690LITTLE ROCK             Arkans09      0A005A56FWN58MWN90WI99 000000                                                                                                                                                                          
603AR060022 7180001992880604690LITTLE ROCK             Arkans02      0A005C50MBN22MBU90UN07 000001                                                  22MBU90UN07                                                                                                             
603AR060022 7180001992880604690LITTLE ROCK             Arkans12      0A005E23FBN            00100102MBN                                             00UUU11UN99 27FBU11UN99                                                                                                 
603AR060022 7180001992880604690LITTLE ROCK             Arkans06      0A006A62MBN00UUU12UN99 000000                                                                                                                                                                          
603AR060022 7180001992880604690LITTLE ROCK             Arkans02      0A006C23MBN00UUU11UN99 000002                                                  00MBN11UN99 29MBN11UN99                                                                                                 
603AR060022 7180001992880604690LITTLE ROCK             Arkans09      0A006D37MBN00UUU12UN99 00100035FBN                                                                                                                                                                     
603AR060022 7180001992880604690LITTLE ROCK             Arkans08      0A006A39MBN25MBN12UN99 000000                                                                                                                                                                          
603AR060022 7180001992880604690LITTLE ROCK             Arkans01      0A007A34FBN40MBU11UN99 000000                                                                                                                                                                          
603AR060022 7180001992880604690LITTLE ROCK             Arkans06      0A007A33MUH36MWH20AQ99 000000                                                                                                                                                                          
603AR060022 7180001992880604690LITTLE ROCK             Arkans08      0A007C28MBN00UUU11UN99 000002                                                  00UUU11UN99 00UUU11UN99                                                                                                 
603AR060022 7180001992880604690LITTLE ROCK             Arkans04      0A007A40MWN53MWN11UN99 000000                                                                                                                                                                          
603AR060022 7180001992880604690LITTLE ROCK             Arkans01      0A008A18MBN23MBN11UN80C000000                                                                                                                                                                          
603AR060022 7180001992880604690LITTLE ROCK             Arkans04      0A008A55MBU00UUU11UN99 000000                                                                                                                                                                          
603AR060022 7180001992880604690LITTLE ROCK             Arkans05      0A009A47FBN58MBN12GF99 000000                                                                                                                                                                          
603AR060022 7180001992880604690LITTLE ROCK             Arkans01      0A009A17MBU00UUU12UN99 000000                                                                                                                                                                          
603AR060022 7180001992880604690LITTLE ROCK             Arkans04      0A009A39MBN25MBU12UN99 000000                                                                                                                                                                          
603AR060022 7180001992880604690LITTLE ROCK             Arkans05      0A011C00FWN28MBN90UN99 000001                                                  31FWN90UN99                                                                                                             
603AR060022 7180001992880604690LITTLE ROCK             Arkans05      0A012A20MBN32MBN12UN80C000000                                                                                                                                                                          
603AR060022 7180001992880604690LITTLE ROCK             Arkans05      0A013A18MBN17MBU11UN60 000000                                                                                                                                                                          
603AR060022 7180001992880604690LITTLE ROCK             Arkans03      0A013A21MBN22MBU12UN99 000000                                                                                                                                                                          
603AR060022 7180001992880604690LITTLE ROCK             Arkans03      0A014A52MBN00MBN11UN99 000000                                                                                                                                                                          
603AR060022 7180001992880604690LITTLE ROCK             Arkans03      0A017A35FWN32MWN90WI09 000000                                                                                                                                                                          
603AR060022 7180001992880604690LITTLE ROCK             Arkans11      0A018A36MWN16MBH12OF99 000000                                                                                                                                                                          
603AR060022 7180001992880604690LITTLE ROCK             Arkans11      0A019A71MWN15MBU11OK99 000000                                                                                                                                                                          
603AR060022 7180001992880604690LITTLE ROCK             Arkans03      0A019A47MWN00UUU11UN60 000000                                                                                                                                                                          
603AR060022 7180001992880604690LITTLE ROCK             Arkans03      0A020C34FBN20MBU11UN99 000002                                                  17MBU11UN99 18MBU11UN99                                                                                                 
603AR060022 7180001992880604690LITTLE ROCK             Arkans11      0A020A44MBN43FBU11UN99 000000                                                                                                                                                                          
603AR060022 7180001992880604690LITTLE ROCK             Arkans03      0A021D21FBN00UUU12UN99 00100022MBN                                                                                                                                                                     
603AR060022 7180001992880604690LITTLE ROCK             Arkans11      0A022C29MBN00UUU11UN99 000004                                                  17MWN11UN99 21MWN11UN99 20FWN11UN99 17MWU11UN99                                                                         
603AR060022 7180001992880604690LITTLE ROCK             Arkans11      0A023C20MBN21MBN12FR99 000002                                                  20MBN12OK99 20MBN12OK99                                                                                                 
603AR060022 7180001992880604690LITTLE ROCK             Arkans11      0A027A37MBN00UUU11UN99 000000                                                                                                                                                                          
603AR060022 7180001992880604690LITTLE ROCK             Arkans11      0A028A18MBN00UUU12UN99 000000                                                                                                                                                                          
603AR060022 7180001992880604690LITTLE ROCK             Arkans11      0A029E20MBN00UUU11UN99 00200219FBN19FBN                                        00UUU11UN99 21MBN11UN99                                                                                                 
603AR060033 7180000664240604690NORTH LITTLE ROCK       Arkans12      0A001B44MBNNSXU 11UN99 000000                                                                                                                                                                          
603AR060033 7180000664240604690NORTH LITTLE ROCK       Arkans10      0A001A23FBN66MWN14ST80G000000                                                                                                                                                                          
603AR060033 7180000664240604690NORTH LITTLE ROCK       Arkans09      0A001B36MBNNSXU 12UN45 000000                                                                                                                                                                          
603AR060033 7180000664240604690NORTH LITTLE ROCK       Arkans08      0A001A47MBN20FBN20AQ99 000000                                                                                                                                                                          
603AR060033 7180000664240604690NORTH LITTLE ROCK       Arkans07      0A001C22MBN17MBN12OK47 000003                                                  17MBN12OK47 15MBN12OK47 18MBN12OK47                                                                                     
603AR060033 7180000664240604690NORTH LITTLE ROCK       Arkans05      0A001A60MWN50MBN20ST99 000000                                                                                                                                                                          
603AR060033 7180000664240604690NORTH LITTLE ROCK       Arkans08      0A002A38MBN49MBN20AQ45 000000                                                                                                                                                                          
603AR060033 7180000664240604690NORTH LITTLE ROCK       Arkans02      0A004A19FBN32MBN12AQ60 000000                                                                                                                                                                          
603AR060033 7180000664240604690NORTH LITTLE ROCK       Arkans02      0A005A27MBN32MBN11UN99 000000                                                                                                                                                                          
603AR060033 7180000664240604690NORTH LITTLE ROCK       Arkans04      0A005A41MBN19MBN12AQ60 000000                                                                                                                                                                          
603AR060033 7180000664240604690NORTH LITTLE ROCK       Arkans04      0A006B49MBNNSXU 11UN99 000000                                                                                                                                                                          
603AR060033 7180000664240604690NORTH LITTLE ROCK       Arkans01      0A009C17MBN30MWN12ST60 000002                                                  24FWN12ST60 38MWN12ST60                                                                                                 
603AR060033 7180000664240604690NORTH LITTLE ROCK       Arkans01      0A010C58MBN19MBN12FR45 000001                                                  17MBN12FR45                                                                                                             
603AR060033 7180000664240604690NORTH LITTLE ROCK       Arkans01      0A011C33MBN17MBN11ST03 000002                                                  27MBN11ST03 19MBN11AQ03                                                                                                 
603AR060033 7180000664240604690NORTH LITTLE ROCK       Arkans01      0A012A26MBN45MBN12UN80E000000                                                                                                                                                                          
603AR060044 7180000312840604690SHERWOOD                Arkans07      0A001C46FBN18MBN11ST60 000001                                                  18MUU11ST60                                                                                                             
603AR060076 7180000028390634690ALEXANDER               Arkans10      0A001B65MWNNSXU 90UN99 000000                                                                                                                                                                          
603AR060076 7180000028390634690ALEXANDER               Arkans05      0A001A42MWN42MWN14OK60 000000                                                                                                                                                                          
603AR060165 7180000183560604690MAUMELLE                Arkans10      0A001B60MBNNSXU 11UN99 000000                                                                                                                                                                          
603AR061008C718000011000061  00RANDOLPH                Arkans07      0A001D66MWU25MWU11OF45 00100066FWU                                                                                                                                                                     
603AR062015 718000014144062  00FORREST CITY            Arkans11      0A001A15MBN29MBN11AQ60 000000                                                                                                                                                                          
603AR062015 718000014144062  00FORREST CITY            Arkans08      0A001A40MBN53MBN12AQ99 000000                                                                                                                                                                          
603AR062015 718000014144062  00FORREST CITY            Arkans06      0A001A39MBN30MBN11AQ99 000000                                                                                                                                                                          
603AR063014 7180000365560634690BENTON                  Arkans10      0A001A30FWN71MWN20DA45 000000                                                                                                                                                                          
603AR065008D718000007895065  00SEARCY                  Arkans02      0A001A26FWU30MWN11UN99 000000                                                                                                                                                                          
603AR066013 7180000882900662850FORT SMITH              Arkans10      0A001A27MBN26MWN11AQ45 000000                                                                                                                                                                          
603AR066013 7180000882900662850FORT SMITH              Arkans01      0A001C01FWN25MBN40DA60 000001                                                  20FWN40AQ60                                                                                                             
603AR066013 7180000882900662850FORT SMITH              Arkans07      0A001E43MBN19MBN12ST03 00100126FBN                                             29MBN12ST03                                                                                                             
603AR066013 7180000882900662850FORT SMITH              Arkans09      0A002A43FWN18MWN20MO60 000000                                                                                                                                                                          
603AR066013 7180000882900662850FORT SMITH              Arkans09      0A003D79FW             00100081MW                                              18MW 30OK60                                                                                                             
603AR066013 7180000882900662850FORT SMITH              Arkans02      0A005C27MWN19MBN11AQ60 000001                                                  34MW 11AQ60                                                                                                             
603AR066013 7180000882900662850FORT SMITH              Arkans02      0A006A55MWN00UU 90UN60 000000                                                                                                                                                                          
603AR070008C718000021188070  00UNION                   Arkans10      0A001A20MBU21MBN11UN99 000000                                                                                                                                                                          
603AR070015 718000017916070  00EL DORADO               Arkans03      0A001E47MBN44MBN20AQ45 00100147MBN                                             47MBN20UN45                                                                                                             
603AR070015 718000017916070  00EL DORADO               Arkans02      0A001A41FBU43MBN12OK09 000000                                                                                                                                                                          
603AR070015 718000017916070  00EL DORADO               Arkans10      0A003E35MBU25MBN12UN45 00100329MBN                                             20MBN12UN45 34MBU12UN45 29MBN12UN45                                                                                     
603AR070015 718000017916070  00EL DORADO               Arkans10      0A004D28MBU            00300030FBN29MBN26FBN                                   23MBU11UN99                                                                                                             
603AR072009B7180000491780722700WASHINGTON              Arkans12      0A001A62MWN75MWN12OF45 000000                                                                                                                                                                          
603AR072009B7180000491780722700WASHINGTON              Arkans11      0A001A34MWN29MWH12ST60 000000                                                                                                                                                                          
603AR072009B7180000491780722700WASHINGTON              Arkans06      0A001A55FWU56MWN11WI99 000000                                                                                                                                                                          
603AR072013 7180000870080722700FAYETTEVILLE            Arkans01      0A001A22MBN25MBN12ST45 000000                                                                                                                                                                          
603AR072023 7180000734960722700SPRINGDALE              Arkans09      0A001A01FWN24MWN40DA60 000000                                                                                                                                                                          
603AR072023 7180000734960722700SPRINGDALE              Arkans12      0A001A19MWH18MWH11OK99 000000                                                                                                                                                                          
603AR072023 7180000734960722700SPRINGDALE              Arkans05      0A001A55MWN33MWN20OK99 000000                                                                                                                                                                          
603AR072023 7180000734960722700SPRINGDALE              Arkans05      0B002A21MBN21FWN12BF59 000000                                                                                                                                                                          
603AR072023 7180000734960722700SPRINGDALE              Arkans05      0A003A21MBN29MWN12ST80E000000                                                                                                                                                                          
603AR072047 7180000000000722700UNIV OF AR: FAYETTEVILLEArkans05      0A001A51MWN23MBN90AQ99 000000                                                                                                                                                                          
603AR072086 7180000026230722700WEST FORK               Arkans06      0A001A55FWN56MWN90WI99 000000                                                                                                                                                                          
603AR073008B718000037188073  00WHITE                   Arkans01      0A001D45FWN42MWN11OK99 00100054MWN                                                                                                                                                                     
603AR075008C718000012648075  00YELL                    Arkans11      0A001A02MWN20MWN90OK45 000000                                                                                                                                                                          
602AZ001057 818000001955001  00SPRINGERVILLE           Arizon11      0A001D34FWN            00100037MWH                                             34MWN13WI40                                                                                                             
602AZ001897 818000000000000  00NAVAJO NATION           Arizon100624210A001A40MIN37MIN20BR99 000000                                                                                                                                                                          
602AZ001897 818000000000000  00NAVAJO NATION           Arizon120624210A001B31MIN00UUU11UN99 000000                                                                                                                                                                          
602AZ001897 818000000000000  00NAVAJO NATION           Arizon110624210A001B34MIN00UUU11UN99 000000                                                                                                                                                                          
602AZ001897 818000000000000  00NAVAJO NATION           Arizon090624210A001A18MIN17MIN90UN99 000000                                                                                                                                                                          
602AZ001897 818000000000000  00NAVAJO NATION           Arizon080624210A001B60MIN00UUU20UN99 000000                                                                                                                                                                          
602AZ001897 818000000000000  00NAVAJO NATION           Arizon070624210A001B36MIN00UUU90UN99 000000                                                                                                                                                                          
602AZ001897 818000000000000  00NAVAJO NATION           Arizon060624210A001A52MIN40MIN20OF99 000000                                                                                                                                                                          
602AZ001897 818000000000000  00NAVAJO NATION           Arizon030624210A001B26MIU00UUU11UN99 000000                                                                                                                                                                          
602AZ001897 818000000000000  00NAVAJO NATION           Arizon020624210A001B59MIN00UUU90UN99 000000                                                                                                                                                                          
602AZ001897 818000000000000  00NAVAJO NATION           Arizon010624210A001A50MIN42FIN20BF99 000000                                                                                                                                                                          
602AZ001897 818000000000000  00NAVAJO NATION           Arizon090624210A002B00FIN00UUU90UN99 000000                                                                                                                                                                          
602AZ001897 818000000000000  00NAVAJO NATION           Arizon070624210A002A00UUU20MIN90UN99 000000                                                                                                                                                                          
602AZ001897 818000000000000  00NAVAJO NATION           Arizon110624210A002B42FIN00UUU90UN99 000000                                                                                                                                                                          
602AZ001897 818000000000000  00NAVAJO NATION           Arizon060624210A002C24MIN33MIN11UN99 000001                                                  35MIN11UN99                                                                                                             
602AZ001897 818000000000000  00NAVAJO NATION           Arizon100624210A002B00MUU00UUU90UN99 000000                                                                                                                                                                          
602AZ001897 818000000000000  00NAVAJO NATION           Arizon030624210A002A50MIN25MIN40UN99 000000                                                                                                                                                                          
602AZ001897 818000000000000  00NAVAJO NATION           Arizon020624210A002B27MIN00UUU11UN99 000000                                                                                                                                                                          
602AZ001897 818000000000000  00NAVAJO NATION           Arizon060624210A003B34MIN00UUU20UN99 000000                                                                                                                                                                          
602AZ001897 818000000000000  00NAVAJO NATION           Arizon090624210A003B34MIN00UUU90UN99 000000                                                                                                                                                                          
602AZ001897 818000000000000  00NAVAJO NATION           Arizon020624210A003A17MIN22MIN90UN99 000000                                                                                                                                                                          
602AZ001897 818000000000000  00NAVAJO NATION           Arizon110624210A003A28MIN31MIN20BR99 000000                                                                                                                                                                          
602AZ001897 818000000000000  00NAVAJO NATION           Arizon090624210A004B39MIN00UUU90UN99 000000                                                                                                                                                                          
602AZ001897 818000000000000  00NAVAJO NATION           Arizon110624210A004B35FIN00UUU20UN99 000000                                                                                                                                                                          
602AZ003009B8180000551660032750COCONINO                Arizon021115210A001A53MWN28MWN40NE45 000000                                                                                                                                                                          
602AZ003009B8180000551660032750COCONINO                Arizon051115210B001A94MWH70MWN90WI59 000000                                                                                                                                                                          
602AZ003009B8180000551660032750COCONINO                Arizon041115210A001B00UUU00UUU90UN99 000000                                                                                                                                                                          
602AZ003013 8180000728520032750FLAGSTAFF               Arizon110517210A001A45MWN33MIN90FR43 000000                                                                                                                                                                          
602AZ003013 8180000728520032750FLAGSTAFF               Arizon020517210A001A19FBN20MWH12BF10 000000                                                                                                                                                                          
602AZ003037 8180000013000032750FREDONIA                Arizon10      0A001A36MWN27FWN20BF45 000000                                                                                                                                                                          
602AZ004008B818000028349004  00GILA                    Arizon07      0A001A21MWN27MBU12AQ99 000000                                                                                                                                                                          
602AZ004016 818000007330004  00GLOBE                   Arizon11      0A001D22FWH            00200022MWH44FWH                                        22MIN12ST99                                                                                                             
602AZ007009A8180004541980076620MARICOPA                Arizon12      0A001A50MWN42MWN12ST81A000000                                                                                                                                                                          
602AZ007009A8180004541980076620MARICOPA                Arizon11      0A001A65FBN11MBN12OF45 000000                                                                                                                                                                          
602AZ007009A8180004541980076620MARICOPA                Arizon06      0A001B56MWN00UUU80UN99 000000                                                                                                                                                                          
602AZ007009A8180004541980076620MARICOPA                Arizon10      0A001A37FWN45MWN12GF45 000000                                                                                                                                                                          
602AZ007009A8180004541980076620MARICOPA                Arizon08      0A001A35MWN27FWN12XH99 000000                                                                                                                                                                          
602AZ007009A8180004541980076620MARICOPA                Arizon07      0A001A71MWN92FWN12SO45 000000                                                                                                                                                                          
602AZ007009A8180004541980076620MARICOPA                Arizon01      0A001B03MWN00UUU90UN99 000000                                                                                                                                                                          
602AZ007009A8180004541980076620MARICOPA                Arizon02      0A001B38MIH00UUU90UN99 000000                                                                                                                                                                          
602AZ007009A8180004541980076620MARICOPA                Arizon05      0A001A43MWN39MWN12AQ40 000000                                                                                                                                                                          
602AZ007009A8180004541980076620MARICOPA                Arizon11      0A002B35MWN00UUU11UN99 000000                                                                                                                                                                          
602AZ007009A8180004541980076620MARICOPA                Arizon06      0A002A41FWH43MWH11WI99 000000                                                                                                                                                                          
602AZ007009A8180004541980076620MARICOPA                Arizon05      0A002A39MWH37MWH12OK45 000000                                                                                                                                                                          
602AZ007009A8180004541980076620MARICOPA                Arizon01      0A002B39MWN00UUU90UN99 000000                                                                                                                                                                          
602AZ007009A8180004541980076620MARICOPA                Arizon10      0A002A28MIN31MIN12AQ45 000000                                                                                                                                                                          
602AZ007009A8180004541980076620MARICOPA                Arizon08      0A003B22FBN00UUU90UN99 000000                                                                                                                                                                          
602AZ007009A8180004541980076620MARICOPA                Arizon11      0A003F25MWH00UUU11UN99 00100026MWH                                                                                                                                                                     
602AZ007009A8180004541980076620MARICOPA                Arizon06      0A003B00UUU00UUU90UN99 000000                                                                                                                                                                          
602AZ007009A8180004541980076620MARICOPA                Arizon08      0A004A39MWN52MWN11AQ99 000000                                                                                                                                                                          
602AZ007013 8180000852040076620AVONDALE                Arizon04      0A001A55MWH42MWH12NE45 000000                                                                                                                                                                          
602AZ007013 8180000852040076620AVONDALE                Arizon08      0A001A19MWH19MPN12AQ44 000000                                                                                                                                                                          
602AZ007013 8180000852040076620AVONDALE                Arizon07      0A001C17MWH00MWH12AQ18 000001                                                  18MWH12AQ18                                                                                                             
602AZ007013 8180000852040076620AVONDALE                Arizon03      0A001B29MWN00UUU12UN99 000000                                                                                                                                                                          
602AZ007013 8180000852040076620AVONDALE                Arizon01      0A001B47MAN00UUU11UN99 000000                                                                                                                                                                          
602AZ007013 8180000852040076620AVONDALE                Arizon01      0A002A49MWH26MWH12FA99 000000                                                                                                                                                                          
602AZ007013 8180000852040076620AVONDALE                Arizon07      0A002A27MWH31MBN12ST80C000000                                                                                                                                                                          
602AZ007033 8180000713180076620BUCKEYE                 Arizon12      0A001C34MWH39MWN15ST81A000002                                                  47MWN15ST81A49MWN15ST81A                                                                                                
602AZ007033 8180000713180076620BUCKEYE                 Arizon01      0B001B24FWN00UUU11UN59 000000                                                                                                                                                                          
602AZ007033 8180000713180076620BUCKEYE                 Arizon05      0A001A00MWH24MWH90SO26 000000                                                                                                                                                                          
602AZ007051C8180002559860076620CHANDLER                Arizon070802210A001A81FIN50MIN20OF45 000000                                                                                                                                                                          
602AZ007051C8180002559860076620CHANDLER                Arizon100802210A001C84MWN31MWN13ST81A000001                                                  31MWN13ST81A                                                                                                            
602AZ007051C8180002559860076620CHANDLER                Arizon010802210A001A80FWH59FWH85MO44 000000                                                                                                                                                                          
602AZ007051C8180002559860076620CHANDLER                Arizon030802210B001A03FWN33MWN14DA53 000000                                                                                                                                                                          
602AZ007051C8180002559860076620CHANDLER                Arizon100802210A002A31MWH30MWN12UN45 000000                                                                                                                                                                          
602AZ007051C8180002559860076620CHANDLER                Arizon100802210A003ANBMWN19FWN40SO26 000000                                                                                                                                                                          
602AZ007074 8180000357330076620EL MIRAGE               Arizon040802210A001A17MWH16MBU12OK02 000000                                                                                                                                                                          
602AZ007112 8180002474630076620GILBERT                 Arizon11      0A001A49MWN49FW 12HU99 000000                                                                                                                                                                          
602AZ007112 8180002474630076620GILBERT                 Arizon02      0A001C37MWN00MW 12UN60 000001                                                  00MW 12UN60                                                                                                             
602AZ007132 8180002497990076620GLENDALE                Arizon070419230A001A26MWH00MWH12ST45 000000                                                                                                                                                                          
602AZ007132 8180002497990076620GLENDALE                Arizon060419230B001C14MWH13MWH12FR53 000001                                                  31FWH12FR53                                                                                                             
602AZ007132 8180002497990076620GLENDALE                Arizon050419230A001A17MBU16MBU12AQ46 000000                                                                                                                                                                          
602AZ007132 8180002497990076620GLENDALE                Arizon030419230A001A44MWN00MUU13ST81B000000                                                                                                                                                                          
602AZ007132 8180002497990076620GLENDALE                Arizon010419230A001A59MBN00MBU13UN99 000000                                                                                                                                                                          
602AZ007132 8180002497990076620GLENDALE                Arizon020419230A001A24MWH26MWH12OK40 000000                                                                                                                                                                          
602AZ007132 8180002497990076620GLENDALE                Arizon110419230A001A32MBN33MWN20ST43 000000                                                                                                                                                                          
602AZ007132 8180002497990076620GLENDALE                Arizon010419230A002A85FWN59MWN12IL45 000000                                                                                                                                                                          
602AZ007132 8180002497990076620GLENDALE                Arizon110419230A002A24MBN00MWU12ST81A000000                                                                                                                                                                          
602AZ007132 8180002497990076620GLENDALE                Arizon020419230A002A58MBN30MBN90FA44 000000                                                                                                                                                                          
602AZ007132 8180002497990076620GLENDALE                Arizon010419230A003B48MBN00UUU12UN18 000000                                                                                                                                                                          
602AZ007132 8180002497990076620GLENDALE                Arizon020419230A003A43FWN38MWN20GF45 000000                                                                                                                                                                          
602AZ007153 8180000821590076620GOODYEAR                Arizon050916210A001A16MWN23MBN11UN99 000000                                                                                                                                                                          
