650AK001011C91900028773100  380ANCHORAGE               Alaska05      0A001B37MWU00UUU12UN99 000000                                                                                                                                                                          
650AK001011C91900028773100  380ANCHORAGE               Alaska11      0A001A48MWU27MWU11AQ44 000000                                                                                                                                                                          
650AK001011C91900028773100  380ANCHORAGE               Alaska04      0A001A27MIU25MIU40AQ45 000000                                                                                                                                                                          
650AK001011C91900028773100  380ANCHORAGE               Alaska03      0A001C23MWU28MAU11ST81A000003                                                  34MWU11ST81A23MWU11ST81A27MWU11ST81A                                                                                    
650AK001011C91900028773100  380ANCHORAGE               Alaska10      0A001A59MAU53MIU40AQ42 000000                                                                                                                                                                          
650AK001011C91900028773100  380ANCHORAGE               Alaska09      0A001B49MWU00UUU20UN99 000000                                                                                                                                                                          
650AK001011C91900028773100  380ANCHORAGE               Alaska12      0A001A34MWU39MBU11AQ44 000000                                                                                                                                                                          
650AK001011C91900028773100  380ANCHORAGE               Alaska08      0A001A44MBU25MIU40AQ45 000000                                                                                                                                                                          
650AK001011C91900028773100  380ANCHORAGE               Alaska02      0A001A46FWU61MWU11WI45 000000                                                                                                                                                                          
650AK001011C91900028773100  380ANCHORAGE               Alaska06      0A001A18MAU12MBU11ST26 000000                                                                                                                                                                          
650AK001011C91900028773100  380ANCHORAGE               Alaska01      0A001C36MIU21MAU11AQ99 000001                                                  28MBU11AQ99                                                                                                             
650AK001011C91900028773100  380ANCHORAGE               Alaska04      0A002C31MBU31MWU11ST81A000002                                                  28MWU11ST81A29MWU11ST81A                                                                                                
650AK001011C91900028773100  380ANCHORAGE               Alaska06      0A002C19FWU19MIU11FR26 000004                                                  16MWU11FR26 18FWU11FR26 15FWU11FR26 15MIU11FR26                                                                         
650AK001011C91900028773100  380ANCHORAGE               Alaska08      0A002A19MBU18MBU11FR26 000000                                                                                                                                                                          
650AK001011C91900028773100  380ANCHORAGE               Alaska09      0A002A30FIU48MWU40ST60 000000                                                                                                                                                                          
650AK001011C91900028773100  380ANCHORAGE               Alaska11      0A002A54FIU42MIU20AQ42 000000                                                                                                                                                                          
650AK001011C91900028773100  380ANCHORAGE               Alaska03      0A002A22FIU42MIU40GF45 000000                                                                                                                                                                          
650AK001011C91900028773100  380ANCHORAGE               Alaska12      0A002B51MWU00UUU40UN99 000000                                                                                                                                                                          
650AK001011C91900028773100  380ANCHORAGE               Alaska01      0B002A24MWU26FAU11FR53 000000                                                                                                                                                                          
650AK001011C91900028773100  380ANCHORAGE               Alaska02      0A002A30FIU19MAU11ST18 000000                                                                                                                                                                          
650AK001011C91900028773100  380ANCHORAGE               Alaska10      0A002A53FIU48MWU11ST60 000000                                                                                                                                                                          
650AK001011C91900028773100  380ANCHORAGE               Alaska02      0A003A40MBU20MBU11AQ45 000000                                                                                                                                                                          
650AK001011C91900028773100  380ANCHORAGE               Alaska12      0A003B27FWU00UUU40UN26 000000                                                                                                                                                                          
650AK001011C91900028773100  380ANCHORAGE               Alaska11      0A003A23FIU27MIU11BR45 000000                                                                                                                                                                          
650AK001011C91900028773100  380ANCHORAGE               Alaska08      0A003C38MAU25FWU11ST60 000002                                                  22MWU11ST60 36MWU11ST60                                                                                                 
650AK001011C91900028773100  380ANCHORAGE               Alaska06      0A003A51FWU37MWU11GF45 000000                                                                                                                                                                          
650AK001011C91900028773100  380ANCHORAGE               Alaska04      0A003B23MBU00UUU11UN99 000000                                                                                                                                                                          
650AK001011C91900028773100  380ANCHORAGE               Alaska03      0A003A03FWU24FWU20DA60 000000                                                                                                                                                                          
650AK001011C91900028773100  380ANCHORAGE               Alaska04      0A004B36MBU00UUU11UN99 000000                                                                                                                                                                          
650AK001011C91900028773100  380ANCHORAGE               Alaska03      0A004B19MBU00UUU11UN03 000000                                                                                                                                                                          
650AK001011C91900028773100  380ANCHORAGE               Alaska02      0A004B31MWU00UUU40UN26 000000                                                                                                                                                                          
650AK001011C91900028773100  380ANCHORAGE               Alaska12      0A004A42MBU43MBU11AQ45 000000                                                                                                                                                                          
650AK001011C91900028773100  380ANCHORAGE               Alaska06      0A004B36MWU00UUU90UN26 000000                                                                                                                                                                          
650AK001011C91900028773100  380ANCHORAGE               Alaska11      0A004D30FAU            00100013FAU                                             34MAU11WI45                                                                                                             
650AK001011C91900028773100  380ANCHORAGE               Alaska11      0B005A29FAU31MAU11GF53 000000                                                                                                                                                                          
650AK001011C91900028773100  380ANCHORAGE               Alaska11      0B006A20MWU22MWU11FR53 000000                                                                                                                                                                          
650AK001024 91900003149300 2580FAIRBANKS               Alaska110217220A001C42MBU34MWU12AQ99 000001                                                  31MWU12AQ99                                                                                                             
650AK001024 91900003149300 2580FAIRBANKS               Alaska060217220A001C28MWN40MWN11ST81B000003                                                  25MWU11ST81B23MWU11ST81B41MWN11ST81B                                                                                    
650AK001024 91900003149300 2580FAIRBANKS               Alaska010217220A001A29MIN18MIN20BR99 000000                                                                                                                                                                          
650AK001024 91900003149300 2580FAIRBANKS               Alaska010217220A002A70FIN34MIU40MO99 000000                                                                                                                                                                          
650AK001034 91900003181000   00JUNEAU                  Alaska120316230A001A58MWN34MWN12ST81A000000                                                                                                                                                                          
650AK001034 91900003181000   00JUNEAU                  Alaska110316230A001A36FWN36MIN30GF45 000000                                                                                                                                                                          
650AK001034 91900003181000   00JUNEAU                  Alaska060316230A001A62MWN42FIN20BF42 000000                                                                                                                                                                          
650AK001034 91900003181000   00JUNEAU                  Alaska050316230A001A47MWN39MIU20UN45 000000                                                                                                                                                                          
650AK001034 91900003181000   00JUNEAU                  Alaska110316230B002D19FWN19MWN90AQ59 00100015FWN                                                                                                                                                                     
650AK001136 91900000654400   00BETHEL                  Alaska031231210A001A65MIN27MIN40OF60 000000                                                                                                                                                                          
650AK001176 91900000749000  380PALMER                  Alaska110219220A001A28FIU35MIU80GF45 000000                                                                                                                                                                          
650AK001186 91900000980100   00NORTH SLOPE BOROUGH     Alaska101115210A001A01MIU29FIU85SO60 000000                                                                                                                                                                          
650AK001186 91900000980100   00NORTH SLOPE BOROUGH     Alaska081115210A001A40MIN14MIN12FA26 000000                                                                                                                                                                          
650AK001226 91900000591300   00HOMER                   Alaska101115210A001A38FW 32MW 85OK60 000000                                                                                                                                                                          
650AK001236 91900000786200   00KENAI                   Alaska071115210A001D39FWU            00100060FWU                                             25MBU12AQ18                                                                                                             
650AK001307 91900000240500   00DILLINGHAM              Alaska090226220A001A43MIU49MIU40AQ40 000000                                                                                                                                                                          
650AK001565 91900001091500  380WASILLA                 Alaska121117210A001A60FWU38MWU12MO26 000000                                                                                                                                                                          
650AK001565 91900001091500  380WASILLA                 Alaska111117210A001A57MWN64MWN14ST80E000000                                                                                                                                                                          
650AKAST018A919000264369000  00ALASKA STATE TROOPERS   Alaska081029210A001A30FIU29MIU40GF60 000000                                                                                                                                                                          
650AKAST018A919000264369000  00ALASKA STATE TROOPERS   Alaska091029210A001A41MIU32MIU14BR42 000000                                                                                                                                                                          
650AKAST018A919000264369000  00ALASKA STATE TROOPERS   Alaska111029210A001F37FIU00UUU12UN99 00200028FWU25MWU                                                                                                                                                                
650AKAST018A919000264369000  00ALASKA STATE TROOPERS   Alaska041029210A001D40MWU30MWU12AQ45 00100028MWU                                                                                                                                                                     
650AKAST018A919000264369000  00ALASKA STATE TROOPERS   Alaska021029210A001A47FWU57MWU14GF99 000000                                                                                                                                                                          
650AKAST018A919000264369000  00ALASKA STATE TROOPERS   Alaska101029210A001A32MWU39MWU12FR60 000000                                                                                                                                                                          
650AKAST018A919000264369000  00ALASKA STATE TROOPERS   Alaska011029210A001A19MWU20MWU12FR99 000000                                                                                                                                                                          
650AKAST018A919000264369000  00ALASKA STATE TROOPERS   Alaska051029210A001A69FWU25MWU85OK26 000000                                                                                                                                                                          
650AKAST018A919000264369000  00ALASKA STATE TROOPERS   Alaska071029210A001A61MWU33MIU12AQ45 000000                                                                                                                                                                          
650AKAST018A919000264369000  00ALASKA STATE TROOPERS   Alaska031029210A001A29MWU31MWU12NE45 000000                                                                                                                                                                          
650AKAST018A919000264369000  00ALASKA STATE TROOPERS   Alaska121029210A001A46MIU43MWU12FR44 000000                                                                                                                                                                          
650AKAST018A919000264369000  00ALASKA STATE TROOPERS   Alaska051029210A002A46MIU27MIU12SF45 000000                                                                                                                                                                          
650AKAST018A919000264369000  00ALASKA STATE TROOPERS   Alaska041029210B002A24FIU22MIU65FR59 000000                                                                                                                                                                          
650AKAST018A919000264369000  00ALASKA STATE TROOPERS   Alaska031029210A002A40MWU19MWU14SF99 000000                                                                                                                                                                          
650AKAST018A919000264369000  00ALASKA STATE TROOPERS   Alaska121029210A002A47MWU99UUU11UN99 000000                                                                                                                                                                          
650AKAST018A919000264369000  00ALASKA STATE TROOPERS   Alaska111029210A002A26MIU36MIU14BR26 000000                                                                                                                                                                          
650AKAST018A919000264369000  00ALASKA STATE TROOPERS   Alaska101029210A002A35MIU36MIU13BR42 000000                                                                                                                                                                          
650AKAST018A919000264369000  00ALASKA STATE TROOPERS   Alaska091029210A002A41MIU35MIU20FR42 000000                                                                                                                                                                          
650AKAST018A919000264369000  00ALASKA STATE TROOPERS   Alaska081029210A002A41FIU27MIU20FR60 000000                                                                                                                                                                          
650AKAST018A919000264369000  00ALASKA STATE TROOPERS   Alaska071029210A002A41MIU57MIU14OF45 000000                                                                                                                                                                          
650AKAST018A919000264369000  00ALASKA STATE TROOPERS   Alaska111029210A003A24MIU22MBU14AQ99 000000                                                                                                                                                                          
650AKAST018A919000264369000  00ALASKA STATE TROOPERS   Alaska111029210A004A24MIU22MBU14AQ99 000000                                                                                                                                                                          
601AL001065 619000009957037 980LEEDS                   Alabam040310230A001A02MWN24MWN40OF45 000000                                                                                                                                                                          
601AL001123 619000060741037 980HOOVER                  Alabam110509220A001A55MWN24MBU12UN45 000000                                                                                                                                                                          
601AL001123 619000060741037 980HOOVER                  Alabam060509220A001C20MWN20MBN12UN18 000001                                                  20MBN12UN18                                                                                                             
601AL001123 619000060741037 980HOOVER                  Alabam020509220A004C29MBN00MBN12UN99 000001                                                  00FBN12UN99                                                                                                             
601AL001123 619000060741037 980HOOVER                  Alabam020509220A005A73MWN36MWN30AQ99 000000                                                                                                                                                                          
601AL001135 619000012582037 980IRONDALE                Alabam100706220A001A30FBN53MBN12AQ45 000000                                                                                                                                                                          
601AL008009B619000045702005 980BLOUNT                  Alabam091018210A001E01MWN30MWN40SO99 00100103MWU                                             24FWN40SO99                                                                                                             
601AL014009B619000029901011 980CHILTON                 Alabam100123230A001A60FWU23MWN11AQ99 000000                                                                                                                                                                          
601AL038013 6190000672650352270DOTHAN                  Alabam101104220A001B25MBNNSXU 12UN60 000000                                                                                                                                                                          
601AL038013 6190000672650352270DOTHAN                  Alabam011104220A001ABBUWN24MWN40UN45 000000                                                                                                                                                                          
601AL043009B619000063574041 570LEE                     Alabam080404230A001A20MBN23MBN12UN99 000000                                                                                                                                                                          
601AL043009B619000063574041 570LEE                     Alabam020404230A001B35MBNNSXU 11UN99 000000                                                                                                                                                                          
601AL043013 619000067407041 570AUBURN                  Alabam060406210A001A57MWN28MWN90UN99 000000                                                                                                                                                                          
601AL043013 619000067407041 570AUBURN                  Alabam040406210A001A59FBN48MBN20AQ99 000000                                                                                                                                                                          
601AL061008B619000035136061  00TALLADEGA               Alabam100406210A001A32MBN33FBN12BF45 000000                                                                                                                                                                          
603AR001026 719000008589001  00STUTTGART               Arkans02      0A001C20MBN21MBN12OF46 000008                                                  26MBN12OF46 23MBN12UN46 24MBN12AQ46 18MBN12AQ46 28                                                                      
603AR002026 719000002636002  00HAMBURG                 Arkans07      0A001A25MBU24MBU20UN45 000000                                                                                                                                                                          
603AR003008C719000024702003  00BAXTER                  Arkans06      0A001C20MWN26MWU13AQ60 000001                                                  37MWU13AQ60                                                                                                             
603AR003037 719000002156003  00GASSVILLE               Arkans05      0A001A45MWN22MWN12FR45 000000                                                                                                                                                                          
603AR003037 719000002156003  00GASSVILLE               Arkans04      0A001A27FWN27MWN12GF45 000000                                                                                                                                                                          
603AR003047 719000000715003  00LAKEVIEW                Arkans07      0A001A65FWU65MWU12WI60 000000                                                                                                                                                                          
603AR004009B7190000484620042700BENTON                  Arkans07      0A001D42FWN            00200022MWN19MWN                                        45MWN12WI60                                                                                                             
603AR004013 7190000534340042700BENTONVILLE             Arkans12      0A003A24MBN39MBN20OK45 000000                                                                                                                                                                          
603AR004013 7190000534340042700BENTONVILLE             Arkans12      0A004A17MWN25MWN12OK81A000000                                                                                                                                                                          
603AR004023 7190000691680042700ROGERS                  Arkans09      0A001A85MWN23FBN90OK99 000000                                                                                                                                                                          
603AR004023 7190000691680042700ROGERS                  Arkans01      0B001A26FWN19MWN90ST59 000000                                                                                                                                                                          
603AR004035 7190000172350042700SILOAM SPRINGS          Arkans01      0B001A11MWN38MWN85SS59 000000                                                                                                                                                                          
603AR004076 7190000034430042700GRAVETTE                Arkans04      0B001A36MWN38MWN40BR59 000000                                                                                                                                                                          
603AR004135 7190000165420042700CENTERTON               Arkans05      0A001D39FWN12MIN20MO45 00100017MIN                                                                                                                                                                     
603AR005008C719000023534005  00BOONE                   Arkans10      0A001A00MUU25MUU20OK60 000000                                                                                                                                                                          
603AR009037 719000002241009  00LAKE VILLAGE            Arkans12      0A001A39MBN19MBN12UN60 000000                                                                                                                                                                          
603AR009037 719000002241009  00LAKE VILLAGE            Arkans11      0A001A18FBH41MBN13AQ60 000000                                                                                                                                                                          
603AR010015 719000010451010  00ARKADELPHIA             Arkans06      0A001A26MBN60MBN12UN45 000000                                                                                                                                                                          
603AR014008C719000011880014  00COLUMBIA                Arkans01      0A001C39MBN00UUU11UN99 000003                                                  69MBU11UN99 58FBU11UN99 59MBN11UN99                                                                                     
603AR015008C719000013065015  00CONWAY                  Arkans10      0A001A61FWN53MWN90WI45 000000                                                                                                                                                                          
603AR015008C719000013065015  00CONWAY                  Arkans10      0A002A26MWN25FWN20HU45 000000                                                                                                                                                                          
603AR016009C7190000180550163960CRAIGHEAD               Arkans09      0A001A56MWN32MWN30FR45 000000                                                                                                                                                                          
603AR016009C7190000180550163960CRAIGHEAD               Arkans08      0A001A37FWN35MBN12UN07 000000                                                                                                                                                                          
603AR016013 7190000782610163960JONESBORO               Arkans09      0A001A33FWN34MWN85GF45 000000                                                                                                                                                                          
603AR016013 7190000782610163960JONESBORO               Arkans12      0A001A50FWN48MWN20GF06 000000                                                                                                                                                                          
603AR016013 7190000782610163960JONESBORO               Arkans07      0A001D37FBH30MBN11AQ45 00100038MBU                                                                                                                                                                     
603AR016013 7190000782610163960JONESBORO               Arkans02      0A001C44MWN47MWN11OK45 000001                                                  40FWN11UN45                                                                                                             
603AR016013 7190000782610163960JONESBORO               Arkans11      0A002C24MWN00MBN12ST99 000003                                                  22MBN12UN99 27MBN12UN99 23MBN12UN99                                                                                     
603AR016013 7190000782610163960JONESBORO               Arkans11      0A003D29FBN31MBN12UN05 00400007FBN09MBN10MBN26MBN                                                                                                                                                      
603AR016013 7190000782610163960JONESBORO               Arkans01      0A004A35MBN29MBU12UN45 000000                                                                                                                                                                          
603AR016013 7190000782610163960JONESBORO               Arkans01      0A005C16MBN19MBU12UN99 000002                                                  21MBN12UN99 19MBN12UN99                                                                                                 
603AR017009B7190000291410172850CRAWFORD                Arkans030920220A001A33MBN36FWN12BF45 000000                                                                                                                                                                          
603AR018009D7190000087830185190CRITTENDEN              Arkans04      0A001D42MBN            00200025FBN05MBN                                        35MBN11ST45                                                                                                             
603AR018015 7190000244420185190WEST MEMPHIS            Arkans09      0A001C39MBN38MBN13UN18 000002                                                  34FBN13UN18 34FBN13UN18                                                                                                 
603AR018015 7190000244420185190WEST MEMPHIS            Arkans08      0A001A26MBN25MBN12OK99 000000                                                                                                                                                                          
603AR018015 7190000244420185190WEST MEMPHIS            Arkans05      0A001C30MBN31MBN12AQ03 000002                                                  26MBN12AQ03 31MBU12AQ03                                                                                                 
603AR018015 7190000244420185190WEST MEMPHIS            Arkans03      0A001A24MBN26MBN11UN99 000000                                                                                                                                                                          
603AR018015 7190000244420185190WEST MEMPHIS            Arkans02      0A001A17MBN14MBN11UN99 000000                                                                                                                                                                          
603AR018015 7190000244420185190WEST MEMPHIS            Arkans04      0A006E24MBN23MBN12UN60 00100125MBN                                             23MBN12UN60                                                                                                             
603AR018015 7190000244420185190WEST MEMPHIS            Arkans04      0A007A16MBN26MBN11UN99 000000                                                                                                                                                                          
603AR019016 719000007812019  00WYNNE                   Arkans04      0A001C39MWN26FWN40UN03 000005                                                  41MWN40UN03 40MWU40UN03 41FWN40UN03 24MWN40UN03 29                                                                      
603AR021036 719000004084021  00DUMAS                   Arkans10      0A001B22MBUNSXU 11UN45 000000                                                                                                                                                                          
603AR023009B7190000446370234690FAULKNER                Arkans08      0A001A40MWN27UUU90UN99 000000                                                                                                                                                                          
603AR023013 7190000673360234690CONWAY                  Arkans11      0A001BBBMBNNSXU 90UN60 000000                                                                                                                                                                          
603AR023013 7190000673360234690CONWAY                  Arkans06      0A001A22FWN22MWN12WI99 000000                                                                                                                                                                          
603AR023013 7190000673360234690CONWAY                  Arkans05      0B001A05MBN28FBN90OF59 000000                                                                                                                                                                          
603AR024009C7190000109590242850FRANKLIN                Arkans07      0A001C42MWN32MWN20UN45 000001                                                  34FWN20UN45                                                                                                             
603AR026014 7190000372630263560HOT SPRINGS             Arkans04      0A001A75MW 19MB 30EE05 000000                                                                                                                                                                          
603AR026014 7190000372630263560HOT SPRINGS             Arkans10      0A001C58FW 31MW 20AQ07 000003                                                  23FW 20AQ07 18FW 20AQ07 34MW 20AQ07                                                                                     
603AR026014 7190000372630263560HOT SPRINGS             Arkans03      0A001C21MB 18MB 12UN18 000001                                                  18FW 12UN18                                                                                                             
603AR026014 7190000372630263560HOT SPRINGS             Arkans08      0B001ABBFW 22FW 85DA59 000000                                                                                                                                                                          
603AR026014 7190000372630263560HOT SPRINGS             Arkans05      0A001E50MB 18MB 11UN99 00100123MB                                              23MB 11UN99                                                                                                             
603AR026014 7190000372630263560HOT SPRINGS             Arkans09      0A004A63MW 30MW 90ST99 000000                                                                                                                                                                          
603AR026014 7190000372630263560HOT SPRINGS             Arkans09      0A005A39MB 41MB 11AQ45 000000                                                                                                                                                                          
603AR026014 7190000372630263560HOT SPRINGS             Arkans06      0A007A40FW 41MB 14GF45 000000                                                                                                                                                                          
603AR026014 7190000372630263560HOT SPRINGS             Arkans07      0A007A28MW 26MW 11AQ45 000000                                                                                                                                                                          
603AR026014 7190000372630263560HOT SPRINGS             Arkans07      0A008A24MW 80MW 12OF80E000000                                                                                                                                                                          
603AR026014 7190000372630263560HOT SPRINGS             Arkans06      0A008A61MW 57FW 12HU45 000000                                                                                                                                                                          
603AR026014 7190000372630263560HOT SPRINGS             Arkans07      0A009D22FB 25FB 12AQ80E00100019FB                                                                                                                                                                      
603AR026014 7190000372630263560HOT SPRINGS             Arkans06      0A009B23MB NSXU 11UN45 000000                                                                                                                                                                          
603AR032008B719000026782032  00INDEPENDENCE            Arkans08      0A001B49UUUNSXU 11UN45 000000                                                                                                                                                                          
603AR033008C719000013535033  00IZARD                   Arkans01      0B001C17FWU60FWN90UN59 000001                                                  44MWU90UN59                                                                                                             
603AR034008D719000005530034  00JACKSON                 Arkans03      0A001A56MWN00UUN11UN60 000000                                                                                                                                                                          
603AR034016 719000007485034  00NEWPORT                 Arkans06      0A001A42MWN31MBN12OK45 000000                                                                                                                                                                          
603AR035009C7190000187510356640JEFFERSON               Arkans03      0A001E34MWU34MWH11UN45 00100121FWN                                             21FWN11UN45                                                                                                             
603AR035009C7190000187510356640JEFFERSON               Arkans01      0A001A55MWN37MWN12FR06 000000                                                                                                                                                                          
603AR035009C7190000187510356640JEFFERSON               Arkans12      0A001C56MWN53FBN20UN06 000006                                                  39FBN20UN06 49FBN20UN06 40MBU20UN06 53FBN20UN06 56                                                                      
603AR035014 7190000415050356640PINE BLUFF              Arkans11      0A001A00UUU00UUU11UN09 000000                                                                                                                                                                          
603AR035014 7190000415050356640PINE BLUFF              Arkans10      0A001A40FWN43MWN90GF99 000000                                                                                                                                                                          
603AR035014 7190000415050356640PINE BLUFF              Arkans09      0A001A36FBN33MBN90GF99 000000                                                                                                                                                                          
603AR035014 7190000415050356640PINE BLUFF              Arkans07      0A001A18MBN20MBN12UN45 000000                                                                                                                                                                          
603AR035014 7190000415050356640PINE BLUFF              Arkans06      0A001A36MBN38MBN90UN99 000000                                                                                                                                                                          
603AR035014 7190000415050356640PINE BLUFF              Arkans12      0A001A33MBN00UUU20UN99 000000                                                                                                                                                                          
603AR035014 7190000415050356640PINE BLUFF              Arkans05      0A001A33MBN24MBN11UN99 000000                                                                                                                                                                          
603AR035014 7190000415050356640PINE BLUFF              Arkans04      0A001A24MBN00UUU12UN99 000000                                                                                                                                                                          
603AR035014 7190000415050356640PINE BLUFF              Arkans01      0A001A28MBN00UUU11UN60 000000                                                                                                                                                                          
603AR035014 7190000415050356640PINE BLUFF              Arkans03      0A001A35MBN00UUU11UN99 000000                                                                                                                                                                          
603AR035014 7190000415050356640PINE BLUFF              Arkans02      0A001A22FBN00UUU13UN99 000000                                                                                                                                                                          
603AR035014 7190000415050356640PINE BLUFF              Arkans01      0A002A18MBN00UUU12UN99 000000                                                                                                                                                                          
603AR035014 7190000415050356640PINE BLUFF              Arkans10      0A002C69MWN29MBN90UN99 000001                                                  29FBN90UN99                                                                                                             
603AR035014 7190000415050356640PINE BLUFF              Arkans09      0A002A22MBN00UUU11UN99 000000                                                                                                                                                                          
603AR035014 7190000415050356640PINE BLUFF              Arkans08      0A002A33MBN00UUU11UN99 000000                                                                                                                                                                          
603AR035014 7190000415050356640PINE BLUFF              Arkans03      0A002A34MBN00UUU12UN99 000000                                                                                                                                                                          
603AR035014 7190000415050356640PINE BLUFF              Arkans05      0A002A33MBN00UUU12UN60 000000                                                                                                                                                                          
603AR035014 7190000415050356640PINE BLUFF              Arkans08      0A003D54MBN00UUU11UN99 00100035FBN                                                                                                                                                                     
603AR035014 7190000415050356640PINE BLUFF              Arkans03      0A003A54MBN34MBN12AQ60 000000                                                                                                                                                                          
603AR035014 7190000415050356640PINE BLUFF              Arkans01      0A003A53FBN00UUU11UN99 000000                                                                                                                                                                          
603AR035014 7190000415050356640PINE BLUFF              Arkans03      0A004A64MBN00UUU15UN99 000000                                                                                                                                                                          
603AR035014 7190000415050356640PINE BLUFF              Arkans03      0A005A39FWN17MWN12MO99 000000                                                                                                                                                                          
603AR038008D719000007598038  00LAWRENCE                Arkans11      0A001A44FWU76MWU13UN45 000000                                                                                                                                                                          
603AR039008D719000005398039  00LEE                     Arkans09      0A001A41MBU49MBU12UN45 000000                                                                                                                                                                          
603AR039016 719000003398039  00MARIANNA                Arkans12      0A001A25MBN46MBN12AQ45 000000                                                                                                                                                                          
603AR039016 719000003398039  00MARIANNA                Arkans07      0A001C40MBU30MBN11UN99 000001                                                  31MBN11UN99                                                                                                             
603AR040027 7190000020580406640STAR CITY               Arkans06      0A001C11MWN38MWU30UN60 000001                                                  29FWU30UN60                                                                                                             
603AR042016 719000003829042  00BOONEVILLE              Arkans09      0A001A22FWN27MWN90GF45 000000                                                                                                                                                                          
603AR043009B7190000285990434690LONOKE                  Arkans08      0A001C49MWN41MWU12UN45 000003                                                  44MWU12UN45 41FWU12UN45 64MWU12UN45                                                                                     
603AR043024 7190000268750434690CABOT                   Arkans09      0B001A32FWN21FWU90UN59 000000                                                                                                                                                                          
603AR044009C7190000165330442700MADISON                 Arkans10      0A001A38MWN39MWN30UN45 000000                                                                                                                                                                          
603AR046014 7190000299710468870TEXARKANA               Arkans08      0A001D45MW 18MBN11AQ60 00100055MBN                                                                                                                                                                     
603AR046014 7190000299710468870TEXARKANA               Arkans04      0A005A03FWU26FWN90DA60 000000                                                                                                                                                                          
603AR046014 7190000299710468870TEXARKANA               Arkans04      0A006A18FB 19MBN12AQ60 000000                                                                                                                                                                          
603AR047015 719000013468047  00BLYTHEVILLE             Arkans12      0A001A18MBN41UUU11UN99 000000                                                                                                                                                                          
603AR047015 719000013468047  00BLYTHEVILLE             Arkans10      0A001A70MBN29MBU11AQ99 000000                                                                                                                                                                          
603AR047015 719000013468047  00BLYTHEVILLE             Arkans09      0A001A48MBN41UUU11UN03 000000                                                                                                                                                                          
603AR047015 719000013468047  00BLYTHEVILLE             Arkans08      0A001C23MBU25MBN90UN99 000003                                                  23MBN90UN99 22MBN90UN99 25FBN90UN99                                                                                     
603AR047015 719000013468047  00BLYTHEVILLE             Arkans03      0A004C20MBN25MBN11UN99 000001                                                  26MBN11UN99                                                                                                             
603AR047015 719000013468047  00BLYTHEVILLE             Arkans03      0A005A37FBN33MBN11OK99 000000                                                                                                                                                                          
603AR047015 719000013468047  00BLYTHEVILLE             Arkans02      0B013A19FBN17MBU11AQ59 000000                                                                                                                                                                          
603AR047015 719000013468047  00BLYTHEVILLE             Arkans02      0A014A22MBN00UUU13UN99 000000                                                                                                                                                                          
603AR047015 719000013468047  00BLYTHEVILLE             Arkans02      0A015A26FBN37MBN12UN45 000000                                                                                                                                                                          
603AR047015 719000013468047  00BLYTHEVILLE             Arkans02      0A016C63MBN27MBN11UN99 000001                                                  14MBN11UN99                                                                                                             
603AR047015 719000013468047  00BLYTHEVILLE             Arkans02      0A017A35MBN17MBN11AQ99 000000                                                                                                                                                                          
603AR047026 719000006653047  00OSCEOLA                 Arkans09      0A001A18MBN00UUU11UN99 000000                                                                                                                                                                          
603AR047026 719000006653047  00OSCEOLA                 Arkans03      0A001A30FBN40MBN12WI99 000000                                                                                                                                                                          
603AR047026 719000006653047  00OSCEOLA                 Arkans05      0A004C02MBN23MBN12SO99 000001                                                  22FBN12SO99                                                                                                             
603AR047026 719000006653047  00OSCEOLA                 Arkans05      0A005A43MBN28MBN11UN99 000000                                                                                                                                                                          
603AR047076 719000003148047  00GOSNELL                 Arkans09      0B001A00MBU35FBU85SO59 000000                                                                                                                                                                          
603AR053017 7190000014540534690PERRYVILLE              Arkans01      0A001D32FWN            00100036MWU                                             36MWN20AQ45                                                                                                             
603AR054015 719000010187054  00HELENA-WEST HELENA      Arkans05      0B001B61FBNNSXU 65UN59 000000                                                                                                                                                                          
603AR054015 719000010187054  00HELENA-WEST HELENA      Arkans08      0A001D28FBU            00100040FBN                                             37MBU13UN26                                                                                                             
603AR054015 719000010187054  00HELENA-WEST HELENA      Arkans06      0A001C30MBN26MBN13UN45 000001                                                  36FBU13UN45                                                                                                             
603AR054015 719000010187054  00HELENA-WEST HELENA      Arkans02      0A001C62MBN29MBU11FR45 000003                                                  23FBN11UN45 34FBN11UN45 19MBN11UN45                                                                                     
603AR054015 719000010187054  00HELENA-WEST HELENA      Arkans10      0A006A20MBU25MBN11UN60 000000                                                                                                                                                                          
603AR054015 719000010187054  00HELENA-WEST HELENA      Arkans01      0A007A15MBU19MBN12FR99 000000                                                                                                                                                                          
603AR054015 719000010187054  00HELENA-WEST HELENA      Arkans10      0A008A28MBN21FBN12UN99 000000                                                                                                                                                                          
603AR054015 719000010187054  00HELENA-WEST HELENA      Arkans01      0A009C27MBN00UUN11UN99 000003                                                  25MBN11UN99 23FBU11UN99 20MBU11UN99                                                                                     
603AR054015 719000010187054  00HELENA-WEST HELENA      Arkans10      0A009C24MBU19MBN11UN46 000002                                                  19MBN11UN46 21MBU11UN46                                                                                                 
603AR054015 719000010187054  00HELENA-WEST HELENA      Arkans01      0A010E25MBN23MBU12UN45 00100217MBN                                             27MBN12UN26 30MBN12UN26                                                                                                 
603AR058008B719000026793058  00POPE                    Arkans07      0A001A52MWN15FWN14FA45 000000                                                                                                                                                                          
603AR058008B719000026793058  00POPE                    Arkans06      0A001A40MWN44MWN11UN45 000000                                                                                                                                                                          
603AR060009B7190000487260604690PULASKI                 Arkans08      0A001B18MWNNSXU 11UN99 000000                                                                                                                                                                          
603AR060009B7190000487260604690PULASKI                 Arkans03      0A001C44MWN25MWN12AQ99 000001                                                  25FWN12AQ99                                                                                                             
603AR060009B7190000487260604690PULASKI                 Arkans12      0A001C56MWU57MWN12OK45 000001                                                  37MWN12OK45                                                                                                             
603AR060009B7190000487260604690PULASKI                 Arkans07      0A001C18MBU18MBN12UN18 000001                                                  16MBN12UN18                                                                                                             
603AR060009B7190000487260604690PULASKI                 Arkans08      0A002A62MBN39MBN30FA45 000000                                                                                                                                                                          
603AR060014 7190000282730604690JACKSONVILLE            Arkans07      0A001A61MWN40MWN12ST81B000000                                                                                                                                                                          
603AR060014 7190000282730604690JACKSONVILLE            Arkans06      0A001C22MBN25MWN11ST81E000001                                                  27MWN11ST81E                                                                                                            
603AR060014 7190000282730604690JACKSONVILLE            Arkans02      0A001A19MBN33MWU12ST80E000000                                                                                                                                                                          
603AR060022 7190001983820604690LITTLE ROCK             Arkans12      0A001A37FBN16MBN11UN99 000000                                                                                                                                                                          
603AR060022 7190001983820604690LITTLE ROCK             Arkans03      0A004A24MBN28MBN11OK80C000000                                                                                                                                                                          
603AR060022 7190001983820604690LITTLE ROCK             Arkans05      0B005A04MBN27MBN11UN52 000000                                                                                                                                                                          
603AR060022 7190001983820604690LITTLE ROCK             Arkans03      0A005A58MWH29MBN20AQ99 000000                                                                                                                                                                          
603AR060022 7190001983820604690LITTLE ROCK             Arkans05      0A006A69MBN60MBN12BR45 000000                                                                                                                                                                          
603AR060022 7190001983820604690LITTLE ROCK             Arkans06      0A006A27MBN39MBN11UN99 000000                                                                                                                                                                          
603AR060022 7190001983820604690LITTLE ROCK             Arkans04      0A007A43MWN43MWN12ST81A000000                                                                                                                                                                          
603AR060022 7190001983820604690LITTLE ROCK             Arkans06      0A007D27FBN42MBN11UN99 00200024FBN14FBU                                                                                                                                                                
603AR060022 7190001983820604690LITTLE ROCK             Arkans02      0A008A34MBN00UUU12UN99 000000                                                                                                                                                                          
603AR060022 7190001983820604690LITTLE ROCK             Arkans11      0A008A20FBN22MBN11GF99 000000                                                                                                                                                                          
603AR060022 7190001983820604690LITTLE ROCK             Arkans04      0A008C43MWN43MWN12OK81A000002                                                  39MWN12UN81A41MWN12UN81A                                                                                                
603AR060022 7190001983820604690LITTLE ROCK             Arkans04      0A009A32MWH00UUU11UN99 000000                                                                                                                                                                          
603AR060022 7190001983820604690LITTLE ROCK             Arkans02      0A009A30MBN32MWN12ST81A000000                                                                                                                                                                          
603AR060022 7190001983820604690LITTLE ROCK             Arkans11      0A009A27MBN19MUH12OK99 000000                                                                                                                                                                          
603AR060022 7190001983820604690LITTLE ROCK             Arkans07      0A009A39MBN62MBN30UN99 000000                                                                                                                                                                          
603AR060022 7190001983820604690LITTLE ROCK             Arkans02      0A010C34MBN00UUU12UN03 000001                                                  22MBU12UN03                                                                                                             
603AR060022 7190001983820604690LITTLE ROCK             Arkans11      0A010D35FBN33MBN11UN99 00100036FBN                                                                                                                                                                     
603AR060022 7190001983820604690LITTLE ROCK             Arkans07      0A011A38MBN42MBN12AQ80G000000                                                                                                                                                                          
603AR060022 7190001983820604690LITTLE ROCK             Arkans07      0A012A61MWN64MBN20AQ99 000000                                                                                                                                                                          
603AR060022 7190001983820604690LITTLE ROCK             Arkans07      0A013C18MBN00UUU11UN99 000002                                                  00MBN11UN99 24MBN11UN99                                                                                                 
603AR060022 7190001983820604690LITTLE ROCK             Arkans08      0A014A30MBN34FBN12BF80C000000                                                                                                                                                                          
603AR060022 7190001983820604690LITTLE ROCK             Arkans08      0A015A33MBN29FBN12AQ99 000000                                                                                                                                                                          
603AR060022 7190001983820604690LITTLE ROCK             Arkans08      0A016C20MBN00UUU11UN99 000001                                                  26MBH11UN99                                                                                                             
603AR060022 7190001983820604690LITTLE ROCK             Arkans09      0A017C56MBN00FBN20UN45 000001                                                  34FBN20OK45                                                                                                             
603AR060022 7190001983820604690LITTLE ROCK             Arkans01      0A017A54MWN25MWN40FR99 000000                                                                                                                                                                          
603AR060022 7190001983820604690LITTLE ROCK             Arkans08      0A017A23MBN37MBN12ST80C000000                                                                                                                                                                          
603AR060022 7190001983820604690LITTLE ROCK             Arkans08      0A018A39MBN00UUU12UN99 000000                                                                                                                                                                          
603AR060022 7190001983820604690LITTLE ROCK             Arkans09      0A018C21MBN00UUU12UN99 000001                                                  22MBU12UN99                                                                                                             
603AR060022 7190001983820604690LITTLE ROCK             Arkans08      0A019A33MBN26MBN12OK45 000000                                                                                                                                                                          
603AR060022 7190001983820604690LITTLE ROCK             Arkans09      0A019A27MBN00UUU12UN99 000000                                                                                                                                                                          
603AR060022 7190001983820604690LITTLE ROCK             Arkans01      0A020A20FBN19MBN20GF99 000000                                                                                                                                                                          
603AR060022 7190001983820604690LITTLE ROCK             Arkans09      0A020A29MBN35MBN11UN45 000000                                                                                                                                                                          
603AR060022 7190001983820604690LITTLE ROCK             Arkans01      0A021A60MBN67MWN12AQ80C000000                                                                                                                                                                          
603AR060022 7190001983820604690LITTLE ROCK             Arkans09      0A021C21MBN49FBU11UN99 000001                                                  18MBN11UN99                                                                                                             
603AR060022 7190001983820604690LITTLE ROCK             Arkans01      0A022A43MBN00UUU12UN99 000000                                                                                                                                                                          
603AR060022 7190001983820604690LITTLE ROCK             Arkans09      0A022C31MBN20MBN12UN99 000001                                                  29MBU12UN99                                                                                                             
603AR060022 7190001983820604690LITTLE ROCK             Arkans09      0A023C29MBN00UUU12UN99 000001                                                  20MBN12UN99                                                                                                             
603AR060022 7190001983820604690LITTLE ROCK             Arkans01      0A023A31MWN39MBN11UN99 000000                                                                                                                                                                          
603AR060022 7190001983820604690LITTLE ROCK             Arkans01      0A024E38MBN00UUU13UN99 00100156MBN                                             26MBU13UN99                                                                                                             
603AR060022 7190001983820604690LITTLE ROCK             Arkans01      0A025D57FBN35MBN12FA45 00100058MBN                                                                                                                                                                     
603AR060033 7190000666040604690NORTH LITTLE ROCK       Arkans03      0A001C23MWN18MBN12ST60 000003                                                  18MBN12ST60 17MBN12ST60 16MBN12ST60                                                                                     
603AR060033 7190000666040604690NORTH LITTLE ROCK       Arkans12      0B001A22FWN22FWN90FR59 000000                                                                                                                                                                          
603AR060033 7190000666040604690NORTH LITTLE ROCK       Arkans10      0A001A42FBN29MBN12GF99 000000                                                                                                                                                                          
603AR060033 7190000666040604690NORTH LITTLE ROCK       Arkans09      0A001A38MBN70MBN12OF45 000000                                                                                                                                                                          
603AR060033 7190000666040604690NORTH LITTLE ROCK       Arkans07      0A001B19MBNNSXU 12UN99 000000                                                                                                                                                                          
603AR060033 7190000666040604690NORTH LITTLE ROCK       Arkans05      0A001A38MBN23MBN12AQ45 000000                                                                                                                                                                          
603AR060033 7190000666040604690NORTH LITTLE ROCK       Arkans09      0A002A62FWN46FBN30AQ99 000000                                                                                                                                                                          
603AR060033 7190000666040604690NORTH LITTLE ROCK       Arkans06      0A002A38MBN43MBN11UN99 000000                                                                                                                                                                          
603AR060033 7190000666040604690NORTH LITTLE ROCK       Arkans06      0A003A54MWN54MBN12OK99 000000                                                                                                                                                                          
603AR060033 7190000666040604690NORTH LITTLE ROCK       Arkans04      0A004A60MBN69MBN12OF45 000000                                                                                                                                                                          
603AR060033 7190000666040604690NORTH LITTLE ROCK       Arkans04      0A005A55MBN33MBN12AQ99 000000                                                                                                                                                                          
603AR060033 7190000666040604690NORTH LITTLE ROCK       Arkans08      0A006A44MBN52MBN11UN99 000000                                                                                                                                                                          
603AR060033 7190000666040604690NORTH LITTLE ROCK       Arkans08      0A007A45MBN24MBN11UN99 000000                                                                                                                                                                          
603AR060044 7190000314350604690SHERWOOD                Arkans07      0B001A59MWN52MWN90ST59 000000                                                                                                                                                                          
603AR060044 7190000314350604690SHERWOOD                Arkans12      0A001C54FWN19MWN12MO99 000001                                                  55MWN12WI99                                                                                                             
603AR060165 7190000182230604690MAUMELLE                Arkans04      0A001A17MBN17MBN12FR99 000000                                                                                                                                                                          
603AR060165 7190000182230604690MAUMELLE                Arkans02      0A001A19MBN19MBN11HO99 000000                                                                                                                                                                          
603AR061008C719000011245061  00RANDOLPH                Arkans05      0A001A57FWU48FWU20UN99 000000                                                                                                                                                                          
603AR062015 719000013887062  00FORREST CITY            Arkans11      0A001A54MBN46MBN12AQ99 000000                                                                                                                                                                          
603AR062015 719000013887062  00FORREST CITY            Arkans02      0A001A41MBN31MBN12AQ99 000000                                                                                                                                                                          
603AR063009B7190000527110634690SALINE                  Arkans07      0A001A38MWN28MWN20AQ45 000000                                                                                                                                                                          
603AR063009B7190000527110634690SALINE                  Arkans11      0A001D40FWN43MWN11AQ45 00400043MWN51FWN42MWN65MWN                                                                                                                                                      
603AR063009B7190000527110634690SALINE                  Arkans10      0A004A42MWN33MWN30UN99 000000                                                                                                                                                                          
603AR063009B7190000527110634690SALINE                  Arkans10      0B005A16FWN18MWN90GF59 000000                                                                                                                                                                          
603AR063014 7190000371610634690BENTON                  Arkans10      0A001D26MWN29MWN14BR45 00100023FWN                                                                                                                                                                     
603AR063014 7190000371610634690BENTON                  Arkans07      0A001A28FWN28MWN20WI99 000000                                                                                                                                                                          
603AR063014 7190000371610634690BENTON                  Arkans04      0A001A58FBN36FBN30MO45 000000                                                                                                                                                                          
603AR063025 7190000212140634690BRYANT                  Arkans08      0A001A19FW 19MWU20GF45 000000                                                                                                                                                                          
603AR066013 7190000880410662850FORT SMITH              Arkans10      0A001A30MWN17MWN12ST03 000000                                                                                                                                                                          
603AR066013 7190000880410662850FORT SMITH              Arkans07      0A001A72MW 21FWH30AQ60 000000                                                                                                                                                                          
603AR066013 7190000880410662850FORT SMITH              Arkans01      0A001A05MB 23FB 90SO60 000000                                                                                                                                                                          
603AR066013 7190000880410662850FORT SMITH              Arkans01      0A002A22MB 19MW 20ST80E000000                                                                                                                                                                          
603AR066077 7190000007270662850MANSFIELD               Arkans12      0A001A57FWN31FWN30MO45 000000                                                                                                                                                                          
603AR070008C719000020891070  00UNION                   Arkans06      0A001A61FWN64MWU90GF45 000000                                                                                                                                                                          
603AR070008C719000020891070  00UNION                   Arkans06      0A002E27MBU17MWN12AQ18 00100122MBU                                             19MWN12AQ18                                                                                                             
603AR070015 719000017820070  00EL DORADO               Arkans08      0A001D17MBN00UUU12UN99 00100023MBN                                                                                                                                                                     
603AR070015 719000017820070  00EL DORADO               Arkans04      0A001A22MBN20MBN11UN99 000000                                                                                                                                                                          
603AR071008C719000011713071  00VAN BUREN               Arkans11      0A001A42MWN41FWN30BF99 000000                                                                                                                                                                          
603AR071008C719000011713071  00VAN BUREN               Arkans08      0A001A40MWN00UUU90UN99 000000                                                                                                                                                                          
603AR071017 719000002025071  00FAIRFIELD BAY           Arkans06      0A001B79MWNNSXU 20UN09 000000                                                                                                                                                                          
603AR072009B7190000496600722700WASHINGTON              Arkans10      0A001A42MAN41MAN12AQ99 000000                                                                                                                                                                          
603AR072009B7190000496600722700WASHINGTON              Arkans12      0A001A27MWN35MWN12UN60 000000                                                                                                                                                                          
603AR072009B7190000496600722700WASHINGTON              Arkans08      0A001A30MWH22MWN40AQ48 000000                                                                                                                                                                          
603AR072009B7190000496600722700WASHINGTON              Arkans06      0A004A20FWN29MWN40GF45 000000                                                                                                                                                                          
603AR072009B7190000496600722700WASHINGTON              Arkans06      0A005C67MWN61FWN11HU99 000001                                                  31MWN11SF99                                                                                                             
603AR072013 7190000885000722700FAYETTEVILLE            Arkans12      0A001C35MWN32MW 12ST81B000001                                                  28MW 12ST81B                                                                                                            
603AR072013 7190000885000722700FAYETTEVILLE            Arkans05      0A001A54MBN35FBN90FA45 000000                                                                                                                                                                          
603AR072013 7190000885000722700FAYETTEVILLE            Arkans04      0A001A36MBN32MBN11AQ99 000000                                                                                                                                                                          
603AR072013 7190000885000722700FAYETTEVILLE            Arkans03      0A001A20FWN22MWN12AQ60 000000                                                                                                                                                                          
603AR072023 7190000748960722700SPRINGDALE              Arkans10      0B001A19MWH18MWH14OK53 000000                                                                                                                                                                          
603AR072023 7190000748960722700SPRINGDALE              Arkans06      0A001A18MWH21MWH11ST46 000000                                                                                                                                                                          
603AR072023 7190000748960722700SPRINGDALE              Arkans03      0B001A15MAN17MAN12AQ53 000000                                                                                                                                                                          
603AR072023 7190000748960722700SPRINGDALE              Arkans01      0A001A29FWH26MWH11AQ45 000000                                                                                                                                                                          
603AR072036 7190000065950722700PRAIRIE GROVE           Arkans03      0A001A00MWU40MWU90UN45 000000                                                                                                                                                                          
603AR073015 719000023873073  00SEARCY                  Arkans10      0A001D59MBN17MBN12UN99 00100044UBN                                                                                                                                                                     
603AR073015 719000023873073  00SEARCY                  Arkans11      0A001B41MBNNSXU 11UN99 000000                                                                                                                                                                          
603AR073015 719000023873073  00SEARCY                  Arkans03      0A001A59FWN47MWN12GF99 000000                                                                                                                                                                          
603AR075016 719000004555075  00DARDANELLE              Arkans06      0A001A10MWN38MWN14UN45 000000                                                                                                                                                                          
602AZ001036 819000003520001  00ST. JOHNS               Arizon10      0A001A49FWN54MWN12WI45 000000                                                                                                                                                                          
602AZ001897 819000000000000  00NAVAJO NATION           Arizon040624210A001A35MIN42MIN20UN99 000000                                                                                                                                                                          
602AZ001897 819000000000000  00NAVAJO NATION           Arizon120624210A001B42MIN00UUU90UN99 000000                                                                                                                                                                          
602AZ001897 819000000000000  00NAVAJO NATION           Arizon070624210A001B45FIN00UUU90UN99 000000                                                                                                                                                                          
602AZ001897 819000000000000  00NAVAJO NATION           Arizon110624210A001B48MIN00UUU90UN99 000000                                                                                                                                                                          
602AZ001897 819000000000000  00NAVAJO NATION           Arizon100624210A001A46FIN31MIN90BF99 000000                                                                                                                                                                          
602AZ001897 819000000000000  00NAVAJO NATION           Arizon050624210A001B34MIN00UUU90UN99 000000                                                                                                                                                                          
602AZ001897 819000000000000  00NAVAJO NATION           Arizon090624210A001A52MIN31MIN11UN99 000000                                                                                                                                                                          
602AZ001897 819000000000000  00NAVAJO NATION           Arizon080624210A001A43FIN20MIN40UN99 000000                                                                                                                                                                          
602AZ001897 819000000000000  00NAVAJO NATION           Arizon020624210A001B76MIN00UUU90UN99 000000                                                                                                                                                                          
602AZ001897 819000000000000  00NAVAJO NATION           Arizon110624210A002B37MIN00UUU90UN99 000000                                                                                                                                                                          
602AZ001897 819000000000000  00NAVAJO NATION           Arizon120624210A002B32FIN00UUU90UN99 000000                                                                                                                                                                          
602AZ001897 819000000000000  00NAVAJO NATION           Arizon090624210A002A42MIN39MIN20BR99 000000                                                                                                                                                                          
602AZ001897 819000000000000  00NAVAJO NATION           Arizon080624210A002B23FIN00UUU90UN99 000000                                                                                                                                                                          
602AZ001897 819000000000000  00NAVAJO NATION           Arizon070624210A002D54MIN22MIN20UN99 00100021MIN                                                                                                                                                                     
602AZ001897 819000000000000  00NAVAJO NATION           Arizon040624210A002A19FIN18FIN40GF99 000000                                                                                                                                                                          
602AZ001897 819000000000000  00NAVAJO NATION           Arizon040624210A003A39MIN26MIN11UN99 000000                                                                                                                                                                          
602AZ001897 819000000000000  00NAVAJO NATION           Arizon070624210A003A62FIN48MIN90UN99 000000                                                                                                                                                                          
602AZ001897 819000000000000  00NAVAJO NATION           Arizon080624210A003B17MIN00UUU13UN99 000000                                                                                                                                                                          
602AZ001897 819000000000000  00NAVAJO NATION           Arizon080624210A004B50MIN00UUU40UN99 000000                                                                                                                                                                          
602AZ002077 8190000017230028160HUACHUCA CITY           Arizon07      0A001A12MWN36FWH70AQ60 000000                                                                                                                                                                          
602AZ002094 8190000443100028160SIERRA VISTA            Arizon100208220A001A46FWN48MWH12GF45 000000                                                                                                                                                                          
602AZ002094 8190000443100028160SIERRA VISTA            Arizon030208220A001A34FWN25MWN12GF99 000000                                                                                                                                                                          
602AZ003009B8190000540090032750COCONINO                Arizon121115210A001A45MWN26FWN12HU45 000000                                                                                                                                                                          
602AZ003009B8190000540090032750COCONINO                Arizon031115210A001A35FWN38MWH30WI45 000000                                                                                                                                                                          
602AZ003009B8190000540090032750COCONINO                Arizon101115210A001A21FIN23MIN90FR99 000000                                                                                                                                                                          
602AZ003009B8190000540090032750COCONINO                Arizon101115210A002D65FWN59MWH12GF45 00100070FWN                                                                                                                                                                     
602AZ003009B8190000540090032750COCONINO                Arizon031115210A002A37FWN62MWN30FR45 000000                                                                                                                                                                          
602AZ003013 8190000750130032750FLAGSTAFF               Arizon030517210A001A39MWN27MWN20AQ45 000000                                                                                                                                                                          
602AZ003013 8190000750130032750FLAGSTAFF               Arizon020517210A001A47MWN47MWN12UN81A000000                                                                                                                                                                          
602AZ003013 8190000750130032750FLAGSTAFF               Arizon010517210B001A58MWN45MWN90ST59 000000                                                                                                                                                                          
602AZ003086 8190000075880032750PAGE                    Arizon051115210A001C06FBN30FBN70DA18 000002                                                  51MBN70OF18 47FIN70OF18                                                                                                 
602AZ004008B819000028129004  00GILA                    Arizon09      0A001A49MWN31MWN12SF26 000000                                                                                                                                                                          
602AZ005008C819000020588005  00GRAHAM                  Arizon11      0A001A48MWH00MWU12ST99 000000                                                                                                                                                                          
602AZ005008C819000020588005  00GRAHAM                  Arizon12      0A001D22FWH28MWH12FR18 00100035MWH                                                                                                                                                                     
602AZ005008C819000020588005  00GRAHAM                  Arizon12      0A002ABBMWH26MWH90SO26 000000                                                                                                                                                                          
602AZ007009A8190004297570076620MARICOPA                Arizon02      0A001A42FBN14MBN20OF99 000000                                                                                                                                                                          
602AZ007009A8190004297570076620MARICOPA                Arizon02      0A002A36MWN69MWN12SO43 000000                                                                                                                                                                          
602AZ007009A8190004297570076620MARICOPA                Arizon02      0A003A21MWH21MWH12OK49 000000                                                                                                                                                                          
602AZ007009A8190004297570076620MARICOPA                Arizon02      0A004B27MWH00UUU11UN99 000000                                                                                                                                                                          
602AZ007013 8190000871170076620AVONDALE                Arizon01      0B001BBBMUU00UUU90UN59 000000                                                                                                                                                                          
602AZ007013 8190000871170076620AVONDALE                Arizon06      0B001A23FWN36FWN90AQ59 000000                                                                                                                                                                          
602AZ007013 8190000871170076620AVONDALE                Arizon06      0A002B37MBN00UUU11UN99 000000                                                                                                                                                                          
602AZ007033 8190000779040076620BUCKEYE                 Arizon05      0A001B45MAN00UUU30UN99 000000                                                                                                                                                                          
