601AL001009A6020001524310370981JEFFERSON               ALA   040328031A001B37MW 00UU 12UN99 000000                                                                                                                                                                          
601AL001009A6020001524310370981JEFFERSON               ALA   080328031A001A47MW 21MW 14AQ99 000000                                                                                                                                                                          
601AL001009A6020001524310370981JEFFERSON               ALA   090407031A001A26MB 19MB 12UN99 000000                                                                                                                                                                          
601AL001009A6020001524310370981JEFFERSON               ALA   090328031A002A24MB 19MB 12UN99 000000                                                                                                                                                                          
601AL001009A6020001524310370981JEFFERSON               ALA   090328031A003A33MW 30MW 14AQ99 000000                                                                                                                                                                          
601AL001009A6020001524310370981JEFFERSON               ALA   090328031A004A23MB 26MB 14AQ99 000000                                                                                                                                                                          
601AL001009A6020001524310370981JEFFERSON               ALA   100328031A001B20MW 00UU 20UN45 000000                                                                                                                                                                          
601AL001022 6020002449720370980BIRMINGHAM              ALA   010328031A001B30MW 00UU 12UN99 000000                                                                                                                                                                          
601AL001022 6020002449720370980BIRMINGHAM              ALA   010328031A002B50FB 00UU 40UN09 000000                                                                                                                                                                          
601AL001022 6020002449720370980BIRMINGHAM              ALA   010328031A003A48MW 30MB 12ST03 000000                                                                                                                                                                          
601AL001022 6020002449720370980BIRMINGHAM              ALA   010328031A004B27MB 00UU 90UN99 000000                                                                                                                                                                          
601AL001022 6020002449720370980BIRMINGHAM              ALA   010328031A005A26FB 00MB 12ST99 000000                                                                                                                                                                          
601AL001022 6020002449720370980BIRMINGHAM              ALA   020328031A001B41MB 00UU 40UN99 000000                                                                                                                                                                          
601AL001022 6020002449720370980BIRMINGHAM              ALA   030328031A001A24MB 24UU 90SO99 000000                                                                                                                                                                          
601AL001022 6020002449720370980BIRMINGHAM              ALA   030328031A002A24MB 32MB 12AQ18 000000                                                                                                                                                                          
601AL001022 6020002449720370980BIRMINGHAM              ALA   030328031A003A19FB 21MB 12AQ99 000000                                                                                                                                                                          
601AL001022 6020002449720370980BIRMINGHAM              ALA   030328031A004A20MB 21MB 12AQ18 000000                                                                                                                                                                          
601AL001022 6020002449720370980BIRMINGHAM              ALA   030328031A005A15FB 20MB 12AQ99 000000                                                                                                                                                                          
601AL001022 6020002449720370980BIRMINGHAM              ALA   030328031A006A11FB 26FB 12UN60 000000                                                                                                                                                                          
601AL001022 6020002449720370980BIRMINGHAM              ALA   030328031A007A30MB 60MB 12AQ60 000000                                                                                                                                                                          
601AL001022 6020002449720370980BIRMINGHAM              ALA   040328031A001A42MB 22MB 12ST03 000000                                                                                                                                                                          
601AL001022 6020002449720370980BIRMINGHAM              ALA   040328031A002B37MB 00UU 90UN99 000000                                                                                                                                                                          
601AL001022 6020002449720370980BIRMINGHAM              ALA   040328031A003B41MB 00UU 12UN99 000000                                                                                                                                                                          
601AL001022 6020002449720370980BIRMINGHAM              ALA   040328031A004A31MB 42MB 12AQ45 000000                                                                                                                                                                          
601AL001022 6020002449720370980BIRMINGHAM              ALA   040328031A005A34MB 19FB 12AQ45 000000                                                                                                                                                                          
601AL001022 6020002449720370980BIRMINGHAM              ALA   040328031A006B22MB 00UU 12UN99 000000                                                                                                                                                                          
601AL001022 6020002449720370980BIRMINGHAM              ALA   050328031A001B25MB 00UU 12UN99 000000                                                                                                                                                                          
601AL001022 6020002449720370980BIRMINGHAM              ALA   050328031A002A67MB 30MB 90AQ45 000000                                                                                                                                                                          
601AL001022 6020002449720370980BIRMINGHAM              ALA   050328031A003A28FB 00MB 40UN99 000000                                                                                                                                                                          
601AL001022 6020002449720370980BIRMINGHAM              ALA   050328031A004B22MB 00UU 12UN99 000000                                                                                                                                                                          
601AL001022 6020002449720370980BIRMINGHAM              ALA   050328031A005B00MU 00UU 20UN99 000000                                                                                                                                                                          
601AL001022 6020002449720370980BIRMINGHAM              ALA   060328031A001B24MU 00UU 90UN99 000000                                                                                                                                                                          
601AL001022 6020002449720370980BIRMINGHAM              ALA   060328031A002A15MW 00MB 12UN99 000000                                                                                                                                                                          
601AL001022 6020002449720370980BIRMINGHAM              ALA   060328031A003B46FB 00UU 12UN99 000000                                                                                                                                                                          
601AL001022 6020002449720370980BIRMINGHAM              ALA   060328031A004A57MB 51MB 12ST99 000000                                                                                                                                                                          
601AL001022 6020002449720370980BIRMINGHAM              ALA   060328031A005B29MB 00UU 12UN99 000000                                                                                                                                                                          
601AL001022 6020002449720370980BIRMINGHAM              ALA   070328031A001B29MB 00UU 90UN99 000000                                                                                                                                                                          
601AL001022 6020002449720370980BIRMINGHAM              ALA   070328031A002A54MB 50MB 20AQ45 000000                                                                                                                                                                          
601AL001022 6020002449720370980BIRMINGHAM              ALA   070328031A003A28MB 35FB 12BF45 000000                                                                                                                                                                          
601AL001022 6020002449720370980BIRMINGHAM              ALA   070328031A004B43MB 00UU 12UN99 000000                                                                                                                                                                          
601AL001022 6020002449720370980BIRMINGHAM              ALA   070328031A005B21MB 00UU 12UN99 000000                                                                                                                                                                          
601AL001022 6020002449720370980BIRMINGHAM              ALA   070328031A006A23FB 00FB 40UN99 000000                                                                                                                                                                          
601AL001022 6020002449720370980BIRMINGHAM              ALA   070328031A007B22MB 00UU 12UN99 000000                                                                                                                                                                          
601AL001022 6020002449720370980BIRMINGHAM              ALA   070328031A008B01MB 00UU 90UN99 000000                                                                                                                                                                          
601AL001022 6020002449720370980BIRMINGHAM              ALA   070328031A009A23MB 20MU 12AQ99 000000                                                                                                                                                                          
601AL001022 6020002449720370980BIRMINGHAM              ALA   070328031A010B36MB 00UU 12UN99 000000                                                                                                                                                                          
601AL001022 6020002449720370980BIRMINGHAM              ALA   080328031A001A32MB 18MB 12ST99 000000                                                                                                                                                                          
601AL001022 6020002449720370980BIRMINGHAM              ALA   080328031A002A30MB 26MB 12UN99 000000                                                                                                                                                                          
601AL001022 6020002449720370980BIRMINGHAM              ALA   080328031A003A00MB 26MW 12ST81D000000                                                                                                                                                                          
601AL001022 6020002449720370980BIRMINGHAM              ALA   080328031A004A56MB 23UB 40FA99 000000                                                                                                                                                                          
601AL001022 6020002449720370980BIRMINGHAM              ALA   080328031A005A73MU 73UU 90ST99 000000                                                                                                                                                                          
601AL001022 6020002449720370980BIRMINGHAM              ALA   080328031A006B23MU 00UU 90UN99 000000                                                                                                                                                                          
601AL001022 6020002449720370980BIRMINGHAM              ALA   090328031A001A51MB 21MB 12AQ99 000000                                                                                                                                                                          
601AL001022 6020002449720370980BIRMINGHAM              ALA   090328031A002A15MB 19MB 12AQ45 000000                                                                                                                                                                          
601AL001022 6020002449720370980BIRMINGHAM              ALA   090328031A003A37MB 22MB 12AQ99 000000                                                                                                                                                                          
601AL001022 6020002449720370980BIRMINGHAM              ALA   090328031A004A35MB 17MB 12UN99 000000                                                                                                                                                                          
601AL001022 6020002449720370980BIRMINGHAM              ALA   100328031A001A48MW 00MB 12ST03 000000                                                                                                                                                                          
601AL001022 6020002449720370980BIRMINGHAM              ALA   100328031A002B00MW 00UU 12UN99 000000                                                                                                                                                                          
601AL001022 6020002449720370980BIRMINGHAM              ALA   100328031A003A24MB 21MB 12FR26 000000                                                                                                                                                                          
601AL001022 6020002449720370980BIRMINGHAM              ALA   100328031A004A28MB 45MB 12AQ60 000000                                                                                                                                                                          
601AL001022 6020002449720370980BIRMINGHAM              ALA   100328031A005A23MB 16MB 12AQ03 000000                                                                                                                                                                          
601AL001022 6020002449720370980BIRMINGHAM              ALA   100328031A006B93MB 00UU 40UN26 000000                                                                                                                                                                          
601AL001022 6020002449720370980BIRMINGHAM              ALA   100328031A007B00MU 00UU 12UN99 000000                                                                                                                                                                          
601AL001022 6020002449720370980BIRMINGHAM              ALA   110328031A001A50MB 35MB 12ST40 000000                                                                                                                                                                          
601AL001022 6020002449720370980BIRMINGHAM              ALA   110328031A002B28MB 00UU 12UN99 000000                                                                                                                                                                          
601AL001022 6020002449720370980BIRMINGHAM              ALA   110328031A003B00MU 00UU 90UN80E000000                                                                                                                                                                          
601AL001022 6020002449720370980BIRMINGHAM              ALA   110328031A004A21MB 21UU 12NE99 000000                                                                                                                                                                          
601AL001022 6020002449720370980BIRMINGHAM              ALA   120328031A001A25FB 25MB 12ST99 000000                                                                                                                                                                          
601AL001022 6020002449720370980BIRMINGHAM              ALA   120328031A002A32MB 00MB 12UN99 000000                                                                                                                                                                          
601AL001022 6020002449720370980BIRMINGHAM              ALA   120328031A003A24MB 24MB 12UN99 000000                                                                                                                                                                          
601AL001022 6020002449720370980BIRMINGHAM              ALA   120328031A004A19FU 19UU 12ST99 000000                                                                                                                                                                          
601AL001022 6020002449720370980BIRMINGHAM              ALA   120328031A005A26MB 26UU 12ST99 000000                                                                                                                                                                          
601AL001022 6020002449720370980BIRMINGHAM              ALA   120328031A006A45MB 19MB 12UN99 000000                                                                                                                                                                          
601AL001022 6020002449720370980BIRMINGHAM              ALA   120328031A007A31FB 45MB 12AQ99 000000                                                                                                                                                                          
601AL001076 6020000056760370981MIDFIELD                ALA   080325030A001A37MB 42MB 12ST05 000000                                                                                                                                                                          
601AL001076 6020000056760370981MIDFIELD                ALA   090417031A001B30MB 00UU 12UN99 000000                                                                                                                                                                          
601AL001076 6020000056760370981MIDFIELD                ALA   110325030A001A57MW 18MB 12ST45 000000                                                                                                                                                                          
601AL001076 6020000056760370981MIDFIELD                ALA   120325030A001A34MB 51FB 12CH45 000000                                                                                                                                                                          
601AL001104 6020000252650370981HOMEWOOD                ALA   050325030A001A37FB 34MB 12WI45 000000                                                                                                                                                                          
601AL001123 6020000632980370980HOOVER                  ALA   110325030A001A17MB 17MB 20AQ99 000000                                                                                                                                                                          
601AL001186 6020000036720370981BRIGHTON                ALA   020325030A001A40MB 39MB 12AQ45 000000                                                                                                                                                                          
601AL001226 6020000050090370981ADAMSVILLE              ALA   010325030A001A44MB 19MB 12FA45 000000                                                                                                                                                                          
601AL002009B6020000831250495471MOBILE                  ALA   060410031A001A43FW 71MW 12FR45 000000                                                                                                                                                                          
601AL002009B6020000831250495471MOBILE                  ALA   070410031A001A70MW 22MW 12OF60 000000                                                                                                                                                                          
601AL002009B6020000831250495471MOBILE                  ALA   070410031A002A23FW 28MW 20GF99 000000                                                                                                                                                                          
601AL002009B6020000831250495471MOBILE                  ALA   090410031A001A38FW 32FW 12AQ45 000000                                                                                                                                                                          
601AL002009B6020000831250495471MOBILE                  ALA   120410031A001A43FW 15MW 12MO99 000000                                                                                                                                                                          
601AL002011C6020002565420495470MOBILE                  ALA   010328031A001A38MB 20MB 12UN99 000000                                                                                                                                                                          
601AL002011C6020002565420495470MOBILE                  ALA   010403031A002B22MB 00UU 12UN99 000000                                                                                                                                                                          
601AL002011C6020002565420495470MOBILE                  ALA   010328031A003A29MB 26MB 12UN99 000000                                                                                                                                                                          
601AL002011C6020002565420495470MOBILE                  ALA   010403031A004B00MU 00UU 12UN99 000000                                                                                                                                                                          
601AL002011C6020002565420495470MOBILE                  ALA   010328031A005B31MB 00UU 12UN99 000000                                                                                                                                                                          
601AL002011C6020002565420495470MOBILE                  ALA   010328031A006A27MB 39MB 12UN99 000000                                                                                                                                                                          
601AL002011C6020002565420495470MOBILE                  ALA   020328031A001A29MB 42MB 12UN99 000000                                                                                                                                                                          
601AL002011C6020002565420495470MOBILE                  ALA   020328031A002A01FB 23MB 90UN99 000000                                                                                                                                                                          
601AL002011C6020002565420495470MOBILE                  ALA   020328031A003B00FU 00UU 12UN99 000000                                                                                                                                                                          
601AL002011C6020002565420495470MOBILE                  ALA   020328031A004B21FB 00UU 12UN99 000000                                                                                                                                                                          
601AL002011C6020002565420495470MOBILE                  ALA   030328031A001B28FW 00UU 12UN99 000000                                                                                                                                                                          
601AL002011C6020002565420495470MOBILE                  ALA   030328031A002B00FU 00UU 12UN99 000000                                                                                                                                                                          
601AL002011C6020002565420495470MOBILE                  ALA   040328031A001A43MB 32MB 12UN99 000000                                                                                                                                                                          
601AL002011C6020002565420495470MOBILE                  ALA   040328031A002A00MU 19MW 90AQ99 000000                                                                                                                                                                          
601AL002011C6020002565420495470MOBILE                  ALA   060328031A001A00MU 18MB 12UN99 000000                                                                                                                                                                          
601AL002011C6020002565420495470MOBILE                  ALA   060328031A002A58MB 32MB 90UN99 000000                                                                                                                                                                          
601AL002011C6020002565420495470MOBILE                  ALA   060328031A003A19MB 30FB 12UN99 000000                                                                                                                                                                          
601AL002011C6020002565420495470MOBILE                  ALA   060328031A004B23MB 00UU 90UN99 000000                                                                                                                                                                          
601AL002011C6020002565420495470MOBILE                  ALA   060328031A005B49FW 00UU 90UN99 000000                                                                                                                                                                          
601AL002011C6020002565420495470MOBILE                  ALA   060328031A006B00FU 00UU 90UN99 000000                                                                                                                                                                          
601AL002011C6020002565420495470MOBILE                  ALA   070328031A001B72MB 00UU 12UN99 000000                                                                                                                                                                          
601AL002011C6020002565420495470MOBILE                  ALA   070328031A002B00MU 00UU 90UN99 000000                                                                                                                                                                          
601AL002011C6020002565420495470MOBILE                  ALA   080328031A001A54FB 47MB 90UN99 000000                                                                                                                                                                          
601AL002011C6020002565420495470MOBILE                  ALA   080328031A002A25MW 28MB 90UN99 000000                                                                                                                                                                          
601AL002011C6020002565420495470MOBILE                  ALA   080328031A003A42FB 32MB 90UN99 000000                                                                                                                                                                          
601AL002011C6020002565420495470MOBILE                  ALA   080328031A004B46FW 00UU 90UN99 000000                                                                                                                                                                          
601AL002011C6020002565420495470MOBILE                  ALA   080328031A005A26FB 24MB 12UN99 000000                                                                                                                                                                          
601AL002011C6020002565420495470MOBILE                  ALA   080328031A006A38MW 36MW 12UN99 000000                                                                                                                                                                          
601AL002011C6020002565420495470MOBILE                  ALA   080328031A007A38FB 22MB 12UN99 000000                                                                                                                                                                          
601AL002011C6020002565420495470MOBILE                  ALA   090328031A001A38MB 22FB 90UN99 000000                                                                                                                                                                          
601AL002011C6020002565420495470MOBILE                  ALA   090328031A002A22FB 26FB 12UN99 000000                                                                                                                                                                          
601AL002011C6020002565420495470MOBILE                  ALA   090328031A003A19MB 24MB 12UN99 000000                                                                                                                                                                          
601AL002011C6020002565420495470MOBILE                  ALA   100328031A001A44MB 48MB 90UN99 000000                                                                                                                                                                          
601AL002011C6020002565420495470MOBILE                  ALA   100328031A002A19MB 17MB 12UN99 000000                                                                                                                                                                          
601AL002011C6020002565420495470MOBILE                  ALA   100328031A003A59MB 17MB 90UN99 000000                                                                                                                                                                          
601AL002011C6020002565420495470MOBILE                  ALA   110328031A001A25MB 20MB 12UN99 000000                                                                                                                                                                          
601AL002011C6020002565420495470MOBILE                  ALA   110328031A002B00MB 00UU 12UN99 000000                                                                                                                                                                          
601AL002011C6020002565420495470MOBILE                  ALA   120328031A001A40MB 19MB 12UN99 000000                                                                                                                                                                          
601AL002011C6020002565420495470MOBILE                  ALA   120328031A002B33MB 00UU 12UN99 000000                                                                                                                                                                          
601AL002011C6020002565420495470MOBILE                  ALA   120328031A003A70MB 19MB 90ST99 000000                                                                                                                                                                          
601AL002024 6020000288860495471PRICHARD                ALA   040417031A001B18MB 00UU 90UN99 000000                                                                                                                                                                          
601AL002024 6020000288860495471PRICHARD                ALA   050417031A001B27MB 00UU 12UN99 000000                                                                                                                                                                          
601AL002024 6020000288860495471PRICHARD                ALA   060417031A001D23MB 20MB 12FR18 00100023MB                                                                                                                                                                      
601AL002024 6020000288860495471PRICHARD                ALA   070325030A001A22MB 00MB 12ST80C000000                                                                                                                                                                          
601AL002024 6020000288860495471PRICHARD                ALA   090325030A001A20MB 21FB 20BF45 000000                                                                                                                                                                          
601AL002024 6020000288860495471PRICHARD                ALA   090417031A002B22MB 00UU 12UN45 000000                                                                                                                                                                          
601AL002024 6020000288860495471PRICHARD                ALA   120325030A001A00MB 00MB 12AQ99 000000                                                                                                                                                                          
601AL003009C6020000221350515561MONTGOMERY              ALA   030325030A001A00MB 38FB 20CH45 000000                                                                                                                                                                          
601AL003012 6020002033550515560MONTGOMERY              ALA   010328031A001A26FB 20MB 12UN99 000000                                                                                                                                                                          
601AL003012 6020002033550515560MONTGOMERY              ALA   020328031A001A25MB 24MB 12AQ99 000000                                                                                                                                                                          
601AL003012 6020002033550515560MONTGOMERY              ALA   020328031A002A27MB 18UU 12UN03 000000                                                                                                                                                                          
601AL003012 6020002033550515560MONTGOMERY              ALA   020328031A003A81FW 20MB 40UN99 000000                                                                                                                                                                          
601AL003012 6020002033550515560MONTGOMERY              ALA   030328031A001B31FB 00UU 12UN99 000000                                                                                                                                                                          
601AL003012 6020002033550515560MONTGOMERY              ALA   030328031A002B38MW 00UU 12UN99 000000                                                                                                                                                                          
601AL003012 6020002033550515560MONTGOMERY              ALA   030328031A003A22MB 22MB 12UN99 000000                                                                                                                                                                          
601AL003012 6020002033550515560MONTGOMERY              ALA   030328031A004A18FB 28MB 12UN99 000000                                                                                                                                                                          
601AL003012 6020002033550515560MONTGOMERY              ALA   030328031A005B24MB 00UU 12UN99 000000                                                                                                                                                                          
601AL003012 6020002033550515560MONTGOMERY              ALA   030328031A006B54MB 00UU 20UN99 000000                                                                                                                                                                          
601AL003012 6020002033550515560MONTGOMERY              ALA   040328031A001A75MW 30MW 40UN03 000000                                                                                                                                                                          
601AL003012 6020002033550515560MONTGOMERY              ALA   040328031A002B49MB 00UU 90UN99 000000                                                                                                                                                                          
601AL003012 6020002033550515560MONTGOMERY              ALA   050328031A001A00MU 24MB 90UN99 000000                                                                                                                                                                          
601AL003012 6020002033550515560MONTGOMERY              ALA   050328031A002B24MB 00UU 12UN99 000000                                                                                                                                                                          
601AL003012 6020002033550515560MONTGOMERY              ALA   050328031A003A26MB 21MB 12UN99 000000                                                                                                                                                                          
601AL003012 6020002033550515560MONTGOMERY              ALA   060328031A001B34FW 00UU 20UN99 000000                                                                                                                                                                          
601AL003012 6020002033550515560MONTGOMERY              ALA   070328031A001A28MB 29MB 12UN99 000000                                                                                                                                                                          
601AL003012 6020002033550515560MONTGOMERY              ALA   070328031A002A27MB 27MB 12UN99 000000                                                                                                                                                                          
601AL003012 6020002033550515560MONTGOMERY              ALA   070328031A003A28MB 21MB 12UN99 000000                                                                                                                                                                          
601AL003012 6020002033550515560MONTGOMERY              ALA   080328031A001A70MB 29MB 20UN99 000000                                                                                                                                                                          
601AL003012 6020002033550515560MONTGOMERY              ALA   090328031A001A18MB 21MB 12UN99 000000                                                                                                                                                                          
601AL003012 6020002033550515560MONTGOMERY              ALA   090328031A002A52FB 20MB 12UN99 000000                                                                                                                                                                          
601AL003012 6020002033550515560MONTGOMERY              ALA   100328031A001A23MB 24MB 12UN99 000000                                                                                                                                                                          
601AL003012 6020002033550515560MONTGOMERY              ALA   100328031A002B35MB 00UU 40UN99 000000                                                                                                                                                                          
601AL003012 6020002033550515560MONTGOMERY              ALA   100328031A003A22MW 23MB 12UN99 000000                                                                                                                                                                          
601AL003012 6020002033550515560MONTGOMERY              ALA   100328031A004A28MB 23MB 12UN99 000000                                                                                                                                                                          
601AL003012 6020002033550515560MONTGOMERY              ALA   110328031A001A60MB 43FB 20CH99 000000                                                                                                                                                                          
601AL003012 6020002033550515560MONTGOMERY              ALA   110328031A002A28MB 34MW 12UN03 000000                                                                                                                                                                          
601AL003012 6020002033550515560MONTGOMERY              ALA   120328031A001A77FB 74MB 40UN99 000000                                                                                                                                                                          
601AL003012 6020002033550515560MONTGOMERY              ALA   120328031A002B39FB 00UU 90UN99 000000                                                                                                                                                                          
601AL005036 6020000076570025471FOLEY                   ALA   120325030A001A36MB 66MB 12AQ99 000000                                                                                                                                                                          
601AL005046 6020000050890025471GULF SHORES             ALA   040325030A001A17MW 17MW 40UN45 000000                                                                                                                                                                          
601AL005046 6020000050890025471GULF SHORES             ALA   090325030A001A42MW 40MW 90BR45 000000                                                                                                                                                                          
601AL005046 6020000050890025471GULF SHORES             ALA   100417031A001B32MB 00UU 40UN99 000000                                                                                                                                                                          
601AL005085 6020000167280025471DAPHNE                  ALA   030325030A001A57MW 00FW 90UN99 000000                                                                                                                                                                          
601AL005085 6020000167280025471DAPHNE                  ALA   070325030A001A02FW 38MW 12DA45 000000                                                                                                                                                                          
601AL006015 602000014031003   0EUFAULA                 ALA   020325030A001A20MW 57FW 12UN45 000000                                                                                                                                                                          
601AL010008C602000011896007   0BUTLER                  ALA   010417031A001B72MW 00UU 12UN03 000000                                                                                                                                                                          
601AL011009B6020000589750080421CALHOUN                 ALA   060325030A001A30MW 30MW 12AQ03 000000                                                                                                                                                                          
601AL011009B6020000589750080421CALHOUN                 ALA   100417031A001F80FW 00UU 20UN03 00100085MW                                                                                                                                                                      
601AL011015 6020000244910080420ANNISTON                ALA   020325030A001A42MB 22MB 12AQ45 000000                                                                                                                                                                          
601AL011015 6020000244910080420ANNISTON                ALA   020325030A002A39MB 56MW 12FR60 000000                                                                                                                                                                          
601AL011015 6020000244910080420ANNISTON                ALA   050502031A001B27MW 00UU 12UN03 000000                                                                                                                                                                          
601AL011015 6020000244910080420ANNISTON                ALA   050502031A002A23MW 48MW 12UN03 000000                                                                                                                                                                          
601AL011015 6020000244910080420ANNISTON                ALA   050417031A003F19MW 00UU 12UN03 00100020MW                                                                                                                                                                      
601AL011015 6020000244910080420ANNISTON                ALA   100502031A001B29MB 00UU 12UN99 000000                                                                                                                                                                          
601AL011067 6020000008850080421HOBSON CITY             ALA   010325030A001A50MB 56MB 12AQ45 000000                                                                                                                                                                          
601AL012008C602000016398009   0CHAMBERS                ALA   010325030A001A46MW 39MW 14FR99 000000                                                                                                                                                                          
601AL012026 602000007967009   0LANETT                  ALA   020325030A001A46MB 17MB 12UN03 000000                                                                                                                                                                          
601AL012026 602000007967009   0LANETT                  ALA   110325030A001A52FW 19MB 12UN03 000000                                                                                                                                                                          
601AL016008C602000016143013   0CLARKE                  ALA   030325030A001A24MB 28MB 20OF45 000000                                                                                                                                                                          
601AL018008C602000010756015   0CLEBURNE                ALA   050417031A001B47MW 00UU 12UN45 000000                                                                                                                                                                          
601AL018008C602000010756015   0CLEBURNE                ALA   050417031A002B53FW 00UU 14UN45 000000                                                                                                                                                                          
601AL018016 602000003029015   0HEFLIN                  ALA   090417031A001B33FW 00UU 20UN99 000000                                                                                                                                                                          
601AL019025 602000021366016   0ENTERPRISE              ALA   010325030A001A17FB 24MB 12GF45 000000                                                                                                                                                                          
601AL020009C6020000226890172771COLBERT                 ALA   030325030A001A00FW 00MW 12AQ99 000000                                                                                                                                                                          
601AL020009C6020000226890172771COLBERT                 ALA   070325030A001A63MW 72MW 12IL45 000000                                                                                                                                                                          
601AL021008D602000009955018   0CONECUH                 ALA   090325030A001A76MW 64MW 14FR45 000000                                                                                                                                                                          
601AL023008C602000019089020   0COVINGTON               ALA   090325030A001A25MW 70MW 14OF45 000000                                                                                                                                                                          
601AL023016 602000008872020   0ANDALUSIA               ALA   060325030A001A72FW 86MW 12WI45 000000                                                                                                                                                                          
601AL023016 602000008872020   0ANDALUSIA               ALA   070325030A001A58FW 36MW 12AQ44 000000                                                                                                                                                                          
601AL023016 602000008872020   0ANDALUSIA               ALA   090325030A001A00FW 46MW 14UN44 000000                                                                                                                                                                          
601AL023016 602000008872020   0ANDALUSIA               ALA   090325030A002A47MW 46MW 14AQ44 000000                                                                                                                                                                          
601AL025008B602000061046022   0CULLMAN                 ALA   010325030A001A80MW 25MW 90UN99 000000                                                                                                                                                                          
601AL026015 6020000152530232271OZARK                   ALA   050325030A001A18FW 19MB 90GF81D000000                                                                                                                                                                          
601AL026015 6020000152530232271OZARK                   ALA   050325030A002A46MW 31MB 90UN99 000000                                                                                                                                                                          
601AL027015 602000020694024   0SELMA                   ALA   040325030A001A30MB 42MB 12AQ40 000000                                                                                                                                                                          
601AL027015 602000020694024   0SELMA                   ALA   090325030A001A24MB 18MB 12AQ45 000000                                                                                                                                                                          
601AL029009B6020000435620265561ELMORE                  ALA   040325030A001A73MW 18MW 40AQ99 000000                                                                                                                                                                          
601AL029065 6020000104780265561MILLBROOK               ALA   010417031A001B21FW 00UU 40UN99 000000                                                                                                                                                                          
601AL031009B6020000314570283031ETOWAH                  ALA   100325030A001A15FW 32MW 14SD45 000000                                                                                                                                                                          
601AL031024 6020000393230283030GADSDEN                 ALA   020325030A001A31MB 48MB 12UN99 000000                                                                                                                                                                          
601AL031024 6020000393230283030GADSDEN                 ALA   040417031A001B29MB 00UU 12UN99 000000                                                                                                                                                                          
601AL031024 6020000393230283030GADSDEN                 ALA   100417031A001B30MB 00UU 12UN99 000000                                                                                                                                                                          
601AL031024 6020000393230283030GADSDEN                 ALA   100417031A002B00MW 00UU 40UN99 000000                                                                                                                                                                          
601AL033008C602000017683030   0FRANKLIN                ALA   100325030A001A19MW 44MW 12IL45 000000                                                                                                                                                                          
601AL034008C602000015006031   0GENEVA                  ALA   040325030A001A38MW 00MW 20AQ99 000000                                                                                                                                                                          
601AL035008D602000008168032   0GREENE                  ALA   030325030A001A59MB 00MW 12AQ99 000000                                                                                                                                                                          
601AL035017 602000001894032   0EUTAW                   ALA   030325030A001A73MB 22MB 20SF99 000000                                                                                                                                                                          
601AL038013 6020000582480352270DOTHAN                  ALA   100325030A001A51MB 41MB 20AQ99 000000                                                                                                                                                                          
601AL039008B602000032526036   0JACKSON                 ALA   040325030A001A25MW 38MW 12ST99 000000                                                                                                                                                                          
601AL039008B602000032526036   0JACKSON                 ALA   070325030A001A41FW 40MW 90WI99 000000                                                                                                                                                                          
601AL039008B602000032526036   0JACKSON                 ALA   110417031A001B70MW 00UU 20UN99 000000                                                                                                                                                                          
601AL039026 602000002752036   0BRIDGEPORT              ALA   110417031A001B70MW 00UU 90UN99 000000                                                                                                                                                                          
601AL041009B6020000486370392771LAUDERDALE              ALA   080325030A001A38MW 54MW 14AQ45 000000                                                                                                                                                                          
601AL041014 6020000365850392770FLORENCE                ALA   020417031A001B23MB 00UU 12UN99 000000                                                                                                                                                                          
601AL042009B6020000292070402101LAWRENCE                ALA   080325030A001A51MW 55MW 12BR45 000000                                                                                                                                                                          
601AL043009B6020000470120410571LEE                     ALA   010410031A001C33MB 24MB 14UN99 000001                                                  24MB 14AQ99                                                                                                             
601AL043009B6020000470120410571LEE                     ALA   010410031A002D62MW 22MW 12UN99 00100068MW                                                                                                                                                                      
601AL043014 6020000433680410570AUBURN                  ALA   080325030A001A74MW 33MW 20SO45 000000                                                                                                                                                                          
601AL043014 6020000433680410570AUBURN                  ALA   120325030A001A18MB 00MB 12UN45 000000                                                                                                                                                                          
601AL043025 6020000237060410570OPELIKA                 ALA   070325030A001A53MB 26MB 90UN45 000000                                                                                                                                                                          
601AL043025 6020000237060410570OPELIKA                 ALA   090325030A001A60MW 00MB 14UN99 000000                                                                                                                                                                          
601AL044009B6020000455900423681LIMESTONE               ALA   050325030A001A27FW 27MB 90GF99 000000                                                                                                                                                                          
601AL044009B6020000455900423681LIMESTONE               ALA   080325030A001A31MW 31MW 14AQ45 000000                                                                                                                                                                          
601AL044009B6020000455900423681LIMESTONE               ALA   110417031A001B33MW 00UU 90UN99 000000                                                                                                                                                                          
601AL044015 6020000191350423681ATHENS                  ALA   010417031A001B27MW 00UU 12UN99 000000                                                                                                                                                                          
601AL044015 6020000191350423681ATHENS                  ALA   020325030A001A42FB 41MB 12WI99 000000                                                                                                                                                                          
601AL045008C602000011294043   0LOWNDES                 ALA   080325030A001A40FW 38MW 20AQ99 000000                                                                                                                                                                          
601AL045008C602000011294043   0LOWNDES                 ALA   100325030A001A34MB 39MB 12BR45 000000                                                                                                                                                                          
601AL045008C602000011294043   0LOWNDES                 ALA   100325030A002A27MB 21FB 20BF45 000000                                                                                                                                                                          
601AL045008C602000011294043   0LOWNDES                 ALA   120325030A001A63FB 54MB 12GF99 000000                                                                                                                                                                          
601AL046008C602000011112044   0MACON                   ALA   060325030A001A79FB 26MB 20OF99 000000                                                                                                                                                                          
601AL046015 602000011951044   0TUSKEGEE                ALA   050417031A001B38FB 00UU 90UN99 000000                                                                                                                                                                          
601AL047009B6020000853120453681MADISON                 ALA   070325030A001A18MW 00MB 12AQ99 000000                                                                                                                                                                          
601AL047009B6020000853120453681MADISON                 ALA   110325030A001A30MB 30MB 12AQ45 000000                                                                                                                                                                          
601AL047012 6020001596180453680HUNTSVILLE              ALA   010328031A001B32FB 00UU 90UN99 000000                                                                                                                                                                          
601AL047012 6020001596180453680HUNTSVILLE              ALA   050328031A001A23MB 18MB 12AQ45 000000                                                                                                                                                                          
601AL047012 6020001596180453680HUNTSVILLE              ALA   060328031A001A57MW 17MW 90UN03 000000                                                                                                                                                                          
601AL047012 6020001596180453680HUNTSVILLE              ALA   080328031A001B71MB 00UU 20UN99 000000                                                                                                                                                                          
601AL047012 6020001596180453680HUNTSVILLE              ALA   090328031A001A27FW 32MW 20GF45 000000                                                                                                                                                                          
601AL047024 6020000295890453681MADISON                 ALA   040325030A001A28MW 34FW 20BF45 000000                                                                                                                                                                          
601AL047024 6020000295890453681MADISON                 ALA   090325030A001A02FW 44MW 12DA45 000000                                                                                                                                                                          
601AL050008B602000043395048   0MARSHALL                ALA   080325030A001A64MW 45MW 20UN99 000000                                                                                                                                                                          
601AL050008B602000043395048   0MARSHALL                ALA   100325030A001A33MW 21MW 40UN99 000000                                                                                                                                                                          
601AL050026 602000007460048   0GUNTERSVILLE            ALA   070417031A001B40MW 00UU 40UN45 000000                                                                                                                                                                          
601AL051008C602000016143050   0MONROE                  ALA   030325030A001A43MB 00FB 12HU45 000000                                                                                                                                                                          
601AL051016 602000006923050   0MONROEVILLE             ALA   070417031A001B37FB 00UU 12UN45 000000                                                                                                                                                                          
601AL052009B6020000405330522101MORGAN                  ALA   060417031A001B28FW 00UU 12UN99 000000                                                                                                                                                                          
601AL052013 6020000544070522100DECATUR                 ALA   020325030A001A24MW 22MW 40UN99 000000                                                                                                                                                                          
601AL052013 6020000544070522100DECATUR                 ALA   020325030A002A48MW 47MW 40AQ99 000000                                                                                                                                                                          
601AL052013 6020000544070522100DECATUR                 ALA   070403031A001A00MW 40FW 90FA99 000000                                                                                                                                                                          
601AL052013 6020000544070522100DECATUR                 ALA   090325030A001A29MW 23MW 20EE99 000000                                                                                                                                                                          
601AL053008D602000006774053   0PERRY                   ALA   070325030A001A21MW 00MW 14AQ99 000000                                                                                                                                                                          
601AL053008D602000006774053   0PERRY                   ALA   090325030A001A00MW 52FW 12UN99 000000                                                                                                                                                                          
601AL054016 602000002590054   0ALICEVILLE              ALA   050325030A001A21MB 23MB 12AQ99 000000                                                                                                                                                                          
601AL056008C602000014487056   0RANDOLPH                ALA   080325030A001A43MW 16MW 12FA45 000000                                                                                                                                                                          
601AL056016 602000006621056   0ROANOKE                 ALA   110325030A001A01MB 22FB 90SO41 000000                                                                                                                                                                          
601AL057009C6020000230820571841RUSSELL                 ALA   020325030A001A21MB 19FB 12BF45 000000                                                                                                                                                                          
601AL057009C6020000230820571841RUSSELL                 ALA   020325030A002A12MW 22MW 12ST03 000000                                                                                                                                                                          
601AL057009C6020000230820571841RUSSELL                 ALA   030325030A001A42MB 47FB 20BF45 000000                                                                                                                                                                          
601AL058009B6020000350160580981ST. CLAIR               ALA   100325030A001A36FB 28MB 40WI45 000000                                                                                                                                                                          
601AL059045 6020000228190590981ALABASTER               ALA   050325030A001A23MW 28MW 20FR45 000000                                                                                                                                                                          
601AL060026 602000003326060   0LIVINGSTON              ALA   090325030A001A29MW 22MW 90UN99 000000                                                                                                                                                                          
601AL061025 602000015277061   0TALLADEGA               ALA   040325030A001A43MW 40MW 12BR99 000000                                                                                                                                                                          
601AL062008C602000019374062   0TALLAPOOSA              ALA   080325030A001A24MW 27MW 12OF45 000000                                                                                                                                                                          
601AL062015 602000015141062   0ALEXANDER CITY          ALA   010325030A001A23MB 24FB 20UN99 000000                                                                                                                                                                          
601AL062015 602000015141062   0ALEXANDER CITY          ALA   110325030A001A21MB 00MB 12UN99 000000                                                                                                                                                                          
601AL063009B6020000674340639151TUSCALOOSA              ALA   020325030A001A33FB 36MB 12WI99 000000                                                                                                                                                                          
601AL063009B6020000674340639151TUSCALOOSA              ALA   050325030A001A69MB 86MB 12AQ99 000000                                                                                                                                                                          
601AL063013 6020000785960639150TUSCALOOSA              ALA   020325030A001A37FB 49MB 20GF45 000000                                                                                                                                                                          
601AL063013 6020000785960639150TUSCALOOSA              ALA   020325030A002A22MW 21MW 20ST45 000000                                                                                                                                                                          
601AL063013 6020000785960639150TUSCALOOSA              ALA   080502031A001A38MB 53MB 12AQ99 000000                                                                                                                                                                          
601AL063013 6020000785960639150TUSCALOOSA              ALA   080417031A002B62MB 00UU 12UN99 000000                                                                                                                                                                          
601AL063013 6020000785960639150TUSCALOOSA              ALA   110325030A001A20FB 17FB 20AQ40 000000                                                                                                                                                                          
601AL063025 6020000196070639151NORTHPORT               ALA   010325030A001A21MB 19MB 12OF45 000000                                                                                                                                                                          
601AL063025 6020000196070639151NORTHPORT               ALA   110325030A001A38FB 35MB 14GF45 000000                                                                                                                                                                          
601AL064037 602000002445064   0CORDOVA                 ALA   080417031A001B54MW 00UU 12UN80C000000                                                                                                                                                                          
601AL065008C602000016188065   0WASHINGTON              ALA   080410031A001A54FW 00MW 14WI45 000000                                                                                                                                                                          
601AL065017 602000000246065   0MCINTOSH                ALA   060325030A001A62MI 37MI 40OF99 000000                                                                                                                                                                          
601AL065017 602000000246065   0MCINTOSH                ALA   090417031A001B80MB 00UU 40UN03 000000                                                                                                                                                                          
601AL066008C602000010048066   0WILCOX                  ALA   020325030A001A49MB 46FB 20HU45 000000                                                                                                                                                                          
601AL067008C602000020168067   0WINSTON                 ALA   050417031A001A34MW 00MW 14AQ45 000000                                                                                                                                                                          
602AZ001016 802000004290001   0EAGAR                   ARIZ  100404030B001A15MWH19MWN12FR53 000000                                                                                                                                                                          
602AZ002008B802000050920002   0COCHISE                 ARIZ  041011020A001A79MWN27MWN30FA44 000000                                                                                                                                                                          
602AZ002008B802000050920002   0COCHISE                 ARIZ  050211031A001A54MW 00MW 12UN99 000000                                                                                                                                                                          
602AZ002094 802000040174002   0SIERRA VISTA            ARIZ  070313030A001B30MWH00UUU12UN99 000000                                                                                                                                                                          
602AZ003009B8020000529370032751COCONINO                ARIZ  070401030A001B47MBN00UUU12UN99 000000                                                                                                                                                                          
602AZ003013 8020000562530032750FLAGSTAFF               ARIZ  070213030A001B25MWN00UUU20UN99 000000                                                                                                                                                                          
602AZ004065 802000014485004   0PAYSON                  ARIZ  051119020A001A36MWN53MWN20AQ42 000000                                                                                                                                                                          
602AZ005008C802000019406005   0GRAHAM                  ARIZ  020618020A001A44MWN52MWN12AQ45 000000                                                                                                                                                                          
602AZ007009A8020002692290076621MARICOPA                ARIZ  010606020A001C28MWN27MWN12FR99 000001                                                  20FWN12FR99                                                                                                             
602AZ007009A8020002692290076621MARICOPA                ARIZ  010606020A002A12MWN34MWN12SO60 000000                                                                                                                                                                          
602AZ007009A8020002692290076621MARICOPA                ARIZ  020618020A001B29MWH00UUU12UN99 000000                                                                                                                                                                          
602AZ007009A8020002692290076621MARICOPA                ARIZ  020618020A002A45MWN49MWN12ST18 000000                                                                                                                                                                          
602AZ007009A8020002692290076621MARICOPA                ARIZ  020618020A003A41FBN27MBN12WI45 000000                                                                                                                                                                          
602AZ007009A8020002692290076621MARICOPA                ARIZ  030905020A001B22MWN00UUU12UN99 000000                                                                                                                                                                          
602AZ007009A8020002692290076621MARICOPA                ARIZ  030905020A002B34MWH00UUU12UN44 000000                                                                                                                                                                          
602AZ007009A8020002692290076621MARICOPA                ARIZ  030905020A003B40MBN00UUU12UN99 000000                                                                                                                                                                          
602AZ007009A8020002692290076621MARICOPA                ARIZ  041011020A001B35FWN00UUU20UN99 000000                                                                                                                                                                          
602AZ007009A8020002692290076621MARICOPA                ARIZ  041011020A002A31MWH21MWH12ST43 000000                                                                                                                                                                          
602AZ007009A8020002692290076621MARICOPA                ARIZ  041011020A003B21MWH00UUU12UN99 000000                                                                                                                                                                          
602AZ007009A8020002692290076621MARICOPA                ARIZ  061223020A001A32MWH33MWH12NE45 000000                                                                                                                                                                          
602AZ007009A8020002692290076621MARICOPA                ARIZ  061223020A002D04MWN33MWN75ST99 00100023FWN                                                                                                                                                                     
602AZ007009A8020002692290076621MARICOPA                ARIZ  061223020A003B17MWH00UUU12UN99 000000                                                                                                                                                                          
602AZ007009A8020002692290076621MARICOPA                ARIZ  061223020A004B46MWH00UUU12UN99 000000                                                                                                                                                                          
602AZ007009A8020002692290076621MARICOPA                ARIZ  080313030A001A48MWH23MWH12FA45 000000                                                                                                                                                                          
602AZ007009A8020002692290076621MARICOPA                ARIZ  090401030A001B30MWH00UUU12UN99 000000                                                                                                                                                                          
602AZ007009A8020002692290076621MARICOPA                ARIZ  090401030A002A33MWH36MWN12NE45 000000                                                                                                                                                                          
602AZ007009A8020002692290076621MARICOPA                ARIZ  090401030A003B54FIN00UUU20UN99 000000                                                                                                                                                                          
602AZ007009A8020002692290076621MARICOPA                ARIZ  090401030A004B53FWH00UUU12UN99 000000                                                                                                                                                                          
602AZ007009A8020002692290076621MARICOPA                ARIZ  100404030A001B66MWN00UUU12UN99 000000                                                                                                                                                                          
602AZ007009A8020002692290076621MARICOPA                ARIZ  100404030A002D01MWN40MWN12OF45 00200017FWN35FWN                                                                                                                                                                
602AZ007009A8020002692290076621MARICOPA                ARIZ  100404030A003B25MWN00UUU12UN60 000000                                                                                                                                                                          
602AZ007009A8020002692290076621MARICOPA                ARIZ  110425030A001A77FWN77MWN12WI60 000000                                                                                                                                                                          
602AZ007009A8020002692290076621MARICOPA                ARIZ  120501030A001C57MWN26MWH30AQ42 000001                                                  23MWN30AQ42                                                                                                             
602AZ007009A8020002692290076621MARICOPA                ARIZ  120501030A002B22MBN00UUU12UN18 000000                                                                                                                                                                          
602AZ007009A8020002692290076621MARICOPA                ARIZ  120501030A003B18MBN00UUU12UN46 000000                                                                                                                                                                          
602AZ007009A8020002692290076621MARICOPA                ARIZ  120501030A004B25MWH00UUU14UN99 000000                                                                                                                                                                          
602AZ007009A8020002692290076621MARICOPA                ARIZ  120501030A005B35MWH00UUU20UN99 000000                                                                                                                                                                          
602AZ007009A8020002692290076621MARICOPA                ARIZ  120501030A006A37FWN42MWN12AQ45 000000                                                                                                                                                                          
602AZ007009A8020002692290076621MARICOPA                ARIZ  120501030A007B21MWH00UUU90UN99 000000                                                                                                                                                                          
602AZ007009A8020002692290076621MARICOPA                ARIZ  120501030A008B25MWH00UUU12UN99 000000                                                                                                                                                                          
602AZ007052 8020001877950076620CHANDLER                ARIZ  020905020A001B22MWH00UUU12UN60 000000                                                                                                                                                                          
602AZ007052 8020001877950076620CHANDLER                ARIZ  100404030A001A35FWN38MWH12ST60 000000                                                                                                                                                                          
602AZ007052 8020001877950076620CHANDLER                ARIZ  120501030A001A30MWH40MWN30AQ45 000000                                                                                                                                                                          
602AZ007076 8020000080930076621EL MIRAGE               ARIZ  050213030A001A34MWH33MWH12AQ99 000000                                                                                                                                                                          
602AZ007076 8020000080930076621EL MIRAGE               ARIZ  090404030A001B28MWH00UUU14UN99 000000                                                                                                                                                                          
602AZ007076 8020000080930076621EL MIRAGE               ARIZ  120501030A001A26MWH53MWH12FR42 000000                                                                                                                                                                          
602AZ007112 8020001166630076620GILBERT                 ARIZ  031011020A001A02MWN29MWN40OK41 000000                                                                                                                                                                          
602AZ007112 8020001166630076620GILBERT                 ARIZ  080313030A001B49FWN00UUU12UN99 000000                                                                                                                                                                          
602AZ007112 8020001166630076620GILBERT                 ARIZ  080313030A002B19MWH00UUU12UN99 000000                                                                                                                                                                          
602AZ007112 8020001166630076620GILBERT                 ARIZ  090401030A001B35FWN00UUU70UN99 000000                                                                                                                                                                          
602AZ007112 8020001166630076620GILBERT                 ARIZ  100404030A001A34FWN39MWN12AQ45 000000                                                                                                                                                                          
602AZ007112 8020001166630076620GILBERT                 ARIZ  110425030A001A35MWN21MWN20AQ80C000000                                                                                                                                                                          
602AZ007132 8020002327070076620GLENDALE                ARIZ  020905021B001BBBFWN00UUU90UN59 000000                                                                                                                                                                          
602AZ007132 8020002327070076620GLENDALE                ARIZ  041022021A001C73MW 25MW 40AQ60 000003                                                  45MW 40AQ60 44MW 40AQ60 65FW 40AQ60                                                                                     
602AZ007132 8020002327070076620GLENDALE                ARIZ  041022021B002D01MW 64MW 65ST59 00100034MW                                                                                                                                                                      
602AZ007132 8020002327070076620GLENDALE                ARIZ  051119020A001A53MWN41MWN70ST60 000000                                                                                                                                                                          
602AZ007132 8020002327070076620GLENDALE                ARIZ  051119020A002A21MWH23MBN12AQ99 000000                                                                                                                                                                          
602AZ007132 8020002327070076620GLENDALE                ARIZ  051119020A003F27FBN00UUU12UN99 00100030MBN                                                                                                                                                                     
602AZ007132 8020002327070076620GLENDALE                ARIZ  061223020A001C29MWN32MWN12ST03 000001                                                  46MWN12ST03                                                                                                             
602AZ007132 8020002327070076620GLENDALE                ARIZ  070213030A001B30MWH00UUU12UN45 000000                                                                                                                                                                          
602AZ007132 8020002327070076620GLENDALE                ARIZ  070213030A002B29MWH00UUU12UN99 000000                                                                                                                                                                          
602AZ007132 8020002327070076620GLENDALE                ARIZ  070213030A003B80FWN00UUU90UN99 000000                                                                                                                                                                          
602AZ007132 8020002327070076620GLENDALE                ARIZ  070213030A004B43MWN00UUU12UN99 000000                                                                                                                                                                          
602AZ007132 8020002327070076620GLENDALE                ARIZ  070213030B005A09FWH28FWH75DA59 000000                                                                                                                                                                          
602AZ007132 8020002327070076620GLENDALE                ARIZ  080313030A001A01MWN18MWN40AQ60 000000                                                                                                                                                                          
602AZ007132 8020002327070076620GLENDALE                ARIZ  090401030A001B74MWH00UUU90UN99 000000                                                                                                                                                                          
602AZ007132 8020002327070076620GLENDALE                ARIZ  100404030A001C23MWN32FWN70AQ18 000001                                                  35MWN70AQ18                                                                                                             
602AZ007132 8020002327070076620GLENDALE                ARIZ  100404030A002A23FWH25MWH12WI45 000000                                                                                                                                                                          
602AZ007132 8020002327070076620GLENDALE                ARIZ  100404030A003B26MWH00UUU12UN99 000000                                                                                                                                                                          
602AZ007132 8020002327070076620GLENDALE                ARIZ  120501030A001A30FWN32MWN12AQ18 000000                                                                                                                                                                          
602AZ007132 8020002327070076620GLENDALE                ARIZ  120501030A002C17MWN19MBN13AQ45 000001                                                  18MWN13AQ45                                                                                                             
602AZ007132 8020002327070076620GLENDALE                ARIZ  120501030B003C02MWN27MWH75AQ59 000001                                                  41MWN75SO59                                                                                                             
602AZ007155 8020000201120076621GOODYEAR                ARIZ  021011020A001A03MWH27MWH40OF60 000000                                                                                                                                                                          
602AZ007171C8020004215470076620MESA                    ARIZ  020618020A001A26MWN20MWN12ST60 000000                                                                                                                                                                          
602AZ007171C8020004215470076620MESA                    ARIZ  030905020A001B19MWN00UUU12UN06 000000                                                                                                                                                                          
602AZ007171C8020004215470076620MESA                    ARIZ  041011020A001A37FWN31MWN14GF45 000000                                                                                                                                                                          
602AZ007171C8020004215470076620MESA                    ARIZ  051119020A001A24MBN24MBN12FR45 000000                                                                                                                                                                          
602AZ007171C8020004215470076620MESA                    ARIZ  051119020A002B28MWH00UUU12UN99 000000                                                                                                                                                                          
602AZ007171C8020004215470076620MESA                    ARIZ  051119020A003B21MWH00UUU12UN99 000000                                                                                                                                                                          
602AZ007171C8020004215470076620MESA                    ARIZ  051119020A004F27MIN00UUU12UN03 00200030MWH31FWH                                                                                                                                                                
602AZ007171C8020004215470076620MESA                    ARIZ  051119020A005C22MWH26MWH12ST81A000002                                                  27MWN12ST81A25MIN12ST81A                                                                                                
602AZ007171C8020004215470076620MESA                    ARIZ  051119020B006A15MWH15MWH15FR52 000000                                                                                                                                                                          
602AZ007171C8020004215470076620MESA                    ARIZ  061223020A001C18MIN37MWH12ST81E000002                                                  31MWN12ST81E41MWN12ST81E                                                                                                
