601AL001009A6980001367770370981JEFFERSON               ALA   010609991A001B30FB 00UU 40UN99 000000                                                                                                                                                                          
601AL001009A6980001367770370981JEFFERSON               ALA   010609991A002B37FW 00UU 12UN99 000000                                                                                                                                                                          
601AL001009A6980001367770370981JEFFERSON               ALA   020609991A001A28MB 20MB 12ST03 000000                                                                                                                                                                          
601AL001009A6980001367770370981JEFFERSON               ALA   040924991A001A83FW 19MW 40ST03 000000                                                                                                                                                                          
601AL001009A6980001367770370981JEFFERSON               ALA   080924991A001A21MB 28MB 14AQ18 000000                                                                                                                                                                          
601AL001009A6980001367770370981JEFFERSON               ALA   090609991A001A49FW 19MW 12MO45 000000                                                                                                                                                                          
601AL001009A6980001367770370981JEFFERSON               ALA   090609991A002A43FW 51MW 12WI45 000000                                                                                                                                                                          
601AL001014 6980000313630370981BESSEMER                ALA   030421990A001D61FB 67MB 12WI60 00100007MB                                                                                                                                                                      
601AL001014 6980000313630370981BESSEMER                ALA   040421990A001A21MB 32MB 13AQ03 000000                                                                                                                                                                          
601AL001014 6980000313630370981BESSEMER                ALA   040421990A002A21MB 25MB 20AQ45 000000                                                                                                                                                                          
601AL001014 6980000313630370981BESSEMER                ALA   040421990A003A21MB 18MB 13AQ45 000000                                                                                                                                                                          
601AL001014 6980000313630370981BESSEMER                ALA   060916991A001A47MB 20MB 12AQ18 000000                                                                                                                                                                          
601AL001014 6980000313630370981BESSEMER                ALA   060916991A002A30FB 15MW 12ST46 000000                                                                                                                                                                          
601AL001014 6980000313630370981BESSEMER                ALA   060916991A003A22MB 38MB 13AQ45 000000                                                                                                                                                                          
601AL001014 6980000313630370981BESSEMER                ALA   060421990A004A06MB 12MB 30BR45 000000                                                                                                                                                                          
601AL001014 6980000313630370981BESSEMER                ALA   060916991A005A07MB 18MB 12AQ46 000000                                                                                                                                                                          
601AL001014 6980000313630370981BESSEMER                ALA   070421990A001A20MW 23MW 20AQ45 000000                                                                                                                                                                          
601AL001014 6980000313630370981BESSEMER                ALA   100421990A001B18MW 00UU 12UN99 000000                                                                                                                                                                          
601AL001014 6980000313630370981BESSEMER                ALA   110421990A001A29MB 33MB 12AQ45 000000                                                                                                                                                                          
601AL001014 6980000313630370981BESSEMER                ALA   110421990A002A38MB 19MB 12AQ45 000000                                                                                                                                                                          
601AL001021C6980002594530370980BIRMINGHAM              ALA   010609991A001B17MB 00UU 12UN99 000000                                                                                                                                                                          
601AL001021C6980002594530370980BIRMINGHAM              ALA   010609991A002B41MU 00UU 12UN99 000000                                                                                                                                                                          
601AL001021C6980002594530370980BIRMINGHAM              ALA   010609991A003B00UU 00UU 90UN99 000000                                                                                                                                                                          
601AL001021C6980002594530370980BIRMINGHAM              ALA   010609991A004B00UU 00UU 90UN99 000000                                                                                                                                                                          
601AL001021C6980002594530370980BIRMINGHAM              ALA   020609991A001B44MB 00UU 12UN99 000000                                                                                                                                                                          
601AL001021C6980002594530370980BIRMINGHAM              ALA   020609991A002B12MB 00UU 12UN45 000000                                                                                                                                                                          
601AL001021C6980002594530370980BIRMINGHAM              ALA   020609991A003A18UA 22MB 90ST99 000000                                                                                                                                                                          
601AL001021C6980002594530370980BIRMINGHAM              ALA   020609991A004A45MB 20MB 12AQ45 000000                                                                                                                                                                          
601AL001021C6980002594530370980BIRMINGHAM              ALA   020609991A005B24UU 00UU 12UN99 000000                                                                                                                                                                          
601AL001021C6980002594530370980BIRMINGHAM              ALA   020609991A006B71MB 00UU 90UN99 000000                                                                                                                                                                          
601AL001021C6980002594530370980BIRMINGHAM              ALA   020609991A007B25MW 00UU 12UN99 000000                                                                                                                                                                          
601AL001021C6980002594530370980BIRMINGHAM              ALA   020609991A008B00UU 00UU 90UN99 000000                                                                                                                                                                          
601AL001021C6980002594530370980BIRMINGHAM              ALA   020609991A009B00UU 00UU 90UN99 000000                                                                                                                                                                          
601AL001021C6980002594530370980BIRMINGHAM              ALA   030609991A001B58MB 00UU 40UN60 000000                                                                                                                                                                          
601AL001021C6980002594530370980BIRMINGHAM              ALA   030609991A002B31FB 00UU 12UN99 000000                                                                                                                                                                          
601AL001021C6980002594530370980BIRMINGHAM              ALA   030609991A003B60MW 00UU 12UN99 000000                                                                                                                                                                          
601AL001021C6980002594530370980BIRMINGHAM              ALA   030609991A004B33FB 00UU 20UN99 000000                                                                                                                                                                          
601AL001021C6980002594530370980BIRMINGHAM              ALA   030609991A005B55FB 00UU 90UN99 000000                                                                                                                                                                          
601AL001021C6980002594530370980BIRMINGHAM              ALA   030609991A006B00UU 00UU 90UN99 000000                                                                                                                                                                          
601AL001021C6980002594530370980BIRMINGHAM              ALA   030609991A007B00UU 00UU 90UN99 000000                                                                                                                                                                          
601AL001021C6980002594530370980BIRMINGHAM              ALA   040609991A001A26MB 29MB 12BR99 000000                                                                                                                                                                          
601AL001021C6980002594530370980BIRMINGHAM              ALA   040609991A002B24MB 00UU 12UN99 000000                                                                                                                                                                          
601AL001021C6980002594530370980BIRMINGHAM              ALA   040609991A003A33MB 33MB 12ST99 000000                                                                                                                                                                          
601AL001021C6980002594530370980BIRMINGHAM              ALA   040609991A004B77MW 00UU 90UN99 000000                                                                                                                                                                          
601AL001021C6980002594530370980BIRMINGHAM              ALA   040609991A005A23MB 22MB 12AQ99 000000                                                                                                                                                                          
601AL001021C6980002594530370980BIRMINGHAM              ALA   040609991A006B18MB 00UU 12UN99 000000                                                                                                                                                                          
601AL001021C6980002594530370980BIRMINGHAM              ALA   040609991A007A18MB 18MB 12AQ99 000000                                                                                                                                                                          
601AL001021C6980002594530370980BIRMINGHAM              ALA   040609991A008B26MB 00UU 20UN45 000000                                                                                                                                                                          
601AL001021C6980002594530370980BIRMINGHAM              ALA   040609991A009B00UU 00UU 90UN99 000000                                                                                                                                                                          
601AL001021C6980002594530370980BIRMINGHAM              ALA   040609991A010B00UU 00UU 90UN99 000000                                                                                                                                                                          
601AL001021C6980002594530370980BIRMINGHAM              ALA   050609991A001A22MW 24MW 12ST99 000000                                                                                                                                                                          
601AL001021C6980002594530370980BIRMINGHAM              ALA   050609991A002B42MW 00UU 90UN99 000000                                                                                                                                                                          
601AL001021C6980002594530370980BIRMINGHAM              ALA   050609991A003A28MW 33MW 90ST99 000000                                                                                                                                                                          
601AL001021C6980002594530370980BIRMINGHAM              ALA   050609991A004B36MB 00UU 12UN99 000000                                                                                                                                                                          
601AL001021C6980002594530370980BIRMINGHAM              ALA   050609991A005A29MB 26FB 12HU99 000000                                                                                                                                                                          
601AL001021C6980002594530370980BIRMINGHAM              ALA   050609991A006A25MB 20MB 12AQ99 000000                                                                                                                                                                          
601AL001021C6980002594530370980BIRMINGHAM              ALA   050609991A007B00MB 00UU 12UN99 000000                                                                                                                                                                          
601AL001021C6980002594530370980BIRMINGHAM              ALA   050609991A008A17MB 17FW 12FR99 000000                                                                                                                                                                          
601AL001021C6980002594530370980BIRMINGHAM              ALA   050609991A009B00UU 00UU 40UN99 000000                                                                                                                                                                          
601AL001021C6980002594530370980BIRMINGHAM              ALA   050609991A010B22FB 00UU 12UN99 000000                                                                                                                                                                          
601AL001021C6980002594530370980BIRMINGHAM              ALA   050609991A011B00UU 00UU 90UN99 000000                                                                                                                                                                          
601AL001021C6980002594530370980BIRMINGHAM              ALA   050609991A012B00UU 00UU 90UN99 000000                                                                                                                                                                          
601AL001021C6980002594530370980BIRMINGHAM              ALA   050609991A013B00UU 00UU 90UN99 000000                                                                                                                                                                          
601AL001021C6980002594530370980BIRMINGHAM              ALA   060609991A001A72MB 40MB 20FA99 000000                                                                                                                                                                          
601AL001021C6980002594530370980BIRMINGHAM              ALA   060609991A002A25MB 19MB 12ST80E000000                                                                                                                                                                          
601AL001021C6980002594530370980BIRMINGHAM              ALA   060609991A003A34MB 39MB 20BR99 000000                                                                                                                                                                          
601AL001021C6980002594530370980BIRMINGHAM              ALA   060609991A004A50MB 51MB 12AQ99 000000                                                                                                                                                                          
601AL001021C6980002594530370980BIRMINGHAM              ALA   060609991A005B00UU 00UU 90UN99 000000                                                                                                                                                                          
601AL001021C6980002594530370980BIRMINGHAM              ALA   060609991A006B00UU 00UU 90UN99 000000                                                                                                                                                                          
601AL001021C6980002594530370980BIRMINGHAM              ALA   060609991A007B00UU 00UU 90UN99 000000                                                                                                                                                                          
601AL001021C6980002594530370980BIRMINGHAM              ALA   070609991A001A34FB 49MB 20GF45 000000                                                                                                                                                                          
601AL001021C6980002594530370980BIRMINGHAM              ALA   070609991A002B20MB 00UU 12UN99 000000                                                                                                                                                                          
601AL001021C6980002594530370980BIRMINGHAM              ALA   070609991A003B29MB 00UU 12UN99 000000                                                                                                                                                                          
601AL001021C6980002594530370980BIRMINGHAM              ALA   070609991A004A45MB 41MB 40AQ99 000000                                                                                                                                                                          
601AL001021C6980002594530370980BIRMINGHAM              ALA   070609991A005A36FB 71MB 12GF99 000000                                                                                                                                                                          
601AL001021C6980002594530370980BIRMINGHAM              ALA   070609991A006A34MB 20MB 12ST60 000000                                                                                                                                                                          
601AL001021C6980002594530370980BIRMINGHAM              ALA   070924991A007A31MB 00MB 12ST99 000000                                                                                                                                                                          
601AL001021C6980002594530370980BIRMINGHAM              ALA   070609991A008B00UU 00UU 90UN99 000000                                                                                                                                                                          
601AL001021C6980002594530370980BIRMINGHAM              ALA   070609991A009B00UU 00UU 90UN99 000000                                                                                                                                                                          
601AL001021C6980002594530370980BIRMINGHAM              ALA   070609991A010B00UU 00UU 90UN99 000000                                                                                                                                                                          
601AL001021C6980002594530370980BIRMINGHAM              ALA   080609991A001B61MW 00UU 12UN99 000000                                                                                                                                                                          
601AL001021C6980002594530370980BIRMINGHAM              ALA   080609991A002B00UU 00UU 90UN99 000000                                                                                                                                                                          
601AL001021C6980002594530370980BIRMINGHAM              ALA   080609991A003B00UU 00UU 90UN99 000000                                                                                                                                                                          
601AL001021C6980002594530370980BIRMINGHAM              ALA   080609991A004B00UU 00UU 90UN99 000000                                                                                                                                                                          
601AL001021C6980002594530370980BIRMINGHAM              ALA   090609991A001B21MB 00UU 12UN99 000000                                                                                                                                                                          
601AL001021C6980002594530370980BIRMINGHAM              ALA   090609991A002B00UU 00UU 90UN99 000000                                                                                                                                                                          
601AL001021C6980002594530370980BIRMINGHAM              ALA   090609991A003B00UU 00UU 90UN99 000000                                                                                                                                                                          
601AL001021C6980002594530370980BIRMINGHAM              ALA   090609991A004B00UU 00UU 90UN99 000000                                                                                                                                                                          
601AL001021C6980002594530370980BIRMINGHAM              ALA   100609991A001B17MB 00UU 12UN99 000000                                                                                                                                                                          
601AL001021C6980002594530370980BIRMINGHAM              ALA   100609991A002B00UU 00UU 90UN99 000000                                                                                                                                                                          
601AL001021C6980002594530370980BIRMINGHAM              ALA   100609991A003B00UU 00UU 90UN99 000000                                                                                                                                                                          
601AL001021C6980002594530370980BIRMINGHAM              ALA   110609991A001A26MW 24MB 90ST60 000000                                                                                                                                                                          
601AL001021C6980002594530370980BIRMINGHAM              ALA   110609991A002A17MB 19MB 12ST99 000000                                                                                                                                                                          
601AL001021C6980002594530370980BIRMINGHAM              ALA   110609991A003B25MW 00UU 12UN60 000000                                                                                                                                                                          
601AL001021C6980002594530370980BIRMINGHAM              ALA   110609991A004A35MW 47MW 12AQ45 000000                                                                                                                                                                          
601AL001021C6980002594530370980BIRMINGHAM              ALA   110609991A005B00UU 00UU 90UN99 000000                                                                                                                                                                          
601AL001021C6980002594530370980BIRMINGHAM              ALA   110609991A006B00UU 00UU 90UN99 000000                                                                                                                                                                          
601AL001021C6980002594530370980BIRMINGHAM              ALA   120609991A001A20MB 25MB 12ST99 000000                                                                                                                                                                          
601AL001021C6980002594530370980BIRMINGHAM              ALA   120609991A002A37MB 40MB 12ST99 000000                                                                                                                                                                          
601AL001021C6980002594530370980BIRMINGHAM              ALA   120609991A003B19MB 00UU 12UN99 000000                                                                                                                                                                          
601AL001021C6980002594530370980BIRMINGHAM              ALA   120609991A004A22FB 23FB 12AQ45 000000                                                                                                                                                                          
601AL001021C6980002594530370980BIRMINGHAM              ALA   120609991A005A48MB 42MW 90ST99 000000                                                                                                                                                                          
601AL001021C6980002594530370980BIRMINGHAM              ALA   120609991A006B00UU 00UU 90UN99 000000                                                                                                                                                                          
601AL001021C6980002594530370980BIRMINGHAM              ALA   120609991A007B00UU 00UU 90UN99 000000                                                                                                                                                                          
601AL001021C6980002594530370980BIRMINGHAM              ALA   120609991A008B00UU 00UU 90UN99 000000                                                                                                                                                                          
601AL001045 6980000115370370981FAIRFIELD               ALA   050609991A001A20MB 25MB 12UN80E000000                                                                                                                                                                          
601AL001045 6980000115370370981FAIRFIELD               ALA   070609991A001A79FB 41MB 20AQ99 000000                                                                                                                                                                          
601AL001076 6980000053230370981MIDFIELD                ALA   070609991A001B21MB 00UU 14UN60 000000                                                                                                                                                                          
601AL001086 6980000075850370981TARRANT CITY            ALA   120609991A001A62MW 18MB 12UN03 000000                                                                                                                                                                          
601AL001105 6980000232520370981HOMEWOOD                ALA   060609991A001A45MW 00MW 12UN99 000000                                                                                                                                                                          
601AL001146 6980000089420370981PLEASANT GROVE          ALA   030609991A001A43FW 21MW 12SM60 000000                                                                                                                                                                          
601AL001195 6980000151840370981HUEYTOWN                ALA   080609991A001A49MB 30MB 90IL49 000000                                                                                                                                                                          
601AL001206 6980000029050370981LIPSCOMB                ALA   090609991A001A62MW 38MW 90FA45 000000                                                                                                                                                                          
601AL001226 6980000050860370981ADAMSVILLE              ALA   010609991A001B37FW 00UU 12UN99 000000                                                                                                                                                                          
601AL002009B6980000875990495471MOBILE                  ALA   080415991A001A24MB 22MB 12AQ45 000000                                                                                                                                                                          
601AL002009B6980000875990495471MOBILE                  ALA   090924991A001A21MB 18MA 12UN45 000000                                                                                                                                                                          
601AL002009B6980000875990495471MOBILE                  ALA   110924991A001A21MW 26MW 13FR60 000000                                                                                                                                                                          
601AL002012 6980002452330495470MOBILE                  ALA   010609991A001A36MB 17MB 12UN99 000000                                                                                                                                                                          
601AL002012 6980002452330495470MOBILE                  ALA   010609991A002B46MB 00UU 12UN99 000000                                                                                                                                                                          
601AL002012 6980002452330495470MOBILE                  ALA   010609991A003B28MB 00UU 90UN99 000000                                                                                                                                                                          
601AL002012 6980002452330495470MOBILE                  ALA   010609991A004A00UU 24MB 90UN99 000000                                                                                                                                                                          
601AL002012 6980002452330495470MOBILE                  ALA   020609991A001A24MB 22MB 90UN99 000000                                                                                                                                                                          
601AL002012 6980002452330495470MOBILE                  ALA   020609991A002B00UU 00UU 90UN99 000000                                                                                                                                                                          
601AL002012 6980002452330495470MOBILE                  ALA   020609991A003B29MB 00UU 90UN99 000000                                                                                                                                                                          
601AL002012 6980002452330495470MOBILE                  ALA   030609991A001A43MB 20MB 90UN99 000000                                                                                                                                                                          
601AL002012 6980002452330495470MOBILE                  ALA   030609991A002A40MW 59MW 90UN99 000000                                                                                                                                                                          
601AL002012 6980002452330495470MOBILE                  ALA   030609991A003B37FB 00UU 90UN99 000000                                                                                                                                                                          
601AL002012 6980002452330495470MOBILE                  ALA   030609991A004B64MW 00UU 90UN99 000000                                                                                                                                                                          
601AL002012 6980002452330495470MOBILE                  ALA   040609991A001A32FW 32MW 90UN99 000000                                                                                                                                                                          
601AL002012 6980002452330495470MOBILE                  ALA   040609991A002A51MB 36MB 40AQ99 000000                                                                                                                                                                          
601AL002012 6980002452330495470MOBILE                  ALA   050609991A001A00UU 29MB 90UN99 000000                                                                                                                                                                          
601AL002012 6980002452330495470MOBILE                  ALA   050609991A002B03MW 00UU 12UN99 000000                                                                                                                                                                          
601AL002012 6980002452330495470MOBILE                  ALA   050609991A003B04FW 00UU 90UN99 000000                                                                                                                                                                          
601AL002012 6980002452330495470MOBILE                  ALA   050609991A004B39FB 00UU 40UN99 000000                                                                                                                                                                          
601AL002012 6980002452330495470MOBILE                  ALA   060609991A001B24MB 00UU 90UN99 000000                                                                                                                                                                          
601AL002012 6980002452330495470MOBILE                  ALA   060609991A002A03MB 29FB 90UN99 000000                                                                                                                                                                          
601AL002012 6980002452330495470MOBILE                  ALA   060609991A003B70FB 00UU 90UN99 000000                                                                                                                                                                          
601AL002012 6980002452330495470MOBILE                  ALA   060609991A004A17MB 20MB 90UN99 000000                                                                                                                                                                          
601AL002012 6980002452330495470MOBILE                  ALA   070609991A001A28MW 16MB 90UN99 000000                                                                                                                                                                          
601AL002012 6980002452330495470MOBILE                  ALA   070609991A002A20MB 26MB 90UN99 000000                                                                                                                                                                          
601AL002012 6980002452330495470MOBILE                  ALA   070609991A003B21MB 00UU 90UN99 000000                                                                                                                                                                          
601AL002012 6980002452330495470MOBILE                  ALA   080609991A001B84MB 00UU 90UN99 000000                                                                                                                                                                          
601AL002012 6980002452330495470MOBILE                  ALA   080609991A002B02MW 00UU 40UN99 000000                                                                                                                                                                          
601AL002012 6980002452330495470MOBILE                  ALA   090609991A001B00UU 00UU 90UN99 000000                                                                                                                                                                          
601AL002012 6980002452330495470MOBILE                  ALA   090609991A002B45FB 00UU 90UN99 000000                                                                                                                                                                          
601AL002012 6980002452330495470MOBILE                  ALA   090609991A003A19MW 24MW 90UN99 000000                                                                                                                                                                          
601AL002012 6980002452330495470MOBILE                  ALA   100609991A001A46FB 69MB 90UN99 000000                                                                                                                                                                          
601AL002012 6980002452330495470MOBILE                  ALA   110609991A001B29MB 00UU 90UN99 000000                                                                                                                                                                          
601AL002012 6980002452330495470MOBILE                  ALA   110609991A002B50MW 00UU 90UN99 000000                                                                                                                                                                          
601AL002012 6980002452330495470MOBILE                  ALA   110609991A003B48FW 00UU 90UN99 000000                                                                                                                                                                          
601AL002012 6980002452330495470MOBILE                  ALA   120609991A001A27MB 39MB 90UN99 000000                                                                                                                                                                          
601AL002012 6980002452330495470MOBILE                  ALA   120609991A002A29MB 16MB 90UN99 000000                                                                                                                                                                          
601AL002024 6980000332810495471PRICHARD                ALA   040609991A001A39MB 39MB 12IL45 000000                                                                                                                                                                          
601AL002024 6980000332810495471PRICHARD                ALA   040609991A002A35MW 00MB 12UN18 000000                                                                                                                                                                          
601AL002024 6980000332810495471PRICHARD                ALA   060609991A001A87MB 19MB 20NE03 000000                                                                                                                                                                          
601AL002024 6980000332810495471PRICHARD                ALA   060609991A002B21MB 00UU 12UN18 000000                                                                                                                                                                          
601AL002024 6980000332810495471PRICHARD                ALA   080609991A001A26MA 39MA 20FR45 000000                                                                                                                                                                          
601AL002024 6980000332810495471PRICHARD                ALA   090609991A001B26MB 00UU 12UN99 000000                                                                                                                                                                          
601AL002024 6980000332810495471PRICHARD                ALA   120609991A001A21MB 18FB 20BF45 000000                                                                                                                                                                          
601AL002076 6980000060050495471SATSUMA                 ALA   040609991A001A73MW 18MB 12UN99 000000                                                                                                                                                                          
601AL003009C6980000214530515561MONTGOMERY              ALA   040609991A001A00MB 22MB 13UN99 000000                                                                                                                                                                          
601AL003012 6980001978070515560MONTGOMERY              ALA   010609991A001A31MB 00MB 12UN99 000000                                                                                                                                                                          
601AL003012 6980001978070515560MONTGOMERY              ALA   010609991A002A47MB 34MB 12UN99 000000                                                                                                                                                                          
601AL003012 6980001978070515560MONTGOMERY              ALA   010609991A003A37MB 43FB 20FR45 000000                                                                                                                                                                          
601AL003012 6980001978070515560MONTGOMERY              ALA   010609991A004A29MB 00MB 12UN60 000000                                                                                                                                                                          
601AL003012 6980001978070515560MONTGOMERY              ALA   010609991A005A85FB 31MB 40UN99 000000                                                                                                                                                                          
601AL003012 6980001978070515560MONTGOMERY              ALA   020609991A001A45MW 31MW 40UN99 000000                                                                                                                                                                          
601AL003012 6980001978070515560MONTGOMERY              ALA   020609991A002A17MB 22MB 12AQ99 000000                                                                                                                                                                          
601AL003012 6980001978070515560MONTGOMERY              ALA   020609991A003A23MB 20UU 12UN60 000000                                                                                                                                                                          
601AL003012 6980001978070515560MONTGOMERY              ALA   040609991A001A30FB 51MB 12DA99 000000                                                                                                                                                                          
601AL003012 6980001978070515560MONTGOMERY              ALA   040609991A002A17MB 30MB 12UN99 000000                                                                                                                                                                          
601AL003012 6980001978070515560MONTGOMERY              ALA   040609991A003A23FB 23MB 12GF45 000000                                                                                                                                                                          
601AL003012 6980001978070515560MONTGOMERY              ALA   040609991A004A16MW 31MW 12OF99 000000                                                                                                                                                                          
601AL003012 6980001978070515560MONTGOMERY              ALA   040609991A005A18MB 41FB 90UN99 000000                                                                                                                                                                          
601AL003012 6980001978070515560MONTGOMERY              ALA   050609991A001A53MB 17MB 12UN03 000000                                                                                                                                                                          
601AL003012 6980001978070515560MONTGOMERY              ALA   060609991A001A42MB 19MB 40UN99 000000                                                                                                                                                                          
601AL003012 6980001978070515560MONTGOMERY              ALA   060609991A002A49FW 60MW 12WI60 000000                                                                                                                                                                          
601AL003012 6980001978070515560MONTGOMERY              ALA   060609991A003A16MB 21MB 12UN60 000000                                                                                                                                                                          
601AL003012 6980001978070515560MONTGOMERY              ALA   070609991A001A36FB 78MB 12CW99 000000                                                                                                                                                                          
601AL003012 6980001978070515560MONTGOMERY              ALA   070609991A002B87MB 00UU 12UN99 000000                                                                                                                                                                          
601AL003012 6980001978070515560MONTGOMERY              ALA   070609991A003A38MB 17MB 12UN99 000000                                                                                                                                                                          
601AL003012 6980001978070515560MONTGOMERY              ALA   070609991A004B19MB 00UU 12UN99 000000                                                                                                                                                                          
601AL003012 6980001978070515560MONTGOMERY              ALA   070609991A005A17MB 19MB 12UN60 000000                                                                                                                                                                          
601AL003012 6980001978070515560MONTGOMERY              ALA   080609991A001A23MB 00MB 12UN99 000000                                                                                                                                                                          
601AL003012 6980001978070515560MONTGOMERY              ALA   080609991A002B21MB 00UU 12UN99 000000                                                                                                                                                                          
601AL003012 6980001978070515560MONTGOMERY              ALA   080609991A003A69MB 28MB 90UN03 000000                                                                                                                                                                          
601AL003012 6980001978070515560MONTGOMERY              ALA   090609991A001A18MW 19MB 40UN99 000000                                                                                                                                                                          
601AL003012 6980001978070515560MONTGOMERY              ALA   100609991A001A25MB 17MB 12UN99 000000                                                                                                                                                                          
601AL003012 6980001978070515560MONTGOMERY              ALA   110609991A001B02FB 00UU 40UN99 000000                                                                                                                                                                          
601AL003012 6980001978070515560MONTGOMERY              ALA   110609991A002A37FW 22MB 40UN99 000000                                                                                                                                                                          
601AL003012 6980001978070515560MONTGOMERY              ALA   120609991A001B51MB 00UU 12UN99 000000                                                                                                                                                                          
601AL003012 6980001978070515560MONTGOMERY              ALA   120609991A002A68MB 33MW 40UN99 000000                                                                                                                                                                          
601AL003012 6980001978070515560MONTGOMERY              ALA   120609991A003A17MB 17MB 12FR99 000000                                                                                                                                                                          
601AL004009C6980000165430015561AUTAUGA                 ALA   060609991A001D39MB 59FB 12IL45 00100069MB                                                                                                                                                                      
601AL004009C6980000165430015561AUTAUGA                 ALA   100609991A001A19MB 18MB 90AQ45 000000                                                                                                                                                                          
601AL005009B6980000687220025471BALDWIN                 ALA   010609991A001A41MB 42MB 14UN99 000000                                                                                                                                                                          
601AL005009B6980000687220025471BALDWIN                 ALA   020609991A001A54MW 40MW 20UN99 000000                                                                                                                                                                          
601AL005009B6980000687220025471BALDWIN                 ALA   100609991A001B46MW 00UU 90UN99 000000                                                                                                                                                                          
601AL005025 6980000126060025471FAIRHOPE                ALA   110609991A001A35MB 54MB 12BR60 000000                                                                                                                                                                          
601AL005097 6980000006670025471SUMMERDALE              ALA   050609991A001A27FW 34MW 12XW60 000000                                                                                                                                                                          
601AL006015 698000013445003   0EUFAULA                 ALA   010609991A001A30FW 00MW 13WI45 000000                                                                                                                                                                          
601AL006037 698000002105003   0CLIO                    ALA   110609991A001A24MB 22MB 12AQ45 000000                                                                                                                                                                          
601AL009016 698000004161006   0UNION SPRINGS           ALA   110609991A001B28MB 00UU 40UN60 000000                                                                                                                                                                          
601AL010008C698000011847007   0BUTLER                  ALA   010609991A001A41MW 78MW 12UN45 000000                                                                                                                                                                          
601AL010016 698000007671007   0GREENVILLE              ALA   120609991A001A32MB 19MB 12AQ99 000000                                                                                                                                                                          
601AL011009B6980000636790080421CALHOUN                 ALA   070609991A001A48FW 41MW 12GF45 000000                                                                                                                                                                          
601AL011009B6980000636790080421CALHOUN                 ALA   090609991A001A61MW 60FW 20UN45 000000                                                                                                                                                                          
601AL011014 6980000261000080420ANNISTON                ALA   040609991A001B33FW 00UU 90UN03 000000                                                                                                                                                                          
601AL011014 6980000261000080420ANNISTON                ALA   060609991A001A22MW 30MB 12UN99 000000                                                                                                                                                                          
601AL011014 6980000261000080420ANNISTON                ALA   060609991A002A41MW 35MW 12OK45 000000                                                                                                                                                                          
601AL011014 6980000261000080420ANNISTON                ALA   070609991A001A40MB 00MB 12UN99 000000                                                                                                                                                                          
601AL011014 6980000261000080420ANNISTON                ALA   070609991A002A42FW 45MW 12XW45 000000                                                                                                                                                                          
601AL011014 6980000261000080420ANNISTON                ALA   080609991A001A21MB 00MB 12UN44 000000                                                                                                                                                                          
601AL011014 6980000261000080420ANNISTON                ALA   080609991A002A41MW 00MW 20AQ45 000000                                                                                                                                                                          
601AL011014 6980000261000080420ANNISTON                ALA   090609991A001A49MW 39FW 12BF45 000000                                                                                                                                                                          
601AL011014 6980000261000080420ANNISTON                ALA   090609991A002A00MB 20FB 40SO60 000000                                                                                                                                                                          
601AL011046 6980000027410080421WEAVER                  ALA   100609991A001A46MB 46FW 90HU99 000000                                                                                                                                                                          
601AL011055 6980000105400080421OXFORD                  ALA   090609991A001A32MB 29FB 12HU45 000000                                                                                                                                                                          
601AL012026 698000008811009   0LANETT                  ALA   050609991A001A03MB 18FW 90AQ45 000000                                                                                                                                                                          
601AL012026 698000008811009   0LANETT                  ALA   080609991A001B49FW 00UU 90UN03 000000                                                                                                                                                                          
601AL012026 698000008811009   0LANETT                  ALA   090609991A001A38FW 36MW 13WI60 000000                                                                                                                                                                          
601AL012026 698000008811009   0LANETT                  ALA   110609991A001A26FB 30MB 14XW05 000000                                                                                                                                                                          
601AL014008C698000023372011   0CHILTON                 ALA   100609991A001A49MW 47FW 12XH45 000000                                                                                                                                                                          
601AL014016 698000008694011   0CLANTON                 ALA   100609991A001B39FB 00UU 12UN99 000000                                                                                                                                                                          
601AL014047 698000001669011   0THORSBY                 ALA   090609991A001A23MW 28MW 12UN45 000000                                                                                                                                                                          
601AL016008C698000015850013   0CLARKE                  ALA   070609991A001A37FW 43MW 14WI45 000000                                                                                                                                                                          
601AL016016 698000006254013   0JACKSON                 ALA   010609991A001B27FB 00UU 12UN99 000000                                                                                                                                                                          
601AL016026 698000004619013   0THOMASVILLE             ALA   100609991A001A23MW 24MW 90FR99 000000                                                                                                                                                                          
601AL019008C698000014989016   0COFFEE                  ALA   030609991A001D34FW 18MW 14SM99 00100042MW                                                                                                                                                                      
601AL019008C698000014989016   0COFFEE                  ALA   060609991A001A27MB 21MW 13AQ99 000000                                                                                                                                                                          
601AL019025 698000021367016   0ENTERPRISE              ALA   040609991A001A26MB 00MB 12UN99 000000                                                                                                                                                                          
601AL019025 698000021367016   0ENTERPRISE              ALA   040609991A002A36MB 00MB 12UN99 000000                                                                                                                                                                          
601AL020015 6980000103650172771SHEFFIELD               ALA   010609991A001A35FW 58MW 12NE45 000000                                                                                                                                                                          
601AL020026 6980000083730172771TUSCUMBIA               ALA   040609991A001A27MB 45MB 12AQ45 000000                                                                                                                                                                          
601AL021016 698000003847018   0EVERGREEN               ALA   020609991A001A40FB 43MB 12WI45 000000                                                                                                                                                                          
601AL022008D698000009822019   0COOSA                   ALA   110609991A001A23FB 24MB 12UN42 000000                                                                                                                                                                          
601AL022017 698000001820019   0GOODWATER               ALA   070609991A001B58MW 00UU 12UN99 000000                                                                                                                                                                          
601AL024008C698000010314021   0CRENSHAW                ALA   090609991A001A38FB 00MB 90WI99 000000                                                                                                                                                                          
601AL025008B698000053430022   0CULLMAN                 ALA   070609991A001A35FW 15FW 13MO60 000000                                                                                                                                                                          
601AL025008B698000053430022   0CULLMAN                 ALA   100609991A001A35MW 30MW 12AQ99 000000                                                                                                                                                                          
601AL025008B698000053430022   0CULLMAN                 ALA   100609991A002A42MW 36MW 12AQ99 000000                                                                                                                                                                          
601AL026015 6980000128070232271OZARK                   ALA   090609991A001A30MW 34MW 12AQ45 000000                                                                                                                                                                          
601AL027008C698000024749024   0DALLAS                  ALA   030609991A001A26FB 28MB 12AQ99 000000                                                                                                                                                                          
601AL027008C698000024749024   0DALLAS                  ALA   080609991A001A48FB 00MB 14AQ99 000000                                                                                                                                                                          
601AL027015 698000022744024   0SELMA                   ALA   010609991A001A63FB 37FB 40AQ99 000000                                                                                                                                                                          
601AL027015 698000022744024   0SELMA                   ALA   010609991A002A23FB 29MB 20GF45 000000                                                                                                                                                                          
601AL027015 698000022744024   0SELMA                   ALA   010609991A003A17MB 00MB 12AQ45 000000                                                                                                                                                                          
601AL029009B6980000401120265561ELMORE COUNTY           ALA   060609991A001A43MB 24MW 90FR99 000000                                                                                                                                                                          
601AL031009B6980000285690283031ETOWAH                  ALA   070609991A001B80FW 00UU 20UN99 000000                                                                                                                                                                          
601AL031009B6980000285690283031ETOWAH                  ALA   090609991A001A25MW 26MB 12AQ99 000000                                                                                                                                                                          
601AL031016 6980000070520283031ATTALLA                 ALA   040609991A001B00UU 00UU 90UN99 000000                                                                                                                                                                          
601AL031016 6980000070520283031ATTALLA                 ALA   040609991A002B00UU 00UU 90UN99 000000                                                                                                                                                                          
601AL031024 6980000422740283030GADSDEN                 ALA   010609991A001A53MB 55FB 12BF45 000000                                                                                                                                                                          
601AL031024 6980000422740283030GADSDEN                 ALA   030609991A001A35FW 45MW 12WI45 000000                                                                                                                                                                          
601AL033008C698000016099030   0FRANKLIN                ALA   050609991A001D00MW 46MW 12AQ45 00100045FW                                                                                                                                                                      
601AL035008D698000007681032   0GREENE                  ALA   030609991A001B56MW 00UU 12UN03 000000                                                                                                                                                                          
601AL035008D698000007681032   0GREENE                  ALA   050609991A001A18MB 00MB 12AQ46 000000                                                                                                                                                                          
601AL038009C6980000237330352271HOUSTON                 ALA   070609991A001A34FB 30MB 12CW45 000000                                                                                                                                                                          
601AL038013 6980000570540352270DOTHAN                  ALA   090609991A001B27FB 00UU 20UN99 000000                                                                                                                                                                          
601AL038013 6980000570540352270DOTHAN                  ALA   100609991A001A47MW 19MW 12AQ99 000000                                                                                                                                                                          
601AL038013 6980000570540352270DOTHAN                  ALA   100609991A002A29FW 25MW 90UN99 000000                                                                                                                                                                          
601AL039015 698000014261036   0SCOTTSBORO              ALA   120609991A001A26MB 27FB 12HU45 000000                                                                                                                                                                          
601AL039026 698000002963036   0BRIDGEPORT              ALA   020609991A001A45MW 44FW 12HU45 000000                                                                                                                                                                          
601AL041009B6980000431070392771LAUDERDALE              ALA   010609991A001B19MW 00UU 12UN99 000000                                                                                                                                                                          
601AL041009B6980000431070392771LAUDERDALE              ALA   030609991A001A48MW 00FW 12HU45 000000                                                                                                                                                                          
601AL041009B6980000431070392771LAUDERDALE              ALA   070609991A001A53MW 00MW 20IL99 000000                                                                                                                                                                          
601AL041014 6980000393790392770FLORENCE                ALA   010609991A001A18FW 29MB 40AQ99 000000                                                                                                                                                                          
601AL041014 6980000393790392770FLORENCE                ALA   040609991A001A26MW 26MW 14FR45 000000                                                                                                                                                                          
601AL041014 6980000393790392770FLORENCE                ALA   050609991A001A25FW 30MB 90UN99 000000                                                                                                                                                                          
601AL041014 6980000393790392770FLORENCE                ALA   070609991A001A72FB 42FB 20AQ99 000000                                                                                                                                                                          
601AL042009B6980000275200402101LAWRENCE                ALA   080609991A001B24MB 00UU 12UN45 000000                                                                                                                                                                          
601AL043008B698000035139041   0LEE                     ALA   110609991A001A42MW 43MW 12NE45 000000                                                                                                                                                                          
601AL043008B698000035139041   0LEE                     ALA   110609991A002A22MB 46MW 14AQ45 000000                                                                                                                                                                          
601AL043025 698000024980041   0OPELIKA                 ALA   010609991A001B00UU 00UU 90UN03 000000                                                                                                                                                                          
601AL043025 698000024980041   0OPELIKA                 ALA   010609991A002B00UU 00UU 90UN03 000000                                                                                                                                                                          
601AL043025 698000024980041   0OPELIKA                 ALA   070609991A001A26MB 23MB 12AQ99 000000                                                                                                                                                                          
601AL043025 698000024980041   0OPELIKA                 ALA   110609991A001B31MB 00UU 20UN99 000000                                                                                                                                                                          
601AL044009B6980000404880423681LIMESTONE               ALA   080609991A001A38MW 39FW 20XH45 000000                                                                                                                                                                          
601AL044015 6980000195110423681ATHENS                  ALA   030609991A001A68FW 78MW 12WI45 000000                                                                                                                                                                          
601AL045008C698000010914043   0LOWNDES                 ALA   110609991A001A28MB 27MB 12AQ99 000000                                                                                                                                                                          
601AL046008C698000010658044   0MACON                   ALA   090609991A001A29MB 30FB 12BF45 000000                                                                                                                                                                          
601AL047009B6980000716150453681MADISON                 ALA   010609991A001A33MB 33MB 20AQ45 000000                                                                                                                                                                          
601AL047009B6980000716150453681MADISON                 ALA   040609991A001B52MW 00UU 12UN99 000000                                                                                                                                                                          
601AL047009B6980000716150453681MADISON                 ALA   080609991A001A19MW 45MW 13AQ60 000000                                                                                                                                                                          
601AL047009B6980000716150453681MADISON                 ALA   090609991A001A22MB 21MB 12UN42 000000                                                                                                                                                                          
601AL047012 6980001731450453680HUNTSVILLE              ALA   010609991A001A00FW 59MW 20WI45 000000                                                                                                                                                                          
601AL047012 6980001731450453680HUNTSVILLE              ALA   030609991A001D00FW 17MW 20MO45 00100000MW                                                                                                                                                                      
601AL047012 6980001731450453680HUNTSVILLE              ALA   030609991A002A00MB 51MB 12AQ99 000000                                                                                                                                                                          
601AL047012 6980001731450453680HUNTSVILLE              ALA   050609991A001A00FB 17MB 12UN45 000000                                                                                                                                                                          
601AL047012 6980001731450453680HUNTSVILLE              ALA   050609991A002A00MW 23MW 90UN44 000000                                                                                                                                                                          
601AL047012 6980001731450453680HUNTSVILLE              ALA   080609991A001A00FB 17MB 12UN99 000000                                                                                                                                                                          
601AL047012 6980001731450453680HUNTSVILLE              ALA   080609991A002A00MB 19MB 12UN26 000000                                                                                                                                                                          
601AL047012 6980001731450453680HUNTSVILLE              ALA   090609991A001B00MB 00UU 12UN99 000000                                                                                                                                                                          
601AL047012 6980001731450453680HUNTSVILLE              ALA   100609991A001A00MB 00FB 20BF45 000000                                                                                                                                                                          
601AL047012 6980001731450453680HUNTSVILLE              ALA   100609991A002A00MB 46MB 20UN99 000000                                                                                                                                                                          
601AL049016 698000006252047   0HAMILTON                ALA   020609991A001A34MW 65MW 12IL45 000000                                                                                                                                                                          
601AL050026 698000007956048   0GUNTERSVILLE            ALA   010609991A001A47FW 00MW 12WI99 000000                                                                                                                                                                          
601AL051008C698000017217050   0MONROE                  ALA   120609991A001A19MB 00FB 20BF45 000000                                                                                                                                                                          
601AL051016 698000007154050   0MONROEVILLE             ALA   030609991A001A25MB 21FB 20BF99 000000                                                                                                                                                                          
601AL052009B6980000372680522101MORGAN                  ALA   040609991A001A15MW 30MW 14IL45 000000                                                                                                                                                                          
601AL052009B6980000372680522101MORGAN                  ALA   050609991A001B52MW 00UU 12UN99 000000                                                                                                                                                                          
601AL052013 6980000546390522100DECATUR                 ALA   010609991A001A19FW 25MW 12WI02 000000                                                                                                                                                                          
601AL052013 6980000546390522100DECATUR                 ALA   010609991A002A34FW 35MW 40GF05 000000                                                                                                                                                                          
601AL052013 6980000546390522100DECATUR                 ALA   100609991A001A16MB 00MB 90AQ99 000000                                                                                                                                                                          
601AL052013 6980000546390522100DECATUR                 ALA   120609991A001A23MB 24MB 12AQ99 000000                                                                                                                                                                          
601AL052025 6980000121890522101HARTSELLE               ALA   020609991A001A18FW 48MW 12DA60 000000                                                                                                                                                                          
601AL052025 6980000121890522101HARTSELLE               ALA   020609991A002A67FW 63MW 12XW45 000000                                                                                                                                                                          
601AL054008C698000014006054   0PICKENS COUNTY          ALA   050609991A001A70MB 00FB 12AQ45 000000                                                                                                                                                                          
601AL055015 698000013704055   0TROY                    ALA   030609991A001A41FB 32FB 12AQ45 000000                                                                                                                                                                          
601AL056008C698000012437056   0RANDOLPH                ALA   040609991A001A57MW 19MW 20OF44 000000                                                                                                                                                                          
601AL057014 6980000277220571841PHENIX CITY             ALA   010609991A001A41MW 39MW 20AQ18 000000                                                                                                                                                                          
601AL057014 6980000277220571841PHENIX CITY             ALA   040609991A001A26MB 16MB 12AQ99 000000                                                                                                                                                                          
601AL057014 6980000277220571841PHENIX CITY             ALA   090609991A001A35MB 63MB 13FR45 000000                                                                                                                                                                          
601AL057014 6980000277220571841PHENIX CITY             ALA   120609991A001B79MW 00UU 12UN03 000000                                                                                                                                                                          
601AL058009B6980000385680580981ST CLAIR                ALA   090609991A001A27FB 29MB 12GF45 000000                                                                                                                                                                          
601AL058066 6980000064840580981MOODY                   ALA   060609991A001B29MW 00UU 12UN49 000000                                                                                                                                                                          
601AL058066 6980000064840580981MOODY                   ALA   100609991A001D60FW 41MW 12IL99 00100063MW                                                                                                                                                                      
601AL059009B6980000814490590981SHELBY                  ALA   110609991A001A20MW 24MW 12AQ45 000000                                                                                                                                                                          
601AL059065 6980000137370590981PELHAM                  ALA   010609991A001A37MW 36MW 20AQ99 000000                                                                                                                                                                          
601AL060026 698000003616060   0LIVINGSTON              ALA   070609991A001A51MB 46FB 90BF45 000000                                                                                                                                                                          
601AL061025 698000018432061   0TALLADEGA               ALA   080609991A001B20MB 00UU 12UN45 000000                                                                                                                                                                          
601AL061036 698000005045061   0CHILDERSBURG            ALA   070609991A001B71MB 00UU 12UN99 000000                                                                                                                                                                          
601AL061036 698000005045061   0CHILDERSBURG            ALA   080609991A001B33MB 00UU 12UN99 000000                                                                                                                                                                          
601AL061046 698000003520061   0LINCOLN                 ALA   100609991A001A21FB 28MB 13GF45 000000                                                                                                                                                                          
601AL063009B6980000572670639151TUSCALOOSA              ALA   070609991A001A23MW 00MB 12UN60 000000                                                                                                                                                                          
601AL063009B6980000572670639151TUSCALOOSA              ALA   090609991A001A38MB 36MB 20AQ99 000000                                                                                                                                                                          
601AL063009B6980000572670639151TUSCALOOSA              ALA   100609991A001A22MW 20MW 20FR45 000000                                                                                                                                                                          
601AL063013 6980000839950639150TUSCALOOSA              ALA   020609991A001A25MB 18MB 12AQ45 000000                                                                                                                                                                          
601AL063013 6980000839950639150TUSCALOOSA              ALA   030609991A001B27MB 00UU 12UN99 000000                                                                                                                                                                          
601AL063013 6980000839950639150TUSCALOOSA              ALA   050609991A001A18MB 21MB 12ST99 000000                                                                                                                                                                          
601AL063013 6980000839950639150TUSCALOOSA              ALA   060609991A001B38MB 00UU 12UN99 000000                                                                                                                                                                          
601AL063013 6980000839950639150TUSCALOOSA              ALA   060609991A002A19MB 23MB 12ST99 000000                                                                                                                                                                          
601AL063013 6980000839950639150TUSCALOOSA              ALA   080609991A001A40FB 30MW 90ST99 000000                                                                                                                                                                          
601AL063013 6980000839950639150TUSCALOOSA              ALA   080609991A002A47MB 25MB 90ST03 000000                                                                                                                                                                          
601AL063013 6980000839950639150TUSCALOOSA              ALA   090609991A001A17MW 22MB 20AQ45 000000                                                                                                                                                                          
601AL064015 698000014148064   0JASPER                  ALA   040609991A001B39MW 00UU 12UN99 000000                                                                                                                                                                          
601AL066008C698000011280066   0WILCOX                  ALA   060609991A001A08MB 10MB 13AQ99 000000                                                                                                                                                                          
602AZ002016 898000004346002   0BENSON                  ARIZ  081223980A001A37MWN37MWN12AQ45 000000                                                                                                                                                                          
602AZ002016 898000004346002   0BENSON                  ARIZ  100315990A001A48MWN30MWN40ST81A000000                                                                                                                                                                          
602AZ002094 898000038958002   0SIERRA VISTA            ARIZ  031006980A001A24MWN44MWH12AQ40 000000                                                                                                                                                                          
602AZ002094 898000038958002   0SIERRA VISTA            ARIZ  040910980A001A46MWH15MWH12SF45 000000                                                                                                                                                                          
602AZ002094 898000038958002   0SIERRA VISTA            ARIZ  071204980A001A18MBN25MWH12AQ42 000000                                                                                                                                                                          
602AZ003009B8980000471150032751COCONINO                ARIZ  010331990A001C21MWN20MWN14AQ03 000001                                                  22MWN14AQ03                                                                                                             
602AZ003009B8980000471150032751COCONINO                ARIZ  030331990A001A28MWN47MWN14IL45 000000                                                                                                                                                                          
602AZ003009B8980000471150032751COCONINO                ARIZ  050331990A001B26FIN00UUU12UN02 000000                                                                                                                                                                          
602AZ003009B8980000471150032751COCONINO                ARIZ  050331990B002A05MWN25FWN40SO59 000000                                                                                                                                                                          
602AZ003009B8980000471150032751COCONINO                ARIZ  100331990A001A46MWN45MWN20AQ44 000000                                                                                                                                                                          
602AZ003013 8980000573070032750FLAGSTAFF               ARIZ  061102980A001A61MWN42MWN30ST60 000000                                                                                                                                                                          
602AZ003013 8980000573070032750FLAGSTAFF               ARIZ  081223980A001A44FWN51MWN12WI45 000000                                                                                                                                                                          
602AZ003013 8980000573070032750FLAGSTAFF               ARIZ  120408990A001ABBMWH26FWH40SO60 000000                                                                                                                                                                          
602AZ003086 8980000079600032751PAGE                    ARIZ  010804980A001A40MIN24MIN40AQ42 000000                                                                                                                                                                          
602AZ004016 898000006998004   0GLOBE                   ARIZ  010804980A001A42MWH29MWN12AQ45 000000                                                                                                                                                                          
602AZ005056 898000004582005   0THATCHER                ARIZ  120408990A001A57FWH51MWH14WI45 000000                                                                                                                                                                          
602AZ006008D898000005466006   0GREENLEE                ARIZ  120408990A001A49MWH59MWH12FR42 000000                                                                                                                                                                          
602AZ007009A8980002321840076621MARICOPA                ARIZ  030911981A001B34MW 00UU 12UN99 000000                                                                                                                                                                          
602AZ007009A8980002321840076621MARICOPA                ARIZ  040910980A001C23FWH27MWH12AQ45 000003                                                  21MWH12AQ45 23FWH12AQ45 21FWH12AQ45                                                                                     
602AZ007009A8980002321840076621MARICOPA                ARIZ  040910980A002F20FWN00UUU12UN99 00200025MWN26MWN                                                                                                                                                                
602AZ007009A8980002321840076621MARICOPA                ARIZ  051006980A001B42MWH00UUU80UN99 000000                                                                                                                                                                          
602AZ007009A8980002321840076621MARICOPA                ARIZ  051006980A002C17MWH17MIN12ST47 000002                                                  21MIN12ST47 20MIN12ST47                                                                                                 
602AZ007009A8980002321840076621MARICOPA                ARIZ  061102980A001B34MWH00UUU12UN99 000000                                                                                                                                                                          
602AZ007009A8980002321840076621MARICOPA                ARIZ  061102980A002B50FWN00UUU90UN99 000000                                                                                                                                                                          
602AZ007009A8980002321840076621MARICOPA                ARIZ  061102980A003A38MWH25MBN20AQ60 000000                                                                                                                                                                          
602AZ007009A8980002321840076621MARICOPA                ARIZ  071230981A001C41MW 00MW 14ST03 000001                                                  00MW 14ST03                                                                                                             
602AZ007009A8980002321840076621MARICOPA                ARIZ  071204980A002B23MBN00UUU12UN99 000000                                                                                                                                                                          
602AZ007009A8980002321840076621MARICOPA                ARIZ  071204980B003A13MIN15MIN14FR52 000000                                                                                                                                                                          
602AZ007009A8980002321840076621MARICOPA                ARIZ  081223980A001B43FWN00UUU90UN99 000000                                                                                                                                                                          
602AZ007009A8980002321840076621MARICOPA                ARIZ  090216990A001C27MWN21MWN12FR18 000001                                                  20FWN12FR18                                                                                                             
602AZ007009A8980002321840076621MARICOPA                ARIZ  100315990A001A26MWH32MBN40ST45 000000                                                                                                                                                                          
602AZ007009A8980002321840076621MARICOPA                ARIZ  100315990A002C38MWN32FWN12FR44 000001                                                  37MWN12FR44                                                                                                             
602AZ007009A8980002321840076621MARICOPA                ARIZ  110331990A001F10FWN00UUU90UN99 00100029FWN                                                                                                                                                                     
602AZ007009A8980002321840076621MARICOPA                ARIZ  110331990A002B30FWN00UUU12UN99 000000                                                                                                                                                                          
