601AL001014 6990000309680370981BESSEMER                ALA   010428001A001B19FB 00UU 12UN42 000000                                                                                                                                                                          
601AL001014 6990000309680370981BESSEMER                ALA   020428001A001A78FW 79MW 12WI60 000000                                                                                                                                                                          
601AL001014 6990000309680370981BESSEMER                ALA   020428001A002B37MB 00UU 11UN99 000000                                                                                                                                                                          
601AL001014 6990000309680370981BESSEMER                ALA   030428001A001C01FW 22FW 30DA60 000001                                                  27MW 30OK60                                                                                                             
601AL001014 6990000309680370981BESSEMER                ALA   060428001A001D22MB 39MB 12AQ18 00100027MB                                                                                                                                                                      
601AL001014 6990000309680370981BESSEMER                ALA   070428001A001A28MB 27FB 12CH45 000000                                                                                                                                                                          
601AL001014 6990000309680370981BESSEMER                ALA   070428001A002A34MB 29MB 12AQ40 000000                                                                                                                                                                          
601AL001014 6990000309680370981BESSEMER                ALA   070428001A003B32MB 00UU 12UN18 000000                                                                                                                                                                          
601AL001014 6990000309680370981BESSEMER                ALA   120428001A001B19MB 00UU 12UN99 000000                                                                                                                                                                          
601AL002009B6990000897170495471MOBILE                  ALA   010428001A001B22MB 00UU 12UN06 000000                                                                                                                                                                          
601AL002009B6990000897170495471MOBILE                  ALA   070428001A001C00MW 68MW 14FR44 000001                                                  21MW 14FR44                                                                                                             
601AL002009B6990000897170495471MOBILE                  ALA   070428001A002A69MW 41MW 12AQ45 000000                                                                                                                                                                          
601AL002009B6990000897170495471MOBILE                  ALA   080428001A001A26MW 24FW 12HU60 000000                                                                                                                                                                          
601AL002009B6990000897170495471MOBILE                  ALA   110428001A001A68MW 47MW 20FR45 000000                                                                                                                                                                          
602AZ002008B899000042609002   0COCHISE                 ARIZ  030923990A001A50MWN45MWN65FR09 000000                                                                                                                                                                          
602AZ002008B899000042609002   0COCHISE                 ARIZ  030923990A002A47MWN53FWN20AQ60 000000                                                                                                                                                                          
602AZ002008B899000042609002   0COCHISE                 ARIZ  071210990A001A81MWN69MWN14AQ60 000000                                                                                                                                                                          
602AZ003009B8990000466770032751COCONINO                ARIZ  100329000A001F44MWN00UUU12UN99 00200045MWN46FWN                                                                                                                                                                
602AZ003009B8990000466770032751COCONINO                ARIZ  100329000A002A02FWN38FWN12DA60 000000                                                                                                                                                                          
602AZ003013 8990000579880032750FLAGSTAFF               ARIZ  100310000A001A29MWN27MWN12AQ45 000000                                                                                                                                                                          
602AZ005036 899000009471005   0SAFFORD                 ARIZ  041210990A001A78MWH39FWH12SF60 000000                                                                                                                                                                          
602AZ007009A8990002422300076621MARICOPA                ARIZ  010813990A001A32FWN25MBN12FR60 000000                                                                                                                                                                          
602AZ007009A8990002422300076621MARICOPA                ARIZ  020923990A001A34MWH18MWH20FR99 000000                                                                                                                                                                          
602AZ007009A8990002422300076621MARICOPA                ARIZ  020923990A002A37MWN24MWH12AQ60 000000                                                                                                                                                                          
602AZ007009A8990002422300076621MARICOPA                ARIZ  020923990A003A27FIN38MIN12WI45 000000                                                                                                                                                                          
602AZ007009A8990002422300076621MARICOPA                ARIZ  020923990A004A30MIN36MWH12FR60 000000                                                                                                                                                                          
602AZ007009A8990002422300076621MARICOPA                ARIZ  030923990A001B19MWH00UUU90UN99 000000                                                                                                                                                                          
602AZ007009A8990002422300076621MARICOPA                ARIZ  061202990A001A20MWH21MWN12ST80E000000                                                                                                                                                                          
602AZ007009A8990002422300076621MARICOPA                ARIZ  071210990A001C68FWN20MWN30ST03 000001                                                  23FWN30ST03                                                                                                             
602AZ007009A8990002422300076621MARICOPA                ARIZ  071210990A002A70MWN34MWN12FA45 000000                                                                                                                                                                          
602AZ007009A8990002422300076621MARICOPA                ARIZ  090225000A001A72FWN32MWN30ST06 000000                                                                                                                                                                          
602AZ007009A8990002422300076621MARICOPA                ARIZ  090225000A002B22FWN00UUU12UN99 000000                                                                                                                                                                          
602AZ007009A8990002422300076621MARICOPA                ARIZ  090225000A003C45MWN16MWH20NE60 000001                                                  45MWN20NE60                                                                                                             
602AZ007009A8990002422300076621MARICOPA                ARIZ  100310000A001B20MWN00UUU12UN99 000000                                                                                                                                                                          
602AZ007009A8990002422300076621MARICOPA                ARIZ  120407000A001A02FWN24MWN65DA60 000000                                                                                                                                                                          
602AZ007009A8990002422300076621MARICOPA                ARIZ  120407000A002B24MWN00UUU90UN99 000000                                                                                                                                                                          
602AZ007009A8990002422300076621MARICOPA                ARIZ  120407000A003D25MWN19MWH12ST45 00100026FWN                                                                                                                                                                     
602AZ007014 8990000282280076621AVONDALE                ARIZ  061202990A001A32MWH18MWH14ST60 000000                                                                                                                                                                          
602AZ007036 8990000053060076621BUCKEYE                 ARIZ  120407000A001A48FWN51MWN12GF60 000000                                                                                                                                                                          
602AZ007052 8990001640960076620CHANDLER                ARIZ  041006991A001E26MW 38MW 13ST81A00100138MW                                              26MW 13ST60                                                                                                             
602AZ007052 8990001640960076620CHANDLER                ARIZ  061202990A001A83MBN25MWH12ST03 000000                                                                                                                                                                          
602AZ007052 8990001640960076620CHANDLER                ARIZ  071210990A001A26FIN28MIN20GF45 000000                                                                                                                                                                          
602AZ007052 8990001640960076620CHANDLER                ARIZ  090225000A001A38MWN16MWH12ST03 000000                                                                                                                                                                          
602AZ007052 8990001640960076620CHANDLER                ARIZ  100310000A001A40FWN33MWN12WI45 000000                                                                                                                                                                          
602AZ007052 8990001640960076620CHANDLER                ARIZ  120407000A001A36FWN31MBN30AQ45 000000                                                                                                                                                                          
602AZ007076 8990000060800076621EL MIRAGE               ARIZ  010904990A001B34MWH00UUU20UN99 000000                                                                                                                                                                          
602AZ007076 8990000060800076621EL MIRAGE               ARIZ  041002990A001A29MWH34MWH14AQ60 000000                                                                                                                                                                          
602AZ007076 8990000060800076621EL MIRAGE               ARIZ  061202990A001A48MWH49MWH20AQ42 000000                                                                                                                                                                          
602AZ007113 8990000909280076620GILBERT                 ARIZ  050201000A001C09FAN30FAN30DA60 000001                                                  42MAN30DA60                                                                                                             
602AZ007132 8990001980280076620GLENDALE                ARIZ  011210990A001B39FWN00UUU20UN99 000000                                                                                                                                                                          
602AZ007132 8990001980280076620GLENDALE                ARIZ  020904990A001A43MWH25MWH12ST45 000000                                                                                                                                                                          
602AZ007132 8990001980280076620GLENDALE                ARIZ  020904990A002A17MAN17MAN20ST45 000000                                                                                                                                                                          
602AZ007132 8990001980280076620GLENDALE                ARIZ  031006991A001E21FW 15MW 12ST03 00100124MW                                              20MW 12ST03                                                                                                             
602AZ007132 8990001980280076620GLENDALE                ARIZ  051015990A001A40FWN64MWN12WI60 000000                                                                                                                                                                          
602AZ007132 8990001980280076620GLENDALE                ARIZ  051015990A002A48FWN28MWN20AQ03 000000                                                                                                                                                                          
602AZ007132 8990001980280076620GLENDALE                ARIZ  061202990A001A22MWH16MWH12ST60 000000                                                                                                                                                                          
602AZ007132 8990001980280076620GLENDALE                ARIZ  071210990A001B39FBN00UUU12UN99 000000                                                                                                                                                                          
602AZ007132 8990001980280076620GLENDALE                ARIZ  100310000A001A82FWN83MWN12WI60 000000                                                                                                                                                                          
602AZ007132 8990001980280076620GLENDALE                ARIZ  100310000A002A45FBN50MBN12WI45 000000                                                                                                                                                                          
602AZ007132 8990001980280076620GLENDALE                ARIZ  100310000A003A45MWH24MWH20ST06 000000                                                                                                                                                                          
602AZ007132 8990001980280076620GLENDALE                ARIZ  110329000A001B24MWH00UUU12UN99 000000                                                                                                                                                                          
602AZ007132 8990001980280076620GLENDALE                ARIZ  110329000A002B31MWH00UUU40UN99 000000                                                                                                                                                                          
602AZ007132 8990001980280076620GLENDALE                ARIZ  110329000A003B50MWN00UUU12UN99 000000                                                                                                                                                                          
602AZ007132 8990001980280076620GLENDALE                ARIZ  120407000A001C40FWH18MWH14ST03 000001                                                  15MBN14ST03                                                                                                             
602AZ007155 8990000156210076621GOODYEAR                ARIZ  061210990B001A00MWH15MWH12AQ53 000000                                                                                                                                                                          
602AZ007155 8990000156210076621GOODYEAR                ARIZ  120407000B001A34MWH21MWH12AQ53 000000                                                                                                                                                                          
602AZ007171C8990003685370076620MESA                    ARIZ  020904990A001A35MBN26MWN12ST80E000000                                                                                                                                                                          
602AZ007171C8990003685370076620MESA                    ARIZ  020904990B002A18FWH20MBN12AQ53 000000                                                                                                                                                                          
602AZ007171C8990003685370076620MESA                    ARIZ  030923990A001ANBFWN20MWN40DA60 000000                                                                                                                                                                          
602AZ007171C8990003685370076620MESA                    ARIZ  030923990A002A31MWN27MWN12ST81A000000                                                                                                                                                                          
602AZ007171C8990003685370076620MESA                    ARIZ  061202990A001A32MWH23MWH12AQ42 000000                                                                                                                                                                          
602AZ007171C8990003685370076620MESA                    ARIZ  071210990A001A30MWH18MWH12AQ45 000000                                                                                                                                                                          
602AZ007171C8990003685370076620MESA                    ARIZ  071210990A002B00MWH00UUU14UN99 000000                                                                                                                                                                          
602AZ007171C8990003685370076620MESA                    ARIZ  071210990A003A35FWN47MWN20WI45 000000                                                                                                                                                                          
602AZ007171C8990003685370076620MESA                    ARIZ  100310000A001B46FWN00UUU90UN99 000000                                                                                                                                                                          
602AZ007171C8990003685370076620MESA                    ARIZ  100310000A002A20MWH37MBN20AQ45 000000                                                                                                                                                                          
602AZ007171C8990003685370076620MESA                    ARIZ  100310000A003C33FWN20FWH40AQ60 000002                                                  29FWN40AQ60 37MBN40AQ60                                                                                                 
602AZ007171C8990003685370076620MESA                    ARIZ  120407000A001A32FWH39MWH20WI45 000000                                                                                                                                                                          
602AZ007213 8990000890930076620PEORIA                  ARIZ  010813990A001A39MWN17MWN12SF45 000000                                                                                                                                                                          
602AZ007213 8990000890930076620PEORIA                  ARIZ  041210990A001A17MWN50MWN12SO60 000000                                                                                                                                                                          
602AZ007213 8990000890930076620PEORIA                  ARIZ  051210990A001A24MWN27MWN12AQ45 000000                                                                                                                                                                          
602AZ007213 8990000890930076620PEORIA                  ARIZ  050329000A002A35FWN18MWH20AQ60 000000                                                                                                                                                                          
602AZ007213 8990000890930076620PEORIA                  ARIZ  110329000A001A37MWN35MWN12ST60 000000                                                                                                                                                                          
602AZ007213 8990000890930076620PEORIA                  ARIZ  110329000A002A35MWH21MWH20FR45 000000                                                                                                                                                                          
602AZ007231A8990012258810076620PHOENIX                 ARIZ  010813990A001A43MWN59MBN20AQ45 000000                                                                                                                                                                          
602AZ007231A8990012258810076620PHOENIX                 ARIZ  010813990A002A60FWN22MWN20MO99 000000                                                                                                                                                                          
602AZ007231A8990012258810076620PHOENIX                 ARIZ  010813990A003B38MIN00UUU20UN99 000000                                                                                                                                                                          
602AZ007231A8990012258810076620PHOENIX                 ARIZ  010813990A004B28MWH00UUU12UN99 000000                                                                                                                                                                          
602AZ007231A8990012258810076620PHOENIX                 ARIZ  010813990A005A50MWH00MWH12ST45 000000                                                                                                                                                                          
602AZ007231A8990012258810076620PHOENIX                 ARIZ  010813990A006A27MWN00MWN12ST99 000000                                                                                                                                                                          
602AZ007231A8990012258810076620PHOENIX                 ARIZ  010813990A007B26MWH00UUU14UN18 000000                                                                                                                                                                          
602AZ007231A8990012258810076620PHOENIX                 ARIZ  010813990A008B17MWH00UUU20UN18 000000                                                                                                                                                                          
602AZ007231A8990012258810076620PHOENIX                 ARIZ  010813990A009B18MWH00UUU12UN42 000000                                                                                                                                                                          
602AZ007231A8990012258810076620PHOENIX                 ARIZ  010813990A010A22MWH00MWH30ST60 000000                                                                                                                                                                          
602AZ007231A8990012258810076620PHOENIX                 ARIZ  010818991A011B30MW 00UU 12UN18 000000                                                                                                                                                                          
602AZ007231A8990012258810076620PHOENIX                 ARIZ  010813990A012A45MWH00MWH12ST03 000000                                                                                                                                                                          
602AZ007231A8990012258810076620PHOENIX                 ARIZ  010505001A013D11FW 06MW 65SI09 00100035FW                                                                                                                                                                      
602AZ007231A8990012258810076620PHOENIX                 ARIZ  010813990A014A21MWH16MWH14AQ80E000000                                                                                                                                                                          
602AZ007231A8990012258810076620PHOENIX                 ARIZ  010813990A015A28MWN29MWN12ST81A000000                                                                                                                                                                          
602AZ007231A8990012258810076620PHOENIX                 ARIZ  010813990B016A33FWN72MWN30OK59 000000                                                                                                                                                                          
602AZ007231A8990012258810076620PHOENIX                 ARIZ  020923990A001B31FIN00UUU20UN99 000000                                                                                                                                                                          
602AZ007231A8990012258810076620PHOENIX                 ARIZ  020923990A002A31MWN25MWN40AQ42 000000                                                                                                                                                                          
602AZ007231A8990012258810076620PHOENIX                 ARIZ  020923990A003F19FBN00UUU13UN99 00300021MBN23MBN24MBN                                                                                                                                                           
602AZ007231A8990012258810076620PHOENIX                 ARIZ  020923990A004A24MWH00MWH13ST99 000000                                                                                                                                                                          
602AZ007231A8990012258810076620PHOENIX                 ARIZ  020923990A005B21MWH00UUU12UN99 000000                                                                                                                                                                          
602AZ007231A8990012258810076620PHOENIX                 ARIZ  020923990A006A19MBN18MBN12AQ99 000000                                                                                                                                                                          
602AZ007231A8990012258810076620PHOENIX                 ARIZ  020923990A007B17MWH00UUU12UN70 000000                                                                                                                                                                          
602AZ007231A8990012258810076620PHOENIX                 ARIZ  020923990A008A28MWH00MBN12ST99 000000                                                                                                                                                                          
602AZ007231A8990012258810076620PHOENIX                 ARIZ  020923990A009B30MWH00UUU12UN45 000001                                                  00UUU12UN45                                                                                                             
602AZ007231A8990012258810076620PHOENIX                 ARIZ  020923990A010A43FWN38MWN12WI45 000000                                                                                                                                                                          
602AZ007231A8990012258810076620PHOENIX                 ARIZ  020923990A011A20MWH00MWH12ST99 000000                                                                                                                                                                          
602AZ007231A8990012258810076620PHOENIX                 ARIZ  020923990A012B30MWN00UUU14UN70 000000                                                                                                                                                                          
602AZ007231A8990012258810076620PHOENIX                 ARIZ  020923990A013C39MWH00MWH12ST45 000001                                                  00MWH12ST45                                                                                                             
602AZ007231A8990012258810076620PHOENIX                 ARIZ  020923990A014A27MBN00MBN12ST18 000000                                                                                                                                                                          
602AZ007231A8990012258810076620PHOENIX                 ARIZ  020923990A015B29MWH00UUU11UN99 000000                                                                                                                                                                          
602AZ007231A8990012258810076620PHOENIX                 ARIZ  020923990A016A26MWH00MWH14ST60 000000                                                                                                                                                                          
602AZ007231A8990012258810076620PHOENIX                 ARIZ  021006991A017C25MW 29MW 12ST81B000003                                                  26MW 12ST81B30MW 12ST81B45MW 12ST81B                                                                                    
602AZ007231A8990012258810076620PHOENIX                 ARIZ  020923990A018A47MWH26MWN12AQ80C000000                                                                                                                                                                          
602AZ007231A8990012258810076620PHOENIX                 ARIZ  030923990A001A23MBN24MBN12AQ99 000000                                                                                                                                                                          
602AZ007231A8990012258810076620PHOENIX                 ARIZ  030923990A002B21FBN00UUU12UN99 000000                                                                                                                                                                          
602AZ007231A8990012258810076620PHOENIX                 ARIZ  030923990A003A31MWH23MWH12FR18 000000                                                                                                                                                                          
602AZ007231A8990012258810076620PHOENIX                 ARIZ  030923990A004A82MWN48MWN12FA99 000000                                                                                                                                                                          
602AZ007231A8990012258810076620PHOENIX                 ARIZ  030923990A005B28MWH00UUU12UN99 000000                                                                                                                                                                          
602AZ007231A8990012258810076620PHOENIX                 ARIZ  030923990A006A20MWH00MWH12AQ42 000000                                                                                                                                                                          
602AZ007231A8990012258810076620PHOENIX                 ARIZ  030923990A007D37FWN16MWH14AQ03 00100062MWN                                                                                                                                                                     
602AZ007231A8990012258810076620PHOENIX                 ARIZ  030923990A008C28MWH00MWH12ST99 000001                                                  00MWH12ST99                                                                                                             
602AZ007231A8990012258810076620PHOENIX                 ARIZ  030923990A009A25MWH00MWH12AQ18 000000                                                                                                                                                                          
602AZ007231A8990012258810076620PHOENIX                 ARIZ  030923990A010B62MWH00UUU20UN03 000000                                                                                                                                                                          
602AZ007231A8990012258810076620PHOENIX                 ARIZ  030923990A011B26MWH00UUU12UN99 000000                                                                                                                                                                          
602AZ007231A8990012258810076620PHOENIX                 ARIZ  030923990A012A37MWN19MBN12ST45 000000                                                                                                                                                                          
602AZ007231A8990012258810076620PHOENIX                 ARIZ  030923990A013A16MWH00MWH12ST99 000000                                                                                                                                                                          
602AZ007231A8990012258810076620PHOENIX                 ARIZ  030923990A014A21MWH22MWH12FR03 000000                                                                                                                                                                          
602AZ007231A8990012258810076620PHOENIX                 ARIZ  030923990A015A28MWN17MWH12ST60 000000                                                                                                                                                                          
602AZ007231A8990012258810076620PHOENIX                 ARIZ  030923990A016B22MWH00UUU12UN99 000000                                                                                                                                                                          
602AZ007231A8990012258810076620PHOENIX                 ARIZ  030923990A017B03MWH00UUU40UN60 000000                                                                                                                                                                          
602AZ007231A8990012258810076620PHOENIX                 ARIZ  041002990A001A25MWH33MWH12ST03 000000                                                                                                                                                                          
602AZ007231A8990012258810076620PHOENIX                 ARIZ  041002990A002D33FWN36MWN12GF60 00200034MWH37MWN                                                                                                                                                                
602AZ007231A8990012258810076620PHOENIX                 ARIZ  041002990A003A46MWN00MWH20ST03 000000                                                                                                                                                                          
602AZ007231A8990012258810076620PHOENIX                 ARIZ  041002990A004B26MWH00UUU12UN99 000000                                                                                                                                                                          
602AZ007231A8990012258810076620PHOENIX                 ARIZ  041002990A005D03MWH31MWH12SO60 00100007MWH                                                                                                                                                                     
602AZ007231A8990012258810076620PHOENIX                 ARIZ  041002990A006A57FWN20MBN12ST60 000000                                                                                                                                                                          
602AZ007231A8990012258810076620PHOENIX                 ARIZ  041002990A007A33MWH00MWH12ST99 000000                                                                                                                                                                          
602AZ007231A8990012258810076620PHOENIX                 ARIZ  041002990A008A31FWH28MWH12GF45 000000                                                                                                                                                                          
602AZ007231A8990012258810076620PHOENIX                 ARIZ  041002990A009A31MWH00MWH12ST45 000000                                                                                                                                                                          
602AZ007231A8990012258810076620PHOENIX                 ARIZ  041002990A010A41MBN00MWH12ST45 000000                                                                                                                                                                          
602AZ007231A8990012258810076620PHOENIX                 ARIZ  041002990A011B36FWN00UUU12UN99 000000                                                                                                                                                                          
602AZ007231A8990012258810076620PHOENIX                 ARIZ  041002990A012A19MWH00MWH12AQ44 000000                                                                                                                                                                          
602AZ007231A8990012258810076620PHOENIX                 ARIZ  041002990A013C20MWH00MWH12ST99 000001                                                  00MWH12ST99                                                                                                             
602AZ007231A8990012258810076620PHOENIX                 ARIZ  041002990A014A30FBN27MWH12UN99 000000                                                                                                                                                                          
602AZ007231A8990012258810076620PHOENIX                 ARIZ  041002990A015A41MWN17MBN12ST03 000000                                                                                                                                                                          
602AZ007231A8990012258810076620PHOENIX                 ARIZ  041002990A016C44MWH00MWH12ST99 000001                                                  00MWH12ST99                                                                                                             
602AZ007231A8990012258810076620PHOENIX                 ARIZ  041002990A017C46MWN00MWN80UN03 000002                                                  00MWN80UN03 00MWN80UN03                                                                                                 
602AZ007231A8990012258810076620PHOENIX                 ARIZ  041002990A018A41MWH61MWN12AQ80C000000                                                                                                                                                                          
602AZ007231A8990012258810076620PHOENIX                 ARIZ  041002990A019A00MWH29MWH13ST80C000000                                                                                                                                                                          
602AZ007231A8990012258810076620PHOENIX                 ARIZ  051015990A001A35MBN27MBN12AQ45 000000                                                                                                                                                                          
602AZ007231A8990012258810076620PHOENIX                 ARIZ  051015990A002A32MWH36MWH80AQ60 000000                                                                                                                                                                          
602AZ007231A8990012258810076620PHOENIX                 ARIZ  051015990A003F25MWH00UUU12UN99 00100042FWH                                                                                                                                                                     
602AZ007231A8990012258810076620PHOENIX                 ARIZ  051015990A004B29MWN00UUU85UN99 000000                                                                                                                                                                          
602AZ007231A8990012258810076620PHOENIX                 ARIZ  051015990A005B30MWH00UUU12UN99 000000                                                                                                                                                                          
602AZ007231A8990012258810076620PHOENIX                 ARIZ  051015990A006C36MWH00MWH14ST99 000001                                                  00MWH14ST99                                                                                                             
602AZ007231A8990012258810076620PHOENIX                 ARIZ  051015990A007B17MBN00UUU12UN03 000000                                                                                                                                                                          
602AZ007231A8990012258810076620PHOENIX                 ARIZ  051015990A008F27MWH00UUU12UN99 00100028FWH                                                                                                                                                                     
602AZ007231A8990012258810076620PHOENIX                 ARIZ  051015990A009A28FWH44MBN12XW45 000000                                                                                                                                                                          
602AZ007231A8990012258810076620PHOENIX                 ARIZ  051015990A010C44MWN44MWN20FR03 000001                                                  45MWN20FR03                                                                                                             
602AZ007231A8990012258810076620PHOENIX                 ARIZ  051015990A011A26MWH31MWH12AQ42 000000                                                                                                                                                                          
602AZ007231A8990012258810076620PHOENIX                 ARIZ  051015990A012A48MWN40MWN20FR45 000000                                                                                                                                                                          
602AZ007231A8990012258810076620PHOENIX                 ARIZ  051015990A013A17FWH21MWH12AQ60 000000                                                                                                                                                                          
602AZ007231A8990012258810076620PHOENIX                 ARIZ  051015990A014A33MIN34MWN13AQ80C000000                                                                                                                                                                          
602AZ007231A8990012258810076620PHOENIX                 ARIZ  061202990A001A25MWH00MWH13ST45 000000                                                                                                                                                                          
602AZ007231A8990012258810076620PHOENIX                 ARIZ  061210991A002E22FB 00MB 12ST99 00100120MB                                              00MB 12ST99                                                                                                             
602AZ007231A8990012258810076620PHOENIX                 ARIZ  061202990A003A29MBN28MBN30AQ42 000000                                                                                                                                                                          
602AZ007231A8990012258810076620PHOENIX                 ARIZ  061202990A004B16MWH00UUU12UN99 000000                                                                                                                                                                          
602AZ007231A8990012258810076620PHOENIX                 ARIZ  061202990A005A20MWN34MWN12ST03 000000                                                                                                                                                                          
602AZ007231A8990012258810076620PHOENIX                 ARIZ  061202990A006B25MWH00UUU12UN03 000000                                                                                                                                                                          
602AZ007231A8990012258810076620PHOENIX                 ARIZ  061202990A007B15MWH00UUU12ST47 000000                                                                                                                                                                          
602AZ007231A8990012258810076620PHOENIX                 ARIZ  061202990A008A33MBN32MBN12ST18 000000                                                                                                                                                                          
602AZ007231A8990012258810076620PHOENIX                 ARIZ  061202990A009A16MWN15MWN20AQ45 000000                                                                                                                                                                          
602AZ007231A8990012258810076620PHOENIX                 ARIZ  061202990A010B27MWH00UUU11UN99 000000                                                                                                                                                                          
602AZ007231A8990012258810076620PHOENIX                 ARIZ  061202990A011C24MWH00MWH12ST60 000001                                                  00MWH12ST60                                                                                                             
602AZ007231A8990012258810076620PHOENIX                 ARIZ  061210991A012F25MW 00UU 12UN03 00100125MW                                              00UU 12UN03                                                                                                             
602AZ007231A8990012258810076620PHOENIX                 ARIZ  061202990A013D07FWH20MWH30OF60 00100059FWH                                                                                                                                                                     
602AZ007231A8990012258810076620PHOENIX                 ARIZ  061202990A014B27MWH00UUU11UN99 000000                                                                                                                                                                          
602AZ007231A8990012258810076620PHOENIX                 ARIZ  061202990A015B38MWH00UUU11UN99 000000                                                                                                                                                                          
602AZ007231A8990012258810076620PHOENIX                 ARIZ  061202990A016A41MBN20MWH13FR60 000000                                                                                                                                                                          
602AZ007231A8990012258810076620PHOENIX                 ARIZ  061202990A017A03MWN23MWN40OK60 000000                                                                                                                                                                          
602AZ007231A8990012258810076620PHOENIX                 ARIZ  061202990B018B14FWN00UUU12UN53 000000                                                                                                                                                                          
602AZ007231A8990012258810076620PHOENIX                 ARIZ  061202990B019A17FWH19MWH13GF53 000000                                                                                                                                                                          
602AZ007231A8990012258810076620PHOENIX                 ARIZ  071210990A001C17MWH00MWH12ST03 000001                                                  00MWH12ST03                                                                                                             
602AZ007231A8990012258810076620PHOENIX                 ARIZ  071210990A002B47MWN00UUU11UN05 000000                                                                                                                                                                          
602AZ007231A8990012258810076620PHOENIX                 ARIZ  071210990A003A27MBN00MWH12ST60 000000                                                                                                                                                                          
602AZ007231A8990012258810076620PHOENIX                 ARIZ  071210990A004A33MWH16MWH12ST60 000000                                                                                                                                                                          
602AZ007231A8990012258810076620PHOENIX                 ARIZ  071210990A005A17MWH22MWH12ST60 000000                                                                                                                                                                          
602AZ007231A8990012258810076620PHOENIX                 ARIZ  071210990A006C30MWH00MBN12ST99 000001                                                  00MBN12ST99                                                                                                             
602AZ007231A8990012258810076620PHOENIX                 ARIZ  071210990A007A25FBN37MBN12WI45 000000                                                                                                                                                                          
602AZ007231A8990012258810076620PHOENIX                 ARIZ  071210990A008B47MBN00UUU11UN99 000000                                                                                                                                                                          
602AZ007231A8990012258810076620PHOENIX                 ARIZ  071210990A009B20FWH00UUU11UN99 000000                                                                                                                                                                          
602AZ007231A8990012258810076620PHOENIX                 ARIZ  071210990A010F17MWN00UUU12UN99 00200018FBN20FBN                                                                                                                                                                
602AZ007231A8990012258810076620PHOENIX                 ARIZ  071210990A011A18MIN00MBN30AQ42 000000                                                                                                                                                                          
602AZ007231A8990012258810076620PHOENIX                 ARIZ  071210990A012A28MBN35MBN12AQ45 000000                                                                                                                                                                          
602AZ007231A8990012258810076620PHOENIX                 ARIZ  071210990A013BBBFBN00UUU40UN60 000000                                                                                                                                                                          
602AZ007231A8990012258810076620PHOENIX                 ARIZ  071210990A014C22MWH00MWN12ST18 000001                                                  35MWH12ST18                                                                                                             
602AZ007231A8990012258810076620PHOENIX                 ARIZ  071210990A015A21MWH00MWH12ST45 000000                                                                                                                                                                          
602AZ007231A8990012258810076620PHOENIX                 ARIZ  071210990A016C19MWH28MWN12ST81A000001                                                  31MWH12ST81A                                                                                                            
602AZ007231A8990012258810076620PHOENIX                 ARIZ  071210990A017C33MWN28MWN12ST81A000002                                                  29MWN12ST81A39MWN12ST81A                                                                                                
602AZ007231A8990012258810076620PHOENIX                 ARIZ  080201000A001A43MWH24MWH12ST03 000000                                                                                                                                                                          
602AZ007231A8990012258810076620PHOENIX                 ARIZ  080201000A002B23MWH00UUU12UN99 000000                                                                                                                                                                          
602AZ007231A8990012258810076620PHOENIX                 ARIZ  080201000A003C29MWH00MWH20ST60 000003                                                  00MWH20ST60 00MWH20ST60 00MWH20ST60                                                                                     
602AZ007231A8990012258810076620PHOENIX                 ARIZ  080201000A005A29FWH20MWH12AQ03 000000                                                                                                                                                                          
602AZ007231A8990012258810076620PHOENIX                 ARIZ  080201000A006A26MWN23MBN12AQ45 000000                                                                                                                                                                          
602AZ007231A8990012258810076620PHOENIX                 ARIZ  080201000A007A05MWH25MWH40OK60 000000                                                                                                                                                                          
602AZ007231A8990012258810076620PHOENIX                 ARIZ  080201000A008A23MWH22MWH30FR60 000000                                                                                                                                                                          
602AZ007231A8990012258810076620PHOENIX                 ARIZ  080301001A009E25MW 25MW 12ST60 00100115MW                                              19MW 12ST60                                                                                                             
602AZ007231A8990012258810076620PHOENIX                 ARIZ  080201000A010C39MBN00MWH12UN18 000002                                                  00MWH12UN18 00MWH12UN18                                                                                                 
602AZ007231A8990012258810076620PHOENIX                 ARIZ  080225000A011A75FWN57MWH12AQ02 000000                                                                                                                                                                          
602AZ007231A8990012258810076620PHOENIX                 ARIZ  080225000A012B25MWH00UUU12UN99 000000                                                                                                                                                                          
602AZ007231A8990012258810076620PHOENIX                 ARIZ  080201000A013A24MBN00MBN12ST99 000000                                                                                                                                                                          
602AZ007231A8990012258810076620PHOENIX                 ARIZ  080201000A014A44MWN15MWN30FA60 000000                                                                                                                                                                          
602AZ007231A8990012258810076620PHOENIX                 ARIZ  080201000A015A30MWH22MWH20NE45 000000                                                                                                                                                                          
602AZ007231A8990012258810076620PHOENIX                 ARIZ  080201000A016A14MWH00MWH12ST45 000000                                                                                                                                                                          
602AZ007231A8990012258810076620PHOENIX                 ARIZ  080201000A017B39MWH00UUU12UN99 000000                                                                                                                                                                          
602AZ007231A8990012258810076620PHOENIX                 ARIZ  080201000A018A26MWH00MWH12AQ44 000000                                                                                                                                                                          
602AZ007231A8990012258810076620PHOENIX                 ARIZ  080201000A019A21MWN21MWN12FR60 000000                                                                                                                                                                          
602AZ007231A8990012258810076620PHOENIX                 ARIZ  080201000A020A49MBN34FBN12BF80C000000                                                                                                                                                                          
602AZ007231A8990012258810076620PHOENIX                 ARIZ  080201000B021A16MWH19MWH14OF53 000000                                                                                                                                                                          
602AZ007231A8990012258810076620PHOENIX                 ARIZ  080225000A022A25MWH28MWH13ST60 000000                                                                                                                                                                          
602AZ007231A8990012258810076620PHOENIX                 ARIZ  090225000A001B34FWH00UUU80UN99 000000                                                                                                                                                                          
602AZ007231A8990012258810076620PHOENIX                 ARIZ  090225000A002A45FWH30MWH12WI45 000000                                                                                                                                                                          
602AZ007231A8990012258810076620PHOENIX                 ARIZ  090225000A003A30MWH24MWH30AQ60 000000                                                                                                                                                                          
602AZ007231A8990012258810076620PHOENIX                 ARIZ  090225000A004A39MWH25MWH12AQ60 000000                                                                                                                                                                          
602AZ007231A8990012258810076620PHOENIX                 ARIZ  090225000A005A24MWH00MWH12ST42 000000                                                                                                                                                                          
602AZ007231A8990012258810076620PHOENIX                 ARIZ  090225000A006A19MWH21MWH12ST45 000000                                                                                                                                                                          
602AZ007231A8990012258810076620PHOENIX                 ARIZ  090225000A007B24MWH00UUU11UN18 000000                                                                                                                                                                          
602AZ007231A8990012258810076620PHOENIX                 ARIZ  090225000A008A26MWH29MWH12ST03 000000                                                                                                                                                                          
602AZ007231A8990012258810076620PHOENIX                 ARIZ  090225000A009A18MWH00MBN20ST99 000000                                                                                                                                                                          
602AZ007231A8990012258810076620PHOENIX                 ARIZ  090225000A010A29MWH41FWH20AQ45 000000                                                                                                                                                                          
602AZ007231A8990012258810076620PHOENIX                 ARIZ  090225000A011A21MWH00MWH12ST60 000000                                                                                                                                                                          
602AZ007231A8990012258810076620PHOENIX                 ARIZ  090225000A012A16FWH20MWH12ST60 000000                                                                                                                                                                          
602AZ007231A8990012258810076620PHOENIX                 ARIZ  090225000A013A45MWH25MWH12ST60 000000                                                                                                                                                                          
602AZ007231A8990012258810076620PHOENIX                 ARIZ  090225000A014A43MWH47FBN30UN60 000000                                                                                                                                                                          
602AZ007231A8990012258810076620PHOENIX                 ARIZ  090225000A015A19MWH00MWH14ST46 000000                                                                                                                                                                          
602AZ007231A8990012258810076620PHOENIX                 ARIZ  090225000A016A39MWH00MWH11UN99 000000                                                                                                                                                                          
602AZ007231A8990012258810076620PHOENIX                 ARIZ  090225000A017A35FIN35MIN40AQ99 000000                                                                                                                                                                          
602AZ007231A8990012258810076620PHOENIX                 ARIZ  090225000A018ABBMBN17MBN20OF41 000000                                                                                                                                                                          
602AZ007231A8990012258810076620PHOENIX                 ARIZ  090225000A019A26MWH21MWH12AQ80C000000                                                                                                                                                                          
602AZ007231A8990012258810076620PHOENIX                 ARIZ  090225000A020A28MWN45MWN12ST81A000000                                                                                                                                                                          
602AZ007231A8990012258810076620PHOENIX                 ARIZ  100310000A001A21FWN25MWN12GF45 000000                                                                                                                                                                          
602AZ007231A8990012258810076620PHOENIX                 ARIZ  100310000A002A31MWH24MWN12ST60 000000                                                                                                                                                                          
602AZ007231A8990012258810076620PHOENIX                 ARIZ  100310000A003F22MWH00UUU12UN99 00200023MWH40MWH                                                                                                                                                                
602AZ007231A8990012258810076620PHOENIX                 ARIZ  100310000A004B24MWH00UUU12UN03 000000                                                                                                                                                                          
602AZ007231A8990012258810076620PHOENIX                 ARIZ  100310000A005A24MWH21MWH12AQ44 000000                                                                                                                                                                          
602AZ007231A8990012258810076620PHOENIX                 ARIZ  100310000A006B37MBN00UUU11UN70 000000                                                                                                                                                                          
602AZ007231A8990012258810076620PHOENIX                 ARIZ  100310000A007B53MWN00UUU30UN03 000000                                                                                                                                                                          
602AZ007231A8990012258810076620PHOENIX                 ARIZ  100310000A008A23MWH00MWN12ST45 000000                                                                                                                                                                          
602AZ007231A8990012258810076620PHOENIX                 ARIZ  100310000A009B23MWH00UUU20UN03 000000                                                                                                                                                                          
602AZ007231A8990012258810076620PHOENIX                 ARIZ  100310000A010A30MWH18MBN12ST03 000000                                                                                                                                                                          
602AZ007231A8990012258810076620PHOENIX                 ARIZ  100310000A011A30MWH22MIN20IL60 000000                                                                                                                                                                          
602AZ007231A8990012258810076620PHOENIX                 ARIZ  100310000A012B35MWH00UUU12UN99 000000                                                                                                                                                                          
602AZ007231A8990012258810076620PHOENIX                 ARIZ  100310000A013F26MWH00UUU12UN18 00100030MWH                                                                                                                                                                     
602AZ007231A8990012258810076620PHOENIX                 ARIZ  100310000A014A25MWH53MWH12ST42 000000                                                                                                                                                                          
602AZ007231A8990012258810076620PHOENIX                 ARIZ  100310000A015A20MIN18FIN20BF45 000000                                                                                                                                                                          
602AZ007231A8990012258810076620PHOENIX                 ARIZ  100310000A016B00MWH00UUU12UN03 000000                                                                                                                                                                          
602AZ007231A8990012258810076620PHOENIX                 ARIZ  100310000A017A27MWN39MWN14ST81A000000                                                                                                                                                                          
602AZ007231A8990012258810076620PHOENIX                 ARIZ  100310000A018A33MWN40MWN12ST81A000000                                                                                                                                                                          
602AZ007231A8990012258810076620PHOENIX                 ARIZ  110329000A001B30FWN00UUU30UN99 000000                                                                                                                                                                          
602AZ007231A8990012258810076620PHOENIX                 ARIZ  110329000A002A36MIN30MIN40FR42 000000                                                                                                                                                                          
602AZ007231A8990012258810076620PHOENIX                 ARIZ  110329000A003B25MWH00UUU12UN70 000000                                                                                                                                                                          
602AZ007231A8990012258810076620PHOENIX                 ARIZ  110329000A004B18MWH00UUU12ST46 000000                                                                                                                                                                          
602AZ007231A8990012258810076620PHOENIX                 ARIZ  110329000A005B67MWN00UUU40UN45 000000                                                                                                                                                                          
602AZ007231A8990012258810076620PHOENIX                 ARIZ  110329000A006D25MWH21MBN12AQ18 00200028MWH29FWH                                                                                                                                                                
602AZ007231A8990012258810076620PHOENIX                 ARIZ  110329000A007B19MWH00UUU30UN18 000000                                                                                                                                                                          
602AZ007231A8990012258810076620PHOENIX                 ARIZ  110329000A008A29MWH30MWN12ST60 000000                                                                                                                                                                          
602AZ007231A8990012258810076620PHOENIX                 ARIZ  110329000A009B29FWH00UUU12ST60 000000                                                                                                                                                                          
602AZ007231A8990012258810076620PHOENIX                 ARIZ  110329000A010B29MWH00UUU20UN70 000000                                                                                                                                                                          
602AZ007231A8990012258810076620PHOENIX                 ARIZ  110329000A011B35MWH00UUU12UN99 000000                                                                                                                                                                          
602AZ007231A8990012258810076620PHOENIX                 ARIZ  110329000A012A20MWH30MWN12AQ45 000000                                                                                                                                                                          
602AZ007231A8990012258810076620PHOENIX                 ARIZ  110329000A013B29MWH00UUU12UN18 000000                                                                                                                                                                          
602AZ007231A8990012258810076620PHOENIX                 ARIZ  110329000A014B21MWH00UUU12UN99 000000                                                                                                                                                                          
602AZ007231A8990012258810076620PHOENIX                 ARIZ  110329000A015B34MWH00UUU12UN18 000000                                                                                                                                                                          
602AZ007231A8990012258810076620PHOENIX                 ARIZ  110329000A016A37FWH41MWH20CW45 000000                                                                                                                                                                          
602AZ007231A8990012258810076620PHOENIX                 ARIZ  120407000A001B22MWH00UUU11UN45 000000                                                                                                                                                                          
602AZ007231A8990012258810076620PHOENIX                 ARIZ  120407000A002A20MWH00MUU12UN45 000000                                                                                                                                                                          
602AZ007231A8990012258810076620PHOENIX                 ARIZ  120407000A003A47FWN64MWN12WI60 000000                                                                                                                                                                          
602AZ007231A8990012258810076620PHOENIX                 ARIZ  120407000A004B48FBN00UUU12UN99 000000                                                                                                                                                                          
602AZ007231A8990012258810076620PHOENIX                 ARIZ  120505001A005B00MW 00UU 30UN99 000001                                                  00UU 30UN99                                                                                                             
602AZ007231A8990012258810076620PHOENIX                 ARIZ  120407000A006A28MWH00MWH12ST45 000000                                                                                                                                                                          
602AZ007231A8990012258810076620PHOENIX                 ARIZ  120407000A007B19MBN00UUU12UN99 000000                                                                                                                                                                          
602AZ007231A8990012258810076620PHOENIX                 ARIZ  120407000A008A51FWN53MWN12GF45 000000                                                                                                                                                                          
602AZ007231A8990012258810076620PHOENIX                 ARIZ  120407000A009B23MBN00UUU12UN99 000000                                                                                                                                                                          
602AZ007231A8990012258810076620PHOENIX                 ARIZ  120407000A010B25MWH00UUU12UN40 000000                                                                                                                                                                          
602AZ007231A8990012258810076620PHOENIX                 ARIZ  120407000A011A25MWN00MUU12UN99 000000                                                                                                                                                                          
602AZ007231A8990012258810076620PHOENIX                 ARIZ  120407000A012B26MWH00UUU12UN99 000000                                                                                                                                                                          
602AZ007231A8990012258810076620PHOENIX                 ARIZ  120407000A013A30MWH00MWH12AQ60 000000                                                                                                                                                                          
602AZ007231A8990012258810076620PHOENIX                 ARIZ  120607001A014C28MB 00MB 12UN99 000002                                                  00MB 12UN99 00MB 12UN99                                                                                                 
602AZ007231A8990012258810076620PHOENIX                 ARIZ  120407000A015B00FWN00UUU12UN99 000000                                                                                                                                                                          
602AZ007231A8990012258810076620PHOENIX                 ARIZ  120407000A016A21MWH33MWH12FR60 000000                                                                                                                                                                          
602AZ007231A8990012258810076620PHOENIX                 ARIZ  120407000A017A19MWH23MWN12ST81A000000                                                                                                                                                                          
602AZ007231A8990012258810076620PHOENIX                 ARIZ  120407000A018A36MWN32FWN20HU80E000000                                                                                                                                                                          
602AZ007231A8990012258810076620PHOENIX                 ARIZ  120407000A019A34MBN22MWH12ST80E000000                                                                                                                                                                          
602AZ007231A8990012258810076620PHOENIX                 ARIZ  120407000A020A31MWH47MWH12ST80E000000                                                                                                                                                                          
602AZ007252 8990001999850076620SCOTTSDALE              ARIZ  030923990A001A34MWN28MWN13ST81A000000                                                                                                                                                                          
602AZ007252 8990001999850076620SCOTTSDALE              ARIZ  120407000A001C25MWH00MWH13ST45 000001                                                  00MWH13ST45                                                                                                             
602AZ007252 8990001999850076620SCOTTSDALE              ARIZ  120407000A002C21MWH18MWH12FR45 000004                                                  21MWH12FR45 22MWH12FR45 20MWH12FR45 23MWH12FR45                                                                         
602AZ007275 8990000151980076621SURPRISE                ARIZ  110329000A001A30FWH31MWH12GF45 000000                                                                                                                                                                          
602AZ007292 8990001715610076620TEMPE                   ARIZ  051210990A001C33MWN36MWN12ST81A000001                                                  38MWN12ST81A                                                                                                            
602AZ007292 8990001715610076620TEMPE                   ARIZ  061210990A001A35MWN37MWN13AQ45 000000                                                                                                                                                                          
602AZ007292 8990001715610076620TEMPE                   ARIZ  080407000A001A01FWH20FWH30OK41 000000                                                                                                                                                                          
602AZ007292 8990001715610076620TEMPE                   ARIZ  110407000A001A40MWN39FWN20AQ42 000000                                                                                                                                                                          
602AZ007292 8990001715610076620TEMPE                   ARIZ  110407000A002B20MWN00UUU85UN99 000000                                                                                                                                                                          
602AZ007292 8990001715610076620TEMPE                   ARIZ  120407000A001B30FWH00UUU12UN99 000000                                                                                                                                                                          
602AZ007292 8990001715610076620TEMPE                   ARIZ  120407000A002A20FWN29MWH12GF45 000000                                                                                                                                                                          
602AZ008009B8990000406760084371MOHAVE                  ARIZ  060329000A001A33FWN34MWN40GF45 000000                                                                                                                                                                          
602AZ008009B8990000406760084371MOHAVE                  ARIZ  070329000A001A33FWN29MWN40GF45 000000                                                                                                                                                                          
602AZ008015 8990000188010084371KINGMAN                 ARIZ  010813990A001A32FWN32MWN80WI45 000000                                                                                                                                                                          
602AZ008015 8990000188010084371KINGMAN                 ARIZ  021207991A001E73FW 26MW 40ST05 00100179MW                                              33MW 85ST05                                                                                                             
602AZ008044 8990000414470084371LAKE HAVASU CITY        ARIZ  010904990A001A42MWN45MWN40AQ42 000000                                                                                                                                                                          
602AZ008044 8990000414470084371LAKE HAVASU CITY        ARIZ  120407000A001A39FWN22MWN30ST99 000000                                                                                                                                                                          
602AZ008054 8990000288140084371BULLHEAD CITY           ARIZ  120407000A001A15MWN19MWN12AQ45 000000                                                                                                                                                                          
602AZ009016 899000005805009   0HOLBROOK                ARIZ  110329000A001A27MWN26FIN20BF45 000000                                                                                                                                                                          
602AZ009095 899000010935009   0WINSLOW                 ARIZ  071210990A001B52MIN00UUU30UN99 000000                                                                                                                                                                          
602AZ009095 899000010935009   0WINSLOW                 ARIZ  071210990A002B45MIN00UUU30UN99 000000                                                                                                                                                                          
602AZ009095 899000010935009   0WINSLOW                 ARIZ  090225000A001F50FIN00UUU20UN99 00100041MIN                                                                                                                                                                     
602AZ010009A8990003006580109061PIMA                    ARIZ  010813990A001A23MWN21MWH12AQ60 000000                                                                                                                                                                          
602AZ010009A8990003006580109061PIMA                    ARIZ  010813990A002A46MWN22MWN12SF60 000000                                                                                                                                                                          
602AZ010009A8990003006580109061PIMA                    ARIZ  051202990A001A18MWN25MWN12FR60 000000                                                                                                                                                                          
602AZ010009A8990003006580109061PIMA                    ARIZ  051202990A002B35MWN00UUU30UN99 000000                                                                                                                                                                          
602AZ010009A8990003006580109061PIMA                    ARIZ  061202990A001A31FWN36MWH20AQ45 000000                                                                                                                                                                          
602AZ010009A8990003006580109061PIMA                    ARIZ  070225000A001A39MWN23MWN20AQ60 000000                                                                                                                                                                          
602AZ010009A8990003006580109061PIMA                    ARIZ  080225000A001A20MWH20MWH12FR18 000000                                                                                                                                                                          
602AZ010009A8990003006580109061PIMA                    ARIZ  080225000A002B39MWN00UUU12UN99 000000                                                                                                                                                                          
602AZ010009A8990003006580109061PIMA                    ARIZ  080225000A003A58FWN40MBN12ST05 000000                                                                                                                                                                          
602AZ010009A8990003006580109061PIMA                    ARIZ  080225000A004D17FAN29MAN12GF45 00100045FAN                                                                                                                                                                     
602AZ010009A8990003006580109061PIMA                    ARIZ  080225000A005A75FWN66MWN12WI45 000000                                                                                                                                                                          
602AZ010009A8990003006580109061PIMA                    ARIZ  080225000A006A24FWN19MWN12GF45 000000                                                                                                                                                                          
602AZ010009A8990003006580109061PIMA                    ARIZ  080225000A007A22MWH23MWH14OF18 000000                                                                                                                                                                          
602AZ010009A8990003006580109061PIMA                    ARIZ  090225000A001A52MWN26MWN20FA60 000000                                                                                                                                                                          
602AZ010009A8990003006580109061PIMA                    ARIZ  090225000A002A62MWH62MWN12ST81A000000                                                                                                                                                                          
602AZ010009A8990003006580109061PIMA                    ARIZ  090225000A003A31MWH40MWN12ST81A000000                                                                                                                                                                          
602AZ010009A8990003006580109061PIMA                    ARIZ  100310000A001A14FWN18MWH12FR60 000000                                                                                                                                                                          
602AZ010009A8990003006580109061PIMA                    ARIZ  100310000A002B28MWH00UUU12UN99 000000                                                                                                                                                                          
602AZ010009A8990003006580109061PIMA                    ARIZ  100310000A003F24MWN00UUU12UN99 00100027MWH                                                                                                                                                                     
602AZ010009A8990003006580109061PIMA                    ARIZ  100310000A004B43MWN00UUU12UN99 000000                                                                                                                                                                          
602AZ010009A8990003006580109061PIMA                    ARIZ  110329000A001A34MWH26MWN20FR45 000000                                                                                                                                                                          
602AZ010009A8990003006580109061PIMA                    ARIZ  120407000A001F32FWH00UUU12UN99 00100044MWH                                                                                                                                                                     
602AZ010009A8990003006580109061PIMA                    ARIZ  120407000A002A43MWN51FWN13FR60 000000                                                                                                                                                                          
602AZ010009A8990003006580109061PIMA                    ARIZ  120407000A003A16FWH26MWH12FR60 000000                                                                                                                                                                          
602AZ010031C8990004712860109060TUCSON                  ARIZ  010923990A001A36MWN57MBN12NE42 000000                                                                                                                                                                          
602AZ010031C8990004712860109060TUCSON                  ARIZ  010923990A002C18MWH00MWH12AQ46 000001                                                  00MWH12AQ46                                                                                                             
602AZ010031C8990004712860109060TUCSON                  ARIZ  010923990A003C42MWN42MWN20AQ42 000001                                                  47MWN20AQ42                                                                                                             
602AZ010031C8990004712860109060TUCSON                  ARIZ  010923990A004A28FWH31MWH20WI45 000000                                                                                                                                                                          
602AZ010031C8990004712860109060TUCSON                  ARIZ  011006991A005E17MW 17MW 12ST03 00200220FW 44MW                                         19MA 12ST03 19MA 12ST03                                                                                                 
602AZ010031C8990004712860109060TUCSON                  ARIZ  010923990A006A26FBN23FBN12AQ45 000000                                                                                                                                                                          
602AZ010031C8990004712860109060TUCSON                  ARIZ  010923990B007A19MWH42MWN12AQ53 000000                                                                                                                                                                          
602AZ010031C8990004712860109060TUCSON                  ARIZ  031202990A001A22MWH23MWH12AQ45 000000                                                                                                                                                                          
602AZ010031C8990004712860109060TUCSON                  ARIZ  041210990A001C20MWH27MIN12AQ44 000001                                                  21MIN12AQ44                                                                                                             
602AZ010031C8990004712860109060TUCSON                  ARIZ  041210990A002A62MWH23MWH20AQ45 000000                                                                                                                                                                          
602AZ010031C8990004712860109060TUCSON                  ARIZ  041210990A003B41MWN00UUU30UN99 000000                                                                                                                                                                          
602AZ010031C8990004712860109060TUCSON                  ARIZ  050225000A001C12FWH24MWN12ST03 000003                                                  29MBN12ST03 24MBN12ST03 30MBN12ST03                                                                                     
602AZ010031C8990004712860109060TUCSON                  ARIZ  050225000A002B40MWN00UUU30UN99 000000                                                                                                                                                                          
602AZ010031C8990004712860109060TUCSON                  ARIZ  050225000A003A36MWH36FWH20BF45 000000                                                                                                                                                                          
602AZ010031C8990004712860109060TUCSON                  ARIZ  050225000A004A41MWH38MBN20AQ42 000000                                                                                                                                                                          
602AZ010031C8990004712860109060TUCSON                  ARIZ  050225000A005A37FWN37MBN20GF45 000000                                                                                                                                                                          
602AZ010031C8990004712860109060TUCSON                  ARIZ  050225000A006A47FWN23MWN20MO45 000000                                                                                                                                                                          
602AZ010031C8990004712860109060TUCSON                  ARIZ  050301001A007A35MW 25MW 12AQ60 000000                                                                                                                                                                          
602AZ010031C8990004712860109060TUCSON                  ARIZ  060225000A001D44FWN46MWN12SI45 00100052MWN                                                                                                                                                                     
602AZ010031C8990004712860109060TUCSON                  ARIZ  060225000A002C24MWH22MWH12BR42 000001                                                  20MWH12AQ42                                                                                                             
602AZ010031C8990004712860109060TUCSON                  ARIZ  060225000A003C26MWN17MWH30AQ45 000001                                                  20MWH30AQ45                                                                                                             
602AZ010031C8990004712860109060TUCSON                  ARIZ  060225000A004A34MWN46FWN12AQ03 000000                                                                                                                                                                          
602AZ010031C8990004712860109060TUCSON                  ARIZ  060225000A005A15FWN25MBN12ST99 000000                                                                                                                                                                          
602AZ010031C8990004712860109060TUCSON                  ARIZ  060225000A006B18MWH00UUU12UN45 000000                                                                                                                                                                          
602AZ010031C8990004712860109060TUCSON                  ARIZ  070310000A001A30MBN23MWN12ST80E000000                                                                                                                                                                          
602AZ010031C8990004712860109060TUCSON                  ARIZ  080329000A001C43MIN14MWH20AQ03 000001                                                  18MWN20AQ03                                                                                                             
