601AL001123 6150000851630370980HOOVER                  ALA   030110170A001A30MW 30MW 11ST45 000000
601AL001123 6150000851630370980HOOVER                  ALA   090110170A001A25MB 22MB 12AQ60 000000
601AL001123 6150000851630370980HOOVER                  ALA   110110170A001A40FB 23MB 14MO45 000000
602AZ001897 815000000000      0NAVAJO NATION           ARIZ  010223160A001B35MIN00UUU11AQ18 000000
602AZ001897 815000000000      0NAVAJO NATION           ARIZ  020223160A001A51MIN50MIN40UN99 000000
602AZ001897 815000000000      0NAVAJO NATION           ARIZ  030223160A001D41MIN24MIN13UN81E00200048MIN42MIN
602AZ001897 815000000000      0NAVAJO NATION           ARIZ  030223160A004A30MIN28MIN20UN99 000000
602AZ001897 815000000000      0NAVAJO NATION           ARIZ  050223160A001E47MIN28MIN90FR99 00300229MIN28MIN23MIN                                   29MIN90FR99 47MIN90FR99
602AZ001897 815000000000      0NAVAJO NATION           ARIZ  060223160A001A28MIN19MIN90OF99 000000
602AZ001897 815000000000      0NAVAJO NATION           ARIZ  070223160A001A24FIN23MIN40GF99 000000
602AZ001897 815000000000      0NAVAJO NATION           ARIZ  070223160A002B23MIN00UUU20UN99 000000
602AZ001897 815000000000      0NAVAJO NATION           ARIZ  080331161A001A49MIN48MIN20BR42 000000
602AZ001897 815000000000      0NAVAJO NATION           ARIZ  080331161A002A31FIN21MIN90UN99 000000
602AZ001897 815000000000      0NAVAJO NATION           ARIZ  110223160A001B48MIN00UUU30UN99 000000
602AZ002009B8150000498930028161COCHISE                 ARIZ  030812150A001B55MWH00UUU12UN05 000000
602AZ002009B8150000498930028161COCHISE                 ARIZ  100225160A001A28MWH00MWN14ST81E000000
602AZ002094 8150000434520028160SIERRA VISTA            ARIZ  070225160A001A25FWN21FWH12OK40 000000
602AZ002094 8150000434520028160SIERRA VISTA            ARIZ  080127160A001B74FAN00UUU85UN99 000000
602AZ003009B8150000544680032751COCONINO                ARIZ  090307160A001A23FWN35MWN12UN99 000000
602AZ003009B8150000544680032751COCONINO                ARIZ  110307160A001B60MWN00UUU20UN99 000000
602AZ003977 8150000000000032751NORTHERN ARIZONA UNIV   ARIZ  100225160A001A20MWN18MWN12ST45 000000
602AZ004065 815000015228004   0PAYSON                  ARIZ  100225160A001A61MWN51MWN12OK45 000000
602AZ005008C815000020878005   0GRAHAM                  ARIZ  060225161A001A31MWH18MWH12AQ44 000000
602AZ007009A8150003959370076621MARICOPA                ARIZ  020818150A001A16FBN18MBN12AQ45 000000
602AZ007009A8150003959370076621MARICOPA                ARIZ  030812150A001A22MWN44MWN12UN99 000000
602AZ007009A8150003959370076621MARICOPA                ARIZ  040814150A001A57MWN39MWN12NE45 000000
602AZ007009A8150003959370076621MARICOPA                ARIZ  040814150A002B20MWH00UUU90UN99 000000
602AZ007009A8150003959370076621MARICOPA                ARIZ  040814150A003B29MIN00UUU11UN99 000000
602AZ007009A8150003959370076621MARICOPA                ARIZ  040814150A004F24MWH00UUU12UN99 00100026MWH
602AZ007009A8150003959370076621MARICOPA                ARIZ  050910150A001B25MWH00UUU11UN99 000000
602AZ007009A8150003959370076621MARICOPA                ARIZ  050910150A002A28FWH00MWH20UN99 000000
602AZ007009A8150003959370076621MARICOPA                ARIZ  060914150A001A69MWN33MWN12ST81A000000
602AZ007009A8150003959370076621MARICOPA                ARIZ  060914150A002B49MWH00UUU90UN99 000000
602AZ007009A8150003959370076621MARICOPA                ARIZ  071030150A001A41FWN45MWN11WI99 000000
602AZ007009A8150003959370076621MARICOPA                ARIZ  071030150A002B47MWH00UUU20UN99 000000
602AZ007009A8150003959370076621MARICOPA                ARIZ  081211150A001B37MWH00UUU11UN99 000000
602AZ007009A8150003959370076621MARICOPA                ARIZ  081211150A002A24FAN27MWN75WI45 000000
602AZ007009A8150003959370076621MARICOPA                ARIZ  081211150A003F18MWH00UUU11UN99 00100017FWH
602AZ007009A8150003959370076621MARICOPA                ARIZ  090127160A001A45MWN47MWH11UN99 000000
602AZ007009A8150003959370076621MARICOPA                ARIZ  090127160A002D48MWN27MWN11AQ99 00100032MWH
602AZ007009A8150003959370076621MARICOPA                ARIZ  110307160A001A69MWN51MWN12ST81A000000
602AZ007009A8150003959370076621MARICOPA                ARIZ  120310160A001A71MWN36MWN90UN99 000000
602AZ007013 8150000805330076620AVONDALE                ARIZ  020812150A001A28MWN34MWH20NE45 000000
602AZ007013 8150000805330076620AVONDALE                ARIZ  040910150A001A28MWH28MWH20ST60 000000
602AZ007013 8150000805330076620AVONDALE                ARIZ  081211150A001B19MWH00UUU12UN03 000000
602AZ007013 8150000805330076620AVONDALE                ARIZ  081211150A002A21FWH24MWH12GF45 000000
602AZ007013 8150000805330076620AVONDALE                ARIZ  100225160A001A24MWH53MBN14AQ44 000000
602AZ007013 8150000805330076620AVONDALE                ARIZ  120310160A001A32FWH36MWH12WI45 000000
602AZ007033 8150000617260076620BUCKEYE                 ARIZ  040225160A001C19MWN18MWN13FR03 000001                                                  22MWN13FR03
602AZ007033 8150000617260076620BUCKEYE                 ARIZ  040225160A002A59FWN59MWN12FR60 000000
602AZ007033 8150000617260076620BUCKEYE                 ARIZ  080225160B001A17FWH22MWH13SI53 000000
602AZ007051C8150002588750076620CHANDLER                ARIZ  010714150A001D41MWH22MIN12ST81A00200043MWN38FWH
602AZ007051C8150002588750076620CHANDLER                ARIZ  061222161B001A03FWH22FWH85DA59 000000
602AZ007051C8150002588750076620CHANDLER                ARIZ  120310160A001A25MWN19MWN12AQ60 000000
602AZ007074 8150000339850076621EL MIRAGE               ARIZ  020818150A001A32MWH30MWH20AQ99 000000
602AZ007112 8150002473240076620GILBERT                 ARIZ  020110170A001C22MB 18MW 12OK18 000002                                                  18FW 12ST18 18FB 12AQ18
602AZ007112 8150002473240076620GILBERT                 ARIZ  030110170A001A64MW 61FW 12HU99 000000
602AZ007112 8150002473240076620GILBERT                 ARIZ  080110170A001A24MW 20MW 12ST81A000000
602AZ007132 8150002403740076620GLENDALE                ARIZ  010714150A001A21MBN24MWH12ST42 000000
602AZ007132 8150002403740076620GLENDALE                ARIZ  010714150A002A32FWH34MWH12GF45 000000
602AZ007132 8150002403740076620GLENDALE                ARIZ  010714150A003A20MBN28MBN12AQ45 000000
602AZ007132 8150002403740076620GLENDALE                ARIZ  030812150A001A63MWN34MWN12ST81A000000
602AZ007132 8150002403740076620GLENDALE                ARIZ  040814150A001A25MWN22MWN12FR44 000000
602AZ007132 8150002403740076620GLENDALE                ARIZ  050910150A001B43MBN00UUU12UN99 000000
602AZ007132 8150002403740076620GLENDALE                ARIZ  071030150A001A30FBH30MWH12AQ45 000000
602AZ007132 8150002403740076620GLENDALE                ARIZ  071030150A002A29MWN42MBH12ST44 000000
602AZ007132 8150002403740076620GLENDALE                ARIZ  071030150A003A25MIH19MBH12ST45 000000
602AZ007132 8150002403740076620GLENDALE                ARIZ  081211150A001A27MBH23MWN12ST80E000000
602AZ007132 8150002403740076620GLENDALE                ARIZ  090225160A001A21MWN21MWN12AQ45 000000
602AZ007132 8150002403740076620GLENDALE                ARIZ  100225160A001A26MWN28FBN12ST45 000000
602AZ007132 8150002403740076620GLENDALE                ARIZ  110307160A001B26MBN00UUU12UN80E000000
602AZ007132 8150002403740076620GLENDALE                ARIZ  110307160A002A27MWH32MBN20AQ44 000000
602AZ007153 8150000784470076620GOODYEAR                ARIZ  030812150A001A35FWN37MWN20WI45 000000
602AZ007171C8150004710340076620MESA                    ARIZ  010714150A001A21MWN29MWH11ST03 000000
602AZ007171C8150004710340076620MESA                    ARIZ  030812150A001A29MWN41MWN12AQ05 000000
602AZ007171C8150004710340076620MESA                    ARIZ  040225161A001A29MBN24FWH20BF80C000000
602AZ007171C8150004710340076620MESA                    ARIZ  040225161A002A34MWH24MWH30AQ80C000000
602AZ007171C8150004710340076620MESA                    ARIZ  040225161A003A27MWH30MWN20OK60 000000
602AZ007171C8150004710340076620MESA                    ARIZ  040225161A004C33MIH30MWN11ST81A000005                                                  32MWN11ST81A35MWN11ST81A33MWN11ST81A36MWN11ST81A43MWN11ST81A
602AZ007171C8150004710340076620MESA                    ARIZ  040225161B005ABBFIN19MIN90OF59 000000
602AZ007171C8150004710340076620MESA                    ARIZ  050910150A001A35MWN36MWN40OK45 000000
602AZ007171C8150004710340076620MESA                    ARIZ  061030150A001A45FWN40MWN12WI45 000000
602AZ007171C8150004710340076620MESA                    ARIZ  071211150A001A33MWN37MBN12ST81A000000
602AZ007171C8150004710340076620MESA                    ARIZ  071211150A002ABBMWN21MWN90SO99 000000
602AZ007171C8150004710340076620MESA                    ARIZ  071211150A003C21MIN19MIN40OF45 000002                                                  18MIN40OF45 21MIN40OF45
602AZ007171C8150004710340076620MESA                    ARIZ  081211150A001A23MWH22MWH13AQ44 000000
602AZ007171C8150004710340076620MESA                    ARIZ  081211150A002A25MWN53MWN12ST80C000000
602AZ007171C8150004710340076620MESA                    ARIZ  081211150A003A40FWH35FWH20IL99 000000
602AZ007171C8150004710340076620MESA                    ARIZ  081211150A004A24MWN21MWN12BR42 000000
602AZ007171C8150004710340076620MESA                    ARIZ  090127160A001A29MWN34MWH12AQ18 000000
602AZ007171C8150004710340076620MESA                    ARIZ  110307160A001A05MWN27FWN80SO60 000000
602AZ007171C8150004710340076620MESA                    ARIZ  110307160A002A89MWN87FWN12HU99 000000
602AZ007171C8150004710340076620MESA                    ARIZ  110307160A003C01FWN29FWN40DA26 000001                                                  27MWN40SD26
602AZ007171C8150004710340076620MESA                    ARIZ  120310160A001A47MWN31MWN12ST81A000000
602AZ007171C8150004710340076620MESA                    ARIZ  120310160A002C24MWN00MBU11OK18 000003                                                  17MBN11OK18 18MBN11OK18 19MWH11OK18
602AZ007212 8150001702220076620PEORIA                  ARIZ  030310160A001A48FWN43MWN12ST81A000000
602AZ007212 8150001702220076620PEORIA                  ARIZ  050910150A002A21MWN46MWN90ST99 000000
602AZ007212 8150001702220076620PEORIA                  ARIZ  070225161B001A79MWH62MWN90OK59 000000
602AZ007212 8150001702220076620PEORIA                  ARIZ  090127160B001A81MWN77MWN90AQ59 000000
602AZ007231A8150015597440076620PHOENIX                 ARIZ  011222161A001B16MWN00UUU11UN99 000000
602AZ007231A8150015597440076620PHOENIX                 ARIZ  011222161A002B45FWH00UUU30UN99 000000
602AZ007231A8150015597440076620PHOENIX                 ARIZ  011222161A003B30MBN00UUU12UN45 000000
602AZ007231A8150015597440076620PHOENIX                 ARIZ  011222161A004A01FWH26MWH30ST26 000000
602AZ007231A8150015597440076620PHOENIX                 ARIZ  011222161A005B33MWH00UUU12UN18 000000
602AZ007231A8150015597440076620PHOENIX                 ARIZ  011222161A006B33MBN00UUU12UN18 000000
602AZ007231A8150015597440076620PHOENIX                 ARIZ  011222161A007B27MBN00UUU12UN99 000000
602AZ007231A8150015597440076620PHOENIX                 ARIZ  011222161A008A26MIN41MWU13ST81D000000
602AZ007231A8150015597440076620PHOENIX                 ARIZ  011222161A009A29MWH66MWN12ST80C000000
602AZ007231A8150015597440076620PHOENIX                 ARIZ  011222161A010A28MWH26MWH20BR80C000000
602AZ007231A8150015597440076620PHOENIX                 ARIZ  020814150A001B23MWN00UUU11UN99 000000
602AZ007231A8150015597440076620PHOENIX                 ARIZ  020814150A002B53MWN00UUU14UN03 000000
602AZ007231A8150015597440076620PHOENIX                 ARIZ  020814150A003A31MWH29MWH12UN45 000000
602AZ007231A8150015597440076620PHOENIX                 ARIZ  020814150A004B39MWN00UUU30UN99 000000
602AZ007231A8150015597440076620PHOENIX                 ARIZ  020814150A005C20MIN16FWH11UN18 000002                                                  19MWH11UN18 20MWH11UN18
602AZ007231A8150015597440076620PHOENIX                 ARIZ  020814150A006A25MWH20MWN12AQ80C000000
602AZ007231A8150015597440076620PHOENIX                 ARIZ  030814150A001B42MWN00UUU11UN18 000000
602AZ007231A8150015597440076620PHOENIX                 ARIZ  030814150A002A73FWN78MWN30WI49 000000
602AZ007231A8150015597440076620PHOENIX                 ARIZ  030814150A003A29MWH33MWH20ST99 000000
602AZ007231A8150015597440076620PHOENIX                 ARIZ  030814150A004A53MWN21MIN20ST70 000000
602AZ007231A8150015597440076620PHOENIX                 ARIZ  030814150A005A19MIN18MIN20OK45 000000
602AZ007231A8150015597440076620PHOENIX                 ARIZ  030814150A006A40MWH40MBN12OK18 000000
602AZ007231A8150015597440076620PHOENIX                 ARIZ  030814150A007B45FWN00UUU12UN99 000000
602AZ007231A8150015597440076620PHOENIX                 ARIZ  030814150A008A28MWN38MWN12ST80C000000
602AZ007231A8150015597440076620PHOENIX                 ARIZ  030814150A009A29MWU52MWN13ST81A000000
602AZ007231A8150015597440076620PHOENIX                 ARIZ  040910150A001BNBFBN00UUU30UN99 000000
602AZ007231A8150015597440076620PHOENIX                 ARIZ  040910150A002A35MWN40MWH20AQ45 000000
602AZ007231A8150015597440076620PHOENIX                 ARIZ  040910150A004B30MBN00UUU12UN99 000000
602AZ007231A8150015597440076620PHOENIX                 ARIZ  040910150A005A20MBN18MWH12AQ46 000000
602AZ007231A8150015597440076620PHOENIX                 ARIZ  040910150A006A21MWN21MBN12ST80C000000
602AZ007231A8150015597440076620PHOENIX                 ARIZ  040910150A007D56MWN50MWN12OF45 00200076MWN38MWN
602AZ007231A8150015597440076620PHOENIX                 ARIZ  040910150A008A38MWN23MWN11UN45 000000
602AZ007231A8150015597440076620PHOENIX                 ARIZ  040910150A009A41MWH34MWN12ST81A000000
602AZ007231A8150015597440076620PHOENIX                 ARIZ  040910150A010A46MWN35MWN12ST03 000000
602AZ007231A8150015597440076620PHOENIX                 ARIZ  040910150A011A31FWN34MWN12WI40 000000
602AZ007231A8150015597440076620PHOENIX                 ARIZ  040910150A013A39MWN32MWN12ST45 000000
602AZ007231A8150015597440076620PHOENIX                 ARIZ  040910150A014B34MBN00UUU12UN99 000000
602AZ007231A8150015597440076620PHOENIX                 ARIZ  040910150A015A42MWH27MWH20FR46 000000
602AZ007231A8150015597440076620PHOENIX                 ARIZ  040910150A016B24MBN00UUU12UN99 000000
602AZ007231A8150015597440076620PHOENIX                 ARIZ  051222161A001A18MWH25MWH12OF18 000000
602AZ007231A8150015597440076620PHOENIX                 ARIZ  051222161A002A24MWH22FWH12BF45 000000
602AZ007231A8150015597440076620PHOENIX                 ARIZ  051222161A003B22MBN00UUU12UN18 000000
602AZ007231A8150015597440076620PHOENIX                 ARIZ  051222161A004B40MWH00UUU12UN99 000000
602AZ007231A8150015597440076620PHOENIX                 ARIZ  051222161A005F36MAN00UUU12UN99 00100049MAN
602AZ007231A8150015597440076620PHOENIX                 ARIZ  051222161A006B32MWH00UUU12UN18 000000
602AZ007231A8150015597440076620PHOENIX                 ARIZ  051222161A007A49MWH35MWH12AQ45 000000
602AZ007231A8150015597440076620PHOENIX                 ARIZ  060914150A002A61FWN67MWN85WI26 000000
602AZ007231A8150015597440076620PHOENIX                 ARIZ  060914150A003B27MWH00UUU12UN45 000000
602AZ007231A8150015597440076620PHOENIX                 ARIZ  060914150A007B24MBN00UUU12UN44 000000
602AZ007231A8150015597440076620PHOENIX                 ARIZ  060914150A008A21MBN31MWH12UN18 000000
602AZ007231A8150015597440076620PHOENIX                 ARIZ  060914150A009B27MWN00UUU12UN45 000000
602AZ007231A8150015597440076620PHOENIX                 ARIZ  060914150A010A30MBN26MBN12AQ45 000000
602AZ007231A8150015597440076620PHOENIX                 ARIZ  060914150A011A20MBN19MWN20NE45 000000
602AZ007231A8150015597440076620PHOENIX                 ARIZ  071030150A001A31MBN16MBN30UN18 000000
602AZ007231A8150015597440076620PHOENIX                 ARIZ  071030150A002A52MWN33MWN12AQ44 000000
602AZ007231A8150015597440076620PHOENIX                 ARIZ  071030150A003A23MWN23MWN12AQ45 000000
602AZ007231A8150015597440076620PHOENIX                 ARIZ  071030150A004A68MWN44MWN12ST81A000000
602AZ007231A8150015597440076620PHOENIX                 ARIZ  071030150A005B57MWN00UUU12UN99 000000
602AZ007231A8150015597440076620PHOENIX                 ARIZ  071030150A006B50MWH00UUU11UN18 000000
602AZ007231A8150015597440076620PHOENIX                 ARIZ  071030150A007B38MWH00UUU12UN99 000000
602AZ007231A8150015597440076620PHOENIX                 ARIZ  071030150A008A34MBN52MBN90OK45 000000
602AZ007231A8150015597440076620PHOENIX                 ARIZ  071030150A009A46MWN52MWN12ST81A000000
602AZ007231A8150015597440076620PHOENIX                 ARIZ  071030150A010A31MBN46MWH20ST45 000000
602AZ007231A8150015597440076620PHOENIX                 ARIZ  071030150A012A22FWN26MWN12OK45 000000
602AZ007231A8150015597440076620PHOENIX                 ARIZ  071030150A013A49FWN43MWN20GF99 000000
602AZ007231A8150015597440076620PHOENIX                 ARIZ  080225160A001A57MWH43MWH30ST45 000000
602AZ007231A8150015597440076620PHOENIX                 ARIZ  080225160A002A32MWH41MWH12ST45 000000
602AZ007231A8150015597440076620PHOENIX                 ARIZ  080225160A003B35MWN00UUU12UN99 000000
602AZ007231A8150015597440076620PHOENIX                 ARIZ  080225160A004A34MWN35MWN12AQ80C000000
602AZ007231A8150015597440076620PHOENIX                 ARIZ  080225160A005B41MWH00UUU12UN18 000000
602AZ007231A8150015597440076620PHOENIX                 ARIZ  080225160A006B61MWH00UUU12UN99 000000
602AZ007231A8150015597440076620PHOENIX                 ARIZ  080225160A007D45FWH17MWH12FR18 00100025MWH
602AZ007231A8150015597440076620PHOENIX                 ARIZ  080225160A008A18MBN21MBN12AQ45 000000
602AZ007231A8150015597440076620PHOENIX                 ARIZ  080225160A009A26MWH32MWH12ST45 000000
602AZ007231A8150015597440076620PHOENIX                 ARIZ  080225160A011A45MWN42MWN13ST81A000000
602AZ007231A8150015597440076620PHOENIX                 ARIZ  080225160A012A43MWH38MWH12ST80C000000
602AZ007231A8150015597440076620PHOENIX                 ARIZ  090307160A002A68MWN36FWH12EE26 000000
602AZ007231A8150015597440076620PHOENIX                 ARIZ  090307160A003B41MBN00UUU12UN46 000000
602AZ007231A8150015597440076620PHOENIX                 ARIZ  090307160A004B23MBN00UUU12UN99 000000
602AZ007231A8150015597440076620PHOENIX                 ARIZ  090307160A005A31MWN29MBU12ST45 000000
602AZ007231A8150015597440076620PHOENIX                 ARIZ  090307160A006B42MWH00UUU20UN03 000000
602AZ007231A8150015597440076620PHOENIX                 ARIZ  090307160A007A21MBN75MBN12FR80C000000
602AZ007231A8150015597440076620PHOENIX                 ARIZ  090307160A008B20MBN00UUU20UN80C000000
602AZ007231A8150015597440076620PHOENIX                 ARIZ  090307160A009A19MWH21MWH12FA26 000000
602AZ007231A8150015597440076620PHOENIX                 ARIZ  090307160A010B78MIN00UUU13UN99 000000
602AZ007231A8150015597440076620PHOENIX                 ARIZ  090307160A011B25MBN00UUU12UN99 000000
602AZ007231A8150015597440076620PHOENIX                 ARIZ  101222161A002A75FWN45MWN30MO45 000000
602AZ007231A8150015597440076620PHOENIX                 ARIZ  101222161A003B25MBN00UUU12UN99 000000
602AZ007231A8150015597440076620PHOENIX                 ARIZ  101222161A004A31FBN24MWN12GF99 000000
602AZ007231A8150015597440076620PHOENIX                 ARIZ  101222161A005A18MBN18MWN12UN18 000000
602AZ007231A8150015597440076620PHOENIX                 ARIZ  101222161A006A28FWH26FBN12UN99 000000
602AZ007231A8150015597440076620PHOENIX                 ARIZ  101222161A007B36MBN00UUU11UN99 000000
602AZ007231A8150015597440076620PHOENIX                 ARIZ  101222161A008B41MBN00UUU12UN45 000000
602AZ007231A8150015597440076620PHOENIX                 ARIZ  101222161A009A30MWH50MWH12UN80E000000
602AZ007231A8150015597440076620PHOENIX                 ARIZ  101222161A010B23MBN00UUU11UN99 000000
602AZ007231A8150015597440076620PHOENIX                 ARIZ  110307160A001B24MWH00UUU11UN45 000000
602AZ007231A8150015597440076620PHOENIX                 ARIZ  110307160A002A23MBN31MBN20AQ45 000000
602AZ007231A8150015597440076620PHOENIX                 ARIZ  110307160A003B24MWH00UUU20UN46 000000
602AZ007231A8150015597440076620PHOENIX                 ARIZ  110307160A004A60FWN43MWN20AQ99 000000
602AZ007231A8150015597440076620PHOENIX                 ARIZ  110307160A005A18MWH18MWH12AQ46 000000
602AZ007231A8150015597440076620PHOENIX                 ARIZ  110307160A006F19MWH00UUU12UN99 00100031MWH
602AZ007231A8150015597440076620PHOENIX                 ARIZ  110307160A007B21MWN00UUU12UN99 000000
602AZ007231A8150015597440076620PHOENIX                 ARIZ  110307160A008A31MBN24MWH11AQ45 000000
602AZ007231A8150015597440076620PHOENIX                 ARIZ  110307160A009B50MWH00UUU11UN99 000000
602AZ007231A8150015597440076620PHOENIX                 ARIZ  120310160A001B33MBN00UUU12UN99 000000
602AZ007231A8150015597440076620PHOENIX                 ARIZ  120310160A002A19FWN25MWN90OK45 000000
602AZ007231A8150015597440076620PHOENIX                 ARIZ  120310160A003B18MBN00UUU11UN99 000000
602AZ007231A8150015597440076620PHOENIX                 ARIZ  120310160A004B25MWH00UUU11UN99 000000
602AZ007231A8150015597440076620PHOENIX                 ARIZ  120310160A006A37MWH41MIN30ST45 000000
602AZ007231A8150015597440076620PHOENIX                 ARIZ  120310160A007A30FWN36MWN20WI45 000000
602AZ007231A8150015597440076620PHOENIX                 ARIZ  120310160A008A21MWN21MWN20FR99 000000
602AZ007231A8150015597440076620PHOENIX                 ARIZ  120310160A009B26MBN00UUU12UN99 000000
602AZ007231A8150015597440076620PHOENIX                 ARIZ  120310160A010B41MWN00UUU20UN99 000000
602AZ007231A8150015597440076620PHOENIX                 ARIZ  120310160A012A41MWN42MWN12ST81A000000
602AZ007231A8150015597440076620PHOENIX                 ARIZ  120310160A013A20FBN40FBN11UN45 000000
602AZ007231A8150015597440076620PHOENIX                 ARIZ  120310160A014B43MBN00UUU11UN99 000000
602AZ007231A8150015597440076620PHOENIX                 ARIZ  120310160A015B26MWN00UUU12UN99 000000
602AZ007231A8150015597440076620PHOENIX                 ARIZ  120310160A016A18MBN18MBN12UN80C000000
602AZ007252 8150002338720076620SCOTTSDALE              ARIZ  020818150A001A33FWN46MWN12WI45 000000
602AZ007252 8150002338720076620SCOTTSDALE              ARIZ  020818150A002B31FWN00UUU40UN99 000000
602AZ007252 8150002338720076620SCOTTSDALE              ARIZ  020818150A003A39MWN36MWN40ST45 000000
602AZ007252 8150002338720076620SCOTTSDALE              ARIZ  030812150B001C01FWN23FWN50DA59 000002                                                  20MWN50DA59 68FWN50OK59
602AZ007252 8150002338720076620SCOTTSDALE              ARIZ  040814150B001A52MWN45MWN12NE59 000000
602AZ007252 8150002338720076620SCOTTSDALE              ARIZ  090127160A001A73FWN74MWN14WI45 000000
602AZ007272 8150001285250076620SURPRISE                ARIZ  050910150A001C03FWH28MWH90DA70 000001                                                  36FWH90DA70
602AZ007272 8150001285250076620SURPRISE                ARIZ  081211150A001A53MWN21MWN20FA99 000000
602AZ007272 8150001285250076620SURPRISE                ARIZ  110307160B001A49MWN17MWN40FA59 000000
602AZ007292 8150001755560076620TEMPE                   ARIZ  020910150A001C28MWH00MWU12ST81F000001                                                  00MWU12ST81F
602AZ007292 8150001755560076620TEMPE                   ARIZ  030812150A001C26MWN32MWN12ST81B000001                                                  56MWN12ST81B
602AZ007292 8150001755560076620TEMPE                   ARIZ  040814150A001A40MWH39MWH12AQ40 000000
602AZ007292 8150001755560076620TEMPE                   ARIZ  050910150A001A51MWN32MIN30OK44 000000
602AZ007292 8150001755560076620TEMPE                   ARIZ  100225160A001A43MIN23MIN12AQ60 000000
602AZ007292 8150001755560076620TEMPE                   ARIZ  100225160A002D24FBN26MBN85WI45 00300003MBN02MBN01FBN
602AZ007292 8150001755560076620TEMPE                   ARIZ  120310160A001A34MWN22MUU12ST81A000000
602AZ007897 815000000000   6621SALT RIVER TRIBAL       ARIZ  030223161A001A37MIN51MIN20OF42 000000
602AZ008009B8150000785460084191MOHAVE                  ARIZ  080127160A001A57FWN77MWN12GF45 000000
602AZ008009B8150000785460084191MOHAVE                  ARIZ  100225160A001A70MWN24MWN20AQ45 000000
602AZ008014 8150000286510084190KINGMAN                 ARIZ  030812150A001A31MWN26MWN12ST81B000000
602AZ008014 8150000286510084190KINGMAN                 ARIZ  071030150A001A61MWN28MWN20AQ99 000000
602AZ008054 8150000393190084191BULLHEAD CITY           ARIZ  050910150A001A60MWN37MWN12AQ45 000000
602AZ009016 815000005007009   0HOLBROOK                ARIZ  040814150A001A27MIN23MIN20BR45 000000
602AZ010009A8150003651930109061PIMA                    ARIZ  040814150A001A50FWU62MWU80WI45 000000
602AZ010009A8150003651930109061PIMA                    ARIZ  060914150A001A47MWH16MWH20OK44 000000
602AZ010009A8150003651930109061PIMA                    ARIZ  060914150A002A02FWH24MWU75DA99 000000
602AZ010009A8150003651930109061PIMA                    ARIZ  081211150A001C57MWU29FWU90AQ18 000001                                                  43MWU90AQ18
602AZ010009A8150003651930109061PIMA                    ARIZ  100225160A001A26MWH00MUU11UN03 000000
602AZ010009A8150003651930109061PIMA                    ARIZ  100225160A002A34MWU32MWU12BR44 000000
602AZ010009A8150003651930109061PIMA                    ARIZ  120310160A001A36MWUNBMWU12ST70 000000
602AZ010009A8150003651930109061PIMA                    ARIZ  120310160A002B71MWU00UUU11UN99 000000
602AZ010009A8150003651930109061PIMA                    ARIZ  120310160A003D05FWU37MWU12DA26 00100008FWU
602AZ010016 8150000057490109061SOUTH TUCSON            ARIZ  050307160A001B33MWH00UUU11UN26 000000
602AZ010016 8150000057490109061SOUTH TUCSON            ARIZ  060307160A001A63MWN57MBU20UN80A000000
602AZ010016 8150000057490109061SOUTH TUCSON            ARIZ  100307160A001B26MWH00UUU12UN99 000000
602AZ010031B8150005296750109060TUCSON                  ARIZ  010714150A001A24MBN22MBN12BR45 000000
602AZ010031B8150005296750109060TUCSON                  ARIZ  010714150A002B58MWN00UUU90UN99 000000
602AZ010031B8150005296750109060TUCSON                  ARIZ  010714150A003D42FWN44MWN90AQ99 00100058MWN
602AZ010031B8150005296750109060TUCSON                  ARIZ  020818150A001B32FWH00UUU11UN99 000000
602AZ010031B8150005296750109060TUCSON                  ARIZ  020818150A002A59MWN52MWN20UN99 000000
602AZ010031B8150005296750109060TUCSON                  ARIZ  020818150A003A28FWH28MWH12ST81A000000
602AZ010031B8150005296750109060TUCSON                  ARIZ  030812150A001A18MWN19MWN20AQ45 000000
602AZ010031B8150005296750109060TUCSON                  ARIZ  030812150A002A34MWH28MWH12AQ99 000000
602AZ010031B8150005296750109060TUCSON                  ARIZ  040814150A001A21MBN19MBN12BF99 000000
602AZ010031B8150005296750109060TUCSON                  ARIZ  050910150A001A64FWN54MWN12GF45 000000
602AZ010031B8150005296750109060TUCSON                  ARIZ  050910150A002B22MBN00UUU12UN46 000000
602AZ010031B8150005296750109060TUCSON                  ARIZ  050910150A003D17FWH25MWH12OF99 00300032MWH53FWH58MWH
602AZ010031B8150005296750109060TUCSON                  ARIZ  050910150A004B25MWH00UUU12UN99 000000
602AZ010031B8150005296750109060TUCSON                  ARIZ  060914150A001A25MBN27MWN12NE80C000000
602AZ010031B8150005296750109060TUCSON                  ARIZ  071030150A001A32FIN33FIN40OF46 000000
602AZ010031B8150005296750109060TUCSON                  ARIZ  071030150A002A32FWN48MWN12GF99 000000
602AZ010031B8150005296750109060TUCSON                  ARIZ  071030150A003A26MWN29MWH11UN99 000000
602AZ010031B8150005296750109060TUCSON                  ARIZ  081211150A001C29MWH27MWN12ST81A000001                                                  37MWN12ST81A
602AZ010031B8150005296750109060TUCSON                  ARIZ  081211150A002A25MWH00MBN12UN42 000000
602AZ010031B8150005296750109060TUCSON                  ARIZ  081211150A003A27MWN18FWN20AQ44 000000
602AZ010031B8150005296750109060TUCSON                  ARIZ  081211150A004A40MWH31MWN12ST81A000000
602AZ010031B8150005296750109060TUCSON                  ARIZ  090127160A001B42MBN00UUU12UN99 000000
602AZ010031B8150005296750109060TUCSON                  ARIZ  090127160A002B42MWN00UUU12UN99 000000
602AZ010031B8150005296750109060TUCSON                  ARIZ  090127160A003A24MWN19MBN12ST45 000000
602AZ010031B8150005296750109060TUCSON                  ARIZ  090127160A004A34MAN29MBN12AQ45 000000
602AZ010031B8150005296750109060TUCSON                  ARIZ  100225160A001C20MWN00MWH12UN03 000003                                                  00MBN12UN03 00MBN12UN03 00MBN12UN03
602AZ010031B8150005296750109060TUCSON                  ARIZ  110307160A001A66MWN30FWN90BF40 000000
602AZ010031B8150005296750109060TUCSON                  ARIZ  110307160A002A73MUU19MBN30ST03 000000
602AZ010031B8150005296750109060TUCSON                  ARIZ  110307160A003A47FBN41FBN40AQ40 000000
602AZ010031B8150005296750109060TUCSON                  ARIZ  110307160A004A46FWH52MWN40GF99 000000
602AZ010031B8150005296750109060TUCSON                  ARIZ  110307160A005A72MWN43MWN20SF45 000000
602AZ010031B8150005296750109060TUCSON                  ARIZ  120310160A001A48MIN54MWN12ST80C000000
602AZ010094 8150000413020109061MARANA                  ARIZ  020818150A001A55MWU30MWH12ST81A000000
602AZ010094 8150000413020109061MARANA                  ARIZ  030812150A001A22MWN23MWN12FR26 000000
602AZ011009A8150002063110116621PINAL                   ARIZ  020225160A001A37MWH00MWN12ST81A000000
602AZ011009A8150002063110116621PINAL                   ARIZ  050225160A001A44MWU35MWU12UN81A000000
602AZ011009A8150002063110116621PINAL                   ARIZ  060225160B001D43FWN38MWH11AQ59 00100044MWN
602AZ011009A8150002063110116621PINAL                   ARIZ  070225160B001A15MWN37MWN70OF59 000000
602AZ011009A8150002063110116621PINAL                   ARIZ  090225160B001A37MWH40MWH90UN59 000000
602AZ011009A8150002063110116621PINAL                   ARIZ  110307160B001A03FWN45FWN90OK59 000000
602AZ011009A8150002063110116621PINAL                   ARIZ  120310160B001A53FWN54FWN11HO59 000000
602AZ011013 8150000519180116620CASA GRANDE             ARIZ  020910150A001A53MWN24MWN15UN99 000000
602AZ011013 8150000519180116620CASA GRANDE             ARIZ  090127160A001A34MWH26FWN12BF99 000000
602AZ011055 8150000166780116621ELOY                    ARIZ  081211150A001A21MIN41MWN80OK48 000000
602AZ011074 8150000269260116621FLORENCE                ARIZ  020812150A001B56MWN00UUU90UN99 000000
602AZ011097 8150000020240116621KEARNY                  ARIZ  050910150A001A35MWN00MWN12ST81A000000
602AZ011157 815000000000   6621GILA RIVER INDIAN COMNTYARIZ  040223160A001B61FIN00UUU30UN26 000000
602AZ011157 815000000000   6621GILA RIVER INDIAN COMNTYARIZ  070223160A001A28FIN25MIN12GF60 000000
602AZ011174 8150000481930116621MARICOPA                ARIZ  010714150A001A46FIN59FIN90DA60 000000
602AZ011174 8150000481930116621MARICOPA                ARIZ  080225160A001A53FWN38FWN90HO26 000000
602AZ013009B8150000923810136881YAVAPAI                 ARIZ  030225160A001A35FWH44MWH90GF99 000000
602AZ013035 8150000116780136881COTTONWOOD              ARIZ  110307160A001A41FWN41MWN30MO99 000000
602AZ013035 8150000116780136881COTTONWOOD              ARIZ  120310160A001A27MBN23MWN12AQ80E000000
602AZ013074 8150000413930136880PRESCOTT                ARIZ  010714150A001D75FWN51MWN30MO45 00100047FWN
602AZ013074 8150000413930136880PRESCOTT                ARIZ  020818150A001A45MWN51MWN30OK99 000000
602AZ013074 8150000413930136880PRESCOTT                ARIZ  120310160A001C55MWH48MWU30OK99 000002                                                  53MWN90OK99 52MWN90OK99
602AZ013114 8150000416610136881PRESCOTT VALLEY         ARIZ  100225160A001A46MWN25MWN13AQ45 000000
602AZ013125 8150000110720136881CHINO VALLEY            ARIZ  080225160A001A57FWN54MWN12WI45 000000
602AZ013135 8150000111550136881CAMP VERDE              ARIZ  021030150A001A29MWN31MWN20AQ99 000000
602AZ014009B8150000614690149921YUMA                    ARIZ  050110170A001A47MW 20MW 12FA99 000000
602AZ014009B8150000614690149921YUMA                    ARIZ  070110170A001C63FW 20MW 90ST43 000001                                                  19MW 90ST43
602AZ014009B8150000614690149921YUMA                    ARIZ  070110170A002A21MW 26MW 90IL99 000000
602AZ014053 8150000939230149920YUMA                    ARIZ  020110170A001B20MW 00UU 11UN99 000000
602AZ014053 8150000939230149920YUMA                    ARIZ  030110170A001A62MW 25MW 20FA45 000000
602AZ014053 8150000939230149920YUMA                    ARIZ  090110170A001C29MW 24MI 12OK45 000002                                                  26MW 12OK45 37FI 12OK45
602AZ014053 8150000939230149920YUMA                    ARIZ  100110170A001D18MW 27MW 11BR60 00100018MW
602AZ014084 8150000318070149921SAN LUIS                ARIZ  110307160B001A37MWH26MWH30AQ59 000000
602AZDI0627 815000000000      0FORT APACHE AGENCY      ARIZ  050223160A001A49MIN50MIN20AQ42 000000
602AZDI0627 815000000000      0FORT APACHE AGENCY      ARIZ  050223160A002A20FIN22MIN20AQ42 000000
603AR003008C715000024165003   0BAXTER                  ARK   070110170A001A47FW 57MW 13GF45 000000
603AR003008C715000024165003   0BAXTER                  ARK   110110170A001E75MW 24MA 11UN99 00100271FW                                              23MW 11UN99 20FW 11UN99
603AR004009B7150000478080042701BENTON                  ARK   040110170A001A53MW 26MW 12AQ45 000000
603AR004009B7150000478080042701BENTON                  ARK   050110170A001A36FW 48MW 20GF02 000000
603AR004009B7150000478080042701BENTON                  ARK   100110170A001A52MW 34FW 90AQ18 000000
603AR004014 7150000431900042700BENTONVILLE             ARK   110110170A001A47MW 31MW 40OK99 000000
603AR004023 7150000628190042700ROGERS                  ARK   070110170A001A31FW 30MW 12CW99 000000
603AR004214 7150000279700042701BELLA VISTA             ARK   030110170A001C06MW 45MW 90SO02 000003                                                  43FW 90SO02 45MW 90UN02 43FW 90UN02
603AR005008C715000024093005   0BOONE                   ARK   020110170A001A21FW 27MB 12GF99 000000
603AR005008C715000024093005   0BOONE                   ARK   100110170A001D61FW 35MW 13SM45 00100060MW
603AR005015 715000013179005   0HARRISON                ARK   080110170A001A40MW 29FW 50BF45 000000
603AR007008D715000003904007   0CALHOUN                 ARK   020110170A001A55FW 53MW 12WI45 000000
603AR009027 715000002105009   0EUDORA                  ARK   080110170A001B30MB 00UU 11UN99 000000
603AR012016 715000007164012   0HEBER SPRINGS           ARK   040110170A001C54FW 19MB 20UN99 000001                                                  21FW 20UN99
603AR014015 715000011414014   0MAGNOLIA                ARK   060110170A001A30MB 20MB 12AQ45 000000
603AR015008C715000013193015   0CONWAY                  ARK   050110170A001A71MW 58MW 90UN26 000000
603AR015008C715000013193015   0CONWAY                  ARK   050110170A002C18MW 18MW 20UN45 000001                                                  22MW 20UN45
603AR016009C7150000180670163961CRAIGHEAD               ARK   070110170A001A90FW 30MW 12UN03 000000
603AR016013 7150000734040163960JONESBORO               ARK   050110170A001B29MW 00UU 11UN99 000000
603AR016013 7150000734040163960JONESBORO               ARK   050110170A002C28MB 21FB 12AQ60 000001                                                  18MB 12AQ60
603AR016013 7150000734040163960JONESBORO               ARK   110110170A001C30MB 18FB 12AQ03 000003                                                  21MB 12AQ03 18MB 12AQ03 18MB 12UN03
603AR016013 7150000734040163960JONESBORO               ARK   120110170A001C24FB 22MB 11OK05 000001                                                  19MB 11OK05
603AR017015 7150000231320172851VAN BUREN               ARK   110110170A001A55MW 56MW 14BR45 000000
603AR018009D7150000093830185191CRITTENDEN              ARK   010110170A001C43MB 50MB 90UN60 000001                                                  50MB 90UN60
603AR018009D7150000093830185191CRITTENDEN              ARK   010110170A002A50MB 31MB 90UN99 000000
603AR018009D7150000093830185191CRITTENDEN              ARK   010110170A003A50MB 28MB 90UN99 000000
603AR018014 7150000252180185191WEST MEMPHIS            ARK   010110170A001A00FB 21MB 90DA60 000000
603AR018014 7150000252180185191WEST MEMPHIS            ARK   010110170A002C19MB 20MB 20HO45 000001                                                  20MB 20UN45
603AR018014 7150000252180185191WEST MEMPHIS            ARK   050110170A001A62MW 35MW 90FR45 000000
603AR018014 7150000252180185191WEST MEMPHIS            ARK   060110170A001A29MB 29MB 11UN99 000000
603AR018014 7150000252180185191WEST MEMPHIS            ARK   060110170A002C25MB 25MB 11AQ60 000001                                                  23MB 11UN60
603AR018014 7150000252180185191WEST MEMPHIS            ARK   120110170A001A41MB 19MB 12UN99 000000
603AR019016 715000008098019   0WYNNE                   ARK   020110170A001C36MB 20MB 11FR60 000004                                                  20MB 11UN60 20MB 11UN60 00MB 11UN60 19MB 11UN60
603AR021016 715000003980021   0MCGEHEE                 ARK   080110170A001C05MB 30FB 90UN99 000001                                                  30FB 90UN99
603AR021036 715000004370021   0DUMAS                   ARK   020110170A001C17MB 20MB 11AQ99 000001                                                  20MB 11UN99
603AR021036 715000004370021   0DUMAS                   ARK   060110170A001D18MB 32MB 11OK99 00100018MB
603AR022016 715000009712022   0MONTICELLO              ARK   090110170A001A46MB 40MB 12UN45 000000
603AR023009B7150000436720234691FAULKNER                ARK   020110170A001B25MU 00UU 90UN26 000000
603AR023009B7150000436720234691FAULKNER                ARK   060110170A001A49MW 44MW 30OK99 000000
603AR023013 7150000657640234690CONWAY                  ARK   060110170A001C29MW 29MB 20AQ45 000002                                                  27FB 20OK45 25MW 20OK45
603AR023013 7150000657640234690CONWAY                  ARK   070110170A001E66MW 14MW 13OF99 00100566FW                                              17MW 13OK99 17MW 13OK99 17FW 13OK99 36FW 13OK99 58MW 13OK99
603AR024027 715000002494024   0CHARLESTON              ARK   060110170A001A40MW 63MW 11OF45 000000
603AR026014 7150000357830263560HOT SPRINGS             ARK   010110170A001A21MW 27MB 12OK18 000000
603AR026014 7150000357830263560HOT SPRINGS             ARK   090110170A001C31MW 20MB 12AQ45 000002                                                  22FB 12AQ45 17MB 12AQ45
603AR026014 7150000357830263560HOT SPRINGS             ARK   100110170A001C58MW 35MW 12UN99 000001                                                  23MB 12UN99
603AR026014 7150000357830263560HOT SPRINGS             ARK   100110170A002A28FW 29MB 12OK45 000000
603AR026014 7150000357830263560HOT SPRINGS             ARK   110110170A001ABBMU 35MB 40SO99 000000
603AR028014 715000027791028   0PARAGOULD               ARK   070110170A001B00MW 00UU 11UN99 000000
603AR029016 715000009986029   0HOPE                    ARK   050110170A001BBBFB 00UU 90UN99 000000
603AR029016 715000009986029   0HOPE                    ARK   070110170A001A24MB 17MB 12AQ99 000000
603AR032015 715000010534032   0BATESVILLE              ARK   110110170A001A33FW 38MW 12WI45 000000
603AR034016 715000007744034   0NEWPORT                 ARK   010110170A001A50MW 37MW 12AQ45 000000
603AR035009C7150000198640356641JEFFERSON               ARK   010110170A001A73MW 48MW 40FA45 000000
603AR035009C7150000198640356641JEFFERSON               ARK   060110170A001A84MW 53FW 30UN03 000000
603AR035014 7150000444660356640PINE BLUFF              ARK   030110170A001B32MB 00UU 12UN99 000000
603AR035014 7150000444660356640PINE BLUFF              ARK   040110170A001A28FB 38MB 12GF45 000000
603AR035014 7150000444660356640PINE BLUFF              ARK   050110170A001A19MB 15MB 12UN60 000000
603AR035014 7150000444660356640PINE BLUFF              ARK   060110170A001C46MU 00MB 12UN03 000002                                                  23MB 12UN03 18MB 12UN03
603AR035014 7150000444660356640PINE BLUFF              ARK   070110170A001A30MB 22MB 11OK18 000000
603AR035014 7150000444660356640PINE BLUFF              ARK   080110170A001B24MB 00UU 12UN99 000000
603AR035014 7150000444660356640PINE BLUFF              ARK   080110170A002B32MB 00UU 11UN99 000000
603AR035014 7150000444660356640PINE BLUFF              ARK   090110170A001B21MB 00UU 11UN05 000001                                                  00UU 11UN05
603AR035014 7150000444660356640PINE BLUFF              ARK   120110170A001B19MB 00UU 11UN99 000000
603AR035014 7150000444660356640PINE BLUFF              ARK   120110170A002B30MB 00UU 12UN99 000000
603AR036008C715000015008036   0JOHNSON                 ARK   050110170A001D45MW 51MW 13UN05 00100042MW
603AR042008C715000014484042   0LOGAN                   ARK   040110170A001C60MW 32MW 11AQ18 000001                                                  39MW 11AQ18
603AR043009B7150000288320434691LONOKE                  ARK   020110170A001A62UU 39MB 12UN99 000000
603AR043009B7150000288320434691LONOKE                  ARK   100110170A001A66MB 18MW 13ST26 000000
603AR043016 7150000027750434691ENGLAND                 ARK   010110170A001A44MW 71MW 11OF45 000000
603AR043046 7150000042620434691LONOKE                  ARK   020110170A001A63FB 39MB 12OF45 000000
603AR044009C7150000157510442701MADISON                 ARK   020110170A001A46MW 20MW 90UN42 000000
603AR044009C7150000157510442701MADISON                 ARK   050110170A001A49MW 69FW 13UN45 000000
603AR044009C7150000157510442701MADISON                 ARK   090110170A001B56MW 00UU 30UN26 000000
603AR046014 7150000300260468871TEXARKANA               ARK   070110170A001B40MW 00UU 90UN99 000000
603AR046014 7150000300260468871TEXARKANA               ARK   090110170A001A22MW 49MB 12UN99 000000
603AR046014 7150000300260468871TEXARKANA               ARK   110110170A001E22MW 33MB 12UN03 00100433MB                                              27MB 12UN03 27MB 12UN03 00UU 12UN03 00MB 12UN03
603AR047015 715000014717047   0BLYTHEVILLE             ARK   020110170A001A54MW 52MW 12AQ45 000000
603AR047015 715000014717047   0BLYTHEVILLE             ARK   040110170A001A42MB 17MB 11UN99 000000
603AR047015 715000014717047   0BLYTHEVILLE             ARK   050110170A001A20MB 20MB 12UN45 000000
603AR047015 715000014717047   0BLYTHEVILLE             ARK   050110170A002A17MB 18MB 11OK99 000000
603AR047015 715000014717047   0BLYTHEVILLE             ARK   060110170A001C20MB 18MB 11UN99 000001                                                  17MB 11UN99
603AR047015 715000014717047   0BLYTHEVILLE             ARK   060110170A002C22MB 23MB 11UN60 000001                                                  25MB 11UN60
603AR047015 715000014717047   0BLYTHEVILLE             ARK   080110170A001A47MB 41MB 11UN99 000000
603AR047015 715000014717047   0BLYTHEVILLE             ARK   080110170A002A19FB 27MB 11OK99 000000
603AR047026 715000007222047   0OSCEOLA                 ARK   070110170A001A30MW 25MB 90UN99 000000
603AR054015 715000011101054   0HELENA-WEST HELENA      ARK   010110170A001C36MB 25MB 30AQ45 000004                                                  42MB 30AQ45 25MB 30UN45 20MB 30UN45 23MB 30UN45
603AR054015 715000011101054   0HELENA-WEST HELENA      ARK   050110170A001A64FB 53MB 90UN02 000000
603AR054015 715000011101054   0HELENA-WEST HELENA      ARK   070110170A001E38MB 23MB 11AQ45 00100138MB                                              22MB 11AQ45
603AR054015 715000011101054   0HELENA-WEST HELENA      ARK   070110170A002C24MB 21MB 12OF45 000002                                                  30MB 12UN45 21MB 12UN45
603AR054015 715000011101054   0HELENA-WEST HELENA      ARK   070110170A003B22MB 00UU 12UN45 000000
603AR058008B715000026698058   0POPE                    ARK   030110170A001A34FW 32MW 13WI60 000000
603AR058008B715000026698058   0POPE                    ARK   050110170A001A47MW 49FW 12HU99 000000
603AR058026 715000003055058   0ATKINS                  ARK   050110170A001C47MW 49FW 12UN99 000001                                                  49FW 12UN99
603AR060009B7150000499980604691PULASKI                 ARK   020110170A001A66MW 55MW 20AQ99 000000
603AR060009B7150000499980604691PULASKI                 ARK   020110170A002A77FB 55MB 40OF07 000000
603AR060014 7150000289020604691JACKSONVILLE            ARK   050110170A001A37MB 20MW 40FR45 000000
603AR060022 7150001986470604690LITTLE ROCK             ARK   010110170A001A50MW 52FW 20BR99 000000
603AR060022 7150001986470604690LITTLE ROCK             ARK   010110170A002C30MW 16MB 11UN60 000001                                                  17MB 11UN60
603AR060022 7150001986470604690LITTLE ROCK             ARK   020110170A001A56MW 24MB 11UN07 000000
603AR060022 7150001986470604690LITTLE ROCK             ARK   020110170A002A47MB 39MB 20UN99 000000
603AR060022 7150001986470604690LITTLE ROCK             ARK   020110170A003C24MB 25MB 11UN99 000001                                                  23MB 11UN99
603AR060022 7150001986470604690LITTLE ROCK             ARK   040110170A001A29MB 31MB 11UN99 000000
603AR060022 7150001986470604690LITTLE ROCK             ARK   040110170A002A55MB 25MB 11UN99 000000
603AR060022 7150001986470604690LITTLE ROCK             ARK   040110170A003A26MB 22MB 12UN99 000000
603AR060022 7150001986470604690LITTLE ROCK             ARK   040110170A004A00MB 22MB 12UN99 000000
603AR060022 7150001986470604690LITTLE ROCK             ARK   040110170A005C27MB 35MB 12UN99 000001                                                  00UU 12UN99
603AR060022 7150001986470604690LITTLE ROCK             ARK   050110170A001A33MB 34MB 11UN99 000000
603AR060022 7150001986470604690LITTLE ROCK             ARK   060110170A001A34FB 24MB 12UN45 000000
603AR060022 7150001986470604690LITTLE ROCK             ARK   060110170A002B38MB 00UU 40UN99 000000
603AR060022 7150001986470604690LITTLE ROCK             ARK   060110170A003A22MW 19MW 20UN99 000000
603AR060022 7150001986470604690LITTLE ROCK             ARK   070110170A001E25MB 25MB 11OK99 00100126MB                                              26MB 11UN99
603AR060022 7150001986470604690LITTLE ROCK             ARK   070110170A002C68MW 24MB 12UN06 000002                                                  27MB 12UN06 27FB 12UN06
603AR060022 7150001986470604690LITTLE ROCK             ARK   070110170A003A19MB 16MB 12UN99 000000
603AR060022 7150001986470604690LITTLE ROCK             ARK   080110170A001A54FB 58MB 12UN60 000000
603AR060022 7150001986470604690LITTLE ROCK             ARK   080110170A002B55MW 00UU 11UN45 000000
603AR060022 7150001986470604690LITTLE ROCK             ARK   080110170A003B62MB 00UU 14UN99 000000
603AR060022 7150001986470604690LITTLE ROCK             ARK   090110170A001A28MB 24MB 11UN60 000000
603AR060022 7150001986470604690LITTLE ROCK             ARK   090110170A002C37FB 24MA 90UN99 000001                                                  27FW 90UN99
603AR060022 7150001986470604690LITTLE ROCK             ARK   090110170A003A18MB 17MB 11UN60 000000
603AR060022 7150001986470604690LITTLE ROCK             ARK   090110170A004B38MB 00UU 11UN60 000000
603AR060022 7150001986470604690LITTLE ROCK             ARK   110110170A001A26MB 21MB 90UN45 000000
603AR060022 7150001986470604690LITTLE ROCK             ARK   110110170A002A34FW 37MB 40GF45 000000
603AR060022 7150001986470604690LITTLE ROCK             ARK   110110170A003B31MB 00UU 12UN99 000000
603AR060022 7150001986470604690LITTLE ROCK             ARK   110110170A004A33MB 28FB 20UN99 000000
603AR060022 7150001986470604690LITTLE ROCK             ARK   120110170A001A52MB 53MB 20UN45 000000
603AR060022 7150001986470604690LITTLE ROCK             ARK   120110170A002C22MB 21MB 11UN99 000001                                                  19FB 11UN99
603AR060022 7150001986470604690LITTLE ROCK             ARK   120110170A003A21MB 00MB 11UN99 000000
603AR060033 7150000679430604690NORTH LITTLE ROCK       ARK   020110170A001C17MB 27MB 12UN99 000001                                                  28MB 12UN99
603AR060033 7150000679430604690NORTH LITTLE ROCK       ARK   030110170A001A44MW 32MB 11UN99 000000
603AR060033 7150000679430604690NORTH LITTLE ROCK       ARK   040110170A001A51FB 26MB 20AQ99 000000
603AR060033 7150000679430604690NORTH LITTLE ROCK       ARK   040110170A002A25MB 38MB 11UN99 000000
603AR060033 7150000679430604690NORTH LITTLE ROCK       ARK   050110170A001A24MW 45MW 12AQ99 000000
603AR060033 7150000679430604690NORTH LITTLE ROCK       ARK   060110170A001B34MB 00UU 12UN99 000000
603AR060033 7150000679430604690NORTH LITTLE ROCK       ARK   060110170A002A36FB 36MB 12UN99 000000
603AR060033 7150000679430604690NORTH LITTLE ROCK       ARK   070110170A001A18MB 19MB 12UN03 000000
603AR060033 7150000679430604690NORTH LITTLE ROCK       ARK   070110170A002A25FB 26FB 12UN60 000000
603AR060033 7150000679430604690NORTH LITTLE ROCK       ARK   080110170A001A24MB 20MB 12AQ60 000000
603AR060033 7150000679430604690NORTH LITTLE ROCK       ARK   080110170A002A20MB 24MB 12AQ80E000000
603AR060033 7150000679430604690NORTH LITTLE ROCK       ARK   090110170A001A21FW 20MW 11GF99 000000
603AR060033 7150000679430604690NORTH LITTLE ROCK       ARK   090110170A002A22MB 19MB 11UN99 000000
603AR060044 7150000305720604691SHERWOOD                ARK   070110170A001A41MB 20MB 11UN45 000000
603AR060076 7150000028530604691ALEXANDER               ARK   100110170A001B71MW 00UU 90UN99 000000
603AR060076 7150000028530604691ALEXANDER               ARK   100110170A002B62MW 00UU 90UN99 000000
603AR060165 7150000179430604691MAUMELLE                ARK   020110170A001D27FW 41MW 12WI26 00100031FW
603AR061008C715000011035061   0RANDOLPH                ARK   110110170A001C48MW 54FW 14UN45 000001                                                  54FW 14UN45
603AR063014 7150000343560634691BENTON                  ARK   110110170A001A24FW 37MW 90ST43 000000
603AR064016 715000003404064   0WALDRON                 ARK   120110170A001A55FW 46MW 20UN45 000000
603AR066013 7150000876030662850FORT SMITH              ARK   010110170A001D23FW 24MW 20GF99 00100027MW
603AR066013 7150000876030662850FORT SMITH              ARK   020110170A001A57FW 44MW 90OK60 000000
603AR066013 7150000876030662850FORT SMITH              ARK   070110170A001A44MW 24MW 13ST60 000000
603AR066013 7150000876030662850FORT SMITH              ARK   070110170A002A20MW 53MW 14OK60 000000
603AR066036 7150000047250662851BARLING                 ARK   100110170A001A79FW 52MW 12UN45 000000
603AR070008C715000021665070   0UNION                   ARK   080110170A001A45MB 26MB 12FR99 000000
603AR070015 715000018229070   0EL DORADO               ARK   070110170A001C11MB 24MB 12UN99 000003                                                  20MB 12UN99 22MB 12UN99 31MB 12UN99
603AR070015 715000018229070   0EL DORADO               ARK   070110170A002A32MB 22FB 11UN99 000000
603AR070015 715000018229070   0EL DORADO               ARK   090110170A001D23MB 39MB 11UN99 00100024MB
603AR070015 715000018229070   0EL DORADO               ARK   110110170A001A32MB 40FB 12BF99 000000
603AR070015 715000018229070   0EL DORADO               ARK   120110170A001A53MB 28FB 20BF45 000000
603AR072013 7150000823770722700FAYETTEVILLE            ARK   080110170A001C24FW 27MW 30WI60 000004                                                  45MW 30FR60 29MW 30FR60 29FW 30FR60 36FW 30FR60
603AR072013 7150000823770722700FAYETTEVILLE            ARK   080110170A002A58MB 46MW 20AQ99 000000
603AR072013 7150000823770722700FAYETTEVILLE            ARK   090110170A001A28FW 33MW 12GF45 000000
603AR072013 7150000823770722700FAYETTEVILLE            ARK   100110170A001A25MB 31MB 20AQ45 000000
603AR072013 7150000823770722700FAYETTEVILLE            ARK   120110170A001A19MB 17MB 20AQ45 000000
603AR072047 7150000000000722701UNIV OF AR: FAYETTEVILLEARK   010110170A001A53MW 41MW 30AQ42 000000
603AR072086 7150000025520722701WEST FORK               ARK   100110170A001A73FW 70MW 11GF60 000000
603AR073008B715000036810073   0WHITE                   ARK   010110170A001C22MW 19MW 11AQ45 000001                                                  19MW 11AQ45
603AR073008B715000036810073   0WHITE                   ARK   100110170A001D40MW 57MW 14FR45 00100042FW
604CA001009A9150001486340017831ALAMEDA                 CALIF 060826151A001A18FBN21MBN12GF45 000000
604CA001009A9150001486340017831ALAMEDA                 CALIF 080328161A001A20FW 21MA 12GF99 000000
604CA001009A9150001486340017831ALAMEDA                 CALIF 090212161A001D57FWN33MWN30MO99 00100046MUU
604CA001009A9150001486340017831ALAMEDA                 CALIF 110212161A001A25MWH18MWH40OF45 000000
604CA001009A9150001486340017831ALAMEDA                 CALIF 120212161A001B35MBN00UUU11UN99 000000
604CA001013 9150000786130017830ALAMEDA                 CALIF 080212161A001B03FWN00UUU90UN99 000000
604CA001013 9150000786130017830ALAMEDA                 CALIF 120212161A001A73MBN54FBN12BF45 000000
604CA001025 9150000197230017831ALBANY                  CALIF 030714151A001B37FAN00UUU12UN99 000000
604CA001032 9150001203870017830BERKELEY                CALIF 100119161A001A24MBN24MBN12FR44 000000
604CA001045 9150000115490017831EMERYVILLE              CALIF 110315161A001A61FAN36MWH40ST99 000000
604CA001052 9150002324270017830FREMONT                 CALIF 010915151A001A48MUU35MWN11ST81A000000
604CA001052 9150002324270017830FREMONT                 CALIF 020714151A001C24MWH22FWH20ST42 000003                                                  22FWH20ST42 24MWH20ST42 21MWH20ST42
604CA001052 9150002324270017830FREMONT                 CALIF 080119161A001C54MWN38MWN11ST81A000001                                                  35MBN11ST81A
604CA001052 9150002324270017830FREMONT                 CALIF 090119161A001A64FBN31MBN12MO26 000000
604CA001062 9150001571570017830HAYWARD                 CALIF 020212161A002B51MWH00UUU11UN99 000000
604CA001062 9150001571570017830HAYWARD                 CALIF 020714151A001A42MWN60MWN90FR03 000000
604CA001062 9150001571570017830HAYWARD                 CALIF 040716151A001B27MWH00UUU11UN99 000000
604CA001062 9150001571570017830HAYWARD                 CALIF 040716151A002B22MWH00UUU11UN99 000000
604CA001062 9150001571570017830HAYWARD                 CALIF 071118151A001A48MWN21MWH12ST26 000000
604CA001062 9150001571570017830HAYWARD                 CALIF 071118151A002A66FWN31FWN30MO99 000000
604CA001062 9150001571570017830HAYWARD                 CALIF 081021151A001B17MBN00UUU12UN47 000000
604CA001062 9150001571570017830HAYWARD                 CALIF 091118151A001B33MBN00UUU11UN46 000000
604CA001062 9150001571570017830HAYWARD                 CALIF 101214151A001B25MAN00UUU12UN47 000000
604CA001062 9150001571570017830HAYWARD                 CALIF 120212161A001B31MBN00UUU11UN99 000000
604CA001073 9150000883160017830LIVERMORE               CALIF 030212161A001D31MWN29MWN12FR45 00100022MWN
604CA001073 9150000883160017830LIVERMORE               CALIF 100315161A001A25MWH25MBN11ST99 000000
604CA001084 9150000452580017831NEWARK                  CALIF 120212161A001A38FAN39MAN85WI45 000000
604CA001091C9150004194810017830OAKLAND                 CALIF 010714151A001C23MBN19MBN12ST03 000001                                                  26MBN12ST03
604CA001091C9150004194810017830OAKLAND                 CALIF 010714151A002B26MBN00UUU12UN99 000000
604CA001091C9150004194810017830OAKLAND                 CALIF 010714151A003B30MBN00UUU12UN99 000000
604CA001091C9150004194810017830OAKLAND                 CALIF 010714151A004B18FWH00UUU12UN99 000000
604CA001091C9150004194810017830OAKLAND                 CALIF 010714151A005A25MWN20MWH11ST99 000000
604CA001091C9150004194810017830OAKLAND                 CALIF 010714151A006A38MBN25MAN12ST99 000000
604CA001091C9150004194810017830OAKLAND                 CALIF 010714151A007D20MBN20MBN12ST99 00100019FBN
604CA001091C9150004194810017830OAKLAND                 CALIF 010714151A008E29MBN20MBN12ST99 00100122MBN                                             20MBN12ST99
604CA001091C9150004194810017830OAKLAND                 CALIF 020714151A001B37MBN00UUU12UN99 000000
604CA001091C9150004194810017830OAKLAND                 CALIF 020714151A002B33MWH00UUU12UN99 000000
604CA001091C9150004194810017830OAKLAND                 CALIF 020714151A003B26MBN00UUU12UN99 000000
604CA001091C9150004194810017830OAKLAND                 CALIF 020714151A004A35MBN30FBN20HU45 000000
604CA001091C9150004194810017830OAKLAND                 CALIF 020714151A005A19MBN20MBN12ST99 000000
604CA001091C9150004194810017830OAKLAND                 CALIF 020714151A006A14MBN20MBN12ST99 000000
604CA001091C9150004194810017830OAKLAND                 CALIF 020714151A007C38FBN40MWN13ST81E000001                                                  30FWN13ST81E
604CA001091C9150004194810017830OAKLAND                 CALIF 031021151A001B21MBN00UUU90UN99 000000
604CA001091C9150004194810017830OAKLAND                 CALIF 031021151A002C30FBN19MBN12ST99 000003                                                  29MBN12ST99 29MBN12ST99 21MBN12ST99
604CA001091C9150004194810017830OAKLAND                 CALIF 031021151A003B49MBN00UUU12UN99 000000
604CA001091C9150004194810017830OAKLAND                 CALIF 031021151A004A34MBN20MBN12ST99 000000
604CA001091C9150004194810017830OAKLAND                 CALIF 040915151A001A51MBN32MBN30AQ45 000000
604CA001091C9150004194810017830OAKLAND                 CALIF 040915151A002A58MBN40MBN40ST80G000000
604CA001091C9150004194810017830OAKLAND                 CALIF 040915151A006A51MBN63MBN12ST45 000000
604CA001091C9150004194810017830OAKLAND                 CALIF 041021151A003A26MWH20MBN12ST99 000000
604CA001091C9150004194810017830OAKLAND                 CALIF 041021151A004B19FWH00UUU12UN99 000000
604CA001091C9150004194810017830OAKLAND                 CALIF 041021151A005B21MBN00UUU12UN99 000000
604CA001091C9150004194810017830OAKLAND                 CALIF 050212161A001C38MWH20MWH12ST03 000002                                                  19MWH12ST03 19FWH12ST03
604CA001091C9150004194810017830OAKLAND                 CALIF 050212161A002A26MBN28MBN12OK99 000000
604CA001091C9150004194810017830OAKLAND                 CALIF 050212161A003C35MBN18MBN12ST99 000001                                                  18MBN12ST99
604CA001091C9150004194810017830OAKLAND                 CALIF 050212161A004A26MBN29MBN20BR45 000000
604CA001091C9150004194810017830OAKLAND                 CALIF 050212161A005B45MBN00UUU12UN99 000000
604CA001091C9150004194810017830OAKLAND                 CALIF 050212161A006A48MBN17MBN40OK45 000000
604CA001091C9150004194810017830OAKLAND                 CALIF 050212161A008D60MBN31MBN12OK99 00200053MBN59MBN
604CA001091C9150004194810017830OAKLAND                 CALIF 050212161A009A19MWH26MWH12ST03 000000
604CA001091C9150004194810017830OAKLAND                 CALIF 050212161A010B47MWN00UUU90UN99 000000
604CA001091C9150004194810017830OAKLAND                 CALIF 050315161A007C17MBN30FUU12ST80C000001                                                  20MWH12ST80C
604CA001091C9150004194810017830OAKLAND                 CALIF 060119161A001B34MBN00UUU12UN99 000000
604CA001091C9150004194810017830OAKLAND                 CALIF 060119161A002A30MBN28FWN12ST81G000000
604CA001091C9150004194810017830OAKLAND                 CALIF 060119161A003A21MWH47MWH12ST45 000000
604CA001091C9150004194810017830OAKLAND                 CALIF 060119161A004B21MBN00UUU12UN99 000000
604CA001091C9150004194810017830OAKLAND                 CALIF 060119161A005B57MBN00UUU12UN99 000000
604CA001091C9150004194810017830OAKLAND                 CALIF 060119161A006B30MBN00UUU12UN99 000000
604CA001091C9150004194810017830OAKLAND                 CALIF 060119161A007B24MBN00UUU12UN99 000000
604CA001091C9150004194810017830OAKLAND                 CALIF 060119161A008B23MBN00UUU12UN99 000000
604CA001091C9150004194810017830OAKLAND                 CALIF 070212161A001B27MBN00UUU12UN99 000000
604CA001091C9150004194810017830OAKLAND                 CALIF 070212161A002B22MBN00UUU12UN99 000000
604CA001091C9150004194810017830OAKLAND                 CALIF 070212161A004A20MBN25MBN90ST03 000000
604CA001091C9150004194810017830OAKLAND                 CALIF 070315161B003A18MWN19MBN14AQ53 000000
604CA001091C9150004194810017830OAKLAND                 CALIF 080212161A001A31MBN23MWH12OK60 000000
604CA001091C9150004194810017830OAKLAND                 CALIF 080212161A002A49MBN38MWN12ST81A000000
604CA001091C9150004194810017830OAKLAND                 CALIF 080212161A003B59MAN00UUU12UN03 000000
604CA001091C9150004194810017830OAKLAND                 CALIF 080212161A004C28MBN30MWH12ST81A000002                                                  38MWN12ST81A30MWN12ST81A
604CA001091C9150004194810017830OAKLAND                 CALIF 080212161A005A16FBN31MBN13OK26 000000
604CA001091C9150004194810017830OAKLAND                 CALIF 080212161A006B31MBN00UUU12UN99 000000
604CA001091C9150004194810017830OAKLAND                 CALIF 080212161A007B15MWH00UUU12UN99 000000
604CA001091C9150004194810017830OAKLAND                 CALIF 080212161A008B31MWH00UUU12UN99 000000
604CA001091C9150004194810017830OAKLAND                 CALIF 080212161A009A30MBN50FWN12ST81A000000
604CA001091C9150004194810017830OAKLAND                 CALIF 080212161A010A29FBN20MBN12ST03 000000
604CA001091C9150004194810017830OAKLAND                 CALIF 090212161A001A29MBN29MBN12OK03 000000
604CA001091C9150004194810017830OAKLAND                 CALIF 090212161A002B22MBN00UUU12UN99 000000
604CA001091C9150004194810017830OAKLAND                 CALIF 090212161A003A22MWH20MBN12ST99 000000
604CA001091C9150004194810017830OAKLAND                 CALIF 090212161A004D27MBN27MBN12ST99 00100023MBN
604CA001091C9150004194810017830OAKLAND                 CALIF 090212161A005B29MBN00UUU12UN99 000000
604CA001091C9150004194810017830OAKLAND                 CALIF 090212161A006B22MBN00UUU12UN99 000000
604CA001091C9150004194810017830OAKLAND                 CALIF 090212161A007A54MWH25MWH20ST99 000000
604CA001091C9150004194810017830OAKLAND                 CALIF 090212161A008D24MWH24MWH12ST45 00100031MWH
604CA001091C9150004194810017830OAKLAND                 CALIF 090212161A009B27MWH00UUU12UN03 000000
604CA001091C9150004194810017830OAKLAND                 CALIF 090212161A010B24MBN00UUU12UN99 000000
604CA001091C9150004194810017830OAKLAND                 CALIF 090212161A011B24MWH00UUU12UN99 000000
604CA001091C9150004194810017830OAKLAND                 CALIF 100212161A001A45MUU23MBN12ST03 000000
604CA001091C9150004194810017830OAKLAND                 CALIF 100212161A002B34MBN00UUU12UN99 000000
604CA001091C9150004194810017830OAKLAND                 CALIF 100212161A004B37MWH00UUU12ST03 000000
604CA001091C9150004194810017830OAKLAND                 CALIF 100212161A005A30MBN27MBN12OK45 000000
604CA001091C9150004194810017830OAKLAND                 CALIF 100212161A006B38MBN00UUU11UN99 000000
604CA001091C9150004194810017830OAKLAND                 CALIF 100315161A003F24MAN00UUU12UN99 00100022MUU
604CA001091C9150004194810017830OAKLAND                 CALIF 110212161A001B30MWH00UUU12UN45 000000
604CA001091C9150004194810017830OAKLAND                 CALIF 110212161A002A39MWN24MBN12ST03 000000
604CA001091C9150004194810017830OAKLAND                 CALIF 110212161A003A33MBN40FBN12NE45 000000
604CA001091C9150004194810017830OAKLAND                 CALIF 110212161A004A39MWN20MBN12ST99 000000
604CA001091C9150004194810017830OAKLAND                 CALIF 110212161A005A21MBN19MBN12ST99 000000
604CA001091C9150004194810017830OAKLAND                 CALIF 110212161A007B24MBN00UUU12UN99 000000
604CA001091C9150004194810017830OAKLAND                 CALIF 110212161A008B35FWH00UUU12UN99 000000
604CA001091C9150004194810017830OAKLAND                 CALIF 110315161A006C39MBN24MWH12ST81A000003                                                  29MWH12ST81A28MBN12ST81A34MUU12ST81A
604CA001091C9150004194810017830OAKLAND                 CALIF 120212161A001B42MBN00UUU12UN99 000000
604CA001091C9150004194810017830OAKLAND                 CALIF 120212161A002A17MBN15MBN12OK03 000000
604CA001091C9150004194810017830OAKLAND                 CALIF 120212161A003F17MBN00UUU12UN99 00100021MBN
604CA001091C9150004194810017830OAKLAND                 CALIF 120212161A004C45MBN31MBN20NE45 000001                                                  30MBN20NE45
604CA001113 9150000796110017830PLEASANTON              CALIF 070315161A001A19MWN34MWN12ST81A000000
604CA001123 9150000904380017830SAN LEANDRO             CALIF 071021151A001A37MWH45MWH12AQ99 000000
604CA001133 9150000746480017830UNION CITY              CALIF 030714151A001C32MBN53MBN12ST99 000001                                                  53MBN12ST99
604CA001133 9150000746480017830UNION CITY              CALIF 051021151A001B43MWN00UUU11UN99 000000
604CA001133 9150000746480017830UNION CITY              CALIF 081021151A001B24MWH00UUU11UN99 000000
604CA001147 9150000000000017831E BAY REG PKS:ALAMEDA COCALIF 061021151A001B20MWH00UUU11UN99 000000
604CA001147 9150000000000017831E BAY REG PKS:ALAMEDA COCALIF 120119161A001C38MWH17MWH12HO46 000001                                                  19MWH12HO46
604CA001217 9150000000000017831SF BART: ALAMEDA COUNTY CALIF 120315161A001B33MUU00UUU12UN99 000000
604CA003008C915000022583003   0AMADOR                  CALIF 040915151A001A53FWN43MWN12WI45 000000
604CA004009B9150000840910041641BUTTE                   CALIF 030915151A001A48MWN49MWN14AQ99 000000
604CA004009B9150000840910041641BUTTE                   CALIF 030915151A002A55FWN49MWN30OK45 000000
604CA004009B9150000840910041641BUTTE                   CALIF 071021151A001A29MWN39MWN14AQ45 000000
604CA004009B9150000840910041641BUTTE                   CALIF 110119161A001B40FWN00UUU20UN99 000000
604CA004023 9150000899490041640CHICO                   CALIF 020915151A001A37MWH30MWN20AQ40 000000
604CA004023 9150000899490041640CHICO                   CALIF 031021151A001B22MWN00UUU11UN45 000000
604CA004054 9150000265140041641PARADISE                CALIF 110119161A001B31MWN00UUU12UN03 000000
604CA005008B915000040637005   0CALAVERAS               CALIF 060826151A001A26MWN29MWN12FR99 000000
604CA005008B915000040637005   0CALAVERAS               CALIF 081118151A001A49MWN71FWN12SO99 000000
604CA005008B915000040637005   0CALAVERAS               CALIF 100119161A001D60MWN30MWN14FR03 00200046MWN44MWN
604CA005008B915000040637005   0CALAVERAS               CALIF 120212161A001A64FWN71MWN13WI45 000000
604CA007009A9150001673380077831CONTRA COSTA            CALIF 020714151A001B40MBN00UUU11UN99 000000
604CA007009A9150001673380077831CONTRA COSTA            CALIF 040714151A001A09MWN20MWN20NE26 000000
604CA007009A9150001673380077831CONTRA COSTA            CALIF 050716151A001A24FWH21MWH90ST45 000000
604CA007009A9150001673380077831CONTRA COSTA            CALIF 060826151A001B20MWH00UUU11UN26 000000
604CA007009A9150001673380077831CONTRA COSTA            CALIF 060826151A002B19FWH00UUU11UN26 000000
604CA007009A9150001673380077831CONTRA COSTA            CALIF 070826151A001B18MBN00UUU11UN26 000000
604CA007009A9150001673380077831CONTRA COSTA            CALIF 081021151A001A64MWN67MWN11BR45 000000
604CA007009A9150001673380077831CONTRA COSTA            CALIF 091021151A002A26FWH25MWH11WI45 000000
604CA007009A9150001673380077831CONTRA COSTA            CALIF 091118151A001B54MWN00UUU11UN99 000000
604CA007009A9150001673380077831CONTRA COSTA            CALIF 101118151A001A69FWN71FWN12SI44 000000
604CA007009A9150001673380077831CONTRA COSTA            CALIF 110119161A001B24MWH00UUU11UN45 000000
604CA007009A9150001673380077831CONTRA COSTA            CALIF 110119161A002B45MBN00UUU11UN26 000000
604CA007009A9150001673380077831CONTRA COSTA            CALIF 110212161A003B23FWH00UUU20UN99 000000
604CA007009A9150001673380077831CONTRA COSTA            CALIF 120212161A001B27MBN00UUU11UN26 000000
604CA007012 9150001105370077830ANTIOCH                 CALIF 030714151A001A21MWH33MBN14FR99 000000
604CA007012 9150001105370077830ANTIOCH                 CALIF 060915151A001A28FBN25MBN11ST99 000000
604CA007012 9150001105370077830ANTIOCH                 CALIF 060915151A002A25MBN34MBN11ST80E000000
604CA007012 9150001105370077830ANTIOCH                 CALIF 091118151A001A23MBN38MBN12AQ47 000000
604CA007012 9150001105370077830ANTIOCH                 CALIF 091118151A002A32MWN49MWN12AQ45 000000
604CA007012 9150001105370077830ANTIOCH                 CALIF 091118151A003B29MWN00UUU12UN44 000000
604CA007012 9150001105370077830ANTIOCH                 CALIF 110119161A001A69MBN43FWN80BF44 000000
604CA007012 9150001105370077830ANTIOCH                 CALIF 110119161A002B18MWH00UUU12UN47 000000
604CA007042 9150001287670077830CONCORD                 CALIF 091118151A001B20MWH00UUU12UN99 000000
604CA007042 9150001287670077830CONCORD                 CALIF 101214151A001B25MWH00UUU12OK47 000000
604CA007042 9150001287670077830CONCORD                 CALIF 110119161A001B36MWH00UUU12UN99 000000
604CA007042 9150001287670077830CONCORD                 CALIF 120212161A001B16MWH00UUU11UN99 000000
604CA007042 9150001287670077830CONCORD                 CALIF 120212161B002A36MBN37FBN90EE59 000000
604CA007055 9150000248420077831EL CERRITO              CALIF 110315161A001A90FAN50FAN12SM99 000000
604CA007064 9150000253260077831HERCULES                CALIF 020716151A001A58MIN27MBN30ST26 000000
604CA007083 9150000693400077830PITTSBURG               CALIF 040716151A001A20MWH20MUU12OK99 000000
604CA007083 9150000693400077830PITTSBURG               CALIF 050915151A001A26MBN50MBN12ST80E000000
604CA007083 9150000693400077830PITTSBURG               CALIF 050915151A002A28MBN58MBN12ST80E000000
604CA007083 9150000693400077830PITTSBURG               CALIF 050915151A003A31MBN58MBN12OK26 000000
604CA007083 9150000693400077830PITTSBURG               CALIF 060915151A001B38MWH00UUU12UN03 000000
604CA007083 9150000693400077830PITTSBURG               CALIF 081021151A001B30MBN00UUU12UN99 000000
604CA007083 9150000693400077830PITTSBURG               CALIF 081021151A002B28MBN00UUU12UN99 000000
604CA007102 9150001097160077830RICHMOND                CALIF 010714151A001B23MBN00UUU11UN99 000000
604CA007102 9150001097160077830RICHMOND                CALIF 010714151A002B52MWH00UUU11UN99 000000
604CA007102 9150001097160077830RICHMOND                CALIF 030714151A001B62MWN00UUU11UN26 000000
604CA007102 9150001097160077830RICHMOND                CALIF 030714151A002B53FWN00UUU80UN99 000000
604CA007102 9150001097160077830RICHMOND                CALIF 030714151A003B23MBN00UUU11UN99 000000
604CA007102 9150001097160077830RICHMOND                CALIF 030714151A004A21MBN21MBN11AQ45 000000
604CA007102 9150001097160077830RICHMOND                CALIF 060315161A001B27MWH00UUU11UN99 000000
604CA007102 9150001097160077830RICHMOND                CALIF 060315161A002A25MWN54MWN11ST99 000000
604CA007102 9150001097160077830RICHMOND                CALIF 070119161A001A45MUU50FBN20OK99 000000
604CA007102 9150001097160077830RICHMOND                CALIF 070119161A002B29MBN00UUU11UN99 000000
604CA007102 9150001097160077830RICHMOND                CALIF 080315161A001B23MBN00UUU11UN99 000000
604CA007102 9150001097160077830RICHMOND                CALIF 080315161A002B19MBN00UUU11UN99 000000
604CA007102 9150001097160077830RICHMOND                CALIF 080315161A003B66MBN00UUU11UN99 000000
604CA007102 9150001097160077830RICHMOND                CALIF 090315161A001A24MBN36MWN12AQ99 000000
604CA007102 9150001097160077830RICHMOND                CALIF 090315161A002F31MWH00UUU12UN99 00100033MAN
604CA007102 9150001097160077830RICHMOND                CALIF 120315161A001B20FBN00UUU12UN99 000000
604CA007102 9150001097160077830RICHMOND                CALIF 120315161A002B40MBN00UUU12UN99 000000
604CA007102 9150001097160077830RICHMOND                CALIF 120315161A003B23MBN00UUU12UN99 000000
604CA007114 9150000302900077831SAN PABLO               CALIF 100119161A001B31MBN00UUU12UN99 000000
604CA007114 9150000302900077831SAN PABLO               CALIF 120315161A001A17MBN17MWN12BF99 000000
604CA007123 9150000685300077830WALNUT CREEK            CALIF 070915151A001A19FWN21MWN11OK26 000000
604CA007234 9150000444010077831DANVILLE                CALIF 070915151A001A67FWN77MWN11WI45 000000
604CA007344 9150000401630077831OAKLEY                  CALIF 040714151A001A27MWH20MWH11AQ06 000000
604CA007344 9150000401630077831OAKLEY                  CALIF 061118151A001A19MWH30MWH11OK99 000000
604CA008008C915000020258008   0DEL NORTE               CALIF 071021151A001A17MIN16MIN90FR99 000000
604CA009009A9150001512520097401EL DORADO               CALIF 010915151A001A31FWN41MBN12ST03 000000
604CA009009A9150001512520097401EL DORADO               CALIF 020826151A001A55MWN22MWH20AQ18 000000
604CA009009A9150001512520097401EL DORADO               CALIF 040826151A001A50FWN51MWN30WI45 000000
604CA009009A9150001512520097401EL DORADO               CALIF 091118151A001D38MWN16MWN13FA99 00200008MWN37FWN
604CA009009A9150001512520097401EL DORADO               CALIF 110119161A001D71FWN49MWN12MO45 00100038MWN
604CA009009A9150001512520097401EL DORADO               CALIF 110119161A002A56MWN39MWN40OK45 000000
604CA009025 9150000215580097401SOUTH LAKE TAHOE        CALIF 060212161A001A23MWN36MWN12ST81E000000
604CA010009A9150001736300102991FRESNO                  CALIF 040714151A001D47FAN59MAN12WI40 00100058MAN
604CA010009A9150001736300102991FRESNO                  CALIF 050915151A001A30MWH30MWH13OK45 000000
604CA010009A9150001736300102991FRESNO                  CALIF 050915151A002A52MWH37MWH12AQ03 000000
604CA010009A9150001736300102991FRESNO                  CALIF 051021151A003B33MWH00UUU12UN99 000000
604CA010009A9150001736300102991FRESNO                  CALIF 070212161A001B37MWH00UUU20UN99 000000
604CA010009A9150001736300102991FRESNO                  CALIF 120212161A001A62FWN55MWN12GF99 000000
604CA010009A9150001736300102991FRESNO                  CALIF 120212161A002B23MWH00UUU12UN03 000000
604CA010012 9150001037690102990CLOVIS                  CALIF 040716151A001B22MWH00UUU12UN99 000000
604CA010051B9150005208370102990FRESNO                  CALIF 010714151A001B16FWH00UUU11UN47 000000
604CA010051B9150005208370102990FRESNO                  CALIF 010714151A002B31MWH00UUU11UN47 000000
604CA010051B9150005208370102990FRESNO                  CALIF 010714151A003B37MBN00UUU11UN47 000000
604CA010051B9150005208370102990FRESNO                  CALIF 010714151A004A09FWH22MBN11ST26 000000
604CA010051B9150005208370102990FRESNO                  CALIF 010714151A005B51FWH00UUU11UN26 000000
604CA010051B9150005208370102990FRESNO                  CALIF 020716151A001A29MWH29MWH12BR45 000000
604CA010051B9150005208370102990FRESNO                  CALIF 020716151A002B19MBN00UUU12UN47 000000
604CA010051B9150005208370102990FRESNO                  CALIF 020716151A003A57MBN47MWH20ST44 000000
604CA010051B9150005208370102990FRESNO                  CALIF 030826151A001B29MWN00UUU12ST47 000000
604CA010051B9150005208370102990FRESNO                  CALIF 030826151A002A27MBN27MBN11ST47 000000
604CA010051B9150005208370102990FRESNO                  CALIF 030826151A004A33FAN43MAN14WI45 000000
604CA010051B9150005208370102990FRESNO                  CALIF 031021151A003B22MWH00UUU11UN99 000000
604CA010051B9150005208370102990FRESNO                  CALIF 040915151A001B61MUU00UUU11UN99 000000
604CA010051B9150005208370102990FRESNO                  CALIF 040915151A002B17MWN00UUU11UN99 000000
604CA010051B9150005208370102990FRESNO                  CALIF 050915151A001B53MBN00UUU11UN45 000000
604CA010051B9150005208370102990FRESNO                  CALIF 050915151A002A48MWN25MWN20ST99 000000
604CA010051B9150005208370102990FRESNO                  CALIF 050915151A003B23MUU00UUU12UN99 000000
604CA010051B9150005208370102990FRESNO                  CALIF 050915151A004B28MWH00UUU11UN42 000000
604CA010051B9150005208370102990FRESNO                  CALIF 050915151A005B27MWH00UUU11UN42 000000
604CA010051B9150005208370102990FRESNO                  CALIF 060915151A001A21MWH21MWH11AQ45 000000
604CA010051B9150005208370102990FRESNO                  CALIF 060915151A003B31MWH00UUU20OK45 000000
604CA010051B9150005208370102990FRESNO                  CALIF 060915151A004A35MWH51MWH14ST80E000000
604CA010051B9150005208370102990FRESNO                  CALIF 060915151A007A47MBN33FBN20BF45 000000
604CA010051B9150005208370102990FRESNO                  CALIF 061021151A002B25MWH00UUU11UN99 000000
604CA010051B9150005208370102990FRESNO                  CALIF 061021151A005B28MWH00UUU12OK99 000000
604CA010051B9150005208370102990FRESNO                  CALIF 061021151A006B28MBN00UUU11UN99 000000
604CA010051B9150005208370102990FRESNO                  CALIF 071021151A001B17MBN00UUU11UN26 000000
604CA010051B9150005208370102990FRESNO                  CALIF 071021151A003A29MBN19MBN12ST45 000000
604CA010051B9150005208370102990FRESNO                  CALIF 071021151A004B73MWH00UUU12UN26 000000
604CA010051B9150005208370102990FRESNO                  CALIF 071021151A005B41MWH00UUU30UN99 000000
604CA010051B9150005208370102990FRESNO                  CALIF 071118151A002B66MWN00UUU20UN26 000000
604CA010051B9150005208370102990FRESNO                  CALIF 080119161A001B21MBN00UUU12UN99 000000
604CA010051B9150005208370102990FRESNO                  CALIF 090119161A003A38MAN72MAN12SO45 000000
604CA010051B9150005208370102990FRESNO                  CALIF 091118151A001A40MWH38MWH12OK81A000000
604CA010051B9150005208370102990FRESNO                  CALIF 091118151A002B27MAN00UUU11UN99 000000
604CA010051B9150005208370102990FRESNO                  CALIF 100119161A001D19MBN19MBN11FR47 00100018MBN
604CA010051B9150005208370102990FRESNO                  CALIF 100119161A002B34MBN00UUU11UN99 000000
604CA010051B9150005208370102990FRESNO                  CALIF 100119161A003A28MWN28MWN12ST81A000000
604CA010051B9150005208370102990FRESNO                  CALIF 100119161A004B25MBN00UUU11UN47 000000
604CA010051B9150005208370102990FRESNO                  CALIF 120212161A001A24MWH32MWH40BR26 000000
604CA010051B9150005208370102990FRESNO                  CALIF 120212161A002B33MWH00UUU12UN47 000000
604CA010051B9150005208370102990FRESNO                  CALIF 120212161A003B55MWH00UUU12ST81E000000
604CA010051B9150005208370102990FRESNO                  CALIF 120315161A004A41FBN62MBN20OK80E000000
604CA010066 9150000068180102991HURON                   CALIF 061214151A001A41MWH28MWH12FR45 000000
604CA010095 9150000114700102991MENDOTA                 CALIF 040315161A001A50MWH22MWH12ST99 000000
604CA010095 9150000114700102991MENDOTA                 CALIF 091021151A001B21MIN00UUU11UN99 000000
604CA010106 9150000097150102991ORANGE COVE             CALIF 070315161A001B61MWH00UUU12UN99 000000
604CA010115 9150000151060102991PARLIER                 CALIF 070212161A001A65MIN20MWH11ST99 000000
604CA010124 9150000257110102991REEDLEY                 CALIF 070826151A001A34MWH23MWH14OK47 000000
604CA010135 9150000249330102991SANGER                  CALIF 081021151A001B41MWH00UUU12UN42 000000
604CA010155 9150000245320102991SELMA                   CALIF 010716151A001D32FWH36MWH12IL99 00100037FWH
604CA010155 9150000245320102991SELMA                   CALIF 090212161A001B14MWH00UUU11UN99 000000
604CA010155 9150000245320102991SELMA                   CALIF 100212161A001A32MIN17MIN12ST99 000000
604CA011008C915000014271011   0GLENN                   CALIF 070119161A001A16FWH53MWH14AQ17 000000
604CA011016 915000007549011   0ORLAND                  CALIF 070915151A001A55MWN19FWN12FA45 000000
604CA011016 915000007549011   0ORLAND                  CALIF 070915151A002A16FWN19FWN12SI26 000000
604CA012008B915000073374012   0HUMBOLDT                CALIF 010714151A001A22MIN32MWN12AQ45 000000
604CA012008B915000073374012   0HUMBOLDT                CALIF 030915151A001C73MIN52MWH12AQ18 000001                                                  25MWH12AQ18
604CA012008B915000073374012   0HUMBOLDT                CALIF 030915151A002B26MWH00UUU12UN18 000000
604CA012008B915000073374012   0HUMBOLDT                CALIF 040716151A001A47FWN59MWN12NE45 000000
604CA012008B915000073374012   0HUMBOLDT                CALIF 040716151A002A36MWN23MWN30AQ45 000000
604CA012008B915000073374012   0HUMBOLDT                CALIF 070826151A001B37MIN00UUU90UN45 000000
604CA012008B915000073374012   0HUMBOLDT                CALIF 100212161A001A32MWN64MWN20ST03 000000
604CA012015 915000017789012   0ARCATA                  CALIF 050119161A001C38MWN28FWN12ST03 000002                                                  34MWN12ST03 35MWN12ST03
604CA012015 915000017789012   0ARCATA                  CALIF 100119161A001A52MWN18MIN20ST99 000000
604CA012034 915000026858012   0EUREKA                  CALIF 090212161A001B18MUU00UUU11UN99 000000
604CA012034 915000026858012   0EUREKA                  CALIF 090212161A002A63MBN24MWN40ST42 000000
604CA012034 915000026858012   0EUREKA                  CALIF 100212161A001A31MWN22MWN11AQ03 000000
604CA013014 9150000260230132381BRAWLEY                 CALIF 010915151A001C29MWH30MWH20ST99 000003                                                  31MWH20ST99 31MWH20ST99 20MWH20ST99
604CA013044 9150000440330132380EL CENTRO               CALIF 020915151A001B31MWH00UUU20UN99 000000
604CA015009A9150003313160150691KERN                    CALIF 010119161A001B45MWH00UUU30UN99 000000
604CA015009A9150003313160150691KERN                    CALIF 010119161A003B00MWH00UUU14UN99 000000
604CA015009A9150003313160150691KERN                    CALIF 010315161A002B35MWH00UUU14UN03 000000
604CA015009A9150003313160150691KERN                    CALIF 010406161A010A33MW 38MW 14ST81A000000
604CA015009A9150003313160150691KERN                    CALIF 020915151A001B34MWH00UUU11UN99 000000
604CA015009A9150003313160150691KERN                    CALIF 020915151A002B32MWH00UUU11UN47 000000
604CA015009A9150003313160150691KERN                    CALIF 030714151A001A29MWH19MWH11ST26 000000
604CA015009A9150003313160150691KERN                    CALIF 030714151A002B39MWH00UUU30UN26 000000
604CA015009A9150003313160150691KERN                    CALIF 030714151A003B51MWH00UUU11UN26 000000
604CA015009A9150003313160150691KERN                    CALIF 030714151A004B21FWH00UUU11ST26 000000
604CA015009A9150003313160150691KERN                    CALIF 040714151A001A47MWN30MWN90OK26 000000
604CA015009A9150003313160150691KERN                    CALIF 050716151A001B00UUU00UUU90UN26 000000
604CA015009A9150003313160150691KERN                    CALIF 060826151A001B22MWH00UUU11UN26 000000
604CA015009A9150003313160150691KERN                    CALIF 060826151A002A57MWH24MWH20OK26 000000
604CA015009A9150003313160150691KERN                    CALIF 060826151A003B29MWH00UUU11UN26 000000
604CA015009A9150003313160150691KERN                    CALIF 060826151A004B33MWH00UUU11UN26 000000
604CA015009A9150003313160150691KERN                    CALIF 070915151A001B64MWN00UUU14UN26 000000
604CA015009A9150003313160150691KERN                    CALIF 070915151A002B21MWH00UUU11UN47 000000
604CA015009A9150003313160150691KERN                    CALIF 080915151A001B34MBN00UUU11ST81G000000
604CA015009A9150003313160150691KERN                    CALIF 080915151A002A35MWN55MWN12OF26 000000
604CA015009A9150003313160150691KERN                    CALIF 080915151A003A30MWH22MWH11ST45 000000
604CA015009A9150003313160150691KERN                    CALIF 081021151A004B27MBN00UUU11UN99 000000
604CA015009A9150003313160150691KERN                    CALIF 081021151A005A29MWN39MWN20ST99 000000
604CA015009A9150003313160150691KERN                    CALIF 091118151A001A16MWH22MBN11ST45 000000
604CA015009A9150003313160150691KERN                    CALIF 100119161A001B45MWH00UUU11UN99 000000
604CA015009A9150003313160150691KERN                    CALIF 100119161A004B23MWH00UUU11UN99 000000
604CA015009A9150003313160150691KERN                    CALIF 101118151A002A52MWH51FWN20BF45 000000
604CA015009A9150003313160150691KERN                    CALIF 101118151A003A50MWN43MWN11FR45 000000
604CA015009A9150003313160150691KERN                    CALIF 110119161A001A62FWN36MWN11MO99 000000
604CA015009A9150003313160150691KERN                    CALIF 110119161A002B20MWH00UUU11UN45 000000
604CA015009A9150003313160150691KERN                    CALIF 110119161A003A55MWH29MWN30AQ99 000000
604CA015009A9150003313160150691KERN                    CALIF 120119161A001A24MWH58MBN11ST99 000000
604CA015009A9150003313160150691KERN                    CALIF 120119161A002B28MWH00UUU20ST45 000000
604CA015015 9150000209020150691ARVIN                   CALIF 060915151A001A34MWH31MWH12ST99 000000
604CA015015 9150000209020150691ARVIN                   CALIF 060915151A002A37MWH31MWH12ST99 000000
604CA015015 9150000209020150691ARVIN                   CALIF 100212161A001A24MWH20MWH20ST03 000000
604CA015021C9150003738870150690BAKERSFIELD             CALIF 020714151A001B40FBN00UUU85UN99 000000
604CA015021C9150003738870150690BAKERSFIELD             CALIF 030716151A001A55FWN56MWN14WI45 000000
604CA015021C9150003738870150690BAKERSFIELD             CALIF 030716151A002A22MBN21MWN12AQ03 000000
604CA015021C9150003738870150690BAKERSFIELD             CALIF 030716151A004C36MWN31MWN13ST81E000001                                                  33MUU13ST81E
604CA015021C9150003738870150690BAKERSFIELD             CALIF 030716151A005A25MBN28MBN11OK40 000000
604CA015021C9150003738870150690BAKERSFIELD             CALIF 030716151A006C23MWH51MWN11ST81A000003                                                  36MWH11ST81A38FWN11ST81A30MWH11ST81A
604CA015021C9150003738870150690BAKERSFIELD             CALIF 031021151A003A47MWN23MWH12OK81E000000
604CA015021C9150003738870150690BAKERSFIELD             CALIF 040714151A001ANBMBN20MBN40SO60 000000
604CA015021C9150003738870150690BAKERSFIELD             CALIF 050716151A001C31MWN28FWN30ST47 000003                                                  23MWH30ST47 19MWH30ST47 25MWN30ST47
604CA015021C9150003738870150690BAKERSFIELD             CALIF 060826151A001B24MBN00UUU11UN99 000000
604CA015021C9150003738870150690BAKERSFIELD             CALIF 060826151A002B48MBN00UUU90UN99 000000
604CA015021C9150003738870150690BAKERSFIELD             CALIF 060826151A003B30MWH00UUU12UN26 000000
604CA015021C9150003738870150690BAKERSFIELD             CALIF 060826151A004A36MBN60MBN12AQ45 000000
604CA015021C9150003738870150690BAKERSFIELD             CALIF 060826151A005A56MWN29MBN40AQ44 000000
604CA015021C9150003738870150690BAKERSFIELD             CALIF 060826151A006A25FWN40MWN85OK99 000000
604CA015021C9150003738870150690BAKERSFIELD             CALIF 070826151A001C47MWH35MWH12OK81A000001                                                  30MWH12OK81A
604CA015021C9150003738870150690BAKERSFIELD             CALIF 070826151A002B27MBN00UUU11UN99 000000
604CA015021C9150003738870150690BAKERSFIELD             CALIF 080915151A001C23MWH21MWH12OK47 000002                                                  22MWH12OK47 19MWH12OK47
604CA015021C9150003738870150690BAKERSFIELD             CALIF 080915151A002A29MWN36MWN12ST81E000000
604CA015021C9150003738870150690BAKERSFIELD             CALIF 091021151A001A18MUU22MAN20BR42 000000
604CA015021C9150003738870150690BAKERSFIELD             CALIF 111214151A001A54MWH34FWN65ST09 000000
604CA015021C9150003738870150690BAKERSFIELD             CALIF 111214151A002B41FBN00UUU11UN26 000000
604CA015021C9150003738870150690BAKERSFIELD             CALIF 111214151A003BNBMBN00UUU12UN26 000000
604CA015021C9150003738870150690BAKERSFIELD             CALIF 111214151A004A23MWH31MWN12ST81F000000
604CA015021C9150003738870150690BAKERSFIELD             CALIF 120212161A001B19MBN00UUU12UN47 000000
604CA015021C9150003738870150690BAKERSFIELD             CALIF 120212161A002B21MBN00UUU12UN26 000000
604CA015021C9150003738870150690BAKERSFIELD             CALIF 120315161A003F20MWH00UUU13UN99 00100020MWH
604CA015033 9150000525340150690DELANO                  CALIF 020714151A001A28MWH37MWH12ST99 000000
604CA015033 9150000525340150690DELANO                  CALIF 051021151A001B35MWH00UUU12UN99 000000
604CA015033 9150000525340150690DELANO                  CALIF 070315161A001A39MWH35MWH20ST99 000000
604CA015033 9150000525340150690DELANO                  CALIF 090212161A001B43MWH00UUU90UN99 000000
604CA015055 9150000138480150691MCFARLAND               CALIF 070315161A001B29FWH00UUU12UN99 000000
604CA015064 9150000289890150691RIDGECREST              CALIF 081021151A001A33MWH32MWH12OK26 000000
604CA015075 9150000176900150691SHAFTER                 CALIF 040212161A001C43MWH39MWH11ST81F000001                                                  39MWH11ST81F
604CA015075 9150000176900150691SHAFTER                 CALIF 061118151A001ANBMWH26FWH40SO60 000000
604CA015156 9150000054280150691BEAR VALLEY             CALIF 100315161A001A55FWN56MBN20GF45 000000
604CA016009B9150000336630163421KINGS                   CALIF 020915151A001A24MBN22MIN11ST26 000000
604CA016009B9150000336630163421KINGS                   CALIF 120315161A001B21MWH00UUU11UN26 000000
604CA016023 9150000552990163420HANFORD                 CALIF 060915151A001B67MWH00UUU12UN99 000000
604CA016075 9150000128590163421AVENAL                  CALIF 020915151A001B33MAN00UUU12UN99 000000
604CA016075 9150000128590163421AVENAL                  CALIF 030915151A001A14MWH17MWH12OK47 000000
604CA017008B915000044160017   0LAKE                    CALIF 020915151A001A78MWH69MWH12OF99 000000
604CA017008B915000044160017   0LAKE                    CALIF 050212161A001A58FWN53MWN12GF45 000000
604CA017008B915000044160017   0LAKE                    CALIF 120212161A001A25MWH20MWH14OK44 000000
604CA017025 915000015044017   0CLEARLAKE               CALIF 020915151A001A55MWN31FWN30OF99 000000
604CA017025 915000015044017   0CLEARLAKE               CALIF 030915151A001D38MWH27MWH12ST18 00100054MWN
604CA017025 915000015044017   0CLEARLAKE               CALIF 070119161A001A40MWN35MWN12ST18 000000
604CA017025 915000015044017   0CLEARLAKE               CALIF 080119161A001A36MWH50MWH12ER99 000000
604CA019009A9150010585780194801LOS ANGELES             CALIF 010716151A001B51MBN00UUU12UN45 000000
604CA019009A9150010585780194801LOS ANGELES             CALIF 010716151A002B23MWH00UUU12UN47 000000
604CA019009A9150010585780194801LOS ANGELES             CALIF 010716151A003A36MWN36MWH20OK99 000000
604CA019009A9150010585780194801LOS ANGELES             CALIF 010716151A004A14MWH13MWH20ST47 000000
604CA019009A9150010585780194801LOS ANGELES             CALIF 010716151A005B30MBN00UUU12UN99 000000
604CA019009A9150010585780194801LOS ANGELES             CALIF 010716151A006B21MWH00UUU30UN99 000000
604CA019009A9150010585780194801LOS ANGELES             CALIF 010716151A007B46MBN00UUU12UN99 000000
604CA019009A9150010585780194801LOS ANGELES             CALIF 010716151A008A55MBN49MBN90ST99 000000
604CA019009A9150010585780194801LOS ANGELES             CALIF 020716151A001A30MWH30MWH20ST45 000000
604CA019009A9150010585780194801LOS ANGELES             CALIF 020716151A002A51FWN56MWH12WI45 000000
604CA019009A9150010585780194801LOS ANGELES             CALIF 020716151A003B39MBN00UUU12UN47 000000
604CA019009A9150010585780194801LOS ANGELES             CALIF 030315161A003A30MWH35MWH12ST81A000000
604CA019009A9150010585780194801LOS ANGELES             CALIF 030915151A002A32FBN30MBN12SI45 000000
604CA019009A9150010585780194801LOS ANGELES             CALIF 030915151A004B29MWH00UUU12UN47 000000
604CA019009A9150010585780194801LOS ANGELES             CALIF 030915151A005A32FBN28MWH14ST99 000000
604CA019009A9150010585780194801LOS ANGELES             CALIF 030915151A006B47MBN00UUU12UN47 000000
604CA019009A9150010585780194801LOS ANGELES             CALIF 030915151A007A34MBN23MWH40OK48 000000
604CA019009A9150010585780194801LOS ANGELES             CALIF 031021151A001B38FWH00UUU20UN99 000000
604CA019009A9150010585780194801LOS ANGELES             CALIF 031214151A008A28MWH30MWN12ST81B000000
604CA019009A9150010585780194801LOS ANGELES             CALIF 040716151A001B26MWH00UUU20UN99 000000
604CA019009A9150010585780194801LOS ANGELES             CALIF 040716151A002B23MWH00UUU12UN47 000000
604CA019009A9150010585780194801LOS ANGELES             CALIF 040716151A003B18MWH00UUU12UN47 000000
604CA019009A9150010585780194801LOS ANGELES             CALIF 040716151A004F26MBN00UUU12UN47 00100038MBN
604CA019009A9150010585780194801LOS ANGELES             CALIF 040716151A005BNBFWH00UUU20UN99 000000
604CA019009A9150010585780194801LOS ANGELES             CALIF 040716151A006B46MWH00UUU12UN99 000000
604CA019009A9150010585780194801LOS ANGELES             CALIF 040716151A007A29MWN29MBN40OK48 000000
604CA019009A9150010585780194801LOS ANGELES             CALIF 050915151A003A29MWH30MWN12ST45 000000
604CA019009A9150010585780194801LOS ANGELES             CALIF 050915151A004B62MWH00UUU30UN99 000000
604CA019009A9150010585780194801LOS ANGELES             CALIF 051021151A001B36MWH00UUU30UN99 000000
604CA019009A9150010585780194801LOS ANGELES             CALIF 051021151A002B29MBN00UUU12UN99 000000
604CA019009A9150010585780194801LOS ANGELES             CALIF 051021151A005B33MWH00UUU12UN99 000000
604CA019009A9150010585780194801LOS ANGELES             CALIF 060915151A002A26FWH26MBN85GF45 000000
604CA019009A9150010585780194801LOS ANGELES             CALIF 060915151A003B26MBN00UUU12UN47 000000
604CA019009A9150010585780194801LOS ANGELES             CALIF 060915151A004B60MBN00UUU12UN47 000000
604CA019009A9150010585780194801LOS ANGELES             CALIF 060915151A005A59MWH59FBN30BF45 000000
604CA019009A9150010585780194801LOS ANGELES             CALIF 060915151A007B18MWH00UUU12UN47 000000
604CA019009A9150010585780194801LOS ANGELES             CALIF 060915151A009A01MWH22MWH40OK45 000000
604CA019009A9150010585780194801LOS ANGELES             CALIF 061021151A001ABBMBN26MBN75SO45 000000
604CA019009A9150010585780194801LOS ANGELES             CALIF 061021151A006B40MWH00UUU12UN99 000000
604CA019009A9150010585780194801LOS ANGELES             CALIF 061021151A008B23MBN00UUU12UN99 000000
604CA019009A9150010585780194801LOS ANGELES             CALIF 070119161A001B38MWH00UUU12UN47 000000
604CA019009A9150010585780194801LOS ANGELES             CALIF 070119161A008B73MWN00UUU30UN99 000000
604CA019009A9150010585780194801LOS ANGELES             CALIF 071118151A002A44MBN40MBN12ST45 000000
604CA019009A9150010585780194801LOS ANGELES             CALIF 071118151A003B26MBN00UUU12UN47 000000
604CA019009A9150010585780194801LOS ANGELES             CALIF 071118151A004B38MBN00UUU12UN26 000000
604CA019009A9150010585780194801LOS ANGELES             CALIF 071118151A005B45MBN00UUU12UN47 000000
604CA019009A9150010585780194801LOS ANGELES             CALIF 071118151A006B24MWN00UUU12UN99 000000
604CA019009A9150010585780194801LOS ANGELES             CALIF 071118151A007B27MBN00UUU12UN47 000000
604CA019009A9150010585780194801LOS ANGELES             CALIF 071118151A009B21MBN00UUU12UN47 000000
604CA019009A9150010585780194801LOS ANGELES             CALIF 071118151A010A47MWH39MWH12ST81A000000
604CA019009A9150010585780194801LOS ANGELES             CALIF 071118151A011B45MBN00UUU12UN47 000000
604CA019009A9150010585780194801LOS ANGELES             CALIF 071118151A012A19MWH20MWH90BR60 000000
604CA019009A9150010585780194801LOS ANGELES             CALIF 071118151A013A27FWN25MWH70ST99 000000
604CA019009A9150010585780194801LOS ANGELES             CALIF 081118151A001B00MWH00UUU20UN99 000000
604CA019009A9150010585780194801LOS ANGELES             CALIF 081118151A002B19MWH00UUU12UN47 000000
604CA019009A9150010585780194801LOS ANGELES             CALIF 081118151A003B21MWH00UUU12UN47 000000
604CA019009A9150010585780194801LOS ANGELES             CALIF 081118151A004A21FWH19FWH20IL99 000000
604CA019009A9150010585780194801LOS ANGELES             CALIF 081118151A005A61MBN53FWN20BF45 000000
604CA019009A9150010585780194801LOS ANGELES             CALIF 081118151A006C44MWH28MWH30NE99 000001                                                  23MWH30NE99
604CA019009A9150010585780194801LOS ANGELES             CALIF 081118151A007B46FWH00UUU12UN99 000000
604CA019009A9150010585780194801LOS ANGELES             CALIF 081118151A008B18MBN00UUU12UN45 000000
604CA019009A9150010585780194801LOS ANGELES             CALIF 081118151A009B59MWN00UUU30UN03 000000
604CA019009A9150010585780194801LOS ANGELES             CALIF 081118151A010B14MWH00UUU12UN26 000000
604CA019009A9150010585780194801LOS ANGELES             CALIF 091214151A001B30MWH00UUU13UN99 000000
604CA019009A9150010585780194801LOS ANGELES             CALIF 091214151A002B55MBN00UUU12UN45 000000
604CA019009A9150010585780194801LOS ANGELES             CALIF 091214151A003B25MBN00UUU13UN47 000000
604CA019009A9150010585780194801LOS ANGELES             CALIF 091214151A004F53MBN00UUU12UN99 00100036MBN
604CA019009A9150010585780194801LOS ANGELES             CALIF 091214151A005B42MBN00UUU12UN47 000000
604CA019009A9150010585780194801LOS ANGELES             CALIF 091214151A006A42MWH53MWH12ST45 000000
604CA019009A9150010585780194801LOS ANGELES             CALIF 091214151A007B20MBN00UUU12UN99 000000
604CA019009A9150010585780194801LOS ANGELES             CALIF 100315161A001B40FWH00UUU12UN47 000000
604CA019009A9150010585780194801LOS ANGELES             CALIF 100315161A002F00FWN00UUU90UN99 00100000MWN
604CA019009A9150010585780194801LOS ANGELES             CALIF 100315161A003A48MWN72MWN12SO80E000000
604CA019009A9150010585780194801LOS ANGELES             CALIF 100315161A004A25MWH38MWH11ST81A000000
604CA019009A9150010585780194801LOS ANGELES             CALIF 100315161A005A53MBN29MWN11ST81A000000
604CA019009A9150010585780194801LOS ANGELES             CALIF 100315161A006B17MWH00UUU20UN99 000000
604CA019009A9150010585780194801LOS ANGELES             CALIF 100315161A007B27MWH00UUU12UN99 000000
604CA019009A9150010585780194801LOS ANGELES             CALIF 100315161A008B25MWH00UUU12UN47 000000
604CA019009A9150010585780194801LOS ANGELES             CALIF 100315161A009A26FWN29MWN30WI45 000000
604CA019009A9150010585780194801LOS ANGELES             CALIF 100315161A010B28MWH00UUU12UN47 000000
604CA019009A9150010585780194801LOS ANGELES             CALIF 100315161A011B19MWH00UUU20UN45 000000
604CA019009A9150010585780194801LOS ANGELES             CALIF 110119161A001B00MUU00UUU12UN99 000000
604CA019009A9150010585780194801LOS ANGELES             CALIF 110119161A002B26MWH00UUU12UN47 000000
604CA019009A9150010585780194801LOS ANGELES             CALIF 110119161A003A63FBN64MBN12GF45 000000
604CA019009A9150010585780194801LOS ANGELES             CALIF 110119161A004B37MWH00UUU11UN47 000000
604CA019009A9150010585780194801LOS ANGELES             CALIF 110119161A005B42MWH00UUU12UN47 000000
604CA019009A9150010585780194801LOS ANGELES             CALIF 110119161A006B14MWH00UUU12UN47 000000
604CA019009A9150010585780194801LOS ANGELES             CALIF 110119161A007B17MWH00UUU12UN47 000000
604CA019009A9150010585780194801LOS ANGELES             CALIF 110119161A008A53MWN23MWN12FA45 000000
604CA019009A9150010585780194801LOS ANGELES             CALIF 110119161A009B48MWH00UUU12UN47 000000
604CA019009A9150010585780194801LOS ANGELES             CALIF 110119161A010A21FWH28MWH30GF45 000000
604CA019009A9150010585780194801LOS ANGELES             CALIF 110119161A011F33MWH00UUU12UN99 00100028MWH
604CA019009A9150010585780194801LOS ANGELES             CALIF 110119161A012B19FWH00UUU90UN99 000000
604CA019009A9150010585780194801LOS ANGELES             CALIF 110119161A013A60MBN32MWH40OK48 000000
604CA019009A9150010585780194801LOS ANGELES             CALIF 120212161A001B40MBN00UUU12UN47 000000
604CA019009A9150010585780194801LOS ANGELES             CALIF 120212161A002B22MWH00UUU12UN99 000000
604CA019009A9150010585780194801LOS ANGELES             CALIF 120212161A005B28MBN00UUU12UN26 000000
604CA019009A9150010585780194801LOS ANGELES             CALIF 120315161A003D27MWH54MWN12FR45 00200048FWN54FWN
604CA019009A9150010585780194801LOS ANGELES             CALIF 120315161A004A54MWN33MWN12FA80E000000
