601AL001009A6010001516770370981JEFFERSON               ALA   020328021A001A20MW 17MW 14AQ99 000000                                                                                                                                                                          
601AL001009A6010001516770370981JEFFERSON               ALA   050328021A001A58MW 00MU 14UN99 000000                                                                                                                                                                          
601AL001009A6010001516770370981JEFFERSON               ALA   060328021A001A00MB 00MU 12UN99 000000                                                                                                                                                                          
601AL001009A6010001516770370981JEFFERSON               ALA   090328021A001A25MW 00MW 90AQ99 000000                                                                                                                                                                          
601AL001009A6010001516770370981JEFFERSON               ALA   100328021A001A18MW 00MU 12ST99 000000                                                                                                                                                                          
601AL001022 6010002437620370980BIRMINGHAM              ALA   010402021A001A27MB 27MU 40ST99 000000                                                                                                                                                                          
601AL001022 6010002437620370980BIRMINGHAM              ALA   010402021A002A00MB 19MB 12UN45 000000                                                                                                                                                                          
601AL001022 6010002437620370980BIRMINGHAM              ALA   010402021A003A75MB 00MB 12ST18 000000                                                                                                                                                                          
601AL001022 6010002437620370980BIRMINGHAM              ALA   010402021A004A30MB 15MB 12ST60 000000                                                                                                                                                                          
601AL001022 6010002437620370980BIRMINGHAM              ALA   010402021A005A28MB 00MU 12ST99 000000                                                                                                                                                                          
601AL001022 6010002437620370980BIRMINGHAM              ALA   010402021A006A25MB 00MU 12ST99 000000                                                                                                                                                                          
601AL001022 6010002437620370980BIRMINGHAM              ALA   010402021A007A00MB 00MU 12ST99 000000                                                                                                                                                                          
601AL001022 6010002437620370980BIRMINGHAM              ALA   010402021A008A36MB 36MB 12ST99 000000                                                                                                                                                                          
601AL001022 6010002437620370980BIRMINGHAM              ALA   010402021A009A24MB 00MU 12ST99 000000                                                                                                                                                                          
601AL001022 6010002437620370980BIRMINGHAM              ALA   020402021A001A35MB 00MB 90OF99 000000                                                                                                                                                                          
601AL001022 6010002437620370980BIRMINGHAM              ALA   020402021A002A01MB 19MB 40SO45 000000                                                                                                                                                                          
601AL001022 6010002437620370980BIRMINGHAM              ALA   020402021A003A42MB 19MB 40UN18 000000                                                                                                                                                                          
601AL001022 6010002437620370980BIRMINGHAM              ALA   020402021A004A27MB 00MU 12ST99 000000                                                                                                                                                                          
601AL001022 6010002437620370980BIRMINGHAM              ALA   030402021A001A21MB 00MU 12AQ99 000000                                                                                                                                                                          
601AL001022 6010002437620370980BIRMINGHAM              ALA   030402021A002A41MB 16MB 12UN45 000000                                                                                                                                                                          
601AL001022 6010002437620370980BIRMINGHAM              ALA   030402021A003A51MB 00MB 12UN99 000000                                                                                                                                                                          
601AL001022 6010002437620370980BIRMINGHAM              ALA   030402021A004A00MU 00MU 90ST99 000000                                                                                                                                                                          
601AL001022 6010002437620370980BIRMINGHAM              ALA   030402021A005A48FB 48MB 12CW45 000000                                                                                                                                                                          
601AL001022 6010002437620370980BIRMINGHAM              ALA   040402021A001A43MB 42MB 20AQ99 000000                                                                                                                                                                          
601AL001022 6010002437620370980BIRMINGHAM              ALA   040402021A002A21MB 17MB 12UN18 000000                                                                                                                                                                          
601AL001022 6010002437620370980BIRMINGHAM              ALA   040402021A003A22MB 00MB 12UN99 000000                                                                                                                                                                          
601AL001022 6010002437620370980BIRMINGHAM              ALA   040402021A004A00MU 00MU 12UN99 000000                                                                                                                                                                          
601AL001022 6010002437620370980BIRMINGHAM              ALA   050402021A001A44MB 00MB 12UN99 000000                                                                                                                                                                          
601AL001022 6010002437620370980BIRMINGHAM              ALA   050402021A002A45FW 00MB 12UN99 000000                                                                                                                                                                          
601AL001022 6010002437620370980BIRMINGHAM              ALA   060402021A001A23MB 00MB 12UN99 000000                                                                                                                                                                          
601AL001022 6010002437620370980BIRMINGHAM              ALA   060402021A002A40MB 00MU 12AQ99 000000                                                                                                                                                                          
601AL001022 6010002437620370980BIRMINGHAM              ALA   060402021A003A19MB 22MB 12AQ45 000000                                                                                                                                                                          
601AL001022 6010002437620370980BIRMINGHAM              ALA   060402021A004A00MW 20MB 12UN18 000000                                                                                                                                                                          
601AL001022 6010002437620370980BIRMINGHAM              ALA   060402021A005A34MB 33FB 12HU45 000000                                                                                                                                                                          
601AL001022 6010002437620370980BIRMINGHAM              ALA   060402021A006A76FB 00MU 90ST99 000000                                                                                                                                                                          
601AL001022 6010002437620370980BIRMINGHAM              ALA   060402021A007A33MB 00MB 12ST03 000000                                                                                                                                                                          
601AL001022 6010002437620370980BIRMINGHAM              ALA   060402021A008A24FB 00MU 12ST99 000000                                                                                                                                                                          
601AL001022 6010002437620370980BIRMINGHAM              ALA   060402021A009A22MB 20MB 12AQ45 000000                                                                                                                                                                          
601AL001022 6010002437620370980BIRMINGHAM              ALA   070402021A001A31FB 00MU 12ST99 000000                                                                                                                                                                          
601AL001022 6010002437620370980BIRMINGHAM              ALA   070402021A002A27MW 46MW 12FR45 000000                                                                                                                                                                          
601AL001022 6010002437620370980BIRMINGHAM              ALA   070402021A003A00MB 00MB 12UN99 000000                                                                                                                                                                          
601AL001022 6010002437620370980BIRMINGHAM              ALA   070402021A004A00MW 00MW 12UN99 000000                                                                                                                                                                          
601AL001022 6010002437620370980BIRMINGHAM              ALA   070402021A005A83MB 19MB 12UN03 000000                                                                                                                                                                          
601AL001022 6010002437620370980BIRMINGHAM              ALA   070402021A006A25MB 19MB 12AQ45 000000                                                                                                                                                                          
601AL001022 6010002437620370980BIRMINGHAM              ALA   070402021A007A21MB 21MB 12AQ60 000000                                                                                                                                                                          
601AL001022 6010002437620370980BIRMINGHAM              ALA   070402021A008A00MB 23MB 12AQ45 000000                                                                                                                                                                          
601AL001022 6010002437620370980BIRMINGHAM              ALA   070402021A009A54MW 19MB 12ST03 000000                                                                                                                                                                          
601AL001022 6010002437620370980BIRMINGHAM              ALA   080402021A001A75MB 20MB 12UN18 000000                                                                                                                                                                          
601AL001022 6010002437620370980BIRMINGHAM              ALA   080402021A002A37MB 00MU 12ST99 000000                                                                                                                                                                          
601AL001022 6010002437620370980BIRMINGHAM              ALA   080402021A003A18MB 20MB 12ST99 000000                                                                                                                                                                          
601AL001022 6010002437620370980BIRMINGHAM              ALA   080402021A004A38FB 63MB 12WI45 000000                                                                                                                                                                          
601AL001022 6010002437620370980BIRMINGHAM              ALA   090402021A001A27MB 00MU 12ST99 000000                                                                                                                                                                          
601AL001022 6010002437620370980BIRMINGHAM              ALA   090402021A002A00MB 24MB 12ST03 000000                                                                                                                                                                          
601AL001022 6010002437620370980BIRMINGHAM              ALA   090402021A003A00FW 22MB 12UN99 000000                                                                                                                                                                          
601AL001022 6010002437620370980BIRMINGHAM              ALA   090402021A004A33FB 00MU 90ST99 000000                                                                                                                                                                          
601AL001022 6010002437620370980BIRMINGHAM              ALA   090402021A005A23MB 00MU 12ST99 000000                                                                                                                                                                          
601AL001022 6010002437620370980BIRMINGHAM              ALA   090402021A006A35MW 26MB 12UN99 000000                                                                                                                                                                          
601AL001022 6010002437620370980BIRMINGHAM              ALA   090402021A007A36MU 36MB 12ST99 000000                                                                                                                                                                          
601AL001022 6010002437620370980BIRMINGHAM              ALA   090402021A008A45MW 00MU 90ST99 000000                                                                                                                                                                          
601AL001022 6010002437620370980BIRMINGHAM              ALA   090402021A009A43FB 00MU 90UN99 000000                                                                                                                                                                          
601AL001022 6010002437620370980BIRMINGHAM              ALA   100402021A001A00MB 00MU 12ST99 000000                                                                                                                                                                          
601AL001022 6010002437620370980BIRMINGHAM              ALA   100402021A002A33MB 18MB 12AQ18 000000                                                                                                                                                                          
601AL001022 6010002437620370980BIRMINGHAM              ALA   100402021A003A26MB 00MB 12UN99 000000                                                                                                                                                                          
601AL001022 6010002437620370980BIRMINGHAM              ALA   100402021A004A19MW 25MW 12UN99 000000                                                                                                                                                                          
601AL001022 6010002437620370980BIRMINGHAM              ALA   100402021A005A43MB 00MB 12UN60 000000                                                                                                                                                                          
601AL001022 6010002437620370980BIRMINGHAM              ALA   100402021A006A51MB 00MU 12ST99 000000                                                                                                                                                                          
601AL001022 6010002437620370980BIRMINGHAM              ALA   100402021A007A37MU 00MU 90ST99 000000                                                                                                                                                                          
601AL001022 6010002437620370980BIRMINGHAM              ALA   100402021A008A16MB 16MB 12AQ99 000000                                                                                                                                                                          
601AL001022 6010002437620370980BIRMINGHAM              ALA   100402021A009A44FB 00MU 12ST45 000000                                                                                                                                                                          
601AL001022 6010002437620370980BIRMINGHAM              ALA   100402021A010A51MB 20MB 12ST99 000000                                                                                                                                                                          
601AL001022 6010002437620370980BIRMINGHAM              ALA   110402021A001A18MB 00MU 12ST99 000000                                                                                                                                                                          
601AL001022 6010002437620370980BIRMINGHAM              ALA   110402021A002A00FB 00MB 12UN99 000000                                                                                                                                                                          
601AL001022 6010002437620370980BIRMINGHAM              ALA   110402021A003A00FB 00MB 12UN99 000000                                                                                                                                                                          
601AL001022 6010002437620370980BIRMINGHAM              ALA   120402021A001A23MB 00MB 12UN99 000000                                                                                                                                                                          
601AL001022 6010002437620370980BIRMINGHAM              ALA   120402021A002A30MB 21MB 12AQ99 000000                                                                                                                                                                          
601AL001022 6010002437620370980BIRMINGHAM              ALA   120402021A003A18MW 00MU 20ST45 000000                                                                                                                                                                          
601AL001022 6010002437620370980BIRMINGHAM              ALA   120402021A004A36FB 00MB 12ST03 000000                                                                                                                                                                          
601AL001022 6010002437620370980BIRMINGHAM              ALA   120402021A005A38FB 00MB 12ST03 000000                                                                                                                                                                          
601AL001045 6010000124290370981FAIRFIELD               ALA   010329020A001A19MB 20MB 12AQ99 000000                                                                                                                                                                          
601AL001045 6010000124290370981FAIRFIELD               ALA   020503020A001A42MB 23MB 12UN99 000000                                                                                                                                                                          
601AL001045 6010000124290370981FAIRFIELD               ALA   020503020A002B78MW 00UU 12UN99 000000                                                                                                                                                                          
601AL001045 6010000124290370981FAIRFIELD               ALA   040329020A001A26MB 30MB 12UN03 000000                                                                                                                                                                          
601AL001045 6010000124290370981FAIRFIELD               ALA   040329020A002A40MB 52MB 20BR45 000000                                                                                                                                                                          
601AL001045 6010000124290370981FAIRFIELD               ALA   080329020A001A35MB 22MB 12ST45 000000                                                                                                                                                                          
601AL001045 6010000124290370981FAIRFIELD               ALA   090411020A001D02MB 00MU 90UN09 00500006MB 09FB 14MB 29MB 31FB                                                                                                                                                  
601AL001065 6010000104960370981LEEDS                   ALA   080405020A001A23MW 17MB 12UN03 000000                                                                                                                                                                          
601AL001076 6010000056480370981MIDFIELD                ALA   090405020A001A48MB 00MU 12UN99 000000                                                                                                                                                                          
601AL001086 6010000070490370981TARRANT CITY            ALA   030405020A001A26MW 26MW 14IL45 000000                                                                                                                                                                          
601AL001086 6010000070490370981TARRANT CITY            ALA   070405020A001A46MW 00MU 90ST99 000000                                                                                                                                                                          
601AL001123 6010000629850370980HOOVER                  ALA   060329020A001B39MW 00UU 12UN99 000000                                                                                                                                                                          
601AL001195 6010000154240370981HUEYTOWN                ALA   100329020A001B65FW 00UU 20UN03 000000                                                                                                                                                                          
601AL002009B6010000824380495471MOBILE                  ALA   110405020A001A46MW 20MW 12AQ03 000000                                                                                                                                                                          
601AL002009B6010000824380495471MOBILE                  ALA   110405020A002A14MW 17MW 12UN45 000000                                                                                                                                                                          
601AL002009B6010000824380495471MOBILE                  ALA   120503021A001D63FW 40MW 14FA45 00100068MW                                                                                                                                                                      
601AL002011C6010002555510495470MOBILE                  ALA   010328021A001A42FW 25MB 12UN99 000000                                                                                                                                                                          
601AL002011C6010002555510495470MOBILE                  ALA   010328021A002A55MB 24MB 12UN99 000000                                                                                                                                                                          
601AL002011C6010002555510495470MOBILE                  ALA   020328021A001A44MW 16MB 12UN99 000000                                                                                                                                                                          
601AL002011C6010002555510495470MOBILE                  ALA   020328021A002A51MB 00MU 90ST99 000000                                                                                                                                                                          
601AL002011C6010002555510495470MOBILE                  ALA   020328021A003A21MW 00MU 12UN99 000000                                                                                                                                                                          
601AL002011C6010002555510495470MOBILE                  ALA   020328021A004A18MB 24MB 12UN99 000000                                                                                                                                                                          
601AL002011C6010002555510495470MOBILE                  ALA   020328021A005A16MB 48MW 12UN99 000000                                                                                                                                                                          
601AL002011C6010002555510495470MOBILE                  ALA   020328021A006A00MU 22MW 12UN99 000000                                                                                                                                                                          
601AL002011C6010002555510495470MOBILE                  ALA   020328021A007A37MB 00MU 12UN99 000000                                                                                                                                                                          
601AL002011C6010002555510495470MOBILE                  ALA   020328021A008A35FB 00MU 90UN99 000000                                                                                                                                                                          
601AL002011C6010002555510495470MOBILE                  ALA   030328021A001A16MW 17MW 12UN99 000000                                                                                                                                                                          
601AL002011C6010002555510495470MOBILE                  ALA   030328021A002A31FW 37MW 12OF99 000000                                                                                                                                                                          
601AL002011C6010002555510495470MOBILE                  ALA   040328021A001A35FW 35MW 12WI99 000000                                                                                                                                                                          
601AL002011C6010002555510495470MOBILE                  ALA   040328021A002A27MB 00MU 12UN99 000000                                                                                                                                                                          
601AL002011C6010002555510495470MOBILE                  ALA   040328021A003A00MU 00MU 90UN99 000000                                                                                                                                                                          
601AL002011C6010002555510495470MOBILE                  ALA   050328021A001A43FB 00MU 90UN99 000000                                                                                                                                                                          
601AL002011C6010002555510495470MOBILE                  ALA   050328021A002A00FU 16FB 12UN99 000000                                                                                                                                                                          
601AL002011C6010002555510495470MOBILE                  ALA   050328021A003A65MB 00FU 90UN99 000000                                                                                                                                                                          
601AL002011C6010002555510495470MOBILE                  ALA   050328021A004A00MU 26MB 12UN99 000000                                                                                                                                                                          
601AL002011C6010002555510495470MOBILE                  ALA   060328021A001A00MU 00MU 12UN99 000000                                                                                                                                                                          
601AL002011C6010002555510495470MOBILE                  ALA   070328021A001A00MU 40MW 90UN99 000000                                                                                                                                                                          
601AL002011C6010002555510495470MOBILE                  ALA   080328021A001A00MU 43MB 12UN99 000000                                                                                                                                                                          
601AL002011C6010002555510495470MOBILE                  ALA   080328021A002A44FB 54MB 90AQ99 000000                                                                                                                                                                          
601AL002011C6010002555510495470MOBILE                  ALA   080328021A003A27MA 22MA 12UN99 000000                                                                                                                                                                          
601AL002011C6010002555510495470MOBILE                  ALA   080328021A004A43MW 36MW 90UN99 000000                                                                                                                                                                          
601AL002011C6010002555510495470MOBILE                  ALA   080328021A005A18MB 15MB 12UN99 000000                                                                                                                                                                          
601AL002011C6010002555510495470MOBILE                  ALA   080328021A006A49MW 00MU 12UN99 000000                                                                                                                                                                          
601AL002011C6010002555510495470MOBILE                  ALA   080328021A007A40MW 35MB 12AQ99 000000                                                                                                                                                                          
601AL002011C6010002555510495470MOBILE                  ALA   080328021A008A25MW 21MB 12UN99 000000                                                                                                                                                                          
601AL002011C6010002555510495470MOBILE                  ALA   100328021A001A00MU 44MW 12UN99 000000                                                                                                                                                                          
601AL002011C6010002555510495470MOBILE                  ALA   100328021A002A00MU 27MB 90UN99 000000                                                                                                                                                                          
601AL002011C6010002555510495470MOBILE                  ALA   100328021A003A39MW 00MU 12UN99 000000                                                                                                                                                                          
601AL002011C6010002555510495470MOBILE                  ALA   100328021A004A00MU 00MU 90UN99 000000                                                                                                                                                                          
601AL002011C6010002555510495470MOBILE                  ALA   100328021A005A00MB 00MU 12UN99 000000                                                                                                                                                                          
601AL002011C6010002555510495470MOBILE                  ALA   100328021A006A00MU 00MU 12UN99 000000                                                                                                                                                                          
601AL002011C6010002555510495470MOBILE                  ALA   100328021A007A00MU 00MU 90UN99 000000                                                                                                                                                                          
601AL002011C6010002555510495470MOBILE                  ALA   120328021A001A34MB 49MB 12UN99 000000                                                                                                                                                                          
601AL002011C6010002555510495470MOBILE                  ALA   120328021A002A21FW 24MB 12UN99 000000                                                                                                                                                                          
601AL002011C6010002555510495470MOBILE                  ALA   120328021A003A46MB 00MU 12UN99 000000                                                                                                                                                                          
601AL002011C6010002555510495470MOBILE                  ALA   120328021A004A25MB 00MU 12UN99 000000                                                                                                                                                                          
601AL002011C6010002555510495470MOBILE                  ALA   120328021A005A27FB 00MU 12UN99 000000                                                                                                                                                                          
601AL002011C6010002555510495470MOBILE                  ALA   120328021A006A36MW 00MU 90UN99 000000                                                                                                                                                                          
601AL002024 6010000287440495471PRICHARD                ALA   010405020A001A58MB 54FB 20UN99 000000                                                                                                                                                                          
601AL002024 6010000287440495471PRICHARD                ALA   040405020A001A30FB 00FU 40UN99 000000                                                                                                                                                                          
601AL002024 6010000287440495471PRICHARD                ALA   050405020A001A52MB 00FU 90UN99 000000                                                                                                                                                                          
601AL002024 6010000287440495471PRICHARD                ALA   060405020A001A26MB 00FU 12UN99 000000                                                                                                                                                                          
601AL002024 6010000287440495471PRICHARD                ALA   060405020A002A22MB 00FU 12UN99 000000                                                                                                                                                                          
601AL002024 6010000287440495471PRICHARD                ALA   060405020A003A25MB 20MB 14UN99 000000                                                                                                                                                                          
601AL002024 6010000287440495471PRICHARD                ALA   070405020A001A23MB 00MB 12UN99 000000                                                                                                                                                                          
601AL002024 6010000287440495471PRICHARD                ALA   080405020A001A26MB 20MB 20FR99 000000                                                                                                                                                                          
601AL002024 6010000287440495471PRICHARD                ALA   120405020A001A06MB 00MU 12AQ99 000000                                                                                                                                                                          
601AL002055 6010000123360495471SARALAND                ALA   040405020A001A68MW 17MW 12AQ99 000000                                                                                                                                                                          
601AL002067 6010000023220495471BAYOU LA BATRE          ALA   040329020A001A42MW 41MW 12AQ99 000000                                                                                                                                                                          
601AL003009C6010000220270515561MONTGOMERY              ALA   030405020A001A00MB 19MB 14UN19 000000                                                                                                                                                                          
601AL003009C6010000220270515561MONTGOMERY              ALA   120405020A001A00FB 34MB 90GF45 000000                                                                                                                                                                          
601AL003012 6010002023500515560MONTGOMERY              ALA   010328021A001A52FB 37FB 20UN45 000000                                                                                                                                                                          
601AL003012 6010002023500515560MONTGOMERY              ALA   010328021A002A01MB 33MB 40UN99 000000                                                                                                                                                                          
601AL003012 6010002023500515560MONTGOMERY              ALA   010328021A003A21MB 20MB 12UN99 000000                                                                                                                                                                          
601AL003012 6010002023500515560MONTGOMERY              ALA   010328021A004A24MB 00MB 12UN99 000000                                                                                                                                                                          
601AL003012 6010002023500515560MONTGOMERY              ALA   020328021A001A42MB 47MB 20AQ99 000000                                                                                                                                                                          
601AL003012 6010002023500515560MONTGOMERY              ALA   040328021A001A15MB 24MB 12UN99 000000                                                                                                                                                                          
601AL003012 6010002023500515560MONTGOMERY              ALA   040328021A002A44FB 50MB 90UN99 000000                                                                                                                                                                          
601AL003012 6010002023500515560MONTGOMERY              ALA   040328021A003A22MB 21MB 12UN99 000000                                                                                                                                                                          
601AL003012 6010002023500515560MONTGOMERY              ALA   050328021A001A37FB 25FB 20AQ45 000000                                                                                                                                                                          
601AL003012 6010002023500515560MONTGOMERY              ALA   050328021A002A22MW 19MB 12UN99 000000                                                                                                                                                                          
601AL003012 6010002023500515560MONTGOMERY              ALA   060328021A001A58MB 21MB 90AQ99 000000                                                                                                                                                                          
601AL003012 6010002023500515560MONTGOMERY              ALA   060328021A002A34MB 18MB 12UN99 000000                                                                                                                                                                          
601AL003012 6010002023500515560MONTGOMERY              ALA   060328021A003A32FB 26MB 12UN99 000000                                                                                                                                                                          
601AL003012 6010002023500515560MONTGOMERY              ALA   060328021A004A21MB 23MB 12UN99 000000                                                                                                                                                                          
601AL003012 6010002023500515560MONTGOMERY              ALA   060328021A005A26MB 18MB 12UN99 000000                                                                                                                                                                          
601AL003012 6010002023500515560MONTGOMERY              ALA   070328021A001A53MB 16MB 90UN99 000000                                                                                                                                                                          
601AL003012 6010002023500515560MONTGOMERY              ALA   080328021A001A41MW 00MU 12UN99 000000                                                                                                                                                                          
601AL003012 6010002023500515560MONTGOMERY              ALA   090328021A001A24MW 19MB 12UN99 000000                                                                                                                                                                          
601AL003012 6010002023500515560MONTGOMERY              ALA   090328021A002A19MB 19MB 12UN99 000000                                                                                                                                                                          
601AL003012 6010002023500515560MONTGOMERY              ALA   100328021A001A29MB 00MU 12UN99 000000                                                                                                                                                                          
601AL003012 6010002023500515560MONTGOMERY              ALA   100328021A002A41FW 26FW 12UN99 000000                                                                                                                                                                          
601AL003012 6010002023500515560MONTGOMERY              ALA   110328021A001A66MB 00FU 20UN99 000000                                                                                                                                                                          
601AL003012 6010002023500515560MONTGOMERY              ALA   110328021A002A40MB 00FU 20UN99 000000                                                                                                                                                                          
601AL003012 6010002023500515560MONTGOMERY              ALA   120328021A001A19FW 37MW 20GF99 000000                                                                                                                                                                          
601AL003012 6010002023500515560MONTGOMERY              ALA   120328021A002A22MB 24MB 14AQ99 000000                                                                                                                                                                          
601AL003012 6010002023500515560MONTGOMERY              ALA   120328021A003A30MB 00MU 12UN99 000000                                                                                                                                                                          
601AL003057 6010000000000515561AL DEPT OF MENTAL HEALTHALA   070410021A001A63MW 33MW 40AQ99 000000                                                                                                                                                                          
601AL004009C6010000195170015561AUTAUGA                 ALA   020329020A001A48MB 51MB 12BR99 000000                                                                                                                                                                          
601AL004015 6010000243970015561PRATTVILLE              ALA   100405020A001A31MB 54MB 12AQ45 000000                                                                                                                                                                          
601AL004015 6010000243970015561PRATTVILLE              ALA   100405020A002A11FW 00MU 40UN45 000000                                                                                                                                                                          
601AL005009B6010000750310025471BALDWIN                 ALA   040329020A001B70FW 00UU 20UN99 000000                                                                                                                                                                          
601AL005036 6010000076190025471FOLEY                   ALA   040329020A001A70FW 71MW 20WI99 000000                                                                                                                                                                          
601AL005036 6010000076190025471FOLEY                   ALA   090329020A001A40FW 38MB 90AQ99 000000                                                                                                                                                                          
601AL006015 601000013962003   0EUFAULA                 ALA   090329020A001B23MB 00UU 12UN45 000000                                                                                                                                                                          
601AL006015 601000013962003   0EUFAULA                 ALA   110329020A001A63FW 44MW 14WI45 000000                                                                                                                                                                          
601AL006027 601000001481003   0CLAYTON                 ALA   050329020A001A19MB 19MB 12UN45 000000                                                                                                                                                                          
601AL006027 601000001481003   0CLAYTON                 ALA   100329020A001A52MB 20MB 12EE03 000000                                                                                                                                                                          
601AL006077 601000000354003   0BAKER HILL              ALA   090329020A001A21MW 22MW 90FR03 000000                                                                                                                                                                          
601AL009016 601000003684006   0UNION SPRINGS           ALA   070405020A001A20MB 14MB 20OF45 000000                                                                                                                                                                          
601AL010027 601000001744007   0GEORGIANA               ALA   090329020A001A32MB 51MB 12FR45 000000                                                                                                                                                                          
601AL011009B6010000586830080421CALHOUN                 ALA   100329020A001A26MW 25MW 14AQ99 000000                                                                                                                                                                          
601AL011015 6010000243700080420ANNISTON                ALA   040329020A001A55MW 24MW 12IL99 000000                                                                                                                                                                          
601AL011015 6010000243700080420ANNISTON                ALA   050329020A001B59MW 00UU 90UN03 000000                                                                                                                                                                          
601AL011015 6010000243700080420ANNISTON                ALA   050329020A002ABBFB 16FB 40DA60 000000                                                                                                                                                                          
601AL011015 6010000243700080420ANNISTON                ALA   050329020A003A44FB 22MB 12UN99 000000                                                                                                                                                                          
601AL011015 6010000243700080420ANNISTON                ALA   080329020A001A26FB 23MB 12ST99 000000                                                                                                                                                                          
601AL011015 6010000243700080420ANNISTON                ALA   090329020A001A54MB 40FB 12HU45 000000                                                                                                                                                                          
601AL011015 6010000243700080420ANNISTON                ALA   110329020A001A26MB 00FU 12ST45 000000                                                                                                                                                                          
601AL011015 6010000243700080420ANNISTON                ALA   120410021A001A17MW 19MW 12AQ45 000000                                                                                                                                                                          
601AL011055 6010000146490080421OXFORD                  ALA   040405020A001A54FW 44MW 12WI99 000000                                                                                                                                                                          
601AL013016 601000003228010   0CENTRE                  ALA   120329020A001A11MW 13MW 14OF99 000000                                                                                                                                                                          
601AL014016 601000007830011   0CLANTON                 ALA   040329020A001A27MW 00MW 12UN99 000000                                                                                                                                                                          
601AL016008C601000016063013   0CLARKE                  ALA   080329020A001B37MW 00UU 12UN99 000000                                                                                                                                                                          
601AL016008C601000016063013   0CLARKE                  ALA   090329020A001A19MB 21MB 12FR99 000000                                                                                                                                                                          
601AL017027 601000002410014   0LINEVILLE               ALA   100405020A001A00MB 00MU 40SO60 000000                                                                                                                                                                          
601AL018008C601000010703015   0CLEBURNE                ALA   080411020A001A45FW 00MU 90MO60 000000                                                                                                                                                                          
601AL018008C601000010703015   0CLEBURNE                ALA   080411020A002A35FW 00MU 12WI45 000000                                                                                                                                                                          
601AL018016 601000003014015   0HEFLIN                  ALA   020329020A001D67MB 72MB 12AQ99 00100077FB                                                                                                                                                                      
601AL019025 601000021260016   0ENTERPRISE              ALA   050329020A001A39FW 20MB 12UN99 000000                                                                                                                                                                          
601AL020009C6010000225760172771COLBERT                 ALA   040329020A001B78MW 00UU 90UN99 000000                                                                                                                                                                          
601AL020009C6010000225760172771COLBERT                 ALA   120329020A001A27MW 35MW 14AQ99 000000                                                                                                                                                                          
601AL021016 601000003644018   0EVERGREEN               ALA   050329020A001A22MB 28FB 12HU99 000000                                                                                                                                                                          
601AL022008C601000010610019   0COOSA                   ALA   030329020A001B24MW 00UU 12UN99 000000                                                                                                                                                                          
601AL022008C601000010610019   0COOSA                   ALA   040329020A001B37MW 00UU 12UN45 000000                                                                                                                                                                          
601AL023016 601000008828020   0ANDALUSIA               ALA   020329020A001A61MW 23MW 90FA45 000000                                                                                                                                                                          
601AL023026 601000006633020   0OPP                     ALA   010405020A001A01FW 31MW 40DA99 000000                                                                                                                                                                          
601AL023026 601000006633020   0OPP                     ALA   100405020A001A07FW 27MW 90DA99 000000                                                                                                                                                                          
601AL023057 601000000558020   0RED LEVEL               ALA   070405020A001A48MW 00FW 12HU45 000000                                                                                                                                                                          
601AL025008B601000060745022   0CULLMAN                 ALA   010329020A001B16MW 00UU 14UN99 000000                                                                                                                                                                          
601AL025008B601000060745022   0CULLMAN                 ALA   060329020A001A00MW 19FW 40SO60 000000                                                                                                                                                                          
601AL026015 6010000151780232271OZARK                   ALA   020405020A001A16FB 36MB 90OF99 000000                                                                                                                                                                          
601AL026015 6010000151780232271OZARK                   ALA   060405020A001A77FW 25MB 40UN99 000000                                                                                                                                                                          
601AL027015 601000020592024   0SELMA                   ALA   070405020A001A29MW 79MW 12ST80C000000                                                                                                                                                                          
601AL027015 601000020592024   0SELMA                   ALA   090405020A001A73MW 18MB 12ST03 000000                                                                                                                                                                          
601AL028015 601000012988025   0FORT PAYNE              ALA   100329020A001A41MW 24MW 40SF45 000000                                                                                                                                                                          
601AL029065 6010000104260265561MILLBROOK               ALA   110405020A001A31MB 00MU 40UN99 000000                                                                                                                                                                          
601AL029065 6010000104260265561MILLBROOK               ALA   120405020A001A37MW 00MU 12UN99 000000                                                                                                                                                                          
601AL030016 601000007706027   0ATMORE                  ALA   020329020A001A41FB 37MB 90GF99 000000                                                                                                                                                                          
601AL030016 601000007706027   0ATMORE                  ALA   060329020A001A37MB 38MB 12AQ45 000000                                                                                                                                                                          
601AL030016 601000007706027   0ATMORE                  ALA   090329020A001A49MB 50FB 20BF45 000000                                                                                                                                                                          
601AL031016 6010000066180283031ATTALLA                 ALA   030329020A001A00MW 18MW 12AQ99 000000                                                                                                                                                                          
601AL031024 6010000391290283030GADSDEN                 ALA   080329020A001B39MW 00UU 12UN99 000000                                                                                                                                                                          
601AL031024 6010000391290283030GADSDEN                 ALA   100329020A001A38MB 29FB 20BF45 000000                                                                                                                                                                          
601AL031024 6010000391290283030GADSDEN                 ALA   110329020A001A38FB 43MB 20WI45 000000                                                                                                                                                                          
601AL031024 6010000391290283030GADSDEN                 ALA   120329020A001B36MB 00UU 12UN99 000000                                                                                                                                                                          
601AL033008C601000017594030   0FRANKLIN                ALA   010329020A001A00MU 32MW 40UN45 000000                                                                                                                                                                          
601AL033008C601000017594030   0FRANKLIN                ALA   080329020A001A30FW 00FU 12GF45 000000                                                                                                                                                                          
601AL033008C601000017594030   0FRANKLIN                ALA   080411020A002A58MW 59FW 90HU44 000000                                                                                                                                                                          
601AL033036 601000003387030   0RED BAY                 ALA   080405020A001A40FW 43MW 14XW45 000000                                                                                                                                                                          
601AL035008D601000008128032   0GREENE                  ALA   020405020A001A28FB 00MB 12WI45 000000                                                                                                                                                                          
601AL035008D601000008128032   0GREENE                  ALA   040405020A001A61MW 43MB 14NE45 000000                                                                                                                                                                          
601AL037008D601000009277034   0HENRY                   ALA   120405020A001A40MB 30MB 12AQ45 000000                                                                                                                                                                          
601AL037008D601000009277034   0HENRY                   ALA   120405020A002A00MW 00MU 40UN99 000000                                                                                                                                                                          
601AL038009B6010000268890352271HOUSTON                 ALA   080405020A001A34FW 26MW 14WI45 000000                                                                                                                                                                          
601AL038013 6010000579610352270DOTHAN                  ALA   010329020A001A88MW 48MB 90ST99 000000                                                                                                                                                                          
601AL038013 6010000579610352270DOTHAN                  ALA   080329020A001A16MB 28FB 20BF99 000000                                                                                                                                                                          
601AL038013 6010000579610352270DOTHAN                  ALA   110329020A001A35MB 18MB 12UN99 000000                                                                                                                                                                          
601AL039008B601000032365036   0JACKSON                 ALA   050405020A001A34MW 25FW 90AQ99 000000                                                                                                                                                                          
601AL039008B601000032365036   0JACKSON                 ALA   120405020A001A46MB 00FU 12UN99 000000                                                                                                                                                                          
601AL039015 601000014819036   0SCOTTSBORO              ALA   010405020A001A19FW 20MW 14GF99 000000                                                                                                                                                                          
601AL039015 601000014819036   0SCOTTSBORO              ALA   090405020A001A58FW 63MW 40WI45 000000                                                                                                                                                                          
601AL039015 601000014819036   0SCOTTSBORO              ALA   120503021A001D03MW 48MW 90IL44 00200039FW 64MW                                                                                                                                                                 
601AL041009B6010000483960392771LAUDERDALE              ALA   020405020A001A45MW 17MW 90AQ99 000000                                                                                                                                                                          
601AL041014 6010000364050392770FLORENCE                ALA   050329020A001A71FW 76MW 90WI99 000000                                                                                                                                                                          
601AL041014 6010000364050392770FLORENCE                ALA   100329020A001B24FB 00UU 20UN45 000000                                                                                                                                                                          
601AL043008B6010000467810410570LEE                     ALA   080405020A001A40FB 24MB 20ST99 000000                                                                                                                                                                          
601AL043014 6010000431540410570AUBURN                  ALA   010329020A001A20MW 20MW 40FR45 000000                                                                                                                                                                          
601AL043014 6010000431540410570AUBURN                  ALA   030329020A001A39MW 43MW 20FR45 000000                                                                                                                                                                          
601AL043025 6010000235890410570OPELIKA                 ALA   010405020A001A50MW 00MU 12AQ99 000000                                                                                                                                                                          
601AL043025 6010000235890410570OPELIKA                 ALA   020405020A001A27MB 17MB 20UN45 000000                                                                                                                                                                          
601AL043025 6010000235890410570OPELIKA                 ALA   040405020A001A28FW 35MW 12WI99 000000                                                                                                                                                                          
601AL043025 6010000235890410570OPELIKA                 ALA   050405020A001A19FW 44MW 12AQ44 000000                                                                                                                                                                          
601AL043025 6010000235890410570OPELIKA                 ALA   070405020A001A24MB 26MB 12AQ03 000000                                                                                                                                                                          
601AL043025 6010000235890410570OPELIKA                 ALA   080405020A001A31MB 21FB 20BF99 000000                                                                                                                                                                          
601AL043025 6010000235890410570OPELIKA                 ALA   090405020A001A24MB 00FU 12UN99 000000                                                                                                                                                                          
601AL043025 6010000235890410570OPELIKA                 ALA   090405020A002A28MB 00FU 12UN99 000000                                                                                                                                                                          
601AL044009B6010000453640423681LIMESTONE               ALA   010405020A001A26MW 35MW 90AQ26 000000                                                                                                                                                                          
601AL044009B6010000453640423681LIMESTONE               ALA   010405020A002A49FW 50MW 12WI60 000000                                                                                                                                                                          
601AL045008C601000011238043   0LOWNDES                 ALA   040405020A001A33MB 00MU 12UN99 000000                                                                                                                                                                          
601AL045008C601000011238043   0LOWNDES                 ALA   050405020A001A70FB 48MB 12GF99 000000                                                                                                                                                                          
601AL045008C601000011238043   0LOWNDES                 ALA   060405020A001A24MB 47MW 12ST99 000000                                                                                                                                                                          
601AL046008C601000011058044   0MACON                   ALA   010405020A001A03MW 34MW 14FR99 000000                                                                                                                                                                          
601AL046008C601000011058044   0MACON                   ALA   030405020A001A17MB 21MB 12AQ99 000000                                                                                                                                                                          
601AL046015 601000011892044   0TUSKEGEE                ALA   030405020A001A24MB 24MB 12AQ99 000000                                                                                                                                                                          
601AL046015 601000011892044   0TUSKEGEE                ALA   040405020A001A27MB 00MU 12AQ26 000000                                                                                                                                                                          
601AL047012 6010001588300453680HUNTSVILLE              ALA   020328021A001A23MB 00MB 40AQ45 000000                                                                                                                                                                          
601AL047012 6010001588300453680HUNTSVILLE              ALA   020328021A002A23FW 21MB 40AQ45 000000                                                                                                                                                                          
601AL047012 6010001588300453680HUNTSVILLE              ALA   040328021A001A34FW 00MU 90UN99 000000                                                                                                                                                                          
601AL047012 6010001588300453680HUNTSVILLE              ALA   050328021A001A22MB 00MU 90AQ45 000000                                                                                                                                                                          
601AL047012 6010001588300453680HUNTSVILLE              ALA   060328021A001A20MB 18MB 12AQ45 000000                                                                                                                                                                          
601AL047012 6010001588300453680HUNTSVILLE              ALA   070328021A001A41MW 35FW 90BF45 000000                                                                                                                                                                          
601AL047012 6010001588300453680HUNTSVILLE              ALA   080328021A001A27MB 00FU 12UN45 000000                                                                                                                                                                          
601AL047012 6010001588300453680HUNTSVILLE              ALA   080328021A002A29MB 00FU 12UN45 000000                                                                                                                                                                          
601AL047012 6010001588300453680HUNTSVILLE              ALA   080328021A003A31FW 00MW 90UN45 000000                                                                                                                                                                          
601AL047012 6010001588300453680HUNTSVILLE              ALA   090328021A001A40FW 49MW 12GF45 000000                                                                                                                                                                          
601AL047012 6010001588300453680HUNTSVILLE              ALA   110328021A001A64MW 63FW 12HU99 000000                                                                                                                                                                          
601AL047012 6010001588300453680HUNTSVILLE              ALA   110328021A002A40FB 50MW 90ST99 000000                                                                                                                                                                          
601AL047012 6010001588300453680HUNTSVILLE              ALA   120328021A001A49MB 00MU 90UN99 000000                                                                                                                                                                          
601AL047012 6010001588300453680HUNTSVILLE              ALA   120328021A002A65MB 00MU 90UN49 000000                                                                                                                                                                          
601AL047012 6010001588300453680HUNTSVILLE              ALA   120328021A003A38MW 23MW 90ST99 000000                                                                                                                                                                          
601AL047024 6010000294430453681MADISON                 ALA   080405020A001A52MW 28MW 90FA45 000000                                                                                                                                                                          
601AL049016 601000006812047   0HAMILTON                ALA   010329020A001A38MW 35MW 12AQ45 000000                                                                                                                                                                          
601AL049016 601000006812047   0HAMILTON                ALA   050411020A001D04MW 35MW 20FR60 00200007FW 34FW                                                                                                                                                                 
601AL050008B601000043179048   0MARSHALL                ALA   050405020A001A25MW 00MU 14FR45 000000                                                                                                                                                                          
601AL050036 601000007202048   0ARAB                    ALA   110329020A001A33MW 00MU 14AQ45 000000                                                                                                                                                                          
601AL050046 601000007440048   0BOAZ                    ALA   060329020A001A21MW 51MW 14SO45 000000                                                                                                                                                                          
601AL051008C601000017529050   0MONROE                  ALA   080405020A001A43FB 00MB 12GF99 000000                                                                                                                                                                          
601AL052013 6010000541380522100DECATUR                 ALA   060426021A001A31FB 28MB 12GF99 000000                                                                                                                                                                          
601AL052013 6010000541380522100DECATUR                 ALA   100405020A001A29MW 00MU 12UN03 000000                                                                                                                                                                          
601AL052013 6010000541380522100DECATUR                 ALA   100405020A002A35FW 00MU 20UN45 000000                                                                                                                                                                          
601AL052097 6010000016370522101PRICEVILLE              ALA   020405020A001A39MW 00MU 14UN99 000000                                                                                                                                                                          
601AL054008C601000014118054   0PICKENS                 ALA   090405020A001A27FB 28MB 12CW99 000000                                                                                                                                                                          
601AL054057 601000000665054   0PICKENSVILLE            ALA   090405020A001A27FB 28MB 14GF99 000000                                                                                                                                                                          
601AL055008C601000013381055   0PIKE                    ALA   100405020A001A00MW 21FW 12ST99 000000                                                                                                                                                                          
601AL055015 601000013989055   0TROY                    ALA   120405020A001A21MB 21MB 12AQ45 000000                                                                                                                                                                          
601AL055027 601000002350055   0BRUNDIDGE               ALA   120329020A001A44MW 38MW 20AQ45 000000                                                                                                                                                                          
601AL055037 601000000000055   0TROY STATE UNIVERSITY   ALA   090405020A001A17FB 00MB 40AQ99 000000                                                                                                                                                                          
601AL056008C601000014416056   0RANDOLPH                ALA   030405020A001A74FB 17MB 40OF03 000000                                                                                                                                                                          
601AL057009C6010000229680571841RUSSELL                 ALA   020405020A001A41FB 39MB 90CW45 000000                                                                                                                                                                          
601AL057009C6010000229680571841RUSSELL                 ALA   080405020A001A26MB 51MB 12AQ99 000000                                                                                                                                                                          
601AL057014 6010000283750571841PHENIX CITY             ALA   030405020A001A01MB 43MB 90UN99 000000                                                                                                                                                                          
601AL057014 6010000283750571841PHENIX CITY             ALA   090405020A001A40MB 39MB 12AQ45 000000                                                                                                                                                                          
601AL058066 6010000080840580981MOODY                   ALA   010405020A001A34MW 00MW 20AQ45 000000                                                                                                                                                                          
601AL058066 6010000080840580981MOODY                   ALA   120405020A001A49MW 27MW 12AQ45 000000                                                                                                                                                                          
601AL059009B6010000679640590981SHELBY                  ALA   020405020A001A17MW 15MW 20BR99 000000                                                                                                                                                                          
601AL059009B6010000679640590981SHELBY                  ALA   070405020A001A40MB 00MB 12UN99 000000                                                                                                                                                                          
601AL059016 6010000031700590981CALERA                  ALA   060329020A001A31FB 28MB 12GF99 000000                                                                                                                                                                          
601AL059026 6010000033290590981COLUMBIANA              ALA   090329020A001A19MB 21MB 20AQ40 000000                                                                                                                                                                          
601AL059036 6010000048440590981MONTEVALLO              ALA   040405020A001A25MB 00MU 12UN99 000000                                                                                                                                                                          
601AL059045 6010000227070590981ALABASTER               ALA   090329020A001A21MB 19MB 12UN99 000000                                                                                                                                                                          
601AL059045 6010000227070590981ALABASTER               ALA   100329020A001A25FW 19MW 14GF99 000000                                                                                                                                                                          
601AL061036 601000004946061   0CHILDERSBURG            ALA   060411020A001A21MB 33MB 12UN99 000000                                                                                                                                                                          
601AL061036 601000004946061   0CHILDERSBURG            ALA   060411020A002A21MB 33MB 12AQ99 000000                                                                                                                                                                          
601AL063009B6010000671010639151TUSCALOOSA              ALA   020405020A001A48MW 38MW 14AQ45 000000                                                                                                                                                                          
601AL063009B6010000671010639151TUSCALOOSA              ALA   090405020A001A25MW 18MW 90AQ45 000000                                                                                                                                                                          
601AL063009B6010000671010639151TUSCALOOSA              ALA   090405020A002A31MW 29MW 90AQ45 000000                                                                                                                                                                          
601AL063009B6010000671010639151TUSCALOOSA              ALA   110405020A001A25MW 00MW 20AQ45 000000                                                                                                                                                                          
601AL063013 6010000782080639150TUSCALOOSA              ALA   030405020A001A49FW 32MW 90ST99 000000                                                                                                                                                                          
601AL063013 6010000782080639150TUSCALOOSA              ALA   050405020A001A19MW 22MW 12AQ99 000000                                                                                                                                                                          
601AL063013 6010000782080639150TUSCALOOSA              ALA   050405020A002A43MB 43MB 14AQ80C000000                                                                                                                                                                          
601AL063013 6010000782080639150TUSCALOOSA              ALA   060405020A001A21FB 20MB 12ST99 000000                                                                                                                                                                          
601AL063013 6010000782080639150TUSCALOOSA              ALA   080405020A001A21MW 00MU 12UN99 000000                                                                                                                                                                          
601AL063013 6010000782080639150TUSCALOOSA              ALA   120503021A001E31MU 17MB 12ST03 00100233MU                                              17MB 12ST03 19MB 12ST03                                                                                                 
601AL064015 601000014107064   0JASPER                  ALA   010405020A001A20FW 41MW 90UN99 000000                                                                                                                                                                          
601AL066008D601000009998066   0WILCOX                  ALA   050405020A001A21MB 39MB 14AQ45 000000                                                                                                                                                                          
601AL067008C601000020070067   0WINSTON                 ALA   050405020A001A59MW 00MW 12OF45 000000                                                                                                                                                                          
602AZ002008B801000049527002   0COCHISE                 ARIZ  020503021A001A31FW 20MW 20GF45 000000                                                                                                                                                                          
602AZ002008B801000049527002   0COCHISE                 ARIZ  020503021A002B47MW 00UU 12UN99 000000                                                                                                                                                                          
602AZ002008B801000049527002   0COCHISE                 ARIZ  030501020A001A50MWN29MWN20FA45 000000                                                                                                                                                                          
602AZ002008B801000049527002   0COCHISE                 ARIZ  050501020A001A44MWN38MWN12AQ18 000000                                                                                                                                                                          
602AZ002008B801000049527002   0COCHISE                 ARIZ  060501020A001A54FWN33MWN12MO45 000000                                                                                                                                                                          
602AZ002008B801000049527002   0COCHISE                 ARIZ  080501020A001A31MWH00MWH12AQ18 000000                                                                                                                                                                          
602AZ002008B801000049527002   0COCHISE                 ARIZ  090501020A001A44FWN35MWN12WI45 000000                                                                                                                                                                          
602AZ002008B801000049527002   0COCHISE                 ARIZ  110516021A001E17FW 16MW 12AQ99 00100123MW                                              20MW 12AQ99                                                                                                             
602AZ002036 801000006300002   0BISBEE                  ARIZ  061126010A001A36MWN19MWN20SF60 000000                                                                                                                                                                          
602AZ002055 801000014805002   0DOUGLAS                 ARIZ  090501020A001A24MWH26MWH12ST45 000000                                                                                                                                                                          
602AZ003009B8010000514890032751COCONINO                ARIZ  010307020A001A21MWH28MWN13AQ60 000000                                                                                                                                                                          
602AZ003009B8010000514890032751COCONINO                ARIZ  070307020A001A30FIN21MIN20AQ45 000000                                                                                                                                                                          
602AZ003009B8010000514890032751COCONINO                ARIZ  090307020A001C64MWN36MWN13AQ03 000001                                                  34FWN13AQ03                                                                                                             
602AZ003013 8010000547160032750FLAGSTAFF               ARIZ  010622010A001B55MWN00UUU20UN99 000000                                                                                                                                                                          
602AZ003013 8010000547160032750FLAGSTAFF               ARIZ  010622010A002A40MIN39MIN40AQ42 000000                                                                                                                                                                          
602AZ003076 8010000029400032751WILLIAMS                ARIZ  031126010A001B00MUU00UUU90UN99 000000                                                                                                                                                                          
602AZ004008C801000018178004   0GILA                    ARIZ  110403020A001D23MWN16MWN12BR60 00100048FWN                                                                                                                                                                     
602AZ004065 801000014089004   0PAYSON                  ARIZ  100322020A001A52FWN37MWN30FR45 000000                                                                                                                                                                          
602AZ007009A8010002618760076621MARICOPA                ARIZ  010606010A001B45MWH00UUU12UN99 000000                                                                                                                                                                          
602AZ007009A8010002618760076621MARICOPA                ARIZ  010606010A002B31MWH00UUU90UN99 000000                                                                                                                                                                          
602AZ007009A8010002618760076621MARICOPA                ARIZ  010606010A003B23MWH00UUU12UN99 000000                                                                                                                                                                          
602AZ007009A8010002618760076621MARICOPA                ARIZ  010606010A004A22MWN30MWN12ST81E000000                                                                                                                                                                          
602AZ007009A8010002618760076621MARICOPA                ARIZ  041105010A001B29MWH00UUU12UN99 000000                                                                                                                                                                          
602AZ007009A8010002618760076621MARICOPA                ARIZ  051119010A001A23MWH24MWH12ST45 000000                                                                                                                                                                          
602AZ007009A8010002618760076621MARICOPA                ARIZ  051119010A002A62MWN58FWN12HU60 000000                                                                                                                                                                          
602AZ007009A8010002618760076621MARICOPA                ARIZ  051119010A003B36FWN00UUU90UN99 000000                                                                                                                                                                          
602AZ007009A8010002618760076621MARICOPA                ARIZ  061126010A001A08FWN20MWN80FR02 000000                                                                                                                                                                          
602AZ007009A8010002618760076621MARICOPA                ARIZ  061126010A002A47MWH17FWH20AQ60 000000                                                                                                                                                                          
602AZ007009A8010002618760076621MARICOPA                ARIZ  061126010A003B38MWH00UUU90UN99 000000                                                                                                                                                                          
602AZ007009A8010002618760076621MARICOPA                ARIZ  061126010A004A18MWH18MWH12AQ60 000000                                                                                                                                                                          
602AZ007009A8010002618760076621MARICOPA                ARIZ  070118020A001B28MWH00UUU14UN99 000000                                                                                                                                                                          
602AZ007009A8010002618760076621MARICOPA                ARIZ  080219020A001B24MWH00UUU12UN99 000000                                                                                                                                                                          
602AZ007009A8010002618760076621MARICOPA                ARIZ  080219020A002B18MWN00UUU12UN99 000000                                                                                                                                                                          
602AZ007009A8010002618760076621MARICOPA                ARIZ  080219020A003D12MWN54MWN90SS60 00200014FWN53FWN                                                                                                                                                                
602AZ007009A8010002618760076621MARICOPA                ARIZ  090307020A001B25MWH00UUU12UN99 000000                                                                                                                                                                          
602AZ007009A8010002618760076621MARICOPA                ARIZ  100322020A001B30MWN00UUU14UN99 000000                                                                                                                                                                          
