601AL001123 6160000856010370980HOOVER                  ALA   010118180A001C33MW 16MB 11ST99 000001                                                  17MB 11ST99
601AL001123 6160000856010370980HOOVER                  ALA   030118180A001A00UW 29MW 90DA45 000000
601AL001123 6160000856010370980HOOVER                  ALA   080118180A001A34FB 19MW 90ST42 000000
602AZCCHPX8D816000000000      0AZ DEPT OF PUBLIC SAFETYARIZ  110331170A001C36MWN25MWN11ST81B000003                                                  39MWN11ST81B37MWN11ST81B32MWN11ST81B
602AZ001897 816000000000      0NAVAJO NATION           ARIZ  010421170A001A45MIN31MIN90UN99 000000
602AZ001897 816000000000      0NAVAJO NATION           ARIZ  010421170A002C18MIN00MIN40UN99 000001                                                  00MIN40UN99
602AZ001897 816000000000      0NAVAJO NATION           ARIZ  010421170A003B67MIN00UUU90UN99 000000
602AZ001897 816000000000      0NAVAJO NATION           ARIZ  030421170A001B24MIN00UUU11UN99 000000
602AZ001897 816000000000      0NAVAJO NATION           ARIZ  050421170A001B52MWN00UUU30UN99 000000
602AZ001897 816000000000      0NAVAJO NATION           ARIZ  060421170A001A33MIN25MIN20BR42 000000
602AZ001897 816000000000      0NAVAJO NATION           ARIZ  070421170A001A49MIN49MIN20FA99 000000
602AZ001897 816000000000      0NAVAJO NATION           ARIZ  080421170A001D49FIN28MIN13UN99 00200028MIN46MIN
602AZ001897 816000000000      0NAVAJO NATION           ARIZ  080421170A002B32MIN00UUU13UN99 000000
602AZ001897 816000000000      0NAVAJO NATION           ARIZ  090421170A001B00MIN00UUU30UN99 000000
602AZ001897 816000000000      0NAVAJO NATION           ARIZ  090421170A002A01FIN23FIN90DA99 000000
602AZ001897 816000000000      0NAVAJO NATION           ARIZ  090421170A003B28MIN00UUU11UN99 000000
602AZ001897 816000000000      0NAVAJO NATION           ARIZ  100421170A001B39MIN00UUU90UN99 000000
602AZ001897 816000000000      0NAVAJO NATION           ARIZ  100421170A002ANBUIN34FIN90UN99 000000
602AZ001897 816000000000      0NAVAJO NATION           ARIZ  100421170A003A36MIN34MIN90BF99 000000
602AZ001897 816000000000      0NAVAJO NATION           ARIZ  100421170A004A32MIN23MIN30OF99 000000
602AZ001897 816000000000      0NAVAJO NATION           ARIZ  110421170A001A18MIN28MIN40UN99 000000
602AZ001897 816000000000      0NAVAJO NATION           ARIZ  120421170A001D37MIN37MIN20UN99 00100051MIN
602AZ002009B8160000497390028161COCHISE                 ARIZ  030718160A001A38MWH42MWH14FR45 000000
602AZ002094 8160000429880028160SIERRA VISTA            ARIZ  020714160A001A25MWH26MWH12FR18 000000
602AZ002094 8160000429880028160SIERRA VISTA            ARIZ  091223160A001A51MWN38FBN90HU70 000000
602AZ002094 8160000429880028160SIERRA VISTA            ARIZ  100302170A001A37MWN50MWN80FR44 000000
602AZ003009B8160000542430032751COCONINO                ARIZ  050302170A001A31MIN31MIN13UN99 000000
602AZ004008B816000027711004   0GILA                    ARIZ  110331170A001A51MWH39MWN30FR45 000000
602AZ007009A8160004035090076621MARICOPA                ARIZ  030718160B001A54FWN47MWN90AQ59 000000
602AZ007009A8160004035090076621MARICOPA                ARIZ  040819160A001A73MWN37MWN65UN09 000000
602AZ007009A8160004035090076621MARICOPA                ARIZ  051011160A001B27MWH00UUU12UN99 000000
602AZ007009A8160004035090076621MARICOPA                ARIZ  051011160A002A25FWN25MBN90OK99 000000
602AZ007009A8160004035090076621MARICOPA                ARIZ  071214171A002B31MWH00UUU90UN99 000000
602AZ007009A8160004035090076621MARICOPA                ARIZ  071214171A003D12FWN45FWN11DA99 00100014MWN
602AZ007009A8160004035090076621MARICOPA                ARIZ  071214171A004A29MWN27MWN12OK45 000000
602AZ007009A8160004035090076621MARICOPA                ARIZ  071214171A005F46MWH00UUU11UN99 00100036FWH
602AZ007009A8160004035090076621MARICOPA                ARIZ  071214171A006B49MWH00UUU12UN99 000000
602AZ007009A8160004035090076621MARICOPA                ARIZ  081205160A001A03MBN16MBN20BR99 000000
602AZ007009A8160004035090076621MARICOPA                ARIZ  090302170A001A84FWN87MWN11WI99 000000
602AZ007009A8160004035090076621MARICOPA                ARIZ  090302170A002A53MWH44MWH12AQ45 000000
602AZ007009A8160004035090076621MARICOPA                ARIZ  090302170A003B36MWN00UUU12UN99 000000
602AZ007009A8160004035090076621MARICOPA                ARIZ  100302170A001B41MWH00UUU11UN99 000000
602AZ007009A8160004035090076621MARICOPA                ARIZ  100302170A002F39MWH00UUU90UN99 00100025MWH
602AZ007009A8160004035090076621MARICOPA                ARIZ  110331170A001B00FWN00UUU90UN99 000000
602AZ007009A8160004035090076621MARICOPA                ARIZ  110331170A002B21MWH00UUU11UN99 000000
602AZ007009A8160004035090076621MARICOPA                ARIZ  120418170A001A69MWN47MWN20FA99 000000
602AZ007013 8160000816050076620AVONDALE                ARIZ  080302170A001A29MWH61MWH11UN99 000000
602AZ007013 8160000816050076620AVONDALE                ARIZ  120418170A001A56FWN32MWN20MO44 000000
602AZ007033 8160000645630076620BUCKEYE                 ARIZ  061013160A001A36FWN30MWN12WI99 000000
602AZ007033 8160000645630076620BUCKEYE                 ARIZ  091223160A001B18FWN00UUU90UN99 000000
602AZ007051C8160002659220076620CHANDLER                ARIZ  010712160A001C27MWN26MBN12AQ18 000002                                                  26MBN12AQ18 23MBN12AQ18
602AZ007051C8160002659220076620CHANDLER                ARIZ  081205160A001B84MWN00UUU20UN99 000000
602AZ007051C8160002659220076620CHANDLER                ARIZ  081205160A002A44MWH40MWN12AQ45 000000
602AZ007051C8160002659220076620CHANDLER                ARIZ  120418170A001A20MWH22MWH12AQ45 000000
602AZ007074 8160000343760076621EL MIRAGE               ARIZ  010712160A001A45MBN41MWN12BF45 000000
602AZ007111C8160002558990076620GILBERT                 ARIZ  030118180A001C27MW 35MW 12ST81A000006                                                  00MW 12ST81A00FW 12ST81A00MW 12ST81A00MW 12ST81A00MW 12ST81A00MW 12ST81A
602AZ007111C8160002558990076620GILBERT                 ARIZ  040118180A001A36MW 27FW 12HU45 000000
602AZ007111C8160002558990076620GILBERT                 ARIZ  080118180A001A41MW 21MW 12AQ45 000000
602AZ007111C8160002558990076620GILBERT                 ARIZ  110118180A001A62FW 27MW 12MO60 000000
602AZ007132 8160002429380076620GLENDALE                ARIZ  010418170A001B21MBH00UUU12UN03 000000
602AZ007132 8160002429380076620GLENDALE                ARIZ  010418170A002F16MWH00UUU12UN46 00100119MWH
602AZ007132 8160002429380076620GLENDALE                ARIZ  030819160A001A25MWH30MWH12AQ18 000000
602AZ007132 8160002429380076620GLENDALE                ARIZ  040819160A001A40MWN23MWN12AQ44 000000
602AZ007132 8160002429380076620GLENDALE                ARIZ  040819160A002A28MWN28MWN12FR42 000000
602AZ007132 8160002429380076620GLENDALE                ARIZ  040819160A003A16MWN19MWN12ST03 000000
602AZ007132 8160002429380076620GLENDALE                ARIZ  040819160A004A69FWN69MWN80WI99 000000
602AZ007132 8160002429380076620GLENDALE                ARIZ  040819160A005B47MWH00UUU12UN03 000000
602AZ007132 8160002429380076620GLENDALE                ARIZ  051011160A001A29MWH27MWN12ST60 000000
602AZ007132 8160002429380076620GLENDALE                ARIZ  061013160A001D47FWN34MWN12AQ40 00100065FWN
602AZ007132 8160002429380076620GLENDALE                ARIZ  061013160A002A28MWH23MBH12ST03 000000
602AZ007132 8160002429380076620GLENDALE                ARIZ  061013160A003A18MWN19MBN12ST03 000000
602AZ007132 8160002429380076620GLENDALE                ARIZ  071107160A001B27MBN00UUU12UN99 000000
602AZ007132 8160002429380076620GLENDALE                ARIZ  081205160A001B45MBN00UUU12UN99 000000
602AZ007132 8160002429380076620GLENDALE                ARIZ  091223160A001A01FWH21MWN40OK41 000000
602AZ007132 8160002429380076620GLENDALE                ARIZ  091223160A002B31MWH00UUU12UN46 000000
602AZ007132 8160002429380076620GLENDALE                ARIZ  100302170A001A18MWH19MBN12ST45 000000
602AZ007132 8160002429380076620GLENDALE                ARIZ  100302170A002A39MWN52MWN20AQ45 000000
602AZ007132 8160002429380076620GLENDALE                ARIZ  110331170A001B23MWH00UUU12UN18 000000
602AZ007171C8160004782770076620MESA                    ARIZ  010718160A001A26MWN25MWN13ST60 000000
602AZ007171C8160004782770076620MESA                    ARIZ  010718160A002A33MWH32FBN20ST80C000000
602AZ007171C8160004782770076620MESA                    ARIZ  010718160A003A57FWH55MWH20GF45 000000
602AZ007171C8160004782770076620MESA                    ARIZ  010718160A004A71MWN55FWN12HU45 000000
602AZ007171C8160004782770076620MESA                    ARIZ  010718160A005A43MWN37MWN12AQ44 000000
602AZ007171C8160004782770076620MESA                    ARIZ  020819160A001C24FWN48MWN11ST81A000001                                                  42MWN11ST81A
602AZ007171C8160004782770076620MESA                    ARIZ  020819160A002C31MWN19FBN20UN99 000002                                                  20FWN20UN99 22MBN20UN99
602AZ007171C8160004782770076620MESA                    ARIZ  031011160A001A74MWN30MWN65NE60 000000
602AZ007171C8160004782770076620MESA                    ARIZ  041011160B001C40MWN37MBN40ST59 000002                                                  32MWN40ST59 38MWN40ST59
602AZ007171C8160004782770076620MESA                    ARIZ  051011160A001D41FWN38MWN15WI44 00100049MWH
602AZ007171C8160004782770076620MESA                    ARIZ  061013160A001A25FWN21MWH13GF45 000000
602AZ007171C8160004782770076620MESA                    ARIZ  061013160A002A18MBN43MWU11OF45 000000
602AZ007171C8160004782770076620MESA                    ARIZ  061013160A003A55MWN53MWN12AQ44 000000
602AZ007171C8160004782770076620MESA                    ARIZ  061013160A004C34MWH30MWH11UN99 000001                                                  30MWH11UN99
602AZ007171C8160004782770076620MESA                    ARIZ  071107160A001A85FWN85MWN12WI60 000000
602AZ007171C8160004782770076620MESA                    ARIZ  071107160A002A21MWH00MUU12UN99 000000
602AZ007171C8160004782770076620MESA                    ARIZ  071107160A003B56MWN00UUU12UN99 000000
602AZ007171C8160004782770076620MESA                    ARIZ  081205160A001A56MBN22MWH12ST99 000000
602AZ007171C8160004782770076620MESA                    ARIZ  081205160A002C22MWH49MWN11ST81A000002                                                  45MWN11ST81A56MWN11ST81A
602AZ007171C8160004782770076620MESA                    ARIZ  110331170A001A21MWH19MWN20AQ18 000000
602AZ007171C8160004782770076620MESA                    ARIZ  110331170A002A42MWN28MWN12ST99 000000
602AZ007171C8160004782770076620MESA                    ARIZ  120418170A001A32MWH30MWH12AQ45 000000
602AZ007212 8160001747970076620PEORIA                  ARIZ  061013160A001C17MBN17MWH14FR60 000001                                                  18MWN14FR60
602AZ007212 8160001747970076620PEORIA                  ARIZ  090302170A001A48FWN18MWN12MO99 000000
602AZ007212 8160001747970076620PEORIA                  ARIZ  100302170B001CBBMWH18MWH90OF59 000001                                                  23FWH90OF59
602AZ007231A8160015866110076620PHOENIX                 ARIZ  010302170A001B22MWH00UUU12UN99 000000
602AZ007231A8160015866110076620PHOENIX                 ARIZ  010302170A002A36MWH30FWN11HU99 000000
602AZ007231A8160015866110076620PHOENIX                 ARIZ  010302170A003A27MBN34MBN12UN45 000000
602AZ007231A8160015866110076620PHOENIX                 ARIZ  010302170A004ABBMWN30MWN30SO99 000000
602AZ007231A8160015866110076620PHOENIX                 ARIZ  010302170A005B20MBN00UUU11UN99 000000
602AZ007231A8160015866110076620PHOENIX                 ARIZ  010302170A006B41MWN00UUU20UN99 000000
602AZ007231A8160015866110076620PHOENIX                 ARIZ  010302170A008A16FWN25MWN12BF26 000000
602AZ007231A8160015866110076620PHOENIX                 ARIZ  010302170A009A23MWN21MWN13UN99 000000
602AZ007231A8160015866110076620PHOENIX                 ARIZ  010302170A010B18MWH00UUU12UN42 000000
602AZ007231A8160015866110076620PHOENIX                 ARIZ  010302170A011B32FWN00UUU80UN99 000000
602AZ007231A8160015866110076620PHOENIX                 ARIZ  010302170A012C39MWN34MWN13ST81A000002                                                  35MWN13ST81A39MWN13ST81A
602AZ007231A8160015866110076620PHOENIX                 ARIZ  010302170A013B28MWH00UUU12UN45 000000
602AZ007231A8160015866110076620PHOENIX                 ARIZ  010302170A014B26FBN00UUU80UN99 000000
602AZ007231A8160015866110076620PHOENIX                 ARIZ  020331170A001A30MWH20MWH12AQ99 000000
602AZ007231A8160015866110076620PHOENIX                 ARIZ  020331170A002B34MWH00UUU12UN99 000000
602AZ007231A8160015866110076620PHOENIX                 ARIZ  020331170A003A27MBN25MBN12AQ99 000000
602AZ007231A8160015866110076620PHOENIX                 ARIZ  020331170A004B19MWH00UUU12UN45 000000
602AZ007231A8160015866110076620PHOENIX                 ARIZ  020331170A005B48MBN00UUU30UN99 000000
602AZ007231A8160015866110076620PHOENIX                 ARIZ  020331170A006A28MIN17MIN20AQ45 000000
602AZ007231A8160015866110076620PHOENIX                 ARIZ  020331170A007B17MBN00UUU11UN03 000000
602AZ007231A8160015866110076620PHOENIX                 ARIZ  020331170A008B36MWN00UUU20UN99 000000
602AZ007231A8160015866110076620PHOENIX                 ARIZ  020331170A009A83MAN17MBN30ST03 000000
602AZ007231A8160015866110076620PHOENIX                 ARIZ  020331170A010A36FIN41MWN13ST81A000000
602AZ007231A8160015866110076620PHOENIX                 ARIZ  020331170A011A21FWH27MWH12AQ45 000000
602AZ007231A8160015866110076620PHOENIX                 ARIZ  020331170A012C27MWH45MWH12ST81B000001                                                  44MWN12ST81B
602AZ007231A8160015866110076620PHOENIX                 ARIZ  020331170A013B24FWH00UUU80UN99 000000
602AZ007231A8160015866110076620PHOENIX                 ARIZ  020331170A014A62MWN24MWN30SO45 000000
602AZ007231A8160015866110076620PHOENIX                 ARIZ  020331170A015D49FAN26MWN12SO99 00300050MWN60FAN18FAN
602AZ007231A8160015866110076620PHOENIX                 ARIZ  030331170A001B18MBN00UUU12UN99 000000
602AZ007231A8160015866110076620PHOENIX                 ARIZ  030331170A002B25FWN00UUU12UN99 000000
602AZ007231A8160015866110076620PHOENIX                 ARIZ  030331170A003A37MWH24MWH14AQ80C000000
602AZ007231A8160015866110076620PHOENIX                 ARIZ  030331170A004A22FWN20MWH14GF40 000000
602AZ007231A8160015866110076620PHOENIX                 ARIZ  030331170A005A73MWN23MWN30FR99 000000
602AZ007231A8160015866110076620PHOENIX                 ARIZ  030331170A006B25MWH00UUU12UN99 000000
602AZ007231A8160015866110076620PHOENIX                 ARIZ  030331170A007A19MWH16MWH20AQ45 000000
602AZ007231A8160015866110076620PHOENIX                 ARIZ  030331170A008B23MBN00UUU12UN45 000000
602AZ007231A8160015866110076620PHOENIX                 ARIZ  030331170A009B34MWN00UUU14UN99 000000
602AZ007231A8160015866110076620PHOENIX                 ARIZ  030331170A010A16MWH21MWH12UN99 000000
602AZ007231A8160015866110076620PHOENIX                 ARIZ  030331170A011A34FWH42MWH11HU99 000000
602AZ007231A8160015866110076620PHOENIX                 ARIZ  040331170A001B21MWH00UUU12UN99 000000
602AZ007231A8160015866110076620PHOENIX                 ARIZ  040331170A002A25MWH28MWN12ST80C000000
602AZ007231A8160015866110076620PHOENIX                 ARIZ  040331170A003B27MWN00UUU14UN46 000000
602AZ007231A8160015866110076620PHOENIX                 ARIZ  040331170A004B55FBN00UUU12UN99 000000
602AZ007231A8160015866110076620PHOENIX                 ARIZ  040331170A005A15FWH28MWH85AQ45 000000
602AZ007231A8160015866110076620PHOENIX                 ARIZ  040331170A006B18MBN00UUU20UN18 000000
602AZ007231A8160015866110076620PHOENIX                 ARIZ  040331170A007A03FWN32FWN70DA18 000000
602AZ007231A8160015866110076620PHOENIX                 ARIZ  040331170A008B47MBN00UUU12UN99 000000
602AZ007231A8160015866110076620PHOENIX                 ARIZ  040331170A009B21MWH00UUU12UN99 000000
602AZ007231A8160015866110076620PHOENIX                 ARIZ  050331170A001A23FWH26MWH11WI45 000000
602AZ007231A8160015866110076620PHOENIX                 ARIZ  050331170A002A31MBU26FAU12GF45 000000
602AZ007231A8160015866110076620PHOENIX                 ARIZ  050331170A003B62MBN00UUU12UN99 000000
602AZ007231A8160015866110076620PHOENIX                 ARIZ  050331170A004A35MWH26MWH12ST80C000000
602AZ007231A8160015866110076620PHOENIX                 ARIZ  050331170A005A40MWH26MWH12AQ99 000000
602AZ007231A8160015866110076620PHOENIX                 ARIZ  050331170A006B19MWH00UUU30UN99 000000
602AZ007231A8160015866110076620PHOENIX                 ARIZ  050331170A008A43MIN45MWH12ST81A000000
602AZ007231A8160015866110076620PHOENIX                 ARIZ  050331170A009A20MWH33MWH12ST81A000000
602AZ007231A8160015866110076620PHOENIX                 ARIZ  050331170A010A32MWH34MIN12UN99 000000
602AZ007231A8160015866110076620PHOENIX                 ARIZ  050331170A011A41FWH43MIN12GF99 000000
602AZ007231A8160015866110076620PHOENIX                 ARIZ  050331170A012A35MWN21MWH12ST81A000000
602AZ007231A8160015866110076620PHOENIX                 ARIZ  060418170A001A30MWN31MWN12ST81A000000
602AZ007231A8160015866110076620PHOENIX                 ARIZ  060418170A002A47FBN17MWH13AQ45 000000
602AZ007231A8160015866110076620PHOENIX                 ARIZ  060418170A003B64MWN00UUU12UN99 000000
602AZ007231A8160015866110076620PHOENIX                 ARIZ  060418170A004DBBMBN29FBN20SO99 00200005MBN08MBN
602AZ007231A8160015866110076620PHOENIX                 ARIZ  060418170A005A34MIN48MWN13ST81A000000
602AZ007231A8160015866110076620PHOENIX                 ARIZ  060418170A007D44MWN28MBN12UN99 00100048MWN
602AZ007231A8160015866110076620PHOENIX                 ARIZ  060418170A008B73MWN00UUU30UN99 000000
602AZ007231A8160015866110076620PHOENIX                 ARIZ  060418170A009B19MWH00UUU11UN99 000000
602AZ007231A8160015866110076620PHOENIX                 ARIZ  060418170A010F12FBN00UUU12UN99 00100031FBN
602AZ007231A8160015866110076620PHOENIX                 ARIZ  060418170A011B59MBN00UUU30UN45 000000
602AZ007231A8160015866110076620PHOENIX                 ARIZ  060418170A012A22MWH25MBN12AQ45 000000
602AZ007231A8160015866110076620PHOENIX                 ARIZ  060418170A013B22MWH00UUU20UN99 000000
602AZ007231A8160015866110076620PHOENIX                 ARIZ  060418170A014A48FWH52MWH20BF99 000000
602AZ007231A8160015866110076620PHOENIX                 ARIZ  060418170A015C20MBN19MBN11AQ45 000001                                                  22MBN11AQ45
602AZ007231A8160015866110076620PHOENIX                 ARIZ  060418170A016A32FWH30MWH13GF99 000000
602AZ007231A8160015866110076620PHOENIX                 ARIZ  060418170A017B27MWH00UUU11UN99 000000
602AZ007231A8160015866110076620PHOENIX                 ARIZ  070331170A001A01FWN30FWN70DA18 000000
602AZ007231A8160015866110076620PHOENIX                 ARIZ  070331170A002B64MWN00UUU12UN99 000000
602AZ007231A8160015866110076620PHOENIX                 ARIZ  070331170A003A28MBN27MBN12AQ45 000000
602AZ007231A8160015866110076620PHOENIX                 ARIZ  070331170A006B25MWH00UUU11UN99 000000
602AZ007231A8160015866110076620PHOENIX                 ARIZ  070331170A007B31FWU00UUU11UN99 000000
602AZ007231A8160015866110076620PHOENIX                 ARIZ  070331170A008B38MIN00UUU20UN45 000000
602AZ007231A8160015866110076620PHOENIX                 ARIZ  070331170A009B38MWH00UUU90UN99 000000
602AZ007231A8160015866110076620PHOENIX                 ARIZ  070331170A010A26MBN38MBN12AQ99 000000
602AZ007231A8160015866110076620PHOENIX                 ARIZ  070331170A011A61FWN69FWN30GF45 000000
602AZ007231A8160015866110076620PHOENIX                 ARIZ  070331170A013A79FWN82MWN12WI99 000000
602AZ007231A8160015866110076620PHOENIX                 ARIZ  070331170A014B50MWH00UUU12UN03 000000
602AZ007231A8160015866110076620PHOENIX                 ARIZ  080331170A001A31MBN26FAN12BF99 000000
602AZ007231A8160015866110076620PHOENIX                 ARIZ  080331170A002B28MBN00UUU11UN99 000000
602AZ007231A8160015866110076620PHOENIX                 ARIZ  080331170A003A28MWH29MWH12ST80E000000
602AZ007231A8160015866110076620PHOENIX                 ARIZ  080331170A004B34MWN00UUU12UN99 000000
602AZ007231A8160015866110076620PHOENIX                 ARIZ  080331170A007A36FAN23MWH12ST03 000000
602AZ007231A8160015866110076620PHOENIX                 ARIZ  080331170A008A60MWN20MUU11AQ05 000000
602AZ007231A8160015866110076620PHOENIX                 ARIZ  080331170A009A20MWH25FWH13BF99 000000
602AZ007231A8160015866110076620PHOENIX                 ARIZ  080331170A010A48FWH38MWH12FR99 000000
602AZ007231A8160015866110076620PHOENIX                 ARIZ  080331170A011A38MWH35MWN12ST81B000000
602AZ007231A8160015866110076620PHOENIX                 ARIZ  080331170A014B29MBN00UUU12UN99 000000
602AZ007231A8160015866110076620PHOENIX                 ARIZ  080331170A015B45MBN00UUU12UN99 000000
602AZ007231A8160015866110076620PHOENIX                 ARIZ  080331170A016C22MWH32MWN12ST81B000001                                                  41MWN12ST81B
602AZ007231A8160015866110076620PHOENIX                 ARIZ  080331170A017B27MBN00UUU12UN99 000000
602AZ007231A8160015866110076620PHOENIX                 ARIZ  080331170A018A33MWN50MWN12UN80E000000
602AZ007231A8160015866110076620PHOENIX                 ARIZ  080331170A019A22MWH27MWH12UN80G000000
602AZ007231A8160015866110076620PHOENIX                 ARIZ  080331170A020B46MWH00UUU11UN99 000000
602AZ007231A8160015866110076620PHOENIX                 ARIZ  080331170A021B33MWN00UUU12UN18 000000
602AZ007231A8160015866110076620PHOENIX                 ARIZ  080331170A023A25MWH47MWN12ST81A000000
602AZ007231A8160015866110076620PHOENIX                 ARIZ  090418170A001B25MWN00UUU12UN03 000000
602AZ007231A8160015866110076620PHOENIX                 ARIZ  090418170A002B16MWH00UUU11UN46 000000
602AZ007231A8160015866110076620PHOENIX                 ARIZ  090418170A003B35MWN00UUU30UN99 000000
602AZ007231A8160015866110076620PHOENIX                 ARIZ  090418170A004B28MBN00UUU12UN99 000000
602AZ007231A8160015866110076620PHOENIX                 ARIZ  090418170A005C31MWN42MWN12ST81A000002                                                  43MWN12ST81A50MWN12ST81A
602AZ007231A8160015866110076620PHOENIX                 ARIZ  090418170A006C25MWN39MWN12ST81A000001                                                  39MAN12ST81A
602AZ007231A8160015866110076620PHOENIX                 ARIZ  090418170A007B49FBN00UUU12UN99 000000
602AZ007231A8160015866110076620PHOENIX                 ARIZ  090418170A008B29MBN00UUU11UN99 000000
602AZ007231A8160015866110076620PHOENIX                 ARIZ  090418170A009A32MWH30MWN12ST81A000000
602AZ007231A8160015866110076620PHOENIX                 ARIZ  090418170A011A26MWN33MWN12ST81A000000
602AZ007231A8160015866110076620PHOENIX                 ARIZ  090418170A012A53MBN23FBN12BF99 000000
602AZ007231A8160015866110076620PHOENIX                 ARIZ  090418170A013B31MWH00UUU11UN99 000000
602AZ007231A8160015866110076620PHOENIX                 ARIZ  100331170A001A31FBN56MBN80AQ45 000000
602AZ007231A8160015866110076620PHOENIX                 ARIZ  100331170A002A34MBN28MBN12AQ80C000000
602AZ007231A8160015866110076620PHOENIX                 ARIZ  100331170A003A35MWN38MIN20AQ45 000000
602AZ007231A8160015866110076620PHOENIX                 ARIZ  100331170A004D04FWN36MWN12DA99 00100005FWN
602AZ007231A8160015866110076620PHOENIX                 ARIZ  100331170A005B21MBN00UUU11UN99 000000
602AZ007231A8160015866110076620PHOENIX                 ARIZ  100331170A006A48MWN29FWN30ST45 000000
602AZ007231A8160015866110076620PHOENIX                 ARIZ  100331170A007B17MWH00UUU13UN99 000000
602AZ007231A8160015866110076620PHOENIX                 ARIZ  100331170A008B49MWN00UUU12UN99 000000
602AZ007231A8160015866110076620PHOENIX                 ARIZ  100331170A009F17MWH00UUU11UN99 00100020MWH
602AZ007231A8160015866110076620PHOENIX                 ARIZ  100331170A010A34MIN57MWN30ST45 000000
602AZ007231A8160015866110076620PHOENIX                 ARIZ  100331170A011B33MBN00UUU12UN45 000000
602AZ007231A8160015866110076620PHOENIX                 ARIZ  100331170A012B28FWN00UUU11UN99 000000
602AZ007231A8160015866110076620PHOENIX                 ARIZ  100331170A013B40MWN00UUU13UN81A000000
602AZ007231A8160015866110076620PHOENIX                 ARIZ  110331170A001A41MWH26MWH11AQ44 000000
602AZ007231A8160015866110076620PHOENIX                 ARIZ  110331170A002A23FBN26MBN12BF45 000000
602AZ007231A8160015866110076620PHOENIX                 ARIZ  110331170A003B21MBN00UUU13UN99 000000
602AZ007231A8160015866110076620PHOENIX                 ARIZ  110331170A004B40MWN00UUU12UN99 000000
602AZ007231A8160015866110076620PHOENIX                 ARIZ  110331170A006B35MWH00UUU12UN99 000000
602AZ007231A8160015866110076620PHOENIX                 ARIZ  110331170A007A35MWN20MWN11ST80C000000
602AZ007231A8160015866110076620PHOENIX                 ARIZ  120418170A002B20FWN00UUU70UN18 000000
602AZ007231A8160015866110076620PHOENIX                 ARIZ  120418170A003A57FWN54MWU12GF45 000000
602AZ007231A8160015866110076620PHOENIX                 ARIZ  120418170A004B34MWH00UUU20UN99 000000
602AZ007231A8160015866110076620PHOENIX                 ARIZ  120418170A005B31MWH00UUU11UN26 000000
602AZ007231A8160015866110076620PHOENIX                 ARIZ  120418170A006B33MWH00UUU80UN99 000000
602AZ007231A8160015866110076620PHOENIX                 ARIZ  120418170A007A19MBN19MBN13ST80C000000
602AZ007231A8160015866110076620PHOENIX                 ARIZ  120418170A008B46MWH00UUU11UN45 000000
602AZ007231A8160015866110076620PHOENIX                 ARIZ  120418170A010A31MWU30MWU12ST81E000000
602AZ007231A8160015866110076620PHOENIX                 ARIZ  120418170A011B35MWH00UUU11UN99 000000
602AZ007252 8160002408850076620SCOTTSDALE              ARIZ  030718160A001A28FWN33MWH12GF45 000000
602AZ007252 8160002408850076620SCOTTSDALE              ARIZ  051011160A001A64MWN57FWN12HU45 000000
602AZ007252 8160002408850076620SCOTTSDALE              ARIZ  071107160A001A27FWU37MWN12GF99 000000
602AZ007252 8160002408850076620SCOTTSDALE              ARIZ  071107160A002A24MWN33MWU12ST81A000000
602AZ007252 8160002408850076620SCOTTSDALE              ARIZ  120418170A001A73MWN38MWN20FA99 000000
602AZ007272 8160001306790076620SURPRISE                ARIZ  040302170A001A34MWH30MWH12NE44 000000
602AZ007272 8160001306790076620SURPRISE                ARIZ  070302170A001A65MBN46FWN12HU45 000000
602AZ007272 8160001306790076620SURPRISE                ARIZ  090302170A001A46FWU18MBU90ST60 000000
602AZ007272 8160001306790076620SURPRISE                ARIZ  110331170A002B32MWH00UUU12UN99 000000
602AZ007272 8160001306790076620SURPRISE                ARIZ  110331170A003A20MWH23MWN12ST81F000000
602AZ007292 8160001786540076620TEMPE                   ARIZ  010712160A001A19FAN32FWN12ST60 000000
602AZ007292 8160001786540076620TEMPE                   ARIZ  030718160A001A46MWN27MWN20SF26 000000
602AZ007292 8160001786540076620TEMPE                   ARIZ  051011160A001A34MWN25MWN12AQ45 000000
602AZ007292 8160001786540076620TEMPE                   ARIZ  071107160A002A19MBN52MWN12ST81E000000
602AZ007292 8160001786540076620TEMPE                   ARIZ  081205160A001A25MBN22MWH12ST80C000000
602AZ007292 8160001786540076620TEMPE                   ARIZ  100302170A001B33MWN00UUU11UN18 000000
602AZ008009B8160000789900084191MOHAVE                  ARIZ  030718160A001A30MWN18MWN15UN45 000000
602AZ008009B8160000789900084191MOHAVE                  ARIZ  040819160A001A61MWN61MWN14NE45 000000
602AZ008009B8160000789900084191MOHAVE                  ARIZ  040819160A002A32MWN52MWN14AQ44 000000
602AZ008009B8160000789900084191MOHAVE                  ARIZ  040819160A003A60MWN80MWN12NE45 000000
602AZ008009B8160000789900084191MOHAVE                  ARIZ  071223160A001C30MWN31FWN90AQ99 000002                                                  54FWN90AQ99 55MWN90AQ99
602AZ008009B8160000789900084191MOHAVE                  ARIZ  071223160A002A66MWN63MWN20FR44 000000
602AZ008009B8160000789900084191MOHAVE                  ARIZ  080302170A001A43FWN45MWN12WI45 000000
602AZ008009B8160000789900084191MOHAVE                  ARIZ  090302170A001A49MWH58MWN15ST03 000000
602AZ008009B8160000789900084191MOHAVE                  ARIZ  100907170A001A53MWN61MWN15AQ45 000000
602AZ008009B8160000789900084191MOHAVE                  ARIZ  100907170A003A34MWN40MWN12UN81B000000
602AZ008009B8160000789900084191MOHAVE                  ARIZ  120907170A002B21MWN00UUU12UN99 000000
602AZ008009B8160000789900084191MOHAVE                  ARIZ  120907170A003A51MWN51FWN12GF40 000000
602AZ008014 8160000290690084190KINGMAN                 ARIZ  010712160B001A35MWN24MWN70AQ59 000000
602AZ008014 8160000290690084190KINGMAN                 ARIZ  051011160A001A23MWN33MWN40ST45 000000
602AZ008014 8160000290690084190KINGMAN                 ARIZ  080302170A001A35FWN35MWN12ST81G000000
602AZ008014 8160000290690084190KINGMAN                 ARIZ  091223160A001A53MWN57MWN12OK81A000000
602AZ008043 8160000537460084190LAKE HAVASU CITY        ARIZ  061013160A001A20MWN27MWN12OK81E000000
602AZ008043 8160000537460084190LAKE HAVASU CITY        ARIZ  071107160A001A40MWN38MWN20AQ45 000000
602AZ008043 8160000537460084190LAKE HAVASU CITY        ARIZ  071107160A002A65MWN61FWN12BF45 000000
602AZ009008B816000068950009   0NAVAJO                  ARIZ  021011160A001A57MWN41MWN13AQ45 000000
602AZ009008B816000068950009   0NAVAJO                  ARIZ  041011160A001A69FWN67MWN12CW45 000000
602AZ009008B816000068950009   0NAVAJO                  ARIZ  061013160A001D25FIN47MWH12OF45 00100045FIN
602AZ009008B816000068950009   0NAVAJO                  ARIZ  071107160A001B38MBN00UUU11UN99 000000
602AZ009008B816000068950009   0NAVAJO                  ARIZ  110331170A001B39MBN00UUU11UN99 000000
602AZ009035 816000010892009   0SHOW LOW                ARIZ  110331170A001A50MWN36MWN12ST26 000000
602AZ009096 816000009581009   0WINSLOW                 ARIZ  110331170A001C48MWN37FBN30AQ99 000001                                                  37FBN30AQ99
602AZ010009A8160003658570109061PIMA                    ARIZ  020714160A001A40MBU33MBU12AQ18 000000
602AZ010009A8160003658570109061PIMA                    ARIZ  020714160A002A25MWU89MWU12OF45 000000
602AZ010009A8160003658570109061PIMA                    ARIZ  020714160A003A50MWU46MWU20AQ40 000000
602AZ010009A8160003658570109061PIMA                    ARIZ  030718160A001A61MWU41MWU30AQ99 000000
602AZ010009A8160003658570109061PIMA                    ARIZ  041214171A001A31MWH00MUU12UN60 000000
602AZ010009A8160003658570109061PIMA                    ARIZ  051011160A001A46MWH00MUU90UN99 000000
602AZ010009A8160003658570109061PIMA                    ARIZ  060302170A001B31MWU00UUU12UN18 000000
602AZ010009A8160003658570109061PIMA                    ARIZ  060302170A002A61MWH47MWU80UN45 000000
602AZ010009A8160003658570109061PIMA                    ARIZ  070302170A001A45MWH35MWU12AQ40 000000
602AZ010009A8160003658570109061PIMA                    ARIZ  070302170A002A26MWH26MWH12AQ45 000000
602AZ010009A8160003658570109061PIMA                    ARIZ  080302170A001A24MWH26MWU12UN81A000000
602AZ010009A8160003658570109061PIMA                    ARIZ  090302170A001ANBMUU33MWH12AQ18 000000
602AZ010009A8160003658570109061PIMA                    ARIZ  090302170A002A71MWU45FWU14FA45 000000
602AZ010009A8160003658570109061PIMA                    ARIZ  100302170A001D19FWH51MWH14FR99 00100049MWH
602AZ010009A8160003658570109061PIMA                    ARIZ  100302170A002C45MWU19MWH12UN03 000001                                                  20MWH12UN03
602AZ010009A8160003658570109061PIMA                    ARIZ  110331170A001A55MWU24MWH12AQ99 000000
602AZ010009A8160003658570109061PIMA                    ARIZ  120418170A001C36MWN28MWH12AQ40 000002                                                  26FWH12BF40 35MWN12ST40
602AZ010031B8160005336630109060TUCSON                  ARIZ  010712160A001A33MWN38MWH12ST81A000000
602AZ010031B8160005336630109060TUCSON                  ARIZ  010712160A002B26MWH00UUU90UN99 000000
602AZ010031B8160005336630109060TUCSON                  ARIZ  020714160A001B52MWN00UUU90UN99 000000
602AZ010031B8160005336630109060TUCSON                  ARIZ  030718160A001B25MWH00UUU13UN99 000000
602AZ010031B8160005336630109060TUCSON                  ARIZ  030718160A002A22FWU24MBN12GF45 000000
602AZ010031B8160005336630109060TUCSON                  ARIZ  030718160A003A30MWH33MWH12ST45 000000
602AZ010031B8160005336630109060TUCSON                  ARIZ  030718160A004B20MBN00UUU12UN18 000000
602AZ010031B8160005336630109060TUCSON                  ARIZ  030718160A005A22MWH24MBN12ST18 000000
602AZ010031B8160005336630109060TUCSON                  ARIZ  051011160A001A30MIN34MIN20AQ45 000000
602AZ010031B8160005336630109060TUCSON                  ARIZ  051011160A002A30MUU00MWH12AQ18 000000
602AZ010031B8160005336630109060TUCSON                  ARIZ  051011160A003A15MBN16MIN20AQ18 000000
602AZ010031B8160005336630109060TUCSON                  ARIZ  061013160A001A24MWU30MWH12AQ80C000000
602AZ010031B8160005336630109060TUCSON                  ARIZ  071107160A001A28MWN29MWN12FR45 000000
602AZ010031B8160005336630109060TUCSON                  ARIZ  071107160A002A30MWN35MWN12ST81A000000
602AZ010031B8160005336630109060TUCSON                  ARIZ  071107160A003A31MWH36MWH12ST07 000000
602AZ010031B8160005336630109060TUCSON                  ARIZ  081205160A001A00FUU51MUU20AQ45 000000
602AZ010031B8160005336630109060TUCSON                  ARIZ  081205160A002A30MWH27MWH12AQ07 000000
602AZ010031B8160005336630109060TUCSON                  ARIZ  081205160A003C39MWN26MBN12AQ44 000001                                                  49MWN12AQ44
602AZ010031B8160005336630109060TUCSON                  ARIZ  081205160A004C15MWN19MWN12BR03 000002                                                  25MWN12AQ03 21MWN12AQ03
602AZ010031B8160005336630109060TUCSON                  ARIZ  081205160A005A52FUU31MWN30FR07 000000
602AZ010031B8160005336630109060TUCSON                  ARIZ  091223160A001A56MWU00MWH12ST03 000000
602AZ010031B8160005336630109060TUCSON                  ARIZ  100302170A001A23MWN25MWH12AQ80C000000
602AZ010031B8160005336630109060TUCSON                  ARIZ  100302170A002A38MWH29FWN12AQ45 000000
602AZ010031B8160005336630109060TUCSON                  ARIZ  110331170A001A53MWH28MWH90UN07 000000
602AZ010031B8160005336630109060TUCSON                  ARIZ  110331170A002A38MWN57MWH20UN99 000000
602AZ010031B8160005336630109060TUCSON                  ARIZ  110331170A003A24UWN22MBN12WI99 000000
602AZ010031B8160005336630109060TUCSON                  ARIZ  110331170A004A29FWH25MWN20GF99 000000
602AZ010031B8160005336630109060TUCSON                  ARIZ  110331170A005A30MWN26MWH20AQ18 000000
602AZ010031B8160005336630109060TUCSON                  ARIZ  120418170A001C27MWH29MWH12ST81A000001                                                  34MWN12ST81A
602AZ010031B8160005336630109060TUCSON                  ARIZ  120418170A002B25MWH00UUU90UN99 000000
602AZ010031B8160005336630109060TUCSON                  ARIZ  120418170A003BBBMUU00UUU90UN99 000000
602AZ010031B8160005336630109060TUCSON                  ARIZ  120418170A004A99MUU24MWH90AQ99 000000
602AZ010094 8160000428080109061MARANA                  ARIZ  070302170A001D48FWU24MWU12MO60 00100053FWU
602AZ011009A8160002062090116621PINAL                   ARIZ  040819160A001C55MAU38MWN15UN81A000001                                                  40MWN15UN81A
602AZ011009A8160002062090116621PINAL                   ARIZ  051011160A001A32MWN33MWN12AQ40 000000
602AZ011009A8160002062090116621PINAL                   ARIZ  061013160B001A51MWN38MWN11AQ59 000000
602AZ011009A8160002062090116621PINAL                   ARIZ  110331170A001C20MWN17MWH11OK03 000001                                                  16MWN11OK03
602AZ011009A8160002062090116621PINAL                   ARIZ  110331170A002A65MWN30MWH30UN03 000000
602AZ011013 8160000519950116620CASA GRANDE             ARIZ  100302170A001A34MWH26MBN12UN44 000000
602AZ011035 8160000123870116621COOLIDGE                ARIZ  010712160A001F75MWH00UUU12UN45 00100045FWH
602AZ011157 816000000000   6621GILA RIVER INDIAN COMNTYARIZ  040421170B001B26MWH00UUU11UN59 000000
602AZ011157 816000000000   6621GILA RIVER INDIAN COMNTYARIZ  040421170B002B34FIN00UUU90UN59 000000
602AZ011157 816000000000   6621GILA RIVER INDIAN COMNTYARIZ  080421170A001A48MIN20MIN20FA45 000000
602AZ011157 816000000000   6621GILA RIVER INDIAN COMNTYARIZ  090421170A001B23FIN00UUU11UN99 000000
602AZ011157 816000000000   6621GILA RIVER INDIAN COMNTYARIZ  100421170A001A52MIN20MIN12ST44 000000
602AZ011174 8160000496270116621MARICOPA                ARIZ  030302170A001A49MWN37MWH12ST99 000000
602AZ011174 8160000496270116621MARICOPA                ARIZ  120418170A001A43FIN45MWH20WI45 000000
602AZ011174 8160000496270116621MARICOPA                ARIZ  120418170A002A31MWH32FWH12OK99 000000
602AZ012015 816000020143012   0NOGALES                 ARIZ  071223160B001A02MWH42FWH30ST59 000000
602AZ013009B8160000931910136881YAVAPAI                 ARIZ  011011160A001A41FWN47MWN13GF18 000000
602AZ013009B8160000931910136881YAVAPAI                 ARIZ  061013160A001A25MWN51MWN12SF80C000000
602AZ013009B8160000931910136881YAVAPAI                 ARIZ  100302170A002A24MWN17MWH12ST03 000000
602AZ013009B8160000931910136881YAVAPAI                 ARIZ  100302170A003A60MWN21MWN12FA99 000000
602AZ013114 8160000429000136881PRESCOTT VALLEY         ARIZ  091223160A001ABBFWN29FWN75DA60 000000
602AZ013135 8160000112130136881CAMP VERDE              ARIZ  100302170A001A31MWN27MWU12AQ45 000000
602AZ014009B8160000611380149921YUMA                    ARIZ  010118180A001C27MW 24MW 12AQ99 000001                                                  19MW 12FR99
602AZ014009B8160000611380149921YUMA                    ARIZ  020118180A001A35MW 39FW 12BF45 000000
602AZ014009B8160000611380149921YUMA                    ARIZ  030118180A001B20MW 00UU 90UN99 000000
602AZ014009B8160000611380149921YUMA                    ARIZ  040118180A001A86MW 72FW 90HU60 000000
602AZ014009B8160000611380149921YUMA                    ARIZ  050118180A001A14FW 40FW 40DA60 000000
602AZ014009B8160000611380149921YUMA                    ARIZ  050118180A002C02MW 22FW 40SO99 000001                                                  24MW 40SS99
602AZ014053 8160000946960149920YUMA                    ARIZ  080118180A001A36FB 37MB 20WI99 000000
602AZ014053 8160000946960149920YUMA                    ARIZ  120118180A001B50MB 00UU 90UN99 000000
602AZ014084 8160000322270149921SAN LUIS                ARIZ  120418170A001A21FWH40MWH65AQ45 000000
602AZ015008C816000013477015   0LA PAZ                  ARIZ  041011160A001D76FWH25MUU12ST05 00200081FWN78MWN
602AZ015027 816000000000      0COLORADO RIVER TRIBAL   ARIZ  030421170A001B41FIN00UUU20UN60 000000
602AZ015036 816000003615015   0QUARTZSITE              ARIZ  020819160A001A39MWH29UUU90UN03 000000
603AR001016 716000003162001   0DE WITT                 ARK   010118180A001A36MB 29MB 11OF60 000000
603AR001026 716000009002001   0STUTTGART               ARK   060118180A001B41MB 00UU 11UN99 000000
603AR002016 716000005166002   0CROSSETT                ARK   070118180A001C59FW 18MB 12UN03 000001                                                  20MB 12UN03
603AR004009B7160000473900042701BENTON                  ARK   060118180A001ABBMA 21MW 40SO60 000000
603AR004009B7160000473900042701BENTON                  ARK   100118180A001ABBMW 22FW 85SO60 000000
603AR004126 7160000025120042701BETHEL HEIGHTS          ARK   060118180A001ABBMW 21MU 40OK60 000000
603AR004214 7160000282740042701BELLA VISTA             ARK   060118180A001A54FW 51MW 11XW05 000000
603AR005015 716000013178005   0HARRISON                ARK   020118180A001ABBMW 29MW 40UN60 000000
603AR005015 716000013178005   0HARRISON                ARK   030118180A001A49MW 54MW 12FR26 000000
603AR006016 716000005767006   0WARREN                  ARK   010118180A001A33MB 26MB 12IL45 000000
603AR006016 716000005767006   0WARREN                  ARK   050118180A001A25MB 23FU 20BF45 000000
603AR008008C716000017475008   0CARROLL                 ARK   020118180A001A30MW 43MW 13UN42 000000
603AR008008C716000017475008   0CARROLL                 ARK   050118180A001A41MW 51MW 20FR45 000000
603AR008016 716000005386008   0BERRYVILLE              ARK   110118180A001A30MW 29MW 20OF45 000000
603AR010027 716000002132010   0GURDON                  ARK   070118180A001B52MB 00UU 14UN03 000000
603AR011016 716000003122011   0CORNING                 ARK   060118180A001A55MW 45MW 12UN45 000000
603AR012008C716000016446012   0CLEBURNE                ARK   050118180A001A55MW 22MW 11OF60 000000
603AR012008C716000016446012   0CLEBURNE                ARK   070118180A001B51MW 00UU 30UN05 000000
603AR012016 716000007144012   0HEBER SPRINGS           ARK   060118180A001D50FW 58MW 12UN60 00100050MW
603AR014008C716000012329014   0COLUMBIA                ARK   070118180A001A47FW 75MW 11AQ45 000000
603AR014008C716000012329014   0COLUMBIA                ARK   120118180A001A30MW 27MW 12NE45 000000
603AR016009C7160000181460163961CRAIGHEAD               ARK   040118180A001A73MW 17MW 20UN60 000000
603AR016013 7160000752300163960JONESBORO               ARK   020118180A001A41FB 55MB 85UN99 000000
603AR016013 7160000752300163960JONESBORO               ARK   040118180A001A25FB 28MB 12UN45 000000
603AR016013 7160000752300163960JONESBORO               ARK   090118180A001C28MB 30MB 12UN45 000001                                                  28MB 12UN45
603AR016013 7160000752300163960JONESBORO               ARK   121229170A001E52MB 23MB 11UN45 00100657MB                                              29MB 11UN45 25MB 11UN45 30MB 11UN45 22MB 11UN45 54MB 11UN45 21MB 11UN45
603AR017009B7160000303850172851CRAWFORD                ARK   060118180A001A59MW 35MW 30AQ45 000000
603AR017009B7160000303850172851CRAWFORD                ARK   100118180A001A56MW 36MW 11AQ45 000000
603AR017015 7160000231330172851VAN BUREN               ARK   060118180A001A20MW 21MW 12AQ60 000000
603AR018009D7160000091940185191CRITTENDEN              ARK   070118180A001E29MB 21FB 12UN60 00400522FB 01FB 04FB 05FB                               18MB 12UN60 23MB 12UN60 25MB 12UN60 23MB 12UN60 50MB 12UN60
603AR018009D7160000091940185191CRITTENDEN              ARK   080118180A001A22FB 24MB 12UN45 000000
603AR018009D7160000091940185191CRITTENDEN              ARK   120118180A001A34MW 28MB 12FR45 000000
603AR018015 7160000248180185191WEST MEMPHIS            ARK   010118180A001A44MB 27MB 11UN99 000000
603AR018015 7160000248180185191WEST MEMPHIS            ARK   020118180A001A23MB 20MB 12OK46 000000
603AR018015 7160000248180185191WEST MEMPHIS            ARK   050118180A001A54MB 30MB 20AQ45 000000
603AR018015 7160000248180185191WEST MEMPHIS            ARK   050118180A002C40MB 35FB 12OK45 000001                                                  25MB 12OK45
603AR018015 7160000248180185191WEST MEMPHIS            ARK   060118180A001A16MB 20MB 12AQ99 000000
603AR018015 7160000248180185191WEST MEMPHIS            ARK   070118180A001C19MB 20MB 11UN99 000001                                                  20MB 11UN99
603AR018015 7160000248180185191WEST MEMPHIS            ARK   080118180A001B19MB 00UU 11UN99 000000
603AR018015 7160000248180185191WEST MEMPHIS            ARK   080118180A002B56MB 00UU 90UN07 000000
603AR018015 7160000248180185191WEST MEMPHIS            ARK   080118180A003A20MW 39MW 30UN45 000000
603AR018015 7160000248180185191WEST MEMPHIS            ARK   090118180A001A41FB 30MB 90GF45 000000
603AR018015 7160000248180185191WEST MEMPHIS            ARK   100118180A001A08FB 27FB 20DA26 000000
603AR018015 7160000248180185191WEST MEMPHIS            ARK   100118180A002A24FW 38MB 20GF45 000000
603AR018015 7160000248180185191WEST MEMPHIS            ARK   111229170A001C22FB 31FB 90OK60 000001                                                  26FB 90OK60
603AR018015 7160000248180185191WEST MEMPHIS            ARK   120118180A001A27MB 27MB 12AQ99 000000
603AR018027 7160000022560185191EARLE                   ARK   050118180A001C18MB 24MB 12AQ60 000001                                                  00MB 12FR60
603AR018045 7160000122700185191MARION                  ARK   040118180A001B16MB 00UU 11UN99 000000
603AR019016 716000008161019   0WYNNE                   ARK   100118180A001A44MB 23MB 12AQ45 000000
603AR022016 716000009860022   0MONTICELLO              ARK   010118180A001A19MW 19MB 12UN45 000000
603AR022016 716000009860022   0MONTICELLO              ARK   010118180A002F37MB 00UU 11UN99 00100038FB
603AR022016 716000009860022   0MONTICELLO              ARK   030118180A001A27MB 24FB 20UN45 000000
603AR023009B7160000435640234691FAULKNER                ARK   020118180A001A01MW 40MW 90SO99 000000
603AR023013 7160000661040234690CONWAY                  ARK   010118180A001A35MB 29FB 12HU45 000000
603AR023013 7160000661040234690CONWAY                  ARK   030118180A001A41FW 55MW 85GF45 000000
603AR023013 7160000661040234690CONWAY                  ARK   080118180A001A50MB 00MB 11UN60 000000
603AR023013 7160000661040234690CONWAY                  ARK   090118180A001A66MB 38MB 12ST45 000000
603AR023013 7160000661040234690CONWAY                  ARK   110118180A001C53MW 21MB 12ST03 000002                                                  32MB 12ST03 24FW 12ST03
603AR026014 7160000357160263560HOT SPRINGS             ARK   050118180A001A23MB 21MB 90UN99 000000
603AR026014 7160000357160263560HOT SPRINGS             ARK   090118180A001C24MW 23MW 11AQ45 000001                                                  20MB 11AQ45
603AR026014 7160000357160263560HOT SPRINGS             ARK   100118180A001A31MB 48MW 11AQ99 000000
603AR026014 7160000357160263560HOT SPRINGS             ARK   100118180A002B23MB 00UU 12UN18 000000
603AR029008C716000012113029   0HEMPSTEAD               ARK   120118180A001A23MW 16MW 13UN18 000000
603AR029016 716000009852029   0HOPE                    ARK   050118180A001A60MB 72MB 12BR99 000000
603AR029016 716000009852029   0HOPE                    ARK   060118180A001A22MB 22MB 12UN45 000000
603AR030008C716000022444030   0HOT SPRING              ARK   020118180A001B37UU 00UU 12UN99 000000
603AR032008B716000026178032   0INDEPENDENCE            ARK   100118180A001D26MW 25MW 12UN99 00100025MW
603AR034016 716000007733034   0NEWPORT                 ARK   040118180A001A30FB 18MB 13UN99 000000
603AR035009C7160000197280356641JEFFERSON               ARK   050118180A001A53FW 61MW 20WI45 000000
603AR035014 7160000439760356640PINE BLUFF              ARK   010118180A001B85MB 00UU 11UN60 000000
603AR035014 7160000439760356640PINE BLUFF              ARK   010118180A002B57MB 00UU 20UN60 000000
603AR035014 7160000439760356640PINE BLUFF              ARK   050118180A001B26MB 00UU 12UN60 000000
603AR035014 7160000439760356640PINE BLUFF              ARK   060118180A001B49MB 00UU 11UN60 000000
603AR035014 7160000439760356640PINE BLUFF              ARK   060118180A002B44MW 00UU 11UN45 000000
603AR035014 7160000439760356640PINE BLUFF              ARK   060118180A003B32MB 00UU 12UN60 000000
603AR035014 7160000439760356640PINE BLUFF              ARK   060118180A004B30MB 00UU 12UN99 000000
603AR035014 7160000439760356640PINE BLUFF              ARK   070118180A001C35MB 00MB 12UN07 000002                                                  00UU 12UN07 22MB 12AQ07
603AR035014 7160000439760356640PINE BLUFF              ARK   110118180A001A15MB 17MB 11UN60 000000
603AR036008C716000015078036   0JOHNSON                 ARK   060118180A001A34MW 36MW 12AQ07 000000
603AR036008C716000015078036   0JOHNSON                 ARK   090118180A001A34MW 33MW 14AQ45 000000
603AR037027 716000001525037   0STAMPS                  ARK   070118180A001B28MB 00UU 11UN99 000000
603AR042008C716000014280042   0LOGAN                   ARK   080118180A001A29MW 38MW 13OK45 000000
603AR042008C716000014280042   0LOGAN                   ARK   090118180A001B31MW 00UU 20UN99 000000
603AR043009B7160000285300434691LONOKE                  ARK   030118180A001A39FW 58MW 13OF45 000000
603AR043024 7160000259270434691CABOT                   ARK   110118180A001A23FW 25MW 20WI45 000000
603AR043066 7160000048350434691WARD                    ARK   070118180A001A35FW 51MW 40WI45 000000
603AR046009C7160000135190468871MILLER                  ARK   010118180A001A35MW 25FW 20HU45 000000
603AR046014 7160000304290468871TEXARKANA               ARK   030118180A001A33MW 43MB 20AQ60 000000
603AR046014 7160000304290468871TEXARKANA               ARK   030118180A002A31MW 36MW 12BR60 000000
603AR046014 7160000304290468871TEXARKANA               ARK   090118180A001A25MB 23MB 12AQ60 000000
603AR046014 7160000304290468871TEXARKANA               ARK   100118180A001A43MB 35FB 20AQ60 000000
603AR046014 7160000304290468871TEXARKANA               ARK   110118180A001C44MB 40MB 11UN60 000001                                                  21MB 11UN60
603AR047008C716000014113047   0MISSISSIPPI             ARK   100118180A001A55MW 26MW 12UN45 000000
603AR047015 716000014523047   0BLYTHEVILLE             ARK   030118180A001A57FB 52MB 40UN45 000000
603AR047015 716000014523047   0BLYTHEVILLE             ARK   050118180A001A34MB 25MW 11UN99 000000
603AR047015 716000014523047   0BLYTHEVILLE             ARK   060118180A001C27MB 24MB 11FR99 000001                                                  21MB 11FR99
603AR047015 716000014523047   0BLYTHEVILLE             ARK   060118180A002A37FB 24MB 90GF45 000000
603AR047015 716000014523047   0BLYTHEVILLE             ARK   070118180A001A55MB 41FB 20BF99 000000
603AR047015 716000014523047   0BLYTHEVILLE             ARK   100118180A001C33MB 19MB 11UN45 000001                                                  28MB 11UN45
603AR047015 716000014523047   0BLYTHEVILLE             ARK   111229170A001E56MB 18MB 11UN03 00100362MW                                              16MB 11UN03 25MB 11UN03 17MB 11UN03
603AR047015 716000014523047   0BLYTHEVILLE             ARK   120118180A001C52MB 26MB 11UN60 000001                                                  19FB 11OK60
603AR047015 716000014523047   0BLYTHEVILLE             ARK   120118180A002A26MB 50UU 12UN99 000000
603AR047026 716000007138047   0OSCEOLA                 ARK   030118180A001B61MB 00UU 11UN99 000000
603AR047026 716000007138047   0OSCEOLA                 ARK   100118180A001C28MB 17MB 11UN99 000003                                                  19MB 11UN99 21MB 11UN99 20MB 11UN99
603AR051008D716000007381051   0NEWTON                  ARK   120118180A001A37FW 44MW 40UN45 000000
603AR052015 716000011191052   0CAMDEN                  ARK   120118180A001A51MW 54MW 11AQ60 000000
603AR056017 7160000024890563961MARKED TREE             ARK   040118180A001A35MB 63MB 14UN45 000000
603AR056026 7160000071180563961TRUMANN                 ARK   080118180A001A36MB 33FB 12BF80E000000
603AR058008B716000026646058   0POPE                    ARK   050118180A001B49MW 00UU 12UN99 000000
603AR058014 716000029366058   0RUSSELLVILLE            ARK   050118180A001A39FW 41MB 12GF45 000000
603AR058014 716000029366058   0RUSSELLVILLE            ARK   090118180A001A28FB 48MB 11WI45 000000
603AR060009B7160000496450604691PULASKI                 ARK   010118180A001A63MB 32FW 30UN99 000000
603AR060009B7160000496450604691PULASKI                 ARK   100118180A001A42MW 36MB 30UN99 000000
603AR060009B7160000496450604691PULASKI                 ARK   100118180A002A27MB 34MB 30AQ45 000000
603AR060009B7160000496450604691PULASKI                 ARK   110118180A001A65MB 45MB 12UN99 000000
603AR060009B7160000496450604691PULASKI                 ARK   120118180A001A41FW 41MB 30OK99 000000
603AR060014 7160000286840604691JACKSONVILLE            ARK   070118180A001C02MB 29MB 40OK99 000001                                                  27FB 40SO99
603AR060014 7160000286840604691JACKSONVILLE            ARK   091229170A001A52MW 23MW 12IL45 000000
603AR060014 7160000286840604691JACKSONVILLE            ARK   100118180A001A26FB 28MB 12GF99 000000
603AR060022 7160001988000604690LITTLE ROCK             ARK   010118180A001A32MB 28MB 11UN60 000000
603AR060022 7160001988000604690LITTLE ROCK             ARK   010118180A002A28MB 27FB 20BF45 000000
603AR060022 7160001988000604690LITTLE ROCK             ARK   010118180A003B19MB 00UU 11UN99 000000
603AR060022 7160001988000604690LITTLE ROCK             ARK   010118180A004C27FW 11MB 11UN03 000006                                                  15MB 11UN03 13MB 11UN03 15MB 11UN03 18MB 11UN03 15MB 11UN03 15MB 11UN03
603AR060022 7160001988000604690LITTLE ROCK             ARK   010118180A005A25MB 26MB 12UN60 000000
603AR060022 7160001988000604690LITTLE ROCK             ARK   020118180A001B42MB 00UU 11UN60 000000
603AR060022 7160001988000604690LITTLE ROCK             ARK   020118180A002C52MW 32MB 20AQ99 000001                                                  00FB 20UN99
603AR060022 7160001988000604690LITTLE ROCK             ARK   040118180A001B17MB 00UU 11UN60 000000
603AR060022 7160001988000604690LITTLE ROCK             ARK   040118180A002A50MB 34MB 11UN99 000000
603AR060022 7160001988000604690LITTLE ROCK             ARK   040118180A003B69MW 00UU 90UN99 000000
603AR060022 7160001988000604690LITTLE ROCK             ARK   050118180A001A33MB 21MB 11UN45 000000
603AR060022 7160001988000604690LITTLE ROCK             ARK   050118180A002C62FB 00UU 90UN07 000001                                                  44MB 90UN07
603AR060022 7160001988000604690LITTLE ROCK             ARK   060118180A001A22MB 23MB 15OK99 000000
603AR060022 7160001988000604690LITTLE ROCK             ARK   060118180A002A48MW 00MB 11UN99 000000
603AR060022 7160001988000604690LITTLE ROCK             ARK   060118180A003C77MW 21MB 12UN99 000002                                                  21MB 12UN99 21MB 12UN99
603AR060022 7160001988000604690LITTLE ROCK             ARK   060118180A004A37MB 34MB 11UN60 000000
603AR060022 7160001988000604690LITTLE ROCK             ARK   070118180A001A40MB 58FB 13BF45 000000
603AR060022 7160001988000604690LITTLE ROCK             ARK   070118180A002B22MB 00UU 11UN99 000000
603AR060022 7160001988000604690LITTLE ROCK             ARK   080118180A001A20MB 28MB 12UN45 000000
603AR060022 7160001988000604690LITTLE ROCK             ARK   080118180A002C24MB 00MB 11UN99 000001                                                  00MB 11UN99
603AR060022 7160001988000604690LITTLE ROCK             ARK   080118180A003C21MB 21MB 12UN99 000001                                                  18MB 12UN99
603AR060022 7160001988000604690LITTLE ROCK             ARK   090118180A001C38MB 40MB 12UN45 000001                                                  00UU 12UN45
603AR060022 7160001988000604690LITTLE ROCK             ARK   090118180A002A35FB 32MB 11GF45 000000
603AR060022 7160001988000604690LITTLE ROCK             ARK   090118180A003B18MB 00UU 11UN99 000000
603AR060022 7160001988000604690LITTLE ROCK             ARK   090118180A004B45MB 00UU 12UN99 000000
603AR060022 7160001988000604690LITTLE ROCK             ARK   090118180A005B26MB 00UU 11UN99 000000
603AR060022 7160001988000604690LITTLE ROCK             ARK   090118180A006B29MB 00UU 11UN99 000000
603AR060022 7160001988000604690LITTLE ROCK             ARK   090118180A007B00MB 00UU 11UN99 000000
603AR060022 7160001988000604690LITTLE ROCK             ARK   100118180A001A32MB 34MB 12OK45 000000
603AR060022 7160001988000604690LITTLE ROCK             ARK   100118180A002C46MB 36MW 13UN26 000001                                                  46MB 13OK26
603AR060022 7160001988000604690LITTLE ROCK             ARK   111229170A001A53MW 23MW 12FA60 000000
603AR060022 7160001988000604690LITTLE ROCK             ARK   111229170A002C47MW 19MB 11UN99 000001                                                  24MB 11UN99
603AR060022 7160001988000604690LITTLE ROCK             ARK   111229170A003C02FB 17MB 11UN60 000001                                                  21MB 11UN60
603AR060022 7160001988000604690LITTLE ROCK             ARK   110118180A004A53MW 23MW 12FA60 000000
603AR060022 7160001988000604690LITTLE ROCK             ARK   110118180A005C47MW 19MB 11UN99 000001                                                  24MB 11UN99
603AR060022 7160001988000604690LITTLE ROCK             ARK   110118180A006B59MW 00UU 12UN60 000000
603AR060022 7160001988000604690LITTLE ROCK             ARK   110118180A007C02FB 17MB 11UN60 000001                                                  21MB 11UN60
603AR060022 7160001988000604690LITTLE ROCK             ARK   110118180A008A18MB 23MB 11UN99 000000
603AR060022 7160001988000604690LITTLE ROCK             ARK   121229170A001A25FB 30MB 12UN45 000000
603AR060022 7160001988000604690LITTLE ROCK             ARK   120118180A002A03MB 33MB 11UN60 000000
603AR060022 7160001988000604690LITTLE ROCK             ARK   120118180A003C52MW 59MW 11OK99 000001                                                  52MW 11OK99
603AR060022 7160001988000604690LITTLE ROCK             ARK   120118180A004A25FB 30MB 12UN45 000000
603AR060033 7160000673440604690NORTH LITTLE ROCK       ARK   020118180A001A55MW 60MW 20FR45 000000
603AR060033 7160000673440604690NORTH LITTLE ROCK       ARK   020118180A002A19MB 21MB 12AQ43 000000
603AR060033 7160000673440604690NORTH LITTLE ROCK       ARK   050118180A001A36FB 28MB 90GF99 000000
603AR060033 7160000673440604690NORTH LITTLE ROCK       ARK   050118180A002A44MB 32MB 12AQ80C000000
603AR060033 7160000673440604690NORTH LITTLE ROCK       ARK   080118180A001A47MW 39FW 90BF45 000000
603AR060033 7160000673440604690NORTH LITTLE ROCK       ARK   080118180A002C39FW 32FB 11UN60 000001                                                  32MB 11UN60
603AR060033 7160000673440604690NORTH LITTLE ROCK       ARK   080118180A003A25MB 30MB 20OK45 000000
603AR060033 7160000673440604690NORTH LITTLE ROCK       ARK   080118180A004A65MW 25FB 12UN03 000000
603AR060033 7160000673440604690NORTH LITTLE ROCK       ARK   100118180A001A29MW 38MB 12AQ45 000000
603AR060033 7160000673440604690NORTH LITTLE ROCK       ARK   100118180A002A18FB 20MB 11GF45 000000
603AR060033 7160000673440604690NORTH LITTLE ROCK       ARK   110118180A001B31MB 00UU 12UN45 000000
603AR060033 7160000673440604690NORTH LITTLE ROCK       ARK   121229170A001A19MB 17MB 12UN45 000000
603AR060044 7160000306760604691SHERWOOD                ARK   110118180A001A23MB 20MB 12FR45 000000
603AR060044 7160000306760604691SHERWOOD                ARK   120118180A001A85FW 51MW 85OK99 000000
603AR062015 716000014544062   0FORREST CITY            ARK   040118180A001A43MB 23MB 20UN99 000000
603AR063009B7160000572850634691SALINE                  ARK   010118180A001A36MW 32MW 12AQ45 000000
603AR063009B7160000572850634691SALINE                  ARK   010118180A002A23MB 31FB 12AQ99 000000
603AR063014 7160000349200634691BENTON                  ARK   100118180A001A49MW 30MW 12OK81A000000
603AR063014 7160000349200634691BENTON                  ARK   100118180A002A17MW 27MW 12ST81A000000
603AR063014 7160000349200634691BENTON                  ARK   120118180A001A59MW 40MW 12ST81E000000
603AR066013 7160000885730662850FORT SMITH              ARK   010118180A001C22MW 16MB 12ST03 000002                                                  15MB 12ST03 16MB 12AQ03
603AR066013 7160000885730662850FORT SMITH              ARK   010118180A002C33MB 29MW 90AQ45 000001                                                  47MW 90AQ45
603AR066013 7160000885730662850FORT SMITH              ARK   040118180A001A36FW 66MW 12AQ99 000000
603AR066013 7160000885730662850FORT SMITH              ARK   060118180A001C22MW 00MW 20ST99 000001                                                  00MW 20ST99
603AR067008C716000010582067   0SEVIER                  ARK   070118180A001D70MB 40MB 11UN45 00100066FB
603AR067016 716000006724067   0DE QUEEN                ARK   020118180A001D37MW 20MW 13UN03 00100020MB
603AR070015 716000018297070   0EL DORADO               ARK   010118180A001C33MB 17MB 12UN99 000005                                                  33MB 12BR99 30MB 12OF99 21MB 12OF99 37MB 12BR99 29FB 12BR99
603AR070015 716000018297070   0EL DORADO               ARK   060118180A001A39MB 19MB 13OK45 000000
603AR070015 716000018297070   0EL DORADO               ARK   070118180A001F31MB 00UU 11UN99 00200027MB 27MB
603AR071008C716000011807071   0VAN BUREN               ARK   020118180A001A28MW 46MW 13OK42 000000
603AR072009B7160000476120722701WASHINGTON              ARK   100118180A001D27MW 26MW 11OK60 00100037MA
603AR072009B7160000476120722701WASHINGTON              ARK   120118180A001A21MW 28MW 20OK60 000000
603AR072013 7160000847260722700FAYETTEVILLE            ARK   010118180A001A42MB 40MB 20BR45 000000
603AR072013 7160000847260722700FAYETTEVILLE            ARK   050118180A001A33MB 30MW 11UN81D000000
603AR072013 7160000847260722700FAYETTEVILLE            ARK   110118180A001A48MW 41MW 20UN99 000000
603AR072013 7160000847260722700FAYETTEVILLE            ARK   110118180A002C40FW 35FW 40FR45 000001                                                  40MW 40FR45
603AR072013 7160000847260722700FAYETTEVILLE            ARK   120118180A001A25MW 45MW 11UN81D000000
603AR073008B716000036979073   0WHITE                   ARK   080118180A001A51FW 55MW 90WI45 000000
603AR073036 716000008269073   0BEEBE                   ARK   110118180A001A21MB 33MB 12BR18 000000
603AR075008C716000012787075   0YELL                    ARK   030118180A001A43MW 71MW 12SO80C000000
603AR075008C716000012787075   0YELL                    ARK   030118180A002A25FW 28MW 90UN45 000000
603AR075008C716000012787075   0YELL                    ARK   030118180A003C56MW 28MW 11UN05 000002                                                  23MW 11UN05 19MB 11UN05
603AR075008C716000012787075   0YELL                    ARK   090118180A001A43FW 53MW 12WI45 000000
604CA001009A9160001404710017831ALAMEDA                 CALIF 040825161A001B27MWH00UUU11UN99 000000
604CA001009A9160001404710017831ALAMEDA                 CALIF 060825161A001A43MBN34MAN12ST99 000000
604CA001009A9160001404710017831ALAMEDA                 CALIF 070123171A001C38MAN46MBN12ST99 000001                                                  25FBN12ST99
604CA001009A9160001404710017831ALAMEDA                 CALIF 100215171A001B46FBN00UUU90UN99 000000
604CA001009A9160001404710017831ALAMEDA                 CALIF 100407171A002A56MAN73MAN85AQ48 000000
604CA001009A9160001404710017831ALAMEDA                 CALIF 110123171A001B36MWH00UUU12UN99 000000
604CA001009A9160001404710017831ALAMEDA                 CALIF 120123171A001A33MWH24MWH12ST99 000000
604CA001009A9160001404710017831ALAMEDA                 CALIF 120123171A002B59FWN00UUU20UN99 000000
604CA001013 9160000795970017830ALAMEDA                 CALIF 020713161B001A93FAN38MUU40ST59 000000
604CA001013 9160000795970017830ALAMEDA                 CALIF 110215171A001B19MBN00UUU12UN47 000000
604CA001032 9160001226510017830BERKELEY                CALIF 081012161A001B22MBN00UUU12UN99 000000
604CA001032 9160001226510017830BERKELEY                CALIF 091222161A001B19MWN00UUU12UN99 000000
604CA001062 9160001611220017830HAYWARD                 CALIF 010713161A001B30MWH00UUU12UN26 000000
604CA001062 9160001611220017830HAYWARD                 CALIF 010713161A002B20MWH00UUU11UN47 000000
604CA001062 9160001611220017830HAYWARD                 CALIF 020713161A001A22FWH23MWH12GF45 000000
604CA001062 9160001611220017830HAYWARD                 CALIF 081012161A001A59MBN63MBN12BR45 000000
604CA001062 9160001611220017830HAYWARD                 CALIF 081012161A002A63MWN61FWN11HU45 000000
604CA001062 9160001611220017830HAYWARD                 CALIF 081012161A003B42MWH00UUU20UN45 000000
604CA001062 9160001611220017830HAYWARD                 CALIF 081012161A004B18MWH00UUU11UN47 000000
604CA001062 9160001611220017830HAYWARD                 CALIF 081222161A005B17MWH00UUU11UN47 000000
604CA001062 9160001611220017830HAYWARD                 CALIF 081012161A006C36MWH39MWN12ST81A000001                                                  40MWN12ST81A
604CA001062 9160001611220017830HAYWARD                 CALIF 091117161A001B29MBN00UUU12UN99 000000
604CA001062 9160001611220017830HAYWARD                 CALIF 100123171A001B19MWH00UUU11UN26 000000
604CA001062 9160001611220017830HAYWARD                 CALIF 110123171A001F56MWH00UUU11UN47 00100042MWH
604CA001062 9160001611220017830HAYWARD                 CALIF 120215171A001C36MBN22MWH20ST45 000001                                                  25MWH20ST45
604CA001073 9160000895530017830LIVERMORE               CALIF 111222161A001A86MWN35MWN20OF99 000000
604CA001084 9160000458930017831NEWARK                  CALIF 011117161A001A62MWN49MWN13ST81A000000
604CA001084 9160000458930017831NEWARK                  CALIF 030713161A001A23MWH29MBN13ST81A000000
604CA001084 9160000458930017831NEWARK                  CALIF 060825161A001A42MWH35MWH11AQ40 000000
604CA001091C9160004249980017830OAKLAND                 CALIF 010713161A001B45MBN00UUU12UN99 000000
604CA001091C9160004249980017830OAKLAND                 CALIF 020920161A001A20MWN34MBN12ST45 000000
604CA001091C9160004249980017830OAKLAND                 CALIF 020920161A002C29MBN22MWH12OK03 000001                                                  20MWH12OK03
604CA001091C9160004249980017830OAKLAND                 CALIF 020920161A003A35MBN35MBN12OK45 000000
604CA001091C9160004249980017830OAKLAND                 CALIF 020920161A004A23MWH21MWH12OK45 000000
604CA001091C9160004249980017830OAKLAND                 CALIF 030825161A001B27MBN00UUU12UN99 000000
604CA001091C9160004249980017830OAKLAND                 CALIF 030825161A002A22MBN22MBN12ST03 000000
604CA001091C9160004249980017830OAKLAND                 CALIF 030825161A003B32MBN00UUU12UN99 000000
604CA001091C9160004249980017830OAKLAND                 CALIF 030825161A004B27MWH00UUU12UN99 000000
604CA001091C9160004249980017830OAKLAND                 CALIF 030825161A005C28MBN25MBN12ST99 000001                                                  25MBN12ST99
604CA001091C9160004249980017830OAKLAND                 CALIF 030825161A006A28MBN30MBN12ST99 000000
604CA001091C9160004249980017830OAKLAND                 CALIF 030825161A007A24MBN17MBN12ST45 000000
604CA001091C9160004249980017830OAKLAND                 CALIF 040825161A001A21MBN16MBN12OK03 000000
604CA001091C9160004249980017830OAKLAND                 CALIF 040825161A002B34MWH00UUU11UN99 000000
604CA001091C9160004249980017830OAKLAND                 CALIF 040825161A003B30MWN00UUU11UN03 000000
604CA001091C9160004249980017830OAKLAND                 CALIF 040825161A004B33FBN00UUU12UN47 000000
604CA001091C9160004249980017830OAKLAND                 CALIF 040825161A005B29MWH00UUU12UN99 000000
604CA001091C9160004249980017830OAKLAND                 CALIF 051012161A001B47MWH00UUU11UN03 000000
604CA001091C9160004249980017830OAKLAND                 CALIF 051012161A002A18MWH27MWH20OK45 000000
604CA001091C9160004249980017830OAKLAND                 CALIF 061012161A001B18FBN00UUU12UN99 000000
604CA001091C9160004249980017830OAKLAND                 CALIF 061012161A002A17FWN21MBN12OK99 000000
604CA001091C9160004249980017830OAKLAND                 CALIF 061012161A003A30MWN46MWN12AQ45 000000
604CA001091C9160004249980017830OAKLAND                 CALIF 061012161A004A43MWH18MBN12ST99 000000
604CA001091C9160004249980017830OAKLAND                 CALIF 061012161A005B60MWN00UUU12UN99 000000
604CA001091C9160004249980017830OAKLAND                 CALIF 061012161A006C34MBN25MWH12ST99 000001                                                  28MBN12ST99
604CA001091C9160004249980017830OAKLAND                 CALIF 061012161A007C17FBN20MBN12ST99 000001                                                  20MBN12ST99
604CA001091C9160004249980017830OAKLAND                 CALIF 061012161A008C17MBN28MWH12ST99 000001                                                  20FWH12ST99
604CA001091C9160004249980017830OAKLAND                 CALIF 061012161A009A20MBN18MBN12OK45 000000
604CA001091C9160004249980017830OAKLAND                 CALIF 070215171A001B40MBN00UUU12UN99 000000
604CA001091C9160004249980017830OAKLAND                 CALIF 070215171A002B40MWH00UUU12UN47 000000
604CA001091C9160004249980017830OAKLAND                 CALIF 070215171A003B21MBN00UUU12UN99 000000
604CA001091C9160004249980017830OAKLAND                 CALIF 070215171A004A34MBN16MBN20ST80C000000
604CA001091C9160004249980017830OAKLAND                 CALIF 070215171A005D22MBN22MBN12OK45 00100048FBN
604CA001091C9160004249980017830OAKLAND                 CALIF 070215171A006A53MBN54MBN12OK45 000000
604CA001091C9160004249980017830OAKLAND                 CALIF 070215171A007B21MBN00UUU12ST99 000000
604CA001091C9160004249980017830OAKLAND                 CALIF 070215171A008C24MBN20MBN12ST99 000003                                                  20MBN12ST99 25MBN12ST99 23MBN12ST99
604CA001091C9160004249980017830OAKLAND                 CALIF 070215171A009A27MWH39MWN12AQ07 000000
604CA001091C9160004249980017830OAKLAND                 CALIF 070215171A010B28MBN00UUU12UN99 000000
604CA001091C9160004249980017830OAKLAND                 CALIF 080215171A001B18MBN00UUU12UN99 000000
604CA001091C9160004249980017830OAKLAND                 CALIF 080215171A002E33MWH17MWH12OK45 00100125MWH                                             37MWH12OK45
604CA001091C9160004249980017830OAKLAND                 CALIF 080215171A003B23FBN00UUU12UN99 000000
604CA001091C9160004249980017830OAKLAND                 CALIF 080215171A004F22MBN00UUU12UN99 00100020MBN
604CA001091C9160004249980017830OAKLAND                 CALIF 080215171A005C29MBN18MBN12ST99 000001                                                  18MBN12ST99
604CA001091C9160004249980017830OAKLAND                 CALIF 080215171A006F28MWH00UUU12UN99 00100047MBN
604CA001091C9160004249980017830OAKLAND                 CALIF 090215171A001B34MBN00UUU12UN99 000000
604CA001091C9160004249980017830OAKLAND                 CALIF 090215171A002B66MBN00UUU12UN03 000000
604CA001091C9160004249980017830OAKLAND                 CALIF 090215171A003A26MBN18MUU12ST80C000000
604CA001091C9160004249980017830OAKLAND                 CALIF 090215171A004A23MBN20MBN12ST99 000000
604CA001091C9160004249980017830OAKLAND                 CALIF 090215171A005B20MWH00UUU12ST99 000000
604CA001091C9160004249980017830OAKLAND                 CALIF 100215171A001B22MWH00UUU11UN99 000000
604CA001091C9160004249980017830OAKLAND                 CALIF 100215171A002B28MBN00UUU12UN99 000000
604CA001091C9160004249980017830OAKLAND                 CALIF 100215171A003B23MBN00UUU12UN99 000000
604CA001091C9160004249980017830OAKLAND                 CALIF 100215171A004B35MBN00UUU12UN99 000000
604CA001091C9160004249980017830OAKLAND                 CALIF 100215171A005B37MWH00UUU12UN99 000000
604CA001091C9160004249980017830OAKLAND                 CALIF 100215171A006A26MBN23MBN12OK45 000000
604CA001091C9160004249980017830OAKLAND                 CALIF 100215171A007B30FBN00UUU12UN99 000000
604CA001091C9160004249980017830OAKLAND                 CALIF 110215171A001C21FWH23FBN20HO45 000001                                                  23MBN20HO45
604CA001091C9160004249980017830OAKLAND                 CALIF 110215171A002C22MBN23MBN12OK45 000001                                                  29MBN12OK45
604CA001091C9160004249980017830OAKLAND                 CALIF 110215171A003C25MWH18MWH12ST99 000001                                                  18MWH12ST99
604CA001091C9160004249980017830OAKLAND                 CALIF 110215171A004D55FBN61FWN12AQ45 00200019MBN57FBN
604CA001091C9160004249980017830OAKLAND                 CALIF 110215171A005B27FWN00UUU11UN99 000000
604CA001091C9160004249980017830OAKLAND                 CALIF 110215171A006A19FWH17MBN12GF45 000000
604CA001091C9160004249980017830OAKLAND                 CALIF 110215171A007A37MBN20MBN12ST99 000000
604CA001091C9160004249980017830OAKLAND                 CALIF 110215171A008B25MBN00UUU12UN99 000000
604CA001091C9160004249980017830OAKLAND                 CALIF 110215171A009A50MBN64MBN14NE45 000000
604CA001091C9160004249980017830OAKLAND                 CALIF 110215171A010B34MBN00UUU12UN99 000000
604CA001091C9160004249980017830OAKLAND                 CALIF 110215171A011D19MBN20MBN13ST99 00100019MBN
604CA001091C9160004249980017830OAKLAND                 CALIF 110215171A012B55MBN00UUU12UN99 000000
604CA001091C9160004249980017830OAKLAND                 CALIF 120215171A001A49MBN31MBN12OK45 000000
604CA001091C9160004249980017830OAKLAND                 CALIF 120215171A002F19MBN00UUU12UN99 00100040MBN
604CA001091C9160004249980017830OAKLAND                 CALIF 120215171A003B16MBN00UUU12UN99 000000
604CA001091C9160004249980017830OAKLAND                 CALIF 120215171A004A32MWH26MWH12OK45 000000
604CA001091C9160004249980017830OAKLAND                 CALIF 120215171A005A47MWN20MBN20ST45 000000
604CA001091C9160004249980017830OAKLAND                 CALIF 120215171A006B23MWH00UUU12UN99 000000
604CA001091C9160004249980017830OAKLAND                 CALIF 120215171A007B23MBN00UUU11UN99 000000
604CA001091C9160004249980017830OAKLAND                 CALIF 120215171A008A39MBN18MBN12ST99 000000
604CA001091C9160004249980017830OAKLAND                 CALIF 120215171A009A40FBN34FBN12OK45 000000
604CA001091C9160004249980017830OAKLAND                 CALIF 120215171A010A22MBN20MBN12ST99 000000
604CA001091C9160004249980017830OAKLAND                 CALIF 120215171A011A24MWH20MWH11ST99 000000
604CA001123 9160000918700017830SAN LEANDRO             CALIF 020713161A001A54MBN21MAN20FA45 000000
604CA001123 9160000918700017830SAN LEANDRO             CALIF 051012161A001B28MWH00UUU11UN99 000000
604CA001123 9160000918700017830SAN LEANDRO             CALIF 101222161A001A54MAN27MBN90ST99 000000
604CA001123 9160000918700017830SAN LEANDRO             CALIF 120215171A001A22MBN31MUU20ST80E000000
604CA001133 9160000755010017830UNION CITY              CALIF 110123171A001B21MAN00UUU11ST03 000000
604CA001217 9160000000000017831SF BART: ALAMEDA COUNTY CALIF 010920161A001A18MWH25MBN12ST99 000000
604CA004009B9160000827100041641BUTTE                   CALIF 071117161A001F34MBN00UUU13UN26 00100053MBN
604CA004009B9160000827100041641BUTTE                   CALIF 091117161A001A41MWN50MWN13ST80E000000
604CA004009B9160000827100041641BUTTE                   CALIF 100123171B001A25MWH20MWH13BR53 000000
604CA004009B9160000827100041641BUTTE                   CALIF 110320171A001B59MWN00UUU90UN99 000000
604CA004054 9160000265320041641PARADISE                CALIF 020320171A001A20MWN27MWH12ST44 000000
604CA005008B916000040643005   0CALAVERAS               CALIF 040721161A001A14MWN16MWN14FR45 000000
604CA005008B916000040643005   0CALAVERAS               CALIF 091222161A001B54FWN00UUU90UN99 000000
604CA005008B916000040643005   0CALAVERAS               CALIF 120215171A001A31MWN36MWN12FR44 000000
604CA006008C916000010209006   0COLUSA                  CALIF 080320171B001A52MWH57MWH13FR50 000000
604CA007009A9160001626090077831CONTRA COSTA            CALIF 040713161A001B28MBN00UUU30UN99 000000
604CA007009A9160001626090077831CONTRA COSTA            CALIF 040713161A002A28FUU30MUU12GF99 000000
604CA007009A9160001626090077831CONTRA COSTA            CALIF 040713161A003C47FWN37MWN11AQ26 000001                                                  43MWN11AQ26
604CA007009A9160001626090077831CONTRA COSTA            CALIF 050721161A001B26MBN00UUU11UN26 000000
604CA007009A9160001626090077831CONTRA COSTA            CALIF 050721161A002B29MBN00UUU11UN26 000000
604CA007009A9160001626090077831CONTRA COSTA            CALIF 050721161A003B19MBN00UUU11UN26 000000
604CA007009A9160001626090077831CONTRA COSTA            CALIF 081117161A001A69FWN69MWN30WI99 000000
604CA007009A9160001626090077831CONTRA COSTA            CALIF 091117161A001B20MWH00UUU11UN99 000000
604CA007009A9160001626090077831CONTRA COSTA            CALIF 110123171A001A28MBN31MWN11ST99 000000
604CA007012 9160001120900077830ANTIOCH                 CALIF 010713161A001B33MBN00UUU12UN03 000000
604CA007012 9160001120900077830ANTIOCH                 CALIF 020713161A001A37MWN37MWH11ST80E000000
604CA007012 9160001120900077830ANTIOCH                 CALIF 021222161A002B18MWH00UUU11UN26 000000
604CA007012 9160001120900077830ANTIOCH                 CALIF 030920161A001A31MBN34MBN12ST80C000000
604CA007012 9160001120900077830ANTIOCH                 CALIF 050721161A001A27MWH34MWN12BF45 000000
604CA007012 9160001120900077830ANTIOCH                 CALIF 050721161A002A21MBN18MBN12ST26 000000
604CA007012 9160001120900077830ANTIOCH                 CALIF 050721161A003B41MWH00UUU12UN47 000000
604CA007012 9160001120900077830ANTIOCH                 CALIF 060920161A001B39MBN00UUU12UN03 000000
604CA007012 9160001120900077830ANTIOCH                 CALIF 060123171A002A43MWN22MWN12FA99 000000
604CA007012 9160001120900077830ANTIOCH                 CALIF 110123171A001B33MBN00UUU12UN99 000000
604CA007012 9160001120900077830ANTIOCH                 CALIF 120320171A001A17MBN17MWH11ST80E000000
604CA007012 9160001120900077830ANTIOCH                 CALIF 120320171A002A21MBN21MWN12ST80E000000
604CA007012 9160001120900077830ANTIOCH                 CALIF 120215171A003B56MBN00UUU12UN03 000000
604CA007042 9160001299030077830CONCORD                 CALIF 050721161A001A25FBN26MBN40GF45 000000
604CA007042 9160001299030077830CONCORD                 CALIF 101222161A001C30MWN41MWN12ST81A000001                                                  44FWN12ST81A
604CA007054 9160000252220077831EL CERRITO              CALIF 100320171A001B62MWN00UUU12UN99 000000
604CA007064 9160000255530077831HERCULES                CALIF 120123171A001A22MAN19FBN90BF99 000000
604CA007083 9160000706630077830PITTSBURG               CALIF 030215171B001A15MWH18MWH12BR53 000000
604CA007083 9160000706630077830PITTSBURG               CALIF 040713161A002B29MUU00UUU11UN03 000000
604CA007083 9160000706630077830PITTSBURG               CALIF 040920161A003B28MWH00UUU11UN26 000000
604CA007083 9160000706630077830PITTSBURG               CALIF 050721161A001B25FBN00UUU12UN26 000000
604CA007083 9160000706630077830PITTSBURG               CALIF 050215171A002A23FUU32MUU80WI26 000000
604CA007083 9160000706630077830PITTSBURG               CALIF 060920161A001A32MBN33MBN12AQ99 000000
604CA007083 9160000706630077830PITTSBURG               CALIF 081117161A001A23MWN47MWN12SS45 000000
604CA007083 9160000706630077830PITTSBURG               CALIF 110123171A001B41MWH00UUU30UN99 000000
604CA007102 9160001108680077830RICHMOND                CALIF 010713161A001B29MBN00UUU12UN99 000000
604CA007102 9160001108680077830RICHMOND                CALIF 010713161A002B25MBN00UUU12UN99 000000
604CA007102 9160001108680077830RICHMOND                CALIF 020920161A001A14MBN25MBN12ST99 000000
604CA007102 9160001108680077830RICHMOND                CALIF 031012161A001A15MBN17MBN12ST99 000000
604CA007102 9160001108680077830RICHMOND                CALIF 031012161A002B21MBN00UUU12UN99 000000
604CA007102 9160001108680077830RICHMOND                CALIF 031012161A003A18MBN18MBN12FR99 000000
604CA007102 9160001108680077830RICHMOND                CALIF 040215171A001C22MWH21MBN12ST99 000001                                                  20MBN12ST99
604CA007102 9160001108680077830RICHMOND                CALIF 040215171A002A16FBN19MBN11AQ99 000000
604CA007102 9160001108680077830RICHMOND                CALIF 040215171A003A26MBN35MBN11AQ99 000000
604CA007102 9160001108680077830RICHMOND                CALIF 040320171A004B53MBN00UUU30UN99 000000
604CA007102 9160001108680077830RICHMOND                CALIF 070320171A001A38MBN26MBN20ST45 000000
604CA007102 9160001108680077830RICHMOND                CALIF 070320171A002B42MBN00UUU11UN26 000000
604CA007102 9160001108680077830RICHMOND                CALIF 070320171A003C32MBN25MBN11ST99 000001                                                  39MBN11ST99
604CA007102 9160001108680077830RICHMOND                CALIF 080215171A001B26MBN00UUU13UN99 000000
604CA007102 9160001108680077830RICHMOND                CALIF 080215171A002B20FBN00UUU11UN99 000000
604CA007102 9160001108680077830RICHMOND                CALIF 080215171A003B30MBN00UUU11UN26 000000
604CA007102 9160001108680077830RICHMOND                CALIF 090123171A001B17MBN00UUU12UN99 000000
604CA007102 9160001108680077830RICHMOND                CALIF 091117161A002A29MBN19MBN11AQ99 000000
604CA007102 9160001108680077830RICHMOND                CALIF 091117161A003A18MWH20MBN11ST99 000000
604CA007102 9160001108680077830RICHMOND                CALIF 101222161A001B21MWN00UUU12OK26 000000
604CA007102 9160001108680077830RICHMOND                CALIF 120215171A001B26MWH00UUU12UN99 000000
604CA007114 9160000306740077831SAN PABLO               CALIF 091117161A001C18FWN21MWN12AQ99 000002                                                  20MWN12AQ99 20MAN12AQ99
604CA007114 9160000306740077831SAN PABLO               CALIF 120320171A001B32MBN00UUU11UN99 000000
604CA007123 9160000698600077830WALNUT CREEK            CALIF 080920161A001A38MBN24MBN12ST26 000000
604CA007234 9160000448970077831DANVILLE                CALIF 020713161A001A54FWN63MWN14WI99 000000
604CA009009A9160001513920097401EL DORADO               CALIF 090123171B001A55FAN54MAN13WI50 000000
604CA009009A9160001513920097401EL DORADO               CALIF 120215171A001ABBMWN29MWN40SO60 000000
604CA009025 9160000217650097401SOUTH LAKE TAHOE        CALIF 010123171A001C40MWN20MWN12ST18 000003                                                  19MBN12ST18 18MBN12ST18 21MBN12ST18
604CA010009A9160001696430102991FRESNO                  CALIF 010713161A001F52MWH00UUU12UN47 00100077FWH
604CA010009A9160001696430102991FRESNO                  CALIF 010713161A002F36FWN00UUU12UN26 00100044MWN
604CA010009A9160001696430102991FRESNO                  CALIF 010713161A003F31MWH00UUU12UN99 00100029MWH
604CA010009A9160001696430102991FRESNO                  CALIF 010713161A004F17MBN00UUU12UN99 00100019FWH
604CA010009A9160001696430102991FRESNO                  CALIF 050721161A001B46MWH00UUU11UN99 000000
604CA010009A9160001696430102991FRESNO                  CALIF 070825161A001B49MWH00UUU20UN99 000000
604CA010009A9160001696430102991FRESNO                  CALIF 070825161A002A38MWH31MWH90AQ99 000000
604CA010009A9160001696430102991FRESNO                  CALIF 091117161A001B56MWH00UUU12UN99 000000
604CA010009A9160001696430102991FRESNO                  CALIF 100123171A001A17MWH64MUU12ST80E000000
604CA010012 9160001058650102990CLOVIS                  CALIF 050215171A001D68FWN49MWN20IL45 00100037FWN
604CA010012 9160001058650102990CLOVIS                  CALIF 070320171A001A33MWN27MWN12ST81A000000
604CA010051B9160005247960102990FRESNO                  CALIF 010713161A001B68MBN00UUU20UN03 000000
604CA010051B9160005247960102990FRESNO                  CALIF 010713161A002A78MBN46MBN12AQ26 000000
604CA010051B9160005247960102990FRESNO                  CALIF 010713161A003B33MBN00UUU11UN99 000000
604CA010051B9160005247960102990FRESNO                  CALIF 010713161A004A28MWH28MWH11AQ47 000000
604CA010051B9160005247960102990FRESNO                  CALIF 010713161A005A59MWN16MWN11ST03 000000
604CA010051B9160005247960102990FRESNO                  CALIF 010713161A006A38MBN23MWH11ST45 000000
604CA010051B9160005247960102990FRESNO                  CALIF 020713161A001B25MWH00UUU11UN47 000000
604CA010051B9160005247960102990FRESNO                  CALIF 030713161A001A22FAN24MAN20GF45 000000
604CA010051B9160005247960102990FRESNO                  CALIF 030721161A002A34MWH34MWN12ST81A000000
604CA010051B9160005247960102990FRESNO                  CALIF 030713161A003A28MWH30MWH20AQ45 000000
604CA010051B9160005247960102990FRESNO                  CALIF 030713161A004A17MAN19MBN12ST99 000000
604CA010051B9160005247960102990FRESNO                  CALIF 040721161A001B51MWN00UUU80UN99 000000
604CA010051B9160005247960102990FRESNO                  CALIF 040721161A002B22FWH00UUU11UN47 000000
604CA010051B9160005247960102990FRESNO                  CALIF 040721161A003A37MWN35MWN14AQ45 000000
604CA010051B9160005247960102990FRESNO                  CALIF 040721161A004B45MBN00UUU11UN47 000000
604CA010051B9160005247960102990FRESNO                  CALIF 050920161A002A78MWH76FWH30HU45 000000
604CA010051B9160005247960102990FRESNO                  CALIF 050920161A003A36MWN32MWH20ST99 000000
604CA010051B9160005247960102990FRESNO                  CALIF 051012161B004A16MWH18MWH11FR51 000000
604CA010051B9160005247960102990FRESNO                  CALIF 060825161A001B56MWH00UUU30UN99 000000
604CA010051B9160005247960102990FRESNO                  CALIF 060920161A002B01MBN00UUU11UN26 000000
604CA010051B9160005247960102990FRESNO                  CALIF 060825161A003A19MWN47MWH14ST81A000000
604CA010051B9160005247960102990FRESNO                  CALIF 071012161A001A57MBN20MBN20OK99 000000
604CA010051B9160005247960102990FRESNO                  CALIF 081012161A001A80FWN50MWN30MO26 000000
604CA010051B9160005247960102990FRESNO                  CALIF 081012161A002B29MBN00UUU11UN45 000000
604CA010051B9160005247960102990FRESNO                  CALIF 091117161A001B22MBN00UUU20UN45 000000
604CA010051B9160005247960102990FRESNO                  CALIF 091117161A002B22MBN00UUU12UN47 000000
604CA010051B9160005247960102990FRESNO                  CALIF 091117161A003B27MBN00UUU12UN47 000000
604CA010051B9160005247960102990FRESNO                  CALIF 091117161A004B27MBN00UUU12UN26 000000
604CA010051B9160005247960102990FRESNO                  CALIF 091117161A005A54MBN40MBN20AQ45 000000
604CA010051B9160005247960102990FRESNO                  CALIF 091117161A006B21MWH00UUU20UN99 000000
604CA010051B9160005247960102990FRESNO                  CALIF 091117161A007A65MWH14MBN40ST45 000000
604CA010051B9160005247960102990FRESNO                  CALIF 091117161A008B25MUU00UUU14UN99 000000
604CA010051B9160005247960102990FRESNO                  CALIF 091117161A009B25MBN00UUU12UN45 000000
604CA010051B9160005247960102990FRESNO                  CALIF 101222161A001B22MBN00UUU12UN26 000000
604CA010051B9160005247960102990FRESNO                  CALIF 101222161A002A46MWN16MWN20OK80E000000
604CA010051B9160005247960102990FRESNO                  CALIF 110123171A001A36FWH32MWH12WI45 000000
604CA010051B9160005247960102990FRESNO                  CALIF 110123171A002B34MBN00UUU11UN47 000000
604CA010051B9160005247960102990FRESNO                  CALIF 110123171A003A22FWH30MWH20GF45 000000
604CA010051B9160005247960102990FRESNO                  CALIF 110215171A004A31MWH37MWN20ST45 000000
604CA010051B9160005247960102990FRESNO                  CALIF 110123171A005A01MWH30MBN40OK60 000000
604CA010051B9160005247960102990FRESNO                  CALIF 110123171A006A50FWH49MWH20WI45 000000
604CA010051B9160005247960102990FRESNO                  CALIF 120215171A001B30MWH00UUU11UN47 000000
604CA010051B9160005247960102990FRESNO                  CALIF 120215171A002B23MWH00UUU11UN45 000000
604CA010051B9160005247960102990FRESNO                  CALIF 120320171A003A22MWH28FWH20BF80C000000
604CA010066 9160000068520102991HURON                   CALIF 071012161A001A19MWH34MWH12ST47 000000
604CA010095 9160000114810102991MENDOTA                 CALIF 070215171A001B30FWH00UUU20UN99 000000
604CA010095 9160000114810102991MENDOTA                 CALIF 100215171A001F34FIN00UUU12UN99 00100024MIN
604CA010095 9160000114810102991MENDOTA                 CALIF 120123171A001C46FWN27MIN12ST18 000002                                                  22MIN12ST18 18MIN12ST18
604CA010106 9160000097060102991ORANGE COVE             CALIF 030215171A001B28MIN00UUU11UN99 000000
604CA010134 9160000250780102991SANGER                  CALIF 010713161A001A23MWH17MWH12AQ45 000000
604CA010134 9160000250780102991SANGER                  CALIF 081012161A001B32MWH00UUU11UN99 000000
604CA010134 9160000250780102991SANGER                  CALIF 120215171A001B23MWH00UUU12UN26 000000
604CA010155 9160000246410102991SELMA                   CALIF 020825161A001B33MIN00UUU14UN99 000000
604CA011008C916000014168011   0GLENN                   CALIF 020721161A001C41MWN21MWN20ST45 000003                                                  19MWH20ST45 19FWH20ST45 39FWN20ST45
604CA012008B916000073278012   0HUMBOLDT                CALIF 020713161A001A30MWN25MIN20FR45 000000
604CA012008B916000073278012   0HUMBOLDT                CALIF 081222161A001B44MWN00UUU11UN03 000000
604CA012008B916000073278012   0HUMBOLDT                CALIF 080123171A002B52FWN00UUU11UN26 000000
604CA012008B916000073278012   0HUMBOLDT                CALIF 081222161A003B41MWN00UUU11UN99 000000
604CA012008B916000073278012   0HUMBOLDT                CALIF 091117161A001F50MWN00UUU13UN18 00100047MWN
604CA012008B916000073278012   0HUMBOLDT                CALIF 100215171A001A47MWN27MWN20NE26 000000
604CA012008B916000073278012   0HUMBOLDT                CALIF 110320171A001A50FIN23MIN11FR45 000000
604CA012008B916000073278012   0HUMBOLDT                CALIF 120215171A001C20MWN18FWN12AQ46 000003                                                  18FWN12AQ46 23MWH12AQ46 21MWH12AQ46
604CA012034 916000026981012   0EUREKA                  CALIF 060215171A001A19FWN20MWN13ST26 000000
604CA012055 916000012013012   0FORTUNA                 CALIF 090123171A001A42MWN36MWN12FR40 000000
604CA012055 916000012013012   0FORTUNA                 CALIF 101117161A001A81MWN50MWN12FA44 000000
604CA013009B9160000357020132381IMPERIAL                CALIF 040320171A001A39FWN40MWN13GF45 000000
604CA013009B9160000357020132381IMPERIAL                CALIF 050412171B001A39MW 33MW 40OK59 000000
604CA013009B9160000357020132381IMPERIAL                CALIF 050215171A002C57MWN29MBN30ST03 000002                                                  35MBN30ST03 20MBN30ST03
604CA013044 9160000442130132380EL CENTRO               CALIF 081117161A001B63FWH00UUU20UN99 000000
604CA014016 916000003793014   0BISHOP                  CALIF 070320171A001A62FWN62MWN12WI45 000000
604CA015009A9160003262810150691KERN                    CALIF 010721161A001C43MWH30MWH11ST47 000002                                                  18MWH11ST47 23MWH11ST47
604CA015009A9160003262810150691KERN                    CALIF 010721161A002B35MWH00UUU11UN99 000000
604CA015009A9160003262810150691KERN                    CALIF 010721161A003B19MWH00UUU11UN99 000000
604CA015009A9160003262810150691KERN                    CALIF 020713161A001B42MWN00UUU11ST81A000000
604CA015009A9160003262810150691KERN                    CALIF 020123171A002A02FWH27MWH40DA60 000000
604CA015009A9160003262810150691KERN                    CALIF 020123171A003B25MWH00UUU11UN47 000000
604CA015009A9160003262810150691KERN                    CALIF 020123171A004B59MIN00UUU65UN26 000000
604CA015009A9160003262810150691KERN                    CALIF 020123171A005B38MWN00UUU11UN47 000000
604CA015009A9160003262810150691KERN                    CALIF 020123171A006A03MWH30MWH30SO60 000000
604CA015009A9160003262810150691KERN                    CALIF 030713161A001B18MBN00UUU11ST26 000000
604CA015009A9160003262810150691KERN                    CALIF 030713161A002B27MWH00UUU11UN26 000000
604CA015009A9160003262810150691KERN                    CALIF 030713161A003A53FWH35FWH20MO45 000000
604CA015009A9160003262810150691KERN                    CALIF 030713161A004A52FWH49MWH30GF45 000000
604CA015009A9160003262810150691KERN                    CALIF 030721161A005B51MWH00UUU20UN99 000000
604CA015009A9160003262810150691KERN                    CALIF 040713161A001B32MWH00UUU11UN47 000000
604CA015009A9160003262810150691KERN                    CALIF 040713161A002B23MWH00UUU11UN47 000000
604CA015009A9160003262810150691KERN                    CALIF 050721161A001B24MBN00UUU11UN26 000000
604CA015009A9160003262810150691KERN                    CALIF 050920161A002C31MWH20MWH11ST26 000002                                                  19MWH11ST26 20MWH11ST26
604CA015009A9160003262810150691KERN                    CALIF 050721161A003B29MBN00UUU11UN26 000000
604CA015009A9160003262810150691KERN                    CALIF 050721161A004A39MWH32MWH80FR45 000000
604CA015009A9160003262810150691KERN                    CALIF 060825161A001B28MWH00UUU20UN99 000000
604CA015009A9160003262810150691KERN                    CALIF 060825161A003A32MWN69FWN11SO26 000000
604CA015009A9160003262810150691KERN                    CALIF 070825161A001B35MWH00UUU11UN99 000000
604CA015009A9160003262810150691KERN                    CALIF 070825161A002A49MWH20MWH40AQ45 000000
604CA015009A9160003262810150691KERN                    CALIF 070825161A003B18MBN00UUU11UN26 000000
604CA015009A9160003262810150691KERN                    CALIF 070825161A004A58MWN30MWN11OK26 000000
604CA015009A9160003262810150691KERN                    CALIF 070825161A005A60MWN30MWN11OK26 000000
604CA015009A9160003262810150691KERN                    CALIF 070825161A006B20MWH00UUU11UN26 000000
604CA015009A9160003262810150691KERN                    CALIF 081012161A001A30MWH31MWH11AQ45 000000
604CA015009A9160003262810150691KERN                    CALIF 081012161A002A46MWN22FBN20OF45 000000
604CA015009A9160003262810150691KERN                    CALIF 081012161A003B24MBN00UUU11UN99 000000
604CA015009A9160003262810150691KERN                    CALIF 091012161A001A14MBN19MBN11OF26 000000
604CA015009A9160003262810150691KERN                    CALIF 091012161A002A27MWH19MWH11ST45 000000
604CA015009A9160003262810150691KERN                    CALIF 091222161A003B32MWH00UUU11UN99 000000
604CA015009A9160003262810150691KERN                    CALIF 100123171A001B66MUU00UUU11UN99 000000
604CA015009A9160003262810150691KERN                    CALIF 100123171A002B00MUU00UUU11UN99 000000
604CA015009A9160003262810150691KERN                    CALIF 100123171A003A21MWN22MWN40ST42 000000
604CA015009A9160003262810150691KERN                    CALIF 100123171A004A23MWH23MWH20FR45 000000
604CA015009A9160003262810150691KERN                    CALIF 101222161A005A27MWH22MBN11ST03 000000
604CA015009A9160003262810150691KERN                    CALIF 101222161A006A60MWH22MBN11ST03 000000
604CA015009A9160003262810150691KERN                    CALIF 110123171A001B19MBN00UUU11UN47 000000
604CA015009A9160003262810150691KERN                    CALIF 110123171A002B21MBN00UUU11UN47 000000
604CA015009A9160003262810150691KERN                    CALIF 110123171A003B75MWH00UUU30UN99 000000
604CA015009A9160003262810150691KERN                    CALIF 120215171A001ABBMWH30MWH40SO60 000000
604CA015009A9160003262810150691KERN                    CALIF 120215171A002A30FWH28MWH80GF45 000000
604CA015015 9160000211950150691ARVIN                   CALIF 051117161A001B34MWH00UUU12UN99 000000
604CA015015 9160000211950150691ARVIN                   CALIF 120215171A001B19MBN00UUU12UN99 000000
604CA015021C9160003787880150690BAKERSFIELD             CALIF 010713161A001B29MWH00UUU12UN26 000000
604CA015021C9160003787880150690BAKERSFIELD             CALIF 010713161A002B21MBN00UUU12UN26 000000
604CA015021C9160003787880150690BAKERSFIELD             CALIF 010713161A003B22MBN00UUU12UN47 000000
604CA015021C9160003787880150690BAKERSFIELD             CALIF 010721161A004B52MWH00UUU20UN99 000000
604CA015021C9160003787880150690BAKERSFIELD             CALIF 020721161A001B33FWH00UUU11UN99 000000
604CA015021C9160003787880150690BAKERSFIELD             CALIF 020713161A002A30MBN32MBN40AQ42 000000
604CA015021C9160003787880150690BAKERSFIELD             CALIF 020713161A003A60MWN47MBN40AQ44 000000
604CA015021C9160003787880150690BAKERSFIELD             CALIF 020713161A004A46MWN47MWN11ST81E000000
604CA015021C9160003787880150690BAKERSFIELD             CALIF 030713161A001C48MWH20MWH20ST45 000002                                                  22MBN20ST45 17MWH20ST45
604CA015021C9160003787880150690BAKERSFIELD             CALIF 030713161A002B29MWH00UUU11ST26 000000
604CA015021C9160003787880150690BAKERSFIELD             CALIF 040721161A001B41MWN00UUU14ST99 000000
604CA015021C9160003787880150690BAKERSFIELD             CALIF 040320171A002B18MWH00UUU11UN47 000000
604CA015021C9160003787880150690BAKERSFIELD             CALIF 040721161A003D48FWN29MWN11MO99 00100048MWN
604CA015021C9160003787880150690BAKERSFIELD             CALIF 040215171A004B28MBN00UUU11UN26 000000
604CA015021C9160003787880150690BAKERSFIELD             CALIF 050721161A001B19MBN00UUU12ST47 000000
604CA015021C9160003787880150690BAKERSFIELD             CALIF 050721161A002F37MBN00UUU12ST99 00100026FBN
604CA015021C9160003787880150690BAKERSFIELD             CALIF 050721161A003B19MWH00UUU12ST45 000000
604CA015021C9160003787880150690BAKERSFIELD             CALIF 050721161A004B18MWH00UUU11ST26 000000
604CA015021C9160003787880150690BAKERSFIELD             CALIF 060123171A001B19MWH00UUU12ST26 000000
604CA015021C9160003787880150690BAKERSFIELD             CALIF 060123171A002A48MBN19MBN30FA45 000000
604CA015021C9160003787880150690BAKERSFIELD             CALIF 060721161A003B22MBN00UUU12UN26 000000
604CA015021C9160003787880150690BAKERSFIELD             CALIF 060123171A004B21MBN00UUU11UN99 000000
604CA015021C9160003787880150690BAKERSFIELD             CALIF 070825161A001C25MUU24MBN12ST47 000001                                                  30MWH12ST47
604CA015021C9160003787880150690BAKERSFIELD             CALIF 070825161A002A41FWH44MWH85WI40 000000
604CA015021C9160003787880150690BAKERSFIELD             CALIF 070825161A003B43MBN00UUU12UN26 000000
604CA015021C9160003787880150690BAKERSFIELD             CALIF 080920161A001A41MWN23MWH90ST44 000000
604CA015021C9160003787880150690BAKERSFIELD             CALIF 080320171A002C37MWH31MWN11ST81E000003                                                  31MWN11ST81E27MWN11ST81E22FWN11ST81E
604CA015021C9160003787880150690BAKERSFIELD             CALIF 101222161A001B22MBN00UUU11UN26 000000
604CA015021C9160003787880150690BAKERSFIELD             CALIF 111222161A001B40MWH00UUU90ST05 000000
604CA015021C9160003787880150690BAKERSFIELD             CALIF 120215171A001A73MWH26MWN12ST81G000000
604CA015021C9160003787880150690BAKERSFIELD             CALIF 120215171A002A46MBN56MWH20ST99 000000
604CA015021C9160003787880150690BAKERSFIELD             CALIF 120215171A003B31MWN00UUU11UN99 000000
604CA015021C9160003787880150690BAKERSFIELD             CALIF 120215171A004B19MBN00UUU11UN99 000000
604CA015033 9160000526560150690DELANO                  CALIF 040320171A001B20MWH00UUU12UN47 000000
604CA015033 9160000526560150690DELANO                  CALIF 040320171A002B42MWN00UUU20UN45 000000
604CA015033 9160000526560150690DELANO                  CALIF 050215171A001B40MWH00UUU12UN99 000000
604CA015033 9160000526560150690DELANO                  CALIF 060215171A001B29MWH00UUU12UN99 000000
604CA015033 9160000526560150690DELANO                  CALIF 080215171A001A34MWH22MWH12OK47 000000
604CA015033 9160000526560150690DELANO                  CALIF 090215171A001D51MWH32MWH12ST45 00100030MWH
604CA015055 9160000142630150691MCFARLAND               CALIF 030320171A001B49MWH00UUU11UN47 000000
604CA015075 9160000186080150691SHAFTER                 CALIF 081012161A001A45FWH31MWH90WI45 000000
604CA015115 9160000132440150691CALIFORNIA CITY         CALIF 060920161A001B23FWN00UUU30UN99 000000
604CA016009B9160000327610163421KINGS                   CALIF 010721161A001A48FWN50MWH20GF45 000000
604CA016009B9160000327610163421KINGS                   CALIF 040123171A001B31MWH00UUU11UN99 000000
604CA016009B9160000327610163421KINGS                   CALIF 070215171A001A44MWH17MWH11AQ47 000000
604CA016009B9160000327610163421KINGS                   CALIF 090215171A001A21MIN23MIN11OF45 000000
604CA016015 9160000221110163420CORCORAN                CALIF 020721161A001A02FWH41MWH90AQ60 000000
604CA016015 9160000221110163420CORCORAN                CALIF 040721161A001B39MWH00UUU11UN47 000000
604CA016023 9160000559730163420HANFORD                 CALIF 030123171A001B31MBN00UUU11UN99 000000
604CA016023 9160000559730163420HANFORD                 CALIF 060320171A001A25MWH21MWH12OK47 000000
604CA016075 9160000129410163421AVENAL                  CALIF 080320171A001A21MWH16MWH12OK47 000000
