601AL001009A6000001510900370981JEFFERSON               ALA   120418010A001B00MB 00UU 12UN99 000000                                                                                                                                                                          
601AL001009A6000001510900370981JEFFERSON               ALA   120418010A002B00MB 00UU 12UN99 000000                                                                                                                                                                          
601AL001009A6000001510900370981JEFFERSON               ALA   120418010A003B00FB 00UU 12UN99 000000                                                                                                                                                                          
601AL001009A6000001510900370981JEFFERSON               ALA   120418010A004B00MB 00UU 12UN99 000000                                                                                                                                                                          
601AL001009A6000001510900370981JEFFERSON               ALA   120418010A005A39MW 38MW 40BR99 000000                                                                                                                                                                          
601AL001009A6000001510900370981JEFFERSON               ALA   120418010A006A22MB 26MB 12AQ45 000000                                                                                                                                                                          
601AL001009A6000001510900370981JEFFERSON               ALA   120418010A007A25MB 00MB 12UN99 000000                                                                                                                                                                          
601AL001014 6000000296720370981BESSEMER                ALA   120410010A001A72MW 00MB 12ST03 000000                                                                                                                                                                          
601AL001014 6000000296720370981BESSEMER                ALA   120410010A002A34MB 46MB 13AQ45 000000                                                                                                                                                                          
601AL001014 6000000296720370981BESSEMER                ALA   120410010A003A41MB 60MW 12ST45 000000                                                                                                                                                                          
601AL001014 6000000296720370981BESSEMER                ALA   120410010A004A51MB 46FB 12CH45 000000                                                                                                                                                                          
601AL001014 6000000296720370981BESSEMER                ALA   120410010A005A13MB 15MB 12AQ45 000000                                                                                                                                                                          
601AL001014 6000000296720370981BESSEMER                ALA   120410010A006A44MB 29MB 20AQ45 000000                                                                                                                                                                          
601AL001045 6000000123810370981FAIRFIELD               ALA   120418010A001A43MB 48MB 12IL45 000000                                                                                                                                                                          
601AL001123 6000000627420370980HOOVER                  ALA   120418010A001A25FB 26MB 40GF99 000000                                                                                                                                                                          
601AL001123 6000000627420370980HOOVER                  ALA   120418010A002A46MW 19MW 20UN99 000000                                                                                                                                                                          
601AL001123 6000000627420370980HOOVER                  ALA   120418010A003A00FU 25MB 12UN99 000000                                                                                                                                                                          
601AL001136 6000000098130370981IRONDALE                ALA   120418010A001A32MB 00MB 14UN99 000000                                                                                                                                                                          
601AL001195 6000000153640370981HUEYTOWN                ALA   120418010A001B34MW 00UU 12UN60 000000                                                                                                                                                                          
601AL001195 6000000153640370981HUEYTOWN                ALA   120418010A002B46FW 00UU 90UN99 000000                                                                                                                                                                          
601AL001195 6000000153640370981HUEYTOWN                ALA   120418010A003A27MB 30MB 12AQ45 000000                                                                                                                                                                          
601AL001195 6000000153640370981HUEYTOWN                ALA   120418010A004A43MB 19MB 12FA45 000000                                                                                                                                                                          
601AL002009B6000000819030495471MOBILE                  ALA   010417010A001C24MW 19MW 30ST26 000001                                                  22MW 30ST26                                                                                                             
601AL002009B6000000819030495471MOBILE                  ALA   020417010A001C19MW 18MW 20AQ40 000001                                                  24MW 20AQ40                                                                                                             
601AL002009B6000000819030495471MOBILE                  ALA   030417010A001B28FW 00UU 90UN99 000000                                                                                                                                                                          
601AL002009B6000000819030495471MOBILE                  ALA   040417010A001A37MB 53MB 12OF45 000000                                                                                                                                                                          
601AL002009B6000000819030495471MOBILE                  ALA   050417010A001A36MB 53MB 14FR45 000000                                                                                                                                                                          
601AL002009B6000000819030495471MOBILE                  ALA   090417010A001A44FB 32FB 20OF45 000000                                                                                                                                                                          
601AL002009B6000000819030495471MOBILE                  ALA   100417010A001A34MW 18MW 13UN18 000000                                                                                                                                                                          
601AL002009B6000000819030495471MOBILE                  ALA   110417010B001A15MW 14MW 12FR52 000000                                                                                                                                                                          
601AL002011C6000002547790495470MOBILE                  ALA   120430011A001A41MB 48FB 20CH45 000000                                                                                                                                                                          
601AL002011C6000002547790495470MOBILE                  ALA   120430011A002A02FB 22MB 40DA99 000000                                                                                                                                                                          
601AL002011C6000002547790495470MOBILE                  ALA   120430011A003A44MW 25MB 12AQ45 000000                                                                                                                                                                          
601AL002011C6000002547790495470MOBILE                  ALA   120430011A004A43MW 38MW 30OK42 000000                                                                                                                                                                          
601AL002011C6000002547790495470MOBILE                  ALA   120430011A005A72MW 34MW 40FA45 000000                                                                                                                                                                          
601AL002011C6000002547790495470MOBILE                  ALA   120430011A006B45FB 00UU 90UN99 000000                                                                                                                                                                          
601AL002011C6000002547790495470MOBILE                  ALA   120430011A007B29MB 00UU 12UN99 000000                                                                                                                                                                          
601AL002011C6000002547790495470MOBILE                  ALA   120430011A008A38FW 36MW 12GF60 000000                                                                                                                                                                          
601AL002011C6000002547790495470MOBILE                  ALA   120430011A009A23MB 32MB 12OK45 000000                                                                                                                                                                          
601AL002011C6000002547790495470MOBILE                  ALA   120430011A010A24MB 45MB 13AQ45 000000                                                                                                                                                                          
601AL002011C6000002547790495470MOBILE                  ALA   120424010A011A00UU 23MB 12UN99 000000                                                                                                                                                                          
601AL002011C6000002547790495470MOBILE                  ALA   120424010A012B24MB 00UU 12UN99 000000                                                                                                                                                                          
601AL002011C6000002547790495470MOBILE                  ALA   120424010A013A01MB 24MB 40UN99 000000                                                                                                                                                                          
601AL002011C6000002547790495470MOBILE                  ALA   120424010A014B87MW 00UU 90UN99 000000                                                                                                                                                                          
601AL002011C6000002547790495470MOBILE                  ALA   120424010A015A00UU 22MB 12UN99 000000                                                                                                                                                                          
601AL002011C6000002547790495470MOBILE                  ALA   120424010A016B42FB 00UU 90UN99 000000                                                                                                                                                                          
601AL002011C6000002547790495470MOBILE                  ALA   120424010A017B00UU 00UU 12UN99 000000                                                                                                                                                                          
601AL002011C6000002547790495470MOBILE                  ALA   120424010A018B45MW 00UU 90UN99 000000                                                                                                                                                                          
601AL002011C6000002547790495470MOBILE                  ALA   120424010A019A16MU 21MB 90UN99 000000                                                                                                                                                                          
601AL002024 6000000286330495471PRICHARD                ALA   120420010A001B73MB 00UU 12UN99 000000                                                                                                                                                                          
601AL002024 6000000286330495471PRICHARD                ALA   120420010A002A25MW 00MB 12UN03 000000                                                                                                                                                                          
601AL002024 6000000286330495471PRICHARD                ALA   120420010A003A32MB 61MB 14UN45 000000                                                                                                                                                                          
601AL002024 6000000286330495471PRICHARD                ALA   120420010A004A45MB 51MB 90ST99 000000                                                                                                                                                                          
601AL002024 6000000286330495471PRICHARD                ALA   120420010A005A61MB 16MB 20AQ60 000000                                                                                                                                                                          
601AL002024 6000000286330495471PRICHARD                ALA   120420010A006A18MB 20MB 12UN99 000000                                                                                                                                                                          
601AL002024 6000000286330495471PRICHARD                ALA   120420010A007A23FB 20MB 12UN99 000000                                                                                                                                                                          
601AL002024 6000000286330495471PRICHARD                ALA   120420010A008B00FB 00UU 12UN99 000000                                                                                                                                                                          
601AL002024 6000000286330495471PRICHARD                ALA   120420010A009B42MB 00UU 12UN99 000000                                                                                                                                                                          
601AL002024 6000000286330495471PRICHARD                ALA   120420010A010A24MB 24MB 12UN45 000000                                                                                                                                                                          
601AL002024 6000000286330495471PRICHARD                ALA   120420010A011A23MB 00MB 12UN99 000000                                                                                                                                                                          
601AL002024 6000000286330495471PRICHARD                ALA   120420010A012A00MB 00MB 12UN99 000000                                                                                                                                                                          
601AL002067 6000000023130495471BAYOU LA BATRE          ALA   120418010A001D32FA 40MA 90XW45 00100014MA                                                                                                                                                                      
601AL002067 6000000023130495471BAYOU LA BATRE          ALA   120418010A002A27MA 34MA 12ST44 000000                                                                                                                                                                          
601AL002087 6000000008440495471MOUNT VERNON            ALA   120418010A001B23MA 00UU 12UN26 000000                                                                                                                                                                          
601AL003009C6000000219420515561MONTGOMERY              ALA   120418010A001A00MB 40MB 12AQ03 000000                                                                                                                                                                          
601AL003009C6000000219420515561MONTGOMERY              ALA   120418010A002A00MB 41MB 20IL99 000000                                                                                                                                                                          
601AL003012 6000002015680515560MONTGOMERY              ALA   120424010A001A38FB 76MB 12GF99 000000                                                                                                                                                                          
601AL003012 6000002015680515560MONTGOMERY              ALA   120424010A002A31MB 35MB 20AQ45 000000                                                                                                                                                                          
601AL003012 6000002015680515560MONTGOMERY              ALA   120424010A003A32MB 33MB 90UN99 000000                                                                                                                                                                          
601AL003012 6000002015680515560MONTGOMERY              ALA   120424010A004B25MB 00UU 90UN99 000000                                                                                                                                                                          
601AL003012 6000002015680515560MONTGOMERY              ALA   120424010A005A85MW 33MW 20UN99 000000                                                                                                                                                                          
601AL003012 6000002015680515560MONTGOMERY              ALA   120424010A006A27MB 25MB 12UN99 000000                                                                                                                                                                          
601AL003012 6000002015680515560MONTGOMERY              ALA   120424010A007A28MW 23FW 12CH45 000000                                                                                                                                                                          
601AL003012 6000002015680515560MONTGOMERY              ALA   120424010A008A37FB 31MB 12GF99 000000                                                                                                                                                                          
601AL003012 6000002015680515560MONTGOMERY              ALA   120424010A009A43MB 35MB 20UN99 000000                                                                                                                                                                          
601AL003012 6000002015680515560MONTGOMERY              ALA   120424010A010A45FW 46MW 12WI99 000000                                                                                                                                                                          
601AL003012 6000002015680515560MONTGOMERY              ALA   120424010A011B23MB 00UU 12UN99 000000                                                                                                                                                                          
601AL003012 6000002015680515560MONTGOMERY              ALA   120424010A012A46FB 39MB 90UN99 000000                                                                                                                                                                          
601AL003012 6000002015680515560MONTGOMERY              ALA   120424010A013B28MB 00UU 12UN99 000000                                                                                                                                                                          
601AL003012 6000002015680515560MONTGOMERY              ALA   120424010A014B21MB 00UU 12UN99 000000                                                                                                                                                                          
601AL003012 6000002015680515560MONTGOMERY              ALA   120424010A015A22MB 24MB 12AQ99 000000                                                                                                                                                                          
601AL003012 6000002015680515560MONTGOMERY              ALA   120424010A016A39MB 31MB 12AQ45 000000                                                                                                                                                                          
601AL003012 6000002015680515560MONTGOMERY              ALA   120424010A017A17FB 18MB 12GF45 000000                                                                                                                                                                          
601AL003012 6000002015680515560MONTGOMERY              ALA   120424010A018A43FB 31MB 90UN99 000000                                                                                                                                                                          
601AL003012 6000002015680515560MONTGOMERY              ALA   120424010A019A44MB 20MB 12AQ18 000000                                                                                                                                                                          
601AL003012 6000002015680515560MONTGOMERY              ALA   120424010A020A27MW 23MW 20AQ99 000000                                                                                                                                                                          
601AL003012 6000002015680515560MONTGOMERY              ALA   120424010A021B26MB 00UU 12UN46 000000                                                                                                                                                                          
601AL003012 6000002015680515560MONTGOMERY              ALA   120424010A022A24MB 40MB 12UN60 000000                                                                                                                                                                          
601AL003012 6000002015680515560MONTGOMERY              ALA   120424010A023A18MB 22MB 12AQ99 000000                                                                                                                                                                          
601AL003012 6000002015680515560MONTGOMERY              ALA   120424010A024A19FB 25MB 12AQ99 000000                                                                                                                                                                          
601AL003012 6000002015680515560MONTGOMERY              ALA   120424010A025A26MB 24MB 12UN99 000000                                                                                                                                                                          
601AL003012 6000002015680515560MONTGOMERY              ALA   120424010A026B24MB 00UU 12UN99 000000                                                                                                                                                                          
601AL003012 6000002015680515560MONTGOMERY              ALA   120424010A027B20MB 00UU 12UN99 000000                                                                                                                                                                          
601AL003012 6000002015680515560MONTGOMERY              ALA   120424010A028A43FW 39MB 12GF99 000000                                                                                                                                                                          
601AL003012 6000002015680515560MONTGOMERY              ALA   120424010A029A20MB 21MB 12UN99 000000                                                                                                                                                                          
601AL003012 6000002015680515560MONTGOMERY              ALA   120424010A030A81MB 00MB 12UN99 000000                                                                                                                                                                          
601AL003012 6000002015680515560MONTGOMERY              ALA   120424010A031A28MB 23FB 20BF45 000000                                                                                                                                                                          
601AL003057 6000000000000515561AL DEPT OF MENTAL HEALTHALA   120418010A001B66FW 00UU 40UN99 000000                                                                                                                                                                          
601AL003057 6000000000000515561AL DEPT OF MENTAL HEALTHALA   120418010A002A40MB 29MW 40UN45 000000                                                                                                                                                                          
601AL004009C6000000194410015561AUTAUGA                 ALA   120418010A001A50MB 39FB 20CH45 000000                                                                                                                                                                          
601AL004015 6000000243030015561PRATTVILLE              ALA   120418010A001B31MB 00UU 12UN99 000000                                                                                                                                                                          
601AL005009B6000000747400025471BALDWIN                 ALA   120418010A001B41FW 00UU 20UN99 000000                                                                                                                                                                          
601AL005009B6000000747400025471BALDWIN                 ALA   120418010A002A16MW 45MW 40UN99 000000                                                                                                                                                                          
601AL005009B6000000747400025471BALDWIN                 ALA   120418010A003B34MW 00UU 20UN99 000000                                                                                                                                                                          
601AL005046 6000000050440025471GULF SHORES             ALA   120418010A001A41FW 36MW 20AQ99 000000                                                                                                                                                                          
601AL008009B6000000412830050981BLOUNT                  ALA   120418010A001A25MW 00MW 14AQ99 000000                                                                                                                                                                          
601AL009016 600000003670006   0UNION SPRINGS           ALA   120418010A001A28FB 28MB 12CW45 000000                                                                                                                                                                          
601AL009016 600000003670006   0UNION SPRINGS           ALA   120418010A002A77MW 18MB 12ST99 000000                                                                                                                                                                          
601AL011009B6000000584560080421CALHOUN                 ALA   120418010A001A32MW 26MW 12UN45 000000                                                                                                                                                                          
601AL011015 6000000242760080420ANNISTON                ALA   120418010A001A38MW 58MW 12AQ45 000000                                                                                                                                                                          
601AL011015 6000000242760080420ANNISTON                ALA   120418010A002A51MB 50MB 20AQ45 000000                                                                                                                                                                          
601AL011015 6000000242760080420ANNISTON                ALA   120418010A003A30MW 55MW 12AQ80G000000                                                                                                                                                                          
601AL011015 6000000242760080420ANNISTON                ALA   120418010A004A45MB 53MB 12AQ45 000000                                                                                                                                                                          
601AL011015 6000000242760080420ANNISTON                ALA   120418010A005A37MW 21MB 14UN18 000000                                                                                                                                                                          
601AL011015 6000000242760080420ANNISTON                ALA   120418010A006A22FB 21MB 90CW45 000000                                                                                                                                                                          
601AL011015 6000000242760080420ANNISTON                ALA   120418010A007A27MW 39MW 14SS45 000000                                                                                                                                                                          
601AL011046 6000000026190080421WEAVER                  ALA   120418010A001B66MW 00UU 12UN05 000000                                                                                                                                                                          
601AL012008C600000016254009   0CHAMBERS                ALA   120418010A001D39FB 27MB 12FR99 00100034MB                                                                                                                                                                      
601AL012016 600000003234009   0LAFAYETTE               ALA   120418010A001A51MB 25MB 12UN99 000000                                                                                                                                                                          
601AL012026 600000007897009   0LANETT                  ALA   120418010A001A42MB 25MB 90NE60 000000                                                                                                                                                                          
601AL012046 600000009198009   0VALLEY                  ALA   120418010A001A26MB 28MB 13AQ45 000000                                                                                                                                                                          
601AL014008B600000026974011   0CHILTON                 ALA   120418010A001A22MB 43MB 12AQ99 000000                                                                                                                                                                          
601AL014008B600000026974011   0CHILTON                 ALA   120418010A002A00MB 00MB 20AQ45 000000                                                                                                                                                                          
601AL016008C600000016001013   0CLARKE                  ALA   120418010A001A00MW 19MW 40SO60 000000                                                                                                                                                                          
601AL016008C600000016001013   0CLARKE                  ALA   120418010A002A43MW 40FW 90HU99 000000                                                                                                                                                                          
601AL020016 6000000096520172771SHEFFIELD               ALA   120418010A001B20MB 00UU 12UN03 000000                                                                                                                                                                          
601AL021008C600000010457018   0CONECUH                 ALA   120418010A001A32MW 52MW 12SO26 000000                                                                                                                                                                          
601AL021016 600000003630018   0EVERGREEN               ALA   120418010A001A53MW 17MB 90ST03 000000                                                                                                                                                                          
601AL022008C600000010569019   0COOSA                   ALA   120418010A001A32MB 00MB 12UN45 000000                                                                                                                                                                          
601AL023016 600000008794020   0ANDALUSIA               ALA   120418010A001A00FB 19MB 12GF99 000000                                                                                                                                                                          
601AL023016 600000008794020   0ANDALUSIA               ALA   120418010A002A22MW 29MW 20ST42 000000                                                                                                                                                                          
601AL024008D600000009719021   0CRENSHAW                ALA   120418010A001A76FB 54MB 12WI60 000000                                                                                                                                                                          
601AL026009C6000000212230232271DALE                    ALA   120418010A001A51MW 43MW 90UN99 000000                                                                                                                                                                          
601AL026015 6000000151190232271OZARK                   ALA   120418010A001A46FW 49MW 12GF99 000000                                                                                                                                                                          
601AL026015 6000000151190232271OZARK                   ALA   120418010A002A32FW 34MW 14XW99 000000                                                                                                                                                                          
601AL026015 6000000151190232271OZARK                   ALA   120418010A003A35MW 34MW 14UN60 000000                                                                                                                                                                          
601AL026015 6000000151190232271OZARK                   ALA   120418010A004B73FW 00UU 40UN99 000000                                                                                                                                                                          
601AL027008B600000025853024   0DALLAS                  ALA   120418010A001B65MB 00UU 40UN99 000000                                                                                                                                                                          
601AL027008B600000025853024   0DALLAS                  ALA   120418010A002A32FB 00MB 12UN03 000000                                                                                                                                                                          
601AL027015 600000020512024   0SELMA                   ALA   120418010A001A28MW 18MB 40ST18 000000                                                                                                                                                                          
601AL029009B6000000431790265561ELMORE                  ALA   120418010A001B25MB 00UU 12UN46 000000                                                                                                                                                                          
601AL029026 6000000049340265561TALLASSEE               ALA   120418010A001A37MB 30FB 40BF60 000000                                                                                                                                                                          
601AL030016 600000007676027   0ATMORE                  ALA   120418010A001A22FB 22MB 12UN45 000000                                                                                                                                                                          
601AL030016 600000007676027   0ATMORE                  ALA   120418010A002A20FB 22MB 12AQ45 000000                                                                                                                                                                          
601AL030016 600000007676027   0ATMORE                  ALA   120418010A003A39FB 22MB 12AQ45 000000                                                                                                                                                                          
601AL030016 600000007676027   0ATMORE                  ALA   120418010A004A20FB 32MB 20CW45 000000                                                                                                                                                                          
601AL031009B6000000326170283031ETOWAH                  ALA   120418010A001A65MW 53MW 12AQ45 000000                                                                                                                                                                          
601AL031016 6000000065920283031ATTALLA                 ALA   120418010A001B56MW 00UU 90UN99 000000                                                                                                                                                                          
601AL032027 600000001238029   0BERRY                   ALA   120418010A001A31FW 24MW 14WI45 000000                                                                                                                                                                          
601AL034016 600000004388031   0GENEVA                  ALA   120418010A001A71FB 44FB 40MO44 000000                                                                                                                                                                          
601AL035008D600000008096032   0GREENE                  ALA   120418010A001A37MB 18MB 13AQ26 000000                                                                                                                                                                          
601AL035008D600000008096032   0GREENE                  ALA   120418010A002A65FB 18MB 12AQ42 000000                                                                                                                                                                          
601AL037008D600000009242034   0HENRY                   ALA   120418010A001B22MB 00UU 12UN99 000000                                                                                                                                                                          
601AL037008D600000009242034   0HENRY                   ALA   120418010A002A63MW 78FB 12AQ40 000000                                                                                                                                                                          
601AL038009B6000000267840352271HOUSTON                 ALA   120418010A001B87FW 00UU 13UN05 000000                                                                                                                                                                          
601AL038009B6000000267840352271HOUSTON                 ALA   120418010A002A56MW 36MW 14IL26 000000                                                                                                                                                                          
601AL038009B6000000267840352271HOUSTON                 ALA   120418010A003A00MW 31MW 12OF45 000000                                                                                                                                                                          
601AL038013 6000000577370352270DOTHAN                  ALA   120418010A001A63MW 25MB 12UN99 000000                                                                                                                                                                          
601AL038013 6000000577370352270DOTHAN                  ALA   120418010A002B63MW 00UU 12UN99 000000                                                                                                                                                                          
601AL038013 6000000577370352270DOTHAN                  ALA   120418010A003B63MW 00UU 12UN99 000000                                                                                                                                                                          
601AL038013 6000000577370352270DOTHAN                  ALA   120418010A004B63MW 00UU 12UN99 000000                                                                                                                                                                          
601AL038013 6000000577370352270DOTHAN                  ALA   120418010A005A26MB 00MB 12AQ99 000000                                                                                                                                                                          
601AL038013 6000000577370352270DOTHAN                  ALA   120418010A006A43FB 38MB 12WI99 000000                                                                                                                                                                          
601AL038013 6000000577370352270DOTHAN                  ALA   120418010A007A52MW 19MB 12UN99 000000                                                                                                                                                                          
601AL039008B600000032241036   0JACKSON                 ALA   120418010A001A41MW 41FW 12XH45 000000                                                                                                                                                                          
601AL041009B6000000482090392771LAUDERDALE              ALA   120418010A001A30MW 00MW 20FR99 000000                                                                                                                                                                          
601AL043008B6000000466000410570LEE                     ALA   120418010A001A59MB 32MB 20UN99 000000                                                                                                                                                                          
601AL043014 6000000429870410570AUBURN                  ALA   120418010A001A52MB 21MB 12AQ45 000000                                                                                                                                                                          
601AL043014 6000000429870410570AUBURN                  ALA   120418010A002A31FA 00MB 20UN99 000000                                                                                                                                                                          
601AL043014 6000000429870410570AUBURN                  ALA   120418010A003A31MA 00FB 20UN99 000000                                                                                                                                                                          
601AL043014 6000000429870410570AUBURN                  ALA   120418010A004A19MW 21MW 90UN45 000000                                                                                                                                                                          
601AL043025 6000000234980410570OPELIKA                 ALA   120418010A001B83FW 00UU 90UN99 000000                                                                                                                                                                          
601AL043025 6000000234980410570OPELIKA                 ALA   120418010A002A31MB 23MB 12UN99 000000                                                                                                                                                                          
601AL043025 6000000234980410570OPELIKA                 ALA   120418010A003A32MW 19MB 12UN99 000000                                                                                                                                                                          
601AL043025 6000000234980410570OPELIKA                 ALA   120418010A004B75FW 00UU 90UN99 000000                                                                                                                                                                          
601AL043025 6000000234980410570OPELIKA                 ALA   120418010A005A38MW 19MB 12UN03 000000                                                                                                                                                                          
601AL043025 6000000234980410570OPELIKA                 ALA   120418010A006B19MB 00UU 12UN99 000000                                                                                                                                                                          
601AL044015 6000000189670423681ATHENS                  ALA   120418010A001A38FB 33MB 20UN99 000000                                                                                                                                                                          
601AL046008C600000011015044   0MACON                   ALA   120418010A001A46FB 29MB 12AQ99 000000                                                                                                                                                                          
601AL046015 600000011846044   0TUSKEGEE                ALA   120418010A001B01FB 00UU 90UN60 000000                                                                                                                                                                          
601AL047012 6000001582160453680HUNTSVILLE              ALA   120418010A001A47MW 33MW 90UN99 000000                                                                                                                                                                          
601AL047012 6000001582160453680HUNTSVILLE              ALA   120418010A002A17MB 40MB 12SS60 000000                                                                                                                                                                          
601AL047012 6000001582160453680HUNTSVILLE              ALA   120418010A003A16MW 33FW 90UN99 000000                                                                                                                                                                          
601AL047012 6000001582160453680HUNTSVILLE              ALA   120418010A004A26MW 23MB 12UN45 000000                                                                                                                                                                          
601AL047012 6000001582160453680HUNTSVILLE              ALA   120418010A005A58MW 23MB 12UN45 000000                                                                                                                                                                          
601AL047012 6000001582160453680HUNTSVILLE              ALA   120418010A006A21MW 23MB 12UN45 000000                                                                                                                                                                          
601AL047012 6000001582160453680HUNTSVILLE              ALA   120418010A007A32MB 19MB 12AQ45 000000                                                                                                                                                                          
601AL047012 6000001582160453680HUNTSVILLE              ALA   120418010A008A25MW 36FW 20BF45 000000                                                                                                                                                                          
601AL048016 600000007540046   0DEMOPOLIS               ALA   120418010A001A20FB 31MB 20GF45 000000                                                                                                                                                                          
601AL048016 600000007540046   0DEMOPOLIS               ALA   120418010A002A30FB 31MB 90WI45 000000                                                                                                                                                                          
601AL050026 600000007395048   0GUNTERSVILLE            ALA   120420010A001A24MB 30MB 12AQ45 000000                                                                                                                                                                          
601AL050026 600000007395048   0GUNTERSVILLE            ALA   120420010A002A24MB 30MB 12AQ60 000000                                                                                                                                                                          
601AL051008C600000017462050   0MONROE                  ALA   120420010A001A36MB 00FB 20BF45 000000                                                                                                                                                                          
601AL051016 600000006862050   0MONROEVILLE             ALA   120420010A001A40MB 35MB 20AQ45 000000                                                                                                                                                                          
601AL051016 600000006862050   0MONROEVILLE             ALA   120420010A002A24MB 31MB 13AQ45 000000                                                                                                                                                                          
601AL052009B6000000401780522101MORGAN                  ALA   120420010A001B23FB 00UU 12UN03 000000                                                                                                                                                                          
601AL052013 6000000539290522100DECATUR                 ALA   120420010A001B24MW 00UU 12UN03 000000                                                                                                                                                                          
601AL052013 6000000539290522100DECATUR                 ALA   120420010A002A21MB 50MB 12AQ45 000000                                                                                                                                                                          
601AL052013 6000000539290522100DECATUR                 ALA   120420010A003B38MW 00UU 12UN99 000000                                                                                                                                                                          
601AL055008C600000013329055   0PIKE                    ALA   120420010A001A35MB 00MB 14AQ45 000000                                                                                                                                                                          
601AL055015 600000013935055   0TROY                    ALA   120420010A001A26MB 13MB 12IL45 000000                                                                                                                                                                          
601AL056016 600000006563056   0ROANOKE                 ALA   120420010A001A54MB 44MB 12FA99 000000                                                                                                                                                                          
601AL057009C6000000228790571841RUSSELL                 ALA   120420010A001A23MW 28MW 12AQ45 000000                                                                                                                                                                          
601AL057014 6000000282650571841PHENIX CITY             ALA   120420010A001A31MB 31MB 12AQ45 000000                                                                                                                                                                          
601AL057014 6000000282650571841PHENIX CITY             ALA   120420010A002B37MB 00UU 13UN46 000000                                                                                                                                                                          
601AL057014 6000000282650571841PHENIX CITY             ALA   120420010A003A22FB 22MB 90CW99 000000                                                                                                                                                                          
601AL058066 6000000080530580981MOODY                   ALA   120420010A001B62MB 00UU 12UN99 000000                                                                                                                                                                          
601AL059009B6000000677020590981SHELBY                  ALA   120420010A001A41FW 48MW 12WI60 000000                                                                                                                                                                          
601AL059026 6000000033160590981COLUMBIANA              ALA   120420010A001A39MB 42MB 20BR45 000000                                                                                                                                                                          
601AL060016 600000002854060   0YORK                    ALA   120420010A001A00MB 18FB 12AQ45 000000                                                                                                                                                                          
601AL061046 600000004577061   0LINCOLN                 ALA   120420010A001A64MB 43FB 20CH45 000000                                                                                                                                                                          
601AL061046 600000004577061   0LINCOLN                 ALA   120420010A002A30MB 23MB 12UN99 000000                                                                                                                                                                          
601AL061046 600000004577061   0LINCOLN                 ALA   120420010A003A32MB 27MB 20UN60 000000                                                                                                                                                                          
601AL062008C600000019204062   0TALLAPOOSA              ALA   120420010A001A67MB 30FW 12AQ40 000000                                                                                                                                                                          
601AL062008C600000019204062   0TALLAPOOSA              ALA   120420010A002A47MW 44MW 12UN45 000000                                                                                                                                                                          
601AL062015 600000015008062   0ALEXANDER CITY          ALA   120420010A001A55MW 42FW 20UN99 000000                                                                                                                                                                          
601AL062015 600000015008062   0ALEXANDER CITY          ALA   120420010A002A34FW 40FW 40UN99 000000                                                                                                                                                                          
601AL062015 600000015008062   0ALEXANDER CITY          ALA   120420010A003A39MB 28FB 90UN99 000000                                                                                                                                                                          
601AL063009B6000000668410639151TUSCALOOSA              ALA   120420010A001A18MW 19MW 12AQ45 000000                                                                                                                                                                          
601AL063009B6000000668410639151TUSCALOOSA              ALA   120420010A002B43MW 00UU 14UN45 000000                                                                                                                                                                          
601AL063009B6000000668410639151TUSCALOOSA              ALA   120420010A003A39FW 43MW 20WI45 000000                                                                                                                                                                          
601AL063009B6000000668410639151TUSCALOOSA              ALA   120420010A004B33MW 00UU 12UN44 000000                                                                                                                                                                          
601AL063009B6000000668410639151TUSCALOOSA              ALA   120420010A005A62MW 46MW 40UN99 000000                                                                                                                                                                          
601AL063013 6000000779060639150TUSCALOOSA              ALA   120420010A001A36MB 37FB 12UN99 000000                                                                                                                                                                          
601AL063013 6000000779060639150TUSCALOOSA              ALA   120420010A002A53MW 38MW 90ST99 000000                                                                                                                                                                          
601AL063013 6000000779060639150TUSCALOOSA              ALA   120420010A003A26MB 25MB 12AQ99 000000                                                                                                                                                                          
601AL063013 6000000779060639150TUSCALOOSA              ALA   120420010A004A22MB 19MB 90ST45 000000                                                                                                                                                                          
601AL063013 6000000779060639150TUSCALOOSA              ALA   120420010A005A29FB 29MB 12CW60 000000                                                                                                                                                                          
601AL063013 6000000779060639150TUSCALOOSA              ALA   120420010A006B22MB 00UU 12UN99 000000                                                                                                                                                                          
601AL063013 6000000779060639150TUSCALOOSA              ALA   120420010A007B63MB 00UU 12UN45 000000                                                                                                                                                                          
601AL063013 6000000779060639150TUSCALOOSA              ALA   120420010A008A16MB 20MB 14ST60 000000                                                                                                                                                                          
601AL063013 6000000779060639150TUSCALOOSA              ALA   120420010A009A24MB 35MB 12AQ99 000000                                                                                                                                                                          
601AL067026 600000004182067   0HALEYVILLE              ALA   120420010A001A26FW 24MB 12WI60 000000                                                                                                                                                                          
602AZ001016 800000004033001   0EAGAR                   ARIZ  070118010A001ABBFWH16MWH30DA60 000000                                                                                                                                                                          
602AZ002016 800000004711002   0BENSON                  ARIZ  010717000A001B43MWN00UUU20UN99 000000                                                                                                                                                                          
602AZ002055 800000014312002   0DOUGLAS                 ARIZ  030824000A001A67FWH27FWH80MO44 000000                                                                                                                                                                          
602AZ002094 800000037775002   0SIERRA VISTA            ARIZ  041010000A001A56FWN38MBN12AQ02 000000                                                                                                                                                                          
602AZ002094 800000037775002   0SIERRA VISTA            ARIZ  041010000A002A74FWN30MWN30OF60 000000                                                                                                                                                                          
602AZ002094 800000037775002   0SIERRA VISTA            ARIZ  051130000A001A36FWN39MWN12WI45 000000                                                                                                                                                                          
602AZ002094 800000037775002   0SIERRA VISTA            ARIZ  110402010A001D30FWN68MWN12DA45 00100063FWN                                                                                                                                                                     
602AZ003013 8000000528940032750FLAGSTAFF               ARIZ  020811000A001A23MIN17FIN20BF45 000000                                                                                                                                                                          
602AZ003013 8000000528940032750FLAGSTAFF               ARIZ  060104010A001A30MWN17MWN12ST60 000000                                                                                                                                                                          
602AZ003013 8000000528940032750FLAGSTAFF               ARIZ  080226010A001A27MIN29MWN12ST81A000000                                                                                                                                                                          
602AZ005008C800000018246005   0GRAHAM                  ARIZ  030824000A001A33MWN28MWN12AQ42 000000                                                                                                                                                                          
602AZ007009A8000002531550076621MARICOPA                ARIZ  020811000A001A67FWN67MWN12WI60 000000                                                                                                                                                                          
602AZ007009A8000002531550076621MARICOPA                ARIZ  030824000A001B36MWN00UUU90UN99 000000                                                                                                                                                                          
602AZ007009A8000002531550076621MARICOPA                ARIZ  030824000A002A29MWH23MWN12HO45 000000                                                                                                                                                                          
602AZ007009A8000002531550076621MARICOPA                ARIZ  030824000A003B30MWN00UUU12UN99 000000                                                                                                                                                                          
602AZ007009A8000002531550076621MARICOPA                ARIZ  041207001A001E20MW 00MW 12OF18 00200222MW 16MW                                         18MW 12OF18 20MW 12OF18                                                                                                 
602AZ007009A8000002531550076621MARICOPA                ARIZ  041130000A002A35MWH00MWH12AQ40 000000                                                                                                                                                                          
602AZ007009A8000002531550076621MARICOPA                ARIZ  060104010A001A44MWN39MWH14ST99 000000                                                                                                                                                                          
602AZ007009A8000002531550076621MARICOPA                ARIZ  060104010A002A75FWN75MWN14WI60 000000                                                                                                                                                                          
602AZ007009A8000002531550076621MARICOPA                ARIZ  070118010A001C32MWN24MWN12FR18 000001                                                  30MWN12FR18                                                                                                             
602AZ007009A8000002531550076621MARICOPA                ARIZ  080226010A001B28MWH00UUU20UN99 000000                                                                                                                                                                          
602AZ007009A8000002531550076621MARICOPA                ARIZ  080226010A002B20MWH00UUU12UN99 000000                                                                                                                                                                          
602AZ007009A8000002531550076621MARICOPA                ARIZ  080226010A003B25MWH00UUU12UN99 000000                                                                                                                                                                          
602AZ007009A8000002531550076621MARICOPA                ARIZ  090302010A001B37FWN00UUU20UN99 000000                                                                                                                                                                          
602AZ007009A8000002531550076621MARICOPA                ARIZ  110402010A001B20MWH00UUU12UN26 000000                                                                                                                                                                          
602AZ007009A8000002531550076621MARICOPA                ARIZ  120420010A001A26FIN20MIN12ST60 000000                                                                                                                                                                          
602AZ007014 8000000358830076621AVONDALE                ARIZ  100316010A001A17FWN22MWN20AQ60 000000                                                                                                                                                                          
602AZ007052 8000001765810076620CHANDLER                ARIZ  060104010A001A18MWH18MWH20AQ45 000000                                                                                                                                                                          
602AZ007052 8000001765810076620CHANDLER                ARIZ  100417011A001B33MI 00UU 80UN60 000000                                                                                                                                                                          
602AZ007052 8000001765810076620CHANDLER                ARIZ  100316010A002B27MWN00UUU12UN99 000000                                                                                                                                                                          
602AZ007052 8000001765810076620CHANDLER                ARIZ  120420010A001A19FBN19FWN12FR45 000000                                                                                                                                                                          
602AZ007076 8000000076090076621EL MIRAGE               ARIZ  060104010A001A63MWH31MWH12ST45 000000                                                                                                                                                                          
602AZ007132 8000002188120076620GLENDALE                ARIZ  020824000A001A37FAN38MAN12WI45 000000                                                                                                                                                                          
602AZ007132 8000002188120076620GLENDALE                ARIZ  030824000A001A20MWN19MWN12ST45 000000                                                                                                                                                                          
602AZ007132 8000002188120076620GLENDALE                ARIZ  041010000A001A21MWH33MWH12OK60 000000                                                                                                                                                                          
602AZ007132 8000002188120076620GLENDALE                ARIZ  041010000A002B23MWH00UUU12UN99 000000                                                                                                                                                                          
602AZ007132 8000002188120076620GLENDALE                ARIZ  051130000A001A18MWH18MWH12OF60 000000                                                                                                                                                                          
602AZ007132 8000002188120076620GLENDALE                ARIZ  060104010A001B50MWN00UUU12UN03 000000                                                                                                                                                                          
602AZ007132 8000002188120076620GLENDALE                ARIZ  070118010A001B32MWH00UUU12UN99 000000                                                                                                                                                                          
602AZ007132 8000002188120076620GLENDALE                ARIZ  070118010A002F28MWH00UUU12UN99 00100029MWH                                                                                                                                                                     
602AZ007132 8000002188120076620GLENDALE                ARIZ  070118010A003B44MWH00UUU30UN99 000000                                                                                                                                                                          
602AZ007132 8000002188120076620GLENDALE                ARIZ  090302010A001A52MWN28MWN20ST99 000000                                                                                                                                                                          
602AZ007132 8000002188120076620GLENDALE                ARIZ  100316010A001A76FWN24MWN40OF45 000000                                                                                                                                                                          
602AZ007171C8000003963750076620MESA                    ARIZ  010717000A001A30MWN30MWN40FR45 000000                                                                                                                                                                          
602AZ007171C8000003963750076620MESA                    ARIZ  010717000A002B21MWH00UUU12UN99 000000                                                                                                                                                                          
602AZ007171C8000003963750076620MESA                    ARIZ  010717000A003A60MWN47FWN12HU60 000000                                                                                                                                                                          
602AZ007171C8000003963750076620MESA                    ARIZ  010717000A004A46MWN30MWN12ST81B000000                                                                                                                                                                          
602AZ007171C8000003963750076620MESA                    ARIZ  010717000B005ABBMWN28MWN40AQ59 000000                                                                                                                                                                          
602AZ007171C8000003963750076620MESA                    ARIZ  030824000B001A22MWN23MWN12SS53 000000                                                                                                                                                                          
602AZ007171C8000003963750076620MESA                    ARIZ  041010000A001B20FWN00UUU20UN99 000000                                                                                                                                                                          
602AZ007171C8000003963750076620MESA                    ARIZ  051130000A001C38MWN38MWN12FR45 000001                                                  36FWN12FR45                                                                                                             
602AZ007171C8000003963750076620MESA                    ARIZ  051130000B002A49MWH28MWH12OF53 000000                                                                                                                                                                          
602AZ007171C8000003963750076620MESA                    ARIZ  060104010A001A31MWN22MWH12AQ99 000000                                                                                                                                                                          
602AZ007171C8000003963750076620MESA                    ARIZ  070118010A001A74FWN76MWN12WI60 000000                                                                                                                                                                          
602AZ007171C8000003963750076620MESA                    ARIZ  080226010A001B65FWN00UUU20UN99 000000                                                                                                                                                                          
602AZ007171C8000003963750076620MESA                    ARIZ  080226010A002A30FWH30MWH40GF45 000000                                                                                                                                                                          
602AZ007171C8000003963750076620MESA                    ARIZ  090302010A001ABBFWH19FWH40DA60 000000                                                                                                                                                                          
602AZ007171C8000003963750076620MESA                    ARIZ  110402010A001A81FWN57MWN12MO60 000000                                                                                                                                                                          
602AZ007171C8000003963750076620MESA                    ARIZ  110402010A002A20FWN20MWN12GF45 000000                                                                                                                                                                          
602AZ007171C8000003963750076620MESA                    ARIZ  110402010A003B18MBN00UUU12UN99 000000                                                                                                                                                                          
602AZ007171C8000003963750076620MESA                    ARIZ  120420010A001A28MWN20MBN20ST45 000000                                                                                                                                                                          
602AZ007171C8000003963750076620MESA                    ARIZ  120420010A002B23MWH00UUU13UN99 000000                                                                                                                                                                          
602AZ007212 8000001083640076620PEORIA                  ARIZ  041010000A001D58FWN61MWN12OK45 00100069FWN                                                                                                                                                                     
602AZ007212 8000001083640076620PEORIA                  ARIZ  080226010A001B27MWH00UUU30UN99 000000                                                                                                                                                                          
602AZ007212 8000001083640076620PEORIA                  ARIZ  090302010A001A51FWN37MWN40GF45 000000                                                                                                                                                                          
602AZ007212 8000001083640076620PEORIA                  ARIZ  090302010B002A01MWN20FWN40OK59 000000                                                                                                                                                                          
602AZ007231A8000013210450076620PHOENIX                 ARIZ  010717000A001A27MWH24MWH12AQ45 000000                                                                                                                                                                          
602AZ007231A8000013210450076620PHOENIX                 ARIZ  010717000A002A19MWH18MWH12AQ18 000000                                                                                                                                                                          
602AZ007231A8000013210450076620PHOENIX                 ARIZ  010717000A003A19MWH41MWH12AQ45 000000                                                                                                                                                                          
602AZ007231A8000013210450076620PHOENIX                 ARIZ  010717000A004A20MWH22MWH12FR03 000000                                                                                                                                                                          
602AZ007231A8000013210450076620PHOENIX                 ARIZ  010717000A005B46MWN00UUU11UN99 000000                                                                                                                                                                          
602AZ007231A8000013210450076620PHOENIX                 ARIZ  010717000A006B57MWH00UUU20UN70 000000                                                                                                                                                                          
602AZ007231A8000013210450076620PHOENIX                 ARIZ  010717000A007B38MWH00UUU12UN99 000000                                                                                                                                                                          
602AZ007231A8000013210450076620PHOENIX                 ARIZ  010717000A008A34MWH20MWN12AQ45 000000                                                                                                                                                                          
602AZ007231A8000013210450076620PHOENIX                 ARIZ  010717000A009B34MWH00UUU12UN99 000000                                                                                                                                                                          
602AZ007231A8000013210450076620PHOENIX                 ARIZ  010717000A010F27MWH00UUU14UN99 00100031MWH                                                                                                                                                                     
602AZ007231A8000013210450076620PHOENIX                 ARIZ  010717000A011C44MWN32MWN14ST81F000002                                                  41MWN12ST81F50MWN12ST81F                                                                                                
602AZ007231A8000013210450076620PHOENIX                 ARIZ  010717000A012A26MWN40MWN12ST81E000000                                                                                                                                                                          
602AZ007231A8000013210450076620PHOENIX                 ARIZ  010717000A013A31MWN29MWN12ST81E000000                                                                                                                                                                          
602AZ007231A8000013210450076620PHOENIX                 ARIZ  010717000A014A20MWN30MWN12ST81A000000                                                                                                                                                                          
602AZ007231A8000013210450076620PHOENIX                 ARIZ  020811000A001B75FWH00UUU20UN70 000000                                                                                                                                                                          
602AZ007231A8000013210450076620PHOENIX                 ARIZ  020811000A002B24MWH00UUU12UN18 000000                                                                                                                                                                          
602AZ007231A8000013210450076620PHOENIX                 ARIZ  020811000A003A19MWH00MWH13ST46 000000                                                                                                                                                                          
602AZ007231A8000013210450076620PHOENIX                 ARIZ  020811000A004A41MWN00FWN12AQ99 000000                                                                                                                                                                          
602AZ007231A8000013210450076620PHOENIX                 ARIZ  020811000A005A30MWH00MWH12UN99 000000                                                                                                                                                                          
602AZ007231A8000013210450076620PHOENIX                 ARIZ  020811000A006B21MWH00UUU12UN99 000000                                                                                                                                                                          
602AZ007231A8000013210450076620PHOENIX                 ARIZ  020811000A007B24MBN00UUU20UN99 000000                                                                                                                                                                          
602AZ007231A8000013210450076620PHOENIX                 ARIZ  020811000A008A51FWN54MWN20WI60 000000                                                                                                                                                                          
602AZ007231A8000013210450076620PHOENIX                 ARIZ  020811000A009A36FWH17MWH20MO60 000000                                                                                                                                                                          
602AZ007231A8000013210450076620PHOENIX                 ARIZ  020811000A010A34MWH00MWH12ST60 000000                                                                                                                                                                          
602AZ007231A8000013210450076620PHOENIX                 ARIZ  030824000A001A25MWH25MWH12AQ45 000000                                                                                                                                                                          
602AZ007231A8000013210450076620PHOENIX                 ARIZ  030824000A002B24MWH00UUU12UN99 000000                                                                                                                                                                          
602AZ007231A8000013210450076620PHOENIX                 ARIZ  030824000A003B32MWH00UUU12UN18 000000                                                                                                                                                                          
602AZ007231A8000013210450076620PHOENIX                 ARIZ  030824000A004B28MWH00UUU12FR45 000000                                                                                                                                                                          
602AZ007231A8000013210450076620PHOENIX                 ARIZ  030824000A005B43MIN00UUU12UN60 000000                                                                                                                                                                          
602AZ007231A8000013210450076620PHOENIX                 ARIZ  030824000A006A45FWN45MWN12WI60 000000                                                                                                                                                                          
602AZ007231A8000013210450076620PHOENIX                 ARIZ  030824000A007B47MWN00UUU12UN99 000000                                                                                                                                                                          
602AZ007231A8000013210450076620PHOENIX                 ARIZ  030824000A008A31MBN26FWH12HU45 000000                                                                                                                                                                          
602AZ007231A8000013210450076620PHOENIX                 ARIZ  030824000A009A27MWH24MWH12ST46 000000                                                                                                                                                                          
602AZ007231A8000013210450076620PHOENIX                 ARIZ  030824000A010B30MWH00UUU11UN99 000000                                                                                                                                                                          
602AZ007231A8000013210450076620PHOENIX                 ARIZ  030824000A011A25MBN23MWH12ST18 000000                                                                                                                                                                          
602AZ007231A8000013210450076620PHOENIX                 ARIZ  041010000A001A30FWH39MWH20OK60 000000                                                                                                                                                                          
602AZ007231A8000013210450076620PHOENIX                 ARIZ  041010000A002A26MWN36MWN20AQ44 000000                                                                                                                                                                          
602AZ007231A8000013210450076620PHOENIX                 ARIZ  041010000A003A26MWH00MWH12UN18 000000                                                                                                                                                                          
602AZ007231A8000013210450076620PHOENIX                 ARIZ  041010000A004A74FWN76MWN12WI60 000000                                                                                                                                                                          
602AZ007231A8000013210450076620PHOENIX                 ARIZ  041010000A005A22MWH24MWH12ST60 000000                                                                                                                                                                          
602AZ007231A8000013210450076620PHOENIX                 ARIZ  041010000A006B19MWH00UUU12UN60 000000                                                                                                                                                                          
602AZ007231A8000013210450076620PHOENIX                 ARIZ  041010000A007A23MWH27MWH12AQ40 000000                                                                                                                                                                          
602AZ007231A8000013210450076620PHOENIX                 ARIZ  041010000A008B82FWN00UUU20UN99 000000                                                                                                                                                                          
602AZ007231A8000013210450076620PHOENIX                 ARIZ  041010000A009C52MWH19MWH12ST99 000001                                                  21MWH12ST99                                                                                                             
602AZ007231A8000013210450076620PHOENIX                 ARIZ  041010000A010D26MWH00MBN12ST18 00100023MWH                                                                                                                                                                     
602AZ007231A8000013210450076620PHOENIX                 ARIZ  041010000A011A46MWH29MWN12ST81A000000                                                                                                                                                                          
602AZ007231A8000013210450076620PHOENIX                 ARIZ  051130000A001A29FWN36MAN20GF02 000000                                                                                                                                                                          
602AZ007231A8000013210450076620PHOENIX                 ARIZ  051130000A002A45FWH49MWH20WI45 000000                                                                                                                                                                          
602AZ007231A8000013210450076620PHOENIX                 ARIZ  051130000A003A23MBN27MBN12AQ44 000000                                                                                                                                                                          
602AZ007231A8000013210450076620PHOENIX                 ARIZ  051130000A004A32MWH27MWH12FR60 000000                                                                                                                                                                          
602AZ007231A8000013210450076620PHOENIX                 ARIZ  051130000A005ABBMWN29FWN40OK41 000000                                                                                                                                                                          
602AZ007231A8000013210450076620PHOENIX                 ARIZ  051130000A006A26MWH00MWH12UN99 000000                                                                                                                                                                          
602AZ007231A8000013210450076620PHOENIX                 ARIZ  051130000A007B19MWH00UUU11UN99 000000                                                                                                                                                                          
602AZ007231A8000013210450076620PHOENIX                 ARIZ  051130000A008A56FBN78MBN12WI45 000000                                                                                                                                                                          
602AZ007231A8000013210450076620PHOENIX                 ARIZ  051130000A009B19MWH00UUU11UN99 000000                                                                                                                                                                          
602AZ007231A8000013210450076620PHOENIX                 ARIZ  051130000A010A42MWH00MWH12ST60 000000                                                                                                                                                                          
602AZ007231A8000013210450076620PHOENIX                 ARIZ  051130000A011A63MWN19MWN30AQ45 000000                                                                                                                                                                          
602AZ007231A8000013210450076620PHOENIX                 ARIZ  051130000A012A41FBN24MBN12MO45 000000                                                                                                                                                                          
602AZ007231A8000013210450076620PHOENIX                 ARIZ  051130000A013A25MWH00MWH12UN18 000000                                                                                                                                                                          
602AZ007231A8000013210450076620PHOENIX                 ARIZ  051130000A014A26MWH31MWH20FR45 000000                                                                                                                                                                          
602AZ007231A8000013210450076620PHOENIX                 ARIZ  051130000A015A24MWH00MWH14AQ45 000000                                                                                                                                                                          
602AZ007231A8000013210450076620PHOENIX                 ARIZ  060104010A001A23MWN18MWH12ST60 000000                                                                                                                                                                          
602AZ007231A8000013210450076620PHOENIX                 ARIZ  060104010A003A14MWH23MWH12BR60 000000                                                                                                                                                                          
602AZ007231A8000013210450076620PHOENIX                 ARIZ  060104010A004A20FWH20MWH12GF45 000000                                                                                                                                                                          
602AZ007231A8000013210450076620PHOENIX                 ARIZ  060104010A005A46MWN20MWN20ST06 000000                                                                                                                                                                          
602AZ007231A8000013210450076620PHOENIX                 ARIZ  060104010A006A17MBN22MWH13AQ45 000000                                                                                                                                                                          
602AZ007231A8000013210450076620PHOENIX                 ARIZ  060417011A007F26MB 00UU 12UN99 00100131MB                                              00UU 12UN99                                                                                                             
602AZ007231A8000013210450076620PHOENIX                 ARIZ  060104010A008A28MWN41MWN14AQ44 000000                                                                                                                                                                          
602AZ007231A8000013210450076620PHOENIX                 ARIZ  060104010A009A45FBN24MWH20OF44 000000                                                                                                                                                                          
602AZ007231A8000013210450076620PHOENIX                 ARIZ  060104010A010A31MWN36FWN12BF45 000000                                                                                                                                                                          
602AZ007231A8000013210450076620PHOENIX                 ARIZ  060104010A011C28MWH00MWH12ST80C000002                                                  16MWH12ST80C27MWH14ST80C                                                                                                
602AZ007231A8000013210450076620PHOENIX                 ARIZ  070118010A001A33MWH21MWH12AQ43 000000                                                                                                                                                                          
