601AL001123 6140000848430370980HOOVER                  ALA   060106160A001A29FB 29MB 12WI60 000000
602AZ002009B8140000510160028161COCHISE                 ARIZ  011010140A001C39MWN31MWH12ST81A000001                                                  50MWN12ST81A
602AZ002009B8140000510160028161COCHISE                 ARIZ  070121150A001A74MWN60MWN12AQ40 000000
602AZ002009B8140000510160028161COCHISE                 ARIZ  090326150A001A32MWN26MWN12AQ03 000000
602AZ002009B8140000510160028161COCHISE                 ARIZ  090326150A002B25MWN00UUU11UN18 000000
602AZ003009B8140000542760032751COCONINO                ARIZ  020410150A001A84MWN73MWN11UN99 000000
602AZ003009B8140000542760032751COCONINO                ARIZ  050410150A001C56MWN35MIN85UN99 000001                                                  51MIN85UN99
602AZ003009B8140000542760032751COCONINO                ARIZ  080410150B001A30MWN32MWN90UN59 000000
602AZ003009B8140000542760032751COCONINO                ARIZ  110731151A001A62FWN71MWN12UN99 000000
602AZ003013 8140000694900032750FLAGSTAFF               ARIZ  021015140A001A52FWN18MWN40MO99 000000
602AZ003013 8140000694900032750FLAGSTAFF               ARIZ  041113140A001A38MWH54MWU12AQ44 000000
602AZ003013 8140000694900032750FLAGSTAFF               ARIZ  120410150A001A24MWN28MWN12ST45 000000
602AZ003086 8140000073280032751PAGE                    ARIZ  051120140A001A28MIN24MUU20OF42 000000
602AZ003086 8140000073280032751PAGE                    ARIZ  060114150A001A33MIN36MWN20FR99 000000
602AZ004065 814000015238004   0PAYSON                  ARIZ  051120140B001A02MWN77MWN12AQ52 000000
602AZ007009A8140004086480076621MARICOPA                ARIZ  011010140A001A24MWN24MWN12FR44 000000
602AZ007009A8140004086480076621MARICOPA                ARIZ  011010140A002A50MWN20MWN30OK99 000000
602AZ007009A8140004086480076621MARICOPA                ARIZ  021015140A001A34MWH23MWH12FR45 000000
602AZ007009A8140004086480076621MARICOPA                ARIZ  021015140A002A27MBN21MWH12AQ45 000000
602AZ007009A8140004086480076621MARICOPA                ARIZ  041113140A001A31MWH27MWH30OK99 000000
602AZ007009A8140004086480076621MARICOPA                ARIZ  041113140A002B24FWN00UUU90UN99 000000
602AZ007009A8140004086480076621MARICOPA                ARIZ  041113140A003A51MWN25MWH12UN99 000000
602AZ007009A8140004086480076621MARICOPA                ARIZ  041113140A004C28MWH43MWN12ST81A000001                                                  42MWN12ST81A
602AZ007009A8140004086480076621MARICOPA                ARIZ  060114150A001A69MWN41MWN15SF45 000000
602AZ007009A8140004086480076621MARICOPA                ARIZ  060114150A002A19FWH21MWH12GF45 000000
602AZ007009A8140004086480076621MARICOPA                ARIZ  070731151A002A27MWN34MWN90AQ99 000000
602AZ007009A8140004086480076621MARICOPA                ARIZ  070731151A003A26MWN53MWN12ST81B000000
602AZ007009A8140004086480076621MARICOPA                ARIZ  080205150A001B42MWN00UUU65UN99 000000
602AZ007009A8140004086480076621MARICOPA                ARIZ  080205150A002A59MWN36MWN12ST26 000000
602AZ007009A8140004086480076621MARICOPA                ARIZ  080205150A003B35MWN00UUU12UN99 000000
602AZ007009A8140004086480076621MARICOPA                ARIZ  100227150A001A27MWN34MWN11AQ99 000000
602AZ007009A8140004086480076621MARICOPA                ARIZ  100227150A002A23MWN48MWN12AQ44 000000
602AZ007009A8140004086480076621MARICOPA                ARIZ  100227150A003A21MWH35FWN12OK81F000000
602AZ007009A8140004086480076621MARICOPA                ARIZ  110313150A001B52MWH00UUU40UN48 000000
602AZ007009A8140004086480076621MARICOPA                ARIZ  120410150A001A15FWH17MWN12GF45 000000
602AZ007013 8140000794720076620AVONDALE                ARIZ  080205150B001B03FBN00UUU90UN59 000000
602AZ007013 8140000794720076620AVONDALE                ARIZ  100227150A001A43MWH38MWN12ST81B000000
602AZ007033 8140000581260076620BUCKEYE                 ARIZ  031023140A001A49MUU25MWN12ST45 000000
602AZ007051C8140002523690076620CHANDLER                ARIZ  020114150A001A35MIN25MWN12ST45 000000
602AZ007074 8140000333070076621EL MIRAGE               ARIZ  010114150B001A24FWH31MWH80GF59 000000
602AZ007132 8140002367800076620GLENDALE                ARIZ  011010140A001A45MWN16FWN80BF60 000000
602AZ007132 8140002367800076620GLENDALE                ARIZ  021015140A001C43MWN00MWN12OK81B000001                                                  00MWH12OK81B
602AZ007132 8140002367800076620GLENDALE                ARIZ  021015140A002A36MWN31MWH20AQ45 000000
602AZ007132 8140002367800076620GLENDALE                ARIZ  031023140A001A31MWN25MWN12ST45 000000
602AZ007132 8140002367800076620GLENDALE                ARIZ  041120140A001A22MBN31MBN12AQ03 000000
602AZ007132 8140002367800076620GLENDALE                ARIZ  060114150A001B24MWN00UUU20UN99 000000
602AZ007132 8140002367800076620GLENDALE                ARIZ  060114150A002A29MBN28MBN12AQ45 000000
602AZ007132 8140002367800076620GLENDALE                ARIZ  060114150A003B53MWH00UUU30UN99 000000
602AZ007132 8140002367800076620GLENDALE                ARIZ  060114150A004A72MWN24MWN12ST03 000000
602AZ007132 8140002367800076620GLENDALE                ARIZ  071211151A001A22FWH25MIN12GF45 000000
602AZ007132 8140002367800076620GLENDALE                ARIZ  071211151A002ABBMBH20MBN40SO41 000000
602AZ007132 8140002367800076620GLENDALE                ARIZ  071211151A003A18MBN24MBN12AQ80E000000
602AZ007132 8140002367800076620GLENDALE                ARIZ  090313150A001A25FWN29MWN12GF45 000000
602AZ007132 8140002367800076620GLENDALE                ARIZ  090313150A002B59MWN00UUU20UN99 000000
602AZ007132 8140002367800076620GLENDALE                ARIZ  100313150A001A20MWH29MWH40SO41 000000
602AZ007132 8140002367800076620GLENDALE                ARIZ  110313150A001A41MWN27MWN12AQ44 000000
602AZ007132 8140002367800076620GLENDALE                ARIZ  110313150A002B42MWN00UUU40UN45 000000
602AZ007132 8140002367800076620GLENDALE                ARIZ  110313150A003A45FWN58MWN12WI45 000000
602AZ007132 8140002367800076620GLENDALE                ARIZ  110313150A004A23MWH51MWH12ST60 000000
602AZ007132 8140002367800076620GLENDALE                ARIZ  120410150A001B53MWH00UUU12UN99 000000
602AZ007132 8140002367800076620GLENDALE                ARIZ  120410150A002B53MBN00UUU12UN99 000000
602AZ007153 8140000748260076620GOODYEAR                ARIZ  060114150A001A19MWH23MBN12UN18 000000
602AZ007153 8140000748260076620GOODYEAR                ARIZ  080205150A001A01FBN28FBN75DA60 000000
602AZ007171C8140004620920076620MESA                    ARIZ  011010140A001A22MWN21MBN13AQ99 000000
602AZ007171C8140004620920076620MESA                    ARIZ  021015140A001A54MWN20FWH20AQ05 000000
602AZ007171C8140004620920076620MESA                    ARIZ  021015140A002A26MIN48MBN20AQ99 000000
602AZ007171C8140004620920076620MESA                    ARIZ  031023140A001B50MWH00UUU20UN99 000000
602AZ007171C8140004620920076620MESA                    ARIZ  041113140A001A22FWH22MWH12GF60 000000
602AZ007171C8140004620920076620MESA                    ARIZ  041113140A002A12FWN45FWN85DA60 000000
602AZ007171C8140004620920076620MESA                    ARIZ  041113140A003A32MWN36MWN13ST81E000000
602AZ007171C8140004620920076620MESA                    ARIZ  060114150A001A22MIN25MIN12AQ42 000000
602AZ007171C8140004620920076620MESA                    ARIZ  070121150A001A20MIN30MIN30FR45 000000
602AZ007171C8140004620920076620MESA                    ARIZ  080205150A001A29MWH22MWH11ST99 000000
602AZ007171C8140004620920076620MESA                    ARIZ  090326150A001A87FWN63MWN30MO99 000000
602AZ007171C8140004620920076620MESA                    ARIZ  100227150A001CBBFBN17FBN40DA60 000003                                                  17MBN40DA60 21FBN40OF60 48FBN40OF60
602AZ007171C8140004620920076620MESA                    ARIZ  100227150A002A40FWN33MWN90GF99 000000
602AZ007171C8140004620920076620MESA                    ARIZ  100227150B003A55MWN42MWN30AQ53 000000
602AZ007171C8140004620920076620MESA                    ARIZ  120410150A001B20MWH00UUU12UN60 000000
602AZ007195 8140000135370076621PARADISE VALLEY         ARIZ  040803150A001B67MWN00UUU20UN99 000000
602AZ007212 8140001647220076620PEORIA                  ARIZ  060114150A001A42MWN38MWN12BR44 000000
602AZ007212 8140001647220076620PEORIA                  ARIZ  100227150A001A29FWN53MWN12AQ45 000000
602AZ007231A8140015298520076620PHOENIX                 ARIZ  010205150A001A51FWN51MBN20AQ45 000000
602AZ007231A8140015298520076620PHOENIX                 ARIZ  010205150A002A46MBN18MBN12UN03 000000
602AZ007231A8140015298520076620PHOENIX                 ARIZ  010205150A003C29MWN19MWH12AQ03 000001                                                  20MWN12AQ03
602AZ007231A8140015298520076620PHOENIX                 ARIZ  010205150A004B27MBN00UUU11UN45 000000
602AZ007231A8140015298520076620PHOENIX                 ARIZ  010205150A005A47MBN50MBN20BR45 000000
602AZ007231A8140015298520076620PHOENIX                 ARIZ  010205150A006A30MWN77MWN14ST80E000000
602AZ007231A8140015298520076620PHOENIX                 ARIZ  010205150A007A01FBN20MBN30OF41 000000
602AZ007231A8140015298520076620PHOENIX                 ARIZ  020205150A001A26MWH25FWH12BF45 000000
602AZ007231A8140015298520076620PHOENIX                 ARIZ  020205150A002A46FWH32FWH20AQ99 000000
602AZ007231A8140015298520076620PHOENIX                 ARIZ  020205150A003B32MWH00UUU12UN99 000000
602AZ007231A8140015298520076620PHOENIX                 ARIZ  020205150A004C21MWH39MWN12ST81A000002                                                  30MWN12ST81A50MWN12ST81A
602AZ007231A8140015298520076620PHOENIX                 ARIZ  020205150A005B54MBN00UUU12UN99 000000
602AZ007231A8140015298520076620PHOENIX                 ARIZ  030205150A002A43MWN29MWN12ST26 000000
602AZ007231A8140015298520076620PHOENIX                 ARIZ  030205150A003B39MWH00UUU12UN99 000000
602AZ007231A8140015298520076620PHOENIX                 ARIZ  030205150A004A16FWN15MWN12OK45 000000
602AZ007231A8140015298520076620PHOENIX                 ARIZ  030205150A005A45FWH53MWH30OK99 000000
602AZ007231A8140015298520076620PHOENIX                 ARIZ  030205150A006A12MWH27MWH20BR99 000000
602AZ007231A8140015298520076620PHOENIX                 ARIZ  030205150A007A26MWH46MWN12ST81A000000
602AZ007231A8140015298520076620PHOENIX                 ARIZ  030205150A008A33MWH21MWH12ST45 000000
602AZ007231A8140015298520076620PHOENIX                 ARIZ  030205150A009B30MWH00UUU12UN99 000000
602AZ007231A8140015298520076620PHOENIX                 ARIZ  030205150A010A27MWN23FWN13ST81D000000
602AZ007231A8140015298520076620PHOENIX                 ARIZ  030205150A011A52MWN29FWN12ST99 000000
602AZ007231A8140015298520076620PHOENIX                 ARIZ  030205150A012A26MBN52MWN12ST81A000000
602AZ007231A8140015298520076620PHOENIX                 ARIZ  030205150A013C54MWN18MBN12ST05 000001                                                  20MBN12ST05
602AZ007231A8140015298520076620PHOENIX                 ARIZ  040205150A001A66MWN23MWH30UN99 000000
602AZ007231A8140015298520076620PHOENIX                 ARIZ  040205150A002B24MWH00UUU12UN45 000000
602AZ007231A8140015298520076620PHOENIX                 ARIZ  040205150A003B33MWH00UUU11UN99 000000
602AZ007231A8140015298520076620PHOENIX                 ARIZ  040205150A004B38MBN00UUU11UN99 000000
602AZ007231A8140015298520076620PHOENIX                 ARIZ  040205150A005A32MWN37MWN12ST81F000000
602AZ007231A8140015298520076620PHOENIX                 ARIZ  040205150A006A33FBN32MBN12WI99 000000
602AZ007231A8140015298520076620PHOENIX                 ARIZ  040205150A007B35MWN00UUU30UN99 000000
602AZ007231A8140015298520076620PHOENIX                 ARIZ  040205150A008C27FIN00MBN12UN99 000005                                                  00MBN12UN99 00MBN12UN99 00MBN12UN99 00FBN12UN99 00FBN12UN99
602AZ007231A8140015298520076620PHOENIX                 ARIZ  040205150A009B52MWN00UUU11UN99 000000
602AZ007231A8140015298520076620PHOENIX                 ARIZ  040205150A010A22MWN19MWN12UN80C000000
602AZ007231A8140015298520076620PHOENIX                 ARIZ  040205150A011A35MBN32MWN12ST80C000000
602AZ007231A8140015298520076620PHOENIX                 ARIZ  040205150A012A26FWN27MWH12AQ99 000000
602AZ007231A8140015298520076620PHOENIX                 ARIZ  040205150A013C27MWH21MWH12UN45 000001                                                  20MWH12UN45
602AZ007231A8140015298520076620PHOENIX                 ARIZ  040205150A014C47MWN18MWH12UN05 000002                                                  24MWH12UN05 21MWH12UN05
602AZ007231A8140015298520076620PHOENIX                 ARIZ  050114150A001B40MWN00UUU12UN99 000000
602AZ007231A8140015298520076620PHOENIX                 ARIZ  050114150A002B38FWN00UUU65UN09 000000
602AZ007231A8140015298520076620PHOENIX                 ARIZ  050114150A003B35MWN00UUU11UN99 000000
602AZ007231A8140015298520076620PHOENIX                 ARIZ  050114150A004B29MBH00UUU11UN70 000000
602AZ007231A8140015298520076620PHOENIX                 ARIZ  050114150A005A22MBN30MWH12UN99 000000
602AZ007231A8140015298520076620PHOENIX                 ARIZ  050114150A006A50MWN16MWN30OF99 000000
602AZ007231A8140015298520076620PHOENIX                 ARIZ  050114150A007A67MWH35MWH65ST05 000000
602AZ007231A8140015298520076620PHOENIX                 ARIZ  060114150A001C23MBN00MUU11UN99 000001                                                  00MUU11UN99
602AZ007231A8140015298520076620PHOENIX                 ARIZ  060114150A002A51MBN46FBN14BF99 000000
602AZ007231A8140015298520076620PHOENIX                 ARIZ  060114150A003C33MWH00MUU11UN18 000001                                                  00MUU11UN18
602AZ007231A8140015298520076620PHOENIX                 ARIZ  060114150A005A28MWN54MWN12ST05 000000
602AZ007231A8140015298520076620PHOENIX                 ARIZ  060114150A006A30FWN29MWH30OK99 000000
602AZ007231A8140015298520076620PHOENIX                 ARIZ  060114150A007ABBFWN33MWN30SO99 000000
602AZ007231A8140015298520076620PHOENIX                 ARIZ  060114150A008A31MIN26MIN80UN45 000000
602AZ007231A8140015298520076620PHOENIX                 ARIZ  060114150A009B25MBN00UUU12UN46 000000
602AZ007231A8140015298520076620PHOENIX                 ARIZ  060114150A010A22MBN17MWH12AQ46 000000
602AZ007231A8140015298520076620PHOENIX                 ARIZ  060114150A011A19MBN19MWH20AQ45 000000
602AZ007231A8140015298520076620PHOENIX                 ARIZ  060114150A012B47MBU00UUU13UN99 000000
602AZ007231A8140015298520076620PHOENIX                 ARIZ  060114150A013A24MWH19MWH12ST45 000000
602AZ007231A8140015298520076620PHOENIX                 ARIZ  060114150A014A25MWH25MWH12AQ45 000000
602AZ007231A8140015298520076620PHOENIX                 ARIZ  070731151A001A14MWH26MWH65AQ09 000000
602AZ007231A8140015298520076620PHOENIX                 ARIZ  070731151A002F81MWN00UUU20UN99 00100064FWN
602AZ007231A8140015298520076620PHOENIX                 ARIZ  070731151A003B31MBN00UUU11UN45 000000
602AZ007231A8140015298520076620PHOENIX                 ARIZ  070731151A004A22FWH23MWH20GF45 000000
602AZ007231A8140015298520076620PHOENIX                 ARIZ  070121150A005A22MWH39MBN11UN18 000000
602AZ007231A8140015298520076620PHOENIX                 ARIZ  070731151A006B29MWH00UUU12UN18 000000
602AZ007231A8140015298520076620PHOENIX                 ARIZ  070731151A007B33MWH00UUU11UN99 000000
602AZ007231A8140015298520076620PHOENIX                 ARIZ  070731151A008B34MWN00UUU20UN45 000000
602AZ007231A8140015298520076620PHOENIX                 ARIZ  070731151A009A28MWH26MWH20BR80C000000
602AZ007231A8140015298520076620PHOENIX                 ARIZ  070731151A010B42MWH00UUU12UN99 000000
602AZ007231A8140015298520076620PHOENIX                 ARIZ  070731151A011B53MWH00UUU20UN05 000000
602AZ007231A8140015298520076620PHOENIX                 ARIZ  080326150A001A16FWH27MWN20ST99 000000
602AZ007231A8140015298520076620PHOENIX                 ARIZ  080326150A002A29FWN44MWN12GF99 000000
602AZ007231A8140015298520076620PHOENIX                 ARIZ  080326150A003A29MWN44MWN12AQ80C000000
602AZ007231A8140015298520076620PHOENIX                 ARIZ  080326150A004B50MWH00UUU11UN99 000000
602AZ007231A8140015298520076620PHOENIX                 ARIZ  080326150A005C23MIN32MWN12ST81A000004                                                  33FWN12ST81A33MWN12ST81A31MWN12ST81A48MWN12ST81A
602AZ007231A8140015298520076620PHOENIX                 ARIZ  080326150A006A34MWH40MWH12ST18 000000
602AZ007231A8140015298520076620PHOENIX                 ARIZ  080326150A007B31MWH00UUU13UN99 000000
602AZ007231A8140015298520076620PHOENIX                 ARIZ  080326150A008A50FBN48MWN12ST81A000000
602AZ007231A8140015298520076620PHOENIX                 ARIZ  080326150A009B35MWH00UUU20UN99 000000
602AZ007231A8140015298520076620PHOENIX                 ARIZ  080326150A010A29MWH66MWN12ST80C000000
602AZ007231A8140015298520076620PHOENIX                 ARIZ  080326150A011C39MWH32MWN12ST81A000002                                                  33MWN12ST81A39MWN12ST81A
602AZ007231A8140015298520076620PHOENIX                 ARIZ  080326150A012A48FWN55MWN14GF99 000000
602AZ007231A8140015298520076620PHOENIX                 ARIZ  080326150A013B35MWH00UUU12UN45 000000
602AZ007231A8140015298520076620PHOENIX                 ARIZ  090326150A001C55MWN29MWN12UN81A000001                                                  28MWN13UN81A
602AZ007231A8140015298520076620PHOENIX                 ARIZ  090326150A002A49FWN55MWN80GF99 000000
602AZ007231A8140015298520076620PHOENIX                 ARIZ  090326150A003A19MWH54MWN12ST18 000000
602AZ007231A8140015298520076620PHOENIX                 ARIZ  090326150A004C42MWH19MBN12ST03 000002                                                  18MBN12ST03 22MBN12ST03
602AZ007231A8140015298520076620PHOENIX                 ARIZ  090326150A005B27MWH00UUU11UN99 000000
602AZ007231A8140015298520076620PHOENIX                 ARIZ  090326150A006A21MWH21MBN12ST99 000000
602AZ007231A8140015298520076620PHOENIX                 ARIZ  090326150A007B24MWH00UUU14UN45 000000
602AZ007231A8140015298520076620PHOENIX                 ARIZ  090326150A008B27FWH00UUU12UN45 000000
602AZ007231A8140015298520076620PHOENIX                 ARIZ  090326150A009A19MWH15MWH12AQ99 000000
602AZ007231A8140015298520076620PHOENIX                 ARIZ  090326150A010A10MWH18MWH30OK41 000000
602AZ007231A8140015298520076620PHOENIX                 ARIZ  100227150A001A42MWH50MWH12AQ45 000000
602AZ007231A8140015298520076620PHOENIX                 ARIZ  100227150A002A54MBN57MBN20FR45 000000
602AZ007231A8140015298520076620PHOENIX                 ARIZ  100227150A003C17MWH19MWH12ST45 000002                                                  23MWH12ST45 21MWH12ST45
602AZ007231A8140015298520076620PHOENIX                 ARIZ  100227150A004A03MBN27FBN90FR99 000000
602AZ007231A8140015298520076620PHOENIX                 ARIZ  100227150A006ABBMWH28MWH90FA99 000000
602AZ007231A8140015298520076620PHOENIX                 ARIZ  100227150A007ABBFBN39MBN30OF70 000000
602AZ007231A8140015298520076620PHOENIX                 ARIZ  100227150A008A39MWH22MWH20AQ45 000000
602AZ007231A8140015298520076620PHOENIX                 ARIZ  100227150A009A29MBN26MWN12ST80C000000
602AZ007231A8140015298520076620PHOENIX                 ARIZ  100227150A010A23FWH28MBN12ST10 000000
602AZ007231A8140015298520076620PHOENIX                 ARIZ  100227150A011B30MBN00UUU30UN99 000000
602AZ007231A8140015298520076620PHOENIX                 ARIZ  100227150A012A37FWN39MWN13AQ45 000000
602AZ007231A8140015298520076620PHOENIX                 ARIZ  100227150A013B21FBN00UUU11UN99 000000
602AZ007231A8140015298520076620PHOENIX                 ARIZ  100227150A014B26MWH00UUU11UN99 000000
602AZ007231A8140015298520076620PHOENIX                 ARIZ  100227150A015B31MWH00UUU12UN99 000000
602AZ007231A8140015298520076620PHOENIX                 ARIZ  100227150A016B32MWN00UUU30UN99 000000
602AZ007231A8140015298520076620PHOENIX                 ARIZ  110313150A001A61MWH00MWH30ST45 000000
602AZ007231A8140015298520076620PHOENIX                 ARIZ  110313150A002A23MWH20MWH12ST80C000000
602AZ007231A8140015298520076620PHOENIX                 ARIZ  110313150A003A41MWN30FWN12WI99 000000
602AZ007231A8140015298520076620PHOENIX                 ARIZ  110313150A005A54MWH19MWH12OF99 000000
602AZ007231A8140015298520076620PHOENIX                 ARIZ  110313150A006B36MWH00UUU11UN99 000000
602AZ007231A8140015298520076620PHOENIX                 ARIZ  110313150A007B50MWN00UUU11UN99 000000
602AZ007231A8140015298520076620PHOENIX                 ARIZ  110313150A008A39MWH22MWH20AQ80C000000
602AZ007231A8140015298520076620PHOENIX                 ARIZ  120410150A001C04FWH33MWH85OF99 000001                                                  35FWH85MO99
602AZ007231A8140015298520076620PHOENIX                 ARIZ  120410150A002A46MIN45MIN75FR99 000000
602AZ007231A8140015298520076620PHOENIX                 ARIZ  120410150A003A34MBN30MWN12ST81A000000
602AZ007231A8140015298520076620PHOENIX                 ARIZ  120410150A004A25FWN36MWN80AQ10 000000
602AZ007231A8140015298520076620PHOENIX                 ARIZ  120410150A007B19FBN00UUU12UN99 000000
602AZ007231A8140015298520076620PHOENIX                 ARIZ  120410150A008B18MWH00UUU12UN18 000000
602AZ007231A8140015298520076620PHOENIX                 ARIZ  120410150A009B33MBN00UUU12UN99 000000
602AZ007231A8140015298520076620PHOENIX                 ARIZ  120410150A010B38MWH00UUU20UN99 000000
602AZ007231A8140015298520076620PHOENIX                 ARIZ  120410150A011B59MWN00UUU12UN99 000000
602AZ007231A8140015298520076620PHOENIX                 ARIZ  120410150A012A18MWN30MWN13ST81C000000
602AZ007231A8140015298520076620PHOENIX                 ARIZ  120410150A013C35MWN52MWN12ST81A000001                                                  50MWN12ST81A
602AZ007231A8140015298520076620PHOENIX                 ARIZ  120410150A014A34MBN36MBN12AQ18 000000
602AZ007231A8140015298520076620PHOENIX                 ARIZ  120410150A015A29MBN33MBN12AQ45 000000
602AZ007231A8140015298520076620PHOENIX                 ARIZ  120410150A016B60MWN00UUU30UN99 000000
602AZ007231A8140015298520076620PHOENIX                 ARIZ  120410150A017B17FWN00UUU11UN99 000000
602AZ007231A8140015298520076620PHOENIX                 ARIZ  120410150A018A29MWN23MBN20OK99 000000
602AZ007252 8140002293250076620SCOTTSDALE              ARIZ  010121150A001C35MWH29MWU12UN81A000002                                                  29MWU12UN81A37MWN12UN81A
602AZ007252 8140002293250076620SCOTTSDALE              ARIZ  100227150A001A50FWN38MWN30UN45 000000
602AZ007252 8140002293250076620SCOTTSDALE              ARIZ  100227150A002A26MWN29MWN13ST99 000000
602AZ007272 8140001250490076620SURPRISE                ARIZ  060114150A001F57FWU00UUU12UN99 00200041MWU25MWU
602AZ007272 8140001250490076620SURPRISE                ARIZ  090326150A001A49MWN50FWN12HU40 000000
602AZ007292 8140001698120076620TEMPE                   ARIZ  031023140A001C25MWN32MWN12ST81B000001                                                  40MWN12ST81B
602AZ007292 8140001698120076620TEMPE                   ARIZ  051120140A001A33FWN33MWN12GF45 000000
602AZ007292 8140001698120076620TEMPE                   ARIZ  070121150A001A24MBN25MUU12ST81A000000
602AZ007292 8140001698120076620TEMPE                   ARIZ  070121150A002A33MBN37MBN12OF45 000000
602AZ007292 8140001698120076620TEMPE                   ARIZ  080205150A001A30MBN28MBN12AQ40 000000
602AZ007292 8140001698120076620TEMPE                   ARIZ  110313150A001A21MBN00MBN12UN10 000000
602AZ007292 8140001698120076620TEMPE                   ARIZ  120410150A001B22MWH00UUU12UN03 000000
602AZ007316 8140000068070076621TOLLESON                ARIZ  010313150A001D09FWH47MWH12DA60 00100006FWH
602AZ008009B8140000796860084191MOHAVE                  ARIZ  011113140A001A45MWU61MWU12AQ45 000000
602AZ008009B8140000796860084191MOHAVE                  ARIZ  070121150A001A37MWU33MWU12AQ45 000000
602AZ008009B8140000796860084191MOHAVE                  ARIZ  100227150A001A01MWU20MWU90OF99 000000
602AZ008014 8140000285260084190KINGMAN                 ARIZ  021015140A001A60FAN64MAN12WI99 000000
602AZ008043 8140000528920084190LAKE HAVASU CITY        ARIZ  021113140A001A41MWN56MWN12ST99 000000
602AZ008043 8140000528920084190LAKE HAVASU CITY        ARIZ  120410150A001C33MWN32MWN12ST81A000002                                                  34MWN12ST81A37MWN12ST81A
602AZ008054 8140000393370084191BULLHEAD CITY           ARIZ  090326150A001A08FWN26MWN90AQ99 000000
602AZ008054 8140000393370084191BULLHEAD CITY           ARIZ  100227150A001A01MWH23MWH90AQ41 000000
602AZ010009A8140003662690109061PIMA                    ARIZ  030205151A001A55FWU56MWU12GF99 000000
602AZ010009A8140003662690109061PIMA                    ARIZ  030205151A002A26MWH52MWU14ST05 000000
602AZ010009A8140003662690109061PIMA                    ARIZ  051120140A001A38MWU37MWU20AQ44 000000
602AZ010009A8140003662690109061PIMA                    ARIZ  051120140A002A89MWU57MWU85FA45 000000
602AZ010009A8140003662690109061PIMA                    ARIZ  051120140A003A31MWH00MWH12ST70 000000
602AZ010009A8140003662690109061PIMA                    ARIZ  060114150A001A23FWU23MWU80GF43 000000
602AZ010009A8140003662690109061PIMA                    ARIZ  060114150A002B13FWH00UUU90UN99 000000
602AZ010009A8140003662690109061PIMA                    ARIZ  070121150A001A75MWU52MWU30FR44 000000
602AZ010009A8140003662690109061PIMA                    ARIZ  070121150A002A76FWU77MWU12WI26 000000
602AZ010009A8140003662690109061PIMA                    ARIZ  090326150A002B72MWU00UUU12UN99 000000
602AZ010009A8140003662690109061PIMA                    ARIZ  100227150A001B00MUU00UUU11UN99 000000
602AZ010016 8140000057070109061SOUTH TUCSON            ARIZ  021015140A001B32MIU00UUU12UN10 000000
602AZ010016 8140000057070109061SOUTH TUCSON            ARIZ  041113140A001A43MBU44MBU90UN99 000000
602AZ010016 8140000057070109061SOUTH TUCSON            ARIZ  100227150A001A22MWU36MWN20UN45 000000
602AZ010016 8140000057070109061SOUTH TUCSON            ARIZ  120410150A001A22FWH32MWH12UN80A000000
602AZ010031B8140005273280109060TUCSON                  ARIZ  011010140A001D46FUU28MBN90AQ45 00100032MWH
602AZ010031B8140005273280109060TUCSON                  ARIZ  011010140A002B35MWH00UUU12UN99 000000
602AZ010031B8140005273280109060TUCSON                  ARIZ  021211151A001B39MBN00UUU12UN99 000000
602AZ010031B8140005273280109060TUCSON                  ARIZ  021211151A002C44MWN28MWN12ST81A000002                                                  27MWH12ST81A35MWN12ST81A
602AZ010031B8140005273280109060TUCSON                  ARIZ  031023140A001C03MWN39FWH90SO99 000001                                                  45MWH90SO99
602AZ010031B8140005273280109060TUCSON                  ARIZ  031023140A002A34MBN32MBN90AQ46 000000
602AZ010031B8140005273280109060TUCSON                  ARIZ  031023140A003A43FWN26MBN90AQ99 000000
602AZ010031B8140005273280109060TUCSON                  ARIZ  041113140A001B48MWH00UUU90UN99 000000
602AZ010031B8140005273280109060TUCSON                  ARIZ  041113140A002B21MWH00UUU90UN99 000000
602AZ010031B8140005273280109060TUCSON                  ARIZ  041113140A003C35MWH29MWH13ST81E000004                                                  38MWH13ST81E38MWN12ST81E40MWH12ST81E48MWH12ST81E
602AZ010031B8140005273280109060TUCSON                  ARIZ  041113140A004B36MWH00UUU12UN99 000000
602AZ010031B8140005273280109060TUCSON                  ARIZ  051120140A001A28MWH29MBN12AQ45 000000
602AZ010031B8140005273280109060TUCSON                  ARIZ  051120140A002A31MWH38MWH12AQ44 000000
602AZ010031B8140005273280109060TUCSON                  ARIZ  051120140A003F23MWH00UUU90UN99 00100020FUU
602AZ010031B8140005273280109060TUCSON                  ARIZ  051120140A004C28MWN37MWN12ST81A000001                                                  41MWN12ST81A
602AZ010031B8140005273280109060TUCSON                  ARIZ  060114150A001B35MWH00UUU12UN99 000000
602AZ010031B8140005273280109060TUCSON                  ARIZ  060114150A002A32MWN40MWN20AQ99 000000
602AZ010031B8140005273280109060TUCSON                  ARIZ  060114150A003A41MWH51MWN12ST42 000000
602AZ010031B8140005273280109060TUCSON                  ARIZ  070121150A001A03FWH22MWH90AQ41 000000
602AZ010031B8140005273280109060TUCSON                  ARIZ  070121150A002A50FWH51MWH12WI45 000000
602AZ010031B8140005273280109060TUCSON                  ARIZ  070121150A003B32MBN00UUU12UN46 000000
602AZ010031B8140005273280109060TUCSON                  ARIZ  070121150A004A66MWH16MWH20AQ99 000000
602AZ010031B8140005273280109060TUCSON                  ARIZ  080205150A001B42MBN00UUU12UN46 000000
602AZ010031B8140005273280109060TUCSON                  ARIZ  080205150A002A30MWH18MWN14ST46 000000
602AZ010031B8140005273280109060TUCSON                  ARIZ  090326150A001D34FWN21MWN12GF99 001000NBMWN
602AZ010031B8140005273280109060TUCSON                  ARIZ  090326150A002C58MWN39MWN12ST81A000001                                                  50MWN12ST81A
602AZ010031B8140005273280109060TUCSON                  ARIZ  090326150B003A10FWH31FWH90AQ59 000000
602AZ010031B8140005273280109060TUCSON                  ARIZ  100227150A001B29MBN00UUU12UN99 000000
602AZ010031B8140005273280109060TUCSON                  ARIZ  100227150A002A41MWH46MWH12AQ45 000000
602AZ010031B8140005273280109060TUCSON                  ARIZ  100227150A003C40MWH19MWH13UN03 000002                                                  39MWH13UN03 41MWH13UN03
602AZ010031B8140005273280109060TUCSON                  ARIZ  100227150A004A29FWN26MWN90AQ99 000000
602AZ010031B8140005273280109060TUCSON                  ARIZ  100227150A005B20MUU00UUU90UN99 000000
602AZ010031B8140005273280109060TUCSON                  ARIZ  110313150A001C21MWH23MWH12ST80C000001                                                  25MWH12ST80C
602AZ010031B8140005273280109060TUCSON                  ARIZ  110313150A002B79MWN00UUU90UN99 000000
602AZ010031B8140005273280109060TUCSON                  ARIZ  110313150A003A62FWN36MWH90AQ99 000000
602AZ010031B8140005273280109060TUCSON                  ARIZ  120410150A001A56MWN21MWN30AQ99 000000
602AZ010031B8140005273280109060TUCSON                  ARIZ  120410150A002A36MWN28MWN12AQ45 000000
602AZ011009A8140001998680116621PINAL                   ARIZ  010227150A001A41MWH40MWN12ST81F000000
602AZ011009A8140001998680116621PINAL                   ARIZ  010227150B002A46FWH56FWU12FR59 000000
602AZ011009A8140001998680116621PINAL                   ARIZ  040227150B001A02FWU41FWH75MO59 000000
602AZ011009A8140001998680116621PINAL                   ARIZ  050313150A001A25MWH25MWH12ST81F000000
602AZ011009A8140001998680116621PINAL                   ARIZ  060313150A001A46MWU47MWH20ST99 000000
602AZ011009A8140001998680116621PINAL                   ARIZ  080313150B001A02MWN38FWN75MO59 000000
602AZ011013 8140000502070116620CASA GRANDE             ARIZ  051120140A001B60MWH00UUU20UN99 000000
602AZ011055 8140000170010116621ELOY                    ARIZ  021015140B001A69MWN63MWN90ST59 000000
602AZ011074 8140000250680116621FLORENCE                ARIZ  090326150A001A61FWN41MWN80MO45 000000
602AZ011097 8140000020380116621KEARNY                  ARIZ  021015140B001C44MWH24MWH40ST59 000001                                                  25MWH40ST59
602AZ011134 8140000372740116621APACHE JUNCTION         ARIZ  020106160A001A47FW 55MW 12XW99 000000
602AZ011134 8140000372740116621APACHE JUNCTION         ARIZ  090106160A001A44FW 44MU 40GF45 000000
602AZ013035 8140000114900136881COTTONWOOD              ARIZ  080326150A001A29MWN18MBN20ST45 000000
602AZ013114 8140000400350136881PRESCOTT VALLEY         ARIZ  041113140A001A17MWH23MWH14UN99 000000
602AZ014009B8140000616580149921YUMA                    ARIZ  100106160A001B29FW 00UU 90UN99 000000
602AZ014009B8140000616580149921YUMA                    ARIZ  110106160A001E01FW 24MW 90DA99 00200103MW 04MW                                         24FW 90DA99
602AZ014009B8140000616580149921YUMA                    ARIZ  120106160A001A04FW 28FW 90DA99 000000
602AZ014053 8140000920750149920YUMA                    ARIZ  040106160A001A43MW 44MW 11AQ45 000000
602AZ014053 8140000920750149920YUMA                    ARIZ  040106160A002A00UU 21MW 20UN99 000000
602AZ014053 8140000920750149920YUMA                    ARIZ  090106160A001C38MW 00MB 20UN18 000001                                                  55MB 20AQ18
602AZ015008C814000013728015   0LA PAZ                  ARIZ  020114150A001A69MWU45MWU12AQ45 000000
603AR001008D714000006014001   0ARKANSAS                ARK   060106160A001A38MW 32FW 11UN99 000000
603AR001016 714000003247001   0DE WITT                 ARK   090106160A001A32MB 24MB 12OK45 000000
603AR002008C714000012993002   0ASHLEY                  ARK   040106160A001A78MW 37MW 12OF45 000000
603AR004009B7140000494430042701BENTON                  ARK   120106160A001B54MW 00UU 12UN99 000000
603AR004014 7140000413280042700BENTONVILLE             ARK   070106160A001A76FW 26MW 20OF03 000000
603AR004035 7140000160470042701SILOAM SPRINGS          ARK   101210150A001A65MW 50MW 14FR42 000000
603AR005008C714000024190005   0BOONE                   ARK   070106160A001A75FW 61MW 85AQ26 000000
603AR005015 714000013296005   0HARRISON                ARK   100106160A001F26MW 00UU 14UN99 00100024FW
603AR005015 714000013296005   0HARRISON                ARK   120106160A001A46FW 42MW 11WI05 000000
603AR006016 714000005855006   0WARREN                  ARK   090106160A001F42FW 00UU 11UN26 00100037MW
603AR008016 714000005488008   0BERRYVILLE              ARK   060106160A001A54FW 37FW 65OK60 000000
603AR009027 714000002147009   0EUDORA                  ARK   070106160A001C32FB 45MB 90UN45 000001                                                  45MB 90UN45
603AR016013 7140000725690163960JONESBORO               ARK   050106160A001D57MW 40MW 12UN45 00900012FW 41MW 43MW 37FW 10MW 08MW 40MW 30MW 29MW
603AR016013 7140000725690163960JONESBORO               ARK   050106160A002D31MW 40MW 11FR60 00500000UU 29MW 30MW 36MW 29MW
603AR016013 7140000725690163960JONESBORO               ARK   050106160A003B47MW 00UU 12UN99 000000
603AR016013 7140000725690163960JONESBORO               ARK   090106160A001A17FB 26MB 11GF45 000000
603AR018009D7140000094050185191CRITTENDEN              ARK   030106160A001A41MB 28MB 11UN60 000000
603AR018009D7140000094050185191CRITTENDEN              ARK   050106160A001C30MB 29MB 11UN99 000001                                                  25MB 11UN99
603AR018014 7140000253700185191WEST MEMPHIS            ARK   070106160A001C20MB 30MB 12UN45 000001                                                  24FB 12UN45
603AR018014 7140000253700185191WEST MEMPHIS            ARK   070106160A002A20MB 22MB 12UN45 000000
603AR018014 7140000253700185191WEST MEMPHIS            ARK   100106160A001B68MB 00UU 90UN99 000000
603AR018014 7140000253700185191WEST MEMPHIS            ARK   110106160A001A32FB 54MB 20UN45 000000
603AR019016 714000008279019   0WYNNE                   ARK   050106160A001A26MB 32MB 12UN45 000000
603AR021016 714000004019021   0MCGEHEE                 ARK   110106160A001C33FW 26MW 85GF45 000001                                                  26MW 85UN45
603AR023009B7140000432240234691FAULKNER                ARK   060106160A001B50UU 00UU 11UN99 000000
603AR023009B7140000432240234691FAULKNER                ARK   090106160A001A29MW 29MW 90AQ99 000000
603AR023013 7140000648950234690CONWAY                  ARK   060106160A001B42MW 00UU 12UN99 000000
603AR024008C714000011054024   0FRANKLIN                ARK   020106160A001B71MW 00UU 11UN60 000000
603AR025008D714000008721025   0FULTON                  ARK   040106160A001B48MW 00UU 13UN45 000000
603AR025017 714000001652025   0SALEM                   ARK   120106160A001A52MW 52FW 65AQ26 000000
603AR028008C714000014808028   0GREENE                  ARK   010106160A001A03MW 23MW 12UN60 000000
603AR029015 714000010100029   0HOPE                    ARK   071210150A001B57MW 00UU 90UN99 000000
603AR031016 714000004562031   0NASHVILLE               ARK   060106160A001A44FB 49MB 11UN60 000000
603AR032008B714000036844032   0INDEPENDENCE            ARK   060106160A001B65FW 00UU 20UN06 000000
603AR032008B714000036844032   0INDEPENDENCE            ARK   090106160A001B55MW 00UU 90UN99 000000
603AR034008D714000005904034   0JACKSON                 ARK   080106160A001A78FW 78MW 14UN45 000000
603AR035009C7140000199740356641JEFFERSON               ARK   070106160A001E62MW 21MW 11UN26 00100158FW                                              21MW 11UN26
603AR035009C7140000199740356641JEFFERSON               ARK   080106160A001D26MB 30MB 12UN99 00100025MB
603AR035014 7140000454020356640PINE BLUFF              ARK   030106160A001A19MB 28MB 12FR99 000000
603AR035014 7140000454020356640PINE BLUFF              ARK   040106160A001F26MB 00UU 12UN18 00100018MB
603AR035014 7140000454020356640PINE BLUFF              ARK   050106160A001A56MB 00MB 12UN45 000000
603AR035014 7140000454020356640PINE BLUFF              ARK   060106160A001A41MB 57MB 20AQ45 000000
603AR035014 7140000454020356640PINE BLUFF              ARK   070106160A001C43MW 38MW 12AQ45 000001                                                  32MW 12AQ45
603AR035014 7140000454020356640PINE BLUFF              ARK   070106160A002C21MB 41MB 12UN45 000001                                                  00MB 12UN45
603AR035014 7140000454020356640PINE BLUFF              ARK   080106160A001B61MB 00UU 11UN99 000000
603AR035014 7140000454020356640PINE BLUFF              ARK   090106160A001B00UU 00UU 11UN99 000000
603AR035014 7140000454020356640PINE BLUFF              ARK   100106160A001A68MW 68MW 12OK99 000000
603AR035014 7140000454020356640PINE BLUFF              ARK   100106160A002A27MB 00MB 90UN60 000000
603AR035014 7140000454020356640PINE BLUFF              ARK   100106160A003C57MB 00UU 12UN60 000001                                                  21MB 12UN60
603AR035014 7140000454020356640PINE BLUFF              ARK   110106160A001B28MB 00UU 12UN60 000000
603AR036008C714000014874036   0JOHNSON                 ARK   110106160A001B00UU 00UU 65UN26 000000
603AR046014 7140000300270468871TEXARKANA               ARK   020106160A001C25MB 21MB 13AQ60 000002                                                  21MB 13AQ60 21MB 13AQ60
603AR046014 7140000300270468871TEXARKANA               ARK   050106160A001A23FB 30MB 12GF60 000000
603AR047015 714000015009047   0BLYTHEVILLE             ARK   030106160A001C51MW 50UU 11UN99 000001                                                  31MB 11AQ99
603AR047015 714000015009047   0BLYTHEVILLE             ARK   081210150A001A31MW 23MB 11UN99 000000
603AR048008D714000003066048   0MONROE                  ARK   080106160A001C00MW 29MW 14SO60 000001                                                  29MW 14UN60
603AR049008D714000009112049   0MONTGOMERY              ARK   100106160A001B70MW 00UU 90UN99 000000
603AR052015 714000011552052   0CAMDEN                  ARK   010106160A001A42MW 64MB 12UN45 000000
603AR052015 714000011552052   0CAMDEN                  ARK   060106160A001A42FB 20FB 20OK45 000000
603AR052015 714000011552052   0CAMDEN                  ARK   090106160A001A38FB 50UU 20UN99 000000
603AR052015 714000011552052   0CAMDEN                  ARK   090106160A002A21FB 27FB 20UN45 000000
603AR054015 714000011411054   0HELENA-WEST HELENA      ARK   010106160A001A38FB 30FB 12UN60 000000
603AR054015 714000011411054   0HELENA-WEST HELENA      ARK   020106160A001A24MB 22MB 11UN99 000000
603AR054015 714000011411054   0HELENA-WEST HELENA      ARK   060106160A001A21FB 24MB 65UN45 000000
603AR054015 714000011411054   0HELENA-WEST HELENA      ARK   091210150A001C17MB 18MB 11UN99 000002                                                  16MB 11UN99 20MB 11UN99
603AR054015 714000011411054   0HELENA-WEST HELENA      ARK   100106160A001B31MB 00UU 12UN99 000000
603AR054015 714000011411054   0HELENA-WEST HELENA      ARK   110106160A001E31MB 21MB 12AQ45 00200900UU 00UU                                         35FB 12UN45 22FB 12UN45 18FB 12UN45 22FB 12UN45 26FB 12UN45 20MB 12UN45 37MB 12UN45 34FB 12UN45 21MB 12UN45
603AR055008D714000007348055   0PIKE                    ARK   090106160A001A72FW 35MW 90OF99 000000
603AR058008B714000026466058   0POPE                    ARK   030106160A001A40MW 36FW 14BF45 000000
603AR058077 714000001389058   0DOVER                   ARK   030106160A001C40MW 36FW 14BF45 000001                                                  36FW 14UN45
603AR060009B7140000500170604691PULASKI                 ARK   010106160A001A58MW 55FW 12UN99 000000
603AR060009B7140000500170604691PULASKI                 ARK   010106160A002A63MW 35FW 20UN99 000000
603AR060009B7140000500170604691PULASKI                 ARK   060106160A001C36FW 24MW 90ST26 000001                                                  30MW 90AQ26
603AR060009B7140000500170604691PULASKI                 ARK   090106160A001C22FW 38MB 90OK60 000001                                                  18MB 90OK60
603AR060014 7140000288360604691JACKSONVILLE            ARK   030106160A001C28MW 35MB 20ST45 000001                                                  35FB 20ST45
603AR060014 7140000288360604691JACKSONVILLE            ARK   071210150A001C02MB 20MB 70SO60 000002                                                  23FB 70SO60 23FB 70SO60
603AR060014 7140000288360604691JACKSONVILLE            ARK   121210150A001A26MW 27MW 12FR80C000000
603AR060022 7140001982170604690LITTLE ROCK             ARK   010106160A001A48FB 21MB 12UN99 000000
603AR060022 7140001982170604690LITTLE ROCK             ARK   010106160A002B44MB 00UU 11UN99 000000
603AR060022 7140001982170604690LITTLE ROCK             ARK   010106160A003C24MB 20MB 11OK45 000001                                                  28MB 11UN45
603AR060022 7140001982170604690LITTLE ROCK             ARK   010106160A004C31MB 17MB 11UN26 000002                                                  18MB 11UN26 00UU 11UN26
603AR060022 7140001982170604690LITTLE ROCK             ARK   010106160A005A22MB 27MB 12UN99 000000
603AR060022 7140001982170604690LITTLE ROCK             ARK   020106160A001A29MB 20MB 11UN99 000000
603AR060022 7140001982170604690LITTLE ROCK             ARK   020106160A002C21MB 28MB 11UN99 000002                                                  00UU 11UN99 23MB 11UN99
603AR060022 7140001982170604690LITTLE ROCK             ARK   020106160A003A15FB 48MB 11UN99 000000
603AR060022 7140001982170604690LITTLE ROCK             ARK   020106160A004C44MB 29MB 12UN99 000001                                                  26MB 12UN99
603AR060022 7140001982170604690LITTLE ROCK             ARK   030106160A001A26MB 21MB 11BR99 000000
603AR060022 7140001982170604690LITTLE ROCK             ARK   040106160A001A60MB 30MB 40FA45 000000
603AR060022 7140001982170604690LITTLE ROCK             ARK   040106160A002A32FU 32MU 11GF99 000000
603AR060022 7140001982170604690LITTLE ROCK             ARK   040106160A003A56FB 40MB 20UN07 000000
603AR060022 7140001982170604690LITTLE ROCK             ARK   040106160A004C50MW 50MW 90OK99 000001                                                  45MB 90UN99
603AR060022 7140001982170604690LITTLE ROCK             ARK   040106160A005A61MW 61FB 20HU99 000000
603AR060022 7140001982170604690LITTLE ROCK             ARK   040106160A006C25MB 23MB 12UN99 000001                                                  19MB 12UN99
603AR060022 7140001982170604690LITTLE ROCK             ARK   040106160A007A20MB 21MB 11UN99 000000
603AR060022 7140001982170604690LITTLE ROCK             ARK   040106160A008A45MB 30MW 11UN60 000000
603AR060022 7140001982170604690LITTLE ROCK             ARK   040106160A009A38MB 35MB 11UN99 000000
603AR060022 7140001982170604690LITTLE ROCK             ARK   040106160A010C29MB 29MB 40OK99 000001                                                  25MB 40UN99
603AR060022 7140001982170604690LITTLE ROCK             ARK   040106160A011A19MB 22MB 11UN99 000000
603AR060022 7140001982170604690LITTLE ROCK             ARK   040106160A012A41MB 25MB 11UN99 000000
603AR060022 7140001982170604690LITTLE ROCK             ARK   050106160A001A33MB 35MB 11OF99 000000
603AR060022 7140001982170604690LITTLE ROCK             ARK   050106160A002C21MB 21MB 12UN26 000003                                                  24MB 12UN26 50MW 12ST26 32MB 12UN26
603AR060022 7140001982170604690LITTLE ROCK             ARK   060106160A001A21MB 29MB 12UN45 000000
603AR060022 7140001982170604690LITTLE ROCK             ARK   060106160A002C26MB 00MB 11UN60 000002                                                  00MB 11UN60 00MB 11UN60
603AR060022 7140001982170604690LITTLE ROCK             ARK   060106160A003A21MB 20MB 11AQ45 000000
603AR060022 7140001982170604690LITTLE ROCK             ARK   070106160A001B20MW 00UU 11UN99 000001                                                  00UU 11UN99
603AR060022 7140001982170604690LITTLE ROCK             ARK   070106160A002A44FB 63MB 12UN60 000000
603AR060022 7140001982170604690LITTLE ROCK             ARK   080106160A001A53MW 23FW 20FA99 000000
603AR060022 7140001982170604690LITTLE ROCK             ARK   080106160A002D41MB 31MB 90UN26 00100029FB
603AR060022 7140001982170604690LITTLE ROCK             ARK   100106160A001A27MB 27MB 90UN45 000000
603AR060022 7140001982170604690LITTLE ROCK             ARK   100106160A002A39MB 45MB 40UN45 000000
603AR060022 7140001982170604690LITTLE ROCK             ARK   100106160A003C52MW 23MW 11UN45 000002                                                  26MW 11UN45 26MW 11UN45
603AR060022 7140001982170604690LITTLE ROCK             ARK   100106160A004B16MB 00UU 11UN60 000000
603AR060022 7140001982170604690LITTLE ROCK             ARK   100106160A005B21MB 00UU 11UN99 000000
603AR060022 7140001982170604690LITTLE ROCK             ARK   110106160A001B25MB 00UU 11UN99 000000
603AR060022 7140001982170604690LITTLE ROCK             ARK   110106160A002A48FW 50MW 12ST60 000000
603AR060022 7140001982170604690LITTLE ROCK             ARK   120106160A001B43MB 00UU 11UN99 000000
603AR060022 7140001982170604690LITTLE ROCK             ARK   120106160A002D60FW 38MW 14MO99 00100086FW
603AR060022 7140001982170604690LITTLE ROCK             ARK   120106160A003C37MB 00MB 12UN45 000003                                                  20FB 12UN45 00FB 12UN45 18MB 12UN45
603AR060033 7140000670310604690NORTH LITTLE ROCK       ARK   020106160A001A33MW 32MB 12UN45 000000
603AR060033 7140000670310604690NORTH LITTLE ROCK       ARK   050106160A001A42MB 21MB 20AQ99 000000
603AR060033 7140000670310604690NORTH LITTLE ROCK       ARK   050106160A002B64MW 00UU 12UN60 000000
603AR060033 7140000670310604690NORTH LITTLE ROCK       ARK   060106160A001A19MB 21MB 12ST99 000000
603AR060033 7140000670310604690NORTH LITTLE ROCK       ARK   070106160A001C18MB 51MB 90UN99 000002                                                  35MB 90UN99 54FB 90UN99
603AR060033 7140000670310604690NORTH LITTLE ROCK       ARK   070106160A002A28MW 17MB 12AQ99 000000
603AR060033 7140000670310604690NORTH LITTLE ROCK       ARK   090106160A001A38MB 24FW 20BF80C000000
603AR060033 7140000670310604690NORTH LITTLE ROCK       ARK   121210150A001A33MB 26MB 90UN60 000000
603AR060033 7140000670310604690NORTH LITTLE ROCK       ARK   120106160A002A39MW 28MB 12AQ18 000000
603AR061008C714000011097061   0RANDOLPH                ARK   010106160A001C47MW 00MW 20UN05 000002                                                  19MW 20UN05 19MW 20UN05
603AR061008C714000011097061   0RANDOLPH                ARK   050106160A001E45FW 49MW 12WI45 00100118FW                                              49MW 12UN45
603AR061008C714000011097061   0RANDOLPH                ARK   050106160A002A00UU 63MW 12UN18 000000
603AR064008D714000006946064   0SCOTT                   ARK   020106160A001C60MA 23MW 20UN60 000001                                                  23MW 20UN60
603AR066013 7140000879890662850FORT SMITH              ARK   010106160A001A28MW 32MW 12OK60 000000
603AR066013 7140000879890662850FORT SMITH              ARK   050106160A001A34MU 23MW 11OK45 000000
603AR066013 7140000879890662850FORT SMITH              ARK   070106160A001A22FW 21MW 20GF99 000000
603AR066013 7140000879890662850FORT SMITH              ARK   090106160A001C35MW 22MW 11OK60 000005                                                  22MW 11OK60 15MW 11OK60 16MW 11OK60 15MW 11OK60 22MW 11OK60
603AR072009B7140000458000722701WASHINGTON              ARK   050106160A001A32FW 19MW 20FR45 000000
603AR072009B7140000458000722701WASHINGTON              ARK   080106160A001A61MW 26MW 12FA45 000000
603AR072013 7140000802630722700FAYETTEVILLE            ARK   090106160A001C32MW 24MW 20AQ07 000003                                                  34MW 20AQ07 23MW 20AQ07 22MW 20UN07
603AR073008B714000036895073   0WHITE                   ARK   050106160A001A45FW 39MW 12UN60 000000
603AR073008B714000036895073   0WHITE                   ARK   050106160A002A71MW 50MW 11IL45 000000
603AR073008B714000036895073   0WHITE                   ARK   050106160A003A48MW 41MW 13AQ45 000000
603AR073008B714000036895073   0WHITE                   ARK   060106160A001A52MW 18MW 12SS80C000000
603AR073008B714000036895073   0WHITE                   ARK   120106160A001A65MW 54MW 90AQ45 000000
603AR073026 714000002906073   0BALD KNOB               ARK   090106160A001A28FW 35MW 20GF45 000000
603AR075008C714000012895075   0YELL                    ARK   070106160A001A00FW 26MW 14DA45 000000
604CA001009A9140001559790017831ALAMEDA                 CALIF 030801141A001A44FAN44MAN11WI26 000000
604CA001009A9140001559790017831ALAMEDA                 CALIF 110122151A001A14MWH32MWN90ST26 000000
604CA001013 9140000770480017830ALAMEDA                 CALIF 101230141A001A72FWN72MWN12WI26 000000
604CA001032 9140001177530017830BERKELEY                CALIF 020801141A001C54MBN40FBN20AQ99 000001                                                  28MBN20AQ99
604CA001032 9140001177530017830BERKELEY                CALIF 091230141A001A72FWN18MBN20ST99 000000
604CA001032 9140001177530017830BERKELEY                CALIF 120309151A001B36MBN00UUU11UN03 000000
604CA001052 9140002275750017830FREMONT                 CALIF 050723141A001A39FAN42MAN80WI45 000000
604CA001062 9140001533190017830HAYWARD                 CALIF 020801141A001A51MWH26FWH12OF03 000000
604CA001062 9140001533190017830HAYWARD                 CALIF 020801141A002C24MWN29MWH20OK47 000002                                                  27MWH20OK47 19MWH20OK47
604CA001062 9140001533190017830HAYWARD                 CALIF 051204141A001C31MWN25MWN70NE99 000001                                                  24FWN70NE99
604CA001062 9140001533190017830HAYWARD                 CALIF 051204141A002B22MWH00UUU11UN99 000000
604CA001062 9140001533190017830HAYWARD                 CALIF 060819141A001A24MWH34MWH12AQ47 000000
604CA001062 9140001533190017830HAYWARD                 CALIF 081022141A001B24MWN00UUU20UN99 000000
604CA001062 9140001533190017830HAYWARD                 CALIF 101230141A001A57FWN20MWN20MO45 000000
604CA001062 9140001533190017830HAYWARD                 CALIF 110122151A001B20MWH00UUU11UN47 000000
604CA001062 9140001533190017830HAYWARD                 CALIF 120122151A001B68MWN00UUU20UN45 000000
604CA001084 9140000444670017831NEWARK                  CALIF 030801141A001A75FWN57FWN30MO26 000000
604CA001084 9140000444670017831NEWARK                  CALIF 101230141A001B24MWH00UUU11UN99 000000
604CA001091C9140004099940017830OAKLAND                 CALIF 010801141A001A13MBN18MBN12ST99 000000
604CA001091C9140004099940017830OAKLAND                 CALIF 010801141A002C36MWH18MWH12ST99 000001                                                  25MBN12ST99
604CA001091C9140004099940017830OAKLAND                 CALIF 010801141A003B24MBN00UUU12UN03 000000
604CA001091C9140004099940017830OAKLAND                 CALIF 010801141A004F19MBN00UUU12UN99 00100019MBN
604CA001091C9140004099940017830OAKLAND                 CALIF 010801141A005A19MWH22MAN12ST81D000000
604CA001091C9140004099940017830OAKLAND                 CALIF 010801141A006C21MWH29MWN12ST81D000001                                                  37MWN12ST81D
604CA001091C9140004099940017830OAKLAND                 CALIF 010801141A007A17FBN14MBN12SI45 000000
604CA001091C9140004099940017830OAKLAND                 CALIF 010801141A008B25MBN00UUU12UN03 000000
604CA001091C9140004099940017830OAKLAND                 CALIF 020801141A001D15MBN18MBN12ST99 00100035MBN
604CA001091C9140004099940017830OAKLAND                 CALIF 020801141A002A35MBN55MBN20OK45 000000
604CA001091C9140004099940017830OAKLAND                 CALIF 020801141A003B77FAN00UUU90UN03 000000
604CA001091C9140004099940017830OAKLAND                 CALIF 020801141A004A69FWN43MWN30OK99 000000
604CA001091C9140004099940017830OAKLAND                 CALIF 020801141A005B44FBN00UUU12UN99 000000
604CA001091C9140004099940017830OAKLAND                 CALIF 020801141A006C18MBN17MBN12OK47 000001                                                  15MBN12OK47
604CA001091C9140004099940017830OAKLAND                 CALIF 020801141A007A24MBN22MBN12AQ45 000000
604CA001091C9140004099940017830OAKLAND                 CALIF 020801141A008A43MBN45MBN12ST99 000000
604CA001091C9140004099940017830OAKLAND                 CALIF 020801141A009A36MBN25MBN12ST99 000000
604CA001091C9140004099940017830OAKLAND                 CALIF 030801141A001B25FBN00UUU12UN99 000000
604CA001091C9140004099940017830OAKLAND                 CALIF 030801141A002A24MWH30MBN12AQ26 000000
604CA001091C9140004099940017830OAKLAND                 CALIF 030801141A003B32MBN00UUU12UN99 000000
604CA001091C9140004099940017830OAKLAND                 CALIF 030801141A004B27MBN00UUU12UN26 000000
604CA001091C9140004099940017830OAKLAND                 CALIF 030801141A005A17MBN22MBN12OK99 000000
604CA001091C9140004099940017830OAKLAND                 CALIF 030309151A006A74FBN51MBN90MO26 000000
604CA001091C9140004099940017830OAKLAND                 CALIF 040801141A001B21MBN00UUU12UN99 000000
604CA001091C9140004099940017830OAKLAND                 CALIF 040801141A002A23FBN40MBN40ST02 000000
604CA001091C9140004099940017830OAKLAND                 CALIF 040801141A003B20MBN00UUU12UN99 000000
604CA001091C9140004099940017830OAKLAND                 CALIF 040801141A004B35MBN00UUU12UN99 000000
604CA001091C9140004099940017830OAKLAND                 CALIF 040801141A005A21FWH38MBN12NE45 000000
604CA001091C9140004099940017830OAKLAND                 CALIF 050819141A001A25MBN29MBN40ST45 000000
604CA001091C9140004099940017830OAKLAND                 CALIF 050819141A002A29MBN20MBN12ST99 000000
604CA001091C9140004099940017830OAKLAND                 CALIF 050819141A003B50MBN00UUU90UN99 000000
604CA001091C9140004099940017830OAKLAND                 CALIF 050819141A004C30MBN35MBN12ST99 000002                                                  25FBN12ST99 20FBN12ST99
604CA001091C9140004099940017830OAKLAND                 CALIF 050819141A005B38MBN00UUU12UN45 000000
604CA001091C9140004099940017830OAKLAND                 CALIF 050918141A006A37MBN38MBN14BR80C000000
604CA001091C9140004099940017830OAKLAND                 CALIF 050309151A007A02MBN39FBN70SO60 000000
604CA001091C9140004099940017830OAKLAND                 CALIF 060918141A001C34MBN20MBN12ST99 000001                                                  20MBN12ST99
604CA001091C9140004099940017830OAKLAND                 CALIF 060918141A002B22MWN00UUU12UN99 000000
604CA001091C9140004099940017830OAKLAND                 CALIF 060918141A003B15FWH00UUU13UN99 000000
604CA001091C9140004099940017830OAKLAND                 CALIF 060918141A004B20MBN00UUU12UN99 000000
604CA001091C9140004099940017830OAKLAND                 CALIF 061120141A005C22MBN15MBN12ST99 000002                                                  15MBN12ST99 18MBN12ST99
604CA001091C9140004099940017830OAKLAND                 CALIF 060918141A006B27FWN00UUU12UN99 000000
604CA001091C9140004099940017830OAKLAND                 CALIF 060918141A007B49FBN00UUU12UN99 000000
604CA001091C9140004099940017830OAKLAND                 CALIF 070122151A001B23FBN00UUU20UN99 000000
604CA001091C9140004099940017830OAKLAND                 CALIF 070122151A002A26MBN20MBN12OK45 000000
604CA001091C9140004099940017830OAKLAND                 CALIF 070122151A003A57FWN53MWN40WI99 000000
604CA001091C9140004099940017830OAKLAND                 CALIF 070122151A004A18FWH25MBN12ST99 000000
604CA001091C9140004099940017830OAKLAND                 CALIF 070122151A005B49MBN00UUU12UN99 000000
604CA001091C9140004099940017830OAKLAND                 CALIF 070122151A006A21MBN19MWH12OK99 000000
604CA001091C9140004099940017830OAKLAND                 CALIF 081230141A001B22MBN00UUU12UN99 000000
604CA001091C9140004099940017830OAKLAND                 CALIF 081230141A002A23MBN32MWN12ST81E000000
604CA001091C9140004099940017830OAKLAND                 CALIF 081230141A003A22MWH34MWH12ST80C000000
604CA001091C9140004099940017830OAKLAND                 CALIF 090122151A001A28MBN21MWH12ST03 000000
604CA001091C9140004099940017830OAKLAND                 CALIF 090122151A002B21MBN00UUU12UN99 000000
604CA001091C9140004099940017830OAKLAND                 CALIF 090122151A003A18MBN43MBN12ST99 000000
604CA001091C9140004099940017830OAKLAND                 CALIF 100122151A001A27MBN30MBN12ST03 000000
604CA001091C9140004099940017830OAKLAND                 CALIF 100122151A002B44MBN00UUU12UN99 000000
604CA001091C9140004099940017830OAKLAND                 CALIF 100122151A003A27MBN28FBN12OK45 000000
604CA001091C9140004099940017830OAKLAND                 CALIF 100122151A004B34MBN00UUU12UN99 000000
604CA001091C9140004099940017830OAKLAND                 CALIF 100122151A005B36MWH00UUU12UN99 000000
604CA001091C9140004099940017830OAKLAND                 CALIF 100122151A006A29MBN34MBN12AQ45 000000
604CA001091C9140004099940017830OAKLAND                 CALIF 100122151A007B22FBN00UUU12UN99 000000
604CA001091C9140004099940017830OAKLAND                 CALIF 100122151A008B17MBN00UUU12UN99 000000
604CA001091C9140004099940017830OAKLAND                 CALIF 100122151A009A41MBN20MBN12ST99 000000
604CA001091C9140004099940017830OAKLAND                 CALIF 100122151A010A78MBN26MBN20ST99 000000
604CA001091C9140004099940017830OAKLAND                 CALIF 100122151A011B28FBN00UUU12UN99 000000
604CA001091C9140004099940017830OAKLAND                 CALIF 100122151A012A30FWH20MBN12ST45 000000
604CA001091C9140004099940017830OAKLAND                 CALIF 100122151A013B55MBN00UUU12UN99 000000
604CA001091C9140004099940017830OAKLAND                 CALIF 100122151A014A21MBN20MBN12AQ26 000000
604CA001091C9140004099940017830OAKLAND                 CALIF 110309151A001B26MBN00UUU12UN99 000000
604CA001091C9140004099940017830OAKLAND                 CALIF 110309151A002A54MBN40MBN12AQ45 000000
604CA001091C9140004099940017830OAKLAND                 CALIF 110309151A003B43MBN00UUU12UN99 000000
604CA001091C9140004099940017830OAKLAND                 CALIF 110309151A004A51FBN24FBN20OK99 000000
604CA001091C9140004099940017830OAKLAND                 CALIF 110309151A005A23MBN30MWH12ST99 000000
604CA001091C9140004099940017830OAKLAND                 CALIF 110309151A006A72FAN86MWN12WI45 000000
604CA001091C9140004099940017830OAKLAND                 CALIF 110309151A007B15MBN00UUU12UN99 000000
604CA001091C9140004099940017830OAKLAND                 CALIF 110309151A008A19FAN35MAN20GF45 000000
604CA001091C9140004099940017830OAKLAND                 CALIF 120309151A001A27MWH25MBN12ST99 000000
604CA001091C9140004099940017830OAKLAND                 CALIF 120309151A002C27FWH27MWN12ST81A000002                                                  25MWH12ST81A37MWN12ST81A
604CA001091C9140004099940017830OAKLAND                 CALIF 120309151A003B69MBN00UUU12UN99 000000
604CA001091C9140004099940017830OAKLAND                 CALIF 120309151A004B34MBN00UUU12UN99 000000
604CA001091C9140004099940017830OAKLAND                 CALIF 120309151A005B50MIN00UUU30UN99 000000
604CA001091C9140004099940017830OAKLAND                 CALIF 120309151A006C39MBN25MWH12ST99 000001                                                  25MWH12ST99
604CA001091C9140004099940017830OAKLAND                 CALIF 120309151A007B23MBN00UUU12UN99 000000
604CA001091C9140004099940017830OAKLAND                 CALIF 120309151A008B20MWH00UUU12UN99 000000
604CA001123 9140000886900017830SAN LEANDRO             CALIF 120309151A001B21MWH00UUU12UN99 000000
604CA001147 9140000000000017831E BAY REG PKS:ALAMEDA COCALIF 040801141A001ABBMWN23FWN20SO99 000000
604CA001147 9140000000000017831E BAY REG PKS:ALAMEDA COCALIF 101230141A001B21MBN00UUU12UN99 000000
604CA001147 9140000000000017831E BAY REG PKS:ALAMEDA COCALIF 110122151A001B60MWN00UUU12UN99 000000
604CA003008C914000022650003   0AMADOR                  CALIF 070918141A001A27MWN40MWN20FR45 000000
604CA004009B9140000846610041641BUTTE                   CALIF 010801141A001A71FWN33MWN40MO44 000000
604CA004009B9140000846610041641BUTTE                   CALIF 090309151A001C68FWN43FWN90OF26 000001                                                  40MWN90OF26
604CA004009B9140000846610041641BUTTE                   CALIF 090309151A002B25MBN00UUU11UN99 000000
604CA004009B9140000846610041641BUTTE                   CALIF 100122151A001A24FWH29MWN40WI45 000000
604CA004009B9140000846610041641BUTTE                   CALIF 100122151A002A19MAN23MAN12ST99 000000
604CA004009B9140000846610041641BUTTE                   CALIF 110122151A001A21MWH31MUU12ST18 000000
604CA004009B9140000846610041641BUTTE                   CALIF 120309151A001D56FWN44MWN12AQ99 00100059MWN
604CA004009B9140000846610041641BUTTE                   CALIF 120309151A002B68MWN00UUU12UN99 000000
604CA004009B9140000846610041641BUTTE                   CALIF 120309151A003A28MWN36MWN12ST81A000000
604CA004023 9140000885620041640CHICO                   CALIF 081022141A001C44MWN29MWN20ST45 000001                                                  23FWN20ST45
604CA004054 9140000263060041641PARADISE                CALIF 071022141A001A54MWN40MWN20AQ45 000000
604CA007009A9140001708060077831CONTRA COSTA            CALIF 020801141A001A28MBN28MBN11ST99 000000
604CA007009A9140001708060077831CONTRA COSTA            CALIF 020801141A002B38MBN00UUU11UN26 000000
604CA007009A9140001708060077831CONTRA COSTA            CALIF 030723141A001B34MWH00UUU11UN44 000000
604CA007009A9140001708060077831CONTRA COSTA            CALIF 030723141A002B24MWN00UUU11UN99 000000
604CA007009A9140001708060077831CONTRA COSTA            CALIF 030723141A003B23MBN00UUU11UN26 000000
604CA007009A9140001708060077831CONTRA COSTA            CALIF 040801141A001B32MWH00UUU11UN99 000000
604CA007009A9140001708060077831CONTRA COSTA            CALIF 080918141A001B25MBN00UUU11UN26 000000
604CA007009A9140001708060077831CONTRA COSTA            CALIF 080918141A002A73MWN25MWN20NE44 000000
604CA007009A9140001708060077831CONTRA COSTA            CALIF 111230141A001B16MBN00UUU11UN99 000000
604CA007009A9140001708060077831CONTRA COSTA            CALIF 111230141A002A53MWN41MWN11AQ45 000000
604CA007012 9140001082230077830ANTIOCH                 CALIF 040801141A001A36MBN18MWH12AQ47 000000
604CA007012 9140001082230077830ANTIOCH                 CALIF 040801141A002A20MBN59MWN12ST80E000000
604CA007012 9140001082230077830ANTIOCH                 CALIF 040801141A003B16MWH00UUU12UN99 000000
604CA007012 9140001082230077830ANTIOCH                 CALIF 060819141A001B23MWH00UUU12UN47 000000
604CA007012 9140001082230077830ANTIOCH                 CALIF 070918141A001A23MBN28MBN12OK03 000000
604CA007012 9140001082230077830ANTIOCH                 CALIF 081022141A001C27MWN19MWH12OK47 000001                                                  23MWH12OK47
604CA007012 9140001082230077830ANTIOCH                 CALIF 081022141A002A30MBN22MWH12OK40 000000
604CA007012 9140001082230077830ANTIOCH                 CALIF 110122151A001B32MBN00UUU12UN26 000000
604CA007012 9140001082230077830ANTIOCH                 CALIF 110122151A002B36MUU00UUU11UN99 000000
604CA007012 9140001082230077830ANTIOCH                 CALIF 120309151A001A23MBN27MBN12ST03 000000
604CA007042 9140001267440077830CONCORD                 CALIF 040801141A001B18MWH00UUU12UN99 000000
604CA007042 9140001267440077830CONCORD                 CALIF 091120141A001C23MWH25MWN20ST45 000001                                                  18MWN20ST45
604CA007042 9140001267440077830CONCORD                 CALIF 101230141A001C68MWN49MWN30AQ99 000001                                                  24MWN30AQ99
604CA007042 9140001267440077830CONCORD                 CALIF 110122151A001A26MWH34MWN11ST81E000000
604CA007075 9140000190340077831PINOLE                  CALIF 020801141A001B33MBN00UUU12UN99 000000
604CA007083 9140000675090077830PITTSBURG               CALIF 040801141A001B36MWH00UUU12UN26 000000
604CA007083 9140000675090077830PITTSBURG               CALIF 101230141A001B22MBN00UUU12UN99 000000
604CA007083 9140000675090077830PITTSBURG               CALIF 110122151A001A18MWH22MWN12OK99 000000
604CA007083 9140000675090077830PITTSBURG               CALIF 120309151A001A19MWH17MUU12OK47 000000
604CA007102 9140001084640077830RICHMOND                CALIF 030801141A001B43FWN00UUU12UN99 000000
604CA007102 9140001084640077830RICHMOND                CALIF 030801141A002B24MBN00UUU12UN99 000000
604CA007102 9140001084640077830RICHMOND                CALIF 040801141A001A16MBN30FBN12AQ99 000000
604CA007102 9140001084640077830RICHMOND                CALIF 040918141A002A68MWN68MWN12ST80C000000
604CA007102 9140001084640077830RICHMOND                CALIF 050918141A001B31MBN00UUU12UN99 000000
604CA007102 9140001084640077830RICHMOND                CALIF 050918141A002A25MBN40MWH12ST80C000000
604CA007102 9140001084640077830RICHMOND                CALIF 060819141A001B19MWH00UUU12UN99 000000
604CA007102 9140001084640077830RICHMOND                CALIF 071022141A001A36MWN37FUU20BF45 000000
604CA007102 9140001084640077830RICHMOND                CALIF 090309151A001A45MWH34MWH12OF99 000000
604CA007102 9140001084640077830RICHMOND                CALIF 090309151A002B52MBN00UUU12UN99 000000
604CA007102 9140001084640077830RICHMOND                CALIF 090309151A003A25MWH31MWH12ST81A000000
604CA007102 9140001084640077830RICHMOND                CALIF 090309151A004F23MBN00UUU12UN99 00100020MBN
604CA007102 9140001084640077830RICHMOND                CALIF 110309151A001B29MBN00UUU11UN99 000000
604CA007102 9140001084640077830RICHMOND                CALIF 120309151A001A42MBN54MBN12ST80E000000
604CA007114 9140000298310077831SAN PABLO               CALIF 020801141A001C19MWN20MWN12ST99 000001                                                  18MWN12ST99
604CA007114 9140000298310077831SAN PABLO               CALIF 020801141A002B54MWH00UUU12UN99 000000
604CA007114 9140000298310077831SAN PABLO               CALIF 030801141A001B25MWN00UUU12UN99 000000
604CA007114 9140000298310077831SAN PABLO               CALIF 050801141A001B20MWN00UUU11UN99 000000
604CA007114 9140000298310077831SAN PABLO               CALIF 060819141A001C43MWN30MWN14OK26 000001                                                  35FWN14OK26
604CA007144 9140000374160077831MARTINEZ                CALIF 020801141A001A74FWN53FWN30MO44 000000
604CA007144 9140000374160077831MARTINEZ                CALIF 120309151A001A18FWN25MWN12ST26 000000
604CA007344 9140000388510077831OAKLEY                  CALIF 010801141A001A23MWH19MWH11ST26 000000
604CA007344 9140000388510077831OAKLEY                  CALIF 050801141A001A62MWH39MWH20OK45 000000
604CA008008C914000020764008   0DEL NORTE               CALIF 060918141A001B26MUU00UUU11UN99 000000
604CA009009A9140001510280097401EL DORADO               CALIF 030819141A001A62FWN58FWN12HO45 000000
604CA009009A9140001510280097401EL DORADO               CALIF 081022141A001A85FWN83MWN12OK99 000000
604CA009009A9140001510280097401EL DORADO               CALIF 091120141A001A45MWN39MWN12NE45 000000
604CA010009A9140001781610102991FRESNO                  CALIF 040801141A001A62MWN63MWN80OK48 000000
604CA010009A9140001781610102991FRESNO                  CALIF 040801141A002C22MWN37MWH13ST81A000001                                                  46MWN13ST81A
604CA010009A9140001781610102991FRESNO                  CALIF 040813141A003C50MW 45MW 13ST81A000003                                                  37FW 13ST81A31FW 13ST81A46FW 13ST81A
604CA010009A9140001781610102991FRESNO                  CALIF 050112151A001C38MW 23MW 15ST03 000001                                                  22FW 15ST03
604CA010009A9140001781610102991FRESNO                  CALIF 050801141A002F38MWH00UUU12UN47 00100039MWH
604CA010009A9140001781610102991FRESNO                  CALIF 081022141A001B33MWH00UUU12UN99 000000
604CA010009A9140001781610102991FRESNO                  CALIF 091120141A001A19MWH21MWH20ST99 000000
604CA010009A9140001781610102991FRESNO                  CALIF 091120141A002E25MWH23MWH12ST03 00100125MWH                                             31MAN12ST03
604CA010009A9140001781610102991FRESNO                  CALIF 101230141A001B30MAN00UUU12UN99 000000
604CA010009A9140001781610102991FRESNO                  CALIF 110122151A001B41MWH00UUU12UN47 000000
604CA010012 9140001007050102990CLOVIS                  CALIF 081120141A001A80FWN84MWN11XW45 000000
604CA010051B9140005131870102990FRESNO                  CALIF 010801141A001A33MWH23FWN20FR45 000000
604CA010051B9140005131870102990FRESNO                  CALIF 010801141A002A03MBN27MBN40SO60 000000
604CA010051B9140005131870102990FRESNO                  CALIF 010801141A003A54MWH39MWH11OK47 000000
604CA010051B9140005131870102990FRESNO                  CALIF 010801141A004A65MAN21MWH12OK03 000000
604CA010051B9140005131870102990FRESNO                  CALIF 010801141A005A33MBN20MBN12OK03 000000
604CA010051B9140005131870102990FRESNO                  CALIF 010801141A006A21MWH19MBN12ST47 000000
604CA010051B9140005131870102990FRESNO                  CALIF 020801141A001A43MBN32MBN12ST44 000000
604CA010051B9140005131870102990FRESNO                  CALIF 020801141A002A18MAN30MWN11ST81D000000
604CA010051B9140005131870102990FRESNO                  CALIF 020801141A003B16MBN00UUU11UN47 000000
604CA010051B9140005131870102990FRESNO                  CALIF 020801141A004A23MBN33MBN12OK47 000000
604CA010051B9140005131870102990FRESNO                  CALIF 030801141A001A18MWH20MWH11ST47 000000
604CA010051B9140005131870102990FRESNO                  CALIF 030801141A002A21MWH31MWH12OK40 000000
604CA010051B9140005131870102990FRESNO                  CALIF 030801141A003B43MWH00UUU14UN99 000000
604CA010051B9140005131870102990FRESNO                  CALIF 030801141A004B22MWH00UUU11UN26 000000
604CA010051B9140005131870102990FRESNO                  CALIF 030918141A005A40MWH43MAN11ST99 000000
604CA010051B9140005131870102990FRESNO                  CALIF 030801141A006B28FBN00UUU12UN45 000000
604CA010051B9140005131870102990FRESNO                  CALIF 030801141A007B23MWH00UUU11UN47 000000
604CA010051B9140005131870102990FRESNO                  CALIF 030819141A008A28MBN29MBN12ST47 000000
604CA010051B9140005131870102990FRESNO                  CALIF 040801141A001B29MBN00UUU14UN99 000000
604CA010051B9140005131870102990FRESNO                  CALIF 040801141A002A65MWN31MBN11ST26 000000
604CA010051B9140005131870102990FRESNO                  CALIF 040819141A003A29MBN28MBN11AQ44 000000
604CA010051B9140005131870102990FRESNO                  CALIF 050819141A001A42MBN21MWH11AQ47 000000
604CA010051B9140005131870102990FRESNO                  CALIF 050819141A002A16MWH23MWH11ST47 000000
604CA010051B9140005131870102990FRESNO                  CALIF 050819141A003A27MWH46MWH12ST81A000000
604CA010051B9140005131870102990FRESNO                  CALIF 060819141A001A59MAN25MAN12FA45 000000
604CA010051B9140005131870102990FRESNO                  CALIF 060819141A002A25MWH31MWN12ST81A000000
604CA010051B9140005131870102990FRESNO                  CALIF 060819141A003A37MBN35MBN20ST47 000000
604CA010051B9140005131870102990FRESNO                  CALIF 060918141A004A49MWN18MWH90ST26 000000
604CA010051B9140005131870102990FRESNO                  CALIF 071230141A001A39MWN47MWN11ST99 000000
604CA010051B9140005131870102990FRESNO                  CALIF 070918141A002A48MBN38MBN12OK47 000000
604CA010051B9140005131870102990FRESNO                  CALIF 070918141A003E39MWH23MWH11ST03 00100139MWH                                             27MWH11ST03
604CA010051B9140005131870102990FRESNO                  CALIF 070918141A004B35MWH00UUU20UN44 000000
604CA010051B9140005131870102990FRESNO                  CALIF 070918141A005A47MBN43MWH12ST81E000000
604CA010051B9140005131870102990FRESNO                  CALIF 070918141A006A45FWN47MBN20GF45 000000
604CA010051B9140005131870102990FRESNO                  CALIF 070918141A007ANBMWH31FWH40SO60 000000
604CA010051B9140005131870102990FRESNO                  CALIF 081022141A001A32MAN27MWH11OK47 000000
604CA010051B9140005131870102990FRESNO                  CALIF 081022141A002A47MBN49MBN12OK99 000000
604CA010051B9140005131870102990FRESNO                  CALIF 081022141A003B22MWN00UUU20UN26 000000
604CA010051B9140005131870102990FRESNO                  CALIF 091230141A001A26MBN36MBN11ST99 000000
604CA010051B9140005131870102990FRESNO                  CALIF 091230141A002A21MWH40MWH12ST81F000000
604CA010051B9140005131870102990FRESNO                  CALIF 091230141A003A56FWH27FBN20ST45 000000
604CA010051B9140005131870102990FRESNO                  CALIF 091230141A004A36MWH49MIN12ST81A000000
604CA010051B9140005131870102990FRESNO                  CALIF 091230141B005A16MWH15MBN12FR53 000000
604CA010051B9140005131870102990FRESNO                  CALIF 100122151A001A36MBN23MWH20ST99 000000
604CA010051B9140005131870102990FRESNO                  CALIF 100122151A002A24MBN30MBN11OK47 000000
604CA010051B9140005131870102990FRESNO                  CALIF 100122151A003A20MBN26MAN12OK47 000000
604CA010051B9140005131870102990FRESNO                  CALIF 101230141A004A23MBN17MBN14BR45 000000
604CA010051B9140005131870102990FRESNO                  CALIF 110122151A001A24MWH21MWH12ST45 000000
604CA010051B9140005131870102990FRESNO                  CALIF 110122151A002B23MBN00UUU11UN26 000000
604CA010051B9140005131870102990FRESNO                  CALIF 120309151A001B85MWN00UUU40UN03 000000
604CA010051B9140005131870102990FRESNO                  CALIF 120309151A002D25MBN19MWH11ST03 00100051MWH
604CA010051B9140005131870102990FRESNO                  CALIF 120309151A003B23MWH00UUU11UN99 000000
604CA010115 9140000149480102991PARLIER                 CALIF 031120141A001A40MWH37MWH14NE45 000000
604CA011016 914000007511011   0ORLAND                  CALIF 060819141A001A24FWH31MWH20WI45 000000
604CA012008B914000074050012   0HUMBOLDT                CALIF 040819141A001C37MWN33MWN14AQ45 000001                                                  43FWN14AQ45
604CA012008B914000074050012   0HUMBOLDT                CALIF 071230141A001A49MWN30MWN12FR45 000000
604CA012008B914000074050012   0HUMBOLDT                CALIF 071230141A002A57MWN38MWN13FR99 000000
604CA012008B914000074050012   0HUMBOLDT                CALIF 091230141A001A37MWN29MWN12ST99 000000
604CA012008B914000074050012   0HUMBOLDT                CALIF 100309151A001A40MAN40MWN12AQ45 000000
604CA012008B914000074050012   0HUMBOLDT                CALIF 100309151A002A32MWN48FWN12AQ80C000000
604CA012008B914000074050012   0HUMBOLDT                CALIF 100309151A003B30MWN00UUU12UN99 000000
604CA012034 914000026843012   0EUREKA                  CALIF 010801141A001A56MWN43MWN30ST99 000000
604CA012034 914000026843012   0EUREKA                  CALIF 030801141A001D60MWN28MWN14AQ99 00100025MWN
604CA012034 914000026843012   0EUREKA                  CALIF 110309151A001B22MWN00UUU12UN99 000000
604CA012034 914000026843012   0EUREKA                  CALIF 120309151A001B14MWH00UUU20UN99 000000
604CA013009B9140000374410132381IMPERIAL                CALIF 100309151A001B50MWH00UUU20UN99 000000
604CA013014 9140000256950132381BRAWLEY                 CALIF 071022141A001A26MWN24MWN11FR45 000000
604CA013014 9140000256950132381BRAWLEY                 CALIF 110309151A001A28FWH46MWH90GF45 000000
604CA015009A9140003330420150691KERN                    CALIF 010801141A001A22MWH23MWH11OK45 000000
604CA015009A9140003330420150691KERN                    CALIF 020801141A001B21MWH00UUU11UN99 000000
604CA015009A9140003330420150691KERN                    CALIF 020801141A002B29MWH00UUU11UN99 000000
604CA015009A9140003330420150691KERN                    CALIF 020801141A003B00MUU00UUU85UN99 000000
604CA015009A9140003330420150691KERN                    CALIF 020801141A004A49MWN56MWN14FR44 000000
604CA015009A9140003330420150691KERN                    CALIF 030801141A001C49MWN33MWN11ST81D000001                                                  35MWN11ST81D
604CA015009A9140003330420150691KERN                    CALIF 030801141A003B49MWH00UUU11UN99 000000
604CA015009A9140003330420150691KERN                    CALIF 030801141A004B30MWH00UUU20UN45 000000
604CA015009A9140003330420150691KERN                    CALIF 050819141A001B26MBN00UUU11UN99 000000
604CA015009A9140003330420150691KERN                    CALIF 050723141A002A49MWN22MWH11ST81A000000
604CA015009A9140003330420150691KERN                    CALIF 050723141A003A31FWH30MWH20ST26 000000
604CA015009A9140003330420150691KERN                    CALIF 060819141A001A61MWN65MWN20NE99 000000
604CA015009A9140003330420150691KERN                    CALIF 060819141A002A67MWN35MWN11ST81A000000
604CA015009A9140003330420150691KERN                    CALIF 081022141A001B38MWH00UUU11UN99 000000
604CA015009A9140003330420150691KERN                    CALIF 081022141A002A43MWN34MWH11ST99 000000
604CA015009A9140003330420150691KERN                    CALIF 081022141A003B22MWH00UUU11UN99 000000
604CA015009A9140003330420150691KERN                    CALIF 081022141A004B28MBN00UUU11UN99 000000
604CA015009A9140003330420150691KERN                    CALIF 081022141A005B22MWH00UUU11UN99 000000
604CA015009A9140003330420150691KERN                    CALIF 080918141A006B42FWH00UUU11ST81G000000
604CA015009A9140003330420150691KERN                    CALIF 081022141A007A28MWH21MWH20ST26 000000
604CA015009A9140003330420150691KERN                    CALIF 081022141A008A18MWH30MWH11NE99 000000
604CA015009A9140003330420150691KERN                    CALIF 091120141A001A35FWH56MWH30CW45 000000
604CA015009A9140003330420150691KERN                    CALIF 091120141A002B30MWH00UUU14UN45 000000
604CA015009A9140003330420150691KERN                    CALIF 091120141A003B34MWH00UUU14UN99 000000
604CA015009A9140003330420150691KERN                    CALIF 091120141A004A43MWH23MWH11OK45 000000
604CA015009A9140003330420150691KERN                    CALIF 101230141A001A33MWH29MWH12AQ80C000000
604CA015009A9140003330420150691KERN                    CALIF 101230141A002A24MWH50MWN12ST80G000000
604CA015009A9140003330420150691KERN                    CALIF 101230141A003B34MWN00UUU90UN48 000000
604CA015009A9140003330420150691KERN                    CALIF 111230141A001B18MWH00UUU11UN99 000000
604CA015009A9140003330420150691KERN                    CALIF 111230141A002A31FWH39MWH11WI99 000000
604CA015009A9140003330420150691KERN                    CALIF 111230141A003A47MWN19FWH11OK45 000000
604CA015009A9140003330420150691KERN                    CALIF 120122151A001B29MWH00UUU20UN26 000000
604CA015015 9140000205410150691ARVIN                   CALIF 040801141A001B55MWH00UUU12UN99 000000
604CA015015 9140000205410150691ARVIN                   CALIF 120122151A001B21MWH00UUU12UN99 000000
604CA015021C9140003674060150690BAKERSFIELD             CALIF 020801141A001B57MBN00UUU12UN99 000000
604CA015021C9140003674060150690BAKERSFIELD             CALIF 030801141A001A23MWN26MWH12ST80E000000
604CA015021C9140003674060150690BAKERSFIELD             CALIF 030801141A002A35MWN46MWN14ST80E000000
604CA015021C9140003674060150690BAKERSFIELD             CALIF 040801141A001B13MBN00UUU11UN99 000000
604CA015021C9140003674060150690BAKERSFIELD             CALIF 040801141A002A40MWH39MWH12ST26 000000
604CA015021C9140003674060150690BAKERSFIELD             CALIF 050801141A001A34FWH33MWH40OK10 000000
604CA015021C9140003674060150690BAKERSFIELD             CALIF 050801141A002A53MBN48FBN20BF45 000000
604CA015021C9140003674060150690BAKERSFIELD             CALIF 050801141A003A34MWN47MWH20HO45 000000
604CA015021C9140003674060150690BAKERSFIELD             CALIF 060819141A001A37MWN17MWN11SF45 000000
604CA015021C9140003674060150690BAKERSFIELD             CALIF 080918141A001A26MBN34MWN12ST81A000000
604CA015021C9140003674060150690BAKERSFIELD             CALIF 081022141A002B60MBN00UUU11UN99 000000
604CA015021C9140003674060150690BAKERSFIELD             CALIF 081022141A003B43MWH00UUU30UN99 000000
604CA015021C9140003674060150690BAKERSFIELD             CALIF 081022141A004C29MWN17MWN11FR46 000003                                                  16MWN11FR46 22MWN11FR46 61MWN11FR46
604CA015021C9140003674060150690BAKERSFIELD             CALIF 091120141A001B50MBN00UUU12UN99 000000
604CA015021C9140003674060150690BAKERSFIELD             CALIF 091120141A002B28MWN00UUU90UN99 000000
604CA015021C9140003674060150690BAKERSFIELD             CALIF 101230141A001A34MWH50MWH40AQ99 000000
604CA015021C9140003674060150690BAKERSFIELD             CALIF 101230141A002B65MAN00UUU12UN03 000000
604CA015021C9140003674060150690BAKERSFIELD             CALIF 101230141A003ANBFWH25MWH40DA60 000000
604CA015021C9140003674060150690BAKERSFIELD             CALIF 111230141A001A25MBN33MBN11ST47 000000
604CA015021C9140003674060150690BAKERSFIELD             CALIF 111230141A002C22MWH25MAN12ST81E000002                                                  29MWH12ST81E24FWH12ST81E
604CA015021C9140003674060150690BAKERSFIELD             CALIF 120122151A001A25MWH22MBN12ST47 000000
604CA015021C9140003674060150690BAKERSFIELD             CALIF 120309151A002A23MBN26MBN12OK80E000000
604CA015021C9140003674060150690BAKERSFIELD             CALIF 120309151A003A37MBN53MBN12ST80G000000
604CA015033 9140000522240150690DELANO                  CALIF 010801141A001B20MWH00UUU12UN99 000000
604CA015033 9140000522240150690DELANO                  CALIF 010801141A002B52MWH00UUU12UN99 000000
604CA015033 9140000522240150690DELANO                  CALIF 020801141A001B18MWH00UUU12UN99 000000
604CA015033 9140000522240150690DELANO                  CALIF 060819141A001B20MBN00UUU12UN99 000000
604CA015033 9140000522240150690DELANO                  CALIF 081022141A001B46MWH00UUU12UN99 000000
604CA015033 9140000522240150690DELANO                  CALIF 091120141A001B16MWH00UUU12UN99 000000
604CA015033 9140000522240150690DELANO                  CALIF 101230141A001B48MWH00UUU12UN99 000000
604CA015033 9140000522240150690DELANO                  CALIF 101230141A002F19MAN00UUU12UN47 00200019MWH19MWH
604CA015033 9140000522240150690DELANO                  CALIF 101230141A003B26FWH00UUU90UN99 000000
604CA015033 9140000522240150690DELANO                  CALIF 110122151A001B27MWH00UUU12UN99 000000
604CA015075 9140000172350150691SHAFTER                 CALIF 070819141A001A37MWH33MWH11AQ99 000000
604CA015115 9140000131680150691CALIFORNIA CITY         CALIF 030801141A001B19MBN00UUU11UN26 000000
604CA016009B9140000345620163421KINGS                   CALIF 030801141A001A24FWH27MWH11GF45 000000
604CA016009B9140000345620163421KINGS                   CALIF 040801141A001A02FWH28FWH40OF60 000000
604CA016009B9140000345620163421KINGS                   CALIF 071022141A001A45FWH37MWH20WI45 000000
604CA016009B9140000345620163421KINGS                   CALIF 071022141A002ABBMWN28FWN40SO60 000000
604CA016009B9140000345620163421KINGS                   CALIF 091120141A001A29MAN19MAN11ST05 000000
604CA016023 9140000548240163420HANFORD                 CALIF 110122151A001C27MWH15MWH20ST47 000001                                                  17MWH20ST47
604CA016034 9140000250800163421LEMOORE                 CALIF 120309151A001A49MWN16MWH40ST45 000000
604CA017008B914000044313017   0LAKE                    CALIF 010819141A001C54MWN41MAN20ST99 000002                                                  19MAN20ST99 26FAN20ST99
604CA017008B914000044313017   0LAKE                    CALIF 010819141A002C46MAN41MAN20ST99 000002                                                  19MAN20ST99 26FAN20ST99
604CA017008B914000044313017   0LAKE                    CALIF 040801141A001B51MWN00UUU12UN99 000000
604CA017008B914000044313017   0LAKE                    CALIF 120309151A001A58FWN58MWN12WI45 000000
604CA017025 914000014914017   0CLEARLAKE               CALIF 040801141A001B76MWN00UUU30UN05 000000
604CA017025 914000014914017   0CLEARLAKE               CALIF 050918141A001A65MWN20MWN20ST45 000000
604CA018008C914000016657018   0LASSEN                  CALIF 060918141A001B55MWN00UUU12UN05 000000
604CA018015 914000015048018   0SUSANVILLE              CALIF 020801141A001B38MIN00UUU11UN99 000000
604CA018015 914000015048018   0SUSANVILLE              CALIF 071022141B001A26FWN35MWN70FR59 000000
604CA019009A9140011119390194801LOS ANGELES             CALIF 010918141A001A21MWN55MBN20ST99 000000
604CA019009A9140011119390194801LOS ANGELES             CALIF 010918141A002A48MWH33MWH12ST99 000000
604CA019009A9140011119390194801LOS ANGELES             CALIF 020801141A001B38MBN00UUU12UN47 000000
604CA019009A9140011119390194801LOS ANGELES             CALIF 020819141A002B33MWH00UUU12UN47 000000
604CA019009A9140011119390194801LOS ANGELES             CALIF 020801141A003B16MWH00UUU12UN47 000000
604CA019009A9140011119390194801LOS ANGELES             CALIF 020801141A004B40MBN00UUU12UN47 000000
604CA019009A9140011119390194801LOS ANGELES             CALIF 020801141A005B47MWN00UUU12UN99 000000
604CA019009A9140011119390194801LOS ANGELES             CALIF 030819141A001B24MWH00UUU12UN47 000000
604CA019009A9140011119390194801LOS ANGELES             CALIF 030819141A002B67MWN00UUU80UN03 000000
604CA019009A9140011119390194801LOS ANGELES             CALIF 030918141A003B00MUU00UUU12UN99 000000
604CA019009A9140011119390194801LOS ANGELES             CALIF 030819141A004A32FBN32FBN12OK47 000000
604CA019009A9140011119390194801LOS ANGELES             CALIF 030819141A005B29MBN00UUU12UN47 000000
604CA019009A9140011119390194801LOS ANGELES             CALIF 030819141A006B17MBN00UUU12UN47 000000
604CA019009A9140011119390194801LOS ANGELES             CALIF 040801141A001B36MBN00UUU12UN99 000000
604CA019009A9140011119390194801LOS ANGELES             CALIF 040801141A002B28MBN00UUU12UN47 000000
604CA019009A9140011119390194801LOS ANGELES             CALIF 040801141A003B34MBN00UUU12UN47 000000
604CA019009A9140011119390194801LOS ANGELES             CALIF 040801141A004B15FWH00UUU12UN99 000000
604CA019009A9140011119390194801LOS ANGELES             CALIF 040918141A005A26MWH30MWH12ST81A000000
604CA019009A9140011119390194801LOS ANGELES             CALIF 050918141A001F18MBN00UUU13UN47 00100020MBN
604CA019009A9140011119390194801LOS ANGELES             CALIF 050918141A002B23MWH00UUU12UN99 000000
604CA019009A9140011119390194801LOS ANGELES             CALIF 050918141A003DBBFWH30FWH20DA60 00200003FWH02FWH
604CA019009A9140011119390194801LOS ANGELES             CALIF 050918141A004B27MWH00UUU30UN99 000000
604CA019009A9140011119390194801LOS ANGELES             CALIF 050918141A005A37MWN21MWN12ST99 000000
604CA019009A9140011119390194801LOS ANGELES             CALIF 060918141A001B18MBN00UUU12UN47 000000
604CA019009A9140011119390194801LOS ANGELES             CALIF 060918141A002B24MBN00UUU12UN47 000000
604CA019009A9140011119390194801LOS ANGELES             CALIF 060918141A003B37FBN00UUU12UN47 000000
604CA019009A9140011119390194801LOS ANGELES             CALIF 060918141A004B36MBN00UUU12UN47 000000
604CA019009A9140011119390194801LOS ANGELES             CALIF 060918141A005B47MBN00UUU12UN47 000000
604CA019009A9140011119390194801LOS ANGELES             CALIF 060918141A006B38FBN00UUU12UN47 000000
604CA019009A9140011119390194801LOS ANGELES             CALIF 060918141A007A56MWH56MBN30ST99 000000
604CA019009A9140011119390194801LOS ANGELES             CALIF 060918141A008A26MWH35MWH20ST47 000000
604CA019009A9140011119390194801LOS ANGELES             CALIF 060918141A009A29MWH38MWH12ST45 000000
604CA019009A9140011119390194801LOS ANGELES             CALIF 060918141A010B17MWH00UUU12UN47 000000
604CA019009A9140011119390194801LOS ANGELES             CALIF 060918141A011B25MWH00UUU12UN99 000000
604CA019009A9140011119390194801LOS ANGELES             CALIF 071022141A001A42MBN41MBN30ST99 000000
604CA019009A9140011119390194801LOS ANGELES             CALIF 071022141A002B48FBN00UUU20UN99 000000
604CA019009A9140011119390194801LOS ANGELES             CALIF 071022141A003B55MWN00UUU20UN99 000000
604CA019009A9140011119390194801LOS ANGELES             CALIF 071022141A004B64MWN00UUU30UN99 000000
604CA019009A9140011119390194801LOS ANGELES             CALIF 071022141A005A50MWH19MWH20OF45 000000
604CA019009A9140011119390194801LOS ANGELES             CALIF 081022141A001B19MWH00UUU20UN99 000000
604CA019009A9140011119390194801LOS ANGELES             CALIF 081022141A002B28MBN00UUU12UN47 000000
604CA019009A9140011119390194801LOS ANGELES             CALIF 081022141A003B31MWH00UUU12UN47 000000
604CA019009A9140011119390194801LOS ANGELES             CALIF 081022141A004B43MWH00UUU12UN47 000000
604CA019009A9140011119390194801LOS ANGELES             CALIF 081022141A005B76MWH00UUU40UN03 000000
604CA019009A9140011119390194801LOS ANGELES             CALIF 081022141A006B23MWH00UUU12UN47 000000
604CA019009A9140011119390194801LOS ANGELES             CALIF 091120141A001A87MWN48FWN20FA45 000000
604CA019009A9140011119390194801LOS ANGELES             CALIF 091120141A002A31FWH29FWH20ST47 000000
604CA019009A9140011119390194801LOS ANGELES             CALIF 091120141A003A46MBN46FBN20HU45 000000
604CA019009A9140011119390194801LOS ANGELES             CALIF 091120141A004A06MWH39MWH20SO60 000000
604CA019009A9140011119390194801LOS ANGELES             CALIF 100122151A001B27MWH00UUU12UN47 000000
604CA019009A9140011119390194801LOS ANGELES             CALIF 100122151A002A28MWH44MWH12ST81A000000
604CA019009A9140011119390194801LOS ANGELES             CALIF 100122151A003A59FWH23MWH20OF26 000000
604CA019009A9140011119390194801LOS ANGELES             CALIF 100122151A004B28MBN00UUU12UN99 000000
604CA019009A9140011119390194801LOS ANGELES             CALIF 100122151A005B29MBN00UUU12UN99 000000
604CA019009A9140011119390194801LOS ANGELES             CALIF 110309151A001A23MBN22MBN12ST47 000000
604CA019009A9140011119390194801LOS ANGELES             CALIF 110309151A002B18MWH00UUU12UN47 000000
604CA019009A9140011119390194801LOS ANGELES             CALIF 110309151A003B27MWH00UUU12UN99 000000
604CA019009A9140011119390194801LOS ANGELES             CALIF 110309151A004D26MWH27MWH12ST81A00100057MWH
604CA019009A9140011119390194801LOS ANGELES             CALIF 110309151A005B23MWH00UUU12UN47 000000
604CA019009A9140011119390194801LOS ANGELES             CALIF 120309151A001B27MWH00UUU12UN47 000000
604CA019009A9140011119390194801LOS ANGELES             CALIF 120309151A002C56MWH31MWH40OK48 000001                                                  34MWH40OK48
604CA019009A9140011119390194801LOS ANGELES             CALIF 120309151A003D08MWN46MWN30SO60 00100005FWN
604CA019009A9140011119390194801LOS ANGELES             CALIF 120309151A004B17MWH00UUU13UN47 000000
604CA019009A9140011119390194801LOS ANGELES             CALIF 120309151A005B19MWH00UUU12UN99 000000
604CA019009A9140011119390194801LOS ANGELES             CALIF 120309151A006F74FWN00UUU20UN99 00100089MWN
604CA019009A9140011119390194801LOS ANGELES             CALIF 120309151A007B24MBN00UUU12UN99 000000
604CA019009A9140011119390194801LOS ANGELES             CALIF 120309151A008B27MUU00UUU12UN99 000000
604CA019009A9140011119390194801LOS ANGELES             CALIF 120309151A009B34MWH00UUU12UN99 000000
604CA019009A9140011119390194801LOS ANGELES             CALIF 120309151A010B21MWH00UUU12UN99 000000
604CA019013 9140000849310194800ALHAMBRA                CALIF 020918141A001A53MWH30MWH30ST47 000000
604CA019023 9140000579500194800ARCADIA                 CALIF 010723141A001A41FAN68MAN20IL44 000000
604CA019023 9140000579500194800ARCADIA                 CALIF 120309151B001A84FWN61FWN90MO59 000000
604CA019063 9140000769330194800BALDWIN PARK            CALIF 020801141A001B43MWH00UUU12UN47 000000
604CA019063 9140000769330194800BALDWIN PARK            CALIF 100309151A001A63FWH44FWH12OK44 000000
604CA019074 9140000360590194801BELL                    CALIF 041120141A001B33MWH00UUU12UN26 000000
604CA019083 9140000778300194800BELLFLOWER              CALIF 050723141A001F25MBN00UUU12UN47 00100022MBN
604CA019083 9140000778300194800BELLFLOWER              CALIF 081230141A001A38MBN37MBN12ST81F000000
604CA019094 9140000430890194801BELL GARDENS            CALIF 091230141A001A46MWH43FWH12HU45 000000
604CA019094 9140000430890194801BELL GARDENS            CALIF 110122151A001B57FWN00UUU90UN99 000000
604CA0191H4 9140000355070194801WEST HOLLYWOOD          CALIF 031230141A001A34MAN36MBN20HO45 000000
604CA0191R2 9140002069300194800SANTA CLARITA           CALIF 010801141A001B25MWH00UUU20UN47 000000
604CA0191R2 9140002069300194800SANTA CLARITA           CALIF 010918141A002A47MWN36MWH12ST81A000000
604CA019122 9140001050410194800BURBANK                 CALIF 010801141A001A77FWH40MWH80MO45 000000
604CA019153 9140000982240194800COMPTON                 CALIF 010801141A001B34MBN00UUU12UN47 000000
604CA019153 9140000982240194800COMPTON                 CALIF 020801141A001B39MBN00UUU12UN47 000000
604CA019153 9140000982240194800COMPTON                 CALIF 030801141A001B46MWH00UUU20UN45 000000
604CA019153 9140000982240194800COMPTON                 CALIF 030801141A002B24MWH00UUU12UN99 000000
604CA019153 9140000982240194800COMPTON                 CALIF 030801141A003B31MWH00UUU12UN47 000000
604CA019153 9140000982240194800COMPTON                 CALIF 030801141A004B24MBN00UUU12UN47 000000
604CA019153 9140000982240194800COMPTON                 CALIF 030801141A005B58MBN00UUU12UN47 000000
604CA019153 9140000982240194800COMPTON                 CALIF 040801141A001B22MWH00UUU12UN47 000000
604CA019153 9140000982240194800COMPTON                 CALIF 050723141A001B26FBN00UUU12UN47 000000
604CA019153 9140000982240194800COMPTON                 CALIF 050723141A002A31MBN35MBN12OK47 000000
604CA019153 9140000982240194800COMPTON                 CALIF 060918141A001A42MWH17MWH12NE45 000000
604CA019153 9140000982240194800COMPTON                 CALIF 061022141A002A24MBN43MWN12ST81A000000
604CA019153 9140000982240194800COMPTON                 CALIF 071022141A001B21MWH00UUU12UN47 000000
604CA019153 9140000982240194800COMPTON                 CALIF 071022141A002B24FBN00UUU12UN47 000000
604CA019153 9140000982240194800COMPTON                 CALIF 071022141A003B23MBN00UUU12UN47 000000
604CA019153 9140000982240194800COMPTON                 CALIF 071022141A004B39MWH00UUU12UN99 000000
604CA019153 9140000982240194800COMPTON                 CALIF 081022141A001B22MBN00UUU12UN47 000000
604CA019153 9140000982240194800COMPTON                 CALIF 081022141A002B64MBN00UUU12UN99 000000
604CA019153 9140000982240194800COMPTON                 CALIF 091120141A001B28MBN00UUU12UN99 000000
604CA019153 9140000982240194800COMPTON                 CALIF 100122151A001B39MBN00UUU12UN47 000000
604CA019153 9140000982240194800COMPTON                 CALIF 110309151A001B29MWH00UUU12UN47 000000
604CA019153 9140000982240194800COMPTON                 CALIF 110309151A002A25MBN44MBN12BR45 000000
604CA019153 9140000982240194800COMPTON                 CALIF 110309151A003B35MBN00UUU12UN47 000000
604CA019153 9140000982240194800COMPTON                 CALIF 110309151A004B29MWH00UUU12UN47 000000
604CA019153 9140000982240194800COMPTON                 CALIF 120309151A001B16MBN00UUU12UN47 000000
604CA019153 9140000982240194800COMPTON                 CALIF 120309151A002B37FBN00UUU13UN47 000000
604CA019153 9140000982240194800COMPTON                 CALIF 120309151A003A34FWH30MWH12ST81E000000
604CA019184 9140000395610194801CULVER CITY             CALIF 010723141A001C51MWH22MWH40OF26 000001                                                  27MWH40OF26
604CA0192U9D9140000000000194801LA TRNSPRTN SERVICES BURCALIF 010918141A001A34MWH24MBN20ST99 000000
604CA0192U9D9140000000000194801LA TRNSPRTN SERVICES BURCALIF 060918141A001B65MBN00UUU40UN99 000000
604CA0192U9D9140000000000194801LA TRNSPRTN SERVICES BURCALIF 081022141A001A41MWH45MBN12ST81A000000
604CA019202 9140001135950194800DOWNEY                  CALIF 020918141A001B37MWH00UUU11UN99 000000
604CA019202 9140001135950194800DOWNEY                  CALIF 030918141A001C36MWN22MWH11OK47 000001                                                  29MWH11OK47
604CA019202 9140001135950194800DOWNEY                  CALIF 091120141A001A51MWN19FBN20OK45 000000
604CA019222 9140001162200194800EL MONTE                CALIF 030801141A001B40MWH00UUU12UN99 000000
604CA019222 9140001162200194800EL MONTE                CALIF 091120141A001B21MWH00UUU11UN99 000000
604CA019243 9140000602330194800GARDENA                 CALIF 100122151A001C34MWN23MWH20ST03 000002                                                  36FWN20ST03 15FWN20ST03
604CA019263 9140000512920194800GLENDORA                CALIF 100309151A001B22MWH00UUU12UN99 000000
604CA019275 9140000144900194801HAWAIIAN GARDENS        CALIF 091120141A001A27MWH36MWH12ST99 000000
604CA019283 9140000866700194800HAWTHORNE               CALIF 020801141A001C53MBN28MBN40ST45 000001                                                  50FBN40ST45
604CA019283 9140000866700194800HAWTHORNE               CALIF 050723141A001A57FWH34MWH30MO99 000000
604CA019283 9140000866700194800HAWTHORNE               CALIF 071022141A001A31MBN22MBN12ST26 000000
604CA019283 9140000866700194800HAWTHORNE               CALIF 091203141A001B28MA 00UU 11UN26 000000
604CA019283 9140000866700194800HAWTHORNE               CALIF 091120141A002A43MBN46MBN11ST99 000000
604CA019283 9140000866700194800HAWTHORNE               CALIF 120309151A001B31MBN00UUU12UN99 000000
604CA019313 9140000590640194800HUNTINGTON PARK         CALIF 030918141A001A18MWH18MWH90NE45 000000
604CA019313 9140000590640194800HUNTINGTON PARK         CALIF 110309151A001A28MWH28MWH20ST26 000000
604CA019332 9140001119970194800INGLEWOOD               CALIF 010723141A001B17MBN00UUU12UN99 000000
604CA019332 9140001119970194800INGLEWOOD               CALIF 010723141A002F39MWH00UUU12UN45 00100030MWH
604CA019332 9140001119970194800INGLEWOOD               CALIF 010723141A003B18MWH00UUU12UN99 000000
604CA019332 9140001119970194800INGLEWOOD               CALIF 010723141A004A44MWH27MWH12OK47 000000
604CA019332 9140001119970194800INGLEWOOD               CALIF 010723141A005B29MWH00UUU12UN47 000000
604CA019332 9140001119970194800INGLEWOOD               CALIF 020801141A001B23MBN00UUU12UN47 000000
604CA019332 9140001119970194800INGLEWOOD               CALIF 030819141A001B20MWH00UUU12UN47 000000
604CA019332 9140001119970194800INGLEWOOD               CALIF 030819141A002B25MBN00UUU12UN26 000000
604CA019332 9140001119970194800INGLEWOOD               CALIF 040918141A001B25MBN00UUU12UN47 000000
604CA019332 9140001119970194800INGLEWOOD               CALIF 040819141A002A38MWH50MWH12OK80E000000
604CA019332 9140001119970194800INGLEWOOD               CALIF 040819141A003A56MBN33MBN12OK40 000000
604CA019332 9140001119970194800INGLEWOOD               CALIF 050819141A001B51MWH00UUU30UN99 000000
604CA019332 9140001119970194800INGLEWOOD               CALIF 050819141A002B17MBN00UUU12UN99 000000
604CA019332 9140001119970194800INGLEWOOD               CALIF 050819141A003B46MWH00UUU65UN09 000000
604CA019332 9140001119970194800INGLEWOOD               CALIF 060819141A001A40MBN45MWN12ST81A000000
604CA019332 9140001119970194800INGLEWOOD               CALIF 090122151A001B30MBN00UUU12UN99 000000
604CA019332 9140001119970194800INGLEWOOD               CALIF 110309151A001A40MAN24MUU12ST47 000000
604CA019332 9140001119970194800INGLEWOOD               CALIF 110309151A002A20FWH22MWH12GF45 000000
