601AL001009A6060001480370370981JEFFERSON               ALA   010323071A001A00MB 00MB 12AQ99 000000
601AL001009A6060001480370370981JEFFERSON               ALA   010323071A002B16MB 00UU 12UN99 000000
601AL001009A6060001480370370981JEFFERSON               ALA   010323071A003A35FB 39MB 20WI45 000000
601AL001009A6060001480370370981JEFFERSON               ALA   010323071A004A42MW 37MB 12AQ99 000000
601AL001009A6060001480370370981JEFFERSON               ALA   010323071A005A45FW 24MW 12MO45 000000
601AL001009A6060001480370370981JEFFERSON               ALA   030316070A001A39MW 25MB 90AQ45 000000
601AL001009A6060001480370370981JEFFERSON               ALA   050328071A001B14MB 00UU 12UN99 000000
601AL001009A6060001480370370981JEFFERSON               ALA   100316070A001A00MB 00MB 12UN99 000000
601AL001009A6060001480370370981JEFFERSON               ALA   110316070A001A47FW 49FW 12FR99 000000
601AL001014 6060000289000370981BESSEMER                ALA   010316070A001A33MB 00MB 12AQ45 000000
601AL001014 6060000289000370981BESSEMER                ALA   040316070A001A20FB 22MB 12UN99 000000
601AL001014 6060000289000370981BESSEMER                ALA   050323071A001B29MB 00UU 12UN99 000000
601AL001014 6060000289000370981BESSEMER                ALA   100316070A001A30MB 00MB 12UN99 000000
601AL001014 6060000289000370981BESSEMER                ALA   110323071A001B00MW 00UU 12UN99 000000
601AL001022 6060002335770370980BIRMINGHAM              ALA   010323071A001B33MB 00UU 12UN99 000000
601AL001022 6060002335770370980BIRMINGHAM              ALA   010323071A002B44FB 00UU 20UN99 000000
601AL001022 6060002335770370980BIRMINGHAM              ALA   010323071A003B43MB 00UU 30UN99 000000
601AL001022 6060002335770370980BIRMINGHAM              ALA   010323071A004A43MB 27MB 14OF45 000000
601AL001022 6060002335770370980BIRMINGHAM              ALA   010323071A005A21MB 23MB 12FR45 000000
601AL001022 6060002335770370980BIRMINGHAM              ALA   010323071A006A56MW 47MB 30ST03 000000
601AL001022 6060002335770370980BIRMINGHAM              ALA   010323071A007A27MA 16MA 12OF45 000000
601AL001022 6060002335770370980BIRMINGHAM              ALA   010323071A008D27FB 19MB 12AQ45 00100029MB
601AL001022 6060002335770370980BIRMINGHAM              ALA   010323071A009A21MB 71FB 12OF45 000000
601AL001022 6060002335770370980BIRMINGHAM              ALA   010323071A010A22MB 19MB 12ST60 000000
601AL001022 6060002335770370980BIRMINGHAM              ALA   020323071A001E16MB 25MB 12AQ60 00100142FB                                              27MB 12AQ60
601AL001022 6060002335770370980BIRMINGHAM              ALA   020323071A002B47MB 00UU 12UN99 000000
601AL001022 6060002335770370980BIRMINGHAM              ALA   020323071A003B23FB 00UU 12UN99 000000
601AL001022 6060002335770370980BIRMINGHAM              ALA   020323071A004A41MB 28MB 20AQ45 000000
601AL001022 6060002335770370980BIRMINGHAM              ALA   020323071A005A39MW 20MB 12ST03 000000
601AL001022 6060002335770370980BIRMINGHAM              ALA   030323071A001A24MW 20MB 12AQ45 000000
601AL001022 6060002335770370980BIRMINGHAM              ALA   030323071A002B32FW 00UU 90UN99 000000
601AL001022 6060002335770370980BIRMINGHAM              ALA   030323071A003A53MB 40MB 20AQ45 000000
601AL001022 6060002335770370980BIRMINGHAM              ALA   030323071A004A18MB 18MB 12AQ45 000000
601AL001022 6060002335770370980BIRMINGHAM              ALA   030323071A005A01MB 24MB 40OK60 000000
601AL001022 6060002335770370980BIRMINGHAM              ALA   030323071A006C46MB 20MB 12AQ47 000001                                                  20MB 12AQ47
601AL001022 6060002335770370980BIRMINGHAM              ALA   030323071A007A22MB 20MB 12AQ45 000000
601AL001022 6060002335770370980BIRMINGHAM              ALA   030323071A008A45MB 40FB 20HU45 000000
601AL001022 6060002335770370980BIRMINGHAM              ALA   040323071A001A01FB 24FB 40DA60 000000
601AL001022 6060002335770370980BIRMINGHAM              ALA   040323071A002B17MB 00UU 14UN99 000000
601AL001022 6060002335770370980BIRMINGHAM              ALA   040323071A003A24MB 25MB 12AQ99 000000
601AL001022 6060002335770370980BIRMINGHAM              ALA   040323071A004B23MB 00UU 12UN99 000000
601AL001022 6060002335770370980BIRMINGHAM              ALA   040323071A005A21MB 17MB 12AQ45 000000
601AL001022 6060002335770370980BIRMINGHAM              ALA   040323071A006A23MB 25MB 12ST03 000000
601AL001022 6060002335770370980BIRMINGHAM              ALA   040323071A007C20MB 18MB 12ST03 000001                                                  18FB 12ST03
601AL001022 6060002335770370980BIRMINGHAM              ALA   050323071A001B54MB 00UU 12UN99 000000
601AL001022 6060002335770370980BIRMINGHAM              ALA   050323071A002B29MB 00UU 12UN99 000000
601AL001022 6060002335770370980BIRMINGHAM              ALA   050323071A003B40MB 00UU 12UN03 000000
601AL001022 6060002335770370980BIRMINGHAM              ALA   050323071A004C19MB 19MB 12AQ47 000001                                                  20MB 12AQ47
601AL001022 6060002335770370980BIRMINGHAM              ALA   050323071A005A53MB 20MB 20AQ45 000000
601AL001022 6060002335770370980BIRMINGHAM              ALA   050323071A006A38FB 40MB 14WI45 000000
601AL001022 6060002335770370980BIRMINGHAM              ALA   050323071A007A31FB 29MB 14AQ99 000000
601AL001022 6060002335770370980BIRMINGHAM              ALA   050323071A008A42MB 27MB 12AQ99 000000
601AL001022 6060002335770370980BIRMINGHAM              ALA   050323071A009A18MB 23MB 12AQ45 000000
601AL001022 6060002335770370980BIRMINGHAM              ALA   050323071A010A42MB 50MB 12AQ45 000000
601AL001022 6060002335770370980BIRMINGHAM              ALA   060323071A001A91MB 18MB 12AQ03 000000
601AL001022 6060002335770370980BIRMINGHAM              ALA   060323071A002A28MB 26MB 12AQ45 000000
601AL001022 6060002335770370980BIRMINGHAM              ALA   060323071A003A26MB 19MB 20AQ45 000000
601AL001022 6060002335770370980BIRMINGHAM              ALA   060323071A004A42MB 29MB 20AQ45 000000
601AL001022 6060002335770370980BIRMINGHAM              ALA   060323071A005B44MB 00UU 20UN99 000000
601AL001022 6060002335770370980BIRMINGHAM              ALA   060323071A006B20MB 00UU 12UN99 000000
601AL001022 6060002335770370980BIRMINGHAM              ALA   060323071A007A52MB 44MB 12AQ45 000000
601AL001022 6060002335770370980BIRMINGHAM              ALA   060323071A008A50MB 21MB 12AQ45 000000
601AL001022 6060002335770370980BIRMINGHAM              ALA   060323071A009B54FB 00UU 12UN99 000000
601AL001022 6060002335770370980BIRMINGHAM              ALA   060323071A010B31MW 00UU 12UN99 000000
601AL001022 6060002335770370980BIRMINGHAM              ALA   060323071A011A20MW 18MW 20AQ45 000000
601AL001022 6060002335770370980BIRMINGHAM              ALA   060323071A012B22MB 00UU 12UN99 000000
601AL001022 6060002335770370980BIRMINGHAM              ALA   060323071A013B65MB 00UU 12UN99 000000
601AL001022 6060002335770370980BIRMINGHAM              ALA   070323071A001A27MB 42MB 20AQ45 000000
601AL001022 6060002335770370980BIRMINGHAM              ALA   070323071A002B17FB 00UU 20UN99 000000
601AL001022 6060002335770370980BIRMINGHAM              ALA   070323071A003A21MB 00MB 12AQ45 000000
601AL001022 6060002335770370980BIRMINGHAM              ALA   070323071A004A29MB 00MB 12AQ45 000000
601AL001022 6060002335770370980BIRMINGHAM              ALA   070323071A005A16MB 32MB 12AQ45 000000
601AL001022 6060002335770370980BIRMINGHAM              ALA   070323071A006A30MB 29MB 12AQ45 000000
601AL001022 6060002335770370980BIRMINGHAM              ALA   070323071A007A31MB 23MB 12AQ45 000000
601AL001022 6060002335770370980BIRMINGHAM              ALA   070323071A008B46MB 00UU 12UN99 000000
601AL001022 6060002335770370980BIRMINGHAM              ALA   070323071A009B75FB 00UU 20UN99 000000
601AL001022 6060002335770370980BIRMINGHAM              ALA   070323071B010A53MB 59FB 14NE53 000000
601AL001022 6060002335770370980BIRMINGHAM              ALA   080323071A001B28FB 00UU 12UN99 000000
601AL001022 6060002335770370980BIRMINGHAM              ALA   080323071A002B32MB 00UU 12UN99 000000
601AL001022 6060002335770370980BIRMINGHAM              ALA   080323071A003F19MB 00UU 12UN99 00100023MB
601AL001022 6060002335770370980BIRMINGHAM              ALA   080323071A004A26MB 21MB 12ST03 000000
601AL001022 6060002335770370980BIRMINGHAM              ALA   080323071A005A16MB 35MB 12OK45 000000
601AL001022 6060002335770370980BIRMINGHAM              ALA   080323071A006A51MB 33FB 12BF45 000000
601AL001022 6060002335770370980BIRMINGHAM              ALA   080323071A007A25MB 28MB 12AQ45 000000
601AL001022 6060002335770370980BIRMINGHAM              ALA   080323071A008A29MB 30MB 12AQ45 000000
601AL001022 6060002335770370980BIRMINGHAM              ALA   080323071A009A38MB 30MW 12ST81G000000
601AL001022 6060002335770370980BIRMINGHAM              ALA   080323071A010A76MB 23MB 14ST05 000000
601AL001022 6060002335770370980BIRMINGHAM              ALA   080323071A011A30MB 28MB 12AQ45 000000
601AL001022 6060002335770370980BIRMINGHAM              ALA   090323071A001B22FB 00UU 12UN99 000000
601AL001022 6060002335770370980BIRMINGHAM              ALA   090323071A002A30MW 30MW 20AQ45 000000
601AL001022 6060002335770370980BIRMINGHAM              ALA   090323071A003A34MB 35MB 30AQ45 000000
601AL001022 6060002335770370980BIRMINGHAM              ALA   090323071A004A02MB 00MB 12ST60 000000
601AL001022 6060002335770370980BIRMINGHAM              ALA   090323071A005A23MB 23MB 12AQ40 000000
601AL001022 6060002335770370980BIRMINGHAM              ALA   090323071A006A21MB 30MW 12ST81G000000
601AL001022 6060002335770370980BIRMINGHAM              ALA   090323071A007A52MB 35MB 12ST80E000000
601AL001022 6060002335770370980BIRMINGHAM              ALA   100323071A001B38MB 00UU 12UN05 000000
601AL001022 6060002335770370980BIRMINGHAM              ALA   100323071A002A18MB 19MB 12AQ45 000000
601AL001022 6060002335770370980BIRMINGHAM              ALA   100323071A003A26MB 23MB 20AQ45 000000
601AL001022 6060002335770370980BIRMINGHAM              ALA   100323071A004A42MB 40MW 12ST81G000000
601AL001022 6060002335770370980BIRMINGHAM              ALA   110323071A001A53MB 29MB 12OF99 000000
601AL001022 6060002335770370980BIRMINGHAM              ALA   110323071A002A18MB 19MB 12AQ45 000000
601AL001022 6060002335770370980BIRMINGHAM              ALA   110323071A003A34MB 20MB 12ST03 000000
601AL001022 6060002335770370980BIRMINGHAM              ALA   110323071A004A02MB 36MB 40OK60 000000
601AL001022 6060002335770370980BIRMINGHAM              ALA   110323071A005A43MB 70MB 14AQ45 000000
601AL001022 6060002335770370980BIRMINGHAM              ALA   110323071A006A28FB 34MB 12GF45 000000
601AL001022 6060002335770370980BIRMINGHAM              ALA   110323071A007A25MB 18MB 12AQ45 000000
601AL001022 6060002335770370980BIRMINGHAM              ALA   110323071A008A41MB 37MB 12AQ45 000000
601AL001022 6060002335770370980BIRMINGHAM              ALA   110323071A009A36FB 20MB 12AQ45 000000
601AL001022 6060002335770370980BIRMINGHAM              ALA   120323071A001B73MW 00UU 12UN99 000000
601AL001022 6060002335770370980BIRMINGHAM              ALA   120323071A002A20MB 00MB 12AQ60 000000
601AL001022 6060002335770370980BIRMINGHAM              ALA   120323071A003A22FB 30MB 12GF45 000000
601AL001022 6060002335770370980BIRMINGHAM              ALA   120323071A004F25FB 00UU 12UN60 00100025MB
601AL001022 6060002335770370980BIRMINGHAM              ALA   120323071A005C24MB 17MB 12AQ45 000001                                                  17MB 12AQ45
601AL001022 6060002335770370980BIRMINGHAM              ALA   120323071A006E19MB 17MB 12AQ03 00200182FB 84MB                                         19MB 12AQ03
601AL001022 6060002335770370980BIRMINGHAM              ALA   120323071A007C46MB 20MB 12AQ03 000001                                                  20FB 12AQ03
601AL001022 6060002335770370980BIRMINGHAM              ALA   120323071A008A73MB 35MB 40HO45 000000
601AL001022 6060002335770370980BIRMINGHAM              ALA   120323071A009A32MW 20MW 12AQ03 000000
601AL001045 6060000118020370981FAIRFIELD               ALA   110316070A001A59MB 23MB 12UN99 000000
601AL001086 6060000067520370981TARRANT CITY            ALA   100316070A001A18MB 00MB 90AQ99 000000
601AL001116 6060000069150370981FULTONDALE              ALA   110316070A001A66MW 47MW 20AQ80C000000
601AL001116 6060000069150370981FULTONDALE              ALA   110316070A002A63MW 47MW 20AQ80C000000
601AL001123 6060000680790370980HOOVER                  ALA   030130080A001C26MW 20MB 12ST03 000003                                                  19MB 12ST03 19MB 12ST03 22MB 12ST03
601AL001123 6060000680790370980HOOVER                  ALA   110130080A001A20FB 19MB 40AQ99 000000
601AL001136 6060000096170370981IRONDALE                ALA   090323071A001B53MB 00UU 14UN45 000000
601AL001195 6060000153290370981HUEYTOWN                ALA   010316070A001A17MW 30MW 12UN05 000000
601AL002009B6060000909140495471MOBILE                  ALA   010307070A001A23MW 18MW 12OK40 000000
601AL002009B6060000909140495471MOBILE                  ALA   020307070A001A36FW 31MW 12GF99 000000
601AL002009B6060000909140495471MOBILE                  ALA   020307070A002A31MB 00UB 12ST99 000000
601AL002009B6060000909140495471MOBILE                  ALA   100307070A001A46FW 26MW 12ST03 000000
601AL002009B6060000909140495471MOBILE                  ALA   110307070A001A50MW 45MW 14AQ45 000000
601AL002011C6060002501520495470MOBILE                  ALA   010328071A001B23MB 00UU 90UN99 000000
601AL002011C6060002501520495470MOBILE                  ALA   010316070A002A20FB 24MB 90ST99 000000
601AL002011C6060002501520495470MOBILE                  ALA   020328071A001B00FU 00UU 12UN99 000000
601AL002011C6060002501520495470MOBILE                  ALA   020403071A002A00FU 24MB 90DA99 000000
601AL002011C6060002501520495470MOBILE                  ALA   020328071A003B72MW 00UU 90UN99 000000
601AL002011C6060002501520495470MOBILE                  ALA   020316070A004A68FW 53MW 90ST99 000000
601AL002011C6060002501520495470MOBILE                  ALA   030328071A001B00FU 00UU 90UN99 000000
601AL002011C6060002501520495470MOBILE                  ALA   030316070A002A57MB 57MB 90AQ99 000000
601AL002011C6060002501520495470MOBILE                  ALA   040316070A001A00MU 49MB 90AQ99 000000
601AL002011C6060002501520495470MOBILE                  ALA   040316070A002A22MB 26FB 90ST99 000000
601AL002011C6060002501520495470MOBILE                  ALA   040328071A003B21FB 00UU 12UN99 000000
601AL002011C6060002501520495470MOBILE                  ALA   040316070A004A45FB 20MB 90MO99 000000
601AL002011C6060002501520495470MOBILE                  ALA   050316070A001A31MB 22MB 90AQ99 000000
601AL002011C6060002501520495470MOBILE                  ALA   060328071A001B29MB 00UU 90UN99 000000
601AL002011C6060002501520495470MOBILE                  ALA   070328071A001B35MB 00UU 12UN99 000000
601AL002011C6060002501520495470MOBILE                  ALA   070316070A002A24FB 24MB 90ST99 000000
601AL002011C6060002501520495470MOBILE                  ALA   070316070A003A26FB 28MB 12GF99 000000
601AL002011C6060002501520495470MOBILE                  ALA   070316070A004A39MB 23MB 12UN99 000000
601AL002011C6060002501520495470MOBILE                  ALA   070316070A005A43MW 27MB 90ST99 000000
601AL002011C6060002501520495470MOBILE                  ALA   070328071A006B63MW 00UU 90UN99 000000
601AL002011C6060002501520495470MOBILE                  ALA   080328071A001B00MU 00UU 90UN99 000000
601AL002011C6060002501520495470MOBILE                  ALA   080328071A002B22MB 00UU 90UN99 000000
601AL002011C6060002501520495470MOBILE                  ALA   090328071A001B32MB 00UU 90UN99 000000
601AL002011C6060002501520495470MOBILE                  ALA   090316070A002A35FW 33MW 90AQ99 000000
601AL002011C6060002501520495470MOBILE                  ALA   100328071A001B43MB 00UU 90UN99 000000
601AL002011C6060002501520495470MOBILE                  ALA   100316070A002A31MB 21MB 12AQ99 000000
601AL002011C6060002501520495470MOBILE                  ALA   100328071A003B21MW 00UU 12UN99 000000
601AL002011C6060002501520495470MOBILE                  ALA   100316070A004A27MB 20MB 12ST99 000000
601AL002011C6060002501520495470MOBILE                  ALA   110328071A001B32MW 00UU 12UN99 000000
601AL002011C6060002501520495470MOBILE                  ALA   110328071A002B21MB 00UU 12UN99 000000
601AL002011C6060002501520495470MOBILE                  ALA   110328071A003B21MB 00UU 90UN99 000000
601AL002011C6060002501520495470MOBILE                  ALA   110316070A004A25MB 19MB 90ST99 000000
601AL002011C6060002501520495470MOBILE                  ALA   120316070A001A25MW 27MW 90AQ99 000000
601AL002011C6060002501520495470MOBILE                  ALA   120316070A002A45MB 41FB 90HU99 000000
601AL002024 6060000282160495471PRICHARD                ALA   030403071A001B33MB 00UU 12UN99 000000
601AL002024 6060000282160495471PRICHARD                ALA   050316070A001A42MW 00MB 12UN99 000000
601AL002024 6060000282160495471PRICHARD                ALA   070323071A001B00MB 00UU 12UN45 000000
601AL002024 6060000282160495471PRICHARD                ALA   070316070A002A49MB 32MB 12ST45 000000
601AL002024 6060000282160495471PRICHARD                ALA   070316070A003A32MB 49MB 12ST45 000000
601AL002024 6060000282160495471PRICHARD                ALA   080316070A001A21MB 27MB 12ST99 000000
601AL002024 6060000282160495471PRICHARD                ALA   080316070A002A39MW 52FW 14BF99 000000
601AL002036 6060000060540495471CHICKASAW               ALA   120316070A001A86MW 00MB 40ST99 000000
601AL003012 6060002019370515560MONTGOMERY              ALA   010316070A001A27MB 22MB 12UN99 000000
601AL003012 6060002019370515560MONTGOMERY              ALA   020328071A001B17MB 00UU 12UN99 000000
601AL003012 6060002019370515560MONTGOMERY              ALA   020316070A002A37MB 27MB 12UN99 000000
601AL003012 6060002019370515560MONTGOMERY              ALA   030316070A001A22MW 22MW 90FR99 000000
601AL003012 6060002019370515560MONTGOMERY              ALA   030316070A002A28MB 23MB 12BR99 000000
601AL003012 6060002019370515560MONTGOMERY              ALA   040316070A001A22MB 00MB 12UN99 000000
601AL003012 6060002019370515560MONTGOMERY              ALA   040316070A002A27FB 18MB 12UN99 000000
601AL003012 6060002019370515560MONTGOMERY              ALA   040316070A003A30MB 20MB 12UN99 000000
601AL003012 6060002019370515560MONTGOMERY              ALA   050316070A001A28MB 31MB 12UN99 000000
601AL003012 6060002019370515560MONTGOMERY              ALA   050328071A002B21FB 00UU 12UN99 000000
601AL003012 6060002019370515560MONTGOMERY              ALA   050328071A003B23FB 00UU 12UN99 000000
601AL003012 6060002019370515560MONTGOMERY              ALA   050316070A004A34MB 23MB 12UN99 000000
601AL003012 6060002019370515560MONTGOMERY              ALA   060316070A001A32FB 29MB 12UN99 000000
601AL003012 6060002019370515560MONTGOMERY              ALA   060316070A002A18MB 32MB 12UN99 000000
601AL003012 6060002019370515560MONTGOMERY              ALA   070316070A001A24MB 19MB 12UN99 000000
601AL003012 6060002019370515560MONTGOMERY              ALA   070316070A002A37FW 19MB 90UN99 000000
601AL003012 6060002019370515560MONTGOMERY              ALA   080316070A001A44FB 22MB 12UN99 000000
601AL003012 6060002019370515560MONTGOMERY              ALA   080316070A002A58MB 17MB 12UN99 000000
601AL003012 6060002019370515560MONTGOMERY              ALA   080328071A003B50MB 00UU 12UN45 000000
601AL003012 6060002019370515560MONTGOMERY              ALA   080316070A004A43FB 38MB 12GF99 000000
601AL003012 6060002019370515560MONTGOMERY              ALA   090328071A001B00FB 00UU 40UN99 000000
601AL003012 6060002019370515560MONTGOMERY              ALA   090316070A002A30MW 32MB 12UN99 000000
601AL003012 6060002019370515560MONTGOMERY              ALA   120316070A001A27MB 18MB 12UN99 000000
601AL003012 6060002019370515560MONTGOMERY              ALA   120316070A002A51MB 00MB 12UN99 000000
601AL003012 6060002019370515560MONTGOMERY              ALA   120316070A003A42MB 19MB 40AQ45 000000
601AL003012 6060002019370515560MONTGOMERY              ALA   120316070A004A55MB 36FB 20BF45 000000
601AL003012 6060002019370515560MONTGOMERY              ALA   120316070A005A23MU 25MU 12UN99 000000
601AL004014 6060000303150015561PRATTVILLE              ALA   070316070A001A43MW 24MW 20AQ45 000000
601AL005035 606000011522002   0FOLEY                   ALA   070316070A001A19MW 29MB 12FR45 000000
601AL005126 606000005101002   0ORANGE BEACH            ALA   080316070A001A25MW 24MW 90AQ45 000000
601AL008009B6060000450210050981BLOUNT                  ALA   060323071A001B69MW 00UU 90UN99 000000
601AL010016 606000007168007   0GREENVILLE              ALA   010316070A001A31FB 67MB 14AQ99 000000
601AL011009B6060000528990080421CALHOUN                 ALA   040316070A001A44MW 41MW 14BR45 000000
601AL011015 6060000239560080420ANNISTON                ALA   010323071A001B21MB 00UU 40UN99 000000
601AL011015 6060000239560080420ANNISTON                ALA   040316070A001A22MB 50MB 12AQ45 000000
601AL011015 6060000239560080420ANNISTON                ALA   040316070A002A63FW 36FW 40MO45 000000
601AL011015 6060000239560080420ANNISTON                ALA   050316070A001A14MB 13MB 20BR45 000000
601AL011015 6060000239560080420ANNISTON                ALA   070316070A001A28FB 34MB 12UN45 000000
601AL011015 6060000239560080420ANNISTON                ALA   080316070A001A39MW 28FW 20BF45 000000
601AL011015 6060000239560080420ANNISTON                ALA   080316070A002A25FB 43MB 20WI45 000000
601AL011015 6060000239560080420ANNISTON                ALA   080323071A003B44MB 00UU 12UN99 000000
601AL011015 6060000239560080420ANNISTON                ALA   080316070A004A49MB 48MB 20UN99 000000
601AL011015 6060000239560080420ANNISTON                ALA   090316070A001A33MB 27FB 12BF45 000000
601AL011015 6060000239560080420ANNISTON                ALA   090316070A002A22MB 19MB 12UN18 000000
601AL011015 6060000239560080420ANNISTON                ALA   110316070A001A29MB 28MB 12AQ60 000000
601AL011015 6060000239560080420ANNISTON                ALA   110316070A002A55MW 42MW 20UN45 000000
601AL011015 6060000239560080420ANNISTON                ALA   110503071A003B50MB 00UU 40UN99 000000
601AL011026 6060000089420080421JACKSONVILLE            ALA   030316070A001A17MW 16MB 12UN45 000000
601AL011026 6060000089420080421JACKSONVILLE            ALA   110316070A001A72MW 76FW 12BF45 000000
601AL011026 6060000089420080421JACKSONVILLE            ALA   110316070A002A22MB 20MB 12AQ40 000000
601AL011055 6060000201620080420OXFORD                  ALA   020316070A001A39FB 40MB 12GF40 000000
601AL011077 6060000012220080421OHATCHEE                ALA   070316070A001A62MW 00MB 12UN99 000000
601AL012008C606000015911009   0CHAMBERS                ALA   090316070A001A25MW 36MW 12AQ45 000000
601AL012016 606000003130009   0LAFAYETTE               ALA   030323071A001B49MB 00UU 14UN99 000000
601AL012016 606000003130009   0LAFAYETTE               ALA   060316070A001A21MB 20MB 12AQ99 000000
601AL014016 6060000084110110981CLANTON                 ALA   030316070A001A29FW 28MW 12GF45 000000
601AL014016 6060000084110110981CLANTON                 ALA   120316070A001A20MB 28MB 12AQ99 000000
601AL016026 606000004593013   0THOMASVILLE             ALA   070316070A001A27MB 16MB 12AQ99 000000
601AL016026 606000004593013   0THOMASVILLE             ALA   090316070A001A24MB 31MB 12AQ99 000000
601AL020016 6060000093110172781SHEFFIELD               ALA   110316070A001A20MB 27MB 12OF45 000000
601AL021016 606000003473018   0EVERGREEN               ALA   070323071A001B74MW 00UU 90UN99 000000
601AL022008D606000009346019   0COOSA                   ALA   070323071A001B40MW 00UU 14UN05 000000
601AL022008D606000009346019   0COOSA                   ALA   100501071A001A59FW 00MU 14WI60 000000
601AL022008D606000009346019   0COOSA                   ALA   120316070A001A24FB 32MB 12WI45 000000
601AL023037 606000001910020   0FLORALA                 ALA   010316070A001A30MB 24MB 20AQ45 000000
601AL025008B606000062569022   0CULLMAN                 ALA   100316070A001A37FW 48MW 40WI99 000000
601AL025008B606000062569022   0CULLMAN                 ALA   110316070A001A51MW 34MW 12AQ44 000000
601AL027008B606000025191024   0DALLAS                  ALA   020316070A001A66MB 52MB 12OF45 000000
601AL027015 606000019576024   0SELMA                   ALA   010316070A001A19MB 18MB 12AQ45 000000
601AL027015 606000019576024   0SELMA                   ALA   030316070A001A25FB 37MB 12SD40 000000
601AL027015 606000019576024   0SELMA                   ALA   100501071A001A28MB 25MB 12AQ44 000000
601AL028008B606000038779025   0DE KALB                 ALA   010316070A001A51MW 63MW 14FR99 000000
601AL029009B6060000453600265561ELMORE                  ALA   060316070A001A35MB 21MB 12UN99 000000
601AL029009B6060000453600265561ELMORE                  ALA   060316070A002A37MW 19MW 12FR99 000000
601AL030047 606000001574027   0FLOMATON                ALA   050323071A001B45MW 00UU 20UN45 000000
601AL031009B6060000308040283031ETOWAH                  ALA   010316070A001A26FW 26MW 90GF45 000000
601AL031009B6060000308040283031ETOWAH                  ALA   080316070A001A46FW 41MW 12SI99 000000
601AL031009B6060000308040283031ETOWAH                  ALA   080316070A002A34MW 41MW 12IL99 000000
601AL031016 6060000065330283031ATTALLA                 ALA   050316070A001A33MW 32MW 90UN99 000000
601AL031024 6060000377430283030GADSDEN                 ALA   010316070A001A36MW 39FW 90UN99 000000
601AL031024 6060000377430283030GADSDEN                 ALA   040323071A001B01MB 00UU 90UN41 000000
601AL033008C606000017511030   0FRANKLIN                ALA   090316070A001A54MW 29MW 40AQ99 000000
601AL035009D6060000079320329151GREENE                  ALA   050316070A001A50MW 18MW 90NE99 000000
601AL035009D6060000079320329151GREENE                  ALA   100316070A001A52MB 29MB 12FA99 000000
601AL036009C6060000139680339151HALE                    ALA   080316070A001A38FW 42MW 12WI45 000000
601AL036009C6060000139680339151HALE                    ALA   100316070A001A30MB 00MB 12AQ99 000000
601AL038013 6060000632800352270DOTHAN                  ALA   020316070A001A45MB 39MB 20AQ99 000000
601AL038013 6060000632800352270DOTHAN                  ALA   040316070A001A20MB 17MB 12UN99 000000
601AL038013 6060000632800352270DOTHAN                  ALA   040316070A002A24MB 24MB 12UN99 000000
601AL038013 6060000632800352270DOTHAN                  ALA   070316070A001A38MW 57MW 14UN99 000000
601AL038013 6060000632800352270DOTHAN                  ALA   070316070A002A21MB 20MB 12UN99 000000
601AL038013 6060000632800352270DOTHAN                  ALA   080316070A002A21MB 22MB 12UN99 000000
601AL038013 6060000632800352270DOTHAN                  ALA   080316070A003A39MB 28MB 12UN99 000000
601AL039008B606000030263036   0JACKSON                 ALA   080316070A001A49MB 33MW 12AQ45 000000
601AL039008B606000030263036   0JACKSON                 ALA   100316070A001A00MW 32MW 90EE99 000000
601AL039008B606000030263036   0JACKSON                 ALA   100316070A002A71FW 32MW 90AQ99 000000
601AL039015 606000014974036   0SCOTTSBORO              ALA   050316070A001A39MW 00MW 12AQ99 000000
601AL039015 606000014974036   0SCOTTSBORO              ALA   120316070A001A41FW 00MW 12UN99 000000
601AL042009B6060000282190402101LAWRENCE                ALA   020503071A001B54MW 00UU 12UN99 000000
601AL042009B6060000282190402101LAWRENCE                ALA   040323071A001B24MB 00UU 12UN99 000000
601AL043009B6060000476450410571LEE                     ALA   020316070A001A50MW 49FW 12IL45 000000
601AL043009B6060000476450410571LEE                     ALA   060316070A001A59FB 31MB 12AQ99 000000
601AL043013 6060000503800410570AUBURN                  ALA   010316070A001A23MB 24MB 12OF99 000000
601AL043013 6060000503800410570AUBURN                  ALA   040316070A001A72MB 23MB 12UN99 000000
601AL043013 6060000503800410570AUBURN                  ALA   050316070A001A60MB 22MB 40IL45 000000
601AL043013 6060000503800410570AUBURN                  ALA   070323071A001B33MB 00UU 12UN99 000000
601AL043025 6060000240190410570OPELIKA                 ALA   050403071A001B38MB 00UU 12UN99 000000
601AL043025 6060000240190410570OPELIKA                 ALA   110316070A001A31MB 20MB 12AQ45 000000
601AL043025 6060000240190410570OPELIKA                 ALA   110316070A002A29FB 50MB 90GF45 000000
601AL044015 6060000211620423681ATHENS                  ALA   090316070A001A25MW 26MW 20AQ45 000000
601AL044015 6060000211620423681ATHENS                  ALA   120316070A001A64MB 20MB 12AQ45 000000
601AL045009C6060000109590435561LOWNDES                 ALA   080316070A001A38MB 38FB 14BF45 000000
601AL045027 6060000011510435561HAYNEVILLE              ALA   060316070A001A66MW 42MB 12SF45 000000
601AL046015 606000011695044   0TUSKEGEE                ALA   040323071A001B36MB 00UU 12UN45 000000
601AL046015 606000011695044   0TUSKEGEE                ALA   040316070A002A36MB 21MB 12UN45 000000
601AL047009B6060000923170453681MADISON                 ALA   120316070A001A30MW 00MW 12UN99 000000
601AL047012 6060001678170453680HUNTSVILLE              ALA   020316070A001A47FB 37MB 90GF99 000000
601AL047012 6060001678170453680HUNTSVILLE              ALA   030328071A001B19MB 00UU 12UN45 000000
601AL047012 6060001678170453680HUNTSVILLE              ALA   040316070A001A22FW 29MW 90UN99 000000
601AL047012 6060001678170453680HUNTSVILLE              ALA   040328071A002B45FW 00UU 90UN99 000000
601AL047012 6060001678170453680HUNTSVILLE              ALA   050328071A001B62MB 00UU 90UN03 000000
601AL047012 6060001678170453680HUNTSVILLE              ALA   060316070A001A26MB 19MB 12UN99 000000
601AL047012 6060001678170453680HUNTSVILLE              ALA   060328071A002B45FW 00UU 12UN99 000000
601AL047012 6060001678170453680HUNTSVILLE              ALA   060316070A003A14FB 15MB 90FR99 000000
601AL047012 6060001678170453680HUNTSVILLE              ALA   080328071A001B00FW 00UU 40UN41 000000
601AL047012 6060001678170453680HUNTSVILLE              ALA   090328071A001B37MW 00UU 20UN99 000000
601AL047012 6060001678170453680HUNTSVILLE              ALA   100316070A001A17MB 17MB 12UN99 000000
601AL047012 6060001678170453680HUNTSVILLE              ALA   110316070A001A27MB 27FB 20HU99 000000
601AL047012 6060001678170453680HUNTSVILLE              ALA   110316070A002A27MW 21MW 12AQ99 000000
601AL047012 6060001678170453680HUNTSVILLE              ALA   120316070A001A21MB 21MB 12ST99 000000
601AL047012 6060001678170453680HUNTSVILLE              ALA   120316070A002A27MB 21MB 12ST99 000000
601AL047012 6060001678170453680HUNTSVILLE              ALA   120316070A003A20MB 18FB 20UN99 000000
601AL050026 606000007791048   0GUNTERSVILLE            ALA   030316070A001A24FW 36MB 12CW45 000000
601AL050046 606000007964048   0BOAZ                    ALA   120316070A001A27MW 00MW 20AQ99 000000
601AL052009B6060000406890522101MORGAN                  ALA   080316070A001A55FW 61MW 12WI45 000000
601AL052009B6060000406890522101MORGAN                  ALA   080316070A002A36MW 59MW 20BR45 000000
601AL052013 6060000554060522100DECATUR                 ALA   010316070A001A27FW 45MW 90GF45 000000
601AL052013 6060000554060522100DECATUR                 ALA   040316070A001A00MW 47MW 12AQ45 000000
601AL052025 6060000131980522101HARTSELLE               ALA   050316070A001A72MW 46MW 12FA45 000000
601AL053008D606000006481053   0PERRY                   ALA   010316070A001A26FW 20MW 12CW99 000000
601AL053008D606000006481053   0PERRY                   ALA   060316070A001A55MW 62MW 14NE99 000000
601AL054017 606000002487054   0ALICEVILLE              ALA   050316070A001A00MB 00MB 12AQ99 000000
601AL056016 606000006710056   0ROANOKE                 ALA   040316070A001A35FW 48MB 12GF45 000000
601AL057014 6060000297260571841PHENIX CITY             ALA   040316070A001A21MB 27UU 12AQ45 000000
601AL057014 6060000297260571841PHENIX CITY             ALA   040316070A002A72FB 24MB 20OF45 000000
601AL058009B6060000358390580981ST. CLAIR               ALA   090316070A001A36FW 37MW 14WI45 000000
601AL059009B6060000752170590981SHELBY                  ALA   040323071A001B26MB 00UU 12UN99 000000
601AL059009B6060000752170590981SHELBY                  ALA   040323071A002B25FB 00UU 12UN99 000000
601AL059065 6060000196260590981PELHAM                  ALA   080316070A001A31FW 00MW 12WI45 000000
601AL060016 606000002649060   0YORK                    ALA   100316070A001A51MB 33MB 90AQ99 000000
601AL061008B606000038152061   0TALLADEGA               ALA   020316070A001A62MW 48MW 12EE99 000000
601AL061025 606000017304061   0TALLADEGA               ALA   030316070A001A19MB 00MB 14AQ45 000000
601AL061025 606000017304061   0TALLADEGA               ALA   050316070A001A34MB 30MB 12AQ99 000000
601AL061025 606000017304061   0TALLADEGA               ALA   070316070A001A21FB 15MB 12AQ99 000000
601AL061025 606000017304061   0TALLADEGA               ALA   100316070A001A22MW 17MW 12UN99 000000
601AL061036 606000005045061   0CHILDERSBURG            ALA   110323071A001B38MB 00UU 12UN99 000000
601AL063009B6060000644270639151TUSCALOOSA              ALA   020118081A001B18MB 00UU 14UN40 000000
601AL063009B6060000644270639151TUSCALOOSA              ALA   020316070A002A56MW 18MB 14ST40 000000
601AL063009B6060000644270639151TUSCALOOSA              ALA   070316070A001A44MW 37MW 12UN99 000000
601AL063009B6060000644270639151TUSCALOOSA              ALA   070316070A002A53FW 50MW 12GF45 000000
601AL063009B6060000644270639151TUSCALOOSA              ALA   080316070A001A74MW 00MW 40UN03 000000
601AL063013 6060000820940639150TUSCALOOSA              ALA   020316070A001A41MB 22FB 12ST45 000000
601AL063013 6060000820940639150TUSCALOOSA              ALA   030316070A001A34MB 25MB 20ST99 000000
601AL063013 6060000820940639150TUSCALOOSA              ALA   030316070A002A49MB 25MB 20AQ99 000000
601AL063013 6060000820940639150TUSCALOOSA              ALA   050316070A001A28MB 00MB 12ST45 000000
601AL063013 6060000820940639150TUSCALOOSA              ALA   060316070A001A27MB 40MB 12AQ45 000000
601AL063013 6060000820940639150TUSCALOOSA              ALA   060316070A002A43MU 19MB 12ST45 000000
601AL063013 6060000820940639150TUSCALOOSA              ALA   090316070A001A19MW 19MW 90FR99 000000
601AL063013 6060000820940639150TUSCALOOSA              ALA   090316070A002A16MB 19MB 12ST45 000000
601AL063013 6060000820940639150TUSCALOOSA              ALA   100316070A001A47MB 31MB 12ST99 000000
601AL063013 6060000820940639150TUSCALOOSA              ALA   100316070A002A19MB 23MB 12AQ99 000000
601AL063013 6060000820940639150TUSCALOOSA              ALA   100323071A003B27MB 00UU 12UN99 000000
601AL063013 6060000820940639150TUSCALOOSA              ALA   100323071A004B29MB 00UU 12UN99 000000
601AL063013 6060000820940639150TUSCALOOSA              ALA   100316070A005A22MB 28MB 12AQ99 000000
601AL063013 6060000820940639150TUSCALOOSA              ALA   100316070A006A48MW 68MW 12AQ45 000000
601AL063013 6060000820940639150TUSCALOOSA              ALA   100316070A007A21MW 25FB 12ST45 000000
601AL063025 6060000214080639151NORTHPORT               ALA   060323071A001B17MW 00UU 12UN99 000000
601AL064015 6060000142150640981JASPER                  ALA   070323071A001B25MB 00UU 12UN99 000000
601AL064056 6060000026050640981SUMITON                 ALA   030323071A001B31MW 00UU 12UN99 000000
601AL066008D606000009875066   0WILCOX                  ALA   010316070A001A46MB 50FB 20HU45 000000
602AZ002094 806000043510002   0SIERRA VISTA            ARIZ  120402070A001A27MWH21MWN13AQ03 000000
602AZ003013 8060000595850032750FLAGSTAFF               ARIZ  051213060A001A43FWN37MWN30GF45 000000
602AZ003013 8060000595850032750FLAGSTAFF               ARIZ  060119070A001A61FWN64MWN14WI60 000000
602AZ003013 8060000595850032750FLAGSTAFF               ARIZ  080223070A001ANBMWH16FWH40SO60 000000
602AZ004008B806000027641004   0GILA                    ARIZ  020326070A001A14FWH29MWH12GF45 000000
602AZ004065 806000015292004   0PAYSON                  ARIZ  120402070A001CBBMWN19MWN40SO60 000001                                                  18FWN40SO60
602AZ005056 806000004279005   0THATCHER                ARIZ  120402070A001A02MWN37FWN85SO60 000000
602AZ007009A8060003216510076621MARICOPA                ARIZ  011121060A001C45MAN19MBN20ST03 000001                                                  20MWN20ST03
602AZ007009A8060003216510076621MARICOPA                ARIZ  060119070A001A18MWN18MWN20ST45 000000
602AZ007009A8060003216510076621MARICOPA                ARIZ  070202070A001B21MWH00UUU12UN99 000000
602AZ007009A8060003216510076621MARICOPA                ARIZ  070202070A002B26MWH00UUU12UN26 000000
602AZ007009A8060003216510076621MARICOPA                ARIZ  080223070A001F46MWN00UUU12UN99 00100047MWN
602AZ007009A8060003216510076621MARICOPA                ARIZ  080223070A002A24MWN41MWN70AQ60 000000
602AZ007009A8060003216510076621MARICOPA                ARIZ  080223070A003B51MWN00UUU12UN05 000000
602AZ007009A8060003216510076621MARICOPA                ARIZ  080223070A004C57MWN18MWH40ST03 000004                                                  26MWH40ST03 23FWH40ST03 20MWH40ST03 40FWH40ST03
602AZ007009A8060003216510076621MARICOPA                ARIZ  080223070A005B30MWN00UUU20UN99 000000
602AZ007009A8060003216510076621MARICOPA                ARIZ  090306070A001C24MWN30MWN12ST60 000001                                                  38MWN12ST60
602AZ007009A8060003216510076621MARICOPA                ARIZ  100315070A001A18FWH18MWH12FR03 000000
602AZ007009A8060003216510076621MARICOPA                ARIZ  100315070A002A62FWN74MWN12WI60 000000
602AZ007009A8060003216510076621MARICOPA                ARIZ  110326070A001D63MWH34MWH12OK26 00100017MWN
602AZ007009A8060003216510076621MARICOPA                ARIZ  110326070A002A54MWN60FWN12ST60 000000
602AZ007009A8060003216510076621MARICOPA                ARIZ  110326070A003B46MWH00UUU20UN99 000000
602AZ007009A8060003216510076621MARICOPA                ARIZ  110326070A004B24MWN00UUU12UN99 000000
602AZ007009A8060003216510076621MARICOPA                ARIZ  110326070A005D27MWH22MWH12OF45 00100019MWH
602AZ007009A8060003216510076621MARICOPA                ARIZ  110326070A006B45MWN00UUU12UN99 000000
602AZ007009A8060003216510076621MARICOPA                ARIZ  120402070A001A20FWH24MWH80GF60 000000
602AZ007009A8060003216510076621MARICOPA                ARIZ  120402070A002A25MWN26MWN20FR42 000000
602AZ007009A8060003216510076621MARICOPA                ARIZ  120402070A003A38MWH28MWH12AQ45 000000
602AZ007009A8060003216510076621MARICOPA                ARIZ  120402070A004A29MWH33MWH12ST26 000000
602AZ007052 8060002439190076620CHANDLER                ARIZ  010616060A001A28MWH21MWH12OF45 000000
602AZ007052 8060002439190076620CHANDLER                ARIZ  021106061A001B18MW 00UU 13UN99 000000
602AZ007052 8060002439190076620CHANDLER                ARIZ  020907060A002A24MWH33MWH12FR60 000000
602AZ007052 8060002439190076620CHANDLER                ARIZ  070202070A001A46MWN41MWN12IL60 000000
602AZ007052 8060002439190076620CHANDLER                ARIZ  080423071A001B20MW 00UU 12UN99 000000
602AZ007052 8060002439190076620CHANDLER                ARIZ  110326070A001A19MWN31MWN12NE45 000000
602AZ007052 8060002439190076620CHANDLER                ARIZ  110402071A002A21MW 00MU 12AQ03 000000
602AZ007052 8060002439190076620CHANDLER                ARIZ  120402070A001B19FBN00UUU12UN99 000000
602AZ007052 8060002439190076620CHANDLER                ARIZ  120402070A002BBBFWH00UUU70UN99 000000
602AZ007075 8060000230180076621EL MIRAGE               ARIZ  090306070A001A37MWH25MWH12ST60 000000
602AZ007075 8060000230180076621EL MIRAGE               ARIZ  090306070A002C38MWH17MWH20ST42 000001                                                  42MWH20ST42
602AZ007112 8060001806400076620GILBERT                 ARIZ  041121060A001C40MBN34FBN90HU60 000001                                                  54MBN90IL60
602AZ007112 8060001806400076620GILBERT                 ARIZ  060119070A001A15FWN40MWN12AQ60 000000
602AZ007112 8060001806400076620GILBERT                 ARIZ  110326070A001C26MWN17MWH12ST03 000002                                                  18MWN12ST03 20MWH12ST03
602AZ007132 8060002485870076620GLENDALE                ARIZ  010616060A001A31FWH34MWH12WI45 000000
602AZ007132 8060002485870076620GLENDALE                ARIZ  010119071A002A28MWH26MWH12ST45 000000
602AZ007132 8060002485870076620GLENDALE                ARIZ  020907060A001A18MWH20MWH12ST60 000000
602AZ007132 8060002485870076620GLENDALE                ARIZ  020907060B002A34MBN24MWH30FR59 000000
602AZ007132 8060002485870076620GLENDALE                ARIZ  031025060A001B36MWN00UUU12UN99 000000
602AZ007132 8060002485870076620GLENDALE                ARIZ  031025060A002B22MWH00UUU11UN99 000000
602AZ007132 8060002485870076620GLENDALE                ARIZ  031025060A003A20MWH32MWN20AQ45 000000
602AZ007132 8060002485870076620GLENDALE                ARIZ  041121060B001A44FIN41FWH70AQ59 000000
602AZ007132 8060002485870076620GLENDALE                ARIZ  050119071A001A39FBN43MWH20AQ18 000000
602AZ007132 8060002485870076620GLENDALE                ARIZ  051213060A002B23MWH00UUU12UN99 000000
602AZ007132 8060002485870076620GLENDALE                ARIZ  060119070A001A49MBN21MBN30AQ45 000000
602AZ007132 8060002485870076620GLENDALE                ARIZ  060119070A002A23MWH19MWH12AQ46 000000
602AZ007132 8060002485870076620GLENDALE                ARIZ  060119070A003C33MWH18MWH12AQ18 000002                                                  19MWH12AQ18 31MWH12AQ18
602AZ007132 8060002485870076620GLENDALE                ARIZ  080223070A001F18MWH00UUU12UN99 00100025MWH
602AZ007132 8060002485870076620GLENDALE                ARIZ  080223070A002B41MWH00UUU12UN99 000000
602AZ007132 8060002485870076620GLENDALE                ARIZ  100315070A001B26MWH00UUU12UN99 000000
602AZ007132 8060002485870076620GLENDALE                ARIZ  100315070A002A49FWH59MBN20WI45 000000
602AZ007132 8060002485870076620GLENDALE                ARIZ  110326070A001A34MBN25MBN12AQ03 000000
602AZ007132 8060002485870076620GLENDALE                ARIZ  110326070A002A22MBN29MBN12AQ03 000000
602AZ007132 8060002485870076620GLENDALE                ARIZ  120402070A001B33MBN00UUU12UN99 000000
602AZ007132 8060002485870076620GLENDALE                ARIZ  120402070A002A17FWH34MWH12SD60 000000
602AZ007132 8060002485870076620GLENDALE                ARIZ  120402070A003C28FWH19MWH13AQ03 000001                                                  17MWH13AQ03
602AZ007132 8060002485870076620GLENDALE                ARIZ  120402070A004A16MWN22MWH12AQ80E000000
602AZ007171C8060004597050076620MESA                    ARIZ  010616060A001B37MWH00UUU12UN99 000000
602AZ007171C8060004597050076620MESA                    ARIZ  020907060A001A50MWN21MWN12ST45 000000
602AZ007171C8060004597050076620MESA                    ARIZ  020912061A002E10MW 28MW 12UN60 00400116FW 18MW 30MW 32FW                               00MU 12UN60
602AZ007171C8060004597050076620MESA                    ARIZ  020907060A003C28MBN00MBN11ST99 000001                                                  00MBN11ST99
602AZ007171C8060004597050076620MESA                    ARIZ  031025060A001B30MBN00UUU12UN99 000000
602AZ007171C8060004597050076620MESA                    ARIZ  031025060A002B48FWN00UUU30UN99 000000
602AZ007171C8060004597050076620MESA                    ARIZ  031025060A003A32FBN60MBN20OK45 000000
602AZ007171C8060004597050076620MESA                    ARIZ  031025060A004C25FWH20MWH12ST60 000001                                                  20MWH12ST60
602AZ007171C8060004597050076620MESA                    ARIZ  041121060A001A10MWN45FWN40SO60 000000
602AZ007171C8060004597050076620MESA                    ARIZ  041121060A002A53MWH62MBN12ST60 000000
602AZ007171C8060004597050076620MESA                    ARIZ  041121060A003C62MBN37MWN12ST81E000002                                                  39MWN12ST81E31MWN12ST81E
602AZ007171C8060004597050076620MESA                    ARIZ  051213060A001B19MWH00UUU12UN99 000000
602AZ007171C8060004597050076620MESA                    ARIZ  051213060A002A36FAN41MAN12XW45 000000
602AZ007171C8060004597050076620MESA                    ARIZ  051213060A003A37MWH24MWH13ST60 000000
602AZ007171C8060004597050076620MESA                    ARIZ  060119070A001F28MBN00UUU12UN99 00100026MBN
602AZ007171C8060004597050076620MESA                    ARIZ  060119070A002A19MWN45FWN12SO45 000000
602AZ007171C8060004597050076620MESA                    ARIZ  060119070A003C47MWN21MWN12ST81A000002                                                  33MWN12ST81A34MWN12ST81A
602AZ007171C8060004597050076620MESA                    ARIZ  070202070A001A30MWH00MBN12AQ60 000000
602AZ007171C8060004597050076620MESA                    ARIZ  070202070A002A22FWN33MWN14ST60 000000
602AZ007171C8060004597050076620MESA                    ARIZ  080223070A001A25MWH00MWH12ST44 000000
602AZ007171C8060004597050076620MESA                    ARIZ  080223070A002A39MIN25MWH20ST45 000000
602AZ007171C8060004597050076620MESA                    ARIZ  080223070A003C35MWN31MWN12ST81A000001                                                  30MWN12ST81A
602AZ007171C8060004597050076620MESA                    ARIZ  090423071A001B00MW 00UU 20UN99 000000
602AZ007171C8060004597050076620MESA                    ARIZ  110326070A001B22FWN00UUU20UN99 000000
602AZ007212 8060001434830076620PEORIA                  ARIZ  030223070A001A17MWH34MWH30OK45 000000
602AZ007212 8060001434830076620PEORIA                  ARIZ  060119070A001A01MWN35MWN40SO60 000000
602AZ007231A8060015174430076620PHOENIX                 ARIZ  010616060A001B25FWH00UUU12UN99 000000
602AZ007231A8060015174430076620PHOENIX                 ARIZ  010616060A002A41MWH00MUU12ST18 000000
602AZ007231A8060015174430076620PHOENIX                 ARIZ  010616060A003A54MIN30MIN20AQ03 000000
602AZ007231A8060015174430076620PHOENIX                 ARIZ  010616060A004A40MWN22MWH12AQ60 000000
602AZ007231A8060015174430076620PHOENIX                 ARIZ  010616060A005C34MBN00MWH12ST99 000002                                                  00MWH12ST99 00MWH12ST99
602AZ007231A8060015174430076620PHOENIX                 ARIZ  010616060A006D40MWH00MWH12ST99 00100031MWH
602AZ007231A8060015174430076620PHOENIX                 ARIZ  010616060A007B27MWH00UUU11UN99 000000
602AZ007231A8060015174430076620PHOENIX                 ARIZ  010616060A008B20MWH00UUU12UN03 000000
602AZ007231A8060015174430076620PHOENIX                 ARIZ  010616060A009B00MWH00UUU11UN99 000000
602AZ007231A8060015174430076620PHOENIX                 ARIZ  010616060A010C20MBN00MBN12AQ60 000001                                                  00MBN12AQ60
602AZ007231A8060015174430076620PHOENIX                 ARIZ  010616060A011A20MWH00MBN12ST03 000000
602AZ007231A8060015174430076620PHOENIX                 ARIZ  010616060A012B22MWH00UUU12UN99 000000
602AZ007231A8060015174430076620PHOENIX                 ARIZ  010616060A013B21MWH00UUU12UN99 000000
602AZ007231A8060015174430076620PHOENIX                 ARIZ  010616060A014B00MWH00UUU11UN99 000000
602AZ007231A8060015174430076620PHOENIX                 ARIZ  010616060A015A22MBN00MBN12ST60 000000
602AZ007231A8060015174430076620PHOENIX                 ARIZ  010616060A016A56FWN59MWN14AQ45 000000
602AZ007231A8060015174430076620PHOENIX                 ARIZ  010616060A017A32MWH00MWH12ST03 000000
602AZ007231A8060015174430076620PHOENIX                 ARIZ  010616060A018B35MWH00UUU90UN99 000000
602AZ007231A8060015174430076620PHOENIX                 ARIZ  010616060A019A17MWH00MWH13ST60 000000
602AZ007231A8060015174430076620PHOENIX                 ARIZ  010616060A020C31MWH27MWH13FR18 000001                                                  32MWH13FR18
602AZ007231A8060015174430076620PHOENIX                 ARIZ  010616060A021B26MWH00UUU90UN99 000000
602AZ007231A8060015174430076620PHOENIX                 ARIZ  010616060A022A20MWN36MWN12ST81A000000
602AZ007231A8060015174430076620PHOENIX                 ARIZ  020907060A001A15MWH14FWN12AQ60 000000
602AZ007231A8060015174430076620PHOENIX                 ARIZ  020907060A002A28MWH42FWH12BF60 000000
602AZ007231A8060015174430076620PHOENIX                 ARIZ  020907060A003B50MWN00UUU20UN99 000000
602AZ007231A8060015174430076620PHOENIX                 ARIZ  020907060A004A54MBN60MBN12OF60 000000
602AZ007231A8060015174430076620PHOENIX                 ARIZ  020907060A005A51MBN45MWN40NE45 000000
602AZ007231A8060015174430076620PHOENIX                 ARIZ  020907060A006D35MWH00MWH12ST99 00100027MWH
602AZ007231A8060015174430076620PHOENIX                 ARIZ  020907060A007B20MWH00UUU12UN46 000000
602AZ007231A8060015174430076620PHOENIX                 ARIZ  020907060A008F23FWH00UUU12UN99 00100038FWH
602AZ007231A8060015174430076620PHOENIX                 ARIZ  020907060A009B40MBN00UUU85UN99 000000
602AZ007231A8060015174430076620PHOENIX                 ARIZ  020907060A010B20MIN00UUU12UN99 000000
602AZ007231A8060015174430076620PHOENIX                 ARIZ  020907060A011B39MWH00UUU20UN99 000000
602AZ007231A8060015174430076620PHOENIX                 ARIZ  020907060A012C19MWH19MWH12ST42 000001                                                  23MWH12ST42
602AZ007231A8060015174430076620PHOENIX                 ARIZ  020907060A013A22MWH28MWH12FR99 000000
602AZ007231A8060015174430076620PHOENIX                 ARIZ  021002061A014C37FW 29MW 12ST81A000004                                                  25MW 12ST81A37MW 12ST81A33MW 12ST81A30MW 12ST81A
602AZ007231A8060015174430076620PHOENIX                 ARIZ  020402071A015A62MW 53MB 12AQ80E000000
602AZ007231A8060015174430076620PHOENIX                 ARIZ  020907060B016A16MWN18MWN13FR53 000000
602AZ007231A8060015174430076620PHOENIX                 ARIZ  031025060A001A44FWN58MWH40WI45 000000
602AZ007231A8060015174430076620PHOENIX                 ARIZ  031025060A002B26MWH00UUU11UN99 000000
602AZ007231A8060015174430076620PHOENIX                 ARIZ  031025060A003A23FBN26FBN12AQ99 000000
602AZ007231A8060015174430076620PHOENIX                 ARIZ  031025060A004B24MWH00UUU12UN99 000000
602AZ007231A8060015174430076620PHOENIX                 ARIZ  031025060A005A19MWH18MWH12AQ60 000000
602AZ007231A8060015174430076620PHOENIX                 ARIZ  031025060A006B20FWH00UUU12UN99 000000
602AZ007231A8060015174430076620PHOENIX                 ARIZ  031025060A007A22MWH00MWH12AQ60 000000
602AZ007231A8060015174430076620PHOENIX                 ARIZ  031025060A008A37FWH44MWH12WI45 000000
602AZ007231A8060015174430076620PHOENIX                 ARIZ  031025060A009C26MWH00MBN12UN03 000002                                                  00MBN12UN03 00MBN12UN03
602AZ007231A8060015174430076620PHOENIX                 ARIZ  031025060A010B37MBN00UUU12UN99 000000
602AZ007231A8060015174430076620PHOENIX                 ARIZ  031025060A011C22MWH00MWH12UN99 000002                                                  00MWH12UN99 00MWH12UN99
602AZ007231A8060015174430076620PHOENIX                 ARIZ  031025060A012A22MBN00MWH12ST99 000000
602AZ007231A8060015174430076620PHOENIX                 ARIZ  031025060A013B16MWH00UUU12UN99 000000
602AZ007231A8060015174430076620PHOENIX                 ARIZ  031025060A014B20MWH00UUU12UN18 000000
602AZ007231A8060015174430076620PHOENIX                 ARIZ  031025060A015B33MBN00UUU11UN03 000000
602AZ007231A8060015174430076620PHOENIX                 ARIZ  031025060A016D61MWH00MWH12ST03 00100040MWN
602AZ007231A8060015174430076620PHOENIX                 ARIZ  031025060A017B23MWH00UUU12UN99 000000
602AZ007231A8060015174430076620PHOENIX                 ARIZ  031025060A018C21MWH00MWH11ST45 000001                                                  00MWH11ST45
602AZ007231A8060015174430076620PHOENIX                 ARIZ  031025060A019B19MWH00UUU12UN03 000000
602AZ007231A8060015174430076620PHOENIX                 ARIZ  031025060A020A34MWH23MAN12ST80E000000
602AZ007231A8060015174430076620PHOENIX                 ARIZ  041121060A001B22MWH00UUU12UN99 000000
602AZ007231A8060015174430076620PHOENIX                 ARIZ  041121060A002A17MBN19MWH12AQ47 000000
602AZ007231A8060015174430076620PHOENIX                 ARIZ  041121060A003A30MWH46MWH20FR45 000000
602AZ007231A8060015174430076620PHOENIX                 ARIZ  041121060A004B26FBN00UUU11UN99 000000
602AZ007231A8060015174430076620PHOENIX                 ARIZ  041121060A005A34MWN46MWN14ST45 000000
602AZ007231A8060015174430076620PHOENIX                 ARIZ  041121060A006B23FBN00UUU20UN99 000000
602AZ007231A8060015174430076620PHOENIX                 ARIZ  041121060A007A42MWN00MWH12UN03 000000
602AZ007231A8060015174430076620PHOENIX                 ARIZ  041121060A008A48MWN53MWN12AQ45 000000
602AZ007231A8060015174430076620PHOENIX                 ARIZ  041121060A009B37FWH00UUU11UN99 000000
602AZ007231A8060015174430076620PHOENIX                 ARIZ  041121060A010A33MWH52MWH20FR99 000000
602AZ007231A8060015174430076620PHOENIX                 ARIZ  041121060A011A19MWH26FWH12BF45 000000
602AZ007231A8060015174430076620PHOENIX                 ARIZ  041121060A012B27MWH00UUU12UN03 000000
602AZ007231A8060015174430076620PHOENIX                 ARIZ  041121060A013B18MWH00UUU12UN99 000000
602AZ007231A8060015174430076620PHOENIX                 ARIZ  041121060A014A41MWN48FWN12HU40 000000
602AZ007231A8060015174430076620PHOENIX                 ARIZ  041121060A015A31MWH29MWH13AQ45 000000
602AZ007231A8060015174430076620PHOENIX                 ARIZ  041130061A016E25MW 34MW 13ST18 00100133MW                                              34MW 13ST18
602AZ007231A8060015174430076620PHOENIX                 ARIZ  041121060A017A16MWH00MWH14ST99 000000
602AZ007231A8060015174430076620PHOENIX                 ARIZ  041121060A018B24MWH00UUU11UN99 000000
602AZ007231A8060015174430076620PHOENIX                 ARIZ  041121060A019A70FWN76MWH12WI60 000000
602AZ007231A8060015174430076620PHOENIX                 ARIZ  041121060A020B23MWH00UUU12AQ18 000000
602AZ007231A8060015174430076620PHOENIX                 ARIZ  041121060A021A18FBN17MWH12ST60 000000
602AZ007231A8060015174430076620PHOENIX                 ARIZ  041121060A022B20MWN00UUU12UN03 000000
602AZ007231A8060015174430076620PHOENIX                 ARIZ  041121060A023A46MWN57MWN20AQ99 000000
602AZ007231A8060015174430076620PHOENIX                 ARIZ  041121060A024A00MWH24MWN12ST80E000000
602AZ007231A8060015174430076620PHOENIX                 ARIZ  051213060A001B25MBN00UUU12UN99 000000
602AZ007231A8060015174430076620PHOENIX                 ARIZ  051213060A002C25MWH20MWH14ST99 000001                                                  28MWH14ST99
602AZ007231A8060015174430076620PHOENIX                 ARIZ  051213060A003A32MWN26MBN12AQ45 000000
602AZ007231A8060015174430076620PHOENIX                 ARIZ  051213060A004A24MWH24MWH20OF45 000000
602AZ007231A8060015174430076620PHOENIX                 ARIZ  051213060A005A62MWN51MWN12OK45 000000
602AZ007231A8060015174430076620PHOENIX                 ARIZ  051213060A006B29MWH00UUU11UN99 000000
602AZ007231A8060015174430076620PHOENIX                 ARIZ  051213060A007A47MWN46MBN20UN45 000000
602AZ007231A8060015174430076620PHOENIX                 ARIZ  051213060A008B39MWH00UUU12UN99 000000
602AZ007231A8060015174430076620PHOENIX                 ARIZ  051213060A009B29MWH00UUU12UN45 000000
602AZ007231A8060015174430076620PHOENIX                 ARIZ  051213060A010B39MWN00UUU12AQ18 000000
602AZ007231A8060015174430076620PHOENIX                 ARIZ  051213060A011B17MWH00UUU14UN42 000000
602AZ007231A8060015174430076620PHOENIX                 ARIZ  051213060A012B57MWN00UUU30UN99 000000
602AZ007231A8060015174430076620PHOENIX                 ARIZ  051213060A013B28MBN00UUU12UN99 000000
602AZ007231A8060015174430076620PHOENIX                 ARIZ  051213060A014B37MWH00UUU11UN99 000000
602AZ007231A8060015174430076620PHOENIX                 ARIZ  051213060A015A30MWH29MBN20AQ80C000000
602AZ007231A8060015174430076620PHOENIX                 ARIZ  051213060A016A28MBN34MWN12ST80C000000
602AZ007231A8060015174430076620PHOENIX                 ARIZ  060119070A001A02FBN24FBN40DA60 000000
602AZ007231A8060015174430076620PHOENIX                 ARIZ  060119070A002B18MWH00UUU11UN46 000000
602AZ007231A8060015174430076620PHOENIX                 ARIZ  060119070A003A23MWH00MWH12FR45 000000
602AZ007231A8060015174430076620PHOENIX                 ARIZ  060125071A004F25MW 00UU 12UN18 00100025MW
602AZ007231A8060015174430076620PHOENIX                 ARIZ  060125071A005E00MW 00MW 13UN18 00200224MW 40MW                                         00MW 13UN18 00MW 13UN18
602AZ007231A8060015174430076620PHOENIX                 ARIZ  060119070A006B46MBN00UUU12UN18 000000
602AZ007231A8060015174430076620PHOENIX                 ARIZ  060119070A007B24MWH00UUU12UN03 000000
602AZ007231A8060015174430076620PHOENIX                 ARIZ  060119070A008B24MWH00UUU12UN99 000000
602AZ007231A8060015174430076620PHOENIX                 ARIZ  060119070A009B24MBN00UUU13UN99 000000
602AZ007231A8060015174430076620PHOENIX                 ARIZ  060119070A010F22MBN00UUU12UN99 00100037MBN
602AZ007231A8060015174430076620PHOENIX                 ARIZ  060119070A011B29MWH00UUU13UN45 000000
602AZ007231A8060015174430076620PHOENIX                 ARIZ  060119070A012A34MWN46MBN20AQ18 000000
602AZ007231A8060015174430076620PHOENIX                 ARIZ  060119070A013F17MWH00UUU13UN99 00100019MWH
602AZ007231A8060015174430076620PHOENIX                 ARIZ  060119070A014ABBFBN21MBN40OK41 000000
602AZ007231A8060015174430076620PHOENIX                 ARIZ  060119070A015B17MWH00UUU12UN45 000000
602AZ007231A8060015174430076620PHOENIX                 ARIZ  060125071A016A26MW 00MW 12ST03 000000
602AZ007231A8060015174430076620PHOENIX                 ARIZ  060119070A017C21MWH17MWH13IL45 000001                                                  23MWH13IL45
602AZ007231A8060015174430076620PHOENIX                 ARIZ  060119070A018B00MUU00UUU90UN99 000000
602AZ007231A8060015174430076620PHOENIX                 ARIZ  060119070A019A37FWH34MBN12ST60 000000
602AZ007231A8060015174430076620PHOENIX                 ARIZ  060119070A020A33MWH30MWN12ST81A000000
602AZ007231A8060015174430076620PHOENIX                 ARIZ  070202070A001B52MWH00UUU90UN99 000000
602AZ007231A8060015174430076620PHOENIX                 ARIZ  070202070A002B48MBN00UUU20UN99 000000
602AZ007231A8060015174430076620PHOENIX                 ARIZ  070202070A003B42MBN00UUU12UN99 000000
602AZ007231A8060015174430076620PHOENIX                 ARIZ  070202070A004A22MIN29FWN12ST60 000000
602AZ007231A8060015174430076620PHOENIX                 ARIZ  070202070A005B48MWH00UUU30UN99 000000
602AZ007231A8060015174430076620PHOENIX                 ARIZ  070202070A006F17MIN00UUU14UN99 00100019MWH
602AZ007231A8060015174430076620PHOENIX                 ARIZ  070202070A007A32MWH00MWH12UN60 000000
602AZ007231A8060015174430076620PHOENIX                 ARIZ  070202070A008B48MWH00UUU11UN99 000000
602AZ007231A8060015174430076620PHOENIX                 ARIZ  070202070A009A27MWH00MWN12UN45 000000
602AZ007231A8060015174430076620PHOENIX                 ARIZ  070202070A010A36MWH30MWH12AQ45 000000
602AZ007231A8060015174430076620PHOENIX                 ARIZ  070202070A011B16MWH00UUU11UN45 000000
602AZ007231A8060015174430076620PHOENIX                 ARIZ  070202070A012A36MWH28MWH12ST45 000000
602AZ007231A8060015174430076620PHOENIX                 ARIZ  070202070A015A33MWH26MWH12AQ40 000000
602AZ007231A8060015174430076620PHOENIX                 ARIZ  070202070A016A28MWH25MWH11ST26 000000
602AZ007231A8060015174430076620PHOENIX                 ARIZ  070202070A017D20MWH19MBN12AQ18 00100028MWH
602AZ007231A8060015174430076620PHOENIX                 ARIZ  070202070A018A39MWH16MWH11ST99 000000
602AZ007231A8060015174430076620PHOENIX                 ARIZ  070202070A019A26MBN00MBN12FR18 000000
602AZ007231A8060015174430076620PHOENIX                 ARIZ  070202070A020B48FWH00UUU20UN99 000000
602AZ007231A8060015174430076620PHOENIX                 ARIZ  070202070A021B39MWH00UUU12UN99 000000
602AZ007231A8060015174430076620PHOENIX                 ARIZ  070202070A022A18FWN21MWH12OK45 000000
602AZ007231A8060015174430076620PHOENIX                 ARIZ  070202070A023A32FWH34MWH12OK45 000000
602AZ007231A8060015174430076620PHOENIX                 ARIZ  070202070A024A29MWH00MWH11ST60 000000
602AZ007231A8060015174430076620PHOENIX                 ARIZ  070202070A025A23MWH00MWH11UN60 000000
602AZ007231A8060015174430076620PHOENIX                 ARIZ  070202070A026A17MWH00MWH13ST60 000000
602AZ007231A8060015174430076620PHOENIX                 ARIZ  070208071A027C24MW 25MW 12ST81A000005                                                  30MW 13ST81A32MW 12ST81A31MW 12ST81A37MW 12ST81A36MW 13ST81A
602AZ007231A8060015174430076620PHOENIX                 ARIZ  070202070A028C50MWN29MWN12ST81C000001                                                  39MWN12ST81C
602AZ007231A8060015174430076620PHOENIX                 ARIZ  070202070A029A49MWN51MWN13ST81C000000
602AZ007231A8060015174430076620PHOENIX                 ARIZ  080223070A001B17MWH00UUU12UN45 000000
602AZ007231A8060015174430076620PHOENIX                 ARIZ  080223070A002A19MIN18MIN20FR45 000000
602AZ007231A8060015174430076620PHOENIX                 ARIZ  080223070A003C20MIN19MWH13ST45 000002                                                  24MWH13ST45 20MWH13ST45
602AZ007231A8060015174430076620PHOENIX                 ARIZ  080223070A004B29MBN00UUU12UN99 000000
602AZ007231A8060015174430076620PHOENIX                 ARIZ  080223070A005A37MWN45MWN12FR45 000000
602AZ007231A8060015174430076620PHOENIX                 ARIZ  080228071A006A20MW 00MW 12ST99 000000
602AZ007231A8060015174430076620PHOENIX                 ARIZ  080223070A007C23MWH00MWH12ST99 000001                                                  00MWH12ST99
602AZ007231A8060015174430076620PHOENIX                 ARIZ  080223070A008F23FBN00UUU12UN99 00100028MBN
602AZ007231A8060015174430076620PHOENIX                 ARIZ  080228071A009A31MW 00MW 20UN99 000000
602AZ007231A8060015174430076620PHOENIX                 ARIZ  080223070A010A20MBN53FBN12OF45 000000
602AZ007231A8060015174430076620PHOENIX                 ARIZ  080223070A011C29MWH00MWH12UN45 000001                                                  00MWH12UN45
602AZ007231A8060015174430076620PHOENIX                 ARIZ  080223070A012A62MWN17MWH12AQ45 000000
602AZ007231A8060015174430076620PHOENIX                 ARIZ  080223070A013A38MWH50MWH30FR45 000000
602AZ007231A8060015174430076620PHOENIX                 ARIZ  080223070A014A29MWN25MWN20AQ45 000000
602AZ007231A8060015174430076620PHOENIX                 ARIZ  080223070A015A14MWH18MBN11ST45 000000
602AZ007231A8060015174430076620PHOENIX                 ARIZ  080223070A016B47MWN00UUU12UN99 000000
602AZ007231A8060015174430076620PHOENIX                 ARIZ  080223070A017B24MWH00UUU12UN99 000000
602AZ007231A8060015174430076620PHOENIX                 ARIZ  080223070A018B20MWH00UUU12UN99 000000
602AZ007231A8060015174430076620PHOENIX                 ARIZ  080223070A019A17MWH23MWH20ST80C000000
602AZ007231A8060015174430076620PHOENIX                 ARIZ  090306070A001C29MWH17MWH12AQ45 000001                                                  18MWH12AQ45
602AZ007231A8060015174430076620PHOENIX                 ARIZ  090306070A002CBBMWH26MWH40SO60 000001                                                  26FWH40SO60
602AZ007231A8060015174430076620PHOENIX                 ARIZ  090306070A003B39MWN00UUU11UN99 000000
602AZ007231A8060015174430076620PHOENIX                 ARIZ  090306070A004A24MWH32MWH12OF45 000000
602AZ007231A8060015174430076620PHOENIX                 ARIZ  090306070A005ABBFWN21MWN30DA60 000000
602AZ007231A8060015174430076620PHOENIX                 ARIZ  090306070A006F19MWH00UUU12UN99 00100017MWH
602AZ007231A8060015174430076620PHOENIX                 ARIZ  090306070A007B44MWN00UUU20UN99 000000
602AZ007231A8060015174430076620PHOENIX                 ARIZ  090306070A008A24MWH00MWH12ST45 000000
602AZ007231A8060015174430076620PHOENIX                 ARIZ  090306070A009B27FWN00UUU30AQ99 000000
602AZ007231A8060015174430076620PHOENIX                 ARIZ  090313071A010A42MW 00MW 13UN99 000000
602AZ007231A8060015174430076620PHOENIX                 ARIZ  090306070A011B20MWH00UUU12AQ99 000000
602AZ007231A8060015174430076620PHOENIX                 ARIZ  090306070A012A47MWH25MWH20FR45 000000
602AZ007231A8060015174430076620PHOENIX                 ARIZ  090306070A013A20MWH18MWH13AQ45 000000
602AZ007231A8060015174430076620PHOENIX                 ARIZ  090306070A014A21MWH26MWH12ST45 000000
602AZ007231A8060015174430076620PHOENIX                 ARIZ  090306070A015A44MWH46MWH30AQ60 000000
602AZ007231A8060015174430076620PHOENIX                 ARIZ  090306070A016A26MWH35MWH12FR45 000000
602AZ007231A8060015174430076620PHOENIX                 ARIZ  090306070A017A26MWH41MWH12ST44 000000
602AZ007231A8060015174430076620PHOENIX                 ARIZ  090306070A018F25MWH00UUU11UN99 00100026MWH
602AZ007231A8060015174430076620PHOENIX                 ARIZ  090306070A019A45MWN45MWN14FR80C000000
602AZ007231A8060015174430076620PHOENIX                 ARIZ  090306070A020C22MIN28MWN12ST81A000001                                                  26MWN12ST81A
602AZ007231A8060015174430076620PHOENIX                 ARIZ  090306070A021A35MWH27MWH12AQ80C000000
602AZ007231A8060015174430076620PHOENIX                 ARIZ  090306070A022A21MWH32MWN12ST81A000000
602AZ007231A8060015174430076620PHOENIX                 ARIZ  100326070A001B33MBN00UUU12UN44 000000
602AZ007231A8060015174430076620PHOENIX                 ARIZ  100326070A002ABBFBN21MBN30OK41 000000
602AZ007231A8060015174430076620PHOENIX                 ARIZ  100326070A003A38MWN44MWN30AQ45 000000
602AZ007231A8060015174430076620PHOENIX                 ARIZ  100326070A004B45FWN00UUU80UN99 000000
602AZ007231A8060015174430076620PHOENIX                 ARIZ  100326070A005A16MWH39MWH12ST45 000000
602AZ007231A8060015174430076620PHOENIX                 ARIZ  100326070A006A03MWH18MWH30OK41 000000
602AZ007231A8060015174430076620PHOENIX                 ARIZ  100402071A007E17MW 23MW 13AQ03 00100119MW                                              29MW 13AQ03
602AZ007231A8060015174430076620PHOENIX                 ARIZ  100326070A008B75FWN00UUU20UN03 000000
602AZ007231A8060015174430076620PHOENIX                 ARIZ  100326070A009A18FWH29MWH30AQ99 000000
602AZ007231A8060015174430076620PHOENIX                 ARIZ  100326070A010B39MWH00UUU12UN18 000000
602AZ007231A8060015174430076620PHOENIX                 ARIZ  100326070A011B31MWH00UUU12UN18 000000
602AZ007231A8060015174430076620PHOENIX                 ARIZ  100326070A012A45MWN47MWN20FR45 000000
602AZ007231A8060015174430076620PHOENIX                 ARIZ  100326070A013B27MBN00UUU12UN99 000000
602AZ007231A8060015174430076620PHOENIX                 ARIZ  100326070A014B31MWH00UUU12UN99 000000
602AZ007231A8060015174430076620PHOENIX                 ARIZ  100326070A015B30MIN00UUU12UN99 000000
602AZ007231A8060015174430076620PHOENIX                 ARIZ  100326070A016A25MWH25MWH12ST45 000000
602AZ007231A8060015174430076620PHOENIX                 ARIZ  100326070A017A25MWH25MWH12ST45 000000
602AZ007231A8060015174430076620PHOENIX                 ARIZ  100326070A018B41MWH00UUU12UN99 000000
602AZ007231A8060015174430076620PHOENIX                 ARIZ  100326070A019B31MWH00UUU12UN18 000000
602AZ007231A8060015174430076620PHOENIX                 ARIZ  100326070A020B47MWN00UUU12UN18 000000
602AZ007231A8060015174430076620PHOENIX                 ARIZ  100326070A021B18MWH00UUU12UN99 000000
602AZ007231A8060015174430076620PHOENIX                 ARIZ  100326070A022B24MWH00UUU12UN44 000000
602AZ007231A8060015174430076620PHOENIX                 ARIZ  100326070A023A26MIN30MWN12ST81E000000
602AZ007231A8060015174430076620PHOENIX                 ARIZ  100326070B024A17MWH15MBN12FR52 000000
602AZ007231A8060015174430076620PHOENIX                 ARIZ  110326070A001B50FWN00UUU90UN99 000000
602AZ007231A8060015174430076620PHOENIX                 ARIZ  110326070A002A25MWH23FWN20BF45 000000
602AZ007231A8060015174430076620PHOENIX                 ARIZ  110326070A003A01FWH17MWH30OK41 000000
602AZ007231A8060015174430076620PHOENIX                 ARIZ  110326070A004B22MBN00UUU12UN99 000000
602AZ007231A8060015174430076620PHOENIX                 ARIZ  110326070A005B18MWH00UUU13UN99 000000
602AZ007231A8060015174430076620PHOENIX                 ARIZ  110326070A006B50MWH00UUU12UN99 000000
602AZ007231A8060015174430076620PHOENIX                 ARIZ  110326070A007B46MWN00UUU12UN99 000000
602AZ007231A8060015174430076620PHOENIX                 ARIZ  110326070A008C39MWH00MBN12ST03 000001                                                  00MBN12ST03
602AZ007231A8060015174430076620PHOENIX                 ARIZ  110326070A009A33MBN15MWH20ST60 000000
602AZ007231A8060015174430076620PHOENIX                 ARIZ  110326070A010C29MIN25MWN12ST81A000002                                                  55MWN12ST81A56MWN12ST81A
602AZ007231A8060015174430076620PHOENIX                 ARIZ  120402070A001B48MBN00UUU20UN99 000000
602AZ007231A8060015174430076620PHOENIX                 ARIZ  120402070A002B24MWH00UUU13UN99 000000
602AZ007231A8060015174430076620PHOENIX                 ARIZ  120402070A003A40FWH39FWH12GF45 000000
602AZ007231A8060015174430076620PHOENIX                 ARIZ  120402070A004B19MWH00UUU13UN99 000000
602AZ007231A8060015174430076620PHOENIX                 ARIZ  120402070A005B26MWH00UUU12UN26 000000
602AZ007231A8060015174430076620PHOENIX                 ARIZ  120402070A006B58MWN00UUU20UN99 000000
602AZ007231A8060015174430076620PHOENIX                 ARIZ  120402070A007B18MWH00UUU12AQ45 000000
602AZ007231A8060015174430076620PHOENIX                 ARIZ  120402070A008B41MWH00UUU12UN45 000000
602AZ007231A8060015174430076620PHOENIX                 ARIZ  120402070A009B34MBN00UUU12UN99 000000
602AZ007231A8060015174430076620PHOENIX                 ARIZ  120402070A010B20MWN00UUU12UN18 000000
602AZ007231A8060015174430076620PHOENIX                 ARIZ  120402070A011C63MWN16MBN12ST03 000002                                                  21MBN12ST03 20MBN12ST03
602AZ007231A8060015174430076620PHOENIX                 ARIZ  120402070A012B41MBN00UUU12UN60 000000
602AZ007231A8060015174430076620PHOENIX                 ARIZ  120402070A013A18MWH19MIN14AQ60 000000
602AZ007231A8060015174430076620PHOENIX                 ARIZ  120402070A014C28MWH44MBN12ST03 000001                                                  46MBN12ST03
602AZ007231A8060015174430076620PHOENIX                 ARIZ  120402070A015B21FWN00UUU12UN99 000000
602AZ007231A8060015174430076620PHOENIX                 ARIZ  120402070A016B52MWN00UUU30UN99 000000
602AZ007231A8060015174430076620PHOENIX                 ARIZ  120402070A017B23MWN00UUU12UN99 000000
602AZ007231A8060015174430076620PHOENIX                 ARIZ  120402070A018B57MWN00UUU20UN99 000000
602AZ007231A8060015174430076620PHOENIX                 ARIZ  120402070A019B27MWH00UUU12UN99 000000
602AZ007231A8060015174430076620PHOENIX                 ARIZ  120402070B020A01MWN37FWN75SO59 000000
602AZ007252 8060002346520076620SCOTTSDALE              ARIZ  040402070A001A28MWN32MWN12ST81E000000
602AZ007252 8060002346520076620SCOTTSDALE              ARIZ  050402070A001C20FWH33MWN14ST60 000001                                                  30MWN14ST60
602AZ007252 8060002346520076620SCOTTSDALE              ARIZ  050402070A002A36FWN37MWN12GF45 000000
602AZ007252 8060002346520076620SCOTTSDALE              ARIZ  090402070A001A31MWN33MWN12ST81A000000
602AZ007252 8060002346520076620SCOTTSDALE              ARIZ  100402070A001A95FWN88MWN20WI60 000000
602AZ007252 8060002346520076620SCOTTSDALE              ARIZ  120128081A001D17FA 54MW 12SD45 00100044FA
602AZ007252 8060002346520076620SCOTTSDALE              ARIZ  120402070A002A54MWN18MAN20SF80C000000
602AZ007292 8060001673030076620TEMPE                   ARIZ  020907060A001B23MBN00UUU12UN99 000000
602AZ007292 8060001673030076620TEMPE                   ARIZ  020907060B002A10FWN43MWN30DA59 000000
602AZ007292 8060001673030076620TEMPE                   ARIZ  041121060A001A69FWN67MWN85GF45 000000
602AZ007292 8060001673030076620TEMPE                   ARIZ  041121060A002A20MIN23MWN12ST80C000000
602AZ007292 8060001673030076620TEMPE                   ARIZ  041121060A003A18MWH19MWH12ST80C000000
602AZ007292 8060001673030076620TEMPE                   ARIZ  051218061A001A23MW 00MW 12ST45 000000
602AZ007292 8060001673030076620TEMPE                   ARIZ  100315070A001A20FWN20MWN20FR60 000000
602AZ007292 8060001673030076620TEMPE                   ARIZ  100315070A002A22FWH29MWH12WI45 000000
602AZ007356 8060000041750076621YOUNGTOWN               ARIZ  100315070A001A80FWN83MWN13WI60 000000
602AZ008009B8060000652450084191MOHAVE                  ARIZ  010907060A001A48FWN30MWN20MO45 000000
602AZ008009B8060000652450084191MOHAVE                  ARIZ  031025060A001D37MWN73MBN12AQ60 00100040FWN
602AZ008009B8060000652450084191MOHAVE                  ARIZ  031025060A002A63MWN71MWN30FR45 000000
602AZ008009B8060000652450084191MOHAVE                  ARIZ  060306070A001C22MWH20FWN13AQ45 000001                                                  22MWN13AQ45
602AZ008009B8060000652450084191MOHAVE                  ARIZ  080306070A001A52MWN16MWN20NE45 000000
602AZ008009B8060000652450084191MOHAVE                  ARIZ  080306070A002A36MWN30MWN12AQ45 000000
602AZ008009B8060000652450084191MOHAVE                  ARIZ  080306070A003A63MWH31MWH13NE45 000000
602AZ008009B8060000652450084191MOHAVE                  ARIZ  100315070A001ABBMWN22MWN40OK60 000000
602AZ008014 8060000265240084190KINGMAN                 ARIZ  060119070A001A14FWN35MWN30OF17 000000
602AZ008014 8060000265240084190KINGMAN                 ARIZ  070202070A001C18MWN30MWN20AQ03 000002                                                  33FWN20AQ03 40MWN20AQ03
602AZ008014 8060000265240084190KINGMAN                 ARIZ  120402070A001A60MWN00MBN30ST06 000000
602AZ008014 8060000265240084190KINGMAN                 ARIZ  120402070A002B27FWN00UUU30UN99 000000
602AZ008043 8060000574530084190LAKE HAVASU CITY        ARIZ  041121060A001B23MWN00UUU12UN99 000000
602AZ008043 8060000574530084190LAKE HAVASU CITY        ARIZ  070202070A001A38MWN73MWN12SO60 000000
602AZ008043 8060000574530084190LAKE HAVASU CITY        ARIZ  110326070A001A34MWH37MWH12ST60 000000
602AZ008054 8060000405960084191BULLHEAD CITY           ARIZ  010202070A001C44MWN21MWN30NE42 000001                                                  20MWN30NE42
602AZ009008B806000073146009   0NAVAJO                  ARIZ  090306070A001A26MWH28MWH12AQ44 000000
602AZ009095 806000010311009   0WINSLOW                 ARIZ  051213060A001A64FWN39MWN12GF45 000000
602AZ010009A8060003427740109061PIMA                    ARIZ  010616060A001A34MWH18MWH13ST03 000000
602AZ010009A8060003427740109061PIMA                    ARIZ  010616060A002A29MWH00MWN12ST03 000000
602AZ010009A8060003427740109061PIMA                    ARIZ  010616060A003A78FWN85MWN40ST45 000000
602AZ010009A8060003427740109061PIMA                    ARIZ  031102061A001A51MW 00MU 30ST03 000000
602AZ010009A8060003427740109061PIMA                    ARIZ  031025060A002B23MWH00UUU12UN99 000000
602AZ010009A8060003427740109061PIMA                    ARIZ  031025060A003A29MWH00MWH12UN18 000000
602AZ010009A8060003427740109061PIMA                    ARIZ  031025060A004A52FWN41MWH80GF45 000000
602AZ010009A8060003427740109061PIMA                    ARIZ  041121060A001A18MBN21MBN20AQ44 000000
602AZ010009A8060003427740109061PIMA                    ARIZ  041121060A002B28MWH00UUU12UN18 000000
602AZ010009A8060003427740109061PIMA                    ARIZ  051213060B001A17MWN17MWN40FR59 000000
602AZ010009A8060003427740109061PIMA                    ARIZ  070202070A001B59FWN00UUU20UN99 000000
602AZ010009A8060003427740109061PIMA                    ARIZ  080223070A001B41MWN00UUU14UN99 000000
602AZ010009A8060003427740109061PIMA                    ARIZ  080228071A002A38MW 00MU 12UN03 000000
602AZ010009A8060003427740109061PIMA                    ARIZ  100315070A001A47FWN48MWN30WI45 000000
602AZ010009A8060003427740109061PIMA                    ARIZ  100315070A002A17MWH17MWH12AQ60 000000
602AZ010009A8060003427740109061PIMA                    ARIZ  100315070A003A30MWN30MWN13ST81A000000
602AZ010009A8060003427740109061PIMA                    ARIZ  100315070A004A19MWH35MWN12ST81A000000
602AZ010009A8060003427740109061PIMA                    ARIZ  110326070A001A42MWH52MWH12BR43 000000
602AZ010009A8060003427740109061PIMA                    ARIZ  110326070A002A85MWN55FWN30BF42 000000
602AZ010009A8060003427740109061PIMA                    ARIZ  120402070A001B32MWH00UUU12UN18 000000
602AZ010009A8060003427740109061PIMA                    ARIZ  120402070A002B36MWH00UUU12UN18 000000
602AZ010009A8060003427740109061PIMA                    ARIZ  120402070A003A34MWN80MWN14ST80E000000
602AZ010009A8060003427740109061PIMA                    ARIZ  120402070A004A21MWN30MWN12ST81A000000
602AZ010016 8060000057750109061SOUTH TUCSON            ARIZ  070202070A001A49MWH23MWN12ST18 000000
602AZ010031B8060005352320109060TUCSON                  ARIZ  010616060A001A22MBN22MWH13ST60 000000
602AZ010031B8060005352320109060TUCSON                  ARIZ  010616060A002A40MWH18MBN12AQ45 000000
602AZ010031B8060005352320109060TUCSON                  ARIZ  020907060A001A33MWH43MBN12AQ60 000000
602AZ010031B8060005352320109060TUCSON                  ARIZ  020907060A002A26MWH35MWN12ST81A000000
602AZ010031B8060005352320109060TUCSON                  ARIZ  031025060A001A52MWN16MWH12AQ99 000000
602AZ010031B8060005352320109060TUCSON                  ARIZ  031025060A002B23MBN00UUU12UN45 000000
602AZ010031B8060005352320109060TUCSON                  ARIZ  031025060A003A35MWH26MWH12FR60 000000
602AZ010031B8060005352320109060TUCSON                  ARIZ  031025060A004C43MWH26MBN12ST03 000001                                                  25MIN12ST03
602AZ010031B8060005352320109060TUCSON                  ARIZ  031025060A005A43MBN34MWN12ST99 000000
602AZ010031B8060005352320109060TUCSON                  ARIZ  031025060A006A32MWN22MWH12ST81A000000
602AZ010031B8060005352320109060TUCSON                  ARIZ  031025060A007A25MWH46MWN12ST81A000000
602AZ010031B8060005352320109060TUCSON                  ARIZ  030306070A008B78MWN00UUU30UN99 000000
602AZ010031B8060005352320109060TUCSON                  ARIZ  030306070A009A46MWN43MWH30ST60 000000
602AZ010031B8060005352320109060TUCSON                  ARIZ  041213060A001A70FWN71MWN13WI60 000000
602AZ010031B8060005352320109060TUCSON                  ARIZ  041213060A002A24FWH29MWH40GF45 000000
602AZ010031B8060005352320109060TUCSON                  ARIZ  041213060A003A44FWH40MWN12WI45 000000
602AZ010031B8060005352320109060TUCSON                  ARIZ  041213060A004ABBMWH18MWH40SO60 000000
602AZ010031B8060005352320109060TUCSON                  ARIZ  051213060A001A43MBN16MBN12FA60 000000
602AZ010031B8060005352320109060TUCSON                  ARIZ  051213060A002A54MWN23MWH30AQ45 000000
602AZ010031B8060005352320109060TUCSON                  ARIZ  051213060A003A18MWH20MWH12AQ46 000000
602AZ010031B8060005352320109060TUCSON                  ARIZ  051213060A004B19MWN00UUU12UN60 000000
602AZ010031B8060005352320109060TUCSON                  ARIZ  051213060A005B27FWH00UUU12UN18 000000
602AZ010031B8060005352320109060TUCSON                  ARIZ  051213060A006B51MBN00UUU12UN45 000000
602AZ010031B8060005352320109060TUCSON                  ARIZ  060119070A001A44MWH37MWH12FR45 000000
602AZ010031B8060005352320109060TUCSON                  ARIZ  060119070A002A23MBN20MWH12AQ18 000000
602AZ010031B8060005352320109060TUCSON                  ARIZ  060119070A003A45MWN57MWN12NE45 000000
602AZ010031B8060005352320109060TUCSON                  ARIZ  060306070A004C35MWH19MWN12ST03 000002                                                  19MWN12ST03 18MWN12ST03
602AZ010031B8060005352320109060TUCSON                  ARIZ  070202070A001A45FIN44MIN20GF45 000000
602AZ010031B8060005352320109060TUCSON                  ARIZ  070202070A002A50MWN20MWH12ST03 000000
602AZ010031B8060005352320109060TUCSON                  ARIZ  070202070A003B22MWH00UUU12UN99 000000
602AZ010031B8060005352320109060TUCSON                  ARIZ  070202070A004B25MWH00UUU12UN99 000000
602AZ010031B8060005352320109060TUCSON                  ARIZ  070202070A005C26MWN28MWN14AQ45 000001                                                  24MWN14AQ45
602AZ010031B8060005352320109060TUCSON                  ARIZ  080223070A001B20MWH00UUU12UN60 000000
602AZ010031B8060005352320109060TUCSON                  ARIZ  080223070A002A21MWN19MWN12ST42 000000
602AZ010031B8060005352320109060TUCSON                  ARIZ  080223070A003C43MWH41MWH40ST05 000001                                                  44MWN40ST05
602AZ010031B8060005352320109060TUCSON                  ARIZ  080223070A004B42MIN00UUU12UN45 000000
602AZ010031B8060005352320109060TUCSON                  ARIZ  090306070A001A37MWH27MWH12AQ60 000000
602AZ010031B8060005352320109060TUCSON                  ARIZ  090306070A002C36MWH26MWN20AQ45 000001                                                  53MWH20AQ45
602AZ010031B8060005352320109060TUCSON                  ARIZ  090306070A003A31MWN32MBN40OF43 000000
602AZ010031B8060005352320109060TUCSON                  ARIZ  090306070A004B19FWH00UUU12UN99 000000
602AZ010031B8060005352320109060TUCSON                  ARIZ  100315070A001B49FBN00UUU30UN45 000000
602AZ010031B8060005352320109060TUCSON                  ARIZ  100315070A002B28MBN00UUU30UN18 000000
602AZ010031B8060005352320109060TUCSON                  ARIZ  100315070A003B44MWH00UUU12UN45 000000
602AZ010031B8060005352320109060TUCSON                  ARIZ  100315070A004B24MWH00UUU12UN99 000000
602AZ010031B8060005352320109060TUCSON                  ARIZ  110326070A001A76MWN31MWH12ST03 000000
602AZ010031B8060005352320109060TUCSON                  ARIZ  110326070A002A19MIN25MBN12AQ60 000000
602AZ010031B8060005352320109060TUCSON                  ARIZ  110326070A003B39MWN00UUU12UN03 000000
602AZ010031B8060005352320109060TUCSON                  ARIZ  110326070A004B27MWN00UUU20UN99 000000
602AZ010031B8060005352320109060TUCSON                  ARIZ  110326070A005F20MWH00UUU12UN46 00100023MWH
602AZ010031B8060005352320109060TUCSON                  ARIZ  120402070A001B22MWH00UUU12UN45 000000
602AZ010031B8060005352320109060TUCSON                  ARIZ  120409071A002A20MW 00MW 12ST45 000000
602AZ010031B8060005352320109060TUCSON                  ARIZ  120402070A003D00MWH23MWN12AQ45 00100019MWH
602AZ010031B8060005352320109060TUCSON                  ARIZ  120402070A004A43MWH00MWN14ST81A000000
602AZ010031B8060005352320109060TUCSON                  ARIZ  120402070A005C21MWN00MWN12ST81A000001                                                  00MWH12ST81A
602AZ010031B8060005352320109060TUCSON                  ARIZ  120402070B006A17MWH17MWH12AQ52 000000
602AZ010074 8060000399070109061ORO VALLEY              ARIZ  110326070A001B34MWN00UUU12UN18 000000
602AZ010094 8060000270960109061MARANA                  ARIZ  100315070A001A27FBN20MWN12GF45 000000
602AZ011009A8060001251350116621PINAL                   ARIZ  020402070A001A48FWN61MWN12WI45 000000
602AZ011009A8060001251350116621PINAL                   ARIZ  020402070A002B00MUU00UUU11UN99 000000
602AZ011009A8060001251350116621PINAL                   ARIZ  020402070A003A32MWN29MWH12AQ45 000000
602AZ011009A8060001251350116621PINAL                   ARIZ  040402070A001A44MWH35MWH12AQ45 000000
602AZ011009A8060001251350116621PINAL                   ARIZ  040402070A002A01MWN21MWN40OK60 000000
602AZ011009A8060001251350116621PINAL                   ARIZ  050402070A001B34MWN00UUU12UN99 000000
602AZ011009A8060001251350116621PINAL                   ARIZ  060402070A001B49MWN00UUU11UN99 000000
602AZ011009A8060001251350116621PINAL                   ARIZ  070402070A001B23MWH00UUU12UN99 000000
602AZ011009A8060001251350116621PINAL                   ARIZ  070402070A002B18MWH00UUU90UN99 000000
602AZ011009A8060001251350116621PINAL                   ARIZ  090402070A001B26MWH00UUU12UN99 000000
602AZ011009A8060001251350116621PINAL                   ARIZ  110402070A001A36FWN50MWN20WI45 000000
602AZ011014 8060000341110116621CASA GRANDE             ARIZ  090306070A001A26MBN20MBN13AQ46 000000
602AZ011036 8060000084660116621COOLIDGE                ARIZ  041121060A001A38FWH24MWN20AQ03 000000
602AZ011075 8060000177050116621FLORENCE                ARIZ  070306070A001A24MWN72MWN14ST45 000000
602AZ013009B8060000852870136881YAVAPAI                 ARIZ  020907060A001C22MWN17MAN12AQ18 000002                                                  19MWN12AQ18 19FWN12AQ18
602AZ013009B8060000852870136881YAVAPAI                 ARIZ  020907060A002F31MWH00UUU12UN99 00200020MWH18MWH
602AZ013009B8060000852870136881YAVAPAI                 ARIZ  100315070A001A19FWN21MWN20GF45 000000
602AZ013074 8060000419030136880PRESCOTT                ARIZ  031025060B001A02FWN23FWH80DA59 000000
602AZ013074 8060000419030136880PRESCOTT                ARIZ  041121060A001A36MWN35MWN40ST42 000000
602AZ013074 8060000419030136880PRESCOTT                ARIZ  100315070A001A54MWN48MWN40AQ44 000000
602AZ013074 8060000419030136880PRESCOTT                ARIZ  100315070A002A22MWN30MWH20ST45 000000
602AZ013114 8060000343320136881PRESCOTT VALLEY         ARIZ  010907060A001CBBFWN19FWN40DA60 000001                                                  22MWN40DA60
602AZ013114 8060000343320136881PRESCOTT VALLEY         ARIZ  110326070A001C54MWN31MWH20ST03 000001                                                  51MWN20ST03
602AZ014009B8060000654190149921YUMA                    ARIZ  010616060A001A21FWH28MWH12GF45 000000
602AZ014009B8060000654190149921YUMA                    ARIZ  070202070A001C34MWH01MWN12OK45 000002                                                  25MBN12OK45 38MWN12OK45
602AZ014009B8060000654190149921YUMA                    ARIZ  090130080A001A69FW 70MW 11WI45 000000
602AZ014053 8060000879250149920YUMA                    ARIZ  010616060A001A18MWH23MWH20ST99 000000
602AZ014053 8060000879250149920YUMA                    ARIZ  010616060A002A69FWN71MWN30WI60 000000
602AZ014053 8060000879250149920YUMA                    ARIZ  041121060B001A26FWH16MWH14AQ53 000000
602AZ014053 8060000879250149920YUMA                    ARIZ  051213060A001A34MWH35MWN30AQ45 000000
602AZ014053 8060000879250149920YUMA                    ARIZ  060119070A001C26MWH25MWN14ST81A000001                                                  45MWH14ST81A
603AR001026 706000009483001   0STUTTGART               ARK   100130080A001B27MB 00UU 11UN99 000000
603AR003008B706000025990003   0BAXTER                  ARK   020130080A001A00UU 28MW 12UN99 000000
603AR003015 706000012032003   0MOUNTAIN HOME           ARK   060130080A001B62MW 00UU 20UN99 000000
603AR003037 706000001953003   0GASSVILLE               ARK   020130080A001A63MW 18MW 11UN60 000000
603AR004009B7060000648730042701BENTON                  ARK   120130080A001C17MB 21MW 11OK99 000001                                                  20MW 11OK99
603AR004066 7060000071220042701LOWELL                  ARK   050130080A001C32MW 18MW 11UN42 000002                                                  21FW 11UN42 25MW 11UN42
603AR005008C706000023291005   0BOONE                   ARK   060823060A001A56FWU61MWU13AQ99 000000
603AR005008C706000023291005   0BOONE                   ARK   060823060A002A42MWU42MWU13AQ99 000000
603AR005008C706000023291005   0BOONE                   ARK   101214060B001A17MWU18MWU14AQ51 000000
603AR006016 706000006334006   0WARREN                  ARK   010130080A001A52MB 44MB 20UN45 000000
603AR010008D706000009641010   0CLARK                   ARK   100130080A001A29MB 32MW 12AQ99 000000
603AR012008C706000016736012   0CLEBURNE                ARK   100130080A001A31MW 52MW 11UN81A000000
603AR016009C7060000207620163961CRAIGHEAD               ARK   080130080A001A00FW 00MW 15GF99 000000
603AR016013 7060000600350163960JONESBORO               ARK   030130080A001C35FW 33MB 90AQ99 000001                                                  19FB 90AQ99
603AR016013 7060000600350163960JONESBORO               ARK   060130080A001A45MW 41MW 12FR80E000000
603AR016013 7060000600350163960JONESBORO               ARK   070130080A001A33MB 30MB 12UN45 000000
603AR017015 7060000214920172851VAN BUREN               ARK   030130080A001A89FW 00MW 30MO60 000000
603AR018014 7060000285030185191WEST MEMPHIS            ARK   040130080A001D18MB 17MW 11UN99 00100024MW
603AR018014 7060000285030185191WEST MEMPHIS            ARK   050130080A001B44MW 00UU 90UN99 000000
603AR018014 7060000285030185191WEST MEMPHIS            ARK   070130080A001E33FB 15MB 65AQ26 00300171MB 17MB 14MB                                    15MB 65AQ26
603AR018014 7060000285030185191WEST MEMPHIS            ARK   090130080A001A55MW 00MB 30ST03 000000
603AR018014 7060000285030185191WEST MEMPHIS            ARK   100130080A001A69MW 27MB 90UN99 000000
603AR018014 7060000285030185191WEST MEMPHIS            ARK   120130080A001A53MW 42MW 20UN45 000000
603AR020016 706000004459020   0FORDYCE                 ARK   030130080A001A00MW 43MW 14AQ26 000000
603AR020016 706000004459020   0FORDYCE                 ARK   060130080A001A35MB 42FB 12HU45 000000
603AR020016 706000004459020   0FORDYCE                 ARK   070130080A001B53FW 00UU 90UN60 000000
603AR023013 7060000525920234690CONWAY                  ARK   010622060A001A18MBU18MWH12ST99 000000
603AR023013 7060000525920234690CONWAY                  ARK   040718060A001A37FBU38MBU12WI99 000000
603AR023013 7060000525920234690CONWAY                  ARK   060823060A001A22MAU18FBU12UN99 000000
603AR024009C7060000117390242851FRANKLIN                ARK   110130080A001B31MW 00UU 90UN99 000000
603AR024016 7060000036270242851OZARK                   ARK   010130080A001A48MW 23FW 11UN99 000000
603AR024016 7060000036270242851OZARK                   ARK   060130080A001A23MW 23MW 12UN99 000000
603AR026009B7060000563400263561GARLAND                 ARK   050130080A001A34MW 34MW 12UN05 000000
603AR026014 7060000382790263560HOT SPRINGS             ARK   010130080A001ABBMB 18MB 40SO99 000000
603AR026014 7060000382790263560HOT SPRINGS             ARK   050130080A001A65FB 25MB 12OF99 000000
603AR026014 7060000382790263560HOT SPRINGS             ARK   080130080A001D15MW 24MW 13AQ45 00100028MW
603AR029015 706000010586029   0HOPE                    ARK   040130080A001A01MB 19MB 40UN60 000000
603AR029015 706000010586029   0HOPE                    ARK   090130080A001A58FW 50UU 90UN99 000000
603AR031016 706000004985031   0NASHVILLE               ARK   050130080A001A22FW 27MB 85UN45 000000
603AR032008B706000035133032   0INDEPENDENCE            ARK   110404070A001B60MW 00UU 90UN99 000000
603AR034016 706000007364034   0NEWPORT                 ARK   020622060A001B50MWU00UUU13UN99 000000
603AR035009C7060000218060356641JEFFERSON               ARK   040130080A001A00MW 00FW 11UN45 000000
603AR035009C7060000218060356641JEFFERSON               ARK   110130080A001A34MW 42MW 14UN45 000000
603AR035013 7060000532940356640PINE BLUFF              ARK   010622060A001A36FBU19MBU12AQ45 000000
603AR035013 7060000532940356640PINE BLUFF              ARK   020823061A001B20MB 00UU 12UN99 000000
603AR035013 7060000532940356640PINE BLUFF              ARK   030718060A001A34MBU26MBU12IL45 000000
603AR035013 7060000532940356640PINE BLUFF              ARK   040718060A001B69MBU00UUU20UN99 000000
603AR035013 7060000532940356640PINE BLUFF              ARK   040718060A002A26MBU28MBU12AQ45 000000
603AR035013 7060000532940356640PINE BLUFF              ARK   040718060A003B16FBU00UUU11UN99 000000
603AR035013 7060000532940356640PINE BLUFF              ARK   050724060A001A23MBU28MBU12AQ99 000000
603AR035013 7060000532940356640PINE BLUFF              ARK   050724060A002A27MBU00UBU12UN99 000000
603AR035013 7060000532940356640PINE BLUFF              ARK   050724060A003A23MBU27MBU12AQ42 000000
603AR035013 7060000532940356640PINE BLUFF              ARK   091114060A001A25MBU24MBU12AQ45 000000
603AR035013 7060000532940356640PINE BLUFF              ARK   110118070A001B40FBU00UUU65UN99 000000
603AR035013 7060000532940356640PINE BLUFF              ARK   120223070A001A30MBU27MBU12AQ45 000000
603AR039016 706000004847039   0MARIANNA                ARK   100130080A001A72MB 36MB 14IL45 000000
603AR040027 7060000023470406641STAR CITY               ARK   070130080A001A19MB 44MB 12AQ45 000000
603AR043009B7060000259540434691LONOKE                  ARK   020130080A001C44MW 40FW 12UN45 000001                                                  20FW 12UN45
603AR043009B7060000259540434691LONOKE                  ARK   030130080A001B39FB 00UU 11UN99 000000
603AR043009B7060000259540434691LONOKE                  ARK   050130080A001A39MW 21MW 13FR45 000000
603AR043009B7060000259540434691LONOKE                  ARK   120130080A001B49FW 00UU 15UN99 000000
603AR044009C7060000129010442701MADISON                 ARK   010130080A001A00MW 37FW 13FR45 000000
603AR044009C7060000129010442701MADISON                 ARK   010130080A002A00UU 37FW 13UN45 000000
603AR046009C7060000133070468871MILLER                  ARK   010622060A001A38MWU43MWU14AQ99 000000
603AR046014 7060000303480468870TEXARKANA               ARK   020622060A001A41FWU28MBU40GF40 000000
603AR046014 7060000303480468870TEXARKANA               ARK   060823060A001A47MWU31FBU90HU45 000000
603AR046014 7060000303480468870TEXARKANA               ARK   120223070A001A20MWU26MWU65UN99 000000
603AR047015 706000016828047   0BLYTHEVILLE             ARK   030130080A001A29FB 40MB 11GF99 000000
603AR047015 706000016828047   0BLYTHEVILLE             ARK   120130080A001A31MB 28MB 90AQ99 000000
603AR047026 706000008221047   0OSCEOLA                 ARK   100130080A001A27MB 23FB 12BF99 000000
603AR052008C706000014009052   0OUACHITA                ARK   020130080A001A24MB 30MB 12AQ45 000000
603AR052008C706000014009052   0OUACHITA                ARK   030130080A001A42FW 37MW 12GF99 000000
603AR054025 706000013718054   0HELENA-WEST HELENA      ARK   080130080A001A22MB 19MB 12OK18 000000
603AR054025 706000013718054   0HELENA-WEST HELENA      ARK   110130080A001A26MB 33MB 14UN43 000000
603AR054025 706000013718054   0HELENA-WEST HELENA      ARK   120130080A001A00UU 22MB 30AQ18 000000
603AR055008D706000007351055   0PIKE                    ARK   080130080A001A39MW 42MW 14AQ45 000000
603AR056026 7060000070010563961TRUMANN                 ARK   010130080A001D33MW 38MU 20UN45 00100048MW
603AR057008C706000014734057   0POLK                    ARK   040130080A001C37MW 35MW 13UN05 000005                                                  23MA 13UN05 18MW 13UN05 21MW 13UN05 40MW 13UN05 18MW 13UN05
603AR058008B706000025583058   0POPE                    ARK   030130080A001B46MW 00UU 11UN60 000000
603AR058014 706000025811058   0RUSSELLVILLE            ARK   100130080A001B19MW 00UU 20UN45 000000
603AR060009B7060000551000604691PULASKI                 ARK   050724060A001A24MBU36MWU20UN99 000000
603AR060009B7060000551000604691PULASKI                 ARK   060823060A001A80FWU47FWU90MO99 000000
603AR060009B7060000551000604691PULASKI                 ARK   110403071A001B00FW 00UU 11UN99 000000
603AR060009B7060000551000604691PULASKI                 ARK   120402071A001A02FB 28MB 90DA99 000000
603AR060009B7060000551000604691PULASKI                 ARK   120118070A002A44FBU64MBU14AQ40 000000
603AR060009B7060000551000604691PULASKI                 ARK   120118070A003A40MBU45MBU12UN26 000000
603AR060014 7060000307140604691JACKSONVILLE            ARK   010622060A002ABBMWU23FWU40SO26 000000
603AR060014 7060000307140604691JACKSONVILLE            ARK   020622060A001A22MBU24MBU12AQ45 000000
603AR060014 7060000307140604691JACKSONVILLE            ARK   081024060A001A18MWU18MWU12AQ03 000000
603AR060014 7060000307140604691JACKSONVILLE            ARK   120118070A001A27MBU28MBU12AQ45 000000
603AR060022 7060001866700604690LITTLE ROCK             ARK   010718060A001A21MBU17MBU12ST03 000000
603AR060022 7060001866700604690LITTLE ROCK             ARK   010718060A002B21FBU00UUU12UN99 000000
603AR060022 7060001866700604690LITTLE ROCK             ARK   010718060A003A54MWU26MBU12AQ45 000000
603AR060022 7060001866700604690LITTLE ROCK             ARK   010718060A004A50MWU26MBU12AQ45 000000
603AR060022 7060001866700604690LITTLE ROCK             ARK   010718060A005A28MBU25MBU12UN03 000000
603AR060022 7060001866700604690LITTLE ROCK             ARK   010718060A006A19MBU18MBU12AQ99 000000
603AR060022 7060001866700604690LITTLE ROCK             ARK   010718060A007B44FBU00UUU12UN99 000000
603AR060022 7060001866700604690LITTLE ROCK             ARK   010718060A008B39MBU00UUU12UN99 000000
603AR060022 7060001866700604690LITTLE ROCK             ARK   020622060A001A19MBU22MBU13AQ46 000000
603AR060022 7060001866700604690LITTLE ROCK             ARK   020622060A002C46MWU18MBU12ST03 000002                                                  17FBU12ST03 25MBU12ST03
603AR060022 7060001866700604690LITTLE ROCK             ARK   020622060A003A42MBU26MBU12ST45 000000
603AR060022 7060001866700604690LITTLE ROCK             ARK   030718060A001A23MWU27MBU12UN03 000000
603AR060022 7060001866700604690LITTLE ROCK             ARK   030718060A002B41MBU00UUU20UN99 000000
603AR060022 7060001866700604690LITTLE ROCK             ARK   030718060A003A52MBU26MBU12AQ18 000000
603AR060022 7060001866700604690LITTLE ROCK             ARK   030718060A004B40MBU00UUU13UN99 000000
603AR060022 7060001866700604690LITTLE ROCK             ARK   030718060A005B41MBU00UUU30UN99 000000
603AR060022 7060001866700604690LITTLE ROCK             ARK   030718060A006A60MWU39FBU20AQ45 000000
603AR060022 7060001866700604690LITTLE ROCK             ARK   040718060A009B30MWU00UUU12UN18 000000
603AR060022 7060001866700604690LITTLE ROCK             ARK   040718060A010B38FBU00UUU40UN99 000000
603AR060022 7060001866700604690LITTLE ROCK             ARK   040718060A011B28MBU00UUU12UN99 000000
603AR060022 7060001866700604690LITTLE ROCK             ARK   040718060A012C18MWU19MBU12AQ99 000001                                                  20MBU12AQ99
603AR060022 7060001866700604690LITTLE ROCK             ARK   040718060A013B25MBU00UUU14UN99 000000
603AR060022 7060001866700604690LITTLE ROCK             ARK   040718060A014A48MWU46MWU40AQ99 000000
603AR060022 7060001866700604690LITTLE ROCK             ARK   040718060A015A32MBU31MBU12AQ18 000000
603AR060022 7060001866700604690LITTLE ROCK             ARK   040718060A016A48MBU27MBU20AQ03 000000
603AR060022 7060001866700604690LITTLE ROCK             ARK   050724060A001A27FBU33MBU12GF45 000000
603AR060022 7060001866700604690LITTLE ROCK             ARK   050724060A002B52MBU00UUU12UN99 000000
603AR060022 7060001866700604690LITTLE ROCK             ARK   060823060A001A21MBU20MBU13AQ45 000000
603AR060022 7060001866700604690LITTLE ROCK             ARK   060823060A002A27MBU17MBU12AQ43 000000
603AR060022 7060001866700604690LITTLE ROCK             ARK   060823060A003B20MBU00UUU13UN99 000000
603AR060022 7060001866700604690LITTLE ROCK             ARK   060823060A004B18MBU00UUU13UN99 000000
603AR060022 7060001866700604690LITTLE ROCK             ARK   060823060A005B17MWU00UUU12UN46 000000
603AR060022 7060001866700604690LITTLE ROCK             ARK   060823060A006A46MBU00UBU12UN45 000000
603AR060022 7060001866700604690LITTLE ROCK             ARK   060823060A007B41MWU00UUU12UN99 000000
603AR060022 7060001866700604690LITTLE ROCK             ARK   071017060A001B24MBU00UUU11UN99 000000
603AR060022 7060001866700604690LITTLE ROCK             ARK   071017060A002A27MBU22MBU12AQ18 000000
603AR060022 7060001866700604690LITTLE ROCK             ARK   071017060A003A38MBU29MBU20AQ40 000000
603AR060022 7060001866700604690LITTLE ROCK             ARK   071017060A004A23FBU28MBU40WI45 000000
603AR060022 7060001866700604690LITTLE ROCK             ARK   081024060A001A22MBU25MBU12AQ45 000000
603AR060022 7060001866700604690LITTLE ROCK             ARK   081024060A002A22MBU22MBU12AQ03 000000
