601AL001009A6090001525330370981JEFFERSON               ALA   020319100A001A52MW 48MW 12BR99 000000
601AL001009A6090001525330370981JEFFERSON               ALA   030319100A001A39FW 16MW 12MO45 000000
601AL001009A6090001525330370981JEFFERSON               ALA   040319100A001A19MB 21MB 14AQ99 000000
601AL001009A6090001525330370981JEFFERSON               ALA   080319101A001B48FB 00UU 12UN45 000000
601AL001009A6090001525330370981JEFFERSON               ALA   090319100A001A21MB 26MB 12AQ99 000000
601AL001014 6090000283720370981BESSEMER                ALA   010319100A001A26MB 20MB 14ST99 000000
601AL001014 6090000283720370981BESSEMER                ALA   050515101A001B32MB 00UU 12UN99 000000
601AL001014 6090000283720370981BESSEMER                ALA   050515101A002B31MB 00UU 12UN99 000000
601AL001014 6090000283720370981BESSEMER                ALA   060319100A001A43MW 00MB 12UN99 000000
601AL001014 6090000283720370981BESSEMER                ALA   070319100A001A40MB 29MB 12AQ99 000000
601AL001014 6090000283720370981BESSEMER                ALA   080515101A001B00MB 00UU 12UN99 000000
601AL001014 6090000283720370981BESSEMER                ALA   090319100A001A23MB 27MB 12AQ99 000000
601AL001014 6090000283720370981BESSEMER                ALA   090515101A002A23MB 27MB 12AQ99 000000
601AL001014 6090000283720370981BESSEMER                ALA   100319100A001A22MB 00MB 12UN99 000000
601AL001014 6090000283720370981BESSEMER                ALA   100515101A002B19MB 00UU 12UN99 000000
601AL001022 6090002273730370980BIRMINGHAM              ALA   010319101A001A34MB 00MB 12FR99 000000
601AL001022 6090002273730370980BIRMINGHAM              ALA   010319101A002A32MB 42MB 12UN99 000000
601AL001022 6090002273730370980BIRMINGHAM              ALA   010319101A003A38MW 22MW 12AQ18 000000
601AL001022 6090002273730370980BIRMINGHAM              ALA   010319101A004A28MW 00MB 12ST99 000000
601AL001022 6090002273730370980BIRMINGHAM              ALA   010319101A005A29MB 00FB 12EE99 000000
601AL001022 6090002273730370980BIRMINGHAM              ALA   010319101A006B50MB 00UU 12UN99 000000
601AL001022 6090002273730370980BIRMINGHAM              ALA   010319101A007A38MW 38UU 12EE99 000000
601AL001022 6090002273730370980BIRMINGHAM              ALA   020319101A001B21MB 00UU 12UN99 000000
601AL001022 6090002273730370980BIRMINGHAM              ALA   020319101A002A34FB 24MB 12GF45 000000
601AL001022 6090002273730370980BIRMINGHAM              ALA   020319101A003A01FB 25FB 40DA60 000000
601AL001022 6090002273730370980BIRMINGHAM              ALA   030319101A001A40MB 19MB 40ST03 000000
601AL001022 6090002273730370980BIRMINGHAM              ALA   030319101A002B39MB 00UU 12UN99 000000
601AL001022 6090002273730370980BIRMINGHAM              ALA   030319101A003A31MI 00MA 12AQ99 000000
601AL001022 6090002273730370980BIRMINGHAM              ALA   030319101A004B34MB 00UU 12UN99 000000
601AL001022 6090002273730370980BIRMINGHAM              ALA   030319101A005A49MB 18MB 12AQ45 000000
601AL001022 6090002273730370980BIRMINGHAM              ALA   030319101A006A20MB 00MB 12AQ99 000000
601AL001022 6090002273730370980BIRMINGHAM              ALA   040319101A001B00FB 00UU 90UN99 000000
601AL001022 6090002273730370980BIRMINGHAM              ALA   040319101A002A20MB 25MB 12UN99 000000
601AL001022 6090002273730370980BIRMINGHAM              ALA   040319101A003A21MW 30MW 20AQ03 000000
601AL001022 6090002273730370980BIRMINGHAM              ALA   040319101A004B26MB 00UU 40UN99 000000
601AL001022 6090002273730370980BIRMINGHAM              ALA   040319101A005B65MW 00UU 12UN99 000000
601AL001022 6090002273730370980BIRMINGHAM              ALA   050319101A001A46FB 58MB 12WI99 000000
601AL001022 6090002273730370980BIRMINGHAM              ALA   050319101A002A44MB 25MB 12ST03 000000
601AL001022 6090002273730370980BIRMINGHAM              ALA   050319101A003A18MB 18MB 12AQ45 000000
601AL001022 6090002273730370980BIRMINGHAM              ALA   050319101A004A21MB 23MB 90ST99 000000
601AL001022 6090002273730370980BIRMINGHAM              ALA   050319101A005A28MB 38MB 12ST99 000000
601AL001022 6090002273730370980BIRMINGHAM              ALA   050319101A006A38FB 00MB 12UN99 000000
601AL001022 6090002273730370980BIRMINGHAM              ALA   050319101A007A25MB 28MB 14UN99 000000
601AL001022 6090002273730370980BIRMINGHAM              ALA   050319101A008B56MB 00UU 12UN99 000000
601AL001022 6090002273730370980BIRMINGHAM              ALA   060319101A001A45MW 42MW 12ST99 000000
601AL001022 6090002273730370980BIRMINGHAM              ALA   060319101A002A23MB 19MB 12AQ45 000000
601AL001022 6090002273730370980BIRMINGHAM              ALA   060319101A003B28MW 00UU 12UN99 000000
601AL001022 6090002273730370980BIRMINGHAM              ALA   060319101A004B22MB 00UU 12UN99 000000
601AL001022 6090002273730370980BIRMINGHAM              ALA   070319101A001B35MB 00UU 40UN99 000000
601AL001022 6090002273730370980BIRMINGHAM              ALA   070319101A002A01MB 28MB 40UN99 000000
601AL001022 6090002273730370980BIRMINGHAM              ALA   070319101A003A40FB 40MB 12GF45 000000
601AL001022 6090002273730370980BIRMINGHAM              ALA   070319101A004B23FB 00UU 12UN99 000000
601AL001022 6090002273730370980BIRMINGHAM              ALA   070319101A005A20MB 26MB 90ST99 000000
601AL001022 6090002273730370980BIRMINGHAM              ALA   070319101A006A27MB 31FB 20BF45 000000
601AL001022 6090002273730370980BIRMINGHAM              ALA   070319101A007A27FB 28MB 12GF45 000000
601AL001022 6090002273730370980BIRMINGHAM              ALA   080319101A001B23MB 00UU 12UN99 000000
601AL001022 6090002273730370980BIRMINGHAM              ALA   080319101A002B18MB 00UU 90UN99 000000
601AL001022 6090002273730370980BIRMINGHAM              ALA   080319101A003A21MB 35MB 20ST45 000000
601AL001022 6090002273730370980BIRMINGHAM              ALA   090319101A001B49MB 00UU 90UN99 000000
601AL001022 6090002273730370980BIRMINGHAM              ALA   090319101A002A59MB 60MB 12FR99 000000
601AL001022 6090002273730370980BIRMINGHAM              ALA   090319101A003B31MB 00UU 12UN99 000000
601AL001022 6090002273730370980BIRMINGHAM              ALA   090319101A004A33FB 00MB 12AQ99 000000
601AL001022 6090002273730370980BIRMINGHAM              ALA   100319101A001A60MB 61MB 20HO45 000000
601AL001022 6090002273730370980BIRMINGHAM              ALA   100319101A002A48MB 53MB 12AQ45 000000
601AL001022 6090002273730370980BIRMINGHAM              ALA   100319101A003B22MB 00UU 12UN99 000000
601AL001022 6090002273730370980BIRMINGHAM              ALA   100319101A004A26MB 22MB 12AQ18 000000
601AL001022 6090002273730370980BIRMINGHAM              ALA   100319101A005A33MB 00MB 14AQ18 000000
601AL001022 6090002273730370980BIRMINGHAM              ALA   100319101A006A46MB 00MB 12UN99 000000
601AL001022 6090002273730370980BIRMINGHAM              ALA   110319101A001A42FB 00MB 12UN99 000000
601AL001022 6090002273730370980BIRMINGHAM              ALA   110319101A002A19FB 25FB 12ST99 000000
601AL001022 6090002273730370980BIRMINGHAM              ALA   110319101A003A21MB 00MB 14AQ18 000000
601AL001022 6090002273730370980BIRMINGHAM              ALA   110319101A004A45MB 48MB 12AQ45 000000
601AL001022 6090002273730370980BIRMINGHAM              ALA   110319101A005A23MB 00MB 12UN99 000000
601AL001022 6090002273730370980BIRMINGHAM              ALA   110319101A006A25MB 19MB 12AQ18 000000
601AL001022 6090002273730370980BIRMINGHAM              ALA   110319101A007A29MB 00MB 12AQ18 000000
601AL001022 6090002273730370980BIRMINGHAM              ALA   120319100A001A34MB 00MB 12AQ18 000000
601AL001022 6090002273730370980BIRMINGHAM              ALA   120319100A002A21MB 00MB 12UN99 000000
601AL001022 6090002273730370980BIRMINGHAM              ALA   120319100A003A60MB 51MB 12AQ45 000000
601AL001022 6090002273730370980BIRMINGHAM              ALA   120319100A004A30MB 51MB 12AQ45 000000
601AL001022 6090002273730370980BIRMINGHAM              ALA   120319100A005A21MB 00MB 12UN99 000000
601AL001086 6090000064450370981TARRANT                 ALA   080319100A001A20MB 00MB 12UN99 000000
601AL001105 6090000237080370981HOMEWOOD                ALA   120428101A001B36MW 00UU 12UN99 000000
601AL001123 6090000719190370980HOOVER                  ALA   090214110A001A39FB 24MW 12GF45 000000
601AL001123 6090000719190370980HOOVER                  ALA   100214110A001C25MW 48MB 20UN99 000001                                                  43FB 20UN99
601AL001136 6090000096660370981IRONDALE                ALA   050319100A001A27MB 22MB 12UN40 000000
601AL001145 6090000102810370981PLEASANT GROVE          ALA   080319100A001A89FW 38MW 90OF45 000000
601AL001195 6090000156920370981HUEYTOWN                ALA   010319100A001A79FW 76MW 12WI45 000000
601AL001195 6090000156920370981HUEYTOWN                ALA   020319100A001A36MW 30MW 90FR45 000000
601AL001195 6090000156920370981HUEYTOWN                ALA   020329100A002A36MW 30MW 90FR45 000000
601AL001195 6090000156920370981HUEYTOWN                ALA   030319100A001A26MW 24MW 20AQ45 000000
601AL001195 6090000156920370981HUEYTOWN                ALA   030428101A002A24FW 00MU 20GF40 000000
601AL001195 6090000156920370981HUEYTOWN                ALA   030428101A003B31MW 00UU 20UN45 000000
601AL001195 6090000156920370981HUEYTOWN                ALA   030428101A004A27FW 00MU 20GF40 000000
601AL002009B6090000989800495471MOBILE                  ALA   060319100A001A41FW 19MB 12AQ18 000000
601AL002009B6090000989800495471MOBILE                  ALA   060319100A002A22MB 32MW 14AQ18 000000
601AL002009B6090000989800495471MOBILE                  ALA   080319100A001A43MB 24MB 12AQ45 000000
601AL002009B6090000989800495471MOBILE                  ALA   100319100A001A30MB 28MB 12AQ45 000000
601AL002009B6090000989800495471MOBILE                  ALA   100428101A002A29FW 33MW 13WI60 000000
601AL002012 6090002461710495470MOBILE                  ALA   010319100A001A33MB 31MB 12AQ99 000000
601AL002012 6090002461710495470MOBILE                  ALA   020319101A001B47MW 00UU 90UN99 000000
601AL002012 6090002461710495470MOBILE                  ALA   020319100A002A22MW 32MW 12ST99 000000
601AL002012 6090002461710495470MOBILE                  ALA   030319100A001A35FB 16MB 12ST99 000000
601AL002012 6090002461710495470MOBILE                  ALA   030319100A002A46MA 17MB 12UN99 000000
601AL002012 6090002461710495470MOBILE                  ALA   030319101A003B46MW 00UU 12UN99 000000
601AL002012 6090002461710495470MOBILE                  ALA   040319100A001A15MB 16MB 12UN99 000000
601AL002012 6090002461710495470MOBILE                  ALA   040319101A002B26FW 00UU 12UN99 000000
601AL002012 6090002461710495470MOBILE                  ALA   040319101A003B26FW 00UU 12UN99 000000
601AL002012 6090002461710495470MOBILE                  ALA   040319100A004A50MB 39FW 12AQ99 000000
601AL002012 6090002461710495470MOBILE                  ALA   050319100A001A43FB 43MB 12WI99 000000
601AL002012 6090002461710495470MOBILE                  ALA   050319100A002A43FB 42MB 12WI99 000000
601AL002012 6090002461710495470MOBILE                  ALA   050319101A003B56MB 00UU 12UN99 000000
601AL002012 6090002461710495470MOBILE                  ALA   060319100A001A26MB 18MW 90UN99 000000
601AL002012 6090002461710495470MOBILE                  ALA   060319100A002A25MB 24MB 12UN99 000000
601AL002012 6090002461710495470MOBILE                  ALA   060319100A003A37FW 40MW 12WI99 000000
601AL002012 6090002461710495470MOBILE                  ALA   060319100A004A00FU 25MB 90UN99 000000
601AL002012 6090002461710495470MOBILE                  ALA   070319100A001A28MB 32MB 12FR99 000000
601AL002012 6090002461710495470MOBILE                  ALA   080319100A001A45MB 18MB 12UN99 000000
601AL002012 6090002461710495470MOBILE                  ALA   090319100A001A20MB 17MB 12AQ99 000000
601AL002012 6090002461710495470MOBILE                  ALA   100319100A001A44MB 18MB 90UN99 000000
601AL002012 6090002461710495470MOBILE                  ALA   110319101A001B00MU 00UU 90UN99 000000
601AL002012 6090002461710495470MOBILE                  ALA   120319100A001A32FB 34MB 90UN99 000000
601AL002012 6090002461710495470MOBILE                  ALA   120319100A002A63FW 17MB 12NE99 000000
601AL002024 6090000275600495471PRICHARD                ALA   010319100A001A32MB 18MB 12ST99 000000
601AL002024 6090000275600495471PRICHARD                ALA   040319100A001A51MB 26MB 12AQ99 000000
601AL002024 6090000275600495471PRICHARD                ALA   040319100A002A42MB 19MB 20ST99 000000
601AL002024 6090000275600495471PRICHARD                ALA   070319100A001A31MB 34MB 12NE99 000000
601AL002046 6090000037440495471CITRONELLE              ALA   120319100A001A03FB 19MB 40OF41 000000
601AL002076 6090000060420495471SATSUMA                 ALA   050319100A001A46FW 26MW 20MO99 000000
601AL003012 6090002028180515560MONTGOMERY              ALA   010319100A001A33MB 40MB 12UN99 000000
601AL003012 6090002028180515560MONTGOMERY              ALA   020319100A001A27MB 29MB 20AQ99 000000
601AL003012 6090002028180515560MONTGOMERY              ALA   020319100A002A52MB 32MB 12OF99 000000
601AL003012 6090002028180515560MONTGOMERY              ALA   020319100A003A32FB 32MB 12WI99 000000
601AL003012 6090002028180515560MONTGOMERY              ALA   020319100A004A26MB 29MB 90BR99 000000
601AL003012 6090002028180515560MONTGOMERY              ALA   020319101A005B24MB 00UU 12UN99 000000
601AL003012 6090002028180515560MONTGOMERY              ALA   020319101A006B27MB 00UU 12UN99 000000
601AL003012 6090002028180515560MONTGOMERY              ALA   030319100A001A34MB 19FB 12UN99 000000
601AL003012 6090002028180515560MONTGOMERY              ALA   030319100A002A27MB 00MB 12UN99 000000
601AL003012 6090002028180515560MONTGOMERY              ALA   040319100A001A21FB 21FB 12UN99 000000
601AL003012 6090002028180515560MONTGOMERY              ALA   040319100A002A22MB 18MB 12UN99 000000
601AL003012 6090002028180515560MONTGOMERY              ALA   040319100A003A45MB 51MB 12AQ99 000000
601AL003012 6090002028180515560MONTGOMERY              ALA   050319100A001A22MB 20MB 12UN99 000000
601AL003012 6090002028180515560MONTGOMERY              ALA   050319101A002B19MB 00UU 12UN99 000000
601AL003012 6090002028180515560MONTGOMERY              ALA   050319100A003A30MB 30MB 12UN99 000000
601AL003012 6090002028180515560MONTGOMERY              ALA   050319100A004A28MB 27MB 12UN45 000000
601AL003012 6090002028180515560MONTGOMERY              ALA   060319100A001A48FB 22MB 12AQ99 000000
601AL003012 6090002028180515560MONTGOMERY              ALA   060319100A002A19MB 17MB 12UN99 000000
601AL003012 6090002028180515560MONTGOMERY              ALA   060319100A003A38MB 28MB 12AQ99 000000
601AL003012 6090002028180515560MONTGOMERY              ALA   060319100A004A29MB 20MB 12UN99 000000
601AL003012 6090002028180515560MONTGOMERY              ALA   070319100A001A29FB 30MB 12GF99 000000
601AL003012 6090002028180515560MONTGOMERY              ALA   070319100A002A27FB 30MB 12AQ99 000000
601AL003012 6090002028180515560MONTGOMERY              ALA   080319100A001A52MB 53MB 40UN99 000000
601AL003012 6090002028180515560MONTGOMERY              ALA   080319100A002A28MB 18MB 12UN99 000000
601AL003012 6090002028180515560MONTGOMERY              ALA   080319100A003A35MB 20UU 20UN99 000000
601AL003012 6090002028180515560MONTGOMERY              ALA   090319100A001A48FB 87MB 40AQ99 000000
601AL003012 6090002028180515560MONTGOMERY              ALA   100319100A001A47MB 26MB 12FA99 000000
601AL003012 6090002028180515560MONTGOMERY              ALA   100323101A002A00MB 26FB 40UN99 000000
601AL003012 6090002028180515560MONTGOMERY              ALA   110319100A001A37FW 49MW 12WI99 000000
601AL003012 6090002028180515560MONTGOMERY              ALA   110423101A002A18MB 18MB 40HO99 000000
601AL003012 6090002028180515560MONTGOMERY              ALA   120319100A001A59MB 17MB 12UN99 000000
601AL005008B609000086444002   0BALDWIN                 ALA   010428101A001B51MW 00UU 12UN99 000000
601AL005025 609000017723002   0FAIRHOPE                ALA   020319100A001A22MB 25FB 20BR45 000000
601AL005025 609000017723002   0FAIRHOPE                ALA   040319100A001A33FW 37MW 14WI45 000000
601AL005035 609000014566002   0FOLEY                   ALA   010319100A001A25FB 25MB 90GF45 000000
601AL005085 609000019368002   0DAPHNE                  ALA   040319100A001A25MB 20MB 12UN45 000000
601AL005085 609000019368002   0DAPHNE                  ALA   040319100A002A19MB 20MB 12UN45 000000
601AL005085 609000019368002   0DAPHNE                  ALA   040319100A003A18FB 20MB 12UN45 000000
601AL005085 609000019368002   0DAPHNE                  ALA   040319100A004A19MB 20MB 12UN45 000000
601AL007009C6090000123870040981BIBB                    ALA   090319100A001A52FW 22MU 20IL99 000000
601AL009008D609000006076006   0BULLOCK                 ALA   110428101A001B26MB 00UU 12UN60 000000
601AL009016 609000004682006   0UNION SPRINGS           ALA   060319100A001A19MB 27FB 20BF99 000000
601AL011015 6090000235980080420ANNISTON                ALA   050319100A001A47MW 20MW 12BF99 000000
601AL011015 6090000235980080420ANNISTON                ALA   060428101A001B46MB 00UU 12UN99 000000
601AL011015 6090000235980080420ANNISTON                ALA   070428101A001B45FW 00UU 40UN99 000000
601AL011015 6090000235980080420ANNISTON                ALA   090319100A001A36MW 22MW 14NE45 000000
601AL011015 6090000235980080420ANNISTON                ALA   110428101A001A41FW 00MU 12WI45 000000
601AL011077 6090000012470080421OHATCHEE                ALA   120428101A001B48MW 00UU 90UN99 000000
601AL016008C609000015053013   0CLARKE                  ALA   030319100A001A30MB 25MB 12UN99 000000
601AL016008C609000015053013   0CLARKE                  ALA   040319100A001A28MB 29MB 12UN99 000000
601AL016008C609000015053013   0CLARKE                  ALA   100319100A001A53FW 50MW 14UN99 000000
601AL018008C609000010869015   0CLEBURNE                ALA   010319100A001A62MW 48MU 12AQ45 000000
601AL018008C609000010869015   0CLEBURNE                ALA   110319100A001A48MW 16MU 12OF45 000000
601AL019024 609000025868016   0ENTERPRISE              ALA   010319100A001A30MB 20MB 12UN99 000000
601AL019024 609000025868016   0ENTERPRISE              ALA   060428101A001B20MW 00UU 90UN99 000000
601AL019024 609000025868016   0ENTERPRISE              ALA   060319100A002A19FW 23MW 90UN99 000000
601AL021008D609000009024018   0CONECUH                 ALA   060319100A001A30FW 37MW 14WI99 000000
601AL022017 609000001510019   0GOODWATER               ALA   050319100A001A29MB 27MB 20AQ99 000000
601AL023008C609000018202020   0COVINGTON               ALA   030428101A001B57FW 00UU 90UN99 000000
601AL023008C609000018202020   0COVINGTON               ALA   030319100A002A34FW 20MW 90UN99 000000
601AL023008C609000018202020   0COVINGTON               ALA   050319100A001A75MW 28MW 20UN99 000000
601AL023008C609000018202020   0COVINGTON               ALA   050319100A002A71FW 28MW 20UN99 000000
601AL023008C609000018202020   0COVINGTON               ALA   100319100A001A23MW 44MW 90UN99 000000
601AL023008C609000018202020   0COVINGTON               ALA   120319100A001A47FW 55MW 40UN99 000000
601AL023016 609000008994020   0ANDALUSIA               ALA   040319100A001A63FB 44FB 90MO45 000000
601AL025008B609000063205022   0CULLMAN                 ALA   040319100A001A62FW 46MU 14NE60 000000
601AL025008B609000063205022   0CULLMAN                 ALA   110428101A001B72MW 00UU 40UN99 000000
601AL025008B609000063205022   0CULLMAN                 ALA   120319100A001A40MW 37MU 40AQ99 000000
601AL026008C609000020637023   0DALE                    ALA   020428100A002A00MB 22MB 40SO60 000000
601AL026008C609000020637023   0DALE                    ALA   060319100A001A32MB 21MB 12AQ41 000000
601AL026008C609000020637023   0DALE                    ALA   100428101A001B43MB 00UU 12UN18 000000
601AL026015 609000014670023   0OZARK                   ALA   060319100A001A31MW 16MW 20SF45 000000
601AL026067 609000001904023   0MIDLAND CITY            ALA   090319100A001A38MW 27MW 12OF99 000000
601AL027015 609000018679024   0SELMA                   ALA   040319100A001A19MB 17MB 12ST45 000000
601AL027015 609000018679024   0SELMA                   ALA   040319100A002A30MB 23FB 20BF40 000000
601AL027015 609000018679024   0SELMA                   ALA   050319100A001A25MB 22MB 12AQ99 000000
601AL027015 609000018679024   0SELMA                   ALA   070319100A001A39MB 36MB 12ST42 000000
601AL027015 609000018679024   0SELMA                   ALA   090319100A001A23MB 30MB 12AQ45 000000
601AL028008B609000038719025   0DE KALB                 ALA   080319100A001A00FW 27MW 20GF45 000000
601AL028015 609000014189025   0FORT PAYNE              ALA   120319100A001A28FW 30MW 90XW99 000000
601AL029009B6090000465510265561ELMORE                  ALA   010319100A001A35MB 33MU 12UN99 000000
601AL029009B6090000465510265561ELMORE                  ALA   010319100A002A16MB 24MU 12AQ99 000000
601AL029016 6090000079640265561WETUMPKA                ALA   050319100A001A86MW 80MU 14NE99 000000
601AL029016 6090000079640265561WETUMPKA                ALA   120319100A001A29MB 64MU 14ST40 000000
601AL029026 6090000051990265561TALLASSEE               ALA   100319100A001A16FW 24MU 12GF45 000000
601AL029065 6090000173830265561MILLBROOK               ALA   090428101A001B35MB 00UU 40UN99 000000
601AL030016 609000007396027   0ATMORE                  ALA   030319100A001A19FB 44MB 14AQ40 000000
601AL030016 609000007396027   0ATMORE                  ALA   030319100A002A27MB 44MB 14AQ40 000000
601AL030016 609000007396027   0ATMORE                  ALA   030319100A003A40FB 44MB 14GF40 000000
601AL030016 609000007396027   0ATMORE                  ALA   090428101A001B51MB 00UU 20UN99 000000
601AL031016 6090000065140283031ATTALLA                 ALA   090319100A001A30FW 25MB 90GF99 000000
601AL031024 6090000365950283030GADSDEN                 ALA   070319100A001A25MW 29MW 14UN99 000000
601AL031024 6090000365950283030GADSDEN                 ALA   100428101A001B22MB 00UU 12UN99 000000
601AL033008C609000017644030   0FRANKLIN                ALA   080319100A001A33MW 50MW 14UN99 000000
601AL035009D6090000055950329151GREENE                  ALA   110428101A001B31MB 00UU 12UN45 000000
601AL036009C6090000134130339151HALE                    ALA   070515101A001B37MB 00UU 12UN99 000000
601AL036016 6090000025460339151GREENSBORO              ALA   070319100A001A35MB 54MB 90AQ45 000000
601AL037009D6090000091520342271HENRY                   ALA   030319100A001A24MI 20MW 20FR99 000000
601AL038013 6090000674960352270DOTHAN                  ALA   090319100A001A29MB 26UU 12UN45 000000
601AL039008B609000029656036   0JACKSON                 ALA   050319100A001A29MW 29FW 12CH45 000000
601AL039015 609000015015036   0SCOTTSBORO              ALA   030319100A001A50MW 30MB 90CH99 000000
601AL039015 609000015015036   0SCOTTSBORO              ALA   120423101A001A46FW 48MW 90CW99 000000
601AL041009B6090000479120392781LAUDERDALE              ALA   040319100A001A00FW 45MW 12XW99 000000
601AL041009B6090000479120392781LAUDERDALE              ALA   090319100A001A00MW 27MW 12AQ99 000000
601AL041009B6090000479120392781LAUDERDALE              ALA   090319100A002A00FB 27MW 12AQ99 000000
601AL041014 6090000380550392780FLORENCE                ALA   050319100A001A27MB 27MB 12UN99 000000
601AL041014 6090000380550392780FLORENCE                ALA   060319100A001A26MB 58MB 12UN99 000000
601AL041014 6090000380550392780FLORENCE                ALA   110319100A001A33MB 30MB 12AQ99 000000
601AL041037 6090000003540392781ANDERSON                ALA   050319100A001A40MW 40MW 14AQ44 000000
601AL043009B6090000485900410571LEE                     ALA   020319100A001A17MW 00MU 12UN05 000000
601AL043009B6090000485900410571LEE                     ALA   030330100A001A01MW 48MW 40SS60 000000
601AL043009B6090000485900410571LEE                     ALA   090330101A001A39MW 31MW 90UN26 000000
601AL043013 6090000573420410570AUBURN                  ALA   010428101A001B22FB 00UU 12UN45 000000
601AL043013 6090000573420410570AUBURN                  ALA   070428101A001B38MB 00UU 12UN99 000000
601AL043013 6090000573420410570AUBURN                  ALA   070428101A002B42FB 00UU 12UN99 000000
601AL043024 6090000270870410570OPELIKA                 ALA   030428101A001B37MB 00UU 12UN99 000000
601AL043024 6090000270870410570OPELIKA                 ALA   040319100A001A53MB 30MB 12UN99 000000
601AL043024 6090000270870410570OPELIKA                 ALA   090428101A001B30MB 00UU 12UN99 000000
601AL044009B6090000498720423681LIMESTONE               ALA   030319100A001A26MW 36MW 12OF45 000000
601AL044009B6090000498720423681LIMESTONE               ALA   080319100A001A49MW 48FW 12HU99 000000
601AL045009C6090000104600435561LOWNDES                 ALA   030319100A001A19MB 20MB 14OF45 000000
601AL045047 6090000010330435561MOSSES                  ALA   120319100A001A32MB 32MB 14AQ99 000000
601AL046015 609000011281044   0TUSKEGEE                ALA   010428101A001B52MB 00UU 12UN99 000000
601AL046015 609000011281044   0TUSKEGEE                ALA   020428101A001B39MB 00UU 20UN99 000000
601AL046015 609000011281044   0TUSKEGEE                ALA   030428101A001A39MB 00MU 40NE99 000000
601AL046015 609000011281044   0TUSKEGEE                ALA   070319100A001A24MB 00MB 12UN45 000000
601AL046015 609000011281044   0TUSKEGEE                ALA   100428101A001B25MB 00UU 12UN99 000000
601AL046067 609000000377044   0SHORTER                 ALA   030319100A001A29MB 24MB 12FR99 000000
601AL047009A6090001038540453681MADISON                 ALA   030319100A001A35MB 30MB 12UN99 000000
601AL047009A6090001038540453681MADISON                 ALA   070319100A001A27MB 22MB 12UN99 000000
601AL047009A6090001038540453681MADISON                 ALA   080319100A001A29MB 00MB 12UN99 000000
601AL047012 6090001786010453680HUNTSVILLE              ALA   010319101A001B33FB 00UU 12UN99 000000
601AL047012 6090001786010453680HUNTSVILLE              ALA   010319100A002A28MB 26MB 12UN99 000000
601AL047012 6090001786010453680HUNTSVILLE              ALA   010319100A003A49FW 58MW 14NE99 000000
601AL047012 6090001786010453680HUNTSVILLE              ALA   020319101A001B23MB 00UU 90UN99 000000
601AL047012 6090001786010453680HUNTSVILLE              ALA   040319100A001A45MB 19MB 12AQ45 000000
601AL047012 6090001786010453680HUNTSVILLE              ALA   040323101A002D16FW 25MW 90UN99 00100019MW
601AL047012 6090001786010453680HUNTSVILLE              ALA   060323101A001A23FB 22MB 14UN45 000000
601AL047012 6090001786010453680HUNTSVILLE              ALA   070319101A001B31MB 00UU 90UN99 000000
601AL047012 6090001786010453680HUNTSVILLE              ALA   070319100A002A31MB 47MB 12SS45 000000
601AL047012 6090001786010453680HUNTSVILLE              ALA   070319100A003A55FB 53MB 12GF45 000000
601AL047012 6090001786010453680HUNTSVILLE              ALA   070319100A004A50MW 30MW 40UN99 000000
601AL047012 6090001786010453680HUNTSVILLE              ALA   080319100A001A21FB 37MB 12UN99 000000
601AL047024 6090000398800453681MADISON                 ALA   030319100A001A52FW 53MW 90WI99 000000
601AL047024 6090000398800453681MADISON                 ALA   090319100A001A00MB 16MW 90ST99 000000
601AL047024 6090000398800453681MADISON                 ALA   090319100A002A73FW 49FW 20MO45 000000
601AL048008C609000011323046   0MARENGO                 ALA   050319100A001A39MB 54MB 12OF99 000000
601AL050008B609000044047048   0MARSHALL                ALA   100428101A001B58MW 00UU 20UN99 000000
601AL050026 609000008510048   0GUNTERSVILLE            ALA   020428101A001A23FW 00MU 12WI45 000000
601AL050026 609000008510048   0GUNTERSVILLE            ALA   040319100A001A21MB 20MB 12AQ18 000000
601AL050026 609000008510048   0GUNTERSVILLE            ALA   080319100A001A38MW 21FW 90UN99 000000
601AL050026 609000008510048   0GUNTERSVILLE            ALA   090319100A001A52MW 18MW 12OF45 000000
601AL050026 609000008510048   0GUNTERSVILLE            ALA   090319100A002A35MW 59MW 14FA45 000000
601AL050036 609000008007048   0ARAB                    ALA   010428101A002A01MW 25FW 40SO60 000000
601AL051008C609000014211050   0MONROE                  ALA   060319100A001A26MW 17MW 12AQ99 000000
601AL051008C609000014211050   0MONROE                  ALA   060319100A002A45MW 51MW 14AQ99 000000
601AL051008C609000014211050   0MONROE                  ALA   110319100A001A81MB 30MB 12AQ03 000000
601AL052025 6090000140700522101HARTSELLE               ALA   060319100A001A78FW 78MW 12WI99 000000
601AL057009C6090000215070571841RUSSELL                 ALA   110428101A001B27MB 00UU 14UN99 000000
601AL057014 6090000314380571841PHENIX CITY             ALA   090319100A001A40MB 47MB 12AQ45 000000
601AL058009B6090000365940580981ST. CLAIR               ALA   030319100A001A67MW 47MU 14FA45 000000
601AL058015 6090000132520580981PELL CITY               ALA   050319100A001A37FB 46MB 12WI45 000000
601AL058065 6090000141750580981MOODY                   ALA   030319100A001A40FW 43FW 12AQ99 000000
601AL058065 6090000141750580981MOODY                   ALA   070319100A001A51MW 24MW 14UN99 000000
601AL058065 6090000141750580981MOODY                   ALA   070428101A002B49FW 00UU 14UN99 000000
601AL059009B6090000813860590981SHELBY                  ALA   100319100A001A56MW 48FW 14HU99 000000
601AL059065 6090000221720590981PELHAM                  ALA   120330101A001A33MW 29MW 12ST26 000000
601AL061008B609000037157061   0TALLADEGA               ALA   070319100A001A26FB 33MB 12GF99 000000
601AL061008B609000037157061   0TALLADEGA               ALA   120428101A001B38MB 00UU 12UN99 000000
601AL061015 609000012844061   0SYLACAUGA               ALA   080319100A001A30MB 18MB 12AQ99 000000
601AL061025 609000016902061   0TALLADEGA               ALA   030428101A001B26MB 00UU 12UN99 000000
601AL061025 609000016902061   0TALLADEGA               ALA   060428101A001B26MB 00UU 12UN44 000000
601AL061025 609000016902061   0TALLADEGA               ALA   070428101A001B26MW 00UU 12UN99 000000
601AL062015 609000015057062   0ALEXANDER CITY          ALA   030319100A001A20MB 18FB 12UN03 000000
601AL062015 609000015057062   0ALEXANDER CITY          ALA   080319100A001A33MB 32MB 14AQ03 000000
601AL063009B6090000629290639151TUSCALOOSA              ALA   010428101A001B29FW 00UU 12UN99 000000
601AL063009B6090000629290639151TUSCALOOSA              ALA   050319100A001A19MB 27MB 14AQ44 000000
601AL063009B6090000629290639151TUSCALOOSA              ALA   100319100A001A60MW 00MB 12ST99 000000
601AL063009B6090000629290639151TUSCALOOSA              ALA   100319100A002A44MW 16MW 12FA45 000000
601AL063013 6090000916880639150TUSCALOOSA              ALA   010319100A001A21MB 20MB 12UN03 000000
601AL063013 6090000916880639150TUSCALOOSA              ALA   020319100A001A28MW 00MB 12UN99 000000
601AL063013 6090000916880639150TUSCALOOSA              ALA   040319100A001A22MB 19MB 12ST42 000000
601AL063013 6090000916880639150TUSCALOOSA              ALA   060428101A001A28FB 00MU 20WI45 000000
601AL063013 6090000916880639150TUSCALOOSA              ALA   100319100A001A46FB 47MB 90GF99 000000
601AL063025 6090000234980639151NORTHPORT               ALA   020319100A001A34FB 19MB 90AQ99 000000
601AL063025 6090000234980639151NORTHPORT               ALA   080319100A001A20FW 45MW 90DA99 000000
601AL064037 6090000022700640981CORDOVA                 ALA   060319100A001A17MB 22MW 20AQ45 000000
601AL064037 6090000022700640981CORDOVA                 ALA   100428101A001B21MW 00UU 12UN99 000000
601AL066027 609000000907066   0PINE HILL               ALA   010428101A001B56MW 00UU 90UN09 000000
602AZ001008B809000059333001   0APACHE                  ARIZ  080329100A001A17MWH21MWN13FR60 000000
602AZ001008B809000059333001   0APACHE                  ARIZ  090329100A001A60MWN21MWN13FR45 000000
602AZ002008B809000049022002   0COCHISE                 ARIZ  010521090A001D20MWN51MWN12OK45 00100044MWN
602AZ002008B809000049022002   0COCHISE                 ARIZ  041027090A001A23MWH19MWH12BR44 000000
602AZ002094 809000043956002   0SIERRA VISTA            ARIZ  120120111A001A31MBN20MWN12ST42 000000
602AZ002094 809000043956002   0SIERRA VISTA            ARIZ  120120110B002A02FBN28MWN90DA59 000000
602AZ003009B8090000525910032751COCONINO                ARIZ  040329100A001B00UWN00UUU11UN99 000000
602AZ003009B8090000525910032751COCONINO                ARIZ  060329100A001A18FWN29MWN12AQ60 000000
602AZ003013 8090000610720032750FLAGSTAFF               ARIZ  030806090A001A70FWN62MWN12WI60 000000
602AZ003013 8090000610720032750FLAGSTAFF               ARIZ  040831090A001A20MWH24MWN14AQ60 000000
602AZ003013 8090000610720032750FLAGSTAFF               ARIZ  080329100A001A23FWN32MWN12WI45 000000
602AZ003013 8090000610720032750FLAGSTAFF               ARIZ  120329100A001A21MWN20MIN12AQ18 000000
602AZ004016 809000007167004   0GLOBE                   ARIZ  050922090A001C53MIN24FIN30AQ45 000001                                                  57MIN30AQ45
602AZ007009A8090002448340076621MARICOPA                ARIZ  010521090A001B26MWH00UUU90UN99 000000
602AZ007009A8090002448340076621MARICOPA                ARIZ  010521090A002B00MWN00UUU65UN99 000000
602AZ007009A8090002448340076621MARICOPA                ARIZ  010521090A003A40FWN54MWN12ST45 000000
602AZ007009A8090002448340076621MARICOPA                ARIZ  030806090A001B77FWN00UUU12UN99 000000
602AZ007009A8090002448340076621MARICOPA                ARIZ  030806090A002B54MWN00UUU12UN99 000000
602AZ007009A8090002448340076621MARICOPA                ARIZ  030806090A003A47MWN60MWN12ST60 000000
602AZ007009A8090002448340076621MARICOPA                ARIZ  040831090A001B41MWH00UUU85UN99 000000
602AZ007009A8090002448340076621MARICOPA                ARIZ  050922090A001B28MWH00UUU11UN99 000000
602AZ007009A8090002448340076621MARICOPA                ARIZ  050922090A002A29MWN44MWN12FR60 000000
602AZ007009A8090002448340076621MARICOPA                ARIZ  061027090A001A03FWN30MWN40OK60 000000
602AZ007009A8090002448340076621MARICOPA                ARIZ  061027090A002B57MWN00UUU30UN99 000000
602AZ007009A8090002448340076621MARICOPA                ARIZ  061027090A003A54FWN20MWN13MO45 000000
602AZ007009A8090002448340076621MARICOPA                ARIZ  061027090A004A51MWN46MWN12ST09 000000
602AZ007009A8090002448340076621MARICOPA                ARIZ  061027090A005A31FWN35MWH20WI45 000000
602AZ007009A8090002448340076621MARICOPA                ARIZ  071130091A001F38MB 00UU 60UN99 00100139MB                                              00UU 65UN99
602AZ007009A8090002448340076621MARICOPA                ARIZ  081214090A001B24MWN00UUU12UN99 000000
602AZ007009A8090002448340076621MARICOPA                ARIZ  081214090A002B26MWH00UUU30UN99 000000
602AZ007009A8090002448340076621MARICOPA                ARIZ  081214090A003B62MWN00UUU30UN99 000000
602AZ007009A8090002448340076621MARICOPA                ARIZ  100129101A001E33MW 46MW 70OK60 00200241FW 53FW                                         41MW 70OK60 41MW 70OK60
602AZ007009A8090002448340076621MARICOPA                ARIZ  100126100A002A79FAN64MWN12IL45 000000
602AZ007009A8090002448340076621MARICOPA                ARIZ  110223100A001A26MWH22FWH12HU45 000000
602AZ007009A8090002448340076621MARICOPA                ARIZ  120329100A001B23FWH00UUU12UN99 000000
602AZ007013 8090000887730076620AVONDALE                ARIZ  020728090B001ABBMWN16FWN75SO59 000000
602AZ007013 8090000887730076620AVONDALE                ARIZ  040831090A001B28MBN00UUU12UN18 000000
602AZ007013 8090000887730076620AVONDALE                ARIZ  050922090A001A43MWH37MWH14AQ60 000000
602AZ007013 8090000887730076620AVONDALE                ARIZ  071120090A001B28MWH00UUU11UN99 000000
602AZ007013 8090000887730076620AVONDALE                ARIZ  080105100A001A19MWH26MWH20AQ42 000000
602AZ007013 8090000887730076620AVONDALE                ARIZ  120329100A001B45MWH00UUU90UN99 000000
602AZ007033 8090000567800076620BUCKEYE                 ARIZ  041120090A001A52FWN62MWN12WI45 000000
602AZ007051C8090002560910076620CHANDLER                ARIZ  010521090A001A02FWH48FAN40AQ60 000000
602AZ007051C8090002560910076620CHANDLER                ARIZ  040831090A001A18MWH21MWH20ST45 000000
602AZ007051C8090002560910076620CHANDLER                ARIZ  061027090A001A02FWH20MWH40AQ60 000000
602AZ007051C8090002560910076620CHANDLER                ARIZ  081214090A001A03FWN23MBN30OK60 000000
602AZ007051C8090002560910076620CHANDLER                ARIZ  090416101A001ABBFW 26MW 40DA60 000000
602AZ007051C8090002560910076620CHANDLER                ARIZ  120329100B001A18MWH17MWH12FR53 000000
602AZ007112 8090002317990076620GILBERT                 ARIZ  010214110A001A34MW 31FW 30HU60 000000
602AZ007112 8090002317990076620GILBERT                 ARIZ  050214110A001C21MW 21MW 12FR26 000004                                                  20MW 12BR26 22MW 12FR26 22MW 12FR26 21MW 12OK26
602AZ007112 8090002317990076620GILBERT                 ARIZ  060214110A001A41MW 38MB 40UN45 000000
602AZ007112 8090002317990076620GILBERT                 ARIZ  110214110A001ABBFW 19MW 40DA45 000000
602AZ007131C8090002550800076620GLENDALE                ARIZ  010521090A001A82FAN82MAN12WI60 000000
602AZ007131C8090002550800076620GLENDALE                ARIZ  030806090A001C71MWN20FBN12AQ03 000002                                                  30MBN12AQ03 33MWN12AQ03
602AZ007131C8090002550800076620GLENDALE                ARIZ  030806090A002B36MWH00UUU12UN99 000000
602AZ007131C8090002550800076620GLENDALE                ARIZ  030806090A003A46MWN33MWN12AQ80E000000
602AZ007131C8090002550800076620GLENDALE                ARIZ  050922090A001D10FWN29MWN20DA45 00100028FWN
602AZ007131C8090002550800076620GLENDALE                ARIZ  061027090A001B43MWH00UUU90UN99 000000
602AZ007131C8090002550800076620GLENDALE                ARIZ  071120090A001B21MWH00UUU12UN99 000000
602AZ007131C8090002550800076620GLENDALE                ARIZ  071120090A002A37FWH40MWH20GF45 000000
602AZ007131C8090002550800076620GLENDALE                ARIZ  071120090A003B39FWH00UUU80UN99 000000
602AZ007131C8090002550800076620GLENDALE                ARIZ  081214090A001F24MWH00UUU20UN18 00100025MWH
602AZ007131C8090002550800076620GLENDALE                ARIZ  081214090A002A53MWN53MWH20AQ45 000000
602AZ007131C8090002550800076620GLENDALE                ARIZ  090223100A001ABBFWH22FWH70DA60 000000
602AZ007131C8090002550800076620GLENDALE                ARIZ  100126100A001A25MWN24MWH30AQ03 000000
602AZ007131C8090002550800076620GLENDALE                ARIZ  110223100A001A44MWH32MWN20AQ44 000000
602AZ007131C8090002550800076620GLENDALE                ARIZ  120329100A001A44FWN42MWN12GF45 000000
602AZ007131C8090002550800076620GLENDALE                ARIZ  120329100A002A57FWN48MWN12AQ60 000000
602AZ007131C8090002550800076620GLENDALE                ARIZ  120329100A003A53FWH48MWH12GF45 000000
602AZ007171C8090004708330076620MESA                    ARIZ  050922090A001B36MWN00UUU20UN99 000000
602AZ007171C8090004708330076620MESA                    ARIZ  050922090A002D33MBN37MBN12AQ45 00100038FWH
602AZ007171C8090004708330076620MESA                    ARIZ  061027090A001B62MWN00UUU20UN99 000000
602AZ007171C8090004708330076620MESA                    ARIZ  061027090A002A18FWN20MWN12GF45 000000
602AZ007171C8090004708330076620MESA                    ARIZ  061027090A003A19MWH21MWN14ST80E000000
602AZ007171C8090004708330076620MESA                    ARIZ  081214090A001A51MWN62MWN12NE45 000000
602AZ007171C8090004708330076620MESA                    ARIZ  090105100A001D15MWN50FWN14SO60 00100012MWN
602AZ007171C8090004708330076620MESA                    ARIZ  090105100A002A15MBN17MWH20ST47 000000
602AZ007171C8090004708330076620MESA                    ARIZ  110223100A001A34MWH25FWH20AQ45 000000
602AZ007171C8090004708330076620MESA                    ARIZ  110223100A002A17MWN17MWH20FR45 000000
602AZ007171C8090004708330076620MESA                    ARIZ  110223100A003A22MWN42MWN12ST81A000000
602AZ007171C8090004708330076620MESA                    ARIZ  120329100A001B28MWN00UUU12UN60 000000
602AZ007171C8090004708330076620MESA                    ARIZ  120329100A002A26FWH21MBN40GF60 000000
602AZ007171C8090004708330076620MESA                    ARIZ  120329100A003B35MWH00UUU12UN05 000000
602AZ007212 8090001643660076620PEORIA                  ARIZ  020728090A001A48FBN55MBN20OK45 000000
602AZ007212 8090001643660076620PEORIA                  ARIZ  040922090A001A03FWN26FWN40OK60 000000
602AZ007212 8090001643660076620PEORIA                  ARIZ  070713101A001A20FWH20MWH12AQ45 000000
602AZ007212 8090001643660076620PEORIA                  ARIZ  070713100A002B22MWN00UUU12UN99 000000
602AZ007212 8090001643660076620PEORIA                  ARIZ  090105100A001A20MBN34MWH12ST45 000000
602AZ007212 8090001643660076620PEORIA                  ARIZ  100126100A001D56FWN28MWN12ST60 00100026FWN
602AZ007212 8090001643660076620PEORIA                  ARIZ  110223100A001A37MBN49MWN12ST60 000000
602AZ007212 8090001643660076620PEORIA                  ARIZ  120329100A001A46FWH42MWH20WI45 000000
602AZ007231A8090015973970076620PHOENIX                 ARIZ  010713101A001B35MWH00UUU20UN99 000000
602AZ007231A8090015973970076620PHOENIX                 ARIZ  010713101A002A24MWH27MWN12AQ45 000000
602AZ007231A8090015973970076620PHOENIX                 ARIZ  010713101A003C18MWH00MWH12ST99 000001                                                  00MWH12ST99
602AZ007231A8090015973970076620PHOENIX                 ARIZ  010713101A004C25MBN00MBN13ST99 000001                                                  00MBN13ST99
602AZ007231A8090015973970076620PHOENIX                 ARIZ  010713101A005A25MWH00MBN12ST99 000000
602AZ007231A8090015973970076620PHOENIX                 ARIZ  010713101A006B27MBN00UUU11UN99 000000
602AZ007231A8090015973970076620PHOENIX                 ARIZ  010713101A007A52MWH00MWH13ST99 000000
602AZ007231A8090015973970076620PHOENIX                 ARIZ  010713101A008A41MWN00MWH12ST26 000000
602AZ007231A8090015973970076620PHOENIX                 ARIZ  010713101A009B40MWN00UUU12UN99 000000
602AZ007231A8090015973970076620PHOENIX                 ARIZ  020728090A001B39MWN00UUU30UN99 000000
602AZ007231A8090015973970076620PHOENIX                 ARIZ  020728090A002A30MBN32FBN12HU45 000000
602AZ007231A8090015973970076620PHOENIX                 ARIZ  020728090A003A43MWN33MWH12AQ60 000000
602AZ007231A8090015973970076620PHOENIX                 ARIZ  020728090A004A51MWN52MWH12AQ60 000000
602AZ007231A8090015973970076620PHOENIX                 ARIZ  020728090A005C24MWH17MWH14AQ45 000001                                                  21MWH14AQ45
602AZ007231A8090015973970076620PHOENIX                 ARIZ  020728090A006A19MWN35MBN20ST60 000000
602AZ007231A8090015973970076620PHOENIX                 ARIZ  020728090A007A17MWN35MWH20AQ45 000000
602AZ007231A8090015973970076620PHOENIX                 ARIZ  020728090A008A56MWH00MWH12ST18 000000
602AZ007231A8090015973970076620PHOENIX                 ARIZ  020803091A009E44MW 00MW 12ST45 00100145MW                                              00MW 12ST45
602AZ007231A8090015973970076620PHOENIX                 ARIZ  020728090A010B57MWH00UUU11UN99 000000
602AZ007231A8090015973970076620PHOENIX                 ARIZ  020728090A011B32MBN00UUU12UN03 000000
602AZ007231A8090015973970076620PHOENIX                 ARIZ  020728090A012B28MWH00UUU12UN45 000000
602AZ007231A8090015973970076620PHOENIX                 ARIZ  020728090A013A21MWH28MWH12ST45 000000
602AZ007231A8090015973970076620PHOENIX                 ARIZ  030806090A001B45FWN00UUU80UN99 000000
602AZ007231A8090015973970076620PHOENIX                 ARIZ  030806090A002A39FWN36MWH12WI45 000000
602AZ007231A8090015973970076620PHOENIX                 ARIZ  030806090A003D22MWH00MWH12ST45 00100038MWH
602AZ007231A8090015973970076620PHOENIX                 ARIZ  030806090A004B50MWN00UUU12UN99 000000
602AZ007231A8090015973970076620PHOENIX                 ARIZ  030806090A005A44MWN48MWN30FR44 000000
602AZ007231A8090015973970076620PHOENIX                 ARIZ  030806090A006A17MWH16MWH12FR60 000000
602AZ007231A8090015973970076620PHOENIX                 ARIZ  030806090A007A20MBN20MBN12ST60 000000
602AZ007231A8090015973970076620PHOENIX                 ARIZ  030806090A008A23MWN20MWN12FR60 000000
602AZ007231A8090015973970076620PHOENIX                 ARIZ  030806090A009A22MBN00MWH12ST99 000000
602AZ007231A8090015973970076620PHOENIX                 ARIZ  030806090A010A53MWH00MBN12ST60 000000
602AZ007231A8090015973970076620PHOENIX                 ARIZ  030806090A011F28MWH00UUU12UN18 00100020MWH
602AZ007231A8090015973970076620PHOENIX                 ARIZ  030806090A012A45FWH46MWH12WI45 000000
602AZ007231A8090015973970076620PHOENIX                 ARIZ  040831090A001B51MWN00UUU30UN99 000000
602AZ007231A8090015973970076620PHOENIX                 ARIZ  040831090A002B15MBN00UUU13UN99 000000
602AZ007231A8090015973970076620PHOENIX                 ARIZ  040831090A003F27MWH00UUU20UN99 00100028MWH
602AZ007231A8090015973970076620PHOENIX                 ARIZ  040831090A004B39MBN00UUU12UN18 000000
602AZ007231A8090015973970076620PHOENIX                 ARIZ  040831090A005ABBFWN20MWN30DA60 000000
602AZ007231A8090015973970076620PHOENIX                 ARIZ  040831090A006B19MBN00UUU13UN99 000000
602AZ007231A8090015973970076620PHOENIX                 ARIZ  040831090A007B68MWN00UUU30UN99 000000
602AZ007231A8090015973970076620PHOENIX                 ARIZ  040831090A008B18MIN00UUU12UN45 000000
602AZ007231A8090015973970076620PHOENIX                 ARIZ  040831090A009A34MWH35MWN14AQ60 000000
602AZ007231A8090015973970076620PHOENIX                 ARIZ  040831090A010B19MWH00UUU11UN99 000000
602AZ007231A8090015973970076620PHOENIX                 ARIZ  040831090A011A39MWN39MWN12IL45 000000
602AZ007231A8090015973970076620PHOENIX                 ARIZ  040831090A012A35MWN39MWN12AQ60 000000
602AZ007231A8090015973970076620PHOENIX                 ARIZ  040831090A013A52MWN68MWN12ST60 000000
602AZ007231A8090015973970076620PHOENIX                 ARIZ  040831090A014B28MIN00UUU30UN99 000000
602AZ007231A8090015973970076620PHOENIX                 ARIZ  040831090A015A32MWH19MWH12AQ45 000000
602AZ007231A8090015973970076620PHOENIX                 ARIZ  040831090A016A47FIN43MIN30CW45 000000
602AZ007231A8090015973970076620PHOENIX                 ARIZ  040831090A017A39FWN40MWN30WI45 000000
602AZ007231A8090015973970076620PHOENIX                 ARIZ  040831090A018B24MAN00UUU20UN45 000000
602AZ007231A8090015973970076620PHOENIX                 ARIZ  040831090B019A33MWN24MWN12ER53 000000
602AZ007231A8090015973970076620PHOENIX                 ARIZ  050922090A001A36MWH41MWH12AQ18 000000
602AZ007231A8090015973970076620PHOENIX                 ARIZ  050922090A002B32FWN00UUU80UN99 000000
602AZ007231A8090015973970076620PHOENIX                 ARIZ  050922090A003B35MWH00UUU13UN99 000000
602AZ007231A8090015973970076620PHOENIX                 ARIZ  050922090A004A74MWH19MBN12ST45 000000
602AZ007231A8090015973970076620PHOENIX                 ARIZ  050922090A005A52MWH45FWH12HU45 000000
602AZ007231A8090015973970076620PHOENIX                 ARIZ  050922090A006D30FWH22MWH12ST45 00100026FWH
602AZ007231A8090015973970076620PHOENIX                 ARIZ  050922090A007B35FBN00UUU30UN99 000000
602AZ007231A8090015973970076620PHOENIX                 ARIZ  050922090B008A21MWN23MWN12FR53 000000
602AZ007231A8090015973970076620PHOENIX                 ARIZ  061027090A001A37MWH00MWH11ST99 000000
602AZ007231A8090015973970076620PHOENIX                 ARIZ  061027090A002A38MWN00MWH12ST99 000000
602AZ007231A8090015973970076620PHOENIX                 ARIZ  061027090A003A05MBN38MBN20OF60 000000
602AZ007231A8090015973970076620PHOENIX                 ARIZ  061027090A004A27MWN54MWN14AQ45 000000
602AZ007231A8090015973970076620PHOENIX                 ARIZ  061027090A005B29MIN00UUU20UN99 000000
602AZ007231A8090015973970076620PHOENIX                 ARIZ  061027090A006B23MWN00UUU12UN99 000000
602AZ007231A8090015973970076620PHOENIX                 ARIZ  061027090A007A64MWN37MWH30FR45 000000
602AZ007231A8090015973970076620PHOENIX                 ARIZ  061027090A008A22MWH00MWH11ST45 000000
602AZ007231A8090015973970076620PHOENIX                 ARIZ  061027090A009A36MBN00MBN11ST03 000000
602AZ007231A8090015973970076620PHOENIX                 ARIZ  061027090A010D14MWN36MWN30OF60 00100061FWN
602AZ007231A8090015973970076620PHOENIX                 ARIZ  061027090A011B24MWH00UUU20UN99 000000
602AZ007231A8090015973970076620PHOENIX                 ARIZ  061027090A012A37MWH39MWH13ST80C000000
602AZ007231A8090015973970076620PHOENIX                 ARIZ  061027090A013A25MWH26MWN12ST81A000000
602AZ007231A8090015973970076620PHOENIX                 ARIZ  061027090A014A35MWN32MWN12ST81A000000
602AZ007231A8090015973970076620PHOENIX                 ARIZ  061027090A015C29MWH42MWN13ST81A000002                                                  48MWN13ST81A48MWN13ST81A
602AZ007231A8090015973970076620PHOENIX                 ARIZ  071120090A001A53MWN00MBN30ST45 000000
602AZ007231A8090015973970076620PHOENIX                 ARIZ  071120090A002B16MBN00UUU12UN45 000000
602AZ007231A8090015973970076620PHOENIX                 ARIZ  071120090A003A23MBN00MBN12ST42 000000
602AZ007231A8090015973970076620PHOENIX                 ARIZ  071120090A004B45MWH00UUU11UN99 000000
602AZ007231A8090015973970076620PHOENIX                 ARIZ  071120090A005A40FBN44MBN30OK45 000000
602AZ007231A8090015973970076620PHOENIX                 ARIZ  071120090A006F34MWN00UUU12UN18 00100054MWN
602AZ007231A8090015973970076620PHOENIX                 ARIZ  071120090A007C29MBN23MBN12AQ45 000002                                                  23MBN12AQ45 64MBN12AQ45
602AZ007231A8090015973970076620PHOENIX                 ARIZ  071120090A008B36MWN00UUU12UN99 000000
602AZ007231A8090015973970076620PHOENIX                 ARIZ  071120090A009A35MWH00MBN12AQ18 000000
602AZ007231A8090015973970076620PHOENIX                 ARIZ  071120090A010C36MWH29MWH12ST45 000001                                                  30MWH12ST45
602AZ007231A8090015973970076620PHOENIX                 ARIZ  071120090A011A19MWH00MWH30ST60 000000
602AZ007231A8090015973970076620PHOENIX                 ARIZ  071120090A012C37MWH18MWH12ST60 000001                                                  19MWH12ST60
602AZ007231A8090015973970076620PHOENIX                 ARIZ  071120090A013B41MWN00UUU20UN45 000000
602AZ007231A8090015973970076620PHOENIX                 ARIZ  071120090A014A20FBN23MBN12WI45 000000
602AZ007231A8090015973970076620PHOENIX                 ARIZ  071120090A015B51MWH00UUU30UN03 000000
602AZ007231A8090015973970076620PHOENIX                 ARIZ  071120090A016A35MWN35MWN11AQ18 000000
602AZ007231A8090015973970076620PHOENIX                 ARIZ  071120090A017A38FBN27FBN20OF80C000000
602AZ007231A8090015973970076620PHOENIX                 ARIZ  071120090A018A23MBN28MWH12ST80C000000
602AZ007231A8090015973970076620PHOENIX                 ARIZ  071120090A019A57MWN39MWN20AQ80C000000
602AZ007231A8090015973970076620PHOENIX                 ARIZ  071120090A020A38FBN22MBN12WI80C000000
602AZ007231A8090015973970076620PHOENIX                 ARIZ  081214090A001A52MWN33FBN20AQ45 000000
602AZ007231A8090015973970076620PHOENIX                 ARIZ  081214090A002B31MBN00UUU12UN99 000000
602AZ007231A8090015973970076620PHOENIX                 ARIZ  081214090A003C16FWH17MWH12ST45 000001                                                  17MWH12ST45
602AZ007231A8090015973970076620PHOENIX                 ARIZ  081214090A004B21MBN00UUU12UN45 000000
602AZ007231A8090015973970076620PHOENIX                 ARIZ  081214090A005A42FBN43MBN20AQ45 000000
602AZ007231A8090015973970076620PHOENIX                 ARIZ  081214090A006A63MWN29MWN40AQ80C000000
602AZ007231A8090015973970076620PHOENIX                 ARIZ  081214090A007C52MWH39MWN14ST81A000001                                                  31MWN14ST81A
602AZ007231A8090015973970076620PHOENIX                 ARIZ  081214090A008A30MIN36MIN20OF80C000000
602AZ007231A8090015973970076620PHOENIX                 ARIZ  081214090A009A21MWH59MWN12ST80E000000
602AZ007231A8090015973970076620PHOENIX                 ARIZ  090105100A001A38MBN27MBN80ST45 000000
602AZ007231A8090015973970076620PHOENIX                 ARIZ  090105100A002B29MWH00UUU12UN03 000000
602AZ007231A8090015973970076620PHOENIX                 ARIZ  090105100A003B31MWH00UUU12UN99 000000
602AZ007231A8090015973970076620PHOENIX                 ARIZ  090105100A004A27FWN39MWN20FR60 000000
602AZ007231A8090015973970076620PHOENIX                 ARIZ  090105100A005A59MWH00MBN12ST44 000000
602AZ007231A8090015973970076620PHOENIX                 ARIZ  090105100A006B43MWH00UUU12UN99 000000
602AZ007231A8090015973970076620PHOENIX                 ARIZ  090105100A007C21MWN25MWH12AQ44 000001                                                  20MWH12AQ44
602AZ007231A8090015973970076620PHOENIX                 ARIZ  090105100A008B20MWH00UUU12UN18 000000
602AZ007231A8090015973970076620PHOENIX                 ARIZ  090105100A009A32FBN50MWH13ST81A000000
602AZ007231A8090015973970076620PHOENIX                 ARIZ  090105100A010A26MWH30MWN12ST81A000000
602AZ007231A8090015973970076620PHOENIX                 ARIZ  090105100A011A64MWN43MWN13ST81A000000
602AZ007231A8090015973970076620PHOENIX                 ARIZ  100126100A001A40FWN00MWN14ST45 000000
602AZ007231A8090015973970076620PHOENIX                 ARIZ  100126100A002A35MWN00MBN12ST18 000000
602AZ007231A8090015973970076620PHOENIX                 ARIZ  100126100A003A31MBN36MWH12AQ60 000000
602AZ007231A8090015973970076620PHOENIX                 ARIZ  100126100A004A37MWN32MWN30ST45 000000
602AZ007231A8090015973970076620PHOENIX                 ARIZ  100126100A005B29MWH00UUU12UN99 000000
602AZ007231A8090015973970076620PHOENIX                 ARIZ  100126100A006B32FWH00UUU20UN99 000000
602AZ007231A8090015973970076620PHOENIX                 ARIZ  100126100A007C64MWN25MBN20AQ60 000001                                                  26MWH20AQ60
602AZ007231A8090015973970076620PHOENIX                 ARIZ  100126100A008B48MIN00UUU12UN99 000000
602AZ007231A8090015973970076620PHOENIX                 ARIZ  100126100A009B42MBN00UUU30UN99 000000
602AZ007231A8090015973970076620PHOENIX                 ARIZ  100126100B010A19MWH17MWH12FR53 000000
602AZ007231A8090015973970076620PHOENIX                 ARIZ  110223100A001A15MWH00MBN30ST60 000000
602AZ007231A8090015973970076620PHOENIX                 ARIZ  110223100A002A25MWN26MWN12AQ45 000000
602AZ007231A8090015973970076620PHOENIX                 ARIZ  110223100A003B35FBN00UUU12UN99 000000
602AZ007231A8090015973970076620PHOENIX                 ARIZ  110223100A004C48FWH19MBN12ST03 000001                                                  18MWH12ST03
602AZ007231A8090015973970076620PHOENIX                 ARIZ  110303101A005C35MW 00MB 12ST18 000002                                                  00MB 12ST18 00MB 12ST18
602AZ007231A8090015973970076620PHOENIX                 ARIZ  120329100A001A34FWH37MWH20CW45 000000
602AZ007231A8090015973970076620PHOENIX                 ARIZ  120329100A002A42MWH18MWH20OK45 000000
602AZ007231A8090015973970076620PHOENIX                 ARIZ  120329100A003A36FBN26FBN20FR60 000000
602AZ007231A8090015973970076620PHOENIX                 ARIZ  120329100A004B52MBN00UUU30UN99 000000
602AZ007231A8090015973970076620PHOENIX                 ARIZ  120329100A005A27MWH24MWH12ST80C000000
602AZ007231A8090015973970076620PHOENIX                 ARIZ  120329100A006A24MWN30MWN12ST81A000000
602AZ007231A8090015973970076620PHOENIX                 ARIZ  120329100A007A53MWH00MWN12ST80C000000
602AZ007252 8090002391150076620SCOTTSDALE              ARIZ  010521090A001A83MWN49MWN20OK60 000000
602AZ007252 8090002391150076620SCOTTSDALE              ARIZ  030806090A001A29MWN32MWN12FR60 000000
602AZ007252 8090002391150076620SCOTTSDALE              ARIZ  040831090A001A54MWN30MWN20SF26 000000
602AZ007252 8090002391150076620SCOTTSDALE              ARIZ  050922090A001A44MWN26FWN12ST18 000000
602AZ007252 8090002391150076620SCOTTSDALE              ARIZ  070105101A001C18FBN00FBN12ST60 000002                                                  20FBN12ST60 25MBN12ST60
602AZ007252 8090002391150076620SCOTTSDALE              ARIZ  081214090A001D07MWN48MWN12SO60 00200003MWN45FWN
602AZ007252 8090002391150076620SCOTTSDALE              ARIZ  090105100A001A42MWH21MWN12AQ60 000000
602AZ007252 8090002391150076620SCOTTSDALE              ARIZ  110223100A001B51FWN00UUU20UN99 000000
602AZ007272 8090001046920076620SURPRISE                ARIZ  090105100A001B28MWH00UUU12UN18 000000
602AZ007292 8090001774860076620TEMPE                   ARIZ  040831090A001A19MWN26MBN20NE42 000000
602AZ007292 8090001774860076620TEMPE                   ARIZ  110223100A001B39MWN00UUU20UN44 000000
602AZ007356 8090000051770076621YOUNGTOWN               ARIZ  061027090A001A31FWH35MWN12WI45 000000
602AZ008009B8090000652800084191MOHAVE                  ARIZ  020806090A001A01MWH23MIN40OK60 000000
602AZ008014 8090000287000084190KINGMAN                 ARIZ  020728090B001A16MWN19MWN12AQ53 000000
602AZ008014 8090000287000084190KINGMAN                 ARIZ  030806090A001A45FWN49MWN12WI45 000000
602AZ008014 8090000287000084190KINGMAN                 ARIZ  071120090A001A18FWN51MWN20OK26 000000
602AZ008014 8090000287000084190KINGMAN                 ARIZ  081214090A001A26FWN29MWN12WI45 000000
602AZ008043 8090000584060084190LAKE HAVASU CITY        ARIZ  010521090A001A36MWN36MWN12FR45 000000
602AZ008043 8090000584060084190LAKE HAVASU CITY        ARIZ  020728090A001ABBMWN26MWN40SO60 000000
602AZ008043 8090000584060084190LAKE HAVASU CITY        ARIZ  090223101A001A47MUN53MWN70OK60 000000
602AZ008054 8090000417210084191BULLHEAD CITY           ARIZ  080126100A001A51MWN51MWN40AQ45 000000
602AZ009008B809000070569009   0NAVAJO                  ARIZ  050426101A001A04FW 48MW 12DA60 000000
602AZ009016 809000005094009   0HOLBROOK                ARIZ  090105100A001A72FIN19MIN20OF45 000000
602AZ009035 809000012929009   0SHOW LOW                ARIZ  020728090A001A52MWN52MWN12AQ44 000000
602AZ009035 809000012929009   0SHOW LOW                ARIZ  030806090A001D75MWN56MWN12NE44 00100075FWN
602AZ009096 809000009903009   0WINSLOW                 ARIZ  060329100A001A26MWH23MBN20ST42 000000
602AZ010009A8090003550750109061PIMA                    ARIZ  010728090A001A25MBN28MBN12ST80E000000
602AZ010009A8090003550750109061PIMA                    ARIZ  030806090A001A23MBN00MBN20AQ60 000000
602AZ010009A8090003550750109061PIMA                    ARIZ  030806090A002A23FWH30MWH12AQ60 000000
602AZ010009A8090003550750109061PIMA                    ARIZ  040831090A001A49FWN47MWN30AQ45 000000
602AZ010009A8090003550750109061PIMA                    ARIZ  040831090A002A44FWH45MWH12XW45 000000
602AZ010009A8090003550750109061PIMA                    ARIZ  040831090A003A20MWH21MIN12ST99 000000
602AZ010009A8090003550750109061PIMA                    ARIZ  050922090A001A30MWH31MWH40BR44 000000
602AZ010009A8090003550750109061PIMA                    ARIZ  050922090A002D09FWH34MWN12ST03 00100030MWH
602AZ010009A8090003550750109061PIMA                    ARIZ  061027090A001D52FWN53MWN12AQ44 00100049MWN
602AZ010009A8090003550750109061PIMA                    ARIZ  061027090A002C51MWH00MWH12ST03 000001                                                  00MWH12ST03
602AZ010009A8090003550750109061PIMA                    ARIZ  061027090A003A07FWH19MWH20AQ02 000000
602AZ010009A8090003550750109061PIMA                    ARIZ  071120090A001A27MWH52MWH13ST03 000000
602AZ010009A8090003550750109061PIMA                    ARIZ  071120090A002A60MWN33MBN30AQ03 000000
602AZ010009A8090003550750109061PIMA                    ARIZ  090105100A001A25MWN53MWN20AQ42 000000
602AZ010009A8090003550750109061PIMA                    ARIZ  090105100A002A49FWN57MWN12WI45 000000
602AZ010009A8090003550750109061PIMA                    ARIZ  110223100A001B57MWH00UUU12UN18 000000
602AZ010009A8090003550750109061PIMA                    ARIZ  110223100A002B19MWH00UUU12UN18 000000
602AZ010016 8090000060710109061SOUTH TUCSON            ARIZ  020728090A001B39FWH00UUU20UN18 000000
602AZ010016 8090000060710109061SOUTH TUCSON            ARIZ  100126100A001A42FBN33MWH20AQ18 000000
602AZ010031B8090005479810109060TUCSON                  ARIZ  010521090A001A46MWN19MWN30AQ45 000000
602AZ010031B8090005479810109060TUCSON                  ARIZ  010521090A002A27MWH24MWH20AQ45 000000
602AZ010031B8090005479810109060TUCSON                  ARIZ  010521090A003A24FWH22MBN12ST60 000000
602AZ010031B8090005479810109060TUCSON                  ARIZ  010521090A004A18MIN54MAN12ST80E000000
602AZ010031B8090005479810109060TUCSON                  ARIZ  020728090A001A44FWH51MBN65OK45 000000
602AZ010031B8090005479810109060TUCSON                  ARIZ  030806090A001B15MWH00UUU20UN47 000000
602AZ010031B8090005479810109060TUCSON                  ARIZ  040831090A001A49MWH25MWH20FA45 000000
602AZ010031B8090005479810109060TUCSON                  ARIZ  040831090A002A18MWH18MWH12AQ44 000000
602AZ010031B8090005479810109060TUCSON                  ARIZ  040831090A003B24MWN00UUU30UN99 000000
602AZ010031B8090005479810109060TUCSON                  ARIZ  040831090A004C48MWN35MWN12ST81A000001                                                  39MWN12ST81A
602AZ010031B8090005479810109060TUCSON                  ARIZ  050922090A001B39MWH00UUU12UN99 000000
602AZ010031B8090005479810109060TUCSON                  ARIZ  050922090A002A57FWN35MWN13ST81A000000
602AZ010031B8090005479810109060TUCSON                  ARIZ  061027090A001A28MWH35MWN12AQ80C000000
602AZ010031B8090005479810109060TUCSON                  ARIZ  061027090A002A28MWN35MWH12ST81A000000
602AZ010031B8090005479810109060TUCSON                  ARIZ  071120090A001C01MWN20FWN40SO60 000001                                                  32MWN40OK60
602AZ010031B8090005479810109060TUCSON                  ARIZ  071120090A002A20MWH20MWH12OK03 000000
602AZ010031B8090005479810109060TUCSON                  ARIZ  071120090A003A31MWN28MBN12ST45 000000
602AZ010031B8090005479810109060TUCSON                  ARIZ  071120090A004C19MIN27MWN12ST81A000001                                                  31MWN12ST81A
602AZ010031B8090005479810109060TUCSON                  ARIZ  071120090B005C01FWN24FWN75DA59 000001                                                  24MWN75DA59
602AZ010031B8090005479810109060TUCSON                  ARIZ  081214090A001C15FWH18MWH12ST03 000002                                                  24MWH12ST03 27MWH12ST03
602AZ010031B8090005479810109060TUCSON                  ARIZ  081214090A002B34MWH00UUU12UN99 000000
602AZ010031B8090005479810109060TUCSON                  ARIZ  081214090A003A26MWH24MIN20ST45 000000
602AZ010031B8090005479810109060TUCSON                  ARIZ  081214090A004B38MWH00UUU12UN45 000000
602AZ010031B8090005479810109060TUCSON                  ARIZ  081214090A005C62MWN37MWN12ST81A000002                                                  30MWN12ST81A42MWN12ST81A
602AZ010031B8090005479810109060TUCSON                  ARIZ  090223101A001B37MWH00UUU12UN99 000000
602AZ010031B8090005479810109060TUCSON                  ARIZ  090223101A002A47MWN48MWN12AQ60 000000
602AZ010031B8090005479810109060TUCSON                  ARIZ  090223101A003C36MWN28MWN12AQ45 000003                                                  27MWN12AQ45 37MWN12AQ45 30FWH12AQ45
602AZ010031B8090005479810109060TUCSON                  ARIZ  090223101A004A27MWN24MWN12ST80C000000
602AZ010031B8090005479810109060TUCSON                  ARIZ  100126100A001A21FBN23MBN12GF60 000000
602AZ010031B8090005479810109060TUCSON                  ARIZ  100126100A002B32MWH00UUU30UN99 000000
602AZ010031B8090005479810109060TUCSON                  ARIZ  100126100A003A40MWN42MWH12AQ44 000000
602AZ010031B8090005479810109060TUCSON                  ARIZ  100126100A004F23MWN00UUU20UN18 00100034FWN
602AZ010031B8090005479810109060TUCSON                  ARIZ  100126100A005A50MWN18MWH20AQ44 000000
602AZ010031B8090005479810109060TUCSON                  ARIZ  100126100A006A20MWH28MBN12ST45 000000
602AZ010031B8090005479810109060TUCSON                  ARIZ  110223100A001B19MWH00UUU12UN45 000000
602AZ010031B8090005479810109060TUCSON                  ARIZ  110223100A002A76MWN50MWN14SF45 000000
602AZ010031B8090005479810109060TUCSON                  ARIZ  110223100A003A27MBN31MBN12ST45 000000
602AZ010031B8090005479810109060TUCSON                  ARIZ  110223100A004D16MWH35MWH12SO60 00100034FWH
602AZ010031B8090005479810109060TUCSON                  ARIZ  110223100A005A23MBN30MWN12AQ80C000000
602AZ010031B8090005479810109060TUCSON                  ARIZ  120329100A001B23MWH00UUU12UN45 000000
602AZ010031B8090005479810109060TUCSON                  ARIZ  120329100A002C40MWN23MWN40AQ42 000001                                                  56MWN40AQ42
602AZ010031B8090005479810109060TUCSON                  ARIZ  120329100A003A56FWN51MWN40WI60 000000
602AZ010031B8090005479810109060TUCSON                  ARIZ  120329100A004C45MWN00MWH12ST03 000001                                                  23MWH12ST03
602AZ011009A8090001633980116621PINAL                   ARIZ  011214090A001A67FWH30MWH20MO45 000000
602AZ011009A8090001633980116621PINAL                   ARIZ  021214090A001A36MWN20FWN12AQ60 000000
602AZ011009A8090001633980116621PINAL                   ARIZ  021214090A002A21FWN31MWN13ST99 000000
602AZ011009A8090001633980116621PINAL                   ARIZ  031214090A001B00UUU00UUU30UN99 000000
602AZ011009A8090001633980116621PINAL                   ARIZ  070223100A001A54MBN27MBN12FA44 000000
602AZ011009A8090001633980116621PINAL                   ARIZ  080223100A001B41MWN00UUU11UN99 000000
602AZ011009A8090001633980116621PINAL                   ARIZ  110223100A001A56MWH33MWH12AQ45 000000
602AZ011009A8090001633980116621PINAL                   ARIZ  120329100A001B00MWN00UUU90UN99 000000
602AZ011014 8090000432540116621CASA GRANDE             ARIZ  050922090A001A32MBN33MWN14ST18 000000
602AZ011014 8090000432540116621CASA GRANDE             ARIZ  071120090A001A55MWN21MWN20ST60 000000
602AZ011014 8090000432540116621CASA GRANDE             ARIZ  100126100A001A33FWN36MWN12AQ60 000000
602AZ011014 8090000432540116621CASA GRANDE             ARIZ  110329100A001B21MWH00UUU12UN99 000000
602AZ011035 8090000105400116621COOLIDGE                ARIZ  081214090A001A41FWH43MWH20GF45 000000
602AZ011035 8090000105400116621COOLIDGE                ARIZ  090105100A001A43FIN24MBH20GF45 000000
602AZ011075 8090000212290116621FLORENCE                ARIZ  120329100B001A09MWN03MWN12BR52 000000
602AZ012008C809000022743012   0SANTA CRUZ              ARIZ  120329100A001B39MWH00UUU12UN99 000000
602AZ012008C809000022743012   0SANTA CRUZ              ARIZ  120329100A002B43MWH00UUU12UN99 000000
602AZ013009B8090000867160136881YAVAPAI                 ARIZ  090223100A001A21FWN22MWN80WI60 000000
602AZ013074 8090000437480136880PRESCOTT                ARIZ  040831090A001A20MIN36MWH12ST45 000000
602AZ013074 8090000437480136880PRESCOTT                ARIZ  071120090A001A52MWN22MWN40ST45 000000
602AZ014009B8090000635840149921YUMA                    ARIZ  040214110A001A01FW 34FW 90DA60 000000
602AZ014009B8090000635840149921YUMA                    ARIZ  050214110A001B27MW 00UU 11UN99 000000
602AZ014009B8090000635840149921YUMA                    ARIZ  050214110A002C25MW 20MW 12UN46 000001                                                  23MW 12UN46
602AZ014009B8090000635840149921YUMA                    ARIZ  070214110A001B22MW 00UU 12UN46 000000
602AZ014009B8090000635840149921YUMA                    ARIZ  090214110A001A47FW 35MW 20UN02 000000
602AZ014009B8090000635840149921YUMA                    ARIZ  100214110A001A32FW 30MB 40GF45 000000
602AZ014035 8090000130410149921SOMERTON                ARIZ  061027090A001C55MWN17MWH20ST03 000003                                                  18MWH20ST03 20MWH20ST03 21MWH20ST03
602AZ014053 8090000914330149920YUMA                    ARIZ  020728090B001A27FBN22MWN12GF53 000000
602AZ014053 8090000914330149920YUMA                    ARIZ  061027090A001A19MWH00MWH12ST45 000000
602AZ014053 8090000914330149920YUMA                    ARIZ  120329100A001A29MWH30MWH12AQ99 000000
603AR003008B709000025786003   0BAXTER                  ARK   110214110A001A79FW 46FW 12MO60 000000
603AR004009B7090000361040042701BENTON                  ARK   050214110A001C26MW 34MW 90AQ26 000004                                                  28MW 90AQ26 23MW 90AQ26 31MW 90AQ26 30FW 90AQ26
603AR004009B7090000361040042701BENTON                  ARK   080214110A001C54MI 33MW 40AQ99 000001                                                  28MW 40OK99
603AR004023 7090000589920042700ROGERS                  ARK   080214110A001C54MI 33MW 40AQ45 000001                                                  28MW 40AQ45
603AR004023 7090000589920042700ROGERS                  ARK   100214110A001A36MW 28MW 11ST81B000000
603AR004023 7090000589920042700ROGERS                  ARK   110214110A001A27MW 25MW 12AQ03 000000
603AR005008C709000023234005   0BOONE                   ARK   050214110A001A53FW 43MW 13GF45 000000
603AR005015 709000013312005   0HARRISON                ARK   020214110A001A60FW 67MW 12UN45 000000
603AR008008C709000017141008   0CARROLL                 ARK   090214110A001A00MW 21MW 90OK60 000000
603AR008008C709000017141008   0CARROLL                 ARK   100214110A001B00UU 00UU 90UN99 000000
603AR008016 709000005335008   0BERRYVILLE              ARK   100214110A001C24MW 00MW 90AQ99 000001                                                  00FW 90AQ99
603AR008027 709000002361008   0EUREKA SPRINGS          ARK   120214110A001D49FW 49MW 20UN60 00200051MW 24MW
603AR009008D709000004022009   0CHICOT                  ARK   050214110A001A54FB 28FB 20UN60 000000
603AR010008D709000009932010   0CLARK                   ARK   010214110A001A00MB 22MB 12UN99 000000
603AR014008C709000013077014   0COLUMBIA                ARK   070214110A001C40MB 21MB 40AQ18 000005                                                  19MB 40AQ18 17MB 40AQ18 33MB 40AQ18 22MB 40AQ18 19MB 40AQ18
603AR014008C709000013077014   0COLUMBIA                ARK   100214110A001ABBFW 21FW 90DA99 000000
603AR014008C709000013077014   0COLUMBIA                ARK   110214110A001C71MW 21MB 12UN60 000002                                                  20MB 12UN60 21MB 12UN60
603AR014015 709000011011014   0MAGNOLIA                ARK   010214110A001C40FB 40MB 11AQ99 000003                                                  18FW 11AQ99 23MB 11AQ99 29MB 11AQ99
603AR014015 709000011011014   0MAGNOLIA                ARK   040214110A001A28FB 24MB 11AQ99 000000
603AR014015 709000011011014   0MAGNOLIA                ARK   050214110A001C26MB 23MB 12AQ45 000002                                                  29MB 12AQ45 23MB 12AQ45
603AR014015 709000011011014   0MAGNOLIA                ARK   090214110A001C17MB 00UU 11UN99 000001                                                  18MB 11AQ99
603AR015008C709000013437015   0CONWAY                  ARK   030214110A001A00MW 00MW 12UN45 000000
603AR015008C709000013437015   0CONWAY                  ARK   060214110A001C50MW 22MB 12UN60 000001                                                  22MB 12UN60
603AR015008C709000013437015   0CONWAY                  ARK   080214110A001A00MW 00MW 20UN45 000000
603AR016013 7090000649440163960JONESBORO               ARK   100214110A001C20FB 20MB 12GF26 000003                                                  23MW 12UN26 20FW 12UN26 18FB 12UN26
603AR017015 7090000229640172851VAN BUREN               ARK   100214110A001A52MW 18MW 90ST43 000000
603AR018009C7090000106010185191CRITTENDEN              ARK   020214110A001B59MW 00UU 90UN99 000000
603AR018014 7090000269950185191WEST MEMPHIS            ARK   020214110A001C25MB 19MB 20UN45 000003                                                  20MB 20UN45 21MB 20UN45 00MB 20UN45
603AR018014 7090000269950185191WEST MEMPHIS            ARK   030214110A001A32MB 28MB 90AQ45 000000
603AR018014 7090000269950185191WEST MEMPHIS            ARK   070214110A001A18MB 00MU 11ST99 000000
603AR018014 7090000269950185191WEST MEMPHIS            ARK   070214110A002A27MB 35MB 12UN99 000000
603AR019008C709000010391019   0CROSS                   ARK   040214110A001A40MW 40FW 20XH45 000000
603AR019016 709000008419019   0WYNNE                   ARK   070214110A001C25MB 20MB 12UN03 000002                                                  23MB 12UN03 26MB 12UN03
603AR022008D709000009460022   0DREW                    ARK   070214110A001A28MB 24MB 12BR45 000000
603AR023013 7090000593430234690CONWAY                  ARK   060214110A001C27MU 27MU 12AQ45 000002                                                  25MU 12AQ45 34MU 12AQ45
603AR023013 7090000593430234690CONWAY                  ARK   080214110A001A06MB 26FB 30SO60 000000
603AR025008D709000008173025   0FULTON                  ARK   050214110A001A25MW 17MW 12OK45 000000
603AR025008D709000008173025   0FULTON                  ARK   090214110A001A32MW 61MW 15NE99 000000
603AR026009B7090000590610263561GARLAND                 ARK   110214110A001E55MW 23MB 11UN26 00300152FW 24MW 19FW                                    23MB 11UN26
603AR026009B7090000590610263561GARLAND                 ARK   110214110A002C80MW 23MB 11UN05 000001                                                  23MB 11UN05
603AR026014 7090000398640263560HOT SPRINGS             ARK   040214110A001A41MW 24MW 12OK99 000000
603AR026014 7090000398640263560HOT SPRINGS             ARK   050214110A001B49MW 00UU 12UN99 000000
603AR026014 7090000398640263560HOT SPRINGS             ARK   090214110A001B24MB 00UU 12UN45 000000
603AR026014 7090000398640263560HOT SPRINGS             ARK   110214110A001A50MW 36MW 90AQ45 000000
603AR026014 7090000398640263560HOT SPRINGS             ARK   120214110A001A26MB 27MB 12OK99 000000
603AR028008C709000014928028   0GREENE                  ARK   100214110A001C76MW 20MW 30UN03 000002                                                  36FW 30UN03 43MW 30UN03
603AR031016 709000004806031   0NASHVILLE               ARK   010214110A001A34FW 42MW 11UN45 000000
603AR031016 709000004806031   0NASHVILLE               ARK   080214110A001A52MB 21FB 20OF99 000000
603AR032008B709000034820032   0INDEPENDENCE            ARK   080214110A001A52MW 24FW 12UN18 000000
603AR035009C7090000207120356641JEFFERSON               ARK   080214110A001A71FW 45MW 30UN99 000000
603AR035014 7090000499150356640PINE BLUFF              ARK   010214110A001A57MB 00MB 11UN99 000000
603AR035014 7090000499150356640PINE BLUFF              ARK   010214110A002C18MB 18MB 11AQ45 000003                                                  18MB 11AQ45 24MB 11AQ45 22MB 11AQ45
603AR035014 7090000499150356640PINE BLUFF              ARK   020214110A001A24MB 00MB 12UN99 000000
603AR035014 7090000499150356640PINE BLUFF              ARK   020214110A002C00FB 23FB 40DA60 000001                                                  31MB 40DA60
603AR035014 7090000499150356640PINE BLUFF              ARK   030214110A001B28MB 00UU 11UN99 000000
603AR035014 7090000499150356640PINE BLUFF              ARK   030214110A002B20MB 00UU 90UN99 000000
603AR035014 7090000499150356640PINE BLUFF              ARK   040214110A001A39MB 00MB 11UN99 000000
603AR035014 7090000499150356640PINE BLUFF              ARK   070214110A001B00MB 00UU 90UN99 000000
603AR035014 7090000499150356640PINE BLUFF              ARK   100214110A001B22MB 00UU 12UN99 000000
603AR035014 7090000499150356640PINE BLUFF              ARK   100214110A002B31MB 00UU 15UN99 000000
603AR035014 7090000499150356640PINE BLUFF              ARK   120214110A001F30MB 00UU 12UN99 00100030MB
603AR036008C709000016511036   0JOHNSON                 ARK   010214110A001A40MW 39FW 13UN45 000000
603AR036008C709000016511036   0JOHNSON                 ARK   020214110A001A40MW 39FW 11HU45 000000
603AR038008D709000009083038   0LAWRENCE                ARK   010214110A001A51MW 19MW 90UN60 000000
603AR038008D709000009083038   0LAWRENCE                ARK   070214110A001A11MW 13MW 15UN99 000000
603AR039016 709000004319039   0MARIANNA                ARK   080214110A001A00MW 26FW 20UN45 000000
603AR039016 709000004319039   0MARIANNA                ARK   080214110A002A45MW 26FW 20UN45 000000
603AR039016 709000004319039   0MARIANNA                ARK   120214110A001B47FB 00UU 20UN60 000000
603AR040009C7090000102390406641LINCOLN                 ARK   070214110A001A18MB 36MB 14UN45 000000
603AR041008D709000008366041   0LITTLE RIVER            ARK   080214110A001B34FW 00UU 90UN99 000000
603AR044009C7090000134280442701MADISON                 ARK   030214110A001A00MW 47MW 85UN45 000000
603AR046014 7090000303480468870TEXARKANA               ARK   060214110A001A34MW 33MB 11UN99 000000
603AR046014 7090000303480468870TEXARKANA               ARK   120214110A001C49MW 17MB 30UN60 000001                                                  38MB 30UN60
603AR047015 709000015889047   0BLYTHEVILLE             ARK   010214110A001A24FB 20MB 12OK99 000000
603AR047015 709000015889047   0BLYTHEVILLE             ARK   040214110A001A45MB 43FB 12UN45 000000
603AR047015 709000015889047   0BLYTHEVILLE             ARK   060214110A001A27FB 36MB 20GF45 000000
603AR047015 709000015889047   0BLYTHEVILLE             ARK   070214110A001C41MB 21MB 12AQ99 000001                                                  21MB 12AQ99
603AR047015 709000015889047   0BLYTHEVILLE             ARK   110214110A001A29MB 23MB 12UN99 000000
603AR047015 709000015889047   0BLYTHEVILLE             ARK   110214110A002B52MB 00UU 11UN99 000000
603AR047026 709000007816047   0OSCEOLA                 ARK   090214110A001A30MB 43FB 20HU45 000000
603AR048016 709000003142048   0BRINKLEY                ARK   050214110A001A00MB 00MB 12UN45 000000
603AR048016 709000003142048   0BRINKLEY                ARK   110214110A001A43FW 27FW 14UN45 000000
603AR049008D709000009059049   0MONTGOMERY              ARK   020214110A001A23MW 28MW 12OK45 000000
603AR050016 709000004439050   0PRESCOTT                ARK   060214110A001A23FW 23FW 12AQ60 000000
603AR051008D709000008293051   0NEWTON                  ARK   120214110A001A39MW 35FW 13UN45 000000
603AR052015 709000011349052   0CAMDEN                  ARK   080214110A001A44MB 26MB 11UN99 000000
603AR052027 709000000977052   0BEARDEN                 ARK   080214110A001B00MB 00UU 12UN45 000000
603AR054015 709000011921054   0HELENA-WEST HELENA      ARK   100214110A001B16MB 00UU 12UN99 000000
603AR056009C7090000104890563961POINSETT                ARK   060214110A001A30MW 65MW 12UN45 000000
603AR056009C7090000104890563961POINSETT                ARK   110214110A001C28MW 23MW 30UN43 000001                                                  19MB 30UN43
603AR057008C709000014711057   0POLK                    ARK   070214110A001A22MW 36MU 20UN99 000000
603AR057008C709000014711057   0POLK                    ARK   070214110A002D00FW 58FW 11UN26 00100059MW
603AR058014 709000028035058   0RUSSELLVILLE            ARK   010214110A001A23MW 18MW 11AQ99 000000
603AR059008D709000004706059   0PRAIRIE                 ARK   030214110A001A36FW 51MW 30WI99 000000
603AR060009B7090000563500604691PULASKI                 ARK   050214110A001A37MW 62MW 20AQ45 000000
603AR060009B7090000563500604691PULASKI                 ARK   110214110A001A57MW 41MW 90AQ45 000000
603AR060009B7090000563500604691PULASKI                 ARK   120214110A001C28MW 16MW 65AQ26 000001                                                  20MW 65AQ26
603AR060022 7090001902050604690LITTLE ROCK             ARK   010214110A001C26MB 22MB 12UN99 000001                                                  23MB 12UN99
603AR060022 7090001902050604690LITTLE ROCK             ARK   010214110A002A26MW 20MB 11UN99 000000
603AR060022 7090001902050604690LITTLE ROCK             ARK   010214110A003A24MW 20MB 12UN99 000000
603AR060022 7090001902050604690LITTLE ROCK             ARK   010214110A004D62FB 52MB 65UN99 00100022MB
603AR060022 7090001902050604690LITTLE ROCK             ARK   010214110A005A53MB 18MB 11UN99 000000
603AR060022 7090001902050604690LITTLE ROCK             ARK   010214110A006C37FB 27MB 11UN60 000003                                                  24MB 11UN60 20MB 11UN60 23MB 11UN60
603AR060022 7090001902050604690LITTLE ROCK             ARK   010214110A007C30MB 16MB 12UN99 000001                                                  17MB 12UN99
603AR060022 7090001902050604690LITTLE ROCK             ARK   010214110A008C29MB 23MB 12UN99 000001                                                  20MB 12UN99
603AR060022 7090001902050604690LITTLE ROCK             ARK   020214110A001A26MW 24MU 12ST45 000000
603AR060022 7090001902050604690LITTLE ROCK             ARK   030214110A001B33MB 00UU 11UN99 000000
603AR060022 7090001902050604690LITTLE ROCK             ARK   040214110A001F57MB 00UU 11UN99 00100016MB
603AR060022 7090001902050604690LITTLE ROCK             ARK   040214110A002A36MB 22MB 90UN99 000000
603AR060022 7090001902050604690LITTLE ROCK             ARK   050214110A001A67MB 27MB 30UN99 000000
603AR060022 7090001902050604690LITTLE ROCK             ARK   060214110A001A73MW 23MB 13ST60 000000
603AR060022 7090001902050604690LITTLE ROCK             ARK   060214110A002A31MB 28FB 20HU45 000000
603AR060022 7090001902050604690LITTLE ROCK             ARK   060214110A003A51MW 00MB 11UN99 000000
603AR060022 7090001902050604690LITTLE ROCK             ARK   060214110A004C67MW 14MB 11UN99 000003                                                  00MB 11UN99 15MB 11UN99 17MB 11UN99
603AR060022 7090001902050604690LITTLE ROCK             ARK   070214110A001A28MB 22MB 12UN99 000000
603AR060022 7090001902050604690LITTLE ROCK             ARK   070214110A002A38MB 31FB 90BF45 000000
603AR060022 7090001902050604690LITTLE ROCK             ARK   070214110A003B53MW 00UU 20UN99 000000
603AR060022 7090001902050604690LITTLE ROCK             ARK   080214110A001B22MW 00UU 11UN99 000000
603AR060022 7090001902050604690LITTLE ROCK             ARK   080214110A002A26MB 20MB 11UN60 000000
603AR060022 7090001902050604690LITTLE ROCK             ARK   090214110A001B28MB 00UU 12UN99 000000
603AR060022 7090001902050604690LITTLE ROCK             ARK   090214110A002C32MW 00MW 20UN99 000001                                                  27MW 20UN99
603AR060022 7090001902050604690LITTLE ROCK             ARK   090214110A003B56FB 00UU 65UN99 000000
603AR060022 7090001902050604690LITTLE ROCK             ARK   110214110A001C54MW 20MW 90UN99 000001                                                  27FW 90UN99
603AR060022 7090001902050604690LITTLE ROCK             ARK   110214110A002A36MW 42FW 13HU45 000000
603AR060022 7090001902050604690LITTLE ROCK             ARK   110214110A003B29MB 00UU 11UN99 000000
603AR060033 7090000593200604690NORTH LITTLE ROCK       ARK   050214110A001A18MB 17MB 12AQ45 000000
603AR060033 7090000593200604690NORTH LITTLE ROCK       ARK   050214110A002A25MB 17MW 14OK99 000000
603AR060033 7090000593200604690NORTH LITTLE ROCK       ARK   050214110A003C16MB 20MB 12AQ45 000001                                                  17MB 12UN45
603AR060033 7090000593200604690NORTH LITTLE ROCK       ARK   090214110A001A48MB 25MB 11OK99 000000
603AR060033 7090000593200604690NORTH LITTLE ROCK       ARK   090214110A002A20MB 16MB 12AQ46 000000
603AR060033 7090000593200604690NORTH LITTLE ROCK       ARK   100214110A001B46MB 00UU 11UN99 000000
603AR060033 7090000593200604690NORTH LITTLE ROCK       ARK   110214110A001A62MW 62MW 11AQ45 000000
603AR060033 7090000593200604690NORTH LITTLE ROCK       ARK   110214110A002A24FB 28MB 11GF45 000000
603AR060033 7090000593200604690NORTH LITTLE ROCK       ARK   120214110A001A36MW 33MB 11AQ99 000000
603AR060033 7090000593200604690NORTH LITTLE ROCK       ARK   120214110A002A22MW 30MW 90OK99 000000
603AR060033 7090000593200604690NORTH LITTLE ROCK       ARK   120214110A003A40MW 19MB 12ST60 000000
603AR060045 7090000248880604691SHERWOOD                ARK   060214110A001A06FW 34FW 12DA60 000000
603AR061008C709000011467061   0RANDOLPH                ARK   010214110A001A51MW 19MW 85UN45 000000
603AR062015 709000013123062   0FORREST CITY            ARK   060214110A001A54FB 35MB 40AQ60 000000
603AR062015 709000013123062   0FORREST CITY            ARK   090214110A001A48FB 59MB 90GF45 000000
603AR062015 709000013123062   0FORREST CITY            ARK   090214110A002A40FB 00MB 90AQ99 000000
603AR062015 709000013123062   0FORREST CITY            ARK   100214110A001A65FB 74MB 30WI45 000000
603AR064008D709000007350064   0SCOTT                   ARK   050214110A001D77MW 64MW 14ST26 00100037MW
603AR066013 7090000851750662850FORT SMITH              ARK   060214110A001C75MW 21MB 90AQ60 000001                                                  20FB 90OK60
603AR066013 7090000851750662850FORT SMITH              ARK   070214110A001A39MW 53MW 90AQ42 000000
603AR066013 7090000851750662850FORT SMITH              ARK   100214110A001C46MW 26FI 90AQ42 000001                                                  45MI 90AQ42
603AR066013 7090000851750662850FORT SMITH              ARK   110214110A001C25MB 18MB 15OK60 000001                                                  18MB 15OK60
603AR068017 709000002057068   0CAVE CITY               ARK   010214110A001A23MW 27MW 11FR45 000000
603AR069008D709000009070069   0STONE                   ARK   060214110A001A47FW 47FW 12UN43 000000
603AR070008C709000021520070   0UNION                   ARK   100214110A001B70MB 00UU 12UN60 000000
603AR070008C709000021520070   0UNION                   ARK   120214110A001B52MW 00UU 11UN99 000000
603AR070015 709000019741070   0EL DORADO               ARK   090214110A001C26MB 24MB 11UN45 000001                                                  25MB 11UN45
603AR070015 709000019741070   0EL DORADO               ARK   100214110A001A27FB 30MB 12WI45 000000
603AR072013 7090000751200722700FAYETTEVILLE            ARK   010214110A001C49MW 29MW 30AQ45 000001                                                  36MW 30AQ45
603AR072013 7090000751200722700FAYETTEVILLE            ARK   060214110A001A26FW 41MB 20GF05 000000
603AR072013 7090000751200722700FAYETTEVILLE            ARK   120214110A001A00MW 29MW 11UN81A000000
603AR073008B709000036045073   0WHITE                   ARK   040214110A001D29FW 35MW 12WI99 00100035MW
603AR073036 709000007096073   0BEEBE                   ARK   030214110A001A59FW 39MW 90MO99 000000
603AR073036 709000007096073   0BEEBE                   ARK   110214110A001A75MW 43MW 20FA45 000000
603AR073036 709000007096073   0BEEBE                   ARK   110214110A002A75MW 43MW 20UN99 000000
603AR073077 709000002202073   0JUDSONIA                ARK   040214110A001F35MW 00UU 12UN99 00100029FW
604CA001009A9090001283970017831ALAMEDA                 CALIF 040724091A001A32FWH37MWN20WI45 000000
604CA001009A9090001283970017831ALAMEDA                 CALIF 060827091A001B30MWN00UUU12UN99 000000
604CA001009A9090001283970017831ALAMEDA                 CALIF 080319101A001C19MWH19MWN12ST99 000001                                                  19MWH12ST99
604CA001013 9090000703720017830ALAMEDA                 CALIF 010626091A001A60FWN58MBN12WI45 000000
604CA001013 9090000703720017830ALAMEDA                 CALIF 020626091A001A40MWN61MWN20AQ45 000000
604CA001013 9090000703720017830ALAMEDA                 CALIF 120218101A001B40MWN00UUU12UN99 000000
604CA001013 9090000703720017830ALAMEDA                 CALIF 120218101A002B47FIN00UUU80UN99 000000
604CA001032 9090001011900017830BERKELEY                CALIF 010626091A001A37MBN41MBN12AQ40 000000
604CA001032 9090001011900017830BERKELEY                CALIF 050827091A001C25MBN26MBN13ST47 000003                                                  23MBN13ST47 21MBN13ST47 24MBN13ST47
604CA001032 9090001011900017830BERKELEY                CALIF 050827091A002B18MBN00UUU12UN99 000000
604CA001032 9090001011900017830BERKELEY                CALIF 050827091A003ANBMBN21MBN40SO60 000000
604CA001032 9090001011900017830BERKELEY                CALIF 110218101A001D23FBN38MBN13GF45 001000NBMBN
604CA001046 9090000099290017831EMERYVILLE              CALIF 060724091A001B36MWN00UUU12UN99 000000
604CA001046 9090000099290017831EMERYVILLE              CALIF 110125101A001B24MBN00UUU12UN99 000000
604CA001052 9090002027140017830FREMONT                 CALIF 090125101A001A17FWH17MWH11AQ26 000000
604CA001052 9090002027140017830FREMONT                 CALIF 120407101A001B41FWN00UUU30UN99 000000
604CA001062 9090001422270017830HAYWARD                 CALIF 020724091A001B20MWN00UUU12UN26 000000
604CA001062 9090001422270017830HAYWARD                 CALIF 041209091A001B20MBN00UUU12UN99 000000
604CA001062 9090001422270017830HAYWARD                 CALIF 050827091A001A46FWH46MWH20WI45 000000
604CA001062 9090001422270017830HAYWARD                 CALIF 060827091A001B27MWH00UUU12UN47 000000
604CA001062 9090001422270017830HAYWARD                 CALIF 060407101A002B56MWN00UUU40UN99 000000
604CA001062 9090001422270017830HAYWARD                 CALIF 081027091A001B25MBN00UUU11UN99 000000
604CA001062 9090001422270017830HAYWARD                 CALIF 110218101A001B38MWN00UUU12UN99 000000
604CA001073 9090000809150017830LIVERMORE               CALIF 030626091A001A01FWH54FWN40OK60 000000
604CA001073 9090000809150017830LIVERMORE               CALIF 030407101A003B69MWH00UUU90UN99 000000
604CA001073 9090000809150017830LIVERMORE               CALIF 100415101A001B35MW 00UU 20UN99 000000
604CA001084 9090000416850017831NEWARK                  CALIF 101209091A001B19MWH00UUU12UN47 000000
604CA001091C9090004045530017830OAKLAND                 CALIF 010626091A001B42MAN00UUU20UN45 000000
604CA001091C9090004045530017830OAKLAND                 CALIF 010626091A002B45MWN00UUU12UN45 000000
604CA001091C9090004045530017830OAKLAND                 CALIF 010626091A003B23MBN00UUU12UN99 000000
604CA001091C9090004045530017830OAKLAND                 CALIF 020626091A001B20MBN00UUU12UN99 000000
604CA001091C9090004045530017830OAKLAND                 CALIF 020626091A002B36MBN00UUU12UN99 000000
604CA001091C9090004045530017830OAKLAND                 CALIF 020626091A003B57MBN00UUU13UN99 000000
604CA001091C9090004045530017830OAKLAND                 CALIF 020626091A004B31MBN00UUU12UN99 000000
604CA001091C9090004045530017830OAKLAND                 CALIF 020626091A005B56FBN00UUU90UN99 000000
604CA001091C9090004045530017830OAKLAND                 CALIF 020626091A006A18MWN23MWN20ST03 000000
604CA001091C9090004045530017830OAKLAND                 CALIF 030626091A001B46MBN00UUU90UN03 000000
604CA001091C9090004045530017830OAKLAND                 CALIF 030626091A002B45MBN00UUU12UN99 000000
604CA001091C9090004045530017830OAKLAND                 CALIF 030923091A003A15FBN41MBN12ST45 000000
604CA001091C9090004045530017830OAKLAND                 CALIF 030626091A004B31MBN00UUU11UN99 000000
604CA001091C9090004045530017830OAKLAND                 CALIF 030626091A005B42MBN00UUU11UN03 000000
604CA001091C9090004045530017830OAKLAND                 CALIF 030626091A006B42MBN00UUU11UN99 000000
604CA001091C9090004045530017830OAKLAND                 CALIF 031027091A007D40MWN26MBN12ST26 00300035MBN43MAN41MUU
604CA001091C9090004045530017830OAKLAND                 CALIF 030626091A008B18MBN00UUU11UN99 000000
604CA001091C9090004045530017830OAKLAND                 CALIF 030923091A009A24FBN18MBN12ST26 000000
604CA001091C9090004045530017830OAKLAND                 CALIF 030923091A010B22MAN00UUU12UN45 000000
604CA001091C9090004045530017830OAKLAND                 CALIF 030626091A011B15FBN00UUU40UN99 000000
604CA001091C9090004045530017830OAKLAND                 CALIF 030724091A012A26MBN26MBN11ST81E000000
604CA001091C9090004045530017830OAKLAND                 CALIF 040923091A001B36MAN00UUU11UN45 000000
604CA001091C9090004045530017830OAKLAND                 CALIF 040923091A002B21MBN00UUU11UN45 000000
604CA001091C9090004045530017830OAKLAND                 CALIF 040626091A003B26MBN00UUU11UN99 000000
604CA001091C9090004045530017830OAKLAND                 CALIF 040626091A004A36MWN27FWN12BF45 000000
604CA001091C9090004045530017830OAKLAND                 CALIF 040626091A005B20MBN00UUU12UN45 000000
604CA001091C9090004045530017830OAKLAND                 CALIF 040626091A006B21MBN00UUU12UN99 000000
604CA001091C9090004045530017830OAKLAND                 CALIF 040923091A007B18MAN00UUU11UN47 000000
604CA001091C9090004045530017830OAKLAND                 CALIF 040626091A008B21MBN00UUU11UN99 000000
604CA001091C9090004045530017830OAKLAND                 CALIF 040626091A009B23MBN00UUU11UN99 000000
604CA001091C9090004045530017830OAKLAND                 CALIF 040626091A010B28MBN00UUU12UN99 000000
604CA001091C9090004045530017830OAKLAND                 CALIF 040626091A011A53FBN55MBN12WI45 000000
604CA001091C9090004045530017830OAKLAND                 CALIF 040626091A012B41MWH00UUU11UN99 000000
604CA001091C9090004045530017830OAKLAND                 CALIF 050724091A001B19MBN00UUU11UN99 000000
604CA001091C9090004045530017830OAKLAND                 CALIF 050724091A002B97FBN00UUU30UN03 000000
604CA001091C9090004045530017830OAKLAND                 CALIF 050923091A003B23MBN00UUU20UN45 000000
604CA001091C9090004045530017830OAKLAND                 CALIF 050923091A004A13MWN13MWN11ST47 000000
604CA001091C9090004045530017830OAKLAND                 CALIF 050724091A005B62MUU00UUU20UN99 000000
604CA001091C9090004045530017830OAKLAND                 CALIF 050724091A006B26MBN00UUU12UN99 000000
604CA001091C9090004045530017830OAKLAND                 CALIF 060724091A001B29MBN00UUU12UN99 000000
604CA001091C9090004045530017830OAKLAND                 CALIF 060724091A002B28MWN00UUU12UN03 000000
604CA001091C9090004045530017830OAKLAND                 CALIF 061027091A003D20FBN28MBN11OK45 00100023FBN
604CA001091C9090004045530017830OAKLAND                 CALIF 060724091A004A18FBN18FBN11GF45 000000
604CA001091C9090004045530017830OAKLAND                 CALIF 060724091A005B29FWN00UUU12UN99 000000
604CA001091C9090004045530017830OAKLAND                 CALIF 060724091A006A46MWN24FBN40ST99 000000
604CA001091C9090004045530017830OAKLAND                 CALIF 070827091A001A20MBN27MAN11ST99 000000
604CA001091C9090004045530017830OAKLAND                 CALIF 070827091A002B37MWN00UUU11UN99 000000
604CA001091C9090004045530017830OAKLAND                 CALIF 070827091A003A33MBN28MBN11ST99 000000
604CA001091C9090004045530017830OAKLAND                 CALIF 070827091A004B26MBN00UUU11UN99 000000
604CA001091C9090004045530017830OAKLAND                 CALIF 070827091A005B25MBN00UUU12UN99 000000
604CA001091C9090004045530017830OAKLAND                 CALIF 070827091A006B16MWN00UUU11UN99 000000
604CA001091C9090004045530017830OAKLAND                 CALIF 070827091A007B49MBN00UUU11UN99 000000
604CA001091C9090004045530017830OAKLAND                 CALIF 070827091A008B18MWN00UUU11UN99 000000
604CA001091C9090004045530017830OAKLAND                 CALIF 070827091A009A21MWN49MWN11ST99 000000
604CA001091C9090004045530017830OAKLAND                 CALIF 070827091A010B54MBN00UUU11UN99 000000
604CA001091C9090004045530017830OAKLAND                 CALIF 070827091A011B52MWH00UUU11UN99 000000
604CA001091C9090004045530017830OAKLAND                 CALIF 070827091A012C36MBN27MWN11ST81A000001                                                  32MAN11ST81A
604CA001091C9090004045530017830OAKLAND                 CALIF 081027091A001A42MUU21MBN14ST99 000000
604CA001091C9090004045530017830OAKLAND                 CALIF 081027091A002B22MBN00UUU11UN99 000000
604CA001091C9090004045530017830OAKLAND                 CALIF 081027091A003B22MWN00UUU13UN47 000000
604CA001091C9090004045530017830OAKLAND                 CALIF 080125101A004B14MWN00UUU12UN99 000000
604CA001091C9090004045530017830OAKLAND                 CALIF 081027091A005A19MBN19MBN12FR03 000000
604CA001091C9090004045530017830OAKLAND                 CALIF 081027091A006B25FBN00UUU90UN99 000000
604CA001091C9090004045530017830OAKLAND                 CALIF 081027091A007B21MBN00UUU12UN99 000000
604CA001091C9090004045530017830OAKLAND                 CALIF 081027091A008B37FBN00UUU12UN99 000000
604CA001091C9090004045530017830OAKLAND                 CALIF 081027091A009B18MWN00UUU11UN99 000000
604CA001091C9090004045530017830OAKLAND                 CALIF 081027091A010B30MBN00UUU12UN99 000000
604CA001091C9090004045530017830OAKLAND                 CALIF 081027091A011A46MBN25FBN11ST81E000000
604CA001091C9090004045530017830OAKLAND                 CALIF 091209091A001B21MWN00UUU11UN99 000000
604CA001091C9090004045530017830OAKLAND                 CALIF 091209091A002B29MBN00UUU12UN99 000000
604CA001091C9090004045530017830OAKLAND                 CALIF 091209091A003B17FBN00UUU12UN99 000000
604CA001091C9090004045530017830OAKLAND                 CALIF 091209091A004B28MBN00UUU11UN99 000000
604CA001091C9090004045530017830OAKLAND                 CALIF 091209091A005A43FWN64FWN12DA99 000000
604CA001091C9090004045530017830OAKLAND                 CALIF 091209091A006B24MWN00UUU12UN99 000000
604CA001091C9090004045530017830OAKLAND                 CALIF 091209091A007B27MBN00UUU12UN99 000000
604CA001091C9090004045530017830OAKLAND                 CALIF 091209091A008B23MBN00UUU11UN99 000000
604CA001091C9090004045530017830OAKLAND                 CALIF 091209091A009F48MWN00UUU12UN99 00100044MWN
604CA001091C9090004045530017830OAKLAND                 CALIF 091209091A010A15MWH15MWH11ST47 000000
604CA001091C9090004045530017830OAKLAND                 CALIF 100218101A001A30MBN34MWN11ST99 000000
604CA001091C9090004045530017830OAKLAND                 CALIF 100218101A002A53FAN55MAN20WI45 000000
604CA001091C9090004045530017830OAKLAND                 CALIF 100218101A003A37MBN34MBN11ST99 000000
604CA001091C9090004045530017830OAKLAND                 CALIF 100218101A004B20MAN00UUU11UN99 000000
604CA001091C9090004045530017830OAKLAND                 CALIF 100218101A005B23MBN00UUU11UN99 000000
604CA001091C9090004045530017830OAKLAND                 CALIF 100218101A006B42MBN00UUU11UN45 000000
604CA001091C9090004045530017830OAKLAND                 CALIF 100218101A007B66MBN00UUU12UN45 000000
604CA001091C9090004045530017830OAKLAND                 CALIF 100218101A008A19FBN23MBN12GF45 000000
604CA001091C9090004045530017830OAKLAND                 CALIF 100218101A009B23MUU00UUU12UN99 000000
604CA001091C9090004045530017830OAKLAND                 CALIF 110125101A001B32MBN00UUU13UN99 000000
604CA001091C9090004045530017830OAKLAND                 CALIF 110125101A002B19MBN00UUU12UN99 000000
604CA001091C9090004045530017830OAKLAND                 CALIF 110125101A003B16MBN00UUU11UN99 000000
604CA001091C9090004045530017830OAKLAND                 CALIF 110125101A004A24FBN18MBN12ST45 000000
604CA001091C9090004045530017830OAKLAND                 CALIF 110125101A005B31MBN00UUU12UN99 000000
604CA001091C9090004045530017830OAKLAND                 CALIF 110125101A006B52MBN00UUU11UN99 000000
604CA001091C9090004045530017830OAKLAND                 CALIF 110125101A007B28MBN00UUU11UN99 000000
604CA001091C9090004045530017830OAKLAND                 CALIF 120319101A001A54MWN52MWN20HO45 000000
604CA001091C9090004045530017830OAKLAND                 CALIF 120319101A002B16MWN00UUU12UN99 000000
604CA001091C9090004045530017830OAKLAND                 CALIF 120319101A003B28MBN00UUU13UN99 000000
604CA001091C9090004045530017830OAKLAND                 CALIF 120319101A004B60MWN00UUU30UN03 000000
604CA001091C9090004045530017830OAKLAND                 CALIF 120319101A005B59MAN00UUU12UN03 000000
604CA001091C9090004045530017830OAKLAND                 CALIF 120319101A006B35MBN00UUU11UN99 000000
604CA001091C9090004045530017830OAKLAND                 CALIF 120319101A007B28MBN00UUU13UN99 000000
604CA001091C9090004045530017830OAKLAND                 CALIF 120319101A008A66FBN17MBN30ST99 000000
604CA001091C9090004045530017830OAKLAND                 CALIF 120407101A009A18MBN28MWN11ST81F000000
604CA001123 9090000776760017830SAN LEANDRO             CALIF 030626091A001B48MWN00UUU11UN99 000000
604CA001123 9090000776760017830SAN LEANDRO             CALIF 110125101A001B32MAN00UUU12UN43 000000
604CA001133 9090000726660017830UNION CITY              CALIF 030626091A001B21MWH00UUU11UN99 000000
604CA001133 9090000726660017830UNION CITY              CALIF 030626091A002B23MWH00UUU11UN99 000000
