601AL001009A6050001480990370981JEFFERSON               ALA   010322060A001A37MB 00MW 90AQ99 000000
601AL001009A6050001480990370981JEFFERSON               ALA   050322060A001A33MB 00MB 12UN99 000000
601AL001009A6050001480990370981JEFFERSON               ALA   050323061A002B41MW 00UU 12UN99 000000
601AL001009A6050001480990370981JEFFERSON               ALA   070323061A001B38MW 00UU 14UN45 000000
601AL001014 6050000289020370981BESSEMER                ALA   050405061A001B18MB 00UU 12UN45 000000
601AL001014 6050000289020370981BESSEMER                ALA   080322060A001A22MB 18MB 12BR40 000000
601AL001014 6050000289020370981BESSEMER                ALA   100322060A001A40MB 49MB 12AQ99 000000
601AL001022 6050002345710370980BIRMINGHAM              ALA   010323061A001B20MB 00UU 12UN99 000000
601AL001022 6050002345710370980BIRMINGHAM              ALA   010323061A002A25MB 22MB 12AQ45 000000
601AL001022 6050002345710370980BIRMINGHAM              ALA   010327061A003D20MB 17MB 12AQ45 00100032MB
601AL001022 6050002345710370980BIRMINGHAM              ALA   010323061A004A38FB 25MB 20GF45 000000
601AL001022 6050002345710370980BIRMINGHAM              ALA   010323061A005A21MW 20FB 20BF45 000000
601AL001022 6050002345710370980BIRMINGHAM              ALA   010323061A006B19MB 00UU 12UN99 000000
601AL001022 6050002345710370980BIRMINGHAM              ALA   010323061A007A49MB 52MB 30OK44 000000
601AL001022 6050002345710370980BIRMINGHAM              ALA   010323061A008A20MW 18MB 12AQ45 000000
601AL001022 6050002345710370980BIRMINGHAM              ALA   020323061A001A04FB 27FB 40DA60 000000
601AL001022 6050002345710370980BIRMINGHAM              ALA   020323061A002B30MW 00UU 12UN03 000000
601AL001022 6050002345710370980BIRMINGHAM              ALA   020323061A003A37MB 25MB 12AQ45 000000
601AL001022 6050002345710370980BIRMINGHAM              ALA   020323061A004A47MB 42MB 20AQ42 000000
601AL001022 6050002345710370980BIRMINGHAM              ALA   020323061A005A35MB 31MB 12AQ42 000000
601AL001022 6050002345710370980BIRMINGHAM              ALA   020323061A006A70MW 35MW 20OK99 000000
601AL001022 6050002345710370980BIRMINGHAM              ALA   020323061A007B33MW 00UU 30UN99 000000
601AL001022 6050002345710370980BIRMINGHAM              ALA   030323061A001A20FB 27FB 12OF45 000000
601AL001022 6050002345710370980BIRMINGHAM              ALA   030323061A002B49MB 00UU 12UN99 000000
601AL001022 6050002345710370980BIRMINGHAM              ALA   030323061A003B49MB 00UU 12UN99 000000
601AL001022 6050002345710370980BIRMINGHAM              ALA   030323061A004A26MB 28MB 12AQ45 000000
601AL001022 6050002345710370980BIRMINGHAM              ALA   040323061A001A20MB 44MB 12AQ45 000000
601AL001022 6050002345710370980BIRMINGHAM              ALA   040323061A002B22FB 00UU 90UN99 000000
601AL001022 6050002345710370980BIRMINGHAM              ALA   040323061A003A24MB 26MB 12AQ45 000000
601AL001022 6050002345710370980BIRMINGHAM              ALA   040323061A004A23MB 00MB 12AQ45 000000
601AL001022 6050002345710370980BIRMINGHAM              ALA   040323061A005B24MB 00UU 13UN99 000000
601AL001022 6050002345710370980BIRMINGHAM              ALA   050323061A001A34MB 22MB 12AQ45 000000
601AL001022 6050002345710370980BIRMINGHAM              ALA   050323061A002B24MB 00UU 20UN99 000000
601AL001022 6050002345710370980BIRMINGHAM              ALA   050323061A003A18MB 18MB 13AQ45 000000
601AL001022 6050002345710370980BIRMINGHAM              ALA   050323061A004A30FB 34MB 14WI45 000000
601AL001022 6050002345710370980BIRMINGHAM              ALA   050323061A005A25MB 47MB 12AQ45 000000
601AL001022 6050002345710370980BIRMINGHAM              ALA   050323061A006B42MB 00UU 12UN60 000000
601AL001022 6050002345710370980BIRMINGHAM              ALA   050323061A007A31MB 28MB 12AQ45 000000
601AL001022 6050002345710370980BIRMINGHAM              ALA   050323061A008A30MB 25MB 13AQ45 000000
601AL001022 6050002345710370980BIRMINGHAM              ALA   050323061A009A32MB 50MB 20ST45 000000
601AL001022 6050002345710370980BIRMINGHAM              ALA   060323061A001B20MB 00UU 12UN99 000000
601AL001022 6050002345710370980BIRMINGHAM              ALA   060323061A002B35FB 00UU 12UN03 000000
601AL001022 6050002345710370980BIRMINGHAM              ALA   060323061A003B18MB 00UU 12UN60 000000
601AL001022 6050002345710370980BIRMINGHAM              ALA   060323061A004A15FB 18MB 12UN60 000000
601AL001022 6050002345710370980BIRMINGHAM              ALA   070323061A001A63MB 68MB 12FR45 000000
601AL001022 6050002345710370980BIRMINGHAM              ALA   070323061A002A23MB 29MB 12ST03 000000
601AL001022 6050002345710370980BIRMINGHAM              ALA   070323061A003B25MB 00UU 13UN99 000000
601AL001022 6050002345710370980BIRMINGHAM              ALA   070323061A004B26MB 00UU 12UN99 000000
601AL001022 6050002345710370980BIRMINGHAM              ALA   070323061A005A35FB 49MB 12AQ45 000000
601AL001022 6050002345710370980BIRMINGHAM              ALA   070323061A006A37FB 45MB 12AQ60 000000
601AL001022 6050002345710370980BIRMINGHAM              ALA   070323061A007A37MB 40MB 12AQ99 000000
601AL001022 6050002345710370980BIRMINGHAM              ALA   070323061A008B55MB 00UU 12UN03 000000
601AL001022 6050002345710370980BIRMINGHAM              ALA   070323061A009A44MB 25MB 12ST03 000000
601AL001022 6050002345710370980BIRMINGHAM              ALA   070323061A010A16MB 15MB 12FR45 000000
601AL001022 6050002345710370980BIRMINGHAM              ALA   080323061A001A27MB 35MB 12AQ60 000000
601AL001022 6050002345710370980BIRMINGHAM              ALA   080323061A002F17FW 00UU 12UN99 00100026MW
601AL001022 6050002345710370980BIRMINGHAM              ALA   080323061A003A35MB 35MB 12AQ45 000000
601AL001022 6050002345710370980BIRMINGHAM              ALA   080323061A004A74MW 20MB 12ST03 000000
601AL001022 6050002345710370980BIRMINGHAM              ALA   080323061A005A17MB 17MB 12AQ45 000000
601AL001022 6050002345710370980BIRMINGHAM              ALA   080323061A006A20MW 19MW 12AQ40 000000
601AL001022 6050002345710370980BIRMINGHAM              ALA   080323061A007A51MB 70MB 12OF45 000000
601AL001022 6050002345710370980BIRMINGHAM              ALA   080323061A008A53MB 47MB 20AQ44 000000
601AL001022 6050002345710370980BIRMINGHAM              ALA   080323061A009A44MB 19MB 12ST03 000000
601AL001022 6050002345710370980BIRMINGHAM              ALA   080323061A010B25MB 00UU 12UN99 000000
601AL001022 6050002345710370980BIRMINGHAM              ALA   080323061A011A19MB 20MB 12AQ40 000000
601AL001022 6050002345710370980BIRMINGHAM              ALA   080323061A012A26FB 26FB 12AQ44 000000
601AL001022 6050002345710370980BIRMINGHAM              ALA   080323061A013A36MB 20MB 14AQ03 000000
601AL001022 6050002345710370980BIRMINGHAM              ALA   080323061A014A70MB 25MB 12ST03 000000
601AL001022 6050002345710370980BIRMINGHAM              ALA   080323061A015A16MB 18MB 12AQ40 000000
601AL001022 6050002345710370980BIRMINGHAM              ALA   080323061A016A33FB 25FB 12AQ45 000000
601AL001022 6050002345710370980BIRMINGHAM              ALA   080323061A017A42MW 35MB 12ST18 000000
601AL001022 6050002345710370980BIRMINGHAM              ALA   090323061A001A27MB 30FB 20HU45 000000
601AL001022 6050002345710370980BIRMINGHAM              ALA   090323061A002B46MB 00UU 12UN99 000000
601AL001022 6050002345710370980BIRMINGHAM              ALA   090323061A003A28MB 00MB 12UN99 000000
601AL001022 6050002345710370980BIRMINGHAM              ALA   090323061A004A21MW 18FW 12HU45 000000
601AL001022 6050002345710370980BIRMINGHAM              ALA   090323061A005B36MB 00UU 12UN99 000000
601AL001022 6050002345710370980BIRMINGHAM              ALA   090323061A006A43MB 50MB 20UN99 000000
601AL001022 6050002345710370980BIRMINGHAM              ALA   090323061A007A43MB 00MB 12UN03 000000
601AL001022 6050002345710370980BIRMINGHAM              ALA   090323061A008A26MB 34MB 12AQ44 000000
601AL001022 6050002345710370980BIRMINGHAM              ALA   090323061A009A18MB 29MB 12AQ45 000000
601AL001022 6050002345710370980BIRMINGHAM              ALA   090323061A010B43MB 00UU 12UN99 000000
601AL001022 6050002345710370980BIRMINGHAM              ALA   100323061A001B41MB 00UU 12UN99 000000
601AL001022 6050002345710370980BIRMINGHAM              ALA   100323061A002A23MB 20MB 12UN60 000000
601AL001022 6050002345710370980BIRMINGHAM              ALA   100323061A003A20MB 22MB 12AQ47 000000
601AL001022 6050002345710370980BIRMINGHAM              ALA   100323061A004B47MB 00UU 40UN99 000000
601AL001022 6050002345710370980BIRMINGHAM              ALA   100323061A005B22MB 00UU 12UN60 000000
601AL001022 6050002345710370980BIRMINGHAM              ALA   100323061A006B38MB 00UU 12UN60 000000
601AL001022 6050002345710370980BIRMINGHAM              ALA   100323061A007B22MB 00UU 12UN81E000000
601AL001022 6050002345710370980BIRMINGHAM              ALA   110323061A001A24FB 29FB 12AQ45 000000
601AL001022 6050002345710370980BIRMINGHAM              ALA   110323061A002A49FB 22MB 12MO45 000000
601AL001022 6050002345710370980BIRMINGHAM              ALA   110323061A003A42MB 00MB 12UN45 000000
601AL001022 6050002345710370980BIRMINGHAM              ALA   110323061A004A36MB 00MB 12AQ45 000000
601AL001022 6050002345710370980BIRMINGHAM              ALA   110323061A005F43MB 00UU 12UN99 00100046MB
601AL001022 6050002345710370980BIRMINGHAM              ALA   110323061A006A19MB 34MB 12ST03 000000
601AL001022 6050002345710370980BIRMINGHAM              ALA   110323061A007B38MB 00UU 12UN99 000000
601AL001022 6050002345710370980BIRMINGHAM              ALA   110323061A008D28FW 23MB 12ST03 00200045MW 50FB
601AL001022 6050002345710370980BIRMINGHAM              ALA   110323061A009A45MB 24MB 12AQ45 000000
601AL001022 6050002345710370980BIRMINGHAM              ALA   110323061A010A27MB 21MB 12AQ45 000000
601AL001022 6050002345710370980BIRMINGHAM              ALA   110323061A011B55MB 00UU 30UN03 000000
601AL001022 6050002345710370980BIRMINGHAM              ALA   120323061A001A21MB 24MB 12AQ44 000000
601AL001022 6050002345710370980BIRMINGHAM              ALA   120323061A002A17MB 17MB 12AQ47 000000
601AL001022 6050002345710370980BIRMINGHAM              ALA   120323061A003A37MB 39MB 20AQ40 000000
601AL001022 6050002345710370980BIRMINGHAM              ALA   120323061A004A29MW 29MB 12ST03 000000
601AL001022 6050002345710370980BIRMINGHAM              ALA   120323061A005A30MB 40MB 12AQ45 000000
601AL001022 6050002345710370980BIRMINGHAM              ALA   120323061A006B22FB 00UU 12UN99 000000
601AL001022 6050002345710370980BIRMINGHAM              ALA   120323061A007A23MB 26MB 12UN60 000000
601AL001022 6050002345710370980BIRMINGHAM              ALA   120323061A008A47MB 22MB 12UN60 000000
601AL001035 6050000208740370981MOUNTAIN BROOK          ALA   050322060A001A31FW 25MW 90AQ45 000000
601AL001045 6050000119380370981FAIRFIELD               ALA   040322060A001A24FB 45MB 12WI45 000000
601AL001045 6050000119380370981FAIRFIELD               ALA   050322060A001A18MB 00MB 12AQ99 000000
601AL001045 6050000119380370981FAIRFIELD               ALA   070405061A001B79MW 00UU 12UN99 000000
601AL001045 6050000119380370981FAIRFIELD               ALA   120322060A001A24MB 44MB 20NE45 000000
601AL001086 6050000068330370981TARRANT CITY            ALA   020322060A001A34MB 20MB 12AQ45 000000
601AL001086 6050000068330370981TARRANT CITY            ALA   050405061A001B28MW 00UU 12UN99 000000
601AL001086 6050000068330370981TARRANT CITY            ALA   050322060A002A54MW 63MW 12AQ99 000000
601AL001145 6050000104400370981PLEASANT GROVE          ALA   120322060A001A30FW 39MW 12WI45 000000
601AL001195 6050000154060370981HUEYTOWN                ALA   110405061A001B45MB 00UU 90UN99 000000
601AL002009B6050000897470495471MOBILE                  ALA   010405061A001B33MB 00UU 12UN99 000000
601AL002009B6050000897470495471MOBILE                  ALA   020405061A001ABBFW 23MW 40DA60 000000
601AL002009B6050000897470495471MOBILE                  ALA   050405061A001A35MB 00MB 11UN03 000000
601AL002009B6050000897470495471MOBILE                  ALA   070405061A001A37MW 26MW 12AQ45 000000
601AL002009B6050000897470495471MOBILE                  ALA   090405061A001A38MW 54MW 14ST45 000000
601AL002009B6050000897470495471MOBILE                  ALA   110405061A001A51MW 29MB 90AQ99 000000
601AL002012 6050002497980495470MOBILE                  ALA   010322060A001A32FB 18MB 40ST99 000000
601AL002012 6050002497980495470MOBILE                  ALA   010322060A002A32MW 32MW 90AQ99 000000
601AL002012 6050002497980495470MOBILE                  ALA   010322060A003A36FB 22MB 90AQ99 000000
601AL002012 6050002497980495470MOBILE                  ALA   010322060A004A62FB 30MB 90MO99 000000
601AL002012 6050002497980495470MOBILE                  ALA   010323061A005B28MB 00UU 90UN99 000000
601AL002012 6050002497980495470MOBILE                  ALA   010322060A006A18FB 19MB 90UN99 000000
601AL002012 6050002497980495470MOBILE                  ALA   020322060A001A27MW 18MB 12ST99 000000
601AL002012 6050002497980495470MOBILE                  ALA   020322060A002A30MB 26MB 90ST99 000000
601AL002012 6050002497980495470MOBILE                  ALA   030322060A001A30MB 24MB 90UN99 000000
601AL002012 6050002497980495470MOBILE                  ALA   030322060A002A32MB 18MB 12AQ99 000000
601AL002012 6050002497980495470MOBILE                  ALA   040322060A001A42MB 39FB 12BF99 000000
601AL002012 6050002497980495470MOBILE                  ALA   050322060A001A27MB 27MB 90UN99 000000
601AL002012 6050002497980495470MOBILE                  ALA   070322060A001A22MB 21MB 12UN99 000000
601AL002012 6050002497980495470MOBILE                  ALA   070323061A002B31MB 00UU 90UN99 000000
601AL002012 6050002497980495470MOBILE                  ALA   080322060A001A00MU 23MB 12UN99 000000
601AL002012 6050002497980495470MOBILE                  ALA   080322060A002A00MU 27MB 12UN99 000000
601AL002012 6050002497980495470MOBILE                  ALA   080322060A003A13MB 28MB 12UN99 000000
601AL002012 6050002497980495470MOBILE                  ALA   080322060A004A49MB 22MB 90AQ99 000000
601AL002012 6050002497980495470MOBILE                  ALA   080322060A005A20MB 20MB 90UN99 000000
601AL002012 6050002497980495470MOBILE                  ALA   090322060A001A22MB 22MB 90UN99 000000
601AL002012 6050002497980495470MOBILE                  ALA   090323061A002B48MB 00UU 90UN99 000000
601AL002012 6050002497980495470MOBILE                  ALA   100322060A001A00MU 20MB 90UN99 000000
601AL002012 6050002497980495470MOBILE                  ALA   100323061A002B00MU 00UU 90UN99 000000
601AL002012 6050002497980495470MOBILE                  ALA   110323061A001B45MW 00UU 90UN99 000000
601AL002012 6050002497980495470MOBILE                  ALA   110323061A002B00MU 00UU 90UN99 000000
601AL002012 6050002497980495470MOBILE                  ALA   110323061A003B30MB 00UU 90UN99 000000
601AL002012 6050002497980495470MOBILE                  ALA   110322060A004A00MU 27MB 90AQ99 000000
601AL002012 6050002497980495470MOBILE                  ALA   120322060A001A70MB 43MB 90AQ99 000000
601AL002012 6050002497980495470MOBILE                  ALA   120323061A002B39MB 00UU 90UN99 000000
601AL002012 6050002497980495470MOBILE                  ALA   120322060A003A33MB 25MB 90UN99 000000
601AL002012 6050002497980495470MOBILE                  ALA   120322060A004A18MB 29MB 90UN99 000000
601AL002024 6050000277900495471PRICHARD                ALA   020322060A001A55MB 80MB 12UN45 000000
601AL002024 6050000277900495471PRICHARD                ALA   040322060A001A38FB 51MB 20GF45 000000
601AL002024 6050000277900495471PRICHARD                ALA   040322060A002A19MB 18MB 12AQ40 000000
601AL002024 6050000277900495471PRICHARD                ALA   070322060A001A46MB 52MB 90AQ99 000000
601AL002024 6050000277900495471PRICHARD                ALA   070322060A002A29MB 00MB 12ST99 000000
601AL002024 6050000277900495471PRICHARD                ALA   100405061A001B37MW 00UU 90UN99 000000
601AL002024 6050000277900495471PRICHARD                ALA   100322060A002A48FB 49MB 12WI45 000000
601AL002024 6050000277900495471PRICHARD                ALA   120322060A001A31MB 23MB 12AQ99 000000
601AL002036 6050000061000495471CHICKASAW               ALA   050322060A001A75FW 75MW 12WI99 000000
601AL003012 6050002022090515560MONTGOMERY              ALA   010322060A001A30MB 00MB 12UN99 000000
601AL003012 6050002022090515560MONTGOMERY              ALA   010323061A002B20FB 00UU 12UN99 000000
601AL003012 6050002022090515560MONTGOMERY              ALA   020323061A001B75MB 00UU 40UN99 000000
601AL003012 6050002022090515560MONTGOMERY              ALA   020322060A002A18MB 26MB 12UN99 000000
601AL003012 6050002022090515560MONTGOMERY              ALA   020322060A003A16MB 21MB 12UN99 000000
601AL003012 6050002022090515560MONTGOMERY              ALA   030322060A001A25FB 30FB 12UN99 000000
601AL003012 6050002022090515560MONTGOMERY              ALA   030323061A002B22MB 00UU 12UN99 000000
601AL003012 6050002022090515560MONTGOMERY              ALA   030322060A003A24FB 27MB 12GF99 000000
601AL003012 6050002022090515560MONTGOMERY              ALA   040322060A001A28MB 21MB 12UN99 000000
601AL003012 6050002022090515560MONTGOMERY              ALA   040322060A002A24FB 28MB 12UN99 000000
601AL003012 6050002022090515560MONTGOMERY              ALA   040323061A003B34MB 00UU 12UN99 000000
601AL003012 6050002022090515560MONTGOMERY              ALA   050322060A001A00FB 23MB 12AQ99 000000
601AL003012 6050002022090515560MONTGOMERY              ALA   060322060A001A18FB 22FB 20UN45 000000
601AL003012 6050002022090515560MONTGOMERY              ALA   060322060A002A28MB 17MB 40AQ99 000000
601AL003012 6050002022090515560MONTGOMERY              ALA   060322060A003A16MB 16MB 12UN99 000000
601AL003012 6050002022090515560MONTGOMERY              ALA   080322060A001A88MB 39MB 40UN99 000000
601AL003012 6050002022090515560MONTGOMERY              ALA   080322060A002A25MB 45MB 20IL45 000000
601AL003012 6050002022090515560MONTGOMERY              ALA   090322060A001A39MB 21MB 12UN99 000000
601AL003012 6050002022090515560MONTGOMERY              ALA   100322060A001A20MB 19MB 12UN99 000000
601AL003012 6050002022090515560MONTGOMERY              ALA   100322060A002A20FB 26MB 12UN99 000000
601AL003012 6050002022090515560MONTGOMERY              ALA   110322060A001A13FB 24MB 20UN99 000000
601AL003012 6050002022090515560MONTGOMERY              ALA   110322060A002A31FB 24MB 20UN99 000000
601AL003012 6050002022090515560MONTGOMERY              ALA   110322060A003A15MB 16MB 12UN99 000000
601AL003012 6050002022090515560MONTGOMERY              ALA   110322060A004A48MB 20MB 12UN45 000000
601AL003012 6050002022090515560MONTGOMERY              ALA   110322060A005A51MB 36MB 12NE99 000000
601AL003012 6050002022090515560MONTGOMERY              ALA   110322060A006A49MW 36MB 12NE99 000000
601AL003012 6050002022090515560MONTGOMERY              ALA   110322060A007A34MW 39MB 12UN99 000000
601AL003012 6050002022090515560MONTGOMERY              ALA   120322060A001A46MB 49MB 12AQ99 000000
601AL003012 6050002022090515560MONTGOMERY              ALA   120322060A002A20MB 46MB 12UN99 000000
601AL005008B605000081810002   0BALDWIN                 ALA   030405061A001B42MW 00UU 12UN99 000000
601AL005025 605000014691002   0FAIRHOPE                ALA   030322060A001A57FW 20MW 90MO45 000000
601AL005025 605000014691002   0FAIRHOPE                ALA   030322060A002A29MB 21MB 12AQ44 000000
601AL005025 605000014691002   0FAIRHOPE                ALA   040322060A001A50MB 41MB 20AQ45 000000
601AL005046 605000006333002   0GULF SHORES             ALA   050322060A001A27MW 38FW 90ST99 000000
601AL005085 605000018225002   0DAPHNE                  ALA   050405061A001B50MW 00UU 12UN99 000000
601AL006015 605000013603003   0EUFAULA                 ALA   080322060A001A24MB 25MB 12AQ99 000000
601AL010016 605000007121007   0GREENVILLE              ALA   070322060A001A39MB 32FB 12BF99 000000
601AL010016 605000007121007   0GREENVILLE              ALA   120322060A001A03MB 24MB 90ST99 000000
601AL011015 6050000239670080420ANNISTON                ALA   020322060A001A25MB 25MB 12AQ99 000000
601AL011015 6050000239670080420ANNISTON                ALA   030322060A001A37MB 48MB 12BR45 000000
601AL011015 6050000239670080420ANNISTON                ALA   040322060A001A31MB 30MB 12AQ99 000000
601AL011015 6050000239670080420ANNISTON                ALA   040322060A002A27MB 30MB 12AQ18 000000
601AL011015 6050000239670080420ANNISTON                ALA   100405061A001B18MB 00UU 12UN99 000000
601AL011026 6050000087690080421JACKSONVILLE            ALA   090322060A001A24MB 21MB 12AQ05 000000
601AL011026 6050000087690080421JACKSONVILLE            ALA   120322060A001A26FW 27MW 12WI45 000000
601AL012016 605000003119009   0LAFAYETTE               ALA   110322060A001A43FB 39MB 12GF99 000000
601AL012016 605000003119009   0LAFAYETTE               ALA   120322060A001A64MB 28FB 20AQ03 000000
601AL014009B6050000282650110981CHILTON                 ALA   060322060A001A21MW 29MW 12FR45 000000
601AL018008C605000010756015   0CLEBURNE                ALA   080405061A001B35MW 00UU 14UN18 000000
601AL019008C605000017061016   0COFFEE                  ALA   010322060A001A39MW 45MW 40AQ40 000000
601AL020016 6050000093570172771SHEFFIELD               ALA   070405061A001B64MB 00UU 12UN45 000000
601AL020016 6050000093570172771SHEFFIELD               ALA   110405061A001B47MB 00UU 20UN40 000000
601AL025008B605000061979022   0CULLMAN                 ALA   090322060A001A26MW 00MW 12UN03 000000
601AL025008B605000061979022   0CULLMAN                 ALA   110405061A001B43MW 00UU 12UN99 000000
601AL026015 605000015044023   0OZARK                   ALA   030322060A001A28MB 23MB 12AQ45 000000
601AL026015 605000015044023   0OZARK                   ALA   040322060A001A37MW 21MW 40AQ99 000000
601AL027015 605000019738024   0SELMA                   ALA   040322060A001A33MB 19MB 14AQ45 000000
601AL027015 605000019738024   0SELMA                   ALA   100405061A001B56MB 00UU 12UN40 000000
601AL028008B605000038595025   0DE KALB                 ALA   020417061A001A00FI 34MI 20GF40 000000
601AL028008B605000038595025   0DE KALB                 ALA   100405061A001B68MW 00UU 40UN99 000000
601AL028015 605000013517025   0FORT PAYNE              ALA   080405061A001B00MI 00UU 90UN44 000000
601AL029009B6050000452890265561ELMORE                  ALA   110322060A001A80MW 19MW 40UN99 000000
601AL029026 6050000050190265561TALLASSEE               ALA   080322060A001A38MW 31MB 12AQ45 000000
601AL030016 605000007618027   0ATMORE                  ALA   020417061A001A01MW 32MW 40SO60 000000
601AL030016 605000007618027   0ATMORE                  ALA   120405061A001B41MW 00UU 12UN99 000000
601AL031024 6050000378700283030GADSDEN                 ALA   040322060A001A22FW 20MB 90WI45 000000
601AL031024 6050000378700283030GADSDEN                 ALA   080405061A001B35MB 00UU 14UN99 000000
601AL031024 6050000378700283030GADSDEN                 ALA   080405061A002B41MB 00UU 12UN99 000000
601AL031024 6050000378700283030GADSDEN                 ALA   080405061A003B51MB 00UU 20UN45 000000
601AL031024 6050000378700283030GADSDEN                 ALA   090322060A001A64FB 16MW 90UN99 000000
601AL031024 6050000378700283030GADSDEN                 ALA   100322060A001A50MB 31MB 90AQ99 000000
601AL033008C605000017535030   0FRANKLIN                ALA   080417061A001A31MW 29MW 12AQ45 000000
601AL033016 605000008851030   0RUSSELLVILLE            ALA   080322060A001A31MW 29MW 12UN40 000000
601AL034037 6050000023630312271HARTFORD                ALA   100405061A001A48MW 67FW 12SO45 000000
601AL036009C6050000139540339151HALE                    ALA   090322060A001A61MW 24MB 12UN99 000000
601AL038013 6050000616610352270DOTHAN                  ALA   010322060A001A45MB 49FB 90CH99 000000
601AL038013 6050000616610352270DOTHAN                  ALA   010413061A002A35FB 44MB 12GF99 000000
601AL038013 6050000616610352270DOTHAN                  ALA   010405061A003B30MB 00UU 12UN99 000000
601AL038013 6050000616610352270DOTHAN                  ALA   010405061A004B28MB 00UU 12UN99 000000
601AL038013 6050000616610352270DOTHAN                  ALA   080322060A001A46MB 24MB 12UN99 000000
601AL038013 6050000616610352270DOTHAN                  ALA   120322060A001A51MB 30MB 12AQ99 000000
601AL038013 6050000616610352270DOTHAN                  ALA   120405061A002B29MB 00UU 40UN99 000000
601AL038013 6050000616610352270DOTHAN                  ALA   120405061A003B41MW 00UU 12UN99 000000
601AL039008B605000031554036   0JACKSON                 ALA   060322060A001A23MW 35MW 14AQ99 000000
601AL039008B605000031554036   0JACKSON                 ALA   080322060A001A38MW 24MW 12AQ99 000000
601AL039008B605000031554036   0JACKSON                 ALA   080322060A002A58FB 48MB 40WI99 000000
601AL041014 6050000364790392770FLORENCE                ALA   010322060A001A38MW 20MW 12UN03 000000
601AL041014 6050000364790392770FLORENCE                ALA   010417061A002A29MB 34MB 12UN45 000000
601AL041014 6050000364790392770FLORENCE                ALA   010405061A003B48FW 00UU 90UN99 000000
601AL041014 6050000364790392770FLORENCE                ALA   030322060A001A74MW 46MW 40FA45 000000
601AL041014 6050000364790392770FLORENCE                ALA   060322060A001A19MB 23MB 12UN45 000000
601AL042009B6050000280060402101LAWRENCE                ALA   010322060A001A39MW 65MW 14IL45 000000
601AL043014 6050000486430410570AUBURN                  ALA   070322060A001A72MW 00MB 12UN99 000000
601AL043025 6050000236260410570OPELIKA                 ALA   020322060A001A37FB 61MB 12GF99 000000
601AL043025 6050000236260410570OPELIKA                 ALA   040322060A001A14MB 20MB 12AQ18 000000
601AL043025 6050000236260410570OPELIKA                 ALA   040322060A002A40MB 36MB 12BR45 000000
601AL043025 6050000236260410570OPELIKA                 ALA   060405061A001B22MB 00UU 12UN45 000000
601AL043025 6050000236260410570OPELIKA                 ALA   090322060A001A33MW 49MW 12EE44 000000
601AL045009C6050000110460435561LOWNDES                 ALA   090405061A001B31MB 00UU 90UN44 000000
601AL046015 605000011813044   0TUSKEGEE                ALA   050322060A001A42FB 58MB 12WI45 000000
601AL046015 605000011813044   0TUSKEGEE                ALA   060322060A001A20MB 00MB 12UN99 000000
601AL046015 605000011813044   0TUSKEGEE                ALA   080322060A001A08MB 00MB 12OF99 000000
601AL047009B6050000902400453681MADISON                 ALA   010322060A001A33MW 33MW 12AQ99 000000
601AL047009B6050000902400453681MADISON                 ALA   040322060A001A21MB 22MB 12ST99 000000
601AL047009B6050000902400453681MADISON                 ALA   050322060A001A19MB 35MB 40UN99 000000
601AL047009B6050000902400453681MADISON                 ALA   070322060A001A22MW 22MW 20AQ45 000000
601AL047012 6050001651470453680HUNTSVILLE              ALA   010322060A001A32MB 20MB 12SF45 000000
601AL047012 6050001651470453680HUNTSVILLE              ALA   020322060A001A45FW 17MW 90MO45 000000
601AL047012 6050001651470453680HUNTSVILLE              ALA   020323061A002B42MB 00UU 20UN99 000000
601AL047012 6050001651470453680HUNTSVILLE              ALA   020322060A003A09MB 30FB 90UN99 000000
601AL047012 6050001651470453680HUNTSVILLE              ALA   020322060A004A11FB 30FB 90UN99 000000
601AL047012 6050001651470453680HUNTSVILLE              ALA   020322060A005A10FB 30FB 90UN99 000000
601AL047012 6050001651470453680HUNTSVILLE              ALA   020322060A006A11FB 30FB 90DA99 000000
601AL047012 6050001651470453680HUNTSVILLE              ALA   020322060A007A10FB 30FB 90DA99 000000
601AL047012 6050001651470453680HUNTSVILLE              ALA   030323061A001B00FW 00UU 90UN99 000000
601AL047012 6050001651470453680HUNTSVILLE              ALA   050322060A001A32MW 32MB 12UN99 000000
601AL047012 6050001651470453680HUNTSVILLE              ALA   070323061A001B47MB 00UU 12UN45 000000
601AL047012 6050001651470453680HUNTSVILLE              ALA   070323061A002B33FB 00UU 12UN45 000000
601AL047012 6050001651470453680HUNTSVILLE              ALA   080323061A001A27MW 31MW 12ST03 000000
601AL047012 6050001651470453680HUNTSVILLE              ALA   090322060A001A50MB 45FB 20UN99 000000
601AL047012 6050001651470453680HUNTSVILLE              ALA   100322060A001A36FW 22MB 12UN99 000000
601AL047012 6050001651470453680HUNTSVILLE              ALA   100323061A002A37FW 00MW 12WI99 000000
601AL047012 6050001651470453680HUNTSVILLE              ALA   110322060A001A20MB 26MB 12UN45 000000
601AL047012 6050001651470453680HUNTSVILLE              ALA   120322060A001A25FB 26MB 90FR99 000000
601AL047012 6050001651470453680HUNTSVILLE              ALA   120322060A002A73MB 26MB 90FR99 000000
601AL047012 6050001651470453680HUNTSVILLE              ALA   120322060A003A29MB 26MB 90FR99 000000
601AL047012 6050001651470453680HUNTSVILLE              ALA   120322060A004A50MB 26MB 90FR99 000000
601AL047012 6050001651470453680HUNTSVILLE              ALA   120322060A005A26MB 29MB 12AQ45 000000
601AL047024 6050000352260453681MADISON                 ALA   100322060A001A42FW 61FW 90ST99 000000
601AL048008C605000011992046   0MARENGO                 ALA   060322060A001A28MB 41FB 12AQ44 000000
601AL048016 605000007346046   0DEMOPOLIS               ALA   120322060A001A35MB 31MB 12AQ45 000000
601AL050026 605000007688048   0GUNTERSVILLE            ALA   010322060A001A69FW 37FW 20FR45 000000
601AL050026 605000007688048   0GUNTERSVILLE            ALA   060322060A001A34MW 34MW 12IL44 000000
601AL051008C605000015157050   0MONROE                  ALA   030322060A001A58FW 48MW 12GF99 000000
601AL052013 6050000548610522100DECATUR                 ALA   120322060A001A21FB 28MB 12GF45 000000
601AL054008C605000012888054   0PICKENS                 ALA   050322060A001A66FW 00MW 14WI45 000000
601AL054008C605000012888054   0PICKENS                 ALA   050322060A002A32MB 00MB 12AQ45 000000
601AL056008C605000014631056   0RANDOLPH                ALA   060322060A001A53FW 53MW 12WI45 000000
601AL057014 6050000291120571841PHENIX CITY             ALA   030322060A001A28MB 74MW 12EE99 000000
601AL058066 6050000098770580981MOODY                   ALA   100322060A001A27MW 52MW 12AQ99 000000
601AL059009B6050000734680590981SHELBY                  ALA   020322060A001A52FW 45MW 12WI99 000000
601AL059065 6050000182230590981PELHAM                  ALA   090322060A001A33MW 00MW 12UN99 000000
601AL061025 605000017194061   0TALLADEGA               ALA   050405061A001B24MB 00UU 12UN99 000000
601AL061025 605000017194061   0TALLADEGA               ALA   050405061A002B17MB 00UU 12UN99 000000
601AL062015 605000015062062   0ALEXANDER CITY          ALA   010322060A001A49MB 39MB 12FR99 000000
601AL063009B6050000645940639151TUSCALOOSA              ALA   090322060A001A20MW 22MW 12AQ99 000000
601AL063013 6050000806700639150TUSCALOOSA              ALA   010322060A001A24MW 20MW 12ST99 000000
601AL063013 6050000806700639150TUSCALOOSA              ALA   010322060A002A43MB 37MB 90AQ45 000000
601AL063013 6050000806700639150TUSCALOOSA              ALA   030322060A001A45FW 26MB 90ST99 000000
601AL063013 6050000806700639150TUSCALOOSA              ALA   050405061A001B63MB 00UU 90UN99 000000
601AL063013 6050000806700639150TUSCALOOSA              ALA   070405061A001B33MB 00UU 12UN99 000000
601AL063013 6050000806700639150TUSCALOOSA              ALA   080322060A001A43FB 41MB 90ST45 000000
601AL063013 6050000806700639150TUSCALOOSA              ALA   110322060A001A46MW 23MW 90ST99 000000
601AL063025 6050000205760639151NORTHPORT               ALA   050322060A001A20MB 00MB 12UN99 000000
601AL064015 6050000139920640981JASPER                  ALA   030322060A001A51MB 47FB 14HU99 000000
601AL064015 6050000139920640981JASPER                  ALA   050322060A001A78MW 47MW 12FA45 000000
601AL065017 605000000240065   0MCINTOSH                ALA   110322060A001A20MB 22MB 14AQ45 000000
601AL066017 605000002236066   0CAMDEN                  ALA   100405061A001B60FB 00UU 90UN99 000000
601AL067008C605000018082067   0WINSTON                 ALA   090417061A001A04MW 00FW 90SO60 000000
602AZ001057 805000002012001   0SPRINGERVILLE           ARIZ  110206070A001A44FW 38MW 20WI05 000000
602AZ002008B805000049979002   0COCHISE                 ARIZ  051107050A001A21MWN26MWH12FR45 000000
602AZ002008B805000049979002   0COCHISE                 ARIZ  061201050A001A76MWN75FWH12HU60 000000
602AZ002077 805000001944002   0HUACHUCA CITY           ARIZ  020309060A001A47MWN34FWN40HU45 000000
602AZ002094 805000042209002   0SIERRA VISTA            ARIZ  020712050A001A26MWN44FWN12AQ44 000000
602AZ002094 805000042209002   0SIERRA VISTA            ARIZ  051107050A001A31FAN34MWH12GF45 000000
602AZ002094 805000042209002   0SIERRA VISTA            ARIZ  070113060A001A35MWN30MWN12ST60 000000
602AZ002094 805000042209002   0SIERRA VISTA            ARIZ  100309060A001C20MBN29MBN12ST99 000002                                                  22MBN12ST99 26MBN12ST99
602AZ003013 8050000589790032750FLAGSTAFF               ARIZ  051107050A001C33MIN16MIN20AQ45 000001                                                  21MIN20AQ45
602AZ004016 805000007449004   0GLOBE                   ARIZ  080207060A001A37MWH35MWH13AQ44 000000
602AZ007009A8050003073830076621MARICOPA                ARIZ  010614050A001B22MWN00UUU12UN99 000000
602AZ007009A8050003073830076621MARICOPA                ARIZ  010614050A002B68MWH00UUU12UN99 000000
602AZ007009A8050003073830076621MARICOPA                ARIZ  010614050A003C57MWN17MWN30ST03 000003                                                  24MWN30ST03 22FWN30ST03 29MWN30ST03
602AZ007009A8050003073830076621MARICOPA                ARIZ  020712050A001B28MBN00UUU20UN18 000000
602AZ007009A8050003073830076621MARICOPA                ARIZ  020712050A002B42MWN00UUU30UN99 000000
602AZ007009A8050003073830076621MARICOPA                ARIZ  031006050A001A21MWN35MWN30ST45 000000
602AZ007009A8050003073830076621MARICOPA                ARIZ  041025050A001B29MWH00UUU12UN18 000000
602AZ007009A8050003073830076621MARICOPA                ARIZ  061201050A001A22MWH28MWN40ST45 000000
602AZ007009A8050003073830076621MARICOPA                ARIZ  061201050A002B46MWH00UUU12UN99 000000
602AZ007009A8050003073830076621MARICOPA                ARIZ  061201050A003B00MUU00UUU12UN99 000000
602AZ007009A8050003073830076621MARICOPA                ARIZ  070113060A001A74FWN39MWN12MO60 000000
602AZ007009A8050003073830076621MARICOPA                ARIZ  070113060A002B38MBN00UUU12UN99 000000
602AZ007009A8050003073830076621MARICOPA                ARIZ  080207060A001B22MWH00UUU12UN99 000000
602AZ007009A8050003073830076621MARICOPA                ARIZ  100309060A001B00MWN00UUU12UN99 000000
602AZ007009A8050003073830076621MARICOPA                ARIZ  100309060A002B30FWH00UUU12UN99 000000
602AZ007009A8050003073830076621MARICOPA                ARIZ  120404060A001B22MWH00UUU12UN99 000000
602AZ007052 8050002316130076620CHANDLER                ARIZ  041025050A001A26MWH19MWH13ST45 000000
602AZ007052 8050002316130076620CHANDLER                ARIZ  051107050A001A39MIN40MIN30AQ45 000000
602AZ007052 8050002316130076620CHANDLER                ARIZ  070316060B001A18MWH22MWH12AQ51 000000
602AZ007052 8050002316130076620CHANDLER                ARIZ  090218060A001A61FWN53MWN20GF45 000000
602AZ007052 8050002316130076620CHANDLER                ARIZ  090218060A002A37FWN28MWH12AQ18 000000
602AZ007052 8050002316130076620CHANDLER                ARIZ  100309060A001A27MWH18MWH13ST03 000000
602AZ007052 8050002316130076620CHANDLER                ARIZ  100309060A002A46MIN00MWH40ST99 000000
602AZ007052 8050002316130076620CHANDLER                ARIZ  100309060A003A38FWN42MWN14WI45 000000
602AZ007052 8050002316130076620CHANDLER                ARIZ  110316060A001A54FWH54MWH12GF45 000000
602AZ007075 8050000216260076621EL MIRAGE               ARIZ  061201050A001B40MWN00UUU20UN18 000000
602AZ007075 8050000216260076621EL MIRAGE               ARIZ  070113060A001B29FWH00UUU12UN45 000000
602AZ007075 8050000216260076621EL MIRAGE               ARIZ  070113060A002B25MWH00UUU12UN18 000000
602AZ007132 8050002436080076620GLENDALE                ARIZ  010614050A001A49MWN20MBN20SF03 000000
602AZ007132 8050002436080076620GLENDALE                ARIZ  031006050A001A45MWN67MWN14SS45 000000
602AZ007132 8050002436080076620GLENDALE                ARIZ  031006050A002A25MWN29MWN12OF44 000000
602AZ007132 8050002436080076620GLENDALE                ARIZ  061201050A001A19MBN20MWH12ST45 000000
602AZ007132 8050002436080076620GLENDALE                ARIZ  061201050A002A19MWN19MWN12ST45 000000
602AZ007132 8050002436080076620GLENDALE                ARIZ  061201050A003B16MWH00UUU12UN47 000000
602AZ007132 8050002436080076620GLENDALE                ARIZ  061201050A004F39MWH00UUU12UN18 00100042MWH
602AZ007132 8050002436080076620GLENDALE                ARIZ  070113060A001A30MWH42MBN12ST18 000000
602AZ007132 8050002436080076620GLENDALE                ARIZ  070113060A002B27MWH00UUU12UN99 000000
602AZ007132 8050002436080076620GLENDALE                ARIZ  080207060A001B27MWH00UUU12UN99 000000
602AZ007132 8050002436080076620GLENDALE                ARIZ  080207060A002D36MBN53MAN12ST99 00100018MWN
602AZ007132 8050002436080076620GLENDALE                ARIZ  090223061A001E19MW 17MW 12ST42 00200223MW 26MW                                         28MW 12ST42 19MW 12ST42
602AZ007132 8050002436080076620GLENDALE                ARIZ  090218060A002A16MWH37MWH12ST60 000000
602AZ007132 8050002436080076620GLENDALE                ARIZ  100309060A001C29MWH25MWH14AQ18 000001                                                  24MWH12AQ18
602AZ007132 8050002436080076620GLENDALE                ARIZ  110316060A001C22MWN18MBN12AQ18 000002                                                  19MBN12AQ18 20MBN12AQ18
602AZ007171C8050004523400076620MESA                    ARIZ  010614050A001C45MWN25MWN40ST45 000001                                                  23MWN40ST45
602AZ007171C8050004523400076620MESA                    ARIZ  010614050A002A28MWH25MWH20ST45 000000
602AZ007171C8050004523400076620MESA                    ARIZ  031006050A001A49MWN26MWN20ST45 000000
602AZ007171C8050004523400076620MESA                    ARIZ  031006050A002A37FWN28MWN30GF45 000000
602AZ007171C8050004523400076620MESA                    ARIZ  041025050A001A36FWN34MWN20WI45 000000
602AZ007171C8050004523400076620MESA                    ARIZ  051107050A001B30MBN00UUU12UN99 000000
602AZ007171C8050004523400076620MESA                    ARIZ  061201050A001A20MWH30MWN11ST99 000000
602AZ007171C8050004523400076620MESA                    ARIZ  061201050A002A53MWH19MWN30ST60 000000
602AZ007171C8050004523400076620MESA                    ARIZ  061201050A003B20MWH00UUU12UN99 000000
602AZ007171C8050004523400076620MESA                    ARIZ  061201050A004A19MWN37MWN12ST81A000000
602AZ007171C8050004523400076620MESA                    ARIZ  061201050A005A21MWH40MWN12ST81A000000
602AZ007171C8050004523400076620MESA                    ARIZ  070113060A001A22FWN00MBU12UN99 000000
602AZ007171C8050004523400076620MESA                    ARIZ  070113060A002ANBMWH19FWH40SO60 000000
602AZ007171C8050004523400076620MESA                    ARIZ  070113060A003A28MWN32MWN12ST40 000000
602AZ007171C8050004523400076620MESA                    ARIZ  070113060A004BBBFWN00UUU40UN60 000000
602AZ007171C8050004523400076620MESA                    ARIZ  070113060A005B25MWN00UUU12UN99 000000
602AZ007171C8050004523400076620MESA                    ARIZ  070113060A006A45MWN24FWN12HU45 000000
602AZ007171C8050004523400076620MESA                    ARIZ  070113060A007A57MWH37MWN20NE60 000000
602AZ007171C8050004523400076620MESA                    ARIZ  080207060A001A61MWN32MWN12NE60 000000
602AZ007171C8050004523400076620MESA                    ARIZ  080207060A002A23MWH20MWH14ST60 000000
602AZ007171C8050004523400076620MESA                    ARIZ  080207060A003B00MWH00UUU12UN99 000000
602AZ007171C8050004523400076620MESA                    ARIZ  080207060A004A29MWN49MWN12ST60 000000
602AZ007171C8050004523400076620MESA                    ARIZ  090218060A001A22FWN23MWH40GF45 000000
602AZ007171C8050004523400076620MESA                    ARIZ  090218060A002B43MBN00UUU12UN99 000000
602AZ007171C8050004523400076620MESA                    ARIZ  100309060A001C34MWH00MWH12ST45 000001                                                  00MWH12ST45
602AZ007171C8050004523400076620MESA                    ARIZ  100309060A002A52MWN00MUU12ST99 000000
602AZ007171C8050004523400076620MESA                    ARIZ  100309060A003A22MBN40MWN12ST80E000000
602AZ007171C8050004523400076620MESA                    ARIZ  120417061A001A23MB 15MB 14OF60 000000
602AZ007171C8050004523400076620MESA                    ARIZ  120417061A002B19MW 00UU 14UN99 000000
602AZ007171C8050004523400076620MESA                    ARIZ  120417061A003B37MW 00UU 12UN99 000000
602AZ007171C8050004523400076620MESA                    ARIZ  120417061A004C22MW 18MW 12ST45 000001                                                  27MB 12ST45
602AZ007171C8050004523400076620MESA                    ARIZ  120417061A005B31MW 00UU 20UN99 000000
602AZ007212 8050001369950076620PEORIA                  ARIZ  120404060A001A21MWH27MBN12AQ18 000000
602AZ007212 8050001369950076620PEORIA                  ARIZ  120404060A002A27MBN30MWN12ST81A000000
602AZ007231A8050014662960076620PHOENIX                 ARIZ  010614050A001B45MWN00UUU80UN99 000000
602AZ007231A8050014662960076620PHOENIX                 ARIZ  010614050A002A01MBN25MBN40OK41 000000
602AZ007231A8050014662960076620PHOENIX                 ARIZ  010614050A003B28MWH00UUU12UN18 000000
602AZ007231A8050014662960076620PHOENIX                 ARIZ  010614050A004A31MWH00MWH12ST60 000000
602AZ007231A8050014662960076620PHOENIX                 ARIZ  010614050A005A24FIN23MWN11AQ02 000000
602AZ007231A8050014662960076620PHOENIX                 ARIZ  010614050A006A56MWN00MWN40AQ42 000000
602AZ007231A8050014662960076620PHOENIX                 ARIZ  010614050A007A15FWH19MWN12GF45 000000
602AZ007231A8050014662960076620PHOENIX                 ARIZ  010614050A008A30MWH21MWN12ST99 000000
602AZ007231A8050014662960076620PHOENIX                 ARIZ  010614050A009A24MWN00MWH13ST03 000000
602AZ007231A8050014662960076620PHOENIX                 ARIZ  010614050A010B27MWH00UUU12UN99 000000
602AZ007231A8050014662960076620PHOENIX                 ARIZ  010614050A011B42MWH00UUU12UN99 000000
602AZ007231A8050014662960076620PHOENIX                 ARIZ  010614050A012B51MWH00UUU20UN18 000000
602AZ007231A8050014662960076620PHOENIX                 ARIZ  010614050A013A29MWH00MWH12ST99 000000
602AZ007231A8050014662960076620PHOENIX                 ARIZ  010614050A014A27MWH00MWH12ST99 000000
602AZ007231A8050014662960076620PHOENIX                 ARIZ  010614050A015A28FWH00MWH12ST99 000000
602AZ007231A8050014662960076620PHOENIX                 ARIZ  010614050A016A17MWH00MWH12ST99 000000
602AZ007231A8050014662960076620PHOENIX                 ARIZ  010614050B017A24FWN18MWN12GF53 000000
602AZ007231A8050014662960076620PHOENIX                 ARIZ  010614050B018A14MBN16MBN12FR52 000000
602AZ007231A8050014662960076620PHOENIX                 ARIZ  020712050A001A30MBN18MBN12AQ60 000000
602AZ007231A8050014662960076620PHOENIX                 ARIZ  020712050A002A19MWH00MWH12ST45 000000
602AZ007231A8050014662960076620PHOENIX                 ARIZ  020712050A003D19MBN23MBN12AQ18 00100023MWH
602AZ007231A8050014662960076620PHOENIX                 ARIZ  020712050A004C32MWH00MWH12ST03 000003                                                  00MWH12ST03 26MWH12ST03 26MWH12ST03
602AZ007231A8050014662960076620PHOENIX                 ARIZ  020712050A005A27MBN52MBN20AQ18 000000
602AZ007231A8050014662960076620PHOENIX                 ARIZ  020712050A006A21MWN21MWN12AQ60 000000
602AZ007231A8050014662960076620PHOENIX                 ARIZ  020712050A007A41MWH29MWN20BF45 000000
602AZ007231A8050014662960076620PHOENIX                 ARIZ  020712050A008A28MWH00MUU12UN99 000000
602AZ007231A8050014662960076620PHOENIX                 ARIZ  020712050A009B19MWH00UUU12UN99 000000
602AZ007231A8050014662960076620PHOENIX                 ARIZ  020712050A010F54MWN00UUU12UN99 00100050FWH
602AZ007231A8050014662960076620PHOENIX                 ARIZ  020712050A011B00MUU00UUU12UN99 000000
602AZ007231A8050014662960076620PHOENIX                 ARIZ  020712050A012F20MWH00UUU13UN60 00100019MWH
602AZ007231A8050014662960076620PHOENIX                 ARIZ  020712050A013A21MWH17MWH12NE80E000000
602AZ007231A8050014662960076620PHOENIX                 ARIZ  020712050A014A20MBN25MWN12ST80E000000
602AZ007231A8050014662960076620PHOENIX                 ARIZ  031006050A001A24MWH21FWH14ST03 000000
602AZ007231A8050014662960076620PHOENIX                 ARIZ  031006050A002C48MWN00FWH40ST99 000002                                                  00MWH40ST99 00MWH40ST99
602AZ007231A8050014662960076620PHOENIX                 ARIZ  031006050A003A36FWN00MWH12ST60 000000
602AZ007231A8050014662960076620PHOENIX                 ARIZ  031006050A004A29MWH00MWH12UN99 000000
602AZ007231A8050014662960076620PHOENIX                 ARIZ  031006050A005F26MWH00UUU12UN99 00100031MWH
602AZ007231A8050014662960076620PHOENIX                 ARIZ  031006050A006A16MWH46MWN12AQ18 000000
602AZ007231A8050014662960076620PHOENIX                 ARIZ  031006050A007A24MWH23MWH12FR45 000000
602AZ007231A8050014662960076620PHOENIX                 ARIZ  031006050A008A22MWH00MWH12ST99 000000
602AZ007231A8050014662960076620PHOENIX                 ARIZ  031006050A009B20MWH00UUU12UN99 000000
602AZ007231A8050014662960076620PHOENIX                 ARIZ  031006050A010B19MWH00UUU12UN99 000000
602AZ007231A8050014662960076620PHOENIX                 ARIZ  031006050A011A16MWH00MWH13UN99 000000
602AZ007231A8050014662960076620PHOENIX                 ARIZ  031006050A012A33MWH00MWH13AQ18 000000
602AZ007231A8050014662960076620PHOENIX                 ARIZ  031006050A013B27MWH00UUU11UN99 000000
602AZ007231A8050014662960076620PHOENIX                 ARIZ  031006050A014A24MWH00MWH12UN03 000000
602AZ007231A8050014662960076620PHOENIX                 ARIZ  031006050A015A20FWH00MBN12UN99 000000
602AZ007231A8050014662960076620PHOENIX                 ARIZ  031006050A016C35MAN26MWN12ST81A000001                                                  32MWN12ST81A
602AZ007231A8050014662960076620PHOENIX                 ARIZ  031006050B017A42FAN34MAN70SI59 000000
602AZ007231A8050014662960076620PHOENIX                 ARIZ  041025050A001A64MAN35MIN40ST60 000000
602AZ007231A8050014662960076620PHOENIX                 ARIZ  041025050A002C19MWH19MWH13ST60 000001                                                  24MBN13ST60
602AZ007231A8050014662960076620PHOENIX                 ARIZ  041025050A003A22MWH18MWN12ST45 000000
602AZ007231A8050014662960076620PHOENIX                 ARIZ  041025050A004A49FWH41MWH12XW45 000000
602AZ007231A8050014662960076620PHOENIX                 ARIZ  041025050A005B40MWN00UUU20UN99 000000
602AZ007231A8050014662960076620PHOENIX                 ARIZ  041116051A006D29MB 00MW 12UN18 00100030MB
602AZ007231A8050014662960076620PHOENIX                 ARIZ  041025050A007B38MWH00UUU12UN99 000000
602AZ007231A8050014662960076620PHOENIX                 ARIZ  041025050A008C41MWH00MBN12AQ60 000002                                                  00MBN12AQ60 00MBN12AQ60
602AZ007231A8050014662960076620PHOENIX                 ARIZ  041025050A009B31MBN00UUU12UN99 000000
602AZ007231A8050014662960076620PHOENIX                 ARIZ  041025050A010A52MBN29MBN40AQ45 000000
602AZ007231A8050014662960076620PHOENIX                 ARIZ  041025050A011D22MWH25MWH12AQ45 00100025MWH
602AZ007231A8050014662960076620PHOENIX                 ARIZ  041025050A012B25MWH00UUU14UN99 000000
602AZ007231A8050014662960076620PHOENIX                 ARIZ  041025050A013A23MWH23MWH12ST45 000000
602AZ007231A8050014662960076620PHOENIX                 ARIZ  041025050A014B52MWH00UUU11UN99 000000
602AZ007231A8050014662960076620PHOENIX                 ARIZ  041025050A015A24MWH22MWH13AQ60 000000
602AZ007231A8050014662960076620PHOENIX                 ARIZ  041025050A016B19FWH00UUU40AQ02 000000
602AZ007231A8050014662960076620PHOENIX                 ARIZ  041025050A017A35MWH00MWH12AQ60 000000
602AZ007231A8050014662960076620PHOENIX                 ARIZ  041025050A018A42MWN40MWN20AQ45 000000
602AZ007231A8050014662960076620PHOENIX                 ARIZ  041025050A019A41MBN27MWH20ST60 000000
602AZ007231A8050014662960076620PHOENIX                 ARIZ  041025050A020B38MIN00UUU20UN99 000000
602AZ007231A8050014662960076620PHOENIX                 ARIZ  041025050A021A21MWH32MWN12ST81B000000
602AZ007231A8050014662960076620PHOENIX                 ARIZ  041025050A022A22MWH18MWH12BR80E000000
602AZ007231A8050014662960076620PHOENIX                 ARIZ  051107050A001A19MWN26MWN30AQ43 000000
602AZ007231A8050014662960076620PHOENIX                 ARIZ  051107050A002A50MWN57MWN12AQ40 000000
602AZ007231A8050014662960076620PHOENIX                 ARIZ  051107050A003D32MWH25MWH12AQ18 00100033MWH
602AZ007231A8050014662960076620PHOENIX                 ARIZ  051107050A004B23MBN00UUU20UN99 000000
602AZ007231A8050014662960076620PHOENIX                 ARIZ  051107050A005B34MWH00UUU30UN99 000000
602AZ007231A8050014662960076620PHOENIX                 ARIZ  051107050A006C48MWH18MWN12ST60 000001                                                  27MWN12ST60
602AZ007231A8050014662960076620PHOENIX                 ARIZ  051107050A008B38MWH00UUU12UN99 000000
602AZ007231A8050014662960076620PHOENIX                 ARIZ  051107050A009B21MBN00UUU12UN99 000000
602AZ007231A8050014662960076620PHOENIX                 ARIZ  051107050A010B47MWH00UUU12UN99 000000
602AZ007231A8050014662960076620PHOENIX                 ARIZ  051107050A011A32MWH00MWH12AQ40 000000
602AZ007231A8050014662960076620PHOENIX                 ARIZ  051107050A012B41MWH00UUU13UN99 000000
602AZ007231A8050014662960076620PHOENIX                 ARIZ  051107050A013A31MWH00MWH12ST60 000000
602AZ007231A8050014662960076620PHOENIX                 ARIZ  051107050A014A24MWH23MWH13ST60 000000
602AZ007231A8050014662960076620PHOENIX                 ARIZ  051107050A015B45MWN00UUU11UN45 000000
602AZ007231A8050014662960076620PHOENIX                 ARIZ  051107050A016B47FWN00UUU11UN99 000000
602AZ007231A8050014662960076620PHOENIX                 ARIZ  051107050A017B00MUU00UUU65UN99 000000
602AZ007231A8050014662960076620PHOENIX                 ARIZ  051107050A018A20MWH28MBN12AQ18 000000
602AZ007231A8050014662960076620PHOENIX                 ARIZ  051107050A019C53FWN15MWH20ST03 000001                                                  14MBN20ST03
602AZ007231A8050014662960076620PHOENIX                 ARIZ  051107050A020B56MWN00UUU12UN99 000000
602AZ007231A8050014662960076620PHOENIX                 ARIZ  051107050A021C22MWH29MWN12ST81A000001                                                  34MWH12ST81A
602AZ007231A8050014662960076620PHOENIX                 ARIZ  061201050A001A38MIN27FBN20ST45 000000
602AZ007231A8050014662960076620PHOENIX                 ARIZ  061201050A002F36MWH00UUU12UN99 00100028MWH
602AZ007231A8050014662960076620PHOENIX                 ARIZ  061201050A003A30MWH17MWH12AQ03 000000
602AZ007231A8050014662960076620PHOENIX                 ARIZ  061201050A004B38MWH00UUU12UN99 000000
602AZ007231A8050014662960076620PHOENIX                 ARIZ  061201050A005B29MWH00UUU12UN99 000000
602AZ007231A8050014662960076620PHOENIX                 ARIZ  061201050A006B19MWH00UUU12UN99 000000
602AZ007231A8050014662960076620PHOENIX                 ARIZ  061201050A007A42MWH26MWH20ST45 000000
602AZ007231A8050014662960076620PHOENIX                 ARIZ  061201050A008A20MWH27MWH13AQ60 000000
602AZ007231A8050014662960076620PHOENIX                 ARIZ  061201050A009A02MWN27MWH40OK60 000000
602AZ007231A8050014662960076620PHOENIX                 ARIZ  061201050A010A21MWH00MWH12AQ44 000000
602AZ007231A8050014662960076620PHOENIX                 ARIZ  061201050A011A73MWN57FWN12HU60 000000
602AZ007231A8050014662960076620PHOENIX                 ARIZ  061201050A012A24MWH00MWH12AQ60 000000
602AZ007231A8050014662960076620PHOENIX                 ARIZ  061201050A013A10MWH35MWH40SO60 000000
602AZ007231A8050014662960076620PHOENIX                 ARIZ  061201050A014A32MWH00MWH12ST45 000000
602AZ007231A8050014662960076620PHOENIX                 ARIZ  061201050A015A84FWN85MWN12WI60 000000
602AZ007231A8050014662960076620PHOENIX                 ARIZ  070113060A001A27MWN00MBN14ST03 000000
602AZ007231A8050014662960076620PHOENIX                 ARIZ  070113060A002A21MWH00MWH12ST45 000000
602AZ007231A8050014662960076620PHOENIX                 ARIZ  070113060A003A18MWN00MWH12UN45 000000
602AZ007231A8050014662960076620PHOENIX                 ARIZ  070113060A004B27MWH00UUU20UN99 000000
602AZ007231A8050014662960076620PHOENIX                 ARIZ  070113060A005F24MWH00UUU12UN99 00100029MWH
602AZ007231A8050014662960076620PHOENIX                 ARIZ  070113060A006A33MWH00MBN12ST03 000000
602AZ007231A8050014662960076620PHOENIX                 ARIZ  070113060A007A23MWH00MBN12ST45 000000
602AZ007231A8050014662960076620PHOENIX                 ARIZ  070113060A008B22MWH00UUU12UN18 000000
602AZ007231A8050014662960076620PHOENIX                 ARIZ  070113060A009B35MWH00UUU12UN18 000000
602AZ007231A8050014662960076620PHOENIX                 ARIZ  070113060A010B18MWN00UUU11UN03 000000
602AZ007231A8050014662960076620PHOENIX                 ARIZ  070113060A011A56FWN56MWN85GF45 000000
602AZ007231A8050014662960076620PHOENIX                 ARIZ  070113060A012A31MBN21MWH12ST45 000000
602AZ007231A8050014662960076620PHOENIX                 ARIZ  070113060A013B57MWN00UUU30UN99 000000
602AZ007231A8050014662960076620PHOENIX                 ARIZ  070113060A014A27MWH32MWH12ST60 000000
602AZ007231A8050014662960076620PHOENIX                 ARIZ  070113060A015A49MWN37FWN12HU45 000000
602AZ007231A8050014662960076620PHOENIX                 ARIZ  070113060A016A40MWH23MWH12ST81A000000
602AZ007231A8050014662960076620PHOENIX                 ARIZ  070113060A017C30MWN33MWN12ST81A000001                                                  43MWN12ST81A
602AZ007231A8050014662960076620PHOENIX                 ARIZ  070113060A018A57MBN23MBN12AQ80C000000
602AZ007231A8050014662960076620PHOENIX                 ARIZ  080207060A001B53MWN00UUU12UN99 000000
602AZ007231A8050014662960076620PHOENIX                 ARIZ  080207060A002A20FWH27MWH80GF45 000000
602AZ007231A8050014662960076620PHOENIX                 ARIZ  080207060A003A24MWH00MBN11ST60 000000
602AZ007231A8050014662960076620PHOENIX                 ARIZ  080207060A004A31MWH53MWH40AQ42 000000
602AZ007231A8050014662960076620PHOENIX                 ARIZ  080207060A005B16MWH00UUU11UN99 000000
602AZ007231A8050014662960076620PHOENIX                 ARIZ  080207060A006A23FWH32MWH12FR45 000000
602AZ007231A8050014662960076620PHOENIX                 ARIZ  080207060A007D31MWH00MWH12UN99 00100030MWH
602AZ007231A8050014662960076620PHOENIX                 ARIZ  080207060A008F29MBN00UUU12UN18 00100036MBN
602AZ007231A8050014662960076620PHOENIX                 ARIZ  080207060A009A25MWN00MWH12ST03 000000
602AZ007231A8050014662960076620PHOENIX                 ARIZ  080207060A010A33FBN31MBN12AQ45 000000
602AZ007231A8050014662960076620PHOENIX                 ARIZ  080207060A011A45FWH65MWH20CW45 000000
602AZ007231A8050014662960076620PHOENIX                 ARIZ  080207060A012A33MBN20MBN12ST45 000000
602AZ007231A8050014662960076620PHOENIX                 ARIZ  080207060A013D21MWH00MUU12AQ60 00100026FWH
602AZ007231A8050014662960076620PHOENIX                 ARIZ  080207060A014A16MBN16MBN12ST45 000000
602AZ007231A8050014662960076620PHOENIX                 ARIZ  080207060A015A50MWH00MWH12ST26 000000
602AZ007231A8050014662960076620PHOENIX                 ARIZ  080207060A016A29MIN00MWH12ST99 000000
602AZ007231A8050014662960076620PHOENIX                 ARIZ  080207060A017B24MWH00UUU12UN99 000000
602AZ007231A8050014662960076620PHOENIX                 ARIZ  080207060A018A23MWH50MWH12SS80C000000
602AZ007231A8050014662960076620PHOENIX                 ARIZ  080207060B019A20MWH26MWH12AQ53 000000
602AZ007231A8050014662960076620PHOENIX                 ARIZ  090218060A001C17MWN20FWN80AQ18 000002                                                  26MWN80AQ18 30MWN80AQ18
602AZ007231A8050014662960076620PHOENIX                 ARIZ  090218060A002A18MWH19MWH12AQ45 000000
602AZ007231A8050014662960076620PHOENIX                 ARIZ  090218060A003A32MWH21MWH12AQ03 000000
602AZ007231A8050014662960076620PHOENIX                 ARIZ  090218060A004A42MBN20MWN14ST45 000000
602AZ007231A8050014662960076620PHOENIX                 ARIZ  090218060A005A22MWH20MWH12ST60 000000
602AZ007231A8050014662960076620PHOENIX                 ARIZ  090218060A006A63MWN47FWN80FR03 000000
602AZ007231A8050014662960076620PHOENIX                 ARIZ  090218060A007A30MWH00MWH12ST99 000000
602AZ007231A8050014662960076620PHOENIX                 ARIZ  090218060A008A21MWH00MBN12ST18 000000
602AZ007231A8050014662960076620PHOENIX                 ARIZ  090218060A009A59MWN57MWN12BR45 000000
602AZ007231A8050014662960076620PHOENIX                 ARIZ  090218060A011A28MWH17MBN20ST06 000000
602AZ007231A8050014662960076620PHOENIX                 ARIZ  090218060A012A28MWH20MWH12ST99 000000
602AZ007231A8050014662960076620PHOENIX                 ARIZ  090218060A013B28MWH00UUU12UN99 000000
602AZ007231A8050014662960076620PHOENIX                 ARIZ  090218060A014D60FWN32MAN13AQ70 00100066MWN
602AZ007231A8050014662960076620PHOENIX                 ARIZ  090218060A015A29MWH20MWH12ST45 000000
602AZ007231A8050014662960076620PHOENIX                 ARIZ  090218060A016C31MWH15MWH20NE45 000002                                                  19MWH20NE45 30FWH20NE45
602AZ007231A8050014662960076620PHOENIX                 ARIZ  090218060A017A20MWH24MWH12ST80C000000
602AZ007231A8050014662960076620PHOENIX                 ARIZ  100309060A001A18MWH00MWH14ST45 000000
602AZ007231A8050014662960076620PHOENIX                 ARIZ  100309060A002A44MWH00MBN12ST03 000000
602AZ007231A8050014662960076620PHOENIX                 ARIZ  100309060A003D19MWH00MWH12ST60 00100022MWH
602AZ007231A8050014662960076620PHOENIX                 ARIZ  100309060A004A21MWH12MWH12AQ03 000000
602AZ007231A8050014662960076620PHOENIX                 ARIZ  100309060A005A32MBN00MBN12ST45 000000
602AZ007231A8050014662960076620PHOENIX                 ARIZ  100309060A006A38MBN22MWH12ST03 000000
602AZ007231A8050014662960076620PHOENIX                 ARIZ  100309060A007C22MWH00MUU12UN99 000001                                                  00MWN12UN99
602AZ007231A8050014662960076620PHOENIX                 ARIZ  100309060A008A44MWN00MWH12ST44 000000
602AZ007231A8050014662960076620PHOENIX                 ARIZ  100309060A009A14MWH00MWH12ST60 000000
602AZ007231A8050014662960076620PHOENIX                 ARIZ  100309060A010A17FWN00MBN12ST45 000000
602AZ007231A8050014662960076620PHOENIX                 ARIZ  100309060A011C31MWH16MWH13ST60 000002                                                  18MWH13ST60 21MWH13ST60
602AZ007231A8050014662960076620PHOENIX                 ARIZ  100309060A012A18MWH30MWH12IL42 000000
602AZ007231A8050014662960076620PHOENIX                 ARIZ  100309060A013B27MWH00UUU14UN99 000000
602AZ007231A8050014662960076620PHOENIX                 ARIZ  100309060A014B40MWN00UUU12UN99 000000
602AZ007231A8050014662960076620PHOENIX                 ARIZ  100309060A015A36FWN00MWH40AQ99 000000
602AZ007231A8050014662960076620PHOENIX                 ARIZ  100309060A016C19MWH31MWN12ST81A000001                                                  30MWN12ST81A
602AZ007231A8050014662960076620PHOENIX                 ARIZ  110316060A001A21MWH00MWH12ST45 000000
602AZ007231A8050014662960076620PHOENIX                 ARIZ  110327061A002D17MW 16MW 13AQ03 00100017MW
602AZ007231A8050014662960076620PHOENIX                 ARIZ  110316060A003A32MWH22MWH12AQ45 000000
602AZ007231A8050014662960076620PHOENIX                 ARIZ  110316060A004A38MWN24MWH12AQ60 000000
602AZ007231A8050014662960076620PHOENIX                 ARIZ  110316060A005A36MBN22MBN12ST42 000000
602AZ007231A8050014662960076620PHOENIX                 ARIZ  110316060A006A33MBN00MBN12ST99 000000
602AZ007231A8050014662960076620PHOENIX                 ARIZ  110316060A007B46MBN00UUU14UN99 000000
602AZ007231A8050014662960076620PHOENIX                 ARIZ  110316060A008A32MWH22FWN20FR45 000000
602AZ007231A8050014662960076620PHOENIX                 ARIZ  110316060A009A22MWH00MBN14UN03 000000
602AZ007231A8050014662960076620PHOENIX                 ARIZ  110316060A010A23MWH21MWN20AQ45 000000
602AZ007231A8050014662960076620PHOENIX                 ARIZ  110316060A011A30MWH29MWH12AQ99 000000
602AZ007231A8050014662960076620PHOENIX                 ARIZ  110316060A012A19MWH45MWH12ST45 000000
602AZ007231A8050014662960076620PHOENIX                 ARIZ  110316060A013C31MWH29MWH12ST03 000002                                                  22MWH12ST03 20MWH12ST03
602AZ007231A8050014662960076620PHOENIX                 ARIZ  110316060A014A19MWH18MWH12ST45 000000
602AZ007231A8050014662960076620PHOENIX                 ARIZ  110316060A015C53MBN23MWN12ST81A000001                                                  32MWN12ST81A
602AZ007231A8050014662960076620PHOENIX                 ARIZ  110316060A016A00MWN43MWN12ST81A000000
602AZ007231A8050014662960076620PHOENIX                 ARIZ  120404060A001A30MWH00MWH12ST99 000000
602AZ007231A8050014662960076620PHOENIX                 ARIZ  120404060A002A27MWH00MWH12ST99 000000
602AZ007231A8050014662960076620PHOENIX                 ARIZ  120404060A003A21MWH26MWH12AQ99 000000
602AZ007231A8050014662960076620PHOENIX                 ARIZ  120404060A004B51MWN00UUU30UN99 000000
602AZ007231A8050014662960076620PHOENIX                 ARIZ  120404060A005B20MWH00UUU12UN99 000000
602AZ007231A8050014662960076620PHOENIX                 ARIZ  120404060A006A39MWH30MWH12OF45 000000
602AZ007231A8050014662960076620PHOENIX                 ARIZ  120404060A007A30MWH27MWH12AQ45 000000
602AZ007231A8050014662960076620PHOENIX                 ARIZ  120404060A008B18MWH00UUU80UN99 000000
602AZ007231A8050014662960076620PHOENIX                 ARIZ  120404060A009A33FBN75MBN12WI45 000000
602AZ007231A8050014662960076620PHOENIX                 ARIZ  120404060A010B31MWH00UUU11UN18 000000
602AZ007231A8050014662960076620PHOENIX                 ARIZ  120404060A011A24FWH22MWH12GF45 000000
602AZ007231A8050014662960076620PHOENIX                 ARIZ  120404060A012A39FBN00MUU12ST03 000000
602AZ007231A8050014662960076620PHOENIX                 ARIZ  120404060A013A18MWH00MWH12ST60 000000
602AZ007231A8050014662960076620PHOENIX                 ARIZ  120404060A014B28MWH00UUU11UN99 000000
602AZ007231A8050014662960076620PHOENIX                 ARIZ  120404060A015B30MWH00UUU14UN99 000000
602AZ007231A8050014662960076620PHOENIX                 ARIZ  120404060A016B20MWH00UUU12UN99 000000
602AZ007231A8050014662960076620PHOENIX                 ARIZ  120404060A017B37MWH00UUU11UN03 000000
602AZ007231A8050014662960076620PHOENIX                 ARIZ  120404060A018B32MWH00UUU12UN99 000000
602AZ007231A8050014662960076620PHOENIX                 ARIZ  120404060A019C32MWH27FWN12ST18 000001                                                  35MWH12ST18
602AZ007231A8050014662960076620PHOENIX                 ARIZ  120404060A020B27MWH00UUU11UN99 000000
602AZ007231A8050014662960076620PHOENIX                 ARIZ  120404060A021A18MWH00MWH11ST60 000000
602AZ007231A8050014662960076620PHOENIX                 ARIZ  120404060A022A49MWH19MWH12SF45 000000
602AZ007231A8050014662960076620PHOENIX                 ARIZ  120404060A023C18MWN37MBN12ST03 000002                                                  41MBN12ST03 56FBN12ST03
602AZ007231A8050014662960076620PHOENIX                 ARIZ  120404060A024B42FBN00UUU90UN99 000000
602AZ007231A8050014662960076620PHOENIX                 ARIZ  120404060A025B25MWH00UUU11UN99 000000
602AZ007231A8050014662960076620PHOENIX                 ARIZ  120404060A026F28MWH00UUU90UN99 00100000MWH
602AZ007231A8050014662960076620PHOENIX                 ARIZ  120404060A027F28MWH00UUU11UN99 00100044MWH
602AZ007231A8050014662960076620PHOENIX                 ARIZ  120404060A028B45MBN00UUU12UN99 000000
602AZ007231A8050014662960076620PHOENIX                 ARIZ  120404060A029A26FWH24MWH12XW45 000000
602AZ007252 8050002293390076620SCOTTSDALE              ARIZ  031006050A001A75FWN78MWN12WI60 000000
602AZ007252 8050002293390076620SCOTTSDALE              ARIZ  031006050A002A21MWH17MWH20ST45 000000
602AZ007252 8050002293390076620SCOTTSDALE              ARIZ  031006050A003A25MBN21MBN12ST45 000000
602AZ007252 8050002293390076620SCOTTSDALE              ARIZ  080207060A001A64FBN46FBN12OK60 000000
602AZ007252 8050002293390076620SCOTTSDALE              ARIZ  090218060B001A04FWN34FWN90DA59 000000
602AZ007273 8050000627510076620SURPRISE                ARIZ  011006050A001B44MWH00UUU12UN99 000000
602AZ007292 8050001661440076620TEMPE                   ARIZ  011006050A001ABBMWN21FWN85OK41 000000
602AZ007292 8050001661440076620TEMPE                   ARIZ  080207060A001D32MBN43MBN12ST40 00100021FWN
602AZ007292 8050001661440076620TEMPE                   ARIZ  090218060A001B19FWN00UUU12UN99 000000
602AZ007316 8050000061500076621TOLLESON                ARIZ  021006050A001A25FWH25MBN12OK45 000000
602AZ007316 8050000061500076621TOLLESON                ARIZ  060404060A001B20MWH00UUU13UN99 000000
602AZ008008B805000062958008   0MOHAVE                  ARIZ  011006050A001A31MWN22MWH12AQ44 000000
602AZ008008B805000062958008   0MOHAVE                  ARIZ  041025050A001A58MWN26MWN12FA45 000000
602AZ008008B805000062958008   0MOHAVE                  ARIZ  050113060A001A02FWN23MWN40OK60 000000
602AZ008008B805000062958008   0MOHAVE                  ARIZ  050113060A002A61MWN26MWN12FR45 000000
602AZ008008B805000062958008   0MOHAVE                  ARIZ  060113060A001D34FWN43MWN12GF45 00100045MWN
602AZ008008B805000062958008   0MOHAVE                  ARIZ  070113060A001C19FWN16FIN12FR99 000001                                                  23MWN12FR99
602AZ008008B805000062958008   0MOHAVE                  ARIZ  090218060A001C74MWN29MWN12ST05 000001                                                  48FIN12OK05
602AZ008008B805000062958008   0MOHAVE                  ARIZ  100309060A001C37MWN26MWN40OK60 000003                                                  37MWN40OK60 36MWN40OK60 33MWN40OK60
602AZ008008B805000062958008   0MOHAVE                  ARIZ  100309060A002A26MWN22MWH12FR60 000000
602AZ008008B805000062958008   0MOHAVE                  ARIZ  120404060A001A37MWN59MWN12ST06 000000
602AZ008043 805000055014008   0LAKE HAVASU CITY        ARIZ  051201050A001A19MWN20MWN14AQ60 000000
602AZ008043 805000055014008   0LAKE HAVASU CITY        ARIZ  051201050A002A01MWH19MWH40OK60 000000
602AZ008043 805000055014008   0LAKE HAVASU CITY        ARIZ  090218060A001A39FWN55MWN12GF45 000000
602AZ009008B805000071838009   0NAVAJO                  ARIZ  061201050A001B61MWN00UUU30UN99 000000
602AZ010009A8050003349190109061PIMA                    ARIZ  021025050A001A36FWN38FWN14AQ40 000000
602AZ010009A8050003349190109061PIMA                    ARIZ  031201050A001A38MWH20MWN12AQ44 000000
602AZ010009A8050003349190109061PIMA                    ARIZ  031201050A002B26MWH00UUU12UN99 000000
602AZ010009A8050003349190109061PIMA                    ARIZ  041201050A001A40FWH41MWH12WI45 000000
602AZ010009A8050003349190109061PIMA                    ARIZ  041201050A002A54MWN39MIN13AQ40 000000
602AZ010009A8050003349190109061PIMA                    ARIZ  041201050A003D72FWN20MWN20OF45 00100076MWN
602AZ010009A8050003349190109061PIMA                    ARIZ  041201050A004A27MWN18MWH12AQ18 000000
602AZ010009A8050003349190109061PIMA                    ARIZ  041201050A005B31MWH00UUU12UN18 000000
602AZ010009A8050003349190109061PIMA                    ARIZ  070113060A001A21MWH44MWH12OF42 000000
602AZ010009A8050003349190109061PIMA                    ARIZ  070113060A002B24MWH00UUU90UN99 000000
602AZ010009A8050003349190109061PIMA                    ARIZ  090218060A001A48MWN45MWN20ST45 000000
602AZ010009A8050003349190109061PIMA                    ARIZ  090218060A002A19MWH18MWH12ST45 000000
602AZ010009A8050003349190109061PIMA                    ARIZ  100309060A001B31MWN00UUU12UN18 000000
602AZ010009A8050003349190109061PIMA                    ARIZ  100309060A002B22MAN00UUU12UN99 000000
602AZ010009A8050003349190109061PIMA                    ARIZ  100309060A003B44MWH00UUU40UN99 000000
602AZ010009A8050003349190109061PIMA                    ARIZ  110316060A001F23MWH00UUU12UN18 00200027MWH42MWH
602AZ010009A8050003349190109061PIMA                    ARIZ  110316060A002B24MWH00UUU12UN60 000000
602AZ010016 8050000057530109061SOUTH TUCSON            ARIZ  090218060A001A21FIN22MIN12AQ45 000000
602AZ010031B8050005294470109060TUCSON                  ARIZ  010614050A001A16MIN27MWH12AQ45 000000
602AZ010031B8050005294470109060TUCSON                  ARIZ  010614050A002C28MWN21MWN40AQ45 000002                                                  36FWH40AQ45 41MWN40AQ45
602AZ010031B8050005294470109060TUCSON                  ARIZ  010614050A003A51FWN29MWH20FR60 000000
602AZ010031B8050005294470109060TUCSON                  ARIZ  010614050A004B21MWN00UUU12UN99 000000
602AZ010031B8050005294470109060TUCSON                  ARIZ  010614050A005B22MWH00UUU12ST03 000000
602AZ010031B8050005294470109060TUCSON                  ARIZ  021006050A001B20MBN00UUU90UN99 000000
602AZ010031B8050005294470109060TUCSON                  ARIZ  031006050A001F30MBN00UUU90ST18 00100049MBN
602AZ010031B8050005294470109060TUCSON                  ARIZ  031006050A002B49MUU00UUU12ST18 000000
602AZ010031B8050005294470109060TUCSON                  ARIZ  031006050A003A30MWH27MBN12AQ60 000000
602AZ010031B8050005294470109060TUCSON                  ARIZ  041025050A001C19MWH18MWH20AQ46 000002                                                  18MWH20AQ46 18MWH20AQ46
602AZ010031B8050005294470109060TUCSON                  ARIZ  041025050A002B23MWH00UUU12AQ18 000000
602AZ010031B8050005294470109060TUCSON                  ARIZ  041025050A003A33MWH38MWH12AQ18 000000
602AZ010031B8050005294470109060TUCSON                  ARIZ  041025050A004A15MWH17MIN12FR60 000000
602AZ010031B8050005294470109060TUCSON                  ARIZ  051107050A001B49MWN00UUU30UN99 000000
602AZ010031B8050005294470109060TUCSON                  ARIZ  051107050A002A01FWH37MWH40AQ41 000000
602AZ010031B8050005294470109060TUCSON                  ARIZ  051107050A003A18MWN15MWH12AQ60 000000
602AZ010031B8050005294470109060TUCSON                  ARIZ  051107050A004C23MBN19MBN12AQ45 000001                                                  19MBN12AQ45
602AZ010031B8050005294470109060TUCSON                  ARIZ  051107050A005B23MIN00UUU12UN18 000000
602AZ010031B8050005294470109060TUCSON                  ARIZ  061201050A001A38MWN78MWN12FR45 000000
602AZ010031B8050005294470109060TUCSON                  ARIZ  061201050A002A41MBN39MWN90ST81A000000
602AZ010031B8050005294470109060TUCSON                  ARIZ  061201050A003D49MWH34MWH12BR45 00100039MWH
602AZ010031B8050005294470109060TUCSON                  ARIZ  061201050A004B25MWH00UUU12UN46 000000
602AZ010031B8050005294470109060TUCSON                  ARIZ  070113060A001B24MWH00UUU12UN99 000000
602AZ010031B8050005294470109060TUCSON                  ARIZ  070113060A002B18MWH00UUU12UN99 000000
602AZ010031B8050005294470109060TUCSON                  ARIZ  070113060A003B30MWH00UUU12UN99 000000
602AZ010031B8050005294470109060TUCSON                  ARIZ  070113060A004B29MWH00UUU12UN03 000000
602AZ010031B8050005294470109060TUCSON                  ARIZ  070113060A005A19MWN30MWN12ST81A000000
602AZ010031B8050005294470109060TUCSON                  ARIZ  080207060A001A50MWN35MWN12ST81A000000
602AZ010031B8050005294470109060TUCSON                  ARIZ  090218060A001A01FWN38MWN40DA60 000000
602AZ010031B8050005294470109060TUCSON                  ARIZ  090218060A002A17MWH20MWH12AQ45 000000
602AZ010031B8050005294470109060TUCSON                  ARIZ  090218060A003A36FWH29MWH12WI45 000000
602AZ010031B8050005294470109060TUCSON                  ARIZ  090218060A004A39MWH23MWH12ST03 000000
602AZ010031B8050005294470109060TUCSON                  ARIZ  090218060A005A25MWN18MBN12ST45 000000
602AZ010031B8050005294470109060TUCSON                  ARIZ  090218060A006A22MWN43MWH12AQ18 000000
602AZ010031B8050005294470109060TUCSON                  ARIZ  090218060A007A36MWN52MWN20ST80E000000
602AZ010031B8050005294470109060TUCSON                  ARIZ  090218060A008A43MWN59MWH12ST81A000000
602AZ010031B8050005294470109060TUCSON                  ARIZ  090218060A009C40MWH32MAN12ST81A000001                                                  35MWN12ST81A
602AZ010031B8050005294470109060TUCSON                  ARIZ  100309060A001B25MWH00UUU12UN45 000000
602AZ010031B8050005294470109060TUCSON                  ARIZ  100309060A002B30MWH00UUU12UN45 000000
602AZ010031B8050005294470109060TUCSON                  ARIZ  100309060A003B49MWN00UUU20UN99 000000
602AZ010031B8050005294470109060TUCSON                  ARIZ  100309060A004F39MWH00UUU12UN99 00100047MWH
602AZ010031B8050005294470109060TUCSON                  ARIZ  100309060A005B33MWH00UUU12UN99 000000
602AZ010031B8050005294470109060TUCSON                  ARIZ  100309060A006A21MWH30MWN30AQ60 000000
602AZ010031B8050005294470109060TUCSON                  ARIZ  100309060B007A43MWN48MWN13FR53 000000
602AZ010031B8050005294470109060TUCSON                  ARIZ  110316060A001A17MBN23MBN12BR45 000000
602AZ010031B8050005294470109060TUCSON                  ARIZ  110316060A002F20MWH00UUU12UN99 00100032MWH
602AZ010031B8050005294470109060TUCSON                  ARIZ  110316060A003A46FWN51MWN20XW45 000000
602AZ010031B8050005294470109060TUCSON                  ARIZ  110316060A004A56MWN54FWN12HU45 000000
602AZ010031B8050005294470109060TUCSON                  ARIZ  110316060A005B19MWU00UUU12UN99 000000
602AZ010031B8050005294470109060TUCSON                  ARIZ  110316060A006ABBMBN47FWH40OK60 000000
602AZ010031B8050005294470109060TUCSON                  ARIZ  110316060A007B19MWH00UUU12UN99 000000
602AZ010031B8050005294470109060TUCSON                  ARIZ  110316060A008A40MWH46MWH13FR03 000000
602AZ010031B8050005294470109060TUCSON                  ARIZ  110316060A009ABBFWH30MWN40DA60 000000
602AZ010031B8050005294470109060TUCSON                  ARIZ  120404060A001A27MWN23MWN12ST60 000000
602AZ010031B8050005294470109060TUCSON                  ARIZ  120404060A002B42MWH00UUU12UN99 000000
602AZ010031B8050005294470109060TUCSON                  ARIZ  120404060A003B22MWH00UUU13UN99 000000
602AZ010031B8050005294470109060TUCSON                  ARIZ  120404060A004A39MWN34MWN14FR60 000000
602AZ010031B8050005294470109060TUCSON                  ARIZ  120404060A005A25MWH43MWH12SO45 000000
602AZ010095 8050000238850109061MARANA                  ARIZ  041025050A001F31MWH00UUU20UN99 00100063MWH
602AZ011009A8050001096010116621PINAL                   ARIZ  010404060A001B46MWH00UUU12UN99 000000
602AZ011009A8050001096010116621PINAL                   ARIZ  010404060A002A77MWN64FWN70HU60 000000
602AZ011009A8050001096010116621PINAL                   ARIZ  010404060A003B42FAN00UUU90UN99 000000
602AZ011009A8050001096010116621PINAL                   ARIZ  020404060A001A82MBN43MBN65FA09 000000
602AZ011009A8050001096010116621PINAL                   ARIZ  040404060A001A45MWH50FWN13BF45 000000
602AZ011009A8050001096010116621PINAL                   ARIZ  080404060A001B32MWH00UUU12UN99 000000
602AZ011009A8050001096010116621PINAL                   ARIZ  100404060A001A20MWH18MWH20AQ45 000000
602AZ011009A8050001096010116621PINAL                   ARIZ  100404060A002B21MWH00UUU12UN99 000000
602AZ011009A8050001096010116621PINAL                   ARIZ  110404060A001A25MWH25MWH12AQ99 000000
602AZ011009A8050001096010116621PINAL                   ARIZ  110404060A002A54MWN52FWN12HU45 000000
602AZ011009A8050001096010116621PINAL                   ARIZ  120404060A001A27MBN36FWN12ST60 000000
602AZ011014 8050000322530116621CASA GRANDE             ARIZ  031006050A001A01MWN20MWN40OK60 000000
602AZ011014 8050000322530116621CASA GRANDE             ARIZ  110316060A001A27MWH20MBN12ST60 000000
602AZ011014 8050000322530116621CASA GRANDE             ARIZ  120404060A001A21FWH21MWH20GF45 000000
602AZ011055 8050000110590116621ELOY                    ARIZ  031006050A001A55FWH37MWH20AQ60 000000
602AZ011134 8050000345960116621APACHE JUNCTION         ARIZ  040206070A001A32MW 56MW 12AQ45 000000
602AZ013035 8050000107790136881COTTONWOOD              ARIZ  030404060A001A45FWN51MWN20WI45 000000
602AZ013114 8050000312600136881PRESCOTT VALLEY         ARIZ  021006050A001A05MWN23MWH40SS60 000000
602AZ013114 8050000312600136881PRESCOTT VALLEY         ARIZ  110404060A001A66FWN69MWN12WI60 000000
602AZ013126 8050000094720136881CHINO VALLEY            ARIZ  031006050A001A34FWN45MWN14WI45 000000
602AZ014009B8050000634030149921YUMA                    ARIZ  010614050A001B22MWH00UUU90UN99 000000
602AZ014053 8050000861570149920YUMA                    ARIZ  031006050A001A01MWH28MWH40OK60 000000
602AZ014053 8050000861570149920YUMA                    ARIZ  041025050A001C20MWH23MWH12AQ46 000001                                                  22MWH12AQ46
602AZ014053 8050000861570149920YUMA                    ARIZ  061201050A001D06MWH26MWH11UN99 00500035MWH29FWH13MWH12MWH09FWH
602AZ014053 8050000861570149920YUMA                    ARIZ  090218060A001C39MWH32MWN12ST81E000002                                                  38MWH12ST81E49MWN12ST81E
602AZ014053 8050000861570149920YUMA                    ARIZ  100309060A001B34MWH00UUU30UN99 000000
602AZ014053 8050000861570149920YUMA                    ARIZ  120404060A001A26MWH40MWH20ST99 000000
602AZ015008C805000013831015   0LA PAZ                  ARIZ  020712050A001A63MWN57MWN12ST81B000000
603AR001016 705000003459001   0DE WITT                 ARK   070206070A001A33MW 37MW 30BR60 000000
603AR002026 705000002937002   0HAMBURG                 ARK   070206070A001A00MB 42MB 11UN45 000000
603AR004014 7050000280330042700BENTONVILLE             ARK   120420060A001A71FW 44MW 90MO60 000000
603AR004024 7050000453180042700ROGERS                  ARK   030613050A001ABBMBU30FWU40AQ41 000000
603AR005008C705000022909005   0BOONE                   ARK   040705050A001A34FWU47MWU14AQ42 000000
603AR005008C705000022909005   0BOONE                   ARK   040705050A002A21FWU31MWU12AQ45 000000
603AR005015 705000012684005   0HARRISON                ARK   090206070A001C00MW 19MW 90OF99 000001                                                  20MW 90OK99
603AR006016 705000006403006   0WARREN                  ARK   020206070A001A00FB 30MB 20UN45 000000
603AR006016 705000006403006   0WARREN                  ARK   040206070A001A56MB 44MB 20UN99 000000
603AR007008D705000004076007   0CALHOUN                 ARK   070206070A001C18MB 25MB 11UN45 000001                                                  22FB 11UN45
603AR013017 7050000013250136641RISON                   ARK   080206070A001A00FB 29FB 90UN60 000000
603AR014008C705000014431014   0COLUMBIA                ARK   020206070A001A46MB 22MB 12UN45 000000
603AR014008C705000014431014   0COLUMBIA                ARK   070206070A001A26MB 23MB 12BR45 000000
603AR014008C705000014431014   0COLUMBIA                ARK   120206070A001B51MB 00UU 11UN26 000000
603AR014015 705000010559014   0MAGNOLIA                ARK   050206070A001E24MB 16MB 11AQ99 00100421MB                                              17MB 11AQ99 17MB 11AQ99 19MB 11AQ99 19MB 11AQ99
603AR015016 705000006624015   0MORRILTON               ARK   010206070A001A37MB 42MB 11UN99 000000
603AR016013 7050000593660163960JONESBORO               ARK   010206070A001A40MB 29FB 20BF45 000000
603AR016013 7050000593660163960JONESBORO               ARK   080206070A001A32MW 32MW 20UN45 000000
603AR018009C7050000111540185191CRITTENDEN              ARK   020206070A001A22MB 23MB 20OK99 000000
603AR018009C7050000111540185191CRITTENDEN              ARK   030206070A001A60MB 51MB 20OF99 000000
603AR018009C7050000111540185191CRITTENDEN              ARK   060206070A001B57MW 00UU 90UN99 000000
603AR018009C7050000111540185191CRITTENDEN              ARK   060206070A002A28MB 26MB 12AQ45 000000
603AR018009C7050000111540185191CRITTENDEN              ARK   100206070A001A21MB 45UU 12UN60 000000
603AR018014 7050000283880185191WEST MEMPHIS            ARK   010206070A001A51MB 41MB 90UN99 000000
603AR018014 7050000283880185191WEST MEMPHIS            ARK   030206070A001B34MB 00UU 11UN60 000000
603AR018014 7050000283880185191WEST MEMPHIS            ARK   060206070A001A14MB 16MB 12UN99 000000
603AR018014 7050000283880185191WEST MEMPHIS            ARK   070206070A001E23MB 48MB 12UN45 00100130MB                                              00MB 12UN45
603AR018014 7050000283880185191WEST MEMPHIS            ARK   070206070A002D00UU 25MW 90UN26 00300000MW 00MW 00MW
603AR018014 7050000283880185191WEST MEMPHIS            ARK   090206070A001A15MW 18MB 65UN05 000000
603AR018014 7050000283880185191WEST MEMPHIS            ARK   090206070A002B22MB 00UU 11UN60 000000
603AR019008C705000010718019   0CROSS                   ARK   030206070A001A27MB 23MB 20OK45 000000
603AR019008C705000010718019   0CROSS                   ARK   110206070A001A39MB 49FB 20UN45 000000
603AR019016 705000008545019   0WYNNE                   ARK   010206070A001A37FW 56FW 90DA60 000000
603AR020016 705000004528020   0FORDYCE                 ARK   020206070A001A31FB 42MB 12GF45 000000
603AR020016 705000004528020   0FORDYCE                 ARK   070206070A001A23MB 46MB 20UN45 000000
603AR020016 705000004528020   0FORDYCE                 ARK   110206070A001A26MB 33MB 14UN45 000000
603AR020016 705000004528020   0FORDYCE                 ARK   110206070A002A47MB 34MB 14UN45 000000
603AR021016 705000004376021   0MCGEHEE                 ARK   050206070A001A21MB 22MB 20UN45 000000
603AR021036 705000005013021   0DUMAS                   ARK   010206070A001C22MB 33MB 12AQ45 000001                                                  27MB 12AQ45
603AR021036 705000005013021   0DUMAS                   ARK   070206070A001C16MB 19MB 11UN99 000001                                                  22MB 11UN99
603AR021036 705000005013021   0DUMAS                   ARK   110206070A001A32MB 32MB 12AQ45 000000
603AR022008D705000009426022   0DREW                    ARK   110206070A001C24MB 00MB 14UN45 000001                                                  00MB 14UN45
603AR022016 705000009277022   0MONTICELLO              ARK   020206070A001B29MB 00UU 11UN99 000000
603AR026009B7050000545980263561GARLAND                 ARK   040206070A001A48FW 66MW 14UN99 000000
603AR026009B7050000545980263561GARLAND                 ARK   080206070A001A62MW 41MW 30UN07 000000
603AR026009B7050000545980263561GARLAND                 ARK   090206070A001A21MW 21MW 12UN60 000000
603AR026009B7050000545980263561GARLAND                 ARK   100206070A001A00MW 49MW 13UN99 000000
603AR026014 7050000376040263560HOT SPRINGS             ARK   030206070A001B50FB 00UU 12UN99 000000
603AR026014 7050000376040263560HOT SPRINGS             ARK   100206070A001A22MB 22FB 11OK18 000000
603AR026014 7050000376040263560HOT SPRINGS             ARK   110206070A001A21MB 29MW 12OK60 000000
603AR026014 7050000376040263560HOT SPRINGS             ARK   120206070A001B57MW 00UU 20UN99 000000
603AR027009C7050000131340274691GRANT                   ARK   040206070A001A29FW 51MW 12XW60 000000
603AR028015 705000023622028   0PARAGOULD               ARK   050912050A001A36FWN28MWN20AQ03 000000
603AR029015 705000010563029   0HOPE                    ARK   020206070A001A23MB 67MB 12ST45 000000
603AR031008D705000007113031   0HOWARD                  ARK   060206070A001A27FW 30MW 13UN45 000000
603AR034016 705000007392034   0NEWPORT                 ARK   080322060A001A21MBU19MBU20AQ45 000000
603AR035009C7050000220010356641JEFFERSON               ARK   060206070A001A42MW 37MW 11UN99 000000
603AR035009C7050000220010356641JEFFERSON               ARK   080206070A001C27MW 28MW 11UN99 000002                                                  29MW 11UN99 34MW 11UN99
603AR035013 7050000539340356640PINE BLUFF              ARK   010613050A001A01MBU31MBU40SO45 000000
603AR035013 7050000539340356640PINE BLUFF              ARK   020613050A002C26MBU25MBU12AQ99 000001                                                  25MBU12AQ99
603AR035013 7050000539340356640PINE BLUFF              ARK   020613050A003B29MBU00UUU12UN99 000000
603AR035013 7050000539340356640PINE BLUFF              ARK   040705050A001A28MWU50MBU12AQ40 000000
603AR035013 7050000539340356640PINE BLUFF              ARK   071019050A001A67FWU38MWU14MO26 000000
603AR035013 7050000539340356640PINE BLUFF              ARK   081117050A001ABBFBU22FBU80DA26 000000
603AR035013 7050000539340356640PINE BLUFF              ARK   091219050A001B21MBU00UUU12UN99 000000
603AR035013 7050000539340356640PINE BLUFF              ARK   091219050A002B19MBU00UUU12UN99 000000
603AR035013 7050000539340356640PINE BLUFF              ARK   091219050A003B41MBU00UUU12UN99 000000
603AR035013 7050000539340356640PINE BLUFF              ARK   091219050A004A23MBU21MBU12AQ43 000000
603AR035013 7050000539340356640PINE BLUFF              ARK   091219050A005B51FBU00UUU12UN99 000000
603AR035013 7050000539340356640PINE BLUFF              ARK   110210060A001B65FBU00UUU12UN99 000000
603AR035013 7050000539340356640PINE BLUFF              ARK   110210060A002B74FWU00UUU30UN99 000000
603AR035013 7050000539340356640PINE BLUFF              ARK   110210060A003A03FBU29MBU40OF41 000000
603AR035013 7050000539340356640PINE BLUFF              ARK   120322060A001B21MBU00UUU11UN99 000000
603AR035013 7050000539340356640PINE BLUFF              ARK   120322060A002A57MBU42MBU12AQ45 000000
603AR039016 705000004910039   0MARIANNA                ARK   080206070A001A23MB 17MB 12OK60 000000
603AR040009C7050000109190406641LINCOLN                 ARK   080206070A001B26MB 00UU 11UN99 000000
603AR040017 7050000012280406641GOULD                   ARK   060206070A001A22MB 25MB 20UN45 000000
603AR042008C705000015182042   0LOGAN                   ARK   030206070A001B41MW 00UU 11UN99 000000
603AR042008C705000015182042   0LOGAN                   ARK   080206070A001C25MW 19MW 11AQ99 000002                                                  20MW 11AQ99 17MW 11UN99
603AR043009B7050000257320434691LONOKE                  ARK   020206070A001A47FW 48MW 11UN45 000000
603AR043046 7050000045490434691LONOKE                  ARK   040206070A001A52FB 54MB 90WI45 000000
603AR046009C7050000130990468871MILLER                  ARK   020322060A001C25MWU20FWU12AQ45 000002                                                  20FWU12AQ45 20FWU12AQ45
603AR046009C7050000130990468871MILLER                  ARK   020322060A002C24MWU20FWU12AQ45 000001                                                  20FWU12AQ45
603AR046009C7050000130990468871MILLER                  ARK   020322060A003A52MWU17MBU12ST45 000000
603AR046009C7050000130990468871MILLER                  ARK   020322060A004A43MWU43MWU14AQ45 000000
603AR046014 7050000297780468870TEXARKANA               ARK   071019050A001A02MBU24FBU40SO45 000000
603AR047026 705000008305047   0OSCEOLA                 ARK   060206070A001C61MW 27MB 12AQ03 000002                                                  19FB 12AQ03 35MB 12AQ03
603AR047026 705000008305047   0OSCEOLA                 ARK   060206070A002A25MB 19MB 11UN99 000000
603AR049008D705000009371049   0MONTGOMERY              ARK   040322060A001A45MWU62MWU14AQ45 000000
603AR052008C705000014097052   0OUACHITA                ARK   100206070A001A68MB 00MB 12BR99 000000
603AR052008C705000014097052   0OUACHITA                ARK   100206070A002A68MB 00MB 12BR45 000000
603AR052015 705000012461052   0CAMDEN                  ARK   100206070A001A86MB 37FB 20FR99 000000
603AR053009D7050000090730534691PERRY                   ARK   010206070A001A91MW 21MW 20UN45 000000
603AR054026 705000008008054   0WEST HELENA             ARK   100206070A001A23MB 30FB 12BF45 000000
603AR058014 705000025422058   0RUSSELLVILLE            ARK   120206070A001B19FW 00UU 90UN05 000000
603AR060009B7050000564580604691PULASKI                 ARK   040322060A001B25MBU00UUU12UN99 000000
603AR060009B7050000564580604691PULASKI                 ARK   070420060A001A17MB 28MW 12UN99 000000
603AR060014 7050000308950604691JACKSONVILLE            ARK   100131060A001A05FBU23MBU20AQ45 000000
603AR060022 7050001858550604690LITTLE ROCK             ARK   010613050A001A41MBU34FBU12HU45 000000
603AR060022 7050001858550604690LITTLE ROCK             ARK   020613050A002A19MBU20MWU14UN18 000000
603AR060022 7050001858550604690LITTLE ROCK             ARK   030613050A003B20MBU00UUU12UN99 000000
603AR060022 7050001858550604690LITTLE ROCK             ARK   030613050A004A50MBU45MBU12OK45 000000
603AR060022 7050001858550604690LITTLE ROCK             ARK   030613050A005C26MWU49MWU12AQ26 000001                                                  44MWU12AQ26
603AR060022 7050001858550604690LITTLE ROCK             ARK   030613050A006B45FBU00UUU20UN99 000000
603AR060022 7050001858550604690LITTLE ROCK             ARK   040705050A001A25MBU00MBU12AQ46 000000
603AR060022 7050001858550604690LITTLE ROCK             ARK   040705050A002B21MBU00UUU90UN99 000000
603AR060022 7050001858550604690LITTLE ROCK             ARK   040705050A003A26MBU24MBU12AQ45 000000
603AR060022 7050001858550604690LITTLE ROCK             ARK   050721050A001C30FBU22MBU12AQ45 000001                                                  33MBU12AQ45
603AR060022 7050001858550604690LITTLE ROCK             ARK   050721050A002A21MBU20MBU12AQ99 000000
603AR060022 7050001858550604690LITTLE ROCK             ARK   060912050A001A26MBU24MBU12AQ45 000000
603AR060022 7050001858550604690LITTLE ROCK             ARK   060914051B002A03MB 22MB 90AQ59 000000
603AR060022 7050001858550604690LITTLE ROCK             ARK   060912050A003A33MBU21MBU12AQ18 000000
603AR060022 7050001858550604690LITTLE ROCK             ARK   060912050A004A29MBU36MBU12AQ26 000000
603AR060022 7050001858550604690LITTLE ROCK             ARK   060912050A005A22FBU21MBU12OF18 000000
603AR060022 7050001858550604690LITTLE ROCK             ARK   060912050A006A03MBU24MBU40AQ45 000000
603AR060022 7050001858550604690LITTLE ROCK             ARK   060130060A007A01MB 23MB 40AQ41 000000
603AR060022 7050001858550604690LITTLE ROCK             ARK   071019050A001B19FBU00UUU12UN99 000000
603AR060022 7050001858550604690LITTLE ROCK             ARK   071019050A002A24MBU24MBU12AQ99 000000
603AR060022 7050001858550604690LITTLE ROCK             ARK   071019050A003A23FBU24MBU12GF45 000000
603AR060022 7050001858550604690LITTLE ROCK             ARK   071019050A004A87MWU38MWU12AQ45 000000
603AR060022 7050001858550604690LITTLE ROCK             ARK   071019050A005B45MBU00UUU12UN03 000000
603AR060022 7050001858550604690LITTLE ROCK             ARK   081117050A002B18FWU00UUU20UN99 000000
603AR060022 7050001858550604690LITTLE ROCK             ARK   091219050A001A30MWU27MWU12UN45 000000
603AR060022 7050001858550604690LITTLE ROCK             ARK   100131060A001A14FBU00MBU12UN45 000000
603AR060022 7050001858550604690LITTLE ROCK             ARK   100131060A002A28FBU39MBU12WI45 000000
603AR060022 7050001858550604690LITTLE ROCK             ARK   100131060A003A33MBU20FBU14UN45 000000
603AR060022 7050001858550604690LITTLE ROCK             ARK   100131060A004A30MBU00MBU12UN99 000000
603AR060022 7050001858550604690LITTLE ROCK             ARK   110210060A001B35MWU00UUU11UN99 000000
603AR060022 7050001858550604690LITTLE ROCK             ARK   110210060A002B28MBU00UUU30UN03 000000
603AR060022 7050001858550604690LITTLE ROCK             ARK   110210060A003B20MBU00UUU12UN18 000000
603AR060022 7050001858550604690LITTLE ROCK             ARK   110210060A004A41MBU36MBU14AQ45 000000
603AR060022 7050001858550604690LITTLE ROCK             ARK   110210060A005C79MWU17MBU12ST03 000001                                                  17MBU12ST03
603AR060022 7050001858550604690LITTLE ROCK             ARK   110210060A006B72MBU00UUU40UN03 000000
603AR060022 7050001858550604690LITTLE ROCK             ARK   110210060A007B49MWU00UUU11UN99 000000
603AR060022 7050001858550604690LITTLE ROCK             ARK   110210060A008B45FBU00UUU12UN99 000000
603AR060022 7050001858550604690LITTLE ROCK             ARK   120322060A001A36FBU43MBU20GF45 000000
603AR060022 7050001858550604690LITTLE ROCK             ARK   120322060A002B37MWU00UUU12UN03 000000
603AR060022 7050001858550604690LITTLE ROCK             ARK   120420060A003C17MB 15MB 12UN45 000004                                                  19MB 12UN45 17MB 12UN45 15MB 12UN45 20MB 12UN45
603AR060022 7050001858550604690LITTLE ROCK             ARK   120420060A004B39MB 00UU 12UN99 000000
603AR060033 7050000600470604690NORTH LITTLE ROCK       ARK   020206070A001B31MB 00UU 11UN99 000000
603AR060033 7050000600470604690NORTH LITTLE ROCK       ARK   030206070A001A21MB 20MB 11UN99 000000
603AR060033 7050000600470604690NORTH LITTLE ROCK       ARK   060206070A001B36MB 00UU 12UN99 000000
603AR060033 7050000600470604690NORTH LITTLE ROCK       ARK   100206070A001E24MB 28MB 11UN99 00100130MB                                              28MB 11UN99
603AR060165 7050000134010604691MAUMELLE                ARK   050206070A001A01FB 21FB 12DA60 000000
603AR062015 705000014379062   0FORREST CITY            ARK   060206070A001C19MB 18MB 11AQ99 000002                                                  18MB 11ST99 17MB 11UN99
603AR062015 705000014379062   0FORREST CITY            ARK   070206070A001A38MB 28FB 20BF45 000000
603AR062015 705000014379062   0FORREST CITY            ARK   080206070A001C36MB 99MB 40ST99 000001                                                  27MB 40AQ99
603AR062015 705000014379062   0FORREST CITY            ARK   100206070A001ABBFB 14MB 40AQ60 000000
603AR063015 7050000249330634691BENTON                  ARK   061019050A001A29MWU38MWU12AQ40 000000
603AR063015 7050000249330634691BENTON                  ARK   061019050A002A25FWU38MWU12XW40 000000
603AR063015 7050000249330634691BENTON                  ARK   070322060A001A24MBU75MWU12AQ45 000000
603AR063015 7050000249330634691BENTON                  ARK   080322060A002A38MBU38MBU20AQ45 000000
603AR066009C7050000241760662851SEBASTIAN               ARK   020206070A001A30FW 38MW 12WI99 000000
603AR066013 7050000826380662850FORT SMITH              ARK   010206070A001A41FW 00MB 20WI26 000000
603AR066013 7050000826380662850FORT SMITH              ARK   010206070A002A31MW 22MW 40AQ60 000000
603AR066013 7050000826380662850FORT SMITH              ARK   020206070A001C27MW 00MW 12OK46 000002                                                  17MW 12OK46 17MW 12OK46
603AR066013 7050000826380662850FORT SMITH              ARK   060206070A001A30FW 28MW 12GF45 000000
603AR066013 7050000826380662850FORT SMITH              ARK   120206070A001A25MW 25MW 11OK99 000000
603AR070008C705000022176070   0UNION                   ARK   020206070A001B28MW 00UU 11UN99 000000
603AR070008C705000022176070   0UNION                   ARK   070206070A001A23MW 32MW 13BR99 000000
603AR070015 705000020881070   0EL DORADO               ARK   010206070A001B42FB 00UU 90UN99 000000
603AR070015 705000020881070   0EL DORADO               ARK   060206070A001C39MB 20MB 12UN99 000002                                                  24MB 12UN99 28MB 12UN99
603AR070015 705000020881070   0EL DORADO               ARK   070206070A001A31FW 24MW 14UN99 000000
603AR070015 705000020881070   0EL DORADO               ARK   080206070A001A38MB 33MB 12UN99 000000
603AR070015 705000020881070   0EL DORADO               ARK   100206070A001C40MB 17MB 12UN45 000002                                                  17MB 12UN45 17MB 12UN45
603AR071008C705000011863071   0VAN BUREN               ARK   120322060A001C49MWU21MWU20AQ05 000001                                                  38MWU20AQ05
603AR072009B7050000454480722701WASHINGTON              ARK   010206070A001D36MW 39MW 20OK60 00100054MW
603AR072009B7050000454480722701WASHINGTON              ARK   060206070A001A48FW 44MW 14GF45 000000
603AR072009B7050000454480722701WASHINGTON              ARK   100206070A001D65MW 36MW 14FA60 00100064FW
603AR072013 7050000648090722700FAYETTEVILLE            ARK   060206070A001A23FW 35MW 11UN60 000000
603AR072013 7050000648090722700FAYETTEVILLE            ARK   090206070A001A20FB 20MB 90GF99 000000
603AR073015 705000020626073   0SEARCY                  ARK   061219050A001A25MBU24MBU12AQ45 000000
603AR075008C705000012736075   0YELL                    ARK   060206070A001A62MW 68MW 14UN45 000000
604CA001009A9050001358200017831ALAMEDA                 CALIF 011013051A001A36MBN23MBN12ST07 000000
604CA001009A9050001358200017831ALAMEDA                 CALIF 021013051A001B20MWN00UUU14UN99 000000
604CA001009A9050001358200017831ALAMEDA                 CALIF 041013051A001B24MBN00UUU12UN99 000000
604CA001009A9050001358200017831ALAMEDA                 CALIF 041121051A002A28MWH18MWH20ST45 000000
604CA001009A9050001358200017831ALAMEDA                 CALIF 051013051A001A50MWN41MWH40NE45 000000
604CA001009A9050001358200017831ALAMEDA                 CALIF 061013051A001B25MBN00UUU12UN45 000000
604CA001009A9050001358200017831ALAMEDA                 CALIF 061013051A002B44MUU00UUU12UN45 000000
604CA001009A9050001358200017831ALAMEDA                 CALIF 081121051A001A18MBN18MBN12ST80E000000
604CA001009A9050001358200017831ALAMEDA                 CALIF 110125061A001A03FBN24MBN30OK60 000000
604CA001009A9050001358200017831ALAMEDA                 CALIF 110125061A002B23MBN00UUU11UN26 000000
604CA001032 9050001021910017830BERKELEY                CALIF 021013051A001C50FWN18MBN40ST60 000001                                                  19MBN40ST60
604CA001032 9050001021910017830BERKELEY                CALIF 051013051A001A74MAN17MBN40ST60 000000
604CA001032 9050001021910017830BERKELEY                CALIF 071013051A001A19FBN21MBN12AQ45 000000
604CA001046 9050000080760017831EMERYVILLE              CALIF 041121051A001A27MBN31MBN12ST60 000000
604CA001046 9050000080760017831EMERYVILLE              CALIF 071121051A001A23MWH44MWN12ST81A000000
604CA001052 9050002037170017830FREMONT                 CALIF 011013051A001C60MWN32MWN13ST81E000001                                                  38MWN13ST81E
604CA001052 9050002037170017830FREMONT                 CALIF 081121051A001A36MWH27MWH12ST81A000000
604CA001052 9050002037170017830FREMONT                 CALIF 120228061A001A45MAN48MAN12OK45 000000
604CA001062 9050001417300017830HAYWARD                 CALIF 011013051A001B66MWN00UUU12UN47 000000
604CA001062 9050001417300017830HAYWARD                 CALIF 031013051A001C17MWH18MWH12OK47 000002                                                  37MWH12OK47 18MWH12OK47
604CA001062 9050001417300017830HAYWARD                 CALIF 030329061A002A37MWH35FWH12HU45 000000
604CA001062 9050001417300017830HAYWARD                 CALIF 041013051A001B66MWN00UUU30UN99 000000
604CA001062 9050001417300017830HAYWARD                 CALIF 061013051A001A26MBN33MBN40ST99 000000
604CA001062 9050001417300017830HAYWARD                 CALIF 071121051A001B39MBN00UUU12UN45 000000
604CA001062 9050001417300017830HAYWARD                 CALIF 071121051A002B51FAN00UUU11UN03 000000
604CA001062 9050001417300017830HAYWARD                 CALIF 080228061A001A22MWH35MWH12ST81A000000
604CA001062 9050001417300017830HAYWARD                 CALIF 110228061A001B25MBN00UUU12UN99 000000
604CA001062 9050001417300017830HAYWARD                 CALIF 120228061A001B33MAN00UUU12UN99 000000
604CA001073 9050000785010017830LIVERMORE               CALIF 041013051A001A36FWN33MWN30OK45 000000
604CA001084 9050000427930017831NEWARK                  CALIF 011013051A001A27MWH19MBN12ST03 000000
604CA001084 9050000427930017831NEWARK                  CALIF 021013051A001A16MWH17MBN12AQ47 000000
604CA001091C9050004006190017830OAKLAND                 CALIF 011013051A001A53FBN50MBN20AQ45 000000
