601AL001009A6040001469630370981JEFFERSON               ALA   050328050A001A43MW 24FW 14OF80C000000
601AL001014 6040000292980370981BESSEMER                ALA   060328050A002A21MB 19MB 12UN40 000000
601AL001014 6040000292980370981BESSEMER                ALA   070328050A001A19MB 00MB 12AQ99 000000
601AL001022 6040002381670370980BIRMINGHAM              ALA   010406051A001A31MB 33FB 20HU45 000000
601AL001022 6040002381670370980BIRMINGHAM              ALA   010406051A002A20MB 20MB 12ST99 000000
601AL001022 6040002381670370980BIRMINGHAM              ALA   010406051A003A32FB 22MB 12ST99 000000
601AL001022 6040002381670370980BIRMINGHAM              ALA   020406051A001A45MB 00FU 90HU99 000000
601AL001022 6040002381670370980BIRMINGHAM              ALA   020406051A002A32FB 21MB 12UN99 000000
601AL001022 6040002381670370980BIRMINGHAM              ALA   020421051A003A01FB 32MB 40DA60 000000
601AL001022 6040002381670370980BIRMINGHAM              ALA   020406051A004B39MB 00UU 12UN99 000000
601AL001022 6040002381670370980BIRMINGHAM              ALA   020406051A005B55MB 00UU 12UN99 000000
601AL001022 6040002381670370980BIRMINGHAM              ALA   020406051A006B24MW 00UU 90UN99 000000
601AL001022 6040002381670370980BIRMINGHAM              ALA   020406051A007A20MB 00MB 12ST99 000000
601AL001022 6040002381670370980BIRMINGHAM              ALA   030406051A001A35MB 00FU 20HU99 000000
601AL001022 6040002381670370980BIRMINGHAM              ALA   030406051A002B52MB 00UU 90UN99 000000
601AL001022 6040002381670370980BIRMINGHAM              ALA   030406051A003A45MB 30MB 12ST99 000000
601AL001022 6040002381670370980BIRMINGHAM              ALA   040406051A001B40FB 00UU 90UN99 000000
601AL001022 6040002381670370980BIRMINGHAM              ALA   040406051A002B21MB 00UU 90UN99 000000
601AL001022 6040002381670370980BIRMINGHAM              ALA   050406051A001B39MW 00UU 12UN99 000000
601AL001022 6040002381670370980BIRMINGHAM              ALA   050406051A002A39MB 00MB 12ST99 000000
601AL001022 6040002381670370980BIRMINGHAM              ALA   050406051A003B19MB 00UU 12UN99 000000
601AL001022 6040002381670370980BIRMINGHAM              ALA   050406051A004A56MW 39MB 12FR99 000000
601AL001022 6040002381670370980BIRMINGHAM              ALA   060406051A001A27MU 27UU 12ST99 000000
601AL001022 6040002381670370980BIRMINGHAM              ALA   060406051A002A36MW 27MB 12ST03 000000
601AL001022 6040002381670370980BIRMINGHAM              ALA   060406051A003A58MW 27MB 12ST03 000000
601AL001022 6040002381670370980BIRMINGHAM              ALA   060406051A004A33MW 27MB 12ST03 000000
601AL001022 6040002381670370980BIRMINGHAM              ALA   070406051A001A36MB 32FB 20HU99 000000
601AL001022 6040002381670370980BIRMINGHAM              ALA   070406051A002B19FB 00UU 12UN99 000000
601AL001022 6040002381670370980BIRMINGHAM              ALA   070406051A003A32MB 47MB 90BR99 000000
601AL001022 6040002381670370980BIRMINGHAM              ALA   070406051A004B26FB 00UU 12UN45 000000
601AL001022 6040002381670370980BIRMINGHAM              ALA   070406051A005B23MB 00UU 12UN45 000000
601AL001022 6040002381670370980BIRMINGHAM              ALA   080406051A001B47MW 00UU 90UN99 000000
601AL001022 6040002381670370980BIRMINGHAM              ALA   080406051A002A25MB 00MB 12ST99 000000
601AL001022 6040002381670370980BIRMINGHAM              ALA   080406051A003A58MB 00MB 90ST99 000000
601AL001022 6040002381670370980BIRMINGHAM              ALA   080406051A004A52MB 30FW 12FR99 000000
601AL001022 6040002381670370980BIRMINGHAM              ALA   080406051A005A23MU 36MB 20UN99 000000
601AL001022 6040002381670370980BIRMINGHAM              ALA   080406051A006A44MB 33MB 12AQ45 000000
601AL001022 6040002381670370980BIRMINGHAM              ALA   080406051A007B20MB 00UU 12UN99 000000
601AL001022 6040002381670370980BIRMINGHAM              ALA   080406051A008B25FB 00UU 12UN99 000000
601AL001022 6040002381670370980BIRMINGHAM              ALA   080406051A009B14MB 00UU 12UN99 000000
601AL001022 6040002381670370980BIRMINGHAM              ALA   080406051A010B32MB 00UU 90UN99 000000
601AL001022 6040002381670370980BIRMINGHAM              ALA   080406051A011A25MB 00MB 12AQ99 000000
601AL001022 6040002381670370980BIRMINGHAM              ALA   080406051A012B19MB 00UU 12UN99 000000
601AL001022 6040002381670370980BIRMINGHAM              ALA   090406051A001A22MB 23MB 12AQ99 000000
601AL001022 6040002381670370980BIRMINGHAM              ALA   090406051A002A20MB 00MB 12ST99 000000
601AL001022 6040002381670370980BIRMINGHAM              ALA   090406051A003A55MW 00MB 12ST03 000000
601AL001022 6040002381670370980BIRMINGHAM              ALA   090406051A004B27MB 00UU 12UN99 000000
601AL001022 6040002381670370980BIRMINGHAM              ALA   090406051A005B30MB 00UU 12UN99 000000
601AL001022 6040002381670370980BIRMINGHAM              ALA   100406051A001A45FB 18MB 12AQ99 000000
601AL001022 6040002381670370980BIRMINGHAM              ALA   100406051A002B27MB 00UU 12UN99 000000
601AL001022 6040002381670370980BIRMINGHAM              ALA   100406051A003A51MB 25MB 20AQ45 000000
601AL001022 6040002381670370980BIRMINGHAM              ALA   100406051A004A45MW 00MB 12ST99 000000
601AL001022 6040002381670370980BIRMINGHAM              ALA   100406051A005A26FB 00MU 20WI99 000000
601AL001022 6040002381670370980BIRMINGHAM              ALA   110406051A001B17MB 00UU 90UN99 000000
601AL001022 6040002381670370980BIRMINGHAM              ALA   110421051A002A12FB 31FB 40DA60 000000
601AL001022 6040002381670370980BIRMINGHAM              ALA   110406051A003A25MB 00MB 12AQ99 000000
601AL001022 6040002381670370980BIRMINGHAM              ALA   110406051A004A35MB 00MB 12ST99 000000
601AL001022 6040002381670370980BIRMINGHAM              ALA   110406051A005A29MB 30MB 12ST99 000000
601AL001022 6040002381670370980BIRMINGHAM              ALA   120406051A001A24MB 42MB 12AQ80C000000
601AL001022 6040002381670370980BIRMINGHAM              ALA   120406051A002A25MB 00MB 12AQ99 000000
601AL001022 6040002381670370980BIRMINGHAM              ALA   120406051A003A50MB 00MB 12AQ99 000000
601AL001022 6040002381670370980BIRMINGHAM              ALA   120406051A004A22MB 00MB 12AQ99 000000
601AL001022 6040002381670370980BIRMINGHAM              ALA   120406051A005A35MB 21MB 12AQ99 000000
601AL001076 6040000054760370981MIDFIELD                ALA   030328050A001A57MB 20MB 12UN03 000000
601AL001123 6040000654950370980HOOVER                  ALA   120420051A001A23MW 45MW 12UN45 000000
601AL001123 6040000654950370980HOOVER                  ALA   120420051A002A44MW 46MW 12UN45 000000
601AL001123 6040000654950370980HOOVER                  ALA   120420051A003B43MW 00UU 12UN99 000000
601AL002009B6040000881740495471MOBILE                  ALA   010406051B001A16MW 24MW 90FR59 000000
601AL002009B6040000881740495471MOBILE                  ALA   040406051A001A52MW 55MW 12UN99 000000
601AL002009B6040000881740495471MOBILE                  ALA   090406051A001A45FW 25MW 11UN02 000000
601AL002011C6040002505930495470MOBILE                  ALA   020328050A001A00FB 37FB 90UN99 000000
601AL002011C6040002505930495470MOBILE                  ALA   020406051A002B53MB 00UU 12UN99 000000
601AL002011C6040002505930495470MOBILE                  ALA   020328050A003A53MW 49MW 90AQ99 000000
601AL002011C6040002505930495470MOBILE                  ALA   020328050A004A37MB 41MB 12AQ99 000000
601AL002011C6040002505930495470MOBILE                  ALA   030328050A001A00MU 26MW 12ST99 000000
601AL002011C6040002505930495470MOBILE                  ALA   030328050A002A00MU 26MW 90UN99 000000
601AL002011C6040002505930495470MOBILE                  ALA   030406051A003B00MU 00UU 12UN99 000000
601AL002011C6040002505930495470MOBILE                  ALA   030406051A004B00MU 00UU 12UN99 000000
601AL002011C6040002505930495470MOBILE                  ALA   030406051A005B00MU 00UU 90UN99 000000
601AL002011C6040002505930495470MOBILE                  ALA   030406051A006B00MU 00UU 12UN99 000000
601AL002011C6040002505930495470MOBILE                  ALA   030406051A007B00MU 00UU 90UN99 000000
601AL002011C6040002505930495470MOBILE                  ALA   030406051A008B00MU 00UU 12UN99 000000
601AL002011C6040002505930495470MOBILE                  ALA   040406051A001B00MU 00UU 90UN99 000000
601AL002011C6040002505930495470MOBILE                  ALA   040406051A002B18MB 00UU 12UN99 000000
601AL002011C6040002505930495470MOBILE                  ALA   060328050A001A00MU 28MB 90UN99 000000
601AL002011C6040002505930495470MOBILE                  ALA   060406051A002B42FB 00UU 90UN99 000000
601AL002011C6040002505930495470MOBILE                  ALA   070406051A001B78MW 00UU 12UN99 000000
601AL002011C6040002505930495470MOBILE                  ALA   070406051A002B30MB 00UU 90UN99 000000
601AL002011C6040002505930495470MOBILE                  ALA   070328050A003A27MB 27FB 90BF99 000000
601AL002011C6040002505930495470MOBILE                  ALA   090328050A001A17MB 19MB 90UN99 000000
601AL002011C6040002505930495470MOBILE                  ALA   090406051A002B53MW 00UU 90UN99 000000
601AL002011C6040002505930495470MOBILE                  ALA   100406051A001B19MB 00UU 90UN99 000000
601AL002011C6040002505930495470MOBILE                  ALA   100406051A002B23MB 00UU 90UN99 000000
601AL002011C6040002505930495470MOBILE                  ALA   120328050A001A03MB 37MB 90UN99 000000
601AL002011C6040002505930495470MOBILE                  ALA   120406051A002B00MU 00UU 12UN99 000000
601AL002011C6040002505930495470MOBILE                  ALA   120406051A003B49MB 00UU 90UN99 000000
601AL002011C6040002505930495470MOBILE                  ALA   120328050A004A29MB 22MB 90UN99 000000
601AL002024 6040000281660495471PRICHARD                ALA   050328050A001A34MB 34MB 12AQ45 000000
601AL002024 6040000281660495471PRICHARD                ALA   070328050A001A29MB 19MB 12AQ99 000000
601AL002024 6040000281660495471PRICHARD                ALA   080328050A001A56FB 39MB 40WI45 000000
601AL002066 6040000027720495471BAYOU LA BATRE          ALA   060328050A001A36MW 38MW 14FR99 000000
601AL002127 6040000020440495471CREOLA                  ALA   010328050A001A38FW 58MW 12WI45 000000
601AL003012 6040002014320515560MONTGOMERY              ALA   010328050A001A37MB 26MB 12UN99 000000
601AL003012 6040002014320515560MONTGOMERY              ALA   010328050A002A32MB 00MB 12UN45 000000
601AL003012 6040002014320515560MONTGOMERY              ALA   020328050A001A28MW 32MB 40UN99 000000
601AL003012 6040002014320515560MONTGOMERY              ALA   020406051A002B40FW 00UU 90UN99 000000
601AL003012 6040002014320515560MONTGOMERY              ALA   030406051A001B75MW 00UU 12UN99 000000
601AL003012 6040002014320515560MONTGOMERY              ALA   030328050A002A20MB 21MB 12UN99 000000
601AL003012 6040002014320515560MONTGOMERY              ALA   040328050A001A41MB 20MB 12UN99 000000
601AL003012 6040002014320515560MONTGOMERY              ALA   050328050A001A17MB 17FB 20UN99 000000
601AL003012 6040002014320515560MONTGOMERY              ALA   050328050A002A16MB 21MB 12UN99 000000
601AL003012 6040002014320515560MONTGOMERY              ALA   060406051A001B41MB 00UU 12UN99 000000
601AL003012 6040002014320515560MONTGOMERY              ALA   060328050A002A21FW 25MW 12UN99 000000
601AL003012 6040002014320515560MONTGOMERY              ALA   060406051A003B33MB 00UU 12UN99 000000
601AL003012 6040002014320515560MONTGOMERY              ALA   070328050A001A40MB 25MB 12UN99 000000
601AL003012 6040002014320515560MONTGOMERY              ALA   070328050A002A25FW 20MB 12UN99 000000
601AL003012 6040002014320515560MONTGOMERY              ALA   080328050A001A17MB 15MB 12AQ45 000000
601AL003012 6040002014320515560MONTGOMERY              ALA   080328050A002A22MB 23MB 12UN99 000000
601AL003012 6040002014320515560MONTGOMERY              ALA   090328050A001A24MB 21MB 12UN99 000000
601AL003012 6040002014320515560MONTGOMERY              ALA   090328050A002A32FW 16UU 12UN99 000000
601AL003012 6040002014320515560MONTGOMERY              ALA   100406051A001B34MB 00UU 12UN99 000000
601AL003012 6040002014320515560MONTGOMERY              ALA   100328050A002A18MB 22MB 20FR99 000000
601AL003012 6040002014320515560MONTGOMERY              ALA   110406051A001B62MW 00UU 90UN99 000000
601AL003012 6040002014320515560MONTGOMERY              ALA   110406051A002B00MU 00UU 90UN99 000000
601AL003012 6040002014320515560MONTGOMERY              ALA   120406051A001B41MW 00UU 40UN99 000000
601AL003012 6040002014320515560MONTGOMERY              ALA   120406051A002B24FB 00UU 40UN99 000000
601AL003012 6040002014320515560MONTGOMERY              ALA   120328050A003A01FB 24MB 40UN99 000000
601AL005016 604000007896002   0BAY MINETTE             ALA   020328050A001A24MB 25FB 20BF45 000000
601AL005036 604000009752002   0FOLEY                   ALA   070328050A001A77MW 24MW 90UN99 000000
601AL006015 604000013740003   0EUFAULA                 ALA   070328050A001A28MW 00MB 12UN99 000000
601AL008009B6040000440250050981BLOUNT                  ALA   060328050A001A30MW 26MW 90UN99 000000
601AL008009B6040000440250050981BLOUNT                  ALA   070328050A001A43MW 31MW 12AQ45 000000
601AL010027 604000001647007   0GEORGIANA               ALA   030328050A001A34MB 18MB 12AQ45 000000
601AL010037 604000000616007   0MCKENZIE                ALA   020328050A001A18FW 20MB 12UN45 000000
601AL011015 6040000239050080420ANNISTON                ALA   040328050A001A39MB 41FB 20BF45 000000
601AL011015 6040000239050080420ANNISTON                ALA   080328050A001A59MW 20MB 12ST03 000000
601AL011015 6040000239050080420ANNISTON                ALA   090328050A001A34FW 34MW 12ST99 000000
601AL011015 6040000239050080420ANNISTON                ALA   090328050A002A24MW 34MW 12ST99 000000
601AL011015 6040000239050080420ANNISTON                ALA   090328050A003A18MW 45MW 20AQ99 000000
601AL011015 6040000239050080420ANNISTON                ALA   120328050A001A14MW 24MW 12ST99 000000
601AL011055 6040000155710080420OXFORD                  ALA   050328050A001A38MB 39MB 12UN99 000000
601AL011055 6040000155710080420OXFORD                  ALA   120421051A001B76FW 00UU 90UN99 000000
601AL014009B6040000279020110981CHILTON                 ALA   080328050A001A80MW 17MW 14UN99 000000
601AL017008D604000009961014   0CLAY                    ALA   010328050A001A23MW 21MW 14FR80C000000
601AL017008D604000009961014   0CLAY                    ALA   120414051A001B67MW 00UU 12UN99 000000
601AL019025 604000022004016   0ENTERPRISE              ALA   040328050A001A34MB 54MB 12SO99 000000
601AL020009C6040000221880172771COLBERT                 ALA   110328050A001A40FW 43MW 90WI99 000000
601AL023008C604000018831020   0COVINGTON               ALA   060328050A001A22MB 26MW 14UN99 000000
601AL024008D604000009594021   0CRENSHAW                ALA   050421051A001A00FB 22FB 40DA60 000000
601AL024016 604000002587021   0LUVERNE                 ALA   010406051A001B34MB 00UU 90UN99 000000
601AL025008B604000061260022   0CULLMAN                 ALA   120328050A001A39MW 34MW 20AQ45 000000
601AL025015 604000014489022   0CULLMAN                 ALA   110328050A001A41MW 32MW 20AQ45 000000
601AL026008C604000021520023   0DALE                    ALA   010328050A001A00MW 34MW 90AQ99 000000
601AL026015 604000015085023   0OZARK                   ALA   090328050A001A47MB 21FB 40AQ40 000000
601AL027015 604000019758024   0SELMA                   ALA   010328050A001A46FB 00MB 12ST99 000000
601AL027015 604000019758024   0SELMA                   ALA   040421051A001A00FB 21MB 40OF45 000000
601AL027015 604000019758024   0SELMA                   ALA   060421051A001A77FB 78MB 12GF45 000000
601AL027015 604000019758024   0SELMA                   ALA   090328050A001A23MB 17MB 12AQ99 000000
601AL027015 604000019758024   0SELMA                   ALA   110328050A001A26FB 21MB 12ST60 000000
601AL027015 604000019758024   0SELMA                   ALA   110328050A002A25FB 40MB 12GF40 000000
601AL029009B6040000450040265561ELMORE                  ALA   100328050A001A29FW 29FW 40WI99 000000
601AL029016 6040000065530265561WETUMPKA                ALA   120328050A001A34MB 27MB 14OF45 000000
601AL029065 6040000125360265561MILLBROOK               ALA   080328050A001A61MW 54MW 40AQ45 000000
601AL030008C604000021467027   0ESCAMBIA                ALA   020328050A001A56FB 33MB 40MO45 000000
601AL030008C604000021467027   0ESCAMBIA                ALA   080328050A001A26FB 00MB 40AQ45 000000
601AL030026 604000005383027   0BREWTON                 ALA   110328050A001A47FB 46MB 20GF45 000000
601AL030026 604000005383027   0BREWTON                 ALA   110328050A002A44FB 79MB 12GF45 000000
601AL031009B6040000313240283031ETOWAH                  ALA   020328050A001A39MW 32MW 12XH45 000000
601AL031009B6040000313240283031ETOWAH                  ALA   030328050A001A52MW 62MW 14FR99 000000
601AL031009B6040000313240283031ETOWAH                  ALA   040328050A001A24MW 22MW 14FR45 000000
601AL031024 6040000378650283030GADSDEN                 ALA   110328050A001A22MB 00MB 12UN99 000000
601AL035017 6040000018560329151EUTAW                   ALA   010328050A001A32MB 25MB 12AQ99 000000
601AL037009D6040000094210342271HENRY                   ALA   030414051A001B00MW 00UU 12UN45 000000
601AL038009B6040000254930352271HOUSTON                 ALA   050328050A001A48FW 48MW 40WI45 000000
601AL038013 6040000604290352270DOTHAN                  ALA   020328050A001A15MB 18MB 12UN99 000000
601AL038013 6040000604290352270DOTHAN                  ALA   040328050A001A64MW 20MW 40UN99 000000
601AL038013 6040000604290352270DOTHAN                  ALA   040427051A002B00MU 00UU 12UN99 000000
601AL038013 6040000604290352270DOTHAN                  ALA   040328050A003A54MA 19MB 12UN99 000000
601AL038013 6040000604290352270DOTHAN                  ALA   050328050A001A36MB 23MB 20AQ99 000000
601AL038013 6040000604290352270DOTHAN                  ALA   070328050A001A51MW 20MB 12UN99 000000
601AL038013 6040000604290352270DOTHAN                  ALA   100328050A001A21FB 24MB 12UN99 000000
601AL038013 6040000604290352270DOTHAN                  ALA   100427051A002B01FB 00UU 12UN99 000000
601AL038013 6040000604290352270DOTHAN                  ALA   120414051A001A42FW 51MW 12WI99 000000
601AL039008B604000031569036   0JACKSON                 ALA   060328050A001A33MW 67MW 14AQ99 000000
601AL039008B604000031569036   0JACKSON                 ALA   060328050A002A46MW 60MW 14ST05 000000
601AL039015 604000014873036   0SCOTTSBORO              ALA   040328050A001A32FW 32MW 12AQ99 000000
601AL041009B6040000479540392771LAUDERDALE              ALA   030328050A001A38MW 38FW 12BF45 000000
601AL041014 6040000360860392770FLORENCE                ALA   090328050A001A19MB 32MB 12AQ99 000000
601AL043009B6040000471380410571LEE                     ALA   030328050A001A25MW 33MW 14UN99 000000
601AL043009B6040000471380410571LEE                     ALA   030328050A002A19MW 33MW 14UN99 000000
601AL043009B6040000471380410571LEE                     ALA   030328050A003A24MW 33MW 14UN99 000000
601AL043009B6040000471380410571LEE                     ALA   070328050A001A34MW 29MW 40AQ45 000000
601AL043009B6040000471380410571LEE                     ALA   070328050A002A18FB 47MB 20DA45 000000
601AL043009B6040000471380410571LEE                     ALA   080328050A001A73MB 25MW 14UN99 000000
601AL043014 6040000472300410570AUBURN                  ALA   040328050A001A40MB 39MB 20AQ45 000000
601AL043014 6040000472300410570AUBURN                  ALA   080328050A001A33FB 48MB 12AQ45 000000
601AL043025 6040000237620410570OPELIKA                 ALA   060328050A001A24FB 32MB 12UN45 000000
601AL043025 6040000237620410570OPELIKA                 ALA   070328050A001A46MB 37MB 12AQ99 000000
601AL046015 604000011738044   0TUSKEGEE                ALA   010328050A001A29FB 32MB 12GF99 000000
601AL046015 604000011738044   0TUSKEGEE                ALA   090328050A001A32MB 27MB 20AQ99 000000
601AL047012 6040001653110453680HUNTSVILLE              ALA   020406051A001B43FB 00UU 90UN99 000000
601AL047012 6040001653110453680HUNTSVILLE              ALA   030328050A001A19MB 49FB 20SO45 000000
601AL047012 6040001653110453680HUNTSVILLE              ALA   030328050A002A56FB 52MB 90WI45 000000
601AL047012 6040001653110453680HUNTSVILLE              ALA   050328050A001A39MW 24MB 14UN99 000000
601AL047012 6040001653110453680HUNTSVILLE              ALA   120328050A001A46MW 36MB 12UN99 000000
601AL047012 6040001653110453680HUNTSVILLE              ALA   120328050A002A27MB 00MU 12UN45 000000
601AL048008C604000012158046   0MARENGO                 ALA   100328050A001A44MB 45MB 14AQ45 000000
601AL050008B604000043663048   0MARSHALL                ALA   010328050A001A47MW 17MW 12AQ99 000000
601AL051008C604000015235050   0MONROE                  ALA   070328050A001A32MB 00MB 12OF40 000000
601AL051016 604000006792050   0MONROEVILLE             ALA   010328050A001A58FW 28MW 90MO45 000000
601AL051016 604000006792050   0MONROEVILLE             ALA   010328050A002A58MW 28MW 90FA45 000000
601AL051016 604000006792050   0MONROEVILLE             ALA   060328050A001A33MB 34MB 12AQ99 000000
601AL052009B6040000409950522101MORGAN                  ALA   050427051A001B30MA 00UU 40UN45 000000
601AL052009B6040000409950522101MORGAN                  ALA   070328050A001A27MI 35FI 12BF45 000000
601AL052013 6040000545940522100DECATUR                 ALA   010328050A001A42FB 61MB 40CW99 000000
601AL055015 604000013676055   0TROY                    ALA   120328050A001A34MB 21MB 12ST45 000000
601AL056008C604000014435056   0RANDOLPH                ALA   080328050A001A25MB 29MB 12UN99 000000
601AL057009C6040000222960571841RUSSELL                 ALA   050328050A001A17MW 19MW 14AQ44 000000
601AL057009C6040000222960571841RUSSELL                 ALA   050328050A002A18MW 19MW 14AQ44 000000
601AL057014 6040000286300571841PHENIX CITY             ALA   040328050A001A70MW 50MW 90UN45 000000
601AL057014 6040000286300571841PHENIX CITY             ALA   080328050A001A37MW 23MB 12UN99 000000
601AL057014 6040000286300571841PHENIX CITY             ALA   080328050A002A28MB 23MB 12AQ99 000000
601AL058015 6040000103820580981PELL CITY               ALA   090328050A001A24MB 29FB 20CH45 000000
601AL058015 6040000103820580981PELL CITY               ALA   110328050A001A35MW 30MW 12AQ99 000000
601AL059009B6040000714430590981SHELBY                  ALA   080328050A001A51MW 62MW 12FR45 000000
601AL059009B6040000714430590981SHELBY                  ALA   100328050A001A23MB 23MB 12AQ99 000000
601AL059009B6040000714430590981SHELBY                  ALA   120328050A001A15FW 40MW 40SD99 000000
601AL059016 6040000051640590981CALERA                  ALA   090523051A001A20MB 59MW 12AQ45 000000
601AL059016 6040000051640590981CALERA                  ALA   090110061A002A47MW 52MB 20ST45 000000
601AL059044 6040000256280590981ALABASTER               ALA   030421051A001B43MB 00UU 12UN99 000000
601AL060016 604000002715060   0YORK                    ALA   050328050A001A32MB 23MB 12AQ99 000000
601AL062026 604000003174062   0DADEVILLE               ALA   100328050A001A21MB 18MB 12AQ18 000000
601AL063009B6040000667550639151TUSCALOOSA              ALA   050328050A001A42FW 18MW 14MO45 000000
601AL063009B6040000667550639151TUSCALOOSA              ALA   060328050A001A49FW 45MW 20GF45 000000
601AL063009B6040000667550639151TUSCALOOSA              ALA   080328050A001A15FW 43MB 12SD45 000000
601AL063009B6040000667550639151TUSCALOOSA              ALA   100328050A001A39FW 53MW 20GF45 000000
601AL063009B6040000667550639151TUSCALOOSA              ALA   100328050A002A50MW 54MW 12NE40 000000
601AL063009B6040000667550639151TUSCALOOSA              ALA   110328050A001A30MW 50FW 12AQ45 000000
601AL063013 6040000798120639150TUSCALOOSA              ALA   010328050A001A25FB 26MB 12GF45 000000
601AL063013 6040000798120639150TUSCALOOSA              ALA   010328050A002A25MB 18MB 12ST99 000000
601AL063013 6040000798120639150TUSCALOOSA              ALA   010328050A003A84MB 19FB 40ST99 000000
601AL063013 6040000798120639150TUSCALOOSA              ALA   040328050A001A36MW 18MW 90ST99 000000
601AL063013 6040000798120639150TUSCALOOSA              ALA   070523051A001A56MB 37FB 12OF45 000000
601AL063013 6040000798120639150TUSCALOOSA              ALA   070328050A003A56MB 37FB 12OF41 000000
601AL063013 6040000798120639150TUSCALOOSA              ALA   080328050A001A35MB 30MB 90AQ45 000000
601AL063013 6040000798120639150TUSCALOOSA              ALA   090328050A001A52MW 42MB 20ST99 000000
601AL063013 6040000798120639150TUSCALOOSA              ALA   110328050A001A47MB 20MB 12ST99 000000
601AL063013 6040000798120639150TUSCALOOSA              ALA   120328050A001A68FB 45FW 90ST99 000000
601AL064009B6040000441810640981WALKER                  ALA   070328050A001A39MB 29MB 12AQ45 000000
601AL066017 604000002239066   0CAMDEN                  ALA   010328050A001A24MB 33MB 20FR99 000000
601AL067008C604000019347067   0WINSTON                 ALA   060328050A001A36MW 54MW 14AQ45 000000
601AL067026 604000004155067   0HALEYVILLE              ALA   060328050A001A41MB 41MB 14HU99 000000
601AL067026 604000004155067   0HALEYVILLE              ALA   060328050A002A32FW 41MB 14WI99 000000
602AZ002008B804000049187002   0COCHISE                 ARIZ  051209040A001A20MWN18MWN12FR60 000000
602AZ002008B804000049187002   0COCHISE                 ARIZ  100329050A001A43MWH40MWN12ST60 000000
602AZ002008B804000049187002   0COCHISE                 ARIZ  100329050A002A25MWH19MWH12ST60 000000
602AZ002008B804000049187002   0COCHISE                 ARIZ  110401050A001A45MWN46FWN12HU45 000000
602AZ002094 804000041005002   0SIERRA VISTA            ARIZ  010723040A001B45FBN00UUU12UN99 000000
602AZ003009B8040000528150032751COCONINO                ARIZ  051209040A001B43MWN00UUU12UN99 000000
602AZ003009B8040000528150032751COCONINO                ARIZ  080323050A001F40FWN00UUU14UN99 00100017FWN
602AZ003009B8040000528150032751COCONINO                ARIZ  120403050A001B17MIN00UUU20UN99 000000
602AZ003013 8040000575260032750FLAGSTAFF               ARIZ  010819040A001C19MIN19MWH12AQ18 000001                                                  31MWH12AQ18
602AZ003013 8040000575260032750FLAGSTAFF               ARIZ  070321050A001C47MIN27MIN40AQ45 000001                                                  34MIN40AQ45
602AZ003013 8040000575260032750FLAGSTAFF               ARIZ  110401050A001A57MWN52MBN30AQ18 000000
602AZ004016 804000007466004   0GLOBE                   ARIZ  041104040B001ABBMBH25FBN90SO59 000000
602AZ007009A8040002899620076621MARICOPA                ARIZ  010723040A001B35FBN00UUU30UN99 000000
602AZ007009A8040002899620076621MARICOPA                ARIZ  020819040A001A84MWN43MWN30FA45 000000
602AZ007009A8040002899620076621MARICOPA                ARIZ  030920040A001A31MWN29MWN12ST60 000000
602AZ007009A8040002899620076621MARICOPA                ARIZ  030920040A002B30MWN00UUU12UN99 000000
602AZ007009A8040002899620076621MARICOPA                ARIZ  041104040A001C35MWH16MWN13ST60 000002                                                  15MWN13ST60 23MWN13ST60
602AZ007009A8040002899620076621MARICOPA                ARIZ  041104040A002A79MWN45MWN12FA45 000000
602AZ007009A8040002899620076621MARICOPA                ARIZ  041104040A003B27FBN00UUU12UN99 000000
602AZ007009A8040002899620076621MARICOPA                ARIZ  041104040A004B26MWH00UUU12UN99 000000
602AZ007009A8040002899620076621MARICOPA                ARIZ  080323050A001B25MWH00UUU13UN99 000000
602AZ007009A8040002899620076621MARICOPA                ARIZ  100329050A001C22MWN18MWN14FR18 000001                                                  23MWN14FR18
602AZ007009A8040002899620076621MARICOPA                ARIZ  110401050A001A44FWN30MWN12SI60 000000
602AZ007009A8040002899620076621MARICOPA                ARIZ  120403050A001B17MWH00UUU12UN99 000000
602AZ007052 8040002174710076620CHANDLER                ARIZ  010723040A001A34MWH43MBN12ST81A000000
602AZ007052 8040002174710076620CHANDLER                ARIZ  070321050A001A19MWN23MWN20AQ45 000000
602AZ007052 8040002174710076620CHANDLER                ARIZ  090328050A001A28FWH30MWH20GF45 000000
602AZ007052 8040002174710076620CHANDLER                ARIZ  110401050A001A34MWH00MWH12ST03 000000
602AZ007112 8040001494930076620GILBERT                 ARIZ  020819040A001A50MWH31MWN12ST80C000000
602AZ007112 8040001494930076620GILBERT                 ARIZ  030920040A001A39MWN45MWN12AQ45 000000
602AZ007132 8040002396400076620GLENDALE                ARIZ  020819040A001B35MWN00UUU12UN45 000000
602AZ007132 8040002396400076620GLENDALE                ARIZ  020819040A002A14MWH17MWH12AQ47 000000
602AZ007132 8040002396400076620GLENDALE                ARIZ  030920040A001A20MWH21MWH20HO45 000000
602AZ007132 8040002396400076620GLENDALE                ARIZ  051209040A001C23MWH15MWH12ST45 000002                                                  15MWH12ST45 17MWH12ST45
602AZ007132 8040002396400076620GLENDALE                ARIZ  051209040A002A29MWH30MWH12ST45 000000
602AZ007132 8040002396400076620GLENDALE                ARIZ  060124050A001C35FWH23MWH12ST26 000001                                                  24MWH12ST26
602AZ007132 8040002396400076620GLENDALE                ARIZ  060124050A002B25MWH00UUU12UN99 000000
602AZ007132 8040002396400076620GLENDALE                ARIZ  070406051A001A25MW 00MW 12ST99 000000
602AZ007132 8040002396400076620GLENDALE                ARIZ  070321050A002A37MWN20MWH12ST60 000000
602AZ007132 8040002396400076620GLENDALE                ARIZ  070321050A003A26MWH26MWH20ST60 000000
602AZ007132 8040002396400076620GLENDALE                ARIZ  070321050A004A59FWN61MWN30GF45 000000
602AZ007132 8040002396400076620GLENDALE                ARIZ  080323050A001A20MBN25MWH12AQ18 000000
602AZ007132 8040002396400076620GLENDALE                ARIZ  080323050A002B19MWH00UUU12UN99 000000
602AZ007132 8040002396400076620GLENDALE                ARIZ  080323050A003A66MWN35MWN12ST81A000000
602AZ007132 8040002396400076620GLENDALE                ARIZ  100329050A001C29MWN20MWH13ST45 000001                                                  21MWH13ST45
602AZ007132 8040002396400076620GLENDALE                ARIZ  110401050A001A25MBN25MBN12ST99 000000
602AZ007132 8040002396400076620GLENDALE                ARIZ  110401050A002A10MWH29MWH14OF45 000000
602AZ007132 8040002396400076620GLENDALE                ARIZ  120403050A001F37MWH00UUU14UN99 00100070MWN
602AZ007132 8040002396400076620GLENDALE                ARIZ  120403050B002A05MWH26MWH12AQ53 000000
602AZ007154 8040000329020076621GOODYEAR                ARIZ  030920040A001B00FUU00UUU12UN99 000000
602AZ007171C8040004450060076620MESA                    ARIZ  010723040A001A28MWH00MUU12UN99 000000
602AZ007171C8040004450060076620MESA                    ARIZ  010723040A002A26FWN69MWN30OF45 000000
602AZ007171C8040004450060076620MESA                    ARIZ  010723040A003A17FIN18MIN12FR60 000000
602AZ007171C8040004450060076620MESA                    ARIZ  010723040A004B39FWN00UUU12UN99 000000
602AZ007171C8040004450060076620MESA                    ARIZ  020819040A001B00MWH00UUU12UN99 000000
602AZ007171C8040004450060076620MESA                    ARIZ  020819040A002ABBFBN20FBN40DA60 000000
602AZ007171C8040004450060076620MESA                    ARIZ  030920040A001A02MWN21MWN40AQ60 000000
602AZ007171C8040004450060076620MESA                    ARIZ  030920040A002A25MWH28MWN12AQ45 000000
602AZ007171C8040004450060076620MESA                    ARIZ  030920040A003A22MWH30MWN12ST81A000000
602AZ007171C8040004450060076620MESA                    ARIZ  041104040A001C29MWN00MWN12ST45 000001                                                  00MWN12ST45
602AZ007171C8040004450060076620MESA                    ARIZ  041104040A002A20MWH19MWN12AQ45 000000
602AZ007171C8040004450060076620MESA                    ARIZ  051209040A001A41FWN17MWN20ST05 000000
602AZ007171C8040004450060076620MESA                    ARIZ  051209040A002A23MWH00MWH20UN45 000000
602AZ007171C8040004450060076620MESA                    ARIZ  051209040A003B21MWN00UUU12UN99 000000
602AZ007171C8040004450060076620MESA                    ARIZ  051209040A004A27MWH27MWN12ST81A000000
602AZ007171C8040004450060076620MESA                    ARIZ  070321050A001A54MWN48FWN80HU45 000000
602AZ007171C8040004450060076620MESA                    ARIZ  090328050A001A85FWN49MWN30MO60 000000
602AZ007171C8040004450060076620MESA                    ARIZ  100329050A001B20MWH00UUU12UN99 000000
602AZ007171C8040004450060076620MESA                    ARIZ  110401050A001B21FWN00UUU80UN99 000000
602AZ007171C8040004450060076620MESA                    ARIZ  110401050A002C20MAN19MAN40ST60 000002                                                  18MAN40ST60 14MAN40ST60
602AZ007171C8040004450060076620MESA                    ARIZ  110401050A003F14MWH00UUU12UN99 00100016MWH
602AZ007171C8040004450060076620MESA                    ARIZ  110401050A004A21MIN35MWN12ST81A000000
602AZ007171C8040004450060076620MESA                    ARIZ  110401050A005C44MWN26MWN12ST81A000002                                                  28MWN12ST81A39MWN12ST81A
602AZ007171C8040004450060076620MESA                    ARIZ  120403050A001B00MWH00UUU30UN99 000000
602AZ007171C8040004450060076620MESA                    ARIZ  120403050A002B22FWH00UUU90UN99 000000
602AZ007195 8040000145830076621PARADISE VALLEY         ARIZ  041104040A001B32MWH00UUU12UN99 000000
602AZ007212 8040001313070076620PEORIA                  ARIZ  010401050A001D40FWH42MWH30ST99 00100074MWH
602AZ007212 8040001313070076620PEORIA                  ARIZ  020401050A001A30MWH51MWH12ST45 000000
602AZ007212 8040001313070076620PEORIA                  ARIZ  030401050A001A41MWH30FWH20HU45 000000
602AZ007212 8040001313070076620PEORIA                  ARIZ  030401050A002A31FWN41MWH30WI45 000000
602AZ007212 8040001313070076620PEORIA                  ARIZ  070401050A001A01MWN22MWN40OK41 000000
602AZ007212 8040001313070076620PEORIA                  ARIZ  070401050A002A26MWN22MWN40ST42 000000
602AZ007212 8040001313070076620PEORIA                  ARIZ  070401050A003A68MWN22MWH30AQ03 000000
602AZ007212 8040001313070076620PEORIA                  ARIZ  120403050A001A45FWN33MWN30FR45 000000
602AZ007231A8040014289730076620PHOENIX                 ARIZ  010723040A001B36MWH00UUU12UN99 000000
602AZ007231A8040014289730076620PHOENIX                 ARIZ  010723040A002A21MWH00MWH12UN99 000000
602AZ007231A8040014289730076620PHOENIX                 ARIZ  010723040A003B23MBN00UUU13UN18 000000
602AZ007231A8040014289730076620PHOENIX                 ARIZ  010723040A004A05FWH21MWH40OK60 000000
602AZ007231A8040014289730076620PHOENIX                 ARIZ  010723040A005B47MBN00UUU11UN99 000000
602AZ007231A8040014289730076620PHOENIX                 ARIZ  010723040A006A46FWH34MWH12GF45 000000
602AZ007231A8040014289730076620PHOENIX                 ARIZ  010723040A007A42MWH00MWH12ST03 000000
602AZ007231A8040014289730076620PHOENIX                 ARIZ  010723040A008C18MWH00MWH13ST03 000001                                                  32MWH12ST03
602AZ007231A8040014289730076620PHOENIX                 ARIZ  010723040A009A24MBN22MWH12ST03 000000
602AZ007231A8040014289730076620PHOENIX                 ARIZ  010723040A010A26FWH31MWH12OK60 000000
602AZ007231A8040014289730076620PHOENIX                 ARIZ  010723040A011A53MWN33MWN40AQ45 000000
602AZ007231A8040014289730076620PHOENIX                 ARIZ  010723040A012B73MWN00UUU12UN03 000000
602AZ007231A8040014289730076620PHOENIX                 ARIZ  010723040A013D00MWH00MWH12ST03 00100032MWH
602AZ007231A8040014289730076620PHOENIX                 ARIZ  010723040A014A25MWN00MUU14UN99 000000
602AZ007231A8040014289730076620PHOENIX                 ARIZ  010723040A015B31MBN00UUU13UN99 000000
602AZ007231A8040014289730076620PHOENIX                 ARIZ  010723040A016B24MWH00UUU12UN99 000000
602AZ007231A8040014289730076620PHOENIX                 ARIZ  010723040A017B35MWH00UUU12UN99 000000
602AZ007231A8040014289730076620PHOENIX                 ARIZ  010723040A018B22MWH00UUU11UN99 000000
602AZ007231A8040014289730076620PHOENIX                 ARIZ  010723040A019C22MWH00MWH12AQ45 000001                                                  00MWH12AQ45
602AZ007231A8040014289730076620PHOENIX                 ARIZ  010723040A020B19FBN00UUU30UN99 000000
602AZ007231A8040014289730076620PHOENIX                 ARIZ  010723040A021A31MWH29MWH12FR45 000000
602AZ007231A8040014289730076620PHOENIX                 ARIZ  010723040A023A29MWH00MWH12ST45 000000
602AZ007231A8040014289730076620PHOENIX                 ARIZ  010723040A024C25MWH30MWN12ST81A000001                                                  32MWH12ST81A
602AZ007231A8040014289730076620PHOENIX                 ARIZ  010723040B025A22MWH25MWH12AQ53 000000
602AZ007231A8040014289730076620PHOENIX                 ARIZ  020819040A001B20MWH00UUU12UN42 000000
602AZ007231A8040014289730076620PHOENIX                 ARIZ  020902041A002D37MB 24MB 12OF45 00200037MB 63FB
602AZ007231A8040014289730076620PHOENIX                 ARIZ  020819040A003A69MWN21MWH12ST03 000000
602AZ007231A8040014289730076620PHOENIX                 ARIZ  020819040A004A55MBN00MWN12AQ18 000000
602AZ007231A8040014289730076620PHOENIX                 ARIZ  020819040A005B27MWH00UUU12UN99 000000
602AZ007231A8040014289730076620PHOENIX                 ARIZ  020819040A006A42MBN00MWH12AQ45 000000
602AZ007231A8040014289730076620PHOENIX                 ARIZ  020819040A007A24MWH21MWH12AQ45 000000
602AZ007231A8040014289730076620PHOENIX                 ARIZ  020819040A008A18MWH00MWH12ST18 000000
602AZ007231A8040014289730076620PHOENIX                 ARIZ  020819040A009A36MWH00MWH12ST99 000000
602AZ007231A8040014289730076620PHOENIX                 ARIZ  020819040A010A52MWN29MIN80FR03 000000
602AZ007231A8040014289730076620PHOENIX                 ARIZ  020819040A011A38MWH20MWH12ST45 000000
602AZ007231A8040014289730076620PHOENIX                 ARIZ  020819040B012A40MWN36MWN12FR53 000000
602AZ007231A8040014289730076620PHOENIX                 ARIZ  030920040A001A93FWN74MWN30MO45 000000
602AZ007231A8040014289730076620PHOENIX                 ARIZ  030920040A002C22MWH00MWH40AQ18 000004                                                  00MWH40AQ18 00MWH40AQ18 28MWH40AQ18 32MWH40AQ18
602AZ007231A8040014289730076620PHOENIX                 ARIZ  030920040A003B22MWH00UUU12UN99 000000
602AZ007231A8040014289730076620PHOENIX                 ARIZ  030920040A004A32MWH28MWH20BR42 000000
602AZ007231A8040014289730076620PHOENIX                 ARIZ  030920040A005A29MWH24MWH12ST45 000000
602AZ007231A8040014289730076620PHOENIX                 ARIZ  030920040A006B29MWH00UUU20UN99 000000
602AZ007231A8040014289730076620PHOENIX                 ARIZ  030920040A007B37FWN00UUU30UN60 000000
602AZ007231A8040014289730076620PHOENIX                 ARIZ  031008041A008E19MW 23MW 12ST45 00100127MW                                              21MW 12ST45
602AZ007231A8040014289730076620PHOENIX                 ARIZ  030920040A009B35MWH00UUU30UN99 000000
602AZ007231A8040014289730076620PHOENIX                 ARIZ  030920040A010B31MWN00UUU30UN03 000000
602AZ007231A8040014289730076620PHOENIX                 ARIZ  030920040A011ABBMWN23MWN40SO60 000000
602AZ007231A8040014289730076620PHOENIX                 ARIZ  030920040A012A35MWH25MWH12AQ45 000000
602AZ007231A8040014289730076620PHOENIX                 ARIZ  030920040A013B22MWH00UUU12UN99 000000
602AZ007231A8040014289730076620PHOENIX                 ARIZ  030920040A014A22MWH28MWH12ST45 000000
602AZ007231A8040014289730076620PHOENIX                 ARIZ  030124051A015A23MBN17MBN12AQ80C000000
602AZ007231A8040014289730076620PHOENIX                 ARIZ  030920040A016A57MWN00MBN12ST03 000000
602AZ007231A8040014289730076620PHOENIX                 ARIZ  030920040A017A32MWN47MWN12OK80C000000
602AZ007231A8040014289730076620PHOENIX                 ARIZ  030920040A018C37MWN38MWN12ST81A000001                                                  48MWN12ST81A
602AZ007231A8040014289730076620PHOENIX                 ARIZ  030920040A019C38MIN26MWN12ST81A000001                                                  29MWN12ST81A
602AZ007231A8040014289730076620PHOENIX                 ARIZ  030920040A020A38MWN27FWN12ST81A000000
602AZ007231A8040014289730076620PHOENIX                 ARIZ  041104040A001A14MBN47MBN12OF60 000000
602AZ007231A8040014289730076620PHOENIX                 ARIZ  041104040A002C57MWH00MWN30ST03 000001                                                  00MWN30ST03
602AZ007231A8040014289730076620PHOENIX                 ARIZ  041104040A003A21MBN00MBN12ST45 000000
602AZ007231A8040014289730076620PHOENIX                 ARIZ  041104040A004A24MWN00MWH13NE18 000000
602AZ007231A8040014289730076620PHOENIX                 ARIZ  041104040A005A34MWH00MWH12UN99 000000
602AZ007231A8040014289730076620PHOENIX                 ARIZ  041104040A006A19MWH00MWH12ST99 000000
602AZ007231A8040014289730076620PHOENIX                 ARIZ  041104040A007A31MBN29MWH12AQ45 000000
602AZ007231A8040014289730076620PHOENIX                 ARIZ  041104040A008A24MWH00MWH12ST45 000000
602AZ007231A8040014289730076620PHOENIX                 ARIZ  041104040A009A18MWH00MWH12AQ45 000000
602AZ007231A8040014289730076620PHOENIX                 ARIZ  041110041A010A33MW 33MW 12FR60 000000
602AZ007231A8040014289730076620PHOENIX                 ARIZ  041104040A011A38MWH00MWH12ST18 000000
602AZ007231A8040014289730076620PHOENIX                 ARIZ  041104040A012A35MWH46MWN13ST81A000000
602AZ007231A8040014289730076620PHOENIX                 ARIZ  041104040A013A22MWH33MWH12NE80C000000
602AZ007231A8040014289730076620PHOENIX                 ARIZ  041104040A014A37MWN42MWN20AQ80C000000
602AZ007231A8040014289730076620PHOENIX                 ARIZ  041110041A015E19MW 41MW 13ST81A00100121FW                                              50MW 12ST81A
602AZ007231A8040014289730076620PHOENIX                 ARIZ  041104040A016C42MWN30MWN13ST81A000001                                                  30MWN13ST81A
602AZ007231A8040014289730076620PHOENIX                 ARIZ  041110041A017C36MW 26MW 12ST81A000003                                                  35MW 13ST81A38MW 13ST81A40MW 13ST81A
602AZ007231A8040014289730076620PHOENIX                 ARIZ  041104040A018A32MWH40MWN12ST81A000000
602AZ007231A8040014289730076620PHOENIX                 ARIZ  041104040A019A38MWH63MWH12ST80E000000
602AZ007231A8040014289730076620PHOENIX                 ARIZ  051209040A001A24MWN17MWN30AQ45 000000
602AZ007231A8040014289730076620PHOENIX                 ARIZ  051209040A002A28MWH18MWH20AQ44 000000
602AZ007231A8040014289730076620PHOENIX                 ARIZ  051209040A003B20MWH00UUU11UN03 000000
602AZ007231A8040014289730076620PHOENIX                 ARIZ  051209040A004C34MWH00MWH12AQ44 000001                                                  36MWH12AQ44
602AZ007231A8040014289730076620PHOENIX                 ARIZ  051209040A005B53MBN00UUU12UN99 000000
602AZ007231A8040014289730076620PHOENIX                 ARIZ  051209040A006B37FWN00UUU11UN18 000000
602AZ007231A8040014289730076620PHOENIX                 ARIZ  051209040A007A23MWH00MWH12ST60 000000
602AZ007231A8040014289730076620PHOENIX                 ARIZ  051209040A008A41MWN42MWN12ST06 000000
602AZ007231A8040014289730076620PHOENIX                 ARIZ  051209040A009B45MWH00UUU12UN99 000000
602AZ007231A8040014289730076620PHOENIX                 ARIZ  051209040A010A18MBN43MBN12AQ45 000000
602AZ007231A8040014289730076620PHOENIX                 ARIZ  051209040A011A61MWN61FWN12HU45 000000
602AZ007231A8040014289730076620PHOENIX                 ARIZ  051209040B012A13MWN16MWH12FR52 000000
602AZ007231A8040014289730076620PHOENIX                 ARIZ  051209040B013A35MWH28MWH12FR53 000000
602AZ007231A8040014289730076620PHOENIX                 ARIZ  060124050A001D21MWH22MWH12FR44 00100022MWH
602AZ007231A8040014289730076620PHOENIX                 ARIZ  060124050A002A36MWH25MWH12OF45 000000
602AZ007231A8040014289730076620PHOENIX                 ARIZ  060124050A003A24MWH18MWH20AQ45 000000
602AZ007231A8040014289730076620PHOENIX                 ARIZ  060124050A004A26MWH24MWH13ST18 000000
602AZ007231A8040014289730076620PHOENIX                 ARIZ  060124050A005A56MWH00MWH12ST45 000000
602AZ007231A8040014289730076620PHOENIX                 ARIZ  060124050A006A33FWN40MBN12OK45 000000
602AZ007231A8040014289730076620PHOENIX                 ARIZ  060124050A007D22FWH16MWH14FR44 00100022MWH
602AZ007231A8040014289730076620PHOENIX                 ARIZ  060124050A008A24MWH00MWH12ST03 000000
602AZ007231A8040014289730076620PHOENIX                 ARIZ  060124050A009A38MBN39MBN12NE45 000000
602AZ007231A8040014289730076620PHOENIX                 ARIZ  060124050A010A37MWN17MBN12ST03 000000
602AZ007231A8040014289730076620PHOENIX                 ARIZ  060124050A011B24FBN00UUU12UN99 000000
602AZ007231A8040014289730076620PHOENIX                 ARIZ  060124050A012B65FWN00UUU20UN99 000000
602AZ007231A8040014289730076620PHOENIX                 ARIZ  060124050A013A19MBN19MBN12ST45 000000
602AZ007231A8040014289730076620PHOENIX                 ARIZ  060124050A014C32MBN00MBN12ST03 000001                                                  00MBN12ST03
602AZ007231A8040014289730076620PHOENIX                 ARIZ  070321050A001A34MWN00MWN40ST45 000000
602AZ007231A8040014289730076620PHOENIX                 ARIZ  070321050A002A17MBN16MBN12OF45 000000
602AZ007231A8040014289730076620PHOENIX                 ARIZ  070321050A003A47MWN47MBN12ST44 000000
602AZ007231A8040014289730076620PHOENIX                 ARIZ  070321050A004B15FWN00UUU80UN99 000000
602AZ007231A8040014289730076620PHOENIX                 ARIZ  070321050A006A24MIN00MBN12ST46 000000
602AZ007231A8040014289730076620PHOENIX                 ARIZ  070321050A007A29MIN31MWH12ST18 000000
602AZ007231A8040014289730076620PHOENIX                 ARIZ  070321050A008A23MWH23MWH12ST46 000000
602AZ007231A8040014289730076620PHOENIX                 ARIZ  070321050A009A41MWH21MWH40AQ60 000000
602AZ007231A8040014289730076620PHOENIX                 ARIZ  070321050A010A52MWH25MWH30AQ44 000000
602AZ007231A8040014289730076620PHOENIX                 ARIZ  070321050A011B20MWH00UUU13UN99 000000
602AZ007231A8040014289730076620PHOENIX                 ARIZ  070321050A012A26MWH00MBN13ST18 000000
602AZ007231A8040014289730076620PHOENIX                 ARIZ  070321050A013B00MWH00UUU12UN99 000000
602AZ007231A8040014289730076620PHOENIX                 ARIZ  070321050A014B23MWH00UUU12ST46 000000
602AZ007231A8040014289730076620PHOENIX                 ARIZ  070321050A015A52MWN56MWN30BR45 000000
602AZ007231A8040014289730076620PHOENIX                 ARIZ  070321050A016A30MWH00MWH13ST60 000000
602AZ007231A8040014289730076620PHOENIX                 ARIZ  070321050A017F15MIN00UUU12UN99 00100021FIN
602AZ007231A8040014289730076620PHOENIX                 ARIZ  070321050A018A42FWN31MWN13OK45 000000
602AZ007231A8040014289730076620PHOENIX                 ARIZ  070321050A019A18MBN00MBN12ST60 000000
602AZ007231A8040014289730076620PHOENIX                 ARIZ  070321050A020C41MWH00MWH12AQ99 000001                                                  00MWH12AQ99
602AZ007231A8040014289730076620PHOENIX                 ARIZ  070321050A021A43MWH28MWN12ST81A000000
602AZ007231A8040014289730076620PHOENIX                 ARIZ  070406051B022A14MW 19MW 14AQ53 000000
602AZ007231A8040014289730076620PHOENIX                 ARIZ  080323050A001A25MWH00MWH12ST18 000000
602AZ007231A8040014289730076620PHOENIX                 ARIZ  080323050A002BBBMWN00UUU40UN60 000000
602AZ007231A8040014289730076620PHOENIX                 ARIZ  080323050A003A41FWN41MWN12GF45 000000
602AZ007231A8040014289730076620PHOENIX                 ARIZ  080323050A004B31MWH00UUU12UN03 000000
602AZ007231A8040014289730076620PHOENIX                 ARIZ  080323050A005A49FWN44MWN85GF45 000000
602AZ007231A8040014289730076620PHOENIX                 ARIZ  080323050A006A40MWN36MWN13AQ45 000000
602AZ007231A8040014289730076620PHOENIX                 ARIZ  080323050A007B26MWH00UUU12UN99 000000
602AZ007231A8040014289730076620PHOENIX                 ARIZ  080323050A008C23MWH00MWH12ST03 000001                                                  00MWH12ST03
602AZ007231A8040014289730076620PHOENIX                 ARIZ  080323050A009A19MWH00MWH12ST42 000000
602AZ007231A8040014289730076620PHOENIX                 ARIZ  080323050A010B28FIN00UUU12UN99 000000
602AZ007231A8040014289730076620PHOENIX                 ARIZ  080323050A011A51FWN51MWN12WI45 000000
602AZ007231A8040014289730076620PHOENIX                 ARIZ  080323050A012A42MWH00MWH12ST03 000000
602AZ007231A8040014289730076620PHOENIX                 ARIZ  080323050A013B53FWN00UUU12UN03 000000
602AZ007231A8040014289730076620PHOENIX                 ARIZ  080323050A014B28MWH00UUU12UN99 000000
602AZ007231A8040014289730076620PHOENIX                 ARIZ  080323050A015D27MWN29MWN12ST60 00100030MWN
602AZ007231A8040014289730076620PHOENIX                 ARIZ  080323050A016B24MWH00UUU13UN60 000000
602AZ007231A8040014289730076620PHOENIX                 ARIZ  080323050A017A05MWN37MWN70SO60 000000
602AZ007231A8040014289730076620PHOENIX                 ARIZ  080323050A018A20MWH22MWH13ST60 000000
602AZ007231A8040014289730076620PHOENIX                 ARIZ  080323050A019B36FWN00UUU85UN99 000000
602AZ007231A8040014289730076620PHOENIX                 ARIZ  080323050A020A27MWH29MWH12OF80C000000
602AZ007231A8040014289730076620PHOENIX                 ARIZ  080323050A021A18MWH26MWH12FR80C000000
602AZ007231A8040014289730076620PHOENIX                 ARIZ  080429051A022A27MW 25MW 12ST60 000000
602AZ007231A8040014289730076620PHOENIX                 ARIZ  080429051A023A25MW 27MW 12ST80C000000
602AZ007231A8040014289730076620PHOENIX                 ARIZ  080323050B024A21MWN21MBN12FR53 000000
602AZ007231A8040014289730076620PHOENIX                 ARIZ  090328050A001B44MWN00UUU30UN99 000000
602AZ007231A8040014289730076620PHOENIX                 ARIZ  090328050A002A47MWN30MWH14ST45 000000
602AZ007231A8040014289730076620PHOENIX                 ARIZ  090328050A003A30MWH00MWH12ST99 000000
602AZ007231A8040014289730076620PHOENIX                 ARIZ  090328050A004A44MWN24MWH12IL45 000000
602AZ007231A8040014289730076620PHOENIX                 ARIZ  090328050A005B30MWH00UUU12UN99 000000
602AZ007231A8040014289730076620PHOENIX                 ARIZ  090328050A006A27MBN16MBN12AQ44 000000
602AZ007231A8040014289730076620PHOENIX                 ARIZ  090328050A007B30MWN00UUU12UN03 000000
602AZ007231A8040014289730076620PHOENIX                 ARIZ  090328050A008B28MWH00UUU12UN03 000000
602AZ007231A8040014289730076620PHOENIX                 ARIZ  090328050A009A24MWH26MWH12AQ45 000000
602AZ007231A8040014289730076620PHOENIX                 ARIZ  090328050A010F22MWN00UUU12UN18 00200024MWN24FWN
602AZ007231A8040014289730076620PHOENIX                 ARIZ  090328050A011D36FWN38MWN40SI60 00100059FWN
602AZ007231A8040014289730076620PHOENIX                 ARIZ  090401050A012A45MWN00MBN30ST99 000000
602AZ007231A8040014289730076620PHOENIX                 ARIZ  090328050A013B21MWH00UUU12UN99 000000
602AZ007231A8040014289730076620PHOENIX                 ARIZ  090328050A014B44MWH00UUU90UN99 000000
602AZ007231A8040014289730076620PHOENIX                 ARIZ  090328050A015B27MWN00UUU12UN03 000000
602AZ007231A8040014289730076620PHOENIX                 ARIZ  090328050A016B41MWH00UUU12UN99 000000
602AZ007231A8040014289730076620PHOENIX                 ARIZ  090328050A017B20MWH00UUU12UN99 000000
602AZ007231A8040014289730076620PHOENIX                 ARIZ  090328050A018A45MWH00MWH20UN99 000000
602AZ007231A8040014289730076620PHOENIX                 ARIZ  090328050A019A28MBN22MWH12ST80E000000
602AZ007231A8040014289730076620PHOENIX                 ARIZ  100329050A001B57MWN00UUU40UN99 000000
602AZ007231A8040014289730076620PHOENIX                 ARIZ  100329050A002A32FBN36MBN12WI45 000000
602AZ007231A8040014289730076620PHOENIX                 ARIZ  100329050A003A24MWH45MWH12ST60 000000
602AZ007231A8040014289730076620PHOENIX                 ARIZ  100329050A004B21MWH00UUU11UN99 000000
602AZ007231A8040014289730076620PHOENIX                 ARIZ  100329050A005B21MWH00UUU12UN99 000000
602AZ007231A8040014289730076620PHOENIX                 ARIZ  100329050A006A73MWH50MWN65AQ45 000000
602AZ007231A8040014289730076620PHOENIX                 ARIZ  100329050A007D26FWN26MWN20NE18 00100038MWN
602AZ007231A8040014289730076620PHOENIX                 ARIZ  100329050A008B26MWH00UUU12UN18 000000
602AZ007231A8040014289730076620PHOENIX                 ARIZ  100329050A009D23MWH00MWH12UN99 00100030MWH
602AZ007231A8040014289730076620PHOENIX                 ARIZ  100329050A010B45MWN00UUU12UN99 000000
602AZ007231A8040014289730076620PHOENIX                 ARIZ  100329050A011B18MWH00UUU20UN45 000000
602AZ007231A8040014289730076620PHOENIX                 ARIZ  100329050A012B23MWH00UUU11UN99 000000
602AZ007231A8040014289730076620PHOENIX                 ARIZ  100329050A013A18MWN00MBN12ST60 000000
602AZ007231A8040014289730076620PHOENIX                 ARIZ  100329050A014B17MWH00UUU11UN99 000000
602AZ007231A8040014289730076620PHOENIX                 ARIZ  100329050A015A17MWH00MWH12ST45 000000
602AZ007231A8040014289730076620PHOENIX                 ARIZ  100329050B016A26MWH21MWH12OF53 000000
602AZ007231A8040014289730076620PHOENIX                 ARIZ  110401050A001A27MWH20MWH20AQ40 000000
602AZ007231A8040014289730076620PHOENIX                 ARIZ  110401050A002A41MWH00MWH12ST03 000000
602AZ007231A8040014289730076620PHOENIX                 ARIZ  110401050A003A24MBN00MBN12AQ99 000000
602AZ007231A8040014289730076620PHOENIX                 ARIZ  110401050A004B34MWH00UUU12UN99 000000
602AZ007231A8040014289730076620PHOENIX                 ARIZ  110401050A005A28FWH28MWH12GF60 000000
602AZ007231A8040014289730076620PHOENIX                 ARIZ  110401050A006B58FWH00UUU20UN99 000000
602AZ007231A8040014289730076620PHOENIX                 ARIZ  110401050A007B29MWH00UUU12UN99 000000
602AZ007231A8040014289730076620PHOENIX                 ARIZ  110401050A008A26MWH20MWH13ST45 000000
602AZ007231A8040014289730076620PHOENIX                 ARIZ  110401050A009A22MWH00MWH12ST60 000000
602AZ007231A8040014289730076620PHOENIX                 ARIZ  110401050A010C40MWN18MBN12ST03 000001                                                  21MBN12ST03
602AZ007231A8040014289730076620PHOENIX                 ARIZ  110401050A011A21MWH20MWH13ST45 000000
602AZ007231A8040014289730076620PHOENIX                 ARIZ  110401050A012A43MWH22MWH20ST45 000000
602AZ007231A8040014289730076620PHOENIX                 ARIZ  110401050A013A31MWH00MWH12AQ18 000000
602AZ007231A8040014289730076620PHOENIX                 ARIZ  110401050A014A24MWH35MWN12ST03 000000
602AZ007231A8040014289730076620PHOENIX                 ARIZ  110401050A015B00MWH00UUU14UN18 000000
602AZ007231A8040014289730076620PHOENIX                 ARIZ  110401050A016A34MWN40MWN12ST81E000000
602AZ007231A8040014289730076620PHOENIX                 ARIZ  110401050B017A17FWN23MWN12GF53 000000
602AZ007231A8040014289730076620PHOENIX                 ARIZ  120403050A001B26MBN00UUU12UN03 000000
602AZ007231A8040014289730076620PHOENIX                 ARIZ  120403050A002A48MWN00MUU12ST03 000000
602AZ007231A8040014289730076620PHOENIX                 ARIZ  120403050A003B35MWH00UUU12UN99 000000
602AZ007231A8040014289730076620PHOENIX                 ARIZ  120403050A004A52FWH57MWH12GF45 000000
602AZ007231A8040014289730076620PHOENIX                 ARIZ  120403050A005A31MWH20MWN12AQ03 000000
602AZ007231A8040014289730076620PHOENIX                 ARIZ  120403050A006A65MWN48MWN40BF45 000000
602AZ007231A8040014289730076620PHOENIX                 ARIZ  120403050A007A41MWH00MBN13ST03 000000
602AZ007231A8040014289730076620PHOENIX                 ARIZ  120403050A008A56MWN29MWH20BF45 000000
602AZ007231A8040014289730076620PHOENIX                 ARIZ  120403050A009B37MBN00UUU12UN03 000000
602AZ007231A8040014289730076620PHOENIX                 ARIZ  120403050A010A26MWH00MBN13ST03 000000
602AZ007231A8040014289730076620PHOENIX                 ARIZ  120403050A011A22MWN00MWH12UN18 000000
602AZ007231A8040014289730076620PHOENIX                 ARIZ  120403050A012A27MIN26MIN20AQ42 000000
602AZ007231A8040014289730076620PHOENIX                 ARIZ  120403050A013F17MWH00UUU12UN99 00200020MWH27MWH
602AZ007231A8040014289730076620PHOENIX                 ARIZ  120403050A014B33MWN00UUU12UN99 000000
602AZ007231A8040014289730076620PHOENIX                 ARIZ  120403050A015A18MWH00MWH12ST45 000000
602AZ007231A8040014289730076620PHOENIX                 ARIZ  120403050A016A26MWH00MWH12FR44 000000
602AZ007231A8040014289730076620PHOENIX                 ARIZ  120403050A017A36MWH51MWN12ST81B000000
602AZ007252 8040002243570076620SCOTTSDALE              ARIZ  030920040A001A21FIN30MAN12WI45 000000
602AZ007252 8040002243570076620SCOTTSDALE              ARIZ  051209040A001A27MWH22MWH12ST99 000000
602AZ007252 8040002243570076620SCOTTSDALE              ARIZ  051209040A002A27MWH30MWN12AQ44 000000
602AZ007252 8040002243570076620SCOTTSDALE              ARIZ  060124050A001A34MWH26MWH12IL45 000000
602AZ007292 8040001635210076620TEMPE                   ARIZ  030920040A001BNBFWU00UUU90UN99 000000
602AZ007292 8040001635210076620TEMPE                   ARIZ  041104040A001A02FBN31MBN40OK41 000000
602AZ007292 8040001635210076620TEMPE                   ARIZ  051209040A001A19MWN19MWN40FR42 000000
602AZ007292 8040001635210076620TEMPE                   ARIZ  051209040A002C69MAN00MBN12ST45 000004                                                  18MBN12ST45 17MBN12ST45 17MBN12ST45 19MBN12ST45
602AZ007292 8040001635210076620TEMPE                   ARIZ  060124050A001A29MWH26MWH12ST44 000000
602AZ007292 8040001635210076620TEMPE                   ARIZ  090328050A001A35MWH32MWH13NE42 000000
602AZ007292 8040001635210076620TEMPE                   ARIZ  120403050A001A27MWH00MUU40ST45 000000
602AZ007292 8040001635210076620TEMPE                   ARIZ  120403050A002A77FWN78MWN12WI60 000000
602AZ008008B804000060942008   0MOHAVE                  ARIZ  060321050A001A62MWN54MWH12NE45 000000
602AZ008008B804000060942008   0MOHAVE                  ARIZ  070321050A001C81MWN27MWN12AQ03 000001                                                  42MWN12AQ03
602AZ008008B804000060942008   0MOHAVE                  ARIZ  080401050A001D62FWN70MWN12AQ45 00200046MWN39MWN
602AZ008008B804000060942008   0MOHAVE                  ARIZ  100401050A001B62FWN00UUU12UN99 000000
602AZ008015 804000023543008   0KINGMAN                 ARIZ  120403050A001A18MBN35MWN12ST81A000000
602AZ008043 804000050559008   0LAKE HAVASU CITY        ARIZ  020819040A001A19MWN54MBN12AQ40 000000
602AZ008043 804000050559008   0LAKE HAVASU CITY        ARIZ  080323050A001B30FWN00UUU12UN99 000000
602AZ008043 804000050559008   0LAKE HAVASU CITY        ARIZ  100329050A001A34MWN30MWN12ST81E000000
602AZ008054 804000037314008   0BULLHEAD CITY           ARIZ  051209040A001A40MWN35MWN13AQ80C000000
602AZ008054 804000037314008   0BULLHEAD CITY           ARIZ  080323050A001B39MWN00UUU20UN99 000000
602AZ008054 804000037314008   0BULLHEAD CITY           ARIZ  090328050A001C18FWN20FWN20AQ45 000002                                                  22MWN20AQ45 29MAN20AQ45
602AZ009008B804000070340009   0NAVAJO                  ARIZ  010723040A001A80MWN16MWN12ST05 000000
602AZ009008B804000070340009   0NAVAJO                  ARIZ  020819040A001A39MWN39MWN65AQ42 000000
602AZ009008B804000070340009   0NAVAJO                  ARIZ  051209040A001B36MIN00UUU90UN99 000000
602AZ009095 804000010111009   0WINSLOW                 ARIZ  041104040A001A30MIN28MWH20AQ42 000000
602AZ009095 804000010111009   0WINSLOW                 ARIZ  080323050A001A01MWH19MWH40OK60 000000
602AZ010009A8040003305080109061PIMA                    ARIZ  010723040A001B78FBN00UUU20UN99 000000
602AZ010009A8040003305080109061PIMA                    ARIZ  010723040A002A58MWN26MWH12FR44 000000
602AZ010009A8040003305080109061PIMA                    ARIZ  010723040A003B35FWN00UUU20UN99 000000
602AZ010009A8040003305080109061PIMA                    ARIZ  020819040A001A30MWH46MWH13NE45 000000
602AZ010009A8040003305080109061PIMA                    ARIZ  020819040A002A54FWN75MWN12WI60 000000
602AZ010009A8040003305080109061PIMA                    ARIZ  020819040A003A16MIN26MIN20OF44 000000
602AZ010009A8040003305080109061PIMA                    ARIZ  020819040A004B21FWH00UUU12UN99 000000
602AZ010009A8040003305080109061PIMA                    ARIZ  020819040A005A46FWN30MWN14ST81A000000
602AZ010009A8040003305080109061PIMA                    ARIZ  030920040A001B00MWH00UUU12UN99 000000
602AZ010009A8040003305080109061PIMA                    ARIZ  030920040A002A23MWN20MWH12ST42 000000
602AZ010009A8040003305080109061PIMA                    ARIZ  030920040A003A18MWH21MWH12FR60 000000
602AZ010009A8040003305080109061PIMA                    ARIZ  041104040A001A28MWN31MWN12AQ45 000000
602AZ010009A8040003305080109061PIMA                    ARIZ  041104040A002B47MBN00UUU12UN99 000000
602AZ010009A8040003305080109061PIMA                    ARIZ  041104040A003B27MWH00UUU12UN45 000000
602AZ010009A8040003305080109061PIMA                    ARIZ  041104040A004B26MWH00UUU12UN99 000000
602AZ010009A8040003305080109061PIMA                    ARIZ  051209040A001A58MWN35MWN12ST81A000000
602AZ010009A8040003305080109061PIMA                    ARIZ  060124050A001B52MWH00UUU12UN99 000000
602AZ010009A8040003305080109061PIMA                    ARIZ  070321050A001B24MWH00UUU12UN99 000000
602AZ010009A8040003305080109061PIMA                    ARIZ  080323050A001A47MWN46MWN12AQ18 000000
602AZ010009A8040003305080109061PIMA                    ARIZ  080323050A002B44MWH00UUU14UN99 000000
602AZ010009A8040003305080109061PIMA                    ARIZ  090328050A001B19MWH00UUU13UN99 000000
602AZ010009A8040003305080109061PIMA                    ARIZ  100406051A001A36MW 38MW 20ST45 000000
602AZ010009A8040003305080109061PIMA                    ARIZ  100329050A002B46MWN00UUU12UN99 000000
602AZ010009A8040003305080109061PIMA                    ARIZ  100329050A003B00MUU00UUU12UN99 000000
602AZ010009A8040003305080109061PIMA                    ARIZ  120403050A001A71MWN17MWN40ST05 000000
602AZ010016 8040000056800109061SOUTH TUCSON            ARIZ  051209040A001B47MWN00UUU30UN99 000000
602AZ010016 8040000056800109061SOUTH TUCSON            ARIZ  051209040A002B59MWH00UUU12UN99 000000
602AZ010031B8040005224870109060TUCSON                  ARIZ  010723040A001B39MBN00UUU12UN99 000000
602AZ010031B8040005224870109060TUCSON                  ARIZ  010723040A002C41MBN23MWH13ST18 000002                                                  33FAN13ST18 45MBN13AQ18
602AZ010031B8040005224870109060TUCSON                  ARIZ  010723040A003A26MWH22MWH12ST45 000000
602AZ010031B8040005224870109060TUCSON                  ARIZ  010723040A004A83MBN27MBN20AQ03 000000
602AZ010031B8040005224870109060TUCSON                  ARIZ  020819040A001B20MWH00UUU12UN99 000000
602AZ010031B8040005224870109060TUCSON                  ARIZ  020819040A002B35MBN00UUU12UN99 000000
602AZ010031B8040005224870109060TUCSON                  ARIZ  020819040A003D37FWH40MWN20GF45 00100075MWH
602AZ010031B8040005224870109060TUCSON                  ARIZ  020819040A004B38MWH00UUU30UN45 000000
602AZ010031B8040005224870109060TUCSON                  ARIZ  020819040A005A37MWN24MWN30AQ45 000000
602AZ010031B8040005224870109060TUCSON                  ARIZ  020819040A006B27MWH00UUU20UN70 000000
602AZ010031B8040005224870109060TUCSON                  ARIZ  020819040A007A36MWH32MWN85ST45 000000
602AZ010031B8040005224870109060TUCSON                  ARIZ  020819040A008A40MWN35MWN13ST81A000000
602AZ010031B8040005224870109060TUCSON                  ARIZ  030920040A001B45MWH00UUU12UN18 000000
602AZ010031B8040005224870109060TUCSON                  ARIZ  030920040A002B25MWH00UUU12UN18 000000
602AZ010031B8040005224870109060TUCSON                  ARIZ  030920040A003B19MWH00UUU12UN45 000000
602AZ010031B8040005224870109060TUCSON                  ARIZ  030920040A004A58MWN52MWN40AQ45 000000
602AZ010031B8040005224870109060TUCSON                  ARIZ  030920040A005C19MWH21MWH13ST45 000002                                                  20MBN13ST45 25FWH13ST45
602AZ010031B8040005224870109060TUCSON                  ARIZ  030920040A006B24MBN00UUU12UN99 000000
602AZ010031B8040005224870109060TUCSON                  ARIZ  030920040A007B24MWH00UUU12UN99 000000
602AZ010031B8040005224870109060TUCSON                  ARIZ  030920040A008A45MWN40MWN20BR45 000000
602AZ010031B8040005224870109060TUCSON                  ARIZ  041104040A001A00MUU38MWH20AQ60 000000
602AZ010031B8040005224870109060TUCSON                  ARIZ  041104040A002A23MBN22MBN12AQ45 000000
602AZ010031B8040005224870109060TUCSON                  ARIZ  041104040A003A18MBN21MWN14AQ44 000000
602AZ010031B8040005224870109060TUCSON                  ARIZ  041104040A004A42MWH35MWN12ST81A000000
602AZ010031B8040005224870109060TUCSON                  ARIZ  051209040A001A57FWN51MWN12WI60 000000
602AZ010031B8040005224870109060TUCSON                  ARIZ  060124050A001A85FWN00MWN40ST03 000000
602AZ010031B8040005224870109060TUCSON                  ARIZ  060124050A002B35MWH00UUU85UN99 000000
602AZ010031B8040005224870109060TUCSON                  ARIZ  060124050A003A31MWN35MWN12AQ45 000000
602AZ010031B8040005224870109060TUCSON                  ARIZ  060124050A004B32MWN00UUU12UN99 000000
602AZ010031B8040005224870109060TUCSON                  ARIZ  070321050A001B36MWH00UUU12UN99 000000
602AZ010031B8040005224870109060TUCSON                  ARIZ  070406051A002E25MW 24MW 13AQ18 00100133MW                                              18MW 13AQ18
602AZ010031B8040005224870109060TUCSON                  ARIZ  070321050A003A57FWN51MWN30AQ60 000000
602AZ010031B8040005224870109060TUCSON                  ARIZ  080328050A001A24MWH20MWN12FR45 000000
602AZ010031B8040005224870109060TUCSON                  ARIZ  080328050A002B33MWH00UUU12UN99 000000
602AZ010031B8040005224870109060TUCSON                  ARIZ  080328050A003A30MBN20MWH12ST60 000000
602AZ010031B8040005224870109060TUCSON                  ARIZ  080328050A004B43FWH00UUU12UN99 000000
602AZ010031B8040005224870109060TUCSON                  ARIZ  090328050A001D16MWH20MWH13AQ45 00100019MWH
602AZ010031B8040005224870109060TUCSON                  ARIZ  090328050A002A65MWN39MWH12AQ45 000000
602AZ010031B8040005224870109060TUCSON                  ARIZ  090328050A003A25MWN23MWH12FR60 000000
602AZ010031B8040005224870109060TUCSON                  ARIZ  090328050A004A44FWH25MWH20AQ45 000000
602AZ010031B8040005224870109060TUCSON                  ARIZ  100329050A001A32FWH20MWH12GF45 000000
602AZ010031B8040005224870109060TUCSON                  ARIZ  100329050A002A28MWH29MWH20AQ44 000000
602AZ010031B8040005224870109060TUCSON                  ARIZ  100329050A003A27FWN47MWN20ST60 000000
602AZ010031B8040005224870109060TUCSON                  ARIZ  100329050A004A26MWN26MWH12AQ18 000000
602AZ010031B8040005224870109060TUCSON                  ARIZ  100329050A005B28MBN00UUU12UN45 000000
602AZ010031B8040005224870109060TUCSON                  ARIZ  100329050A006B20MBN00UUU12UN99 000000
602AZ010031B8040005224870109060TUCSON                  ARIZ  110401050A001A02MWH37FWH85SO60 000000
602AZ010031B8040005224870109060TUCSON                  ARIZ  110401050A002B40MWN00UUU12UN99 000000
602AZ010031B8040005224870109060TUCSON                  ARIZ  110401050A003A22MBN34MWN12ST81A000000
602AZ010031B8040005224870109060TUCSON                  ARIZ  120425051A001A23MW 33MW 12AQ42 000000
602AZ010031B8040005224870109060TUCSON                  ARIZ  120403050A002B41FWH00UUU12UN18 000000
602AZ010031B8040005224870109060TUCSON                  ARIZ  120403050A003C55MWH16MWH30AQ45 000001                                                  21FWH30FA45
602AZ010031B8040005224870109060TUCSON                  ARIZ  120403050A004B16MWH00UUU12UN03 000000
602AZ010031B8040005224870109060TUCSON                  ARIZ  120403050A005A31MWH31MWH20AQ45 000000
602AZ010031B8040005224870109060TUCSON                  ARIZ  120403050A006B25MWH00UUU20UN18 000000
602AZ010031B8040005224870109060TUCSON                  ARIZ  120403050A007A48MWH30MWN12ST81A000000
602AZ010095 8040000209270109061MARANA                  ARIZ  030920040A001ABBFWN18MWN40DA60 000000
602AZ011009A8040001012980116621PINAL                   ARIZ  010403050A001B43MWH00UUU12UN99 000000
602AZ011009A8040001012980116621PINAL                   ARIZ  020403050A001B00MWH00UUU20UN99 000000
602AZ011009A8040001012980116621PINAL                   ARIZ  030403050A001B16MWH00UUU13UN99 000000
602AZ011009A8040001012980116621PINAL                   ARIZ  040403050A001B00MWH00UUU12UN99 000000
602AZ011009A8040001012980116621PINAL                   ARIZ  040403050A002B69MWN00UUU12UN99 000000
602AZ011009A8040001012980116621PINAL                   ARIZ  050403050A001D04FWH43MWH12DA45 00100038FWH
602AZ011009A8040001012980116621PINAL                   ARIZ  070403050A001A81FWN77MWN12WI60 000000
602AZ011009A8040001012980116621PINAL                   ARIZ  100403050A001A22MWN21MWN14ST99 000000
602AZ011009A8040001012980116621PINAL                   ARIZ  120403050A001B23MWN00UUU12UN99 000000
602AZ011009A8040001012980116621PINAL                   ARIZ  120403050A002B27MWH00UUU12UN99 000000
602AZ011036 8040000086060116621COOLIDGE                ARIZ  060328050A001C44MIN17MIN20AQ42 000001                                                  22MWH20AQ42
602AZ011134 8040000350210116621APACHE JUNCTION         ARIZ  041104040A001A30FWN37MWH13WI45 000000
602AZ013009B8040000799840136881YAVAPAI                 ARIZ  051209040A001D74MWN21MWN12AQ99 00100065MWN
602AZ013035 8040000104900136881COTTONWOOD              ARIZ  060403050A001A27MIN40MWH12AQ60 000000
602AZ013074 8040000386740136880PRESCOTT                ARIZ  031209040B001A38MWN38MWN12FR53 000000
602AZ013074 8040000386740136880PRESCOTT                ARIZ  110401050A001A57MWN59MWN12FR44 000000
602AZ014053 8040000839890149920YUMA                    ARIZ  020819040A001B43MWH00UUU20UN99 000000
602AZ014053 8040000839890149920YUMA                    ARIZ  030920040A001A47MWH25MWH20ST99 000000
602AZ014053 8040000839890149920YUMA                    ARIZ  110401050A001A33MWN29MWH12ST03 000000
603AR001026 704000009491001   0STUTTGART               ARK   050406060A001A22MW 22MW 20UN60 000000
603AR002008C704000014915002   0ASHLEY                  ARK   060329050A001A41MWU32MWU11OF45 000000
603AR004009B7040000684790042701BENTON                  ARK   020329050A001A31MWU29FWU13HU43 000000
603AR004009B7040000684790042701BENTON                  ARK   070329050A002A26FWU29MWU12GF99 000000
603AR004024 7040000432180042700ROGERS                  ARK   070329050A001C29MWU26MWH20AQ45 000001                                                  50MWU20AQ45
603AR007017 704000001544007   0HAMPTON                 ARK   070406060A001A38MB 22MB 12UN99 000000
603AR008008C704000016705008   0CARROLL                 ARK   110406060A001B46MW 00UU 90UN60 000000
603AR009026 704000002690009   0EUDORA                  ARK   040825040A001A31MBU23MBU12AQ45 000000
603AR009036 704000002729009   0LAKE VILLAGE            ARK   120406060A001A29MB 27MB 11BR60 000000
603AR010008D704000009756010   0CLARK                   ARK   110406060A001A42FB 55MB 11WI45 000000
603AR010015 704000011145010   0ARKADELPHIA             ARK   080406060A001B74FW 00UU 90UN99 000000
603AR013009D7040000074850136641CLEVELAND               ARK   110406060A001A35MB 40MB 12UN45 000000
603AR014008C704000014630014   0COLUMBIA                ARK   050406060A001B42MW 00UU 20UN99 000000
603AR014008C704000014630014   0COLUMBIA                ARK   120406060A001A35MW 32MW 13AQ99 000000
603AR014015 704000010651014   0MAGNOLIA                ARK   020825040A001A67MBN43MBU12AQ45 000000
603AR016009C7040000235130163961CRAIGHEAD               ARK   060406060A001C51MW 43FW 20UN99 000001                                                  44FW 20UN99
603AR016013 7040000580020163960JONESBORO               ARK   090406060A001C37MB 22MB 11UN99 000002                                                  23UB 11UN99 22MB 11UN99
603AR016013 7040000580020163960JONESBORO               ARK   110406060A001C39MB 23MB 12UN03 000002                                                  22MB 12UN03 22MB 12UN03
603AR018009C7040000112040185191CRITTENDEN              ARK   050406060A001B00MW 00UU 90UN99 000000
603AR018009C7040000112040185191CRITTENDEN              ARK   120406060A001F68MB 00UU 90UN99 00100000FW
603AR018014 7040000282910185191WEST MEMPHIS            ARK   030406060A001A00MU 26MB 90UN60 000000
603AR018014 7040000282910185191WEST MEMPHIS            ARK   070406060A001C24MB 32MB 12AQ45 000001                                                  00MB 12AQ45
603AR018014 7040000282910185191WEST MEMPHIS            ARK   070406060A002A68FW 41MW 90UN99 000000
603AR021036 704000005015021   0DUMAS                   ARK   010406060A001A46MB 46MW 12UN60 000000
603AR021036 704000005015021   0DUMAS                   ARK   040406060A001A35FB 39MB 20UN99 000000
603AR021036 704000005015021   0DUMAS                   ARK   090406060A001ANBFB 29MB 90DA99 000000
603AR023009B7040000369800234691FAULKNER                ARK   050406051A001A48FW 49MW 90WI99 000000
603AR023009B7040000369800234691FAULKNER                ARK   080406060A001B00MW 00UU 90UN99 000000
603AR023014 7040000483120234691CONWAY                  ARK   040825040A001A79MWU51MWU14SS45 000000
603AR023014 7040000483120234691CONWAY                  ARK   070329050A001B91MBU00UUU11UN99 000000
603AR023014 7040000483120234691CONWAY                  ARK   110329050A002A20MBU22MBU11AQ45 000000
603AR026009B7040000541320263561GARLAND                 ARK   020406060A001C01MW 23MW 90UN60 000001                                                  30MW 90UN60
603AR026014 7040000371330263560HOT SPRINGS             ARK   010406060A001A42MW 44MW 12UN99 000000
603AR026014 7040000371330263560HOT SPRINGS             ARK   040406060A001A48MW 56MW 12AQ45 000000
603AR026014 7040000371330263560HOT SPRINGS             ARK   040406060A002A22FW 22MB 90GF99 000000
603AR026014 7040000371330263560HOT SPRINGS             ARK   050406060A001A50MB 26MB 40AQ45 000000
603AR026014 7040000371330263560HOT SPRINGS             ARK   050406060A002A40MW 31MB 11AQ99 000000
603AR026014 7040000371330263560HOT SPRINGS             ARK   070406060A001C27FW 32MB 12UN99 000001                                                  29MB 12UN99
603AR026014 7040000371330263560HOT SPRINGS             ARK   080406060A001B20MB 00UU 11UN99 000000
603AR030016 704000009100030   0MALVERN                 ARK   090329050A001A49MBU22MBU11ST99 000000
603AR031008D704000007095031   0HOWARD                  ARK   070406060A001C69MW 22MW 14UN05 000001                                                  14FW 14UN05
603AR031008D704000007095031   0HOWARD                  ARK   070406060A002A69MW 14FW 14UN05 000000
603AR032008B704000033537032   0INDEPENDENCE            ARK   070329050A001A28FWU37MWU12XW45 000000
603AR032008B704000033537032   0INDEPENDENCE            ARK   110329050A001A41MWU25MWU12AQ45 000000
603AR033008C704000011062033   0IZARD                   ARK   090406060A001B22FW 00UU 30UN99 000000
603AR035009C7040000218790356641JEFFERSON               ARK   010406060A001A43MW 42FW 12UN45 000000
603AR035009C7040000218790356641JEFFERSON               ARK   090406060A001A00MW 43MW 90UN60 000000
603AR035013 7040000544370356640PINE BLUFF              ARK   030329050A001A53FBU18MBU12AQ43 000000
603AR035013 7040000544370356640PINE BLUFF              ARK   050329050A002A21MBU23MBU12ST42 000000
603AR035013 7040000544370356640PINE BLUFF              ARK   050329050A003A24MBU37FBU12BF40 000000
603AR035013 7040000544370356640PINE BLUFF              ARK   060329050A004A25MBU25MBU11UN99 000000
603AR035013 7040000544370356640PINE BLUFF              ARK   070329050A005A48MBU23MBU90AQ18 000000
603AR035013 7040000544370356640PINE BLUFF              ARK   070329050A006A03FBU29FBU40UN99 000000
603AR035013 7040000544370356640PINE BLUFF              ARK   080329050A007C19MBU21MBU14AQ03 000003                                                  17MBU14AQ03 15MBU14AQ03 16MBU14AQ03
603AR035013 7040000544370356640PINE BLUFF              ARK   120329050A008B24MBN00UUU12UN99 000000
603AR035013 7040000544370356640PINE BLUFF              ARK   120329050A009A28MBU25MBU12AQ43 000000
603AR037037 704000001255037   0LEWISVILLE              ARK   100406060A001A00MB 00FB 20BF45 000000
603AR039016 704000004937039   0MARIANNA                ARK   030406060A001B70MB 00UU 14UN99 000000
603AR040009C7040000121600406641LINCOLN                 ARK   100406060A001B69MB 00UU 12UN05 000000
603AR040017 7040000012480406641GOULD                   ARK   110406060A001A20MB 31MB 13UN45 000000
603AR040027 7040000023850406641STAR CITY               ARK   040406060A001A29MB 30MB 12UN45 000000
603AR042008C704000015118042   0LOGAN                   ARK   020406060A001E20MW 25MW 20ST99 00100221MW                                              23MW 20ST99 20MW 20ST99
603AR042008C704000015118042   0LOGAN                   ARK   100406060A001A34MW 27MW 90AQ99 000000
603AR043009B7040000261430434691LONOKE                  ARK   100406060A001A00MW 50MW 11UN99 000000
603AR043046 7040000044880434691LONOKE                  ARK   040406060A001A21FW 21MW 90FR45 000000
603AR046014 7040000291850468870TEXARKANA               ARK   010329050A001A42FBU45MBU90WI45 000000
603AR046014 7040000291850468870TEXARKANA               ARK   040825040A001A28MBU61MBU20AQ45 000000
603AR046014 7040000291850468870TEXARKANA               ARK   080329050A001B71MBU00UUU11UN99 000000
603AR047008C704000015502047   0MISSISSIPPI             ARK   080406060A001B81FB 00UU 20UN99 000000
603AR047015 704000017261047   0BLYTHEVILLE             ARK   070329050A001B63MWU00UUU80UN03 000000
603AR047015 704000017261047   0BLYTHEVILLE             ARK   110329050A001C32MBU17MBU12AQ42 000001                                                  20MBU12AQ42
603AR052015 704000012644052   0CAMDEN                  ARK   030406060A001C48MW 19MB 40UN99 000001                                                  30MB 40UN99
603AR052015 704000012644052   0CAMDEN                  ARK   090406060A001A30FB 33MB 90WI99 000000
603AR054026 704000008142054   0WEST HELENA             ARK   110406060A001C20MB 21MB 12AQ43 000001                                                  33MB 12AQ43
603AR058008C704000024716058   0POPE                    ARK   110329050A001A28MWN07MWN12OF26 000000
603AR060009B7040000555170604691PULASKI                 ARK   010329050A001A29MBU00MBU12ST45 000000
603AR060009B7040000555170604691PULASKI                 ARK   010329050A002A91MBU00MBU30AQ99 000000
603AR060009B7040000555170604691PULASKI                 ARK   020825040A002A00FBU00MBU65WI45 000000
603AR060009B7040000555170604691PULASKI                 ARK   020825040A003ABBFBU00MBU65DA45 000000
603AR060009B7040000555170604691PULASKI                 ARK   030825040A001B47MBU00UUU20UN99 000000
603AR060009B7040000555170604691PULASKI                 ARK   050825040A004A00MBU27FBU90AQ45 000000
603AR060009B7040000555170604691PULASKI                 ARK   050825040A005B43MBU00UUU12ST99 000000
603AR060014 7040000306930604691JACKSONVILLE            ARK   120414051A001A16MB 22MB 12ST45 000000
603AR060022 7040001858700604690LITTLE ROCK             ARK   010329050A001B55MWU00UUU12UN99 000000
603AR060022 7040001858700604690LITTLE ROCK             ARK   010329050A002B42MWU00UUU12UN99 000000
603AR060022 7040001858700604690LITTLE ROCK             ARK   010329050A003A35MBU32MBU12ST26 000000
603AR060022 7040001858700604690LITTLE ROCK             ARK   010329050A004A42MBU00UBU12UN99 000000
603AR060022 7040001858700604690LITTLE ROCK             ARK   020329050A005C18MWU17MBU20UN45 000003                                                  20MBU20UN45 18MBU20UN45 16MBU20UN45
603AR060022 7040001858700604690LITTLE ROCK             ARK   020329050A006A49MBU45FBU20BF45 000000
603AR060022 7040001858700604690LITTLE ROCK             ARK   020329050A007B22MBU00UUU12UN18 000000
603AR060022 7040001858700604690LITTLE ROCK             ARK   030329050A008B42MBU00UUU12UN45 000000
603AR060022 7040001858700604690LITTLE ROCK             ARK   030329050A009B26MBU00UUU12UN45 000000
603AR060022 7040001858700604690LITTLE ROCK             ARK   040329050A010A47MWU69MWU12SO45 000000
603AR060022 7040001858700604690LITTLE ROCK             ARK   040329050A011A23MBU45MBU12IL45 000000
603AR060022 7040001858700604690LITTLE ROCK             ARK   050329050A012A42FBU54MWU12AQ45 000000
603AR060022 7040001858700604690LITTLE ROCK             ARK   050329050A013A32MWU63MWU12SO45 000000
603AR060022 7040001858700604690LITTLE ROCK             ARK   060329050A014A38MWU45MBU12UN45 000000
603AR060022 7040001858700604690LITTLE ROCK             ARK   060329050A015B46MWU00UUU12UN99 000000
603AR060022 7040001858700604690LITTLE ROCK             ARK   060329050A016A28MBU21MBU12AQ99 000000
603AR060022 7040001858700604690LITTLE ROCK             ARK   060329050A017B28MBU00UUU12UN99 000000
603AR060022 7040001858700604690LITTLE ROCK             ARK   060329050A018A26MBU21MBU12AQ99 000000
603AR060022 7040001858700604690LITTLE ROCK             ARK   060329050A019B27FBU00UUU12UN99 000000
603AR060022 7040001858700604690LITTLE ROCK             ARK   070329050A020B74MWU00UUU12UN99 000000
603AR060022 7040001858700604690LITTLE ROCK             ARK   070329050A021B28MBU00UUU12UN99 000000
603AR060022 7040001858700604690LITTLE ROCK             ARK   070329050A022A27MWU22MBU12UN45 000000
603AR060022 7040001858700604690LITTLE ROCK             ARK   080329050A023C28MBU22MBU12UN03 000001                                                  23MBU12UN03
603AR060022 7040001858700604690LITTLE ROCK             ARK   080329050A024A31FWU28MBU20WI45 000000
603AR060022 7040001858700604690LITTLE ROCK             ARK   080329050A025A57FWU42FWU12UN03 000000
603AR060022 7040001858700604690LITTLE ROCK             ARK   090329050A026A58MWU25MBU12ST03 000000
603AR060022 7040001858700604690LITTLE ROCK             ARK   090329050A027A24MBU00MBU12UN99 000000
603AR060022 7040001858700604690LITTLE ROCK             ARK   100329050A032B90FWU00UUU30UN99 000000
603AR060022 7040001858700604690LITTLE ROCK             ARK   100329050A033B89FWU00UUU30UN99 000000
603AR060022 7040001858700604690LITTLE ROCK             ARK   100329050A034B45MBU00UUU12UN99 000000
603AR060022 7040001858700604690LITTLE ROCK             ARK   100329050A035C21MWU00UBU12ST03 000001                                                  00MBU12ST03
603AR060022 7040001858700604690LITTLE ROCK             ARK   100329050A036A14MBU22MBU12UN99 000000
603AR060022 7040001858700604690LITTLE ROCK             ARK   110329050A028A25MBU24MBU12AQ03 000000
603AR060022 7040001858700604690LITTLE ROCK             ARK   110329050A029A27MBU18MBU14UN99 000000
603AR060022 7040001858700604690LITTLE ROCK             ARK   110329050A030A57FBU48MBU12GF45 000000
603AR060022 7040001858700604690LITTLE ROCK             ARK   110329050A031B28MBU00UUU12UN43 000000
603AR060022 7040001858700604690LITTLE ROCK             ARK   120329050A037B29FBU00UUU12UN99 000000
603AR060022 7040001858700604690LITTLE ROCK             ARK   120329050A038A29MBU20MBU12UN45 000000
603AR060022 7040001858700604690LITTLE ROCK             ARK   120329050A039B30MBU00UUU12AQ18 000000
603AR060022 7040001858700604690LITTLE ROCK             ARK   120329050A040B23MBU00UUU12UN99 000000
603AR060033 7040000602760604690NORTH LITTLE ROCK       ARK   010406060A001C39MB 44MB 20OK45 000003                                                  34FB 20AQ45 29MB 20UN45 26MB 20UN45
603AR060033 7040000602760604690NORTH LITTLE ROCK       ARK   020406060A001A46MW 43MW 11AQ99 000000
603AR060033 7040000602760604690NORTH LITTLE ROCK       ARK   030406060A001A43FW 45MW 12CW99 000000
603AR060033 7040000602760604690NORTH LITTLE ROCK       ARK   040406060A001B49MW 00UU 12UN60 000000
603AR060033 7040000602760604690NORTH LITTLE ROCK       ARK   040406060A002C50MB 51MB 30IL99 000001                                                  41FB 30AQ99
603AR060033 7040000602760604690NORTH LITTLE ROCK       ARK   110406060A001A50MW 40MW 40AQ45 000000
603AR060033 7040000602760604690NORTH LITTLE ROCK       ARK   120406060A001B56MB 00UU 12UN99 000000
603AR062008C704000014306062   0ST. FRANCIS             ARK   060406060A001D44MU 43MW 12IL26 00100021MW
603AR062008C704000014306062   0ST. FRANCIS             ARK   060406060A002A22MB 26FB 65UN45 000000
603AR066013 7040000823670662850FORT SMITH              ARK   030406060A001A39MW 44MW 14OF45 000000
603AR066013 7040000823670662850FORT SMITH              ARK   060406060A001A20FW 20MW 90ST42 000000
603AR066013 7040000823670662850FORT SMITH              ARK   070406060A001C18MW 19MA 12OK46 000003                                                  17MA 12OK46 17MA 12OK46 20MA 12OK46
603AR066013 7040000823670662850FORT SMITH              ARK   100406060A001A31FW 33MW 11WI45 000000
603AR067016 704000005803067   0DE QUEEN                ARK   100406060A001D00MW 24MW 15UN07 00200061MW 38MB
603AR070015 704000021055070   0EL DORADO               ARK   050406060A001A00MW 31MW 90UN60 000000
603AR070015 704000021055070   0EL DORADO               ARK   060406060A001A25MB 19MB 12AQ99 000000
603AR070015 704000021055070   0EL DORADO               ARK   080406060A001A29MB 29MB 11UN99 000000
603AR072009B7040000463570722701WASHINGTON              ARK   060406060A001A37MW 55MW 13UN42 000000
603AR072013 7040000626910722700FAYETTEVILLE            ARK   040406060A001A48FW 60MW 20GF45 000000
603AR072013 7040000626910722700FAYETTEVILLE            ARK   050406060A001A16FB 20MB 40GF45 000000
603AR072023 7040000529890722700SPRINGDALE              ARK   040429050A001D22MW 26MW 20AQ45 00100025MW
603AR072023 7040000529890722700SPRINGDALE              ARK   050429050A001A56FW 31MW 40AQ45 000000
603AR072023 7040000529890722700SPRINGDALE              ARK   110429050A001A41MW 23MW 20AQ45 000000
603AR072023 7040000529890722700SPRINGDALE              ARK   110429050A002ABBMW 25MW 40SO60 000000
603AR072077 7040000009840722701GREENLAND               ARK   070406060A001A47MW 44MW 12AQ45 000000
603AR073008B704000037611073   0WHITE                   ARK   010406060A001A99MW 41MW 85UN99 000000
603AR073008B704000037611073   0WHITE                   ARK   060406060A001A39MW 36MW 30UN60 000000
603AR073015 704000019909073   0SEARCY                  ARK   110329050A001A21FWU38MBU12AQ45 000000
604CA001009A9040001376740017831ALAMEDA                 CALIF 020210050A001B19MWH00UUU12UN03 000000
604CA001009A9040001376740017831ALAMEDA                 CALIF 040210050A001A34MWN30MWN12ST81B000000
604CA001009A9040001376740017831ALAMEDA                 CALIF 060210050A001A24MWH23MWH12AQ45 000000
604CA001009A9040001376740017831ALAMEDA                 CALIF 060210050A002A18FWH21FWH90AQ40 000000
604CA001009A9040001376740017831ALAMEDA                 CALIF 090210050A001A45MWH22MWN12AQ03 000000
604CA001009A9040001376740017831ALAMEDA                 CALIF 110210050A001A50MAN35MWN80OK45 000000
604CA001013 9040000726330017830ALAMEDA                 CALIF 080210050A001A36MWN35MBN40AQ42 000000
604CA001025 9040000165890017831ALBANY                  CALIF 070210050A001B18MBN00UUU12UN99 000000
604CA001032 9040001032260017830BERKELEY                CALIF 070210050A001A26MBN25MBN12OK45 000000
604CA001032 9040001032260017830BERKELEY                CALIF 080210050A001B64MBN00UUU12UN05 000000
604CA001032 9040001032260017830BERKELEY                CALIF 080210050A002A23MBN21MBN12ST45 000000
604CA001032 9040001032260017830BERKELEY                CALIF 090210050A001B40MBN00UUU12UN70 000000
604CA001046 9040000074100017831EMERYVILLE              CALIF 110210050A001A22MBN18MAN12AQ45 000000
604CA001046 9040000074100017831EMERYVILLE              CALIF 110210050A002B40MBN00UUU12UN70 000000
604CA001052 9040002068840017830FREMONT                 CALIF 010210050A001B49FWN00UUU12UN99 000000
604CA001052 9040002068840017830FREMONT                 CALIF 020210050A001F39FWH00UUU30UN45 00100019FWH
604CA001052 9040002068840017830FREMONT                 CALIF 020426051A002A40MA 30MW 12ST81A000000
604CA001052 9040002068840017830FREMONT                 CALIF 100210050A001A02MWH40MWN40OK60 000000
604CA001052 9040002068840017830FREMONT                 CALIF 100210050A002A55MBN46MBN13NE45 000000
604CA001062 9040001429660017830HAYWARD                 CALIF 010210050A001F50FWN00UUU12UN03 00100045MWN
604CA001062 9040001429660017830HAYWARD                 CALIF 040210050A001A40MWH38MWH12ST45 000000
604CA001062 9040001429660017830HAYWARD                 CALIF 050210050A001B18MWH00UUU12UN47 000000
604CA001062 9040001429660017830HAYWARD                 CALIF 080210050A001C32MWN37FWN12FR45 000001                                                  43MWH12FR45
604CA001062 9040001429660017830HAYWARD                 CALIF 090210050A001B39MWH00UUU12UN99 000000
604CA001062 9040001429660017830HAYWARD                 CALIF 090210050A002B50MWH00UUU12UN99 000000
604CA001062 9040001429660017830HAYWARD                 CALIF 100406051A001A32MW 23MW 12FR45 000000
604CA001062 9040001429660017830HAYWARD                 CALIF 110406051A001A34MW 27MW 12OK45 000000
604CA001073 9040000786410017830LIVERMORE               CALIF 070210050A001A80FWN80MWN12WI45 000000
604CA001073 9040000786410017830LIVERMORE               CALIF 120406051A001A80MW 46MW 85FA45 000000
604CA001091C9040004034450017830OAKLAND                 CALIF 010302050A001A20MBN16MBN12AQ45 000000
604CA001091C9040004034450017830OAKLAND                 CALIF 010302050A002A37MBN24MBN20AQ45 000000
604CA001091C9040004034450017830OAKLAND                 CALIF 010302050A003B35MBN00UUU12UN99 000000
604CA001091C9040004034450017830OAKLAND                 CALIF 010406051A004A35MB 27MB 13ST45 000000
604CA001091C9040004034450017830OAKLAND                 CALIF 010302050A005B55FBN00UUU13UN99 000000
604CA001091C9040004034450017830OAKLAND                 CALIF 010302050A006A22MBN24MBN12AQ47 000000
604CA001091C9040004034450017830OAKLAND                 CALIF 010302050A007B52MBN00UUU12UN47 000000
604CA001091C9040004034450017830OAKLAND                 CALIF 010406051A008A39MB 31MB 20AQ45 000000
604CA001091C9040004034450017830OAKLAND                 CALIF 010302050A009B22MBN00UUU12UN45 000000
604CA001091C9040004034450017830OAKLAND                 CALIF 010406051A010A21MB 18MB 13FR45 000000
604CA001091C9040004034450017830OAKLAND                 CALIF 010302050A011A23MWH22MWH12ST45 000000
604CA001091C9040004034450017830OAKLAND                 CALIF 010302050A012A32MBN18MBN12AQ18 000000
604CA001091C9040004034450017830OAKLAND                 CALIF 010302050A013B21MBN00UUU12UN99 000000
604CA001091C9040004034450017830OAKLAND                 CALIF 010406051A014A50MB 20MB 12ST03 000000
604CA001091C9040004034450017830OAKLAND                 CALIF 020302050A001A18FBN21MBN12ST45 000000
604CA001091C9040004034450017830OAKLAND                 CALIF 020302050A002B34MWH00UUU14UN45 000000
604CA001091C9040004034450017830OAKLAND                 CALIF 020302050A003B28MBN00UUU12UN99 000000
604CA001091C9040004034450017830OAKLAND                 CALIF 020302050A004A01FBN17MBN40AQ60 000000
604CA001091C9040004034450017830OAKLAND                 CALIF 020302050A005B20MBN00UUU13UN99 000000
604CA001091C9040004034450017830OAKLAND                 CALIF 030210050A001A31MAN24MAN20AQ80C000000
604CA001091C9040004034450017830OAKLAND                 CALIF 030210050A002A24FBN27MBN80ST02 000000
604CA001091C9040004034450017830OAKLAND                 CALIF 030210050A003A18MBN25MBN12AQ45 000000
604CA001091C9040004034450017830OAKLAND                 CALIF 040210050A001A15MBN28MBN13ST47 000000
604CA001091C9040004034450017830OAKLAND                 CALIF 040210050A002A28MBN26MBN13ST80C000000
604CA001091C9040004034450017830OAKLAND                 CALIF 040210050A003A76MBN31FWN30AQ45 000000
604CA001091C9040004034450017830OAKLAND                 CALIF 040210050A004B25MBN00UUU12UN18 000000
604CA001091C9040004034450017830OAKLAND                 CALIF 040210050A005D24MBN30MBN12AQ45 00100033MBN
604CA001091C9040004034450017830OAKLAND                 CALIF 050210050A001B46MWH00UUU12UN03 000000
604CA001091C9040004034450017830OAKLAND                 CALIF 050210050A002B27MBN00UUU12UN03 000000
604CA001091C9040004034450017830OAKLAND                 CALIF 050210050A003C18MBN17MBN12OK47 000001                                                  18MBN12OK47
604CA001091C9040004034450017830OAKLAND                 CALIF 050210050A004A33MWH27MWN30AQ44 000000
604CA001091C9040004034450017830OAKLAND                 CALIF 060216051A001A31FW 42MB 90ST26 000000
604CA001091C9040004034450017830OAKLAND                 CALIF 060210050A002B22MBN00UUU12UN47 000000
604CA001091C9040004034450017830OAKLAND                 CALIF 060210050A003A15MBN18MBN12AQ47 000000
604CA001091C9040004034450017830OAKLAND                 CALIF 060210050A004B22MBN00UUU14UN99 000000
604CA001091C9040004034450017830OAKLAND                 CALIF 060210050A005A50MBN47FBN20HU45 000000
604CA001091C9040004034450017830OAKLAND                 CALIF 060210050A006B34MBN00UUU12UN45 000000
604CA001091C9040004034450017830OAKLAND                 CALIF 060210050A007B40FBN00UUU30UN99 000000
604CA001091C9040004034450017830OAKLAND                 CALIF 060210050A008B26MWN00UUU12UN03 000000
604CA001091C9040004034450017830OAKLAND                 CALIF 060210050A009B34FBN00UUU40UN99 000000
604CA001091C9040004034450017830OAKLAND                 CALIF 070210050A001B17MBN00UUU12UN99 000000
604CA001091C9040004034450017830OAKLAND                 CALIF 070210050A002A42MBN44MBN12AQ45 000000
604CA001091C9040004034450017830OAKLAND                 CALIF 070210050A003C55MBN16MBN30ST60 000002                                                  15MBN30ST60 16MBN30ST60
604CA001091C9040004034450017830OAKLAND                 CALIF 070210050A004B24MBN00UUU12UN99 000000
604CA001091C9040004034450017830OAKLAND                 CALIF 070210050A005B51MBN00UUU90UN26 000000
604CA001091C9040004034450017830OAKLAND                 CALIF 070210050A006B32MBN00UUU14UN45 000000
604CA001091C9040004034450017830OAKLAND                 CALIF 070210050A007A52MBN30MBN20AQ45 000000
604CA001091C9040004034450017830OAKLAND                 CALIF 080210050A001B22MWH00UUU12UN99 000000
604CA001091C9040004034450017830OAKLAND                 CALIF 080210050A002B18MBN00UUU13UN47 000000
604CA001091C9040004034450017830OAKLAND                 CALIF 080210050A003A56MWN60MBN40AQ80C000000
604CA001091C9040004034450017830OAKLAND                 CALIF 080210050A004A24MBN30MBN12AQ45 000000
604CA001091C9040004034450017830OAKLAND                 CALIF 080210050A005B28MBN00UUU13UN70 000000
604CA001091C9040004034450017830OAKLAND                 CALIF 080210050A006B24MBN00UUU12UN45 000000
604CA001091C9040004034450017830OAKLAND                 CALIF 080210050A007A28MBN27MBN40AQ45 000000
604CA001091C9040004034450017830OAKLAND                 CALIF 080210050A008A01FWH15MWH40OK60 000000
604CA001091C9040004034450017830OAKLAND                 CALIF 090321050A001A25MWN20MWN12ST47 000000
604CA001091C9040004034450017830OAKLAND                 CALIF 090321050A002A35FBN50MBN40GF45 000000
604CA001091C9040004034450017830OAKLAND                 CALIF 090321050A003B33MWN00UUU12UN45 000000
604CA001091C9040004034450017830OAKLAND                 CALIF 090321050A004A01MUU42FAN85OK60 000000
604CA001091C9040004034450017830OAKLAND                 CALIF 090321050A005A34FBN36MBN40ST45 000000
604CA001091C9040004034450017830OAKLAND                 CALIF 090321050A006D19FWN25MWN13ST47 00100013MWN
604CA001091C9040004034450017830OAKLAND                 CALIF 090321050A007B32MWN00UUU12UN47 000000
604CA001091C9040004034450017830OAKLAND                 CALIF 090321050A008B34MBN00UUU11UN99 000000
604CA001091C9040004034450017830OAKLAND                 CALIF 090321050A009A14MBN33MBN12ST45 000000
604CA001091C9040004034450017830OAKLAND                 CALIF 090321050A010B43MBN00UUU12UN70 000000
604CA001091C9040004034450017830OAKLAND                 CALIF 090321050A011B19FBN00UUU13UN70 000000
604CA001091C9040004034450017830OAKLAND                 CALIF 100321050A001B77MWN00UUU40UN03 000000
604CA001091C9040004034450017830OAKLAND                 CALIF 100321050A002A49MBN51MBN20ST45 000000
604CA001091C9040004034450017830OAKLAND                 CALIF 100321050A003A17MBN18MBN12ST45 000000
604CA001091C9040004034450017830OAKLAND                 CALIF 100321050A004C29MBN17MWN20ST80E000001                                                  19MWN20ST80E
604CA001091C9040004034450017830OAKLAND                 CALIF 100321050A005B23MBN00UUU12UN44 000000
604CA001091C9040004034450017830OAKLAND                 CALIF 110321050A001B34MBN00UUU12UN03 000000
604CA001091C9040004034450017830OAKLAND                 CALIF 110321050A002A50MBN30MWN12ST81A000000
604CA001091C9040004034450017830OAKLAND                 CALIF 110321050A003B29MBN00UUU12UN45 000000
604CA001091C9040004034450017830OAKLAND                 CALIF 110321050A004B29MBN00UUU12UN45 000000
604CA001091C9040004034450017830OAKLAND                 CALIF 110321050A005B28MBN00UUU12UN03 000000
604CA001091C9040004034450017830OAKLAND                 CALIF 110321050A006B23MWN00UUU12UN45 000000
604CA001091C9040004034450017830OAKLAND                 CALIF 110321050A007C20MBN17MBN12ST45 000001                                                  19MBN12ST45
604CA001091C9040004034450017830OAKLAND                 CALIF 120321050A001D25MBN20MWN12ST45 00100025MBN
604CA001091C9040004034450017830OAKLAND                 CALIF 120321050A002B24MBN00UUU12UN99 000000
604CA001091C9040004034450017830OAKLAND                 CALIF 120321050A003B22MBN00UUU12UN47 000000
604CA001091C9040004034450017830OAKLAND                 CALIF 120321050A004B27FBN00UUU12UN45 000000
604CA001091C9040004034450017830OAKLAND                 CALIF 120321050A005B33MBN00UUU11UN18 000000
604CA001091C9040004034450017830OAKLAND                 CALIF 120321050A006A62MBN68MBN12OF45 000000
604CA001091C9040004034450017830OAKLAND                 CALIF 120321050A007B19MWN00UUU90UN45 000000
604CA001123 9040000810630017830SAN LEANDRO             CALIF 050210050A001A29FBN28MBN80AQ10 000000
604CA001123 9040000810630017830SAN LEANDRO             CALIF 090210050A001F27MBN00UUU12UN47 00100026MBN
604CA001123 9040000810630017830SAN LEANDRO             CALIF 120302050A001C26MWH20MWN12OK47 000001                                                  16MWN12OK47
604CA001133 9040000701090017830UNION CITY              CALIF 120406051A001B48MW 00UU 12UN03 000000
604CA003008C904000023523003   0AMADOR                  CALIF 040210050A001A18FWN22MWN14GF45 000000
604CA003008C904000023523003   0AMADOR                  CALIF 080210050A001B30MAN00UUU12UN99 000000
604CA004009B9040000971930041641BUTTE                   CALIF 030210050A001A54MWN27MWN20AQ45 000000
604CA004009B9040000971930041641BUTTE                   CALIF 040210050A001B17MWH00UUU12UN47 000000
604CA004023 9040000682880041640CHICO                   CALIF 040210050A001A01MWN20FWN85SO60 000000
604CA004023 9040000682880041640CHICO                   CALIF 060210050A001A19MWN20MWN12FR45 000000
604CA004023 9040000682880041640CHICO                   CALIF 110302050A001A67FWN74MWN11WI45 000000
604CA004036 9040000057350041641GRIDLEY                 CALIF 060210050A001C23MWH22MWH12OK47 000001                                                  17MWH12OK47
604CA005008B904000041414005   0CALAVERAS               CALIF 050210050A001A85FWN86MWN12WI45 000000
604CA005008B904000041414005   0CALAVERAS               CALIF 070210050A001A42FWN36MWN12GF45 000000
604CA005008B904000041414005   0CALAVERAS               CALIF 090210050A001A77MWN42FWN30EE45 000000
604CA007009A9040001558440077831CONTRA COSTA            CALIF 020210050A001A44MBN45MBN20AQ45 000000
604CA007009A9040001558440077831CONTRA COSTA            CALIF 040210050A001B27MBN00UUU12UN99 000000
604CA007009A9040001558440077831CONTRA COSTA            CALIF 040210050A002B27MBN00UUU12UN99 000000
604CA007009A9040001558440077831CONTRA COSTA            CALIF 090210050A001A49MWN56MWN12AQ45 000000
