601AL001123 6120000823320370980HOOVER                  ALA   110205140A001A68MW 31MW 90ST42 000000
601AL001123 6120000823320370980HOOVER                  ALA   120205140A001A19MB 20MB 12OK60 000000
602AZ001016 812000005008001   0EAGAR                   ARIZ  090117130A001A47MWN57MWH11AQ45 000000
602AZ002009B8120000523330028161COCHISE                 ARIZ  100405130A001A30MWN00MWN12AQ99 000000
602AZ002009B8120000523330028161COCHISE                 ARIZ  100405130A002A15MWN41MWN12ST03 000000
602AZ002036 8120000056940028161BISBEE                  ARIZ  080103130A001A49FWU56MWH90GF99 000000
602AZ002055 8120000177430028160DOUGLAS                 ARIZ  100405130A001A33MWH36MWH20AQ45 000000
602AZ003009B8120000547530032751COCONINO                ARIZ  050221130A001A20FWN30MWN40UN99 000000
602AZ003009B8120000547530032751COCONINO                ARIZ  120405130A001A27FBN19MBN40UN99 000000
602AZ003086 8120000073310032751PAGE                    ARIZ  061129120A001A26FIN33MIN85GF45 000000
602AZ003086 8120000073310032751PAGE                    ARIZ  120405130A001A26MIN23MIN20NE40 000000
602AZ004065 812000015337004   0PAYSON                  ARIZ  120405130A001A58FWN70MWN12WI99 000000
602AZ005008C812000020602005   0GRAHAM                  ARIZ  060405130A001C30MWN19MWN12AQ45 000002                                                  27MWN12AQ45 24MWN12AQ45
602AZ006008D812000005286006   0GREENLEE                ARIZ  090405130A001B40MIN00UUU12UN99 000000
602AZ007009A8120003700460076621MARICOPA                ARIZ  010910121A001A50MW 30MW 13ST05 000000
602AZ007009A8120003700460076621MARICOPA                ARIZ  010910121A002A30MW 30MW 12ST81B000000
602AZ007009A8120003700460076621MARICOPA                ARIZ  021210121A001A50MWN24MWN14FA45 000000
602AZ007009A8120003700460076621MARICOPA                ARIZ  030820120A001A69FWN66MWN14WI99 000000
602AZ007009A8120003700460076621MARICOPA                ARIZ  040926120A001A88FWN43MWN90MO99 000000
602AZ007009A8120003700460076621MARICOPA                ARIZ  051022120A001B53MWN00UUU65UN09 000000
602AZ007009A8120003700460076621MARICOPA                ARIZ  061129120B001A45MWH43MWH12FR53 000000
602AZ007009A8120003700460076621MARICOPA                ARIZ  071210120A001B39MUN00UUU12UN26 000000
602AZ007009A8120003700460076621MARICOPA                ARIZ  080103130A001B39MWH00UUU11UN99 000000
602AZ007009A8120003700460076621MARICOPA                ARIZ  090117130A001A41MWH41MWH12FR99 000000
602AZ007013 8120000783640076620AVONDALE                ARIZ  010716120A001B21MWH00UUU12UN99 000000
602AZ007013 8120000783640076620AVONDALE                ARIZ  050416131A001A34FB 38MB 12XW49 000000
602AZ007013 8120000783640076620AVONDALE                ARIZ  090221130A001A44MWH31MWH40AQ18 000000
602AZ007013 8120000783640076620AVONDALE                ARIZ  110416131A001A28FI 41MB 12GF40 000000
602AZ007013 8120000783640076620AVONDALE                ARIZ  110405130A002A46MWH30MWH20AQ18 000000
602AZ007013 8120000783640076620AVONDALE                ARIZ  120405130A001B58FWN00UUU90UN99 000000
602AZ007013 8120000783640076620AVONDALE                ARIZ  120405130A002A44MBN31MBN12OK40 000000
602AZ007033 8120000522130076620BUCKEYE                 ARIZ  010820120A001C21MWN45MWN12ST81A000001                                                  55MWN12ST81A
602AZ007033 8120000522130076620BUCKEYE                 ARIZ  020718120A001A25MWH18MWH14ST99 000000
602AZ007033 8120000522130076620BUCKEYE                 ARIZ  100221130A001D57MWH33MWN20FA99 00100069FWH
602AZ007052 8120002427210076620CHANDLER                ARIZ  010716120A001A82FWN57MWN20MO99 000000
602AZ007052 8120002427210076620CHANDLER                ARIZ  010716120A002A72MWN28MWN12ST81B000000
602AZ007052 8120002427210076620CHANDLER                ARIZ  020423131A001A37MI 00MW 12ST99 000000
602AZ007052 8120002427210076620CHANDLER                ARIZ  070221130A001A43FWH32MWH20AQ99 000000
602AZ007052 8120002427210076620CHANDLER                ARIZ  100221130A001C48MWN46FWN12ST03 000001                                                  47FWN12ST03
602AZ007074 8120000326850076621EL MIRAGE               ARIZ  040418131A001A76MW 38MW 20FA44 000000
602AZ007074 8120000326850076621EL MIRAGE               ARIZ  040418131A002B25FW 00UU 12UN99 000000
602AZ007074 8120000326850076621EL MIRAGE               ARIZ  110307130A001B28MWN00UUU12UN26 000000
602AZ007112 8120002142640076620GILBERT                 ARIZ  050205140A001D47FW 39MW 12GF60 00300023FW 24MW 01FW
602AZ007112 8120002142640076620GILBERT                 ARIZ  120205140A001A48MW 46MW 11ER26 000000
602AZ007132 8120002329970076620GLENDALE                ARIZ  010716120A001B25MIN00UUU12UN99 000000
602AZ007132 8120002329970076620GLENDALE                ARIZ  010716120A002A25FBN27FBN12HO45 000000
602AZ007132 8120002329970076620GLENDALE                ARIZ  020718120A001A32MWH31MWN13AQ40 000000
602AZ007132 8120002329970076620GLENDALE                ARIZ  031022121A001DBBMWH30MWH12SO60 00100003MWH
602AZ007132 8120002329970076620GLENDALE                ARIZ  040926120A001B30MWH00UUU12UN03 000000
602AZ007132 8120002329970076620GLENDALE                ARIZ  040926120A002B44MWN00UUU12UN99 000000
602AZ007132 8120002329970076620GLENDALE                ARIZ  071210120A001A18MWH37MWH12ST80C000000
602AZ007132 8120002329970076620GLENDALE                ARIZ  080103130A001B25FWH00UUU20UN99 000000
602AZ007132 8120002329970076620GLENDALE                ARIZ  100221130A001B35MWH00UUU12UN99 000000
602AZ007132 8120002329970076620GLENDALE                ARIZ  110307130A001B50MWN00UUU30UN99 000000
602AZ007132 8120002329970076620GLENDALE                ARIZ  120405130A001A37MWH22MWN12ST45 000000
602AZ007171C8120004513910076620MESA                    ARIZ  010716120A001A24FWH23MWN12AQ05 000000
602AZ007171C8120004513910076620MESA                    ARIZ  010716120A002B35MWH00UUU90UN99 000000
602AZ007171C8120004513910076620MESA                    ARIZ  010716120A003A18MWN16MWN12AQ60 000000
602AZ007171C8120004513910076620MESA                    ARIZ  010716120A004C24MWN41MWN12ST81A000002                                                  43MWH12ST81A40MWN12ST81A
602AZ007171C8120004513910076620MESA                    ARIZ  020718120A001B23MWN00UUU11UN99 000000
602AZ007171C8120004513910076620MESA                    ARIZ  020718120A002A29MWH38MWN12ST81C000000
602AZ007171C8120004513910076620MESA                    ARIZ  030820120A001A32MWN60MWN12ST80C000000
602AZ007171C8120004513910076620MESA                    ARIZ  041210121A001A48MWN22MWH12UN45 000000
602AZ007171C8120004513910076620MESA                    ARIZ  041214121A002B43MW 00UU 90UN45 000000
602AZ007171C8120004513910076620MESA                    ARIZ  051022120A001A31MWN48MWN12ST81A000000
602AZ007171C8120004513910076620MESA                    ARIZ  051022120A002C22MWH31MWH12ST81A000002                                                  48FBN12ST81A55MWN12ST81A
602AZ007171C8120004513910076620MESA                    ARIZ  061129120A001B51FAN00UUU12UN03 000000
602AZ007171C8120004513910076620MESA                    ARIZ  061129120A002A58MWH75MWH40AQ42 000000
602AZ007171C8120004513910076620MESA                    ARIZ  071210120A001A30MWN20MBN20AQ99 000000
602AZ007171C8120004513910076620MESA                    ARIZ  071210120A002A27MWN20MWN20FR40 000000
602AZ007171C8120004513910076620MESA                    ARIZ  071210120A003C26MWH18MBN11UN99 000002                                                  25MBN11UN99 25MBN11UN99
602AZ007171C8120004513910076620MESA                    ARIZ  071210120A004B48FWN00UUU85UN99 000000
602AZ007171C8120004513910076620MESA                    ARIZ  070416131B005C31FW 33MW 90SI59 000003                                                  41MW 90SI59 64MW 90DA59 62FW 90DA59
602AZ007171C8120004513910076620MESA                    ARIZ  100221130A001A31MWN60MWN14ST45 000000
602AZ007171C8120004513910076620MESA                    ARIZ  110307130A001A52MIN27MIN40ST45 000000
602AZ007195 8120000131770076621PARADISE VALLEY         ARIZ  010716120A001F79MWN00UUU12UN99 00100078FWN
602AZ007212 8120001583470076620PEORIA                  ARIZ  010820120A001B24MWN00UUU12UN99 000000
602AZ007212 8120001583470076620PEORIA                  ARIZ  010820120A002D61MWN15MWN12ST99 00100054MWN
602AZ007212 8120001583470076620PEORIA                  ARIZ  030820120A001A21MWN32MWN12UN45 000000
602AZ007212 8120001583470076620PEORIA                  ARIZ  061129120A001A21MWH26MWH40OK19 000000
602AZ007212 8120001583470076620PEORIA                  ARIZ  071210120A001A60FWH38MWH30MO45 000000
602AZ007212 8120001583470076620PEORIA                  ARIZ  071210120A002A59MWN30MBN12OK44 000000
602AZ007212 8120001583470076620PEORIA                  ARIZ  080103130A001A04MWH24FBN40OK70 000000
602AZ007212 8120001583470076620PEORIA                  ARIZ  120405130A001B42MBN00UUU12UN45 000000
602AZ007231A8120014855090076620PHOENIX                 ARIZ  010716120A001B76MBN00UUU30UN99 000000
602AZ007231A8120014855090076620PHOENIX                 ARIZ  010723121A002A64FW 83MW 12WI45 000000
602AZ007231A8120014855090076620PHOENIX                 ARIZ  010723121A003A83MW 64FW 12HU45 000000
602AZ007231A8120014855090076620PHOENIX                 ARIZ  010723121A004B19MW 00UU 11UN99 000000
602AZ007231A8120014855090076620PHOENIX                 ARIZ  010723121A005A47MW 34MW 12AQ45 000000
602AZ007231A8120014855090076620PHOENIX                 ARIZ  010723121A006C50MW 23MW 12AQ99 000001                                                  35FB 12AQ99
602AZ007231A8120014855090076620PHOENIX                 ARIZ  010723121A007C56MW 26FW 12ST99 000001                                                  31MW 12ST99
602AZ007231A8120014855090076620PHOENIX                 ARIZ  010723121A008A20MB 29MW 30ST80C000000
602AZ007231A8120014855090076620PHOENIX                 ARIZ  020718120A001A28MWH48MBN11UN18 000000
602AZ007231A8120014855090076620PHOENIX                 ARIZ  020718120A002B52MWN00UUU20UN99 000000
602AZ007231A8120014855090076620PHOENIX                 ARIZ  020718120A003A20MWH26MWH11UN45 000000
602AZ007231A8120014855090076620PHOENIX                 ARIZ  020718120A004A02MWH18MWH30SO99 000000
602AZ007231A8120014855090076620PHOENIX                 ARIZ  020718120A005A38MWN25MWH30HO45 000000
602AZ007231A8120014855090076620PHOENIX                 ARIZ  020718120A006B55MWN00UUU12UN99 000000
602AZ007231A8120014855090076620PHOENIX                 ARIZ  020718120A007A54MWN35MWN12ST81A000000
602AZ007231A8120014855090076620PHOENIX                 ARIZ  030820120A001A84MAN18MBN30NE45 000000
602AZ007231A8120014855090076620PHOENIX                 ARIZ  030820120A002A02MWH30MWH85SO99 000000
602AZ007231A8120014855090076620PHOENIX                 ARIZ  030820120A003A49FWN22MWN80MO99 000000
602AZ007231A8120014855090076620PHOENIX                 ARIZ  030820120A004A44MWN32MWN12AQ45 000000
602AZ007231A8120014855090076620PHOENIX                 ARIZ  030820120A005B28MWH00UUU11UN03 000000
602AZ007231A8120014855090076620PHOENIX                 ARIZ  030820120A006A35MBN29MBN12AQ99 000000
602AZ007231A8120014855090076620PHOENIX                 ARIZ  030820120A007A28MWN20MWN12AQ40 000000
602AZ007231A8120014855090076620PHOENIX                 ARIZ  030820120A008A22FWH24MWH20WI99 000000
602AZ007231A8120014855090076620PHOENIX                 ARIZ  030820120A009B27MWH00UUU11UN99 000000
602AZ007231A8120014855090076620PHOENIX                 ARIZ  030820120A010A17MWH19MWH13ST99 000000
602AZ007231A8120014855090076620PHOENIX                 ARIZ  030820120A011B41MBN00UUU12UN99 000000
602AZ007231A8120014855090076620PHOENIX                 ARIZ  030820120A012A46FBN50MBN20WI99 000000
602AZ007231A8120014855090076620PHOENIX                 ARIZ  030820120A013B27MWH00UUU12UN99 000000
602AZ007231A8120014855090076620PHOENIX                 ARIZ  030820120A014A39MWN54MWN12AQ80E000000
602AZ007231A8120014855090076620PHOENIX                 ARIZ  040926120A001A39MWH30MWH12AQ99 000000
602AZ007231A8120014855090076620PHOENIX                 ARIZ  040926120A002A38MWH21MWH13AQ45 000000
602AZ007231A8120014855090076620PHOENIX                 ARIZ  040926120A003C20MWH19MWN13AQ03 000002                                                  26MBN13AQ03 28MWN13AQ03
602AZ007231A8120014855090076620PHOENIX                 ARIZ  040926120A004A29MWN22MBN12ST45 000000
602AZ007231A8120014855090076620PHOENIX                 ARIZ  040926120A005C30MWH26MBN12ST99 000002                                                  27MBN12ST99 30MBN12ST99
602AZ007231A8120014855090076620PHOENIX                 ARIZ  040926120A006A47MWH00MWH12ST03 000000
602AZ007231A8120014855090076620PHOENIX                 ARIZ  040926120A007A27MWH32MWH11AQ99 000000
602AZ007231A8120014855090076620PHOENIX                 ARIZ  040926120A008A53FWN47MWN12WI99 000000
602AZ007231A8120014855090076620PHOENIX                 ARIZ  040926120A009A29MWN31MBN14ST45 000000
602AZ007231A8120014855090076620PHOENIX                 ARIZ  040926120A010A32MWN39MWN12ST40 000000
602AZ007231A8120014855090076620PHOENIX                 ARIZ  040926120A011B24MBN00UUU11UN45 000000
602AZ007231A8120014855090076620PHOENIX                 ARIZ  040926120A012A39MWN56FWN12ST81C000000
602AZ007231A8120014855090076620PHOENIX                 ARIZ  051022120A001C20MWH30MBN12ST99 000001                                                  32MBN12ST99
602AZ007231A8120014855090076620PHOENIX                 ARIZ  051022120A002B33MWH00UUU14UN99 000000
602AZ007231A8120014855090076620PHOENIX                 ARIZ  051022120A003A50FWN51MWN12WI99 000000
602AZ007231A8120014855090076620PHOENIX                 ARIZ  051022120A004BBBFWH00UUU30UN99 000000
602AZ007231A8120014855090076620PHOENIX                 ARIZ  051022120A005A39MWH42MWH20AQ45 000000
602AZ007231A8120014855090076620PHOENIX                 ARIZ  051022120A006C27MWN00MBN12ST18 000001                                                  00MBN12ST18
602AZ007231A8120014855090076620PHOENIX                 ARIZ  051022120A007A21MWH40MWH11AQ44 000000
602AZ007231A8120014855090076620PHOENIX                 ARIZ  051022120A008B22MWH00UUU12UN45 000000
602AZ007231A8120014855090076620PHOENIX                 ARIZ  051022120A009C23MWH00MWH12UN18 000002                                                  00MWH12UN18 00MWH12UN18
602AZ007231A8120014855090076620PHOENIX                 ARIZ  051022120A010A32FWH33MWH12WI45 000000
602AZ007231A8120014855090076620PHOENIX                 ARIZ  051022120A011C04FWH22FWH30DA99 000001                                                  22MBN30OF99
602AZ007231A8120014855090076620PHOENIX                 ARIZ  061129120A001A18MWN00MWH12ST46 000000
602AZ007231A8120014855090076620PHOENIX                 ARIZ  061129120A002A18MWH19MWH12AQ46 000000
602AZ007231A8120014855090076620PHOENIX                 ARIZ  061129120A003C21MIN27FIN30OF26 000001                                                  31MIN30OF26
602AZ007231A8120014855090076620PHOENIX                 ARIZ  061129120A004A32MWH00MBN12AQ18 000000
602AZ007231A8120014855090076620PHOENIX                 ARIZ  061129120A005C25MWN34MWN12ST81A000001                                                  39MWN12ST81A
602AZ007231A8120014855090076620PHOENIX                 ARIZ  061129120A006F34MWH00UUU12UN26 00100028MWH
602AZ007231A8120014855090076620PHOENIX                 ARIZ  061129120A007A46FWN20MWU20MO26 000000
602AZ007231A8120014855090076620PHOENIX                 ARIZ  061129120A008B54MWN00UUU20UN26 000000
602AZ007231A8120014855090076620PHOENIX                 ARIZ  061205121A009C70FW 00MW 11ST26 000001                                                  00MW 11ST26
602AZ007231A8120014855090076620PHOENIX                 ARIZ  061205121A010C41MW 00MW 12ST70 000001                                                  00MW 12ST70
602AZ007231A8120014855090076620PHOENIX                 ARIZ  061129120A011B17MBN00UUU12UN47 000000
602AZ007231A8120014855090076620PHOENIX                 ARIZ  061129120A012A47MWN38MWN30ST03 000000
602AZ007231A8120014855090076620PHOENIX                 ARIZ  070419131A001A67MW 44MW 90FA45 000000
602AZ007231A8120014855090076620PHOENIX                 ARIZ  070307131A002A15MWH17MWN12UN99 000000
602AZ007231A8120014855090076620PHOENIX                 ARIZ  070307131A003A35MWH44MBN15AQ45 000000
602AZ007231A8120014855090076620PHOENIX                 ARIZ  070307131A004B32FWH00UUU12UN99 000000
602AZ007231A8120014855090076620PHOENIX                 ARIZ  070307131A005B31MWN00UUU12UN03 000000
602AZ007231A8120014855090076620PHOENIX                 ARIZ  070307131A006B30MBN00UUU11UN18 000000
602AZ007231A8120014855090076620PHOENIX                 ARIZ  070307131A007A33MWH40MWH12AQ03 000000
602AZ007231A8120014855090076620PHOENIX                 ARIZ  070307131A008A68MWU55MBU30AQ17 000000
602AZ007231A8120014855090076620PHOENIX                 ARIZ  070307131A009B18MBU00UUU11UN99 000000
602AZ007231A8120014855090076620PHOENIX                 ARIZ  070307131A010A21FBN21MBN12ST99 000000
602AZ007231A8120014855090076620PHOENIX                 ARIZ  070307131A011A23MWN20MWH12ST45 000000
602AZ007231A8120014855090076620PHOENIX                 ARIZ  070307131A012B37MWN00UUU30UN99 000000
602AZ007231A8120014855090076620PHOENIX                 ARIZ  070307131A013A73MWN42FWN20FA99 000000
602AZ007231A8120014855090076620PHOENIX                 ARIZ  070307131A014A46MWN31FWN12HU45 000000
602AZ007231A8120014855090076620PHOENIX                 ARIZ  070307131A015A57MWH48MWN14AQ45 000000
602AZ007231A8120014855090076620PHOENIX                 ARIZ  070307131A016A43MWH49MWN12ST45 000000
602AZ007231A8120014855090076620PHOENIX                 ARIZ  070307131A017B24MWN00UUU30UN99 000000
602AZ007231A8120014855090076620PHOENIX                 ARIZ  080307131A001A51MWN52MWN20FR45 000000
602AZ007231A8120014855090076620PHOENIX                 ARIZ  080307131A002A42MWN31MWN90AQ45 000000
602AZ007231A8120014855090076620PHOENIX                 ARIZ  080307131A003A50FWN32FWN12HO45 000000
602AZ007231A8120014855090076620PHOENIX                 ARIZ  080307131A004A36MWH22MWN12ST80C000000
602AZ007231A8120014855090076620PHOENIX                 ARIZ  080307131A005B22MWN00UUU11UN99 000000
602AZ007231A8120014855090076620PHOENIX                 ARIZ  080307131A006A24MWH36MWN13UN81E000000
602AZ007231A8120014855090076620PHOENIX                 ARIZ  080307131A007A33MWN23MWN40ST99 000000
602AZ007231A8120014855090076620PHOENIX                 ARIZ  090117130A001C22MWH18MWH12ST45 000001                                                  20MWH12ST45
602AZ007231A8120014855090076620PHOENIX                 ARIZ  090117130A002B36MWH00UUU12UN26 000000
602AZ007231A8120014855090076620PHOENIX                 ARIZ  090117130A003A21FWN56MWN20GF45 000000
602AZ007231A8120014855090076620PHOENIX                 ARIZ  090117130A004A16MBN18MWH12ST03 000000
602AZ007231A8120014855090076620PHOENIX                 ARIZ  090117130A005B43MBN00UUU11UN99 000000
602AZ007231A8120014855090076620PHOENIX                 ARIZ  090117130A006B21FWH00UUU12UN99 000000
602AZ007231A8120014855090076620PHOENIX                 ARIZ  090117130A007A66FWN64MWU13WI26 000000
602AZ007231A8120014855090076620PHOENIX                 ARIZ  090117130A008A33MWH00MWH13UN99 000000
602AZ007231A8120014855090076620PHOENIX                 ARIZ  090117130A009B43MBN00UUU11UN99 000000
602AZ007231A8120014855090076620PHOENIX                 ARIZ  090117130A010A49MWN48MWN12ST81A000000
602AZ007231A8120014855090076620PHOENIX                 ARIZ  100419131A001A70FB 45FW 30MO99 000000
602AZ007231A8120014855090076620PHOENIX                 ARIZ  100307130A002A83FWN00MUU30ST99 000000
602AZ007231A8120014855090076620PHOENIX                 ARIZ  100307130A003B49MWN00UUU12UN99 000000
602AZ007231A8120014855090076620PHOENIX                 ARIZ  100307130A004A42MWH32MWH12FR45 000000
602AZ007231A8120014855090076620PHOENIX                 ARIZ  100307130A005A56MWN50MWH20AQ99 000000
602AZ007231A8120014855090076620PHOENIX                 ARIZ  100307130A006A29MWN29MWN30AQ99 000000
602AZ007231A8120014855090076620PHOENIX                 ARIZ  100307130A007A49MBN23MWH20ST99 000000
602AZ007231A8120014855090076620PHOENIX                 ARIZ  100307130A008A10MWH24MWH30OF99 000000
602AZ007231A8120014855090076620PHOENIX                 ARIZ  100307130A009A50MWN43MWN20AQ45 000000
602AZ007231A8120014855090076620PHOENIX                 ARIZ  100307130A010B18MWH00UUU12UN03 000000
602AZ007231A8120014855090076620PHOENIX                 ARIZ  100307130A011A41FWH31MWH20WI44 000000
602AZ007231A8120014855090076620PHOENIX                 ARIZ  100307130A012B57FWN00UUU13UN81E000000
602AZ007231A8120014855090076620PHOENIX                 ARIZ  100307130A013A34MWH27MWN12ST81A000000
602AZ007231A8120014855090076620PHOENIX                 ARIZ  100307130B014A10MAN47FWH75FR59 000000
602AZ007231A8120014855090076620PHOENIX                 ARIZ  100307130B015A18FWN45MWN70FR59 000000
602AZ007231A8120014855090076620PHOENIX                 ARIZ  110411131A001A32FW 49MW 11AQ99 000000
602AZ007231A8120014855090076620PHOENIX                 ARIZ  110405130A002B34FBU00UUU12UN99 000000
602AZ007231A8120014855090076620PHOENIX                 ARIZ  110405130A003B20MBU00UUU12UN99 000000
602AZ007231A8120014855090076620PHOENIX                 ARIZ  110405130A004A46FWU52MWH12WI44 000000
602AZ007231A8120014855090076620PHOENIX                 ARIZ  110405130A005C26MWH26MWH12UN99 000002                                                  36MWH12UN99 31MWH12UN99
602AZ007231A8120014855090076620PHOENIX                 ARIZ  110405130A006A20MWH18MWH12AQ18 000000
602AZ007231A8120014855090076620PHOENIX                 ARIZ  110405130A007A43MWU49FWU20BF45 000000
602AZ007231A8120014855090076620PHOENIX                 ARIZ  110411131A008A19MW 39MW 12OF80G000000
602AZ007231A8120014855090076620PHOENIX                 ARIZ  120405130A001C28MWN27MUN90AQ99 000002                                                  25MWH90AQ99 25MWU90AQ99
602AZ007231A8120014855090076620PHOENIX                 ARIZ  120405130A002B38MWN00UUU11UN26 000000
602AZ007231A8120014855090076620PHOENIX                 ARIZ  120410131A003A52MB 00MB 12ST99 000000
602AZ007231A8120014855090076620PHOENIX                 ARIZ  120405130A004A59MWH21MWN30ST70 000000
602AZ007231A8120014855090076620PHOENIX                 ARIZ  120405130A005A13FIU19MBN80FR26 000000
602AZ007231A8120014855090076620PHOENIX                 ARIZ  120405130A006C02FWN27MWN90OK41 000001                                                  27FWN90OK41
602AZ007231A8120014855090076620PHOENIX                 ARIZ  120405130A007B48MBN00UUU30UN99 000000
602AZ007231A8120014855090076620PHOENIX                 ARIZ  120405130A008B61MBN00UUU11UN99 000000
602AZ007231A8120014855090076620PHOENIX                 ARIZ  120405130A009C31MWH27MWH12AQ18 000002                                                  21MWH12AQ18 37MWH12AQ18
602AZ007231A8120014855090076620PHOENIX                 ARIZ  120405130A010B23MWU00UUU11UN70 000000
602AZ007231A8120014855090076620PHOENIX                 ARIZ  120405130A011C18FWH00FWH20ST26 000002                                                  00FWH20ST26 17FWH20ST26
602AZ007231A8120014855090076620PHOENIX                 ARIZ  120405130A012B25MWH00UUU11UN26 000000
602AZ007231A8120014855090076620PHOENIX                 ARIZ  120405130B013A22MWH19FWH12BR59 000000
602AZ007252 8120002234320076620SCOTTSDALE              ARIZ  010716120A001A25MWN42MWN12ST81A000000
602AZ007252 8120002234320076620SCOTTSDALE              ARIZ  020718120A001A50MWN37MWN13ST81C000000
602AZ007252 8120002234320076620SCOTTSDALE              ARIZ  040926120A001A45MWH19MWH12ST26 000000
602AZ007252 8120002234320076620SCOTTSDALE              ARIZ  061129120A001A23FWN25MWN20OK26 000000
602AZ007252 8120002234320076620SCOTTSDALE              ARIZ  110307130A001A52FWH58MWH12WI45 000000
602AZ007272 8120001207930076620SURPRISE                ARIZ  060221130A001A20MWH21MWH12AQ42 000000
602AZ007272 8120001207930076620SURPRISE                ARIZ  080405130A001A20MWH22MWH12ST99 000000
602AZ007272 8120001207930076620SURPRISE                ARIZ  080411131A002A38MW 46MW 20ST80C000000
602AZ007272 8120001207930076620SURPRISE                ARIZ  080411131A003C46MW 19MW 20ST26 000003                                                  29FW 20ST26 29MW 11ST26 38MW 20ST26
602AZ007292 8120001660610076620TEMPE                   ARIZ  010716120A001C24MWN00MBN12ST18 000001                                                  21MBN12ST18
602AZ007292 8120001660610076620TEMPE                   ARIZ  040926120A001A20MBN25MWN12ST45 000000
602AZ007292 8120001660610076620TEMPE                   ARIZ  051022120A001C51MWN16MWH12ST03 000001                                                  40MWH12ST03
602AZ007292 8120001660610076620TEMPE                   ARIZ  051022120A002A00MWN00MWN12AQ40 000000
602AZ007292 8120001660610076620TEMPE                   ARIZ  061129120A001D14MWN47MWN12SO99 00300040FWN16FWN07MWN
602AZ007292 8120001660610076620TEMPE                   ARIZ  061129120A002A21MIN20MIN20OF42 000000
602AZ007292 8120001660610076620TEMPE                   ARIZ  090117130A001C45MWN31FWN12OK99 000001                                                  33MWN12OK99
602AZ007292 8120001660610076620TEMPE                   ARIZ  110307130A001B37FWN00UUU11UN99 000000
602AZ007316 8120000067280076621TOLLESON                ARIZ  060405130A001A32FWN48MWH40WI44 000000
602AZ008009B8120000772700084191MOHAVE                  ARIZ  020718120A001A43MWN77MWN13SO99 000000
602AZ008009B8120000772700084191MOHAVE                  ARIZ  030221130B001A22MWN25MWN90FR59 000000
602AZ008009B8120000772700084191MOHAVE                  ARIZ  051022120A001A39MWN53MWN13AQ42 000000
602AZ008009B8120000772700084191MOHAVE                  ARIZ  051022120A002A42FWN55MWN12GF45 000000
602AZ008009B8120000772700084191MOHAVE                  ARIZ  100221130A001A55MWN60MWN14NE45 000000
602AZ008043 8120000535130084190LAKE HAVASU CITY        ARIZ  020820120A001A27FWN32MBN90WI99 000000
602AZ008043 8120000535130084190LAKE HAVASU CITY        ARIZ  120419131A001B40MW 00UU 90UN26 000000
602AZ008054 8120000402770084191BULLHEAD CITY           ARIZ  040926120A001A65FWN61MWN12WI99 000000
602AZ008054 8120000402770084191BULLHEAD CITY           ARIZ  090117130A001A36FWN27MWN20GF45 000000
602AZ008054 8120000402770084191BULLHEAD CITY           ARIZ  090117130A002A50MWN22MWN90AQ42 000000
602AZ008054 8120000402770084191BULLHEAD CITY           ARIZ  120405130A001D47FWN53MWN12WI99 00100017MWN
602AZ009016 812000005105009   0HOLBROOK                ARIZ  061129120A001A59MWH58MWN12AQ45 000000
602AZ009096 812000009757009   0WINSLOW                 ARIZ  030405130A001C32FIN23FIN40FR45 000001                                                  37MIN40AQ45
602AZ009096 812000009757009   0WINSLOW                 ARIZ  040405130A001C53MIN41FIN20OF45 000001                                                  52MIN20AQ45
602AZ010009A8120003599380109061PIMA                    ARIZ  010716120A001B40MWN00UUU90UN99 000000
602AZ010009A8120003599380109061PIMA                    ARIZ  010716120A002A44FWH38MWH20GF40 000000
602AZ010009A8120003599380109061PIMA                    ARIZ  020718120A001A30MWN33MWN12AQ45 000000
602AZ010009A8120003599380109061PIMA                    ARIZ  040213131A001E40MW 00MU 13ST99 00100140MW                                              00MU 13ST99
602AZ010009A8120003599380109061PIMA                    ARIZ  040926120A002ABBFWH26MWH30DA99 000000
602AZ010009A8120003599380109061PIMA                    ARIZ  071210120A001A28MWH00MUU12UN99 000000
602AZ010009A8120003599380109061PIMA                    ARIZ  071210120A002ABBFBN37FBN85DA99 000000
602AZ010009A8120003599380109061PIMA                    ARIZ  080307131A001A28MWU36MWU12NE26 000000
602AZ010009A8120003599380109061PIMA                    ARIZ  080307131A002A24MIU30FIU20AQ45 000000
602AZ010009A8120003599380109061PIMA                    ARIZ  080307131A003A34MIU00MWU12UN18 000000
602AZ010009A8120003599380109061PIMA                    ARIZ  110307130A001A28MWU23MWH12ST81A000000
602AZ010009A8120003599380109061PIMA                    ARIZ  120405130A001B00MUU00UUU15UN99 000000
602AZ010009A8120003599380109061PIMA                    ARIZ  120405130A002B25MWH00UUU15UN99 000000
602AZ010031B8120005315350109060TUCSON                  ARIZ  010716120A001A01FBN23FBN90DA99 000000
602AZ010031B8120005315350109060TUCSON                  ARIZ  010716120A002B39MWN00UUU11UN99 000000
602AZ010031B8120005315350109060TUCSON                  ARIZ  010716120A003A47FWH25MWH90MO99 000000
602AZ010031B8120005315350109060TUCSON                  ARIZ  010716120A004A21MWN19MBN85AQ18 000000
602AZ010031B8120005315350109060TUCSON                  ARIZ  010716120A005C28MIN36MWN12ST81A000001                                                  30MWN12ST81A
602AZ010031B8120005315350109060TUCSON                  ARIZ  020718120A001B44MWN00UUU20UN99 000000
602AZ010031B8120005315350109060TUCSON                  ARIZ  020718120A002B31MWN00UUU90UN99 000000
602AZ010031B8120005315350109060TUCSON                  ARIZ  020718120A003A31FWH41MBN12GF99 000000
602AZ010031B8120005315350109060TUCSON                  ARIZ  020718120A004B87FWN00UUU12UN03 000001                                                  00UUU12UN03
602AZ010031B8120005315350109060TUCSON                  ARIZ  030820120A001B28MBN00UUU12UN99 000000
602AZ010031B8120005315350109060TUCSON                  ARIZ  030820120A002A21MWN23MWN20AQ45 000000
602AZ010031B8120005315350109060TUCSON                  ARIZ  030820120A003A23MWH24MWN12AQ45 000000
602AZ010031B8120005315350109060TUCSON                  ARIZ  030820120A004A31MWN38MWN13ST81F000000
602AZ010031B8120005315350109060TUCSON                  ARIZ  041001121A001A34FW 46MB 12WI99 000000
602AZ010031B8120005315350109060TUCSON                  ARIZ  041001121A002A46MB 34MW 13ST81A000000
602AZ010031B8120005315350109060TUCSON                  ARIZ  041001121A003A26MW 34MW 12ST81A000000
602AZ010031B8120005315350109060TUCSON                  ARIZ  041001121A004B23MB 00UU 90UN99 000000
602AZ010031B8120005315350109060TUCSON                  ARIZ  041001121A005B67MW 00UU 90UN99 000000
602AZ010031B8120005315350109060TUCSON                  ARIZ  041001121A006A20MB 18MB 12AQ45 000000
602AZ010031B8120005315350109060TUCSON                  ARIZ  051022120A001A36MWN42MWN11AQ45 000000
602AZ010031B8120005315350109060TUCSON                  ARIZ  051022120A002A25MWN20MWH12ST45 000000
602AZ010031B8120005315350109060TUCSON                  ARIZ  051022120A003C16FIN19FIN20AQ45 000001                                                  20MWH20AQ45
602AZ010031B8120005315350109060TUCSON                  ARIZ  061129120A001C23MWH16MWH12AQ46 000001                                                  27MWH12AQ46
602AZ010031B8120005315350109060TUCSON                  ARIZ  061129120A002B30MWN00UUU12UN99 000000
602AZ010031B8120005315350109060TUCSON                  ARIZ  061129120A003A19MBN25MWN12ST81D000000
602AZ010031B8120005315350109060TUCSON                  ARIZ  061129120B004ABBFWN27FWN75DA59 000000
602AZ010031B8120005315350109060TUCSON                  ARIZ  071210120A001A25MUN39MWH90ST45 000000
602AZ010031B8120005315350109060TUCSON                  ARIZ  071214121A002A25MU 39MW 90ST45 000000
602AZ010031B8120005315350109060TUCSON                  ARIZ  071210120A003A39MIN34MWN12ST81B000000
602AZ010031B8120005315350109060TUCSON                  ARIZ  071210120A004B21MBN00UUU11UN45 000000
602AZ010031B8120005315350109060TUCSON                  ARIZ  071210120A005A50MWH47MWH90AQ45 000000
602AZ010031B8120005315350109060TUCSON                  ARIZ  071210120A006A49FWN41MBN90AQ99 000000
602AZ010031B8120005315350109060TUCSON                  ARIZ  071210120A007A27MWH21MWH12ST46 000000
602AZ010031B8120005315350109060TUCSON                  ARIZ  080103130A001C38MWN25MWN13ST81A000001                                                  32MWN13ST81A
602AZ010031B8120005315350109060TUCSON                  ARIZ  080103130A002D04FWH25FWH12DA99 00100001MWH
602AZ010031B8120005315350109060TUCSON                  ARIZ  080103130A003A49FWH59MWH12WI99 000000
602AZ010031B8120005315350109060TUCSON                  ARIZ  080103130A004C24MWH20MBN12AQ45 000002                                                  20MBN12AQ45 20MBN12AQ45
602AZ010031B8120005315350109060TUCSON                  ARIZ  090117130A001A26MBN31MWN12ST80C000000
602AZ010031B8120005315350109060TUCSON                  ARIZ  090122131A002A23MW 45MW 12ST81A000000
602AZ010031B8120005315350109060TUCSON                  ARIZ  090122131A003A29MW 22MW 12AQ46 000000
602AZ010031B8120005315350109060TUCSON                  ARIZ  090122131A004A45FI 48MW 30GF99 000000
602AZ010031B8120005315350109060TUCSON                  ARIZ  090122131B005A42MW 30MW 40AQ59 000000
602AZ010031B8120005315350109060TUCSON                  ARIZ  100221130A001B46MWH00UUU12UN99 000000
602AZ010031B8120005315350109060TUCSON                  ARIZ  100221130A002A41MWN21MBN12ST99 000000
602AZ010031B8120005315350109060TUCSON                  ARIZ  100221130A003C22MWH25MWN12ST45 000001                                                  20MWN12ST45
602AZ010031B8120005315350109060TUCSON                  ARIZ  100221130A004C35MWN37MBN40ST42 000002                                                  38MBN40ST42 38MBN40ST42
602AZ010031B8120005315350109060TUCSON                  ARIZ  110307130A001B35MWH00UUU11UN99 000000
602AZ010031B8120005315350109060TUCSON                  ARIZ  110307130A002B18MWN00UUU12UN99 000001                                                  00UUU12UN99
602AZ010031B8120005315350109060TUCSON                  ARIZ  110307130A003A68MWN55MWN90AQ45 000000
602AZ010031B8120005315350109060TUCSON                  ARIZ  110307130A004B49MWH00UUU90UN99 000000
602AZ010031B8120005315350109060TUCSON                  ARIZ  120405130A001A23FWN23MWN12GF99 000000
602AZ010031B8120005315350109060TUCSON                  ARIZ  120405130A002B26MWH00UUU12UN99 000000
602AZ010031B8120005315350109060TUCSON                  ARIZ  120410131A004C53MW 39MW 12ST81F000003                                                  33MW 12ST81F38MW 12ST81F41MW 12ST81F
602AZ010074 8120000417860109061ORO VALLEY              ARIZ  020103131A001A01MWN21FWN70SO99 000000
602AZ011009A8120001939110116621PINAL                   ARIZ  020718120A001A34MBN34MBN12AQ45 000000
602AZ011009A8120001939110116621PINAL                   ARIZ  040926120A001A49FWN45MWH14GF45 000000
602AZ011009A8120001939110116621PINAL                   ARIZ  051022120A001A83FWN81MWN12WI99 000000
602AZ011009A8120001939110116621PINAL                   ARIZ  100221130A001A15FWN34FWH40DA99 000000
602AZ011009A8120001939110116621PINAL                   ARIZ  110307130A001B50FWN00UUU12UN99 000000
602AZ011013 8120000501320116620CASA GRANDE             ARIZ  020718120A001A43MBN33MWH12UN26 000000
602AZ011013 8120000501320116620CASA GRANDE             ARIZ  110405130A001D59FWN36MWN12MO99 00100066MWN
602AZ011035 8120000122060116621COOLIDGE                ARIZ  080405130A001A30FWH40MBN11WI40 000000
602AZ011035 8120000122060116621COOLIDGE                ARIZ  090405130A001A20MBN35MBN12AQ45 000000
602AZ011055 8120000171490116621ELOY                    ARIZ  030820120A001A23MWN24MWN12UN03 000000
602AZ011134 8120000369860116621APACHE JUNCTION         ARIZ  070205140A001A41FU 31MW 30GF45 000000
602AZ011174 8120000448810116621MARICOPA                ARIZ  110307130A001A26MWH47MWN12ST99 000000
602AZ012015 812000021177012   0NOGALES                 ARIZ  031022121A001A24FWN56MBN90WI40 000000
602AZ013009B8120000890120136881YAVAPAI                 ARIZ  010716120A001D62FWN30MWN12UN99 00100062MWN
602AZ013009B8120000890120136881YAVAPAI                 ARIZ  020718120A001A78FWN80MWN12WI99 000000
602AZ013074 8120000404200136880PRESCOTT                ARIZ  051022120A001A85FWN88MWN12WI60 000000
602AZ013074 8120000404200136880PRESCOTT                ARIZ  110307130A001A52MWN61MWN85FR26 000000
602AZ013114 8120000394070136881PRESCOTT VALLEY         ARIZ  030419131A001D35FW 28MW 20IL60 00100038MW
602AZ013114 8120000394070136881PRESCOTT VALLEY         ARIZ  080103130A001A25MWN21MWN13ST45 000000
602AZ013114 8120000394070136881PRESCOTT VALLEY         ARIZ  100228131A001A72FW 44MW 12MO45 000000
602AZ013114 8120000394070136881PRESCOTT VALLEY         ARIZ  100228131A002A44MW 28MW 12BR80C000000
602AZ013125 8120000109810136881CHINO VALLEY            ARIZ  090405130A001A48MWN51MWN12AQ43 000000
602AZ013125 8120000109810136881CHINO VALLEY            ARIZ  110405130A001C55MWN21MWN20AQ99 000001                                                  23MWN20AQ99
602AZ013135 8120000110330136881CAMP VERDE              ARIZ  080221130A001A46FWN43MWH20WI45 000000
602AZ014009B8120000616770149921YUMA                    ARIZ  020205140A001A60MW 61FW 90BF60 000000
602AZ014009B8120000616770149921YUMA                    ARIZ  040205140A001C15FB 41MB 90DA60 000001                                                  42FW 90DA60
602AZ014009B8120000616770149921YUMA                    ARIZ  090205140A001A34FW 36MW 12GF45 000000
602AZ014053 8120000955680149920YUMA                    ARIZ  040926120A001A20MIN20MIN12AQ99 000000
602AZ014053 8120000955680149920YUMA                    ARIZ  051022120A001D27MWN23MWN12ST45 00100026MWN
602AZ014053 8120000955680149920YUMA                    ARIZ  061129120A001A34MWN00MWN12ST81A000000
602AZ014053 8120000955680149920YUMA                    ARIZ  100307130A001A28MWH30MWH12AQ99 000000
602AZ014053 8120000955680149920YUMA                    ARIZ  120405130A001A20MWH26MWH12OK46 000000
603AR002008C712000013404002   0ASHLEY                  ARK   090205140A001B59FW 00UU 30UN99 000000
603AR002016 712000005487002   0CROSSETT                ARK   040205140A001A17MW 18MW 12UN99 000000
603AR002026 712000002883002   0HAMBURG                 ARK   120205140A001C00FB 55FB 90UN45 000001                                                  55FB 90UN45
603AR003008B712000025386003   0BAXTER                  ARK   110205140A001A64MW 47MW 13UN60 000000
603AR003008B712000025386003   0BAXTER                  ARK   120205140A001B20MW 00UU 20UN99 000000
603AR003008B712000025386003   0BAXTER                  ARK   120205140A002A45FW 53MW 30GF45 000000
603AR004014 7120000364330042700BENTONVILLE             ARK   080205140A001A44FW 49MB 11GF45 000000
603AR004014 7120000364330042700BENTONVILLE             ARK   110205140A001B06FW 00UU 90UN99 000000
603AR004214 7120000273100042701BELLA VISTA             ARK   100205140A001A46FW 40MW 20UN99 000000
603AR005015 712000013043005   0HARRISON                ARK   030205140A001C01FW 23MW 30UN99 000001                                                  23MW 30UN99
603AR006016 712000006013006   0WARREN                  ARK   090205140A001A52FW 64MW 14WI99 000000
603AR007008D712000003891007   0CALHOUN                 ARK   010205140A001A40FW 53MW 12XW45 000000
603AR007017 712000001273007   0HAMPTON                 ARK   050205140A001C20MB 21MB 11AQ26 000004                                                  32FB 11AQ26 27MB 11AQ26 25MB 11AQ26 36FB 11AQ26
603AR008008C712000017366008   0CARROLL                 ARK   120205140A001A21FW 18MW 11UN99 000000
603AR010015 712000010698010   0ARKADELPHIA             ARK   010205140A001D51MW 36MW 14UN26 00100036FW
603AR010015 712000010698010   0ARKADELPHIA             ARK   120205140A001F40MW 00UU 11UN99 00200006FW 04FW
603AR016013 7120000688070163960JONESBORO               ARK   010205140A001C42MW 26MW 20UN60 000003                                                  23MW 20UN60 22MW 20UN60 26MW 20UN60
603AR016013 7120000688070163960JONESBORO               ARK   050205140A001A37MB 26MB 12AQ18 000000
603AR016013 7120000688070163960JONESBORO               ARK   060205140A001A35MB 34FB 20BF45 000000
603AR016013 7120000688070163960JONESBORO               ARK   070205140A001A30MB 16MB 12ST03 000000
603AR017015 7120000228770172851VAN BUREN               ARK   050205140A001A54FW 58FW 12ST99 000000
603AR018009D7120000098590185191CRITTENDEN              ARK   080205140A001C18MB 17MB 12UN45 000001                                                  17MB 12UN45
603AR018009D7120000098590185191CRITTENDEN              ARK   110205140A001B56FB 00UU 12UN99 000000
603AR018014 7120000261530185191WEST MEMPHIS            ARK   010205140A001A37MB 37MB 20AQ45 000000
603AR018014 7120000261530185191WEST MEMPHIS            ARK   050205140A001A25MB 23MB 11UN99 000000
603AR018014 7120000261530185191WEST MEMPHIS            ARK   080205140A001A35MB 00MB 12UN99 000000
603AR018014 7120000261530185191WEST MEMPHIS            ARK   080205140A002C42MB 00MB 11UN99 000001                                                  00MB 11UN99
603AR018014 7120000261530185191WEST MEMPHIS            ARK   110205140A001A20MB 21MB 11UN26 000000
603AR018014 7120000261530185191WEST MEMPHIS            ARK   120205140A001A29MB 27MB 11UN99 000000
603AR020016 712000004295020   0FORDYCE                 ARK   050205140A001A49FB 56MB 13GF45 000000
603AR020016 712000004295020   0FORDYCE                 ARK   070205140A001C35FW 20MB 13ST60 000001                                                  20MB 13UN60
603AR022008D712000009055022   0DREW                    ARK   120205140A001A56MW 34MW 14UN05 000000
603AR023009B7120000442170234691FAULKNER                ARK   030205140A001A27MW 31MW 13UN60 000000
603AR023009B7120000442170234691FAULKNER                ARK   080205140A001C50UU 19MW 12UN99 000001                                                  00UU 12UN99
603AR023009B7120000442170234691FAULKNER                ARK   100205140A001C60MW 00UU 12UN99 000001                                                  21MW 12UN99
603AR023013 7120000607000234690CONWAY                  ARK   100205140A001A30MB 27MB 11AQ45 000000
603AR024008C712000011941024   0FRANKLIN                ARK   010205140A001A16MW 15MW 14UN45 000000
603AR024008C712000011941024   0FRANKLIN                ARK   010205140A002A44FW 37UW 11UN45 000000
603AR026009B7120000617710263561GARLAND                 ARK   090205140A001A46MW 58MW 14UN99 000000
603AR026014 7120000357220263560HOT SPRINGS             ARK   050205140A001C52MW 52MB 90AQ45 000001                                                  25MB 90AQ45
603AR026014 7120000357220263560HOT SPRINGS             ARK   060205140A001C28MW 34FB 11UN45 000002                                                  25MB 11UN45 21MB 11UN45
603AR026014 7120000357220263560HOT SPRINGS             ARK   080205140A001A19MB 39MB 12UN99 000000
603AR026014 7120000357220263560HOT SPRINGS             ARK   080205140A002C57MW 42MW 30UN99 000002                                                  25FB 30UN99 48MB 30UN99
603AR026014 7120000357220263560HOT SPRINGS             ARK   080205140A003A24MB 30MB 12UN60 000000
603AR026014 7120000357220263560HOT SPRINGS             ARK   090205140A001D42MW 38MW 20AQ99 00100021FB
603AR026014 7120000357220263560HOT SPRINGS             ARK   090205140A002A22MB 24FB 90AQ45 000000
603AR026014 7120000357220263560HOT SPRINGS             ARK   110205140A001B20MB 00UU 12UN99 000000
603AR027016 7120000046550274691SHERIDAN                ARK   040205140A001A27FW 30MW 12WI45 000000
603AR027016 7120000046550274691SHERIDAN                ARK   040205140A002A30MW 33MW 12UN80C000000
603AR028014 712000026602028   0PARAGOULD               ARK   060205140A001A36MW 26MW 20OK45 000000
603AR028014 712000026602028   0PARAGOULD               ARK   070205140A001A18MW 16MW 20AQ60 000000
603AR029008C712000012524029   0HEMPSTEAD               ARK   040205140A001B61MW 00UU 90UN99 000000
603AR029015 712000010103029   0HOPE                    ARK   080205140A001B33MB 00UU 11UN99 000000
603AR035014 7120000485220356640PINE BLUFF              ARK   010205140A001A60MW 29MW 12UN80C000000
603AR035014 7120000485220356640PINE BLUFF              ARK   010205140A002A28MB 00MB 12UN99 000000
603AR035014 7120000485220356640PINE BLUFF              ARK   030205140A001A12MB 15MB 12FR60 000000
603AR035014 7120000485220356640PINE BLUFF              ARK   030205140A002A39FB 20MB 20AQ05 000000
603AR035014 7120000485220356640PINE BLUFF              ARK   040205140A001C21MB 00UU 11AQ60 000002                                                  20MB 11AQ60 19MB 11UN60
603AR035014 7120000485220356640PINE BLUFF              ARK   050205140A001C29MB 20MB 12UN45 000002                                                  00MB 12UN45 28MB 12UN45
603AR035014 7120000485220356640PINE BLUFF              ARK   050205140A002D34FB 31MB 12AQ60 00100044MB
603AR035014 7120000485220356640PINE BLUFF              ARK   060205140A001A65MW 40FW 12BF45 000000
603AR035014 7120000485220356640PINE BLUFF              ARK   060205140A002A35MB 30MB 12UN45 000000
603AR035014 7120000485220356640PINE BLUFF              ARK   060205140A003C20MW 22FB 12UN03 000002                                                  26FB 12UN03 22MB 12UN03
603AR035014 7120000485220356640PINE BLUFF              ARK   070205140A001A34FB 49FB 12AQ99 000000
603AR035014 7120000485220356640PINE BLUFF              ARK   080205140A001B31MB 00UU 12UN60 000000
603AR035014 7120000485220356640PINE BLUFF              ARK   090205140A001B26MU 00UU 11UN99 000000
603AR035014 7120000485220356640PINE BLUFF              ARK   110205140A001A54MB 29FB 12OF60 000000
603AR036008C712000014928036   0JOHNSON                 ARK   010205140A001A71FA 48MA 90UN99 000000
603AR036008C712000014928036   0JOHNSON                 ARK   010205140A002A71FA 48MA 30UN05 000000
603AR046014 7120000302310468871TEXARKANA               ARK   070205140A001A26MW 20FB 20BF45 000000
603AR047015 712000015506047   0BLYTHEVILLE             ARK   020205140A001A37MB 42MB 20AQ99 000000
603AR047015 712000015506047   0BLYTHEVILLE             ARK   030205140A001A65MB 17MB 11UN99 000000
603AR047015 712000015506047   0BLYTHEVILLE             ARK   040205140A001B56MW 00UU 11UN99 000000
603AR047015 712000015506047   0BLYTHEVILLE             ARK   060205140A001A21MB 17MW 12AQ45 000000
603AR047015 712000015506047   0BLYTHEVILLE             ARK   080205140A001A47MB 39MB 12UN45 000000
603AR047015 712000015506047   0BLYTHEVILLE             ARK   100205140A001B59MW 00UU 12UN45 000000
603AR047015 712000015506047   0BLYTHEVILLE             ARK   120205140A001D18MW 16MB 12AQ99 00100017MB
603AR048027 712000001655048   0CLARENDON               ARK   110205140A001A58MW 26MW 20ER03 000000
603AR052008C712000012899052   0OUACHITA                ARK   120205140A001B47FB 00UU 90UN05 000000
603AR052015 712000012118052   0CAMDEN                  ARK   120205140A001A26MB 43MB 20UN60 000000
603AR054015 712000012152054   0HELENA-WEST HELENA      ARK   030205140A001A35MB 34FB 20UN45 000000
603AR056026 7120000072500563961TRUMANN                 ARK   090205140A001D57MW 28MW 90UN99 00100056FW
603AR057016 712000005745057   0MENA                    ARK   120205140A001A80MW 17FW 20UN60 000000
603AR058008B712000026971058   0POPE                    ARK   050205140A001C65MW 26MW 90AQ45 000001                                                  25FW 90AQ45
603AR059027 712000001705059   0DES ARC                 ARK   090205140A001A29MW 29MB 20UN45 000000
603AR060009B7120000517650604691PULASKI                 ARK   050205140A001F27MB 00UU 11UN60 00100024FB
603AR060009B7120000517650604691PULASKI                 ARK   050205140A002A55MW 45MW 12UN60 000000
603AR060009B7120000517650604691PULASKI                 ARK   100205140A001A22MB 34MB 12NE45 000000
603AR060009B7120000517650604691PULASKI                 ARK   100205140A002C46MW 40FW 90AQ99 000003                                                  20MW 90AQ99 35MW 90AQ99 24MW 90AQ99
603AR060014 7120000287330604691JACKSONVILLE            ARK   030205140A001A56MW 47MB 90ST60 000000
603AR060014 7120000287330604691JACKSONVILLE            ARK   100205140A001ABBFB 37MB 90OK99 000000
603AR060022 7120001960550604690LITTLE ROCK             ARK   010205140A001C22MB 29MB 11OK45 000002                                                  29MB 11UN45 26MB 11UN45
603AR060022 7120001960550604690LITTLE ROCK             ARK   010205140A002C32MB 35MB 11UN99 000001                                                  00UU 11UN99
603AR060022 7120001960550604690LITTLE ROCK             ARK   010205140A003A33MB 41MB 11UN99 000000
603AR060022 7120001960550604690LITTLE ROCK             ARK   010205140A004A48MW 34MW 20HO99 000000
603AR060022 7120001960550604690LITTLE ROCK             ARK   010205140A005C31MB 31MB 13OK99 000001                                                  41MW 13ST99
603AR060022 7120001960550604690LITTLE ROCK             ARK   010205140A006A28MB 28MB 11UN99 000000
603AR060022 7120001960550604690LITTLE ROCK             ARK   010205140A007B19MB 00UU 11UN99 000000
603AR060022 7120001960550604690LITTLE ROCK             ARK   020205140A001B29MB 00UU 11UN99 000000
603AR060022 7120001960550604690LITTLE ROCK             ARK   030205140A001B07MW 00UU 11UN60 000000
603AR060022 7120001960550604690LITTLE ROCK             ARK   030205140A002A32MB 29FB 20BF45 000000
603AR060022 7120001960550604690LITTLE ROCK             ARK   040205140A001C00MB 00MW 12UN99 000002                                                  00MW 12UN99 00MW 12UN99
603AR060022 7120001960550604690LITTLE ROCK             ARK   040205140A002C36MW 00MB 11ST99 000001                                                  00MB 11ST99
603AR060022 7120001960550604690LITTLE ROCK             ARK   040205140A003C39MW 00MB 12UN26 000003                                                  00MB 12UN26 00MB 12UN26 00MB 12UN26
603AR060022 7120001960550604690LITTLE ROCK             ARK   040205140A004C41MW 26MW 90UN05 000001                                                  26MW 90UN05
603AR060022 7120001960550604690LITTLE ROCK             ARK   050205140A001C14MB 14MB 12UN26 000001                                                  58MB 12ST26
603AR060022 7120001960550604690LITTLE ROCK             ARK   050205140A002A44MB 15FB 20AQ60 000000
603AR060022 7120001960550604690LITTLE ROCK             ARK   050205140A003A28MW 19MB 12UN26 000000
603AR060022 7120001960550604690LITTLE ROCK             ARK   050205140A004C19MB 24MB 12OK60 000001                                                  19MB 12OK60
603AR060022 7120001960550604690LITTLE ROCK             ARK   050205140A005A14MB 13MB 12UN99 000000
603AR060022 7120001960550604690LITTLE ROCK             ARK   050205140A006B18MB 00UU 11UN45 000000
603AR060022 7120001960550604690LITTLE ROCK             ARK   060205140A001B27MB 00UU 11UN99 000000
603AR060022 7120001960550604690LITTLE ROCK             ARK   070205140A001E25MW 00MW 20FR45 00100100MW                                              51MW 20UN45
603AR060022 7120001960550604690LITTLE ROCK             ARK   070205140A002A22MW 12UU 11UN99 000000
603AR060022 7120001960550604690LITTLE ROCK             ARK   070205140A003C00MW 12MU 12UN60 000001                                                  12MU 12UN60
603AR060022 7120001960550604690LITTLE ROCK             ARK   070205140A004C31MB 27MB 12UN99 000002                                                  23MB 12UN99 25MB 12UN99
603AR060022 7120001960550604690LITTLE ROCK             ARK   070205140A005B25FB 00UU 90UN99 000000
603AR060022 7120001960550604690LITTLE ROCK             ARK   070205140A006D65FB 33MB 40UN99 00100065MB
603AR060022 7120001960550604690LITTLE ROCK             ARK   070205140A007C50MW 20MB 12OK99 000001                                                  19MB 12UN99
603AR060022 7120001960550604690LITTLE ROCK             ARK   070205140A008A51MW 43MW 30UN99 000000
603AR060022 7120001960550604690LITTLE ROCK             ARK   080205140A001C25MB 20MB 12UN99 000002                                                  34FB 12UN99 00UU 12UN99
603AR060022 7120001960550604690LITTLE ROCK             ARK   080205140A002C43MW 39MW 12UN99 000002                                                  28MW 12UN99 43MW 12UN99
603AR060022 7120001960550604690LITTLE ROCK             ARK   080205140A003C15MB 15MB 12ST60 000003                                                  16MB 12UN60 15MB 12UN60 26MW 12UN60
603AR060022 7120001960550604690LITTLE ROCK             ARK   080205140A004C42MB 37MB 11UN99 000001                                                  30MB 11UN99
603AR060022 7120001960550604690LITTLE ROCK             ARK   080205140A005C26MB 36MB 11OK45 000001                                                  19MB 11OK45
603AR060022 7120001960550604690LITTLE ROCK             ARK   090205140A001C22MW 00MB 11ST99 000001                                                  00MB 11ST99
603AR060022 7120001960550604690LITTLE ROCK             ARK   090205140A002B19MB 00UU 12UN99 000000
603AR060022 7120001960550604690LITTLE ROCK             ARK   100205140A001A37MB 30MB 12UN99 000000
603AR060022 7120001960550604690LITTLE ROCK             ARK   100205140A002A70MB 30MB 90UN99 000000
603AR060022 7120001960550604690LITTLE ROCK             ARK   100205140A003B27MB 00UU 12UN99 000000
603AR060022 7120001960550604690LITTLE ROCK             ARK   100205140A004A26MW 23MB 11UN03 000000
603AR060022 7120001960550604690LITTLE ROCK             ARK   100205140A005B43MB 00UU 11UN99 000000
603AR060022 7120001960550604690LITTLE ROCK             ARK   110205140A001A33FB 32MB 11UN60 000000
603AR060022 7120001960550604690LITTLE ROCK             ARK   110205140A002C19MB 26MB 11UN99 000001                                                  33MB 11UN99
603AR060033 7120000631250604690NORTH LITTLE ROCK       ARK   020205140A001A32MB 27MB 12UN99 000000
603AR060033 7120000631250604690NORTH LITTLE ROCK       ARK   040205140A001A51MW 47MW 12AQ45 000000
603AR060033 7120000631250604690NORTH LITTLE ROCK       ARK   070205140A001C26MB 19MB 11UN99 000001                                                  16FB 11UN99
603AR060033 7120000631250604690NORTH LITTLE ROCK       ARK   070205140A002B21MB 00UU 11UN18 000000
603AR060033 7120000631250604690NORTH LITTLE ROCK       ARK   090205140A001C29FB 20MB 12UN03 000003                                                  20MB 12UN03 19MB 12UN03 20MB 12UN03
603AR060033 7120000631250604690NORTH LITTLE ROCK       ARK   090205140A002A23MB 19MB 20OK45 000000
603AR060033 7120000631250604690NORTH LITTLE ROCK       ARK   100205140A001A20MB 22MB 11ST45 000000
603AR060033 7120000631250604690NORTH LITTLE ROCK       ARK   120205140A001C60MW 21MB 12UN99 000001                                                  20MB 12UN99
603AR060165 7120000173910604691MAUMELLE                ARK   110205140A001A41FB 42MB 12WI99 000000
603AR062015 712000015295062   0FORREST CITY            ARK   070205140A001A58MB 35MB 20ST99 000000
603AR062015 712000015295062   0FORREST CITY            ARK   110205140A001C30MB 28MB 12AQ99 000002                                                  22MW 12AQ99 28MB 12AQ99
603AR062015 712000015295062   0FORREST CITY            ARK   110205140A002A20MB 20MB 12AQ18 000000
603AR062015 712000015295062   0FORREST CITY            ARK   120205140A001A54MB 20MB 20ST45 000000
603AR065008D712000008067065   0SEARCY                  ARK   110205140A001A55MW 18MW 13UN60 000000
603AR066009B7120000263230662851SEBASTIAN               ARK   020205140A001A00UU 38MW 90UN99 000000
603AR066013 7120000874830662850FORT SMITH              ARK   010205140A001A36MW 29UW 12UN60 000000
603AR066013 7120000874830662850FORT SMITH              ARK   050205140A001A27MB 37MB 11OK45 000000
603AR066013 7120000874830662850FORT SMITH              ARK   050205140A002A32FW 34MW 20WI60 000000
603AR066013 7120000874830662850FORT SMITH              ARK   100205140A001A24MW 23MW 20AQ60 000000
603AR066013 7120000874830662850FORT SMITH              ARK   120205140A001A21FB 23MB 12OK60 000000
603AR070015 712000018860070   0EL DORADO               ARK   100205140A001A21MB 17MB 12UN99 000000
603AR071008C712000012432071   0VAN BUREN               ARK   030205140A001A94FW 62FW 50MO99 000000
603AR072009B7120000481710722701WASHINGTON              ARK   040205140A001A29FW 27MW 40WI45 000000
603AR072009B7120000481710722701WASHINGTON              ARK   070205140A001A43MW 26MW 20UN45 000000
603AR072009B7120000481710722701WASHINGTON              ARK   110205140A001A37FW 34MW 90GF45 000000
603AR072009B7120000481710722701WASHINGTON              ARK   120205140A001C48MW 35FW 40AQ45 000003                                                  35MW 40AQ45 35MW 40AQ45 38MW 40AQ45
603AR072013 7120000753870722700FAYETTEVILLE            ARK   020205140A001A40MW 65MW 11UN80C000000
603AR072013 7120000753870722700FAYETTEVILLE            ARK   080205140A001A39FW 40MW 11GF07 000000
603AR072023 7120000716680722700SPRINGDALE              ARK   080205140A001A00MW 23MB 40SO60 000000
603AR072036 7120000044970722701PRAIRIE GROVE           ARK   120205140A001C48MW 35MW 30UN05 000003                                                  00MW 30UN05 35MW 30UN05 35FW 30UN05
603AR073008B712000038521073   0WHITE                   ARK   040205140A001A42FW 48MW 12UN99 000000
603AR075008C712000013119075   0YELL                    ARK   050205140A001A26MW 34FW 14HU45 000000
604CA001009A9120001444420017831ALAMEDA                 CALIF 020713121A001B59MBN00UUU20UN99 000000
604CA001009A9120001444420017831ALAMEDA                 CALIF 050822121A001B27MWN00UUU20UN99 000000
604CA001009A9120001444420017831ALAMEDA                 CALIF 091106121A001A20MBN20MBN11ST99 000000
604CA001009A9120001444420017831ALAMEDA                 CALIF 091106121A002B22MBN00UUU12UN99 000000
604CA001009A9120001444420017831ALAMEDA                 CALIF 100108131A001C58FAN14MWH90AQ99 000001                                                  15MWN90AQ99
604CA001013 9120000754670017830ALAMEDA                 CALIF 020713121A001A30FWN36MWH12GF45 000000
604CA001032 9120001149610017830BERKELEY                CALIF 010108131A001B35MBN00UUU11UN99 000000
604CA001032 9120001149610017830BERKELEY                CALIF 020822121A001A67MWN23MBN30ST45 000000
604CA001032 9120001149610017830BERKELEY                CALIF 030822121A001A24MBN18MBN11ST45 000000
604CA001032 9120001149610017830BERKELEY                CALIF 100327131A001B65MWN00UUU30UN99 000000
604CA001032 9120001149610017830BERKELEY                CALIF 120208131A001B50FBN00UUU11UN99 000000
604CA001045 9120000103090017831EMERYVILLE              CALIF 060822121A001A18FBN18MBN12GF45 000000
604CA001045 9120000103090017831EMERYVILLE              CALIF 081009121A001B43MWN00UUU90UN99 000000
604CA001045 9120000103090017831EMERYVILLE              CALIF 120313131A001B34MBN00UUU12UN99 000000
604CA001052 9120002189270017830FREMONT                 CALIF 040822121A001B20MAN00UUU11UN99 000000
604CA001052 9120002189270017830FREMONT                 CALIF 040822121A002A18MAN18MBN20AQ99 000000
604CA001062 9120001474240017830HAYWARD                 CALIF 020713121A001B48MWH00UUU30UN26 000000
604CA001062 9120001474240017830HAYWARD                 CALIF 020713121A002A27MWN49MBN12ST47 000000
604CA001062 9120001474240017830HAYWARD                 CALIF 080108131A001B25MBN00UUU11UN45 000000
604CA001062 9120001474240017830HAYWARD                 CALIF 080108131A002B53MWH00UUU11UN03 000000
604CA001062 9120001474240017830HAYWARD                 CALIF 080108131A003B43MBN00UUU11UN99 000000
604CA001062 9120001474240017830HAYWARD                 CALIF 120213131A001A26MBN32MBN14ST45 000000
604CA001084 9120000435390017831NEWARK                  CALIF 090108131A001B17FWN00UUU12UN99 000000
604CA001091C9120003994870017830OAKLAND                 CALIF 010822121A001A68FAN38MAN40MO45 000000
604CA001091C9120003994870017830OAKLAND                 CALIF 010822121A002B28MBN00UUU12UN99 000000
604CA001091C9120003994870017830OAKLAND                 CALIF 010822121A003B35MBN00UUU11UN99 000000
604CA001091C9120003994870017830OAKLAND                 CALIF 010822121A004B19MBN00UUU12UN99 000000
604CA001091C9120003994870017830OAKLAND                 CALIF 010822121A005D55MWN15MWN80FA45 00100050FWN
604CA001091C9120003994870017830OAKLAND                 CALIF 010822121A006B31FBN00UUU12UN99 000000
604CA001091C9120003994870017830OAKLAND                 CALIF 010822121A007B20MAN00UUU11UN47 000000
604CA001091C9120003994870017830OAKLAND                 CALIF 010822121A008A19MBN36MBN11ST45 000000
604CA001091C9120003994870017830OAKLAND                 CALIF 020822121A001B24MBN00UUU13UN99 000000
604CA001091C9120003994870017830OAKLAND                 CALIF 020822121A002B48MBN00UUU12UN99 000000
604CA001091C9120003994870017830OAKLAND                 CALIF 020822121A003B30MBN00UUU12UN99 000000
604CA001091C9120003994870017830OAKLAND                 CALIF 020822121A004A35MBN37MBN14ST45 000000
604CA001091C9120003994870017830OAKLAND                 CALIF 020822121A005B32FBN00UUU12UN99 000000
604CA001091C9120003994870017830OAKLAND                 CALIF 020822121A006B17MBN00UUU12UN99 000000
604CA001091C9120003994870017830OAKLAND                 CALIF 020822121A007B30MWN00UUU14UN99 000000
604CA001091C9120003994870017830OAKLAND                 CALIF 020822121A008B18FBN00UUU12UN99 000000
604CA001091C9120003994870017830OAKLAND                 CALIF 020822121A009A51MBN47FBN20BF45 000000
604CA001091C9120003994870017830OAKLAND                 CALIF 020822121A010B44MBN00UUU12UN99 000000
604CA001091C9120003994870017830OAKLAND                 CALIF 020822121A011B78MWN00UUU30UN99 000000
604CA001091C9120003994870017830OAKLAND                 CALIF 030822121A001B18MWN00UUU11UN99 000000
604CA001091C9120003994870017830OAKLAND                 CALIF 030822121A002B51MBN00UUU11UN18 000000
604CA001091C9120003994870017830OAKLAND                 CALIF 030822121A003B34MBN00UUU11UN99 000000
604CA001091C9120003994870017830OAKLAND                 CALIF 030320131A004A27MBN26FBN13AQ80C000000
604CA001091C9120003994870017830OAKLAND                 CALIF 030822121A005A16MBN17MBN12ST99 000000
604CA001091C9120003994870017830OAKLAND                 CALIF 030822121A006B31MBN00UUU11UN99 000000
604CA001091C9120003994870017830OAKLAND                 CALIF 030822121A007A36MBN23MBN11ST99 000000
604CA001091C9120003994870017830OAKLAND                 CALIF 040822121A001D40FBN43MAN12OK26 00600023FAN53FBN33FAN38MAN24FAN21FAN
604CA001091C9120003994870017830OAKLAND                 CALIF 040822121A002B30MBN00UUU11UN99 000000
604CA001091C9120003994870017830OAKLAND                 CALIF 040822121A003B21MBN00UUU12UN99 000000
604CA001091C9120003994870017830OAKLAND                 CALIF 040822121A004B24MBN00UUU12UN99 000000
604CA001091C9120003994870017830OAKLAND                 CALIF 040822121A005A15MBN14MBN11ST45 000000
604CA001091C9120003994870017830OAKLAND                 CALIF 040822121A006B43MAN00UUU12UN99 000000
604CA001091C9120003994870017830OAKLAND                 CALIF 040822121A007B18MBN00UUU12UN99 000000
604CA001091C9120003994870017830OAKLAND                 CALIF 040822121A008B51MBN00UUU40UN45 000000
604CA001091C9120003994870017830OAKLAND                 CALIF 040822121A009B49MBN00UUU12UN03 000000
604CA001091C9120003994870017830OAKLAND                 CALIF 040822121A010B37MBN00UUU12UN45 000000
604CA001091C9120003994870017830OAKLAND                 CALIF 050822121A001B26MBN00UUU12UN99 000000
604CA001091C9120003994870017830OAKLAND                 CALIF 050108131A002B41MBN00UUU11UN99 000000
604CA001091C9120003994870017830OAKLAND                 CALIF 050822121A003B30MBN00UUU11UN99 000000
604CA001091C9120003994870017830OAKLAND                 CALIF 050822121A004A18MBN35MWH11ST81A000000
604CA001091C9120003994870017830OAKLAND                 CALIF 060118131A001B18MWH00UUU12UN99 000000
604CA001091C9120003994870017830OAKLAND                 CALIF 060822121A002B21MBN00UUU12UN99 000000
604CA001091C9120003994870017830OAKLAND                 CALIF 060822121A003A26MBN24MBN13OF45 000000
604CA001091C9120003994870017830OAKLAND                 CALIF 060822121A004B30MBN00UUU12UN99 000000
604CA001091C9120003994870017830OAKLAND                 CALIF 060822121A005B67MWN00UUU20UN99 000000
604CA001091C9120003994870017830OAKLAND                 CALIF 060118131A006B34MWH00UUU12UN99 000000
604CA001091C9120003994870017830OAKLAND                 CALIF 060118131A007A33MWH19FBN90ST45 000000
604CA001091C9120003994870017830OAKLAND                 CALIF 060822121A008B18FBN00UUU12UN99 000000
604CA001091C9120003994870017830OAKLAND                 CALIF 071009121A001B25MBN00UUU13UN99 000000
604CA001091C9120003994870017830OAKLAND                 CALIF 071009121A002A67MBN70MBN12AQ45 000000
604CA001091C9120003994870017830OAKLAND                 CALIF 071025121A003C18MB 30FB 12BF45 000001                                                  15MB 12AQ45
604CA001091C9120003994870017830OAKLAND                 CALIF 071009121A004A44MWN22FWH12BF18 000000
604CA001091C9120003994870017830OAKLAND                 CALIF 071009121A005B84MWH00UUU40UN99 000000
604CA001091C9120003994870017830OAKLAND                 CALIF 071009121A006B20MBN00UUU12UN45 000000
604CA001091C9120003994870017830OAKLAND                 CALIF 071009121A007A15MBN15MBN12ST45 000000
604CA001091C9120003994870017830OAKLAND                 CALIF 071009121A008B19FUU00UUU11UN99 000000
604CA001091C9120003994870017830OAKLAND                 CALIF 071009121A009B29MWH00UUU14UN99 000000
604CA001091C9120003994870017830OAKLAND                 CALIF 071009121A010B41MWH00UUU12UN99 000000
604CA001091C9120003994870017830OAKLAND                 CALIF 071009121A011A33FAN27MBN40GF45 000000
604CA001091C9120003994870017830OAKLAND                 CALIF 081106121A001B16FBN00UUU12UN26 000000
604CA001091C9120003994870017830OAKLAND                 CALIF 081106121A002B24MBN00UUU12UN99 000000
604CA001091C9120003994870017830OAKLAND                 CALIF 081106121A003A23MBN25MAN12ST45 000000
604CA001091C9120003994870017830OAKLAND                 CALIF 081106121A004B22MBN00UUU12UN99 000000
604CA001091C9120003994870017830OAKLAND                 CALIF 081106121A005A30MBN25MBN12ST26 000000
604CA001091C9120003994870017830OAKLAND                 CALIF 081106121A006B25MBN00UUU12UN26 000000
604CA001091C9120003994870017830OAKLAND                 CALIF 080313131A007A21MBN23MBN12ST45 000000
604CA001091C9120003994870017830OAKLAND                 CALIF 081106121A008B20FBN00UUU11UN45 000000
604CA001091C9120003994870017830OAKLAND                 CALIF 081106121A009B46MBN00UUU12UN47 000000
604CA001091C9120003994870017830OAKLAND                 CALIF 081106121A010A21FBN21MBN12NE45 000000
604CA001091C9120003994870017830OAKLAND                 CALIF 081106121A011A20MBN47MBN12ST26 000000
604CA001091C9120003994870017830OAKLAND                 CALIF 080313131A012B22MBN00UUU12UN45 000000
604CA001091C9120003994870017830OAKLAND                 CALIF 081106121A013A23MBN31MWH12ST80C000000
604CA001091C9120003994870017830OAKLAND                 CALIF 081106121A014A20MAN57MAN12ST80C000000
604CA001091C9120003994870017830OAKLAND                 CALIF 090208131A001A29MBN14MBN12ST99 000000
604CA001091C9120003994870017830OAKLAND                 CALIF 090208131A002B24MBN00UUU12UN99 000000
604CA001091C9120003994870017830OAKLAND                 CALIF 090208131A003A32MBN25MBN12ST99 000000
604CA001091C9120003994870017830OAKLAND                 CALIF 090208131A004C42MBN26MBN12ST99 000001                                                  21MBN12ST99
604CA001091C9120003994870017830OAKLAND                 CALIF 090208131A005B21MBN00UUU11UN99 000000
604CA001091C9120003994870017830OAKLAND                 CALIF 090208131A006B36MWN00UUU12UN99 000000
604CA001091C9120003994870017830OAKLAND                 CALIF 090208131A007A34MBN30MAN11ST99 000000
604CA001091C9120003994870017830OAKLAND                 CALIF 090208131A008B23MBN00UUU12UN99 000000
604CA001091C9120003994870017830OAKLAND                 CALIF 090208131A009B38MBN00UUU12UN99 000000
604CA001091C9120003994870017830OAKLAND                 CALIF 100213131A001A29MBN21MBN12ST26 000000
604CA001091C9120003994870017830OAKLAND                 CALIF 100213131A002B18MBN00UUU13UN99 000000
604CA001091C9120003994870017830OAKLAND                 CALIF 100213131A003B26MBN00UUU12UN99 000000
604CA001091C9120003994870017830OAKLAND                 CALIF 100213131A004F23MBN00UUU14UN99 00100027MBN
604CA001091C9120003994870017830OAKLAND                 CALIF 100213131A005B44MWH00UUU12UN47 000000
604CA001091C9120003994870017830OAKLAND                 CALIF 100213131A006B21MBN00UUU11UN47 000000
604CA001091C9120003994870017830OAKLAND                 CALIF 100213131A007B39MBN00UUU14UN99 000000
604CA001091C9120003994870017830OAKLAND                 CALIF 100213131A008F19MBN00UUU12UN99 00100028MBN
604CA001091C9120003994870017830OAKLAND                 CALIF 100213131A009B24MBN00UUU13UN47 000000
604CA001091C9120003994870017830OAKLAND                 CALIF 100213131A010B21MBN00UUU12UN99 000000
604CA001091C9120003994870017830OAKLAND                 CALIF 100213131A011C32MBN20MBN12ST99 000001                                                  20MBN12ST99
604CA001091C9120003994870017830OAKLAND                 CALIF 100213131A012B47MBN00UUU12UN99 000000
604CA001091C9120003994870017830OAKLAND                 CALIF 100213131A013B20MBN00UUU12UN99 000000
604CA001091C9120003994870017830OAKLAND                 CALIF 100213131A014B27MBN00UUU12UN99 000000
604CA001091C9120003994870017830OAKLAND                 CALIF 100213131A015B27MBN00UUU11UN99 000000
604CA001091C9120003994870017830OAKLAND                 CALIF 100213131A016B50MBN00UUU12UN03 000000
604CA001091C9120003994870017830OAKLAND                 CALIF 110313131A001B18MWH00UUU12UN99 000000
604CA001091C9120003994870017830OAKLAND                 CALIF 110313131A002B27MBN00UUU12UN99 000000
604CA001091C9120003994870017830OAKLAND                 CALIF 110313131A003B33MWH00UUU12UN99 000000
604CA001091C9120003994870017830OAKLAND                 CALIF 110313131A004B48MBN00UUU12UN26 000000
604CA001091C9120003994870017830OAKLAND                 CALIF 110313131A005A18FWH26MWH12GF45 000000
604CA001091C9120003994870017830OAKLAND                 CALIF 110313131A006A19MBN28MBN12ST26 000000
604CA001091C9120003994870017830OAKLAND                 CALIF 110313131A007E15FWN18MBN12AQ99 00100316FWN                                             19MBN12AQ99 18MBN12AQ99 19MBN12AQ99
604CA001091C9120003994870017830OAKLAND                 CALIF 110313131A008B26MWH00UUU13UN99 000000
604CA001091C9120003994870017830OAKLAND                 CALIF 110118131A009B38MBN00UUU12UN99 000000
604CA001091C9120003994870017830OAKLAND                 CALIF 120320131A001A32FBN31MBN12GF45 000000
604CA001091C9120003994870017830OAKLAND                 CALIF 120320131A002A39MBN20MBN13ST99 000000
604CA001091C9120003994870017830OAKLAND                 CALIF 120320131A003A32MBN27MBN12AQ45 000000
604CA001091C9120003994870017830OAKLAND                 CALIF 120320131A004B56MAN00UUU12UN03 000000
604CA001091C9120003994870017830OAKLAND                 CALIF 120320131A005A39MBN27MBN30AQ45 000000
604CA001091C9120003994870017830OAKLAND                 CALIF 120320131A006B49MBN00UUU11UN99 000000
604CA001091C9120003994870017830OAKLAND                 CALIF 120320131A007B48FBN00UUU12UN99 000000
604CA001091C9120003994870017830OAKLAND                 CALIF 120320131A008B45MBN00UUU11UN99 000000
604CA001091C9120003994870017830OAKLAND                 CALIF 120320131A009B26MBN00UUU12UN99 000000
604CA001091C9120003994870017830OAKLAND                 CALIF 120320131A010B32MBN00UUU11UN99 000000
604CA001091C9120003994870017830OAKLAND                 CALIF 120320131A011F19MBN00UUU12UN99 00100021MBN
604CA001091C9120003994870017830OAKLAND                 CALIF 120320131A012A26FWN34MBN20AQ45 000000
604CA001091C9120003994870017830OAKLAND                 CALIF 120320131A013A15FBN13MBN12ST99 000000
604CA001113 9120000718750017830PLEASANTON              CALIF 050822121A001B13FBN00UUU12UN99 000000
604CA001123 9120000868690017830SAN LEANDRO             CALIF 010713121A001A15FWH19MAN20GF45 000000
604CA001123 9120000868690017830SAN LEANDRO             CALIF 030713121A001A24FWH26MWH20GF45 000000
604CA004009B9120000846420041641BUTTE                   CALIF 021009121A001A49MWN64MWN12FR44 000000
604CA004009B9120000846420041641BUTTE                   CALIF 040822121A001C02MAN43FAN40SO60 000001                                                  46MAN40SO60
604CA004009B9120000846420041641BUTTE                   CALIF 050108131A001A39MWN42MWN20ST80E000000
604CA004009B9120000846420041641BUTTE                   CALIF 070108131A001D22MWH21MWH12OK46 00100027MWH
604CA004009B9120000846420041641BUTTE                   CALIF 081009121A001B27MWN00UUU11UN99 000000
604CA004009B9120000846420041641BUTTE                   CALIF 081009121A002A41MBN59MWH20AQ45 000000
604CA004009B9120000846420041641BUTTE                   CALIF 091106121A001A50FWN25MWN14MO99 000000
604CA004009B9120000846420041641BUTTE                   CALIF 091106121A002A56FWN29MWN20MO45 000000
604CA004009B9120000846420041641BUTTE                   CALIF 120213131A001A50MWN45MWN12ST81A000000
604CA004023 9120000870900041640CHICO                   CALIF 100108131A001A53FWN30FWN12AQ99 000000
604CA004036 9120000066540041641GRIDLEY                 CALIF 100118131A001C18MWH19MWH12OK47 000002                                                  18MWH12OK47 16MWH12OK47
604CA004045 9120000157070041641OROVILLE                CALIF 100213131A001B18MAN00UUU12UN26 000000
604CA006016 912000006065006   0COLUSA                  CALIF 081009121A001A14MWH16MWH12OK47 000000
604CA007009A9120001587230077831CONTRA COSTA            CALIF 010713121A001A22MBN22MBN11OF44 000000
604CA007009A9120001587230077831CONTRA COSTA            CALIF 010713121A002A45MWN18MWN20AQ45 000000
604CA007009A9120001587230077831CONTRA COSTA            CALIF 050822121A001B22MBN00UUU11UN99 000000
604CA007009A9120001587230077831CONTRA COSTA            CALIF 060822121A001B22MBN00UUU11UN26 000000
604CA007009A9120001587230077831CONTRA COSTA            CALIF 060822121A002A58FBN35FWH80AQ45 000000
604CA007009A9120001587230077831CONTRA COSTA            CALIF 091106121A001B17MWH00UUU11UN99 000000
604CA007009A9120001587230077831CONTRA COSTA            CALIF 091106121A002A59FWN59MWN90NE45 000000
604CA007009A9120001587230077831CONTRA COSTA            CALIF 100108131A001F24MBN00UUU11UN99 00100021FBN
604CA007009A9120001587230077831CONTRA COSTA            CALIF 120208131A002A47MWN38MWN80AQ45 000000
604CA007012 9120001050090077830ANTIOCH                 CALIF 020822121A001B56MBN00UUU12UN47 000000
604CA007012 9120001050090077830ANTIOCH                 CALIF 020822121A002A18MBN34MBN12ST80E000000
604CA007012 9120001050090077830ANTIOCH                 CALIF 030822121A001C26MWN31MWN12ST81B000001                                                  33MWN12ST81B
604CA007012 9120001050090077830ANTIOCH                 CALIF 030822121A002B38MWH00UUU12UN42 000000
604CA007012 9120001050090077830ANTIOCH                 CALIF 060822121A001B21MUU00UUU12UN99 000000
604CA007012 9120001050090077830ANTIOCH                 CALIF 060108131A002B20MBN00UUU12UN99 000000
604CA007012 9120001050090077830ANTIOCH                 CALIF 060118131A003A35MBN41MWN12ST81A000000
604CA007012 9120001050090077830ANTIOCH                 CALIF 070108131B001A37MUU40MWH11BR53 000000
604CA007012 9120001050090077830ANTIOCH                 CALIF 090118131A001B30MBN00UUU12UN45 000000
604CA007012 9120001050090077830ANTIOCH                 CALIF 100108131A001C26MBN45MBN20AQ99 000001                                                  41FBN20AQ99
604CA007012 9120001050090077830ANTIOCH                 CALIF 110118131A001C44MBN25FWH12OK44 000001                                                  31MWN12OK44
604CA007012 9120001050090077830ANTIOCH                 CALIF 110118131A002C32MWH24MWN12ST06 000001                                                  28MBN12ST06
604CA007012 9120001050090077830ANTIOCH                 CALIF 120208131A001A60MBN60MBN12OK45 000000
604CA007012 9120001050090077830ANTIOCH                 CALIF 120208131A002B43MBN00UUU12UN99 000000
604CA007023 9120000528110077830BRENTWOOD               CALIF 030713121A001A42FAN47MAN11WI45 000000
604CA007065 9120000246820077831HERCULES                CALIF 100108131A001C55FAN24MBN14ST03 000001                                                  25FBN14ST03
604CA007083 9120000648900077830PITTSBURG               CALIF 020713121A001A29FWH20MWH20OK26 000000
604CA007083 9120000648900077830PITTSBURG               CALIF 091106121A001A18MBN21MBN12ST99 000000
604CA007083 9120000648900077830PITTSBURG               CALIF 100108131A001B20MBN00UUU12UN99 000000
604CA007094 9120000340010077831PLEASANT HILL           CALIF 020713121A001B21MBN00UUU11UN26 000000
604CA007102 9120001063570077830RICHMOND                CALIF 010713121A001B57MAN00UUU20UN99 000000
604CA007102 9120001063570077830RICHMOND                CALIF 010713121A002A22MWH31MBN12ST99 000000
604CA007102 9120001063570077830RICHMOND                CALIF 020713121A001A24MBN28MBN11ST99 000000
604CA007102 9120001063570077830RICHMOND                CALIF 020713121A002A24FBN32FBN20OK40 000000
604CA007102 9120001063570077830RICHMOND                CALIF 020713121A003C25MWH25MWH11ST03 000001                                                  21MWH11ST03
604CA007102 9120001063570077830RICHMOND                CALIF 030713121A001B23MBN00UUU11UN99 000000
604CA007102 9120001063570077830RICHMOND                CALIF 030713121A002B54MBN00UUU11UN99 000000
604CA007102 9120001063570077830RICHMOND                CALIF 050822121A001B27MBN00UUU11UN99 000000
604CA007102 9120001063570077830RICHMOND                CALIF 060822121A001B25MBN00UUU11UN99 000000
604CA007102 9120001063570077830RICHMOND                CALIF 060822121A002A19MWH22MWH11ST45 000000
604CA007102 9120001063570077830RICHMOND                CALIF 081009121A001A16MWH29MWH12ST99 000000
604CA007102 9120001063570077830RICHMOND                CALIF 081009121A002B34MBN00UUU12UN99 000000
604CA007102 9120001063570077830RICHMOND                CALIF 091106121A001A38MWH33MWH12IL99 000000
604CA007102 9120001063570077830RICHMOND                CALIF 091106121A002A27MBN32MBN12OF45 000000
604CA007102 9120001063570077830RICHMOND                CALIF 091106121A003A23MBN20MBN12OF99 000000
604CA007102 9120001063570077830RICHMOND                CALIF 110213131A001B37MBN00UUU12UN99 000000
604CA007102 9120001063570077830RICHMOND                CALIF 110213131A002B21MBN00UUU12UN99 000000
604CA007102 9120001063570077830RICHMOND                CALIF 110213131A003B34MBN00UUU12UN99 000000
604CA007114 9120000298840077831SAN PABLO               CALIF 030822121A001C29MWN27MWN11ST99 000001                                                  22MBN11ST99
604CA007114 9120000298840077831SAN PABLO               CALIF 040822121A001C27MWN18MWN12ST99 000003                                                  19MWN12ST99 20MWN12ST99 19MWN12ST99
604CA007114 9120000298840077831SAN PABLO               CALIF 081009121A001B18MWH00UUU12UN99 000000
604CA007114 9120000298840077831SAN PABLO               CALIF 081106121A002C24MWH22MWH12OK47 000002                                                  19MWH12OK47 19MWH12OK47
604CA007114 9120000298840077831SAN PABLO               CALIF 120208131A001F30MWN00UUU14UN45 00100025FWN
604CA007114 9120000298840077831SAN PABLO               CALIF 120208131A002A30MBN24MBN11OK45 000000
604CA007123 9120000658160077830WALNUT CREEK            CALIF 120211131A001C22MW 35FW 12ST81A000003                                                  32FW 12ST81A30MW 12ST81A38MW 12ST81A
604CA007136 9120000051850077831KENSINGTON              CALIF 080208131A001A81MWN56FWN20BF45 000000
604CA007144 9120000367290077831MARTINEZ                CALIF 080108131A001A48FWH27MWN40GF45 000000
604CA007265 9120000180980077831ORINDA                  CALIF 060822121A001A56FAN62MWN20GF45 000000
604CA007344 9120000363480077831OAKLEY                  CALIF 050822121A001C19MBN40MWH11ST81A000001                                                  40MWN11ST81A
604CA007344 9120000363480077831OAKLEY                  CALIF 100108131A001B28MBN00UUU11UN99 000000
604CA007999D9120000000000077831HP: CONTRA COSTA COUNTY CALIF 090227131A001A37MWN36MWN12ST26 000000
604CA007999D9120000000000077831HP: CONTRA COSTA COUNTY CALIF 090226131A002A36MWN26MWN12ST81B000000
604CA008008C912000021202008   0DEL NORTE               CALIF 040822121A001A43MWN34FWN13BF45 000000
604CA009009A9120001505510097401EL DORADO               CALIF 020822121A001A37FWN45MWN20WI45 000000
604CA009009A9120001505510097401EL DORADO               CALIF 040822121A001A25MWN26MWN11ST45 000000
604CA009009A9120001505510097401EL DORADO               CALIF 090220131A001A37MWN48MWN14AQ80C000000
604CA009009A9120001505510097401EL DORADO               CALIF 110208131A001A19MBN33MWH20AQ45 000000
604CA009009A9120001505510097401EL DORADO               CALIF 120208131A001A38MWN29MWN13ST81A000000
604CA010009A9120001796130102991FRESNO                  CALIF 010822121A001B36MWH00UUU20UN99 000000
604CA010009A9120001796130102991FRESNO                  CALIF 020822121A001A47MWN26MWH20OK48 000000
604CA010009A9120001796130102991FRESNO                  CALIF 030713121A001B71MWH00UUU12UN99 000000
604CA010009A9120001796130102991FRESNO                  CALIF 070917121A001A19MWH18MWH13OK47 000000
604CA010009A9120001796130102991FRESNO                  CALIF 080108131A001B28MWH00UUU12UN99 000000
604CA010009A9120001796130102991FRESNO                  CALIF 080108131A002A25MWH26MWH12OK47 000000
604CA010009A9120001796130102991FRESNO                  CALIF 080313131A003E45MWH34MWH14OK45 00100121MWH                                             18MWN14OK45
604CA010009A9120001796130102991FRESNO                  CALIF 091106121A001B22MWH00UUU12UN99 000000
604CA010009A9120001796130102991FRESNO                  CALIF 091106121A002A30FWH29MWH40GF45 000000
604CA010009A9120001796130102991FRESNO                  CALIF 100108131A001C61MWH19MWH12ST99 000001                                                  27MWH12ST99
604CA010009A9120001796130102991FRESNO                  CALIF 100108131A002A36FWN28MWH90GF45 000000
604CA010009A9120001796130102991FRESNO                  CALIF 110118131A001B42MWH00UUU12UN18 000000
604CA010009A9120001796130102991FRESNO                  CALIF 110208131A002C16MWH22MAN13ST18 000002                                                  29MAN13ST18 26MAN13ST18
604CA010009A9120001796130102991FRESNO                  CALIF 120208131A001B63MWN00UUU12UN99 000000
604CA010013 9120000978280102990CLOVIS                  CALIF 020917121A001A34MAN22MIN20ST99 000000
604CA010013 9120000978280102990CLOVIS                  CALIF 040108131A001D60MWN40MWN14ST99 00100073FWN
604CA010051B9120005060110102990FRESNO                  CALIF 010822121A001B26FWN00UUU11UN99 000000
604CA010051B9120005060110102990FRESNO                  CALIF 010822121A002A26MWH24MWH12OK47 000000
604CA010051B9120005060110102990FRESNO                  CALIF 010822121A003A33FWH24MWH12GF45 000000
604CA010051B9120005060110102990FRESNO                  CALIF 010822121A004A53MWN44MWN20ST99 000000
604CA010051B9120005060110102990FRESNO                  CALIF 010822121A005A30MWH35MWH12OK18 000000
604CA010051B9120005060110102990FRESNO                  CALIF 010822121A006D03MWH27FWH12SO18 00200023MWH01FWH
604CA010051B9120005060110102990FRESNO                  CALIF 020713121A001B43MAN00UUU20UN47 000000
604CA010051B9120005060110102990FRESNO                  CALIF 020822121A002A29MWH52MWN12ST81A000000
604CA010051B9120005060110102990FRESNO                  CALIF 020713121A003B26MBN00UUU12UN99 000000
604CA010051B9120005060110102990FRESNO                  CALIF 030713121A001B21MWN00UUU12UN47 000000
604CA010051B9120005060110102990FRESNO                  CALIF 030713121A002A25MBN21MBN12OF47 000000
604CA010051B9120005060110102990FRESNO                  CALIF 030713121A003A59MWH74MWN12NE45 000000
604CA010051B9120005060110102990FRESNO                  CALIF 040822121A001A24MWH19MWH11OK47 000000
604CA010051B9120005060110102990FRESNO                  CALIF 040822121A002A44MWH47MWH40OK99 000000
604CA010051B9120005060110102990FRESNO                  CALIF 040822121A003A28MBN30MBN12ST47 000000
604CA010051B9120005060110102990FRESNO                  CALIF 040822121A004A81MWN55MWN30FA99 000000
604CA010051B9120005060110102990FRESNO                  CALIF 040822121A005A45FBN25MBN12GF45 000000
604CA010051B9120005060110102990FRESNO                  CALIF 050822121A001A52MWN28MBN11ST18 000000
604CA010051B9120005060110102990FRESNO                  CALIF 050917121A002A24MBN25MBN11ST99 000000
604CA010051B9120005060110102990FRESNO                  CALIF 050822121A003A25MWH37MWH11OK47 000000
604CA010051B9120005060110102990FRESNO                  CALIF 050822121A004A40MWH48MWH14IL44 000000
604CA010051B9120005060110102990FRESNO                  CALIF 050822121A005A40MWH38MWN12ST81A000000
604CA010051B9120005060110102990FRESNO                  CALIF 060822121A001A18FBN31MBN11ST47 000000
604CA010051B9120005060110102990FRESNO                  CALIF 060213131A002A27MWH29MWH11ST47 000000
604CA010051B9120005060110102990FRESNO                  CALIF 060822121A003A65MWN56MWN20OK99 000000
604CA010051B9120005060110102990FRESNO                  CALIF 060822121A004A25MBN42MBN11OK18 000000
604CA010051B9120005060110102990FRESNO                  CALIF 060822121A005A28MWH28MWH11ST81D000000
604CA010051B9120005060110102990FRESNO                  CALIF 060822121A006A47MWH43MWH20OK45 000000
604CA010051B9120005060110102990FRESNO                  CALIF 060822121A007A41FWH34MWH12WI45 000000
604CA010051B9120005060110102990FRESNO                  CALIF 060822121A008A27MWH41MWH11ST81A000000
604CA010051B9120005060110102990FRESNO                  CALIF 060822121A009B20MBN00UUU11UN47 000000
604CA010051B9120005060110102990FRESNO                  CALIF 070917121A001A35MBN27MBN11ST47 000000
604CA010051B9120005060110102990FRESNO                  CALIF 070108131A002A30MWH50MWH20OK45 000000
604CA010051B9120005060110102990FRESNO                  CALIF 070917121A003A35MWN43MWN20OK80E000000
604CA010051B9120005060110102990FRESNO                  CALIF 070917121A004A40MWH32MWH20BR45 000000
604CA010051B9120005060110102990FRESNO                  CALIF 081009121A001A18FWH31MWH11OK47 000000
604CA010051B9120005060110102990FRESNO                  CALIF 081009121A002B17MBN00UUU11UN47 000000
604CA010051B9120005060110102990FRESNO                  CALIF 081009121A003A15MWH17MWH11ST47 000000
604CA010051B9120005060110102990FRESNO                  CALIF 081009121A004A21MBN19MBN11ST47 000000
604CA010051B9120005060110102990FRESNO                  CALIF 081009121A005A45MAN21MBN11ST03 000000
604CA010051B9120005060110102990FRESNO                  CALIF 091106121A001B20MWH00UUU11UN47 000000
604CA010051B9120005060110102990FRESNO                  CALIF 091106121A002A46FWN25MBN20OK99 000000
604CA010051B9120005060110102990FRESNO                  CALIF 091106121A003B51MWH00UUU12UN44 000000
604CA010051B9120005060110102990FRESNO                  CALIF 091106121A004A60MWH49MWH20OK47 000000
604CA010051B9120005060110102990FRESNO                  CALIF 091106121A005A22MUU52MWN14ST81A000000
604CA010051B9120005060110102990FRESNO                  CALIF 091106121A006A18MBN20MBN12FR99 000000
604CA010051B9120005060110102990FRESNO                  CALIF 100118131A001A25MWH34MWH12AQ18 000000
604CA010051B9120005060110102990FRESNO                  CALIF 110118131A001D34MWH42MBN12OK99 00100032MWH
604CA010051B9120005060110102990FRESNO                  CALIF 110118131A002A34MWH22FWH20OK99 000000
604CA010051B9120005060110102990FRESNO                  CALIF 110118131A003B44MBN00UUU11UN99 000000
604CA010051B9120005060110102990FRESNO                  CALIF 120213131A001A28MBN22MBN12OK47 000000
604CA010051B9120005060110102990FRESNO                  CALIF 120213131A002B12MWH00UUU12UN47 000000
604CA010051B9120005060110102990FRESNO                  CALIF 120213131A003B16MWH00UUU12UN47 000000
604CA010051B9120005060110102990FRESNO                  CALIF 120213131A004A78FWN22MWN40OF26 000000
604CA010051B9120005060110102990FRESNO                  CALIF 120213131A005A30MWH46MWN12ST81E000000
604CA010066 9120000069010102991HURON                   CALIF 060822121A001B34MWH00UUU12UN47 000000
604CA010085 9120000116440102991KINGSBURG               CALIF 091106121A001A54MWN48FWN12HU99 000000
604CA010135 9120000248270102991SANGER                  CALIF 070917121A001A44MWH47MWH30FR99 000000
604CA010135 9120000248270102991SANGER                  CALIF 091106121A001A25MWH19MWH11ST26 000000
604CA010135 9120000248270102991SANGER                  CALIF 110118131A001A41FWH35MWN80WI45 000000
604CA010155 9120000237530102991SELMA                   CALIF 090227131A001B18MWH00UUU12UN99 000000
604CA010155 9120000237530102991SELMA                   CALIF 120227131A001B21MWH00UUU20UN45 000000
604CA012008B912000074296012   0HUMBOLDT                CALIF 091106121A001A47FIN27MWN20FR45 000000
604CA012008B912000074296012   0HUMBOLDT                CALIF 100226131A001A46MWN53MWN12ST44 000000
604CA013024 9120000395270132381CALEXICO                CALIF 110118131A001A61FWH31MWH30MO45 000000
604CA013044 9120000436430132380EL CENTRO               CALIF 070227131A001A62MWN29MWN30FA99 000000
604CA013044 9120000436430132380EL CENTRO               CALIF 080208131A001C30MWH29MWH20AQ40 000001                                                  29FWH20AQ40
604CA015009A9120003245590150691KERN                    CALIF 010713121A001A23MWH50MWN30AQ99 000000
604CA015009A9120003245590150691KERN                    CALIF 010713121A002A03FWN26MWN30AQ60 000000
604CA015009A9120003245590150691KERN                    CALIF 010713121A003A18MWH34MWN11ST81A000000
604CA015009A9120003245590150691KERN                    CALIF 010713121A004B33MBN00UUU11UN99 000000
604CA015009A9120003245590150691KERN                    CALIF 010713121A005B26MWH00UUU20UN99 000000
604CA015009A9120003245590150691KERN                    CALIF 020713121A001A24MWH20MWH20BR45 000000
604CA015009A9120003245590150691KERN                    CALIF 020713121A002A27MWH26MWN11AQ45 000000
604CA015009A9120003245590150691KERN                    CALIF 030713121A001A19MWN28MWN11NE99 000000
604CA015009A9120003245590150691KERN                    CALIF 040713121A001B33MBN00UUU11UN26 000000
604CA015009A9120003245590150691KERN                    CALIF 040713121A002A39FWN24MBN30OK99 000000
604CA015009A9120003245590150691KERN                    CALIF 050822121A001B53MWH00UUU11UN99 000000
604CA015009A9120003245590150691KERN                    CALIF 060822121A001B32MWH00UUU11UN99 000000
604CA015009A9120003245590150691KERN                    CALIF 070917121A001B60MWH00UUU11UN99 000000
604CA015009A9120003245590150691KERN                    CALIF 080108131A001B51MBN00UUU11UN99 000000
604CA015009A9120003245590150691KERN                    CALIF 080108131A002B19MWH00UUU20UN99 000000
604CA015009A9120003245590150691KERN                    CALIF 090213131A001CNBFWN21MWN30DA60 000001                                                  18FWN30DA60
604CA015009A9120003245590150691KERN                    CALIF 091106121A002B34MWN00UUU11UN99 000000
604CA015009A9120003245590150691KERN                    CALIF 091106121A004A32FWH48MBN11GF99 000000
604CA015009A9120003245590150691KERN                    CALIF 091106121A005B33MWH00UUU11UN99 000000
604CA015009A9120003245590150691KERN                    CALIF 091106121A006B45MWN00UUU11UN99 000000
604CA015009A9120003245590150691KERN                    CALIF 110118131A001B19MWH00UUU11UN99 000000
604CA015009A9120003245590150691KERN                    CALIF 110118131A002B21MWH00UUU11UN99 000000
604CA015009A9120003245590150691KERN                    CALIF 120208131A001B38MWH00UUU20UN99 000000
604CA015015 9120000197610150691ARVIN                   CALIF 040713121A001B29MWH00UUU20UN99 000000
604CA015015 9120000197610150691ARVIN                   CALIF 060822121A001B31MWH00UUU13UN99 000000
604CA015015 9120000197610150691ARVIN                   CALIF 080108131A001A29MWH22MWH12OK47 000000
604CA015021C9120003556960150690BAKERSFIELD             CALIF 010713121A001A84FWN31MBN20ST05 000000
604CA015021C9120003556960150690BAKERSFIELD             CALIF 010713121A002C22MBN31MWN11ST47 000001                                                  27MBN11ST47
604CA015021C9120003556960150690BAKERSFIELD             CALIF 030822121A001A17MBN22MBN12ST99 000000
604CA015021C9120003556960150690BAKERSFIELD             CALIF 030713121A002A66FWN68MWN12WI45 000000
604CA015021C9120003556960150690BAKERSFIELD             CALIF 030713121A003B26MWN00UUU90ST99 000000
604CA015021C9120003556960150690BAKERSFIELD             CALIF 040208131A001A19MWH16MBN12ST47 000000
604CA015021C9120003556960150690BAKERSFIELD             CALIF 040713121A002A60FBN30MBN12ST45 000000
604CA015021C9120003556960150690BAKERSFIELD             CALIF 040713121A003A23MBN24MBN12AQ47 000000
604CA015021C9120003556960150690BAKERSFIELD             CALIF 040713121A004D26MWN26MWN12ST45 00100023MWN
604CA015021C9120003556960150690BAKERSFIELD             CALIF 040713121A005A02FBN28MWH12ST47 000000
604CA015021C9120003556960150690BAKERSFIELD             CALIF 050822121A001A43MWN44MWN12ST81A000000
604CA015021C9120003556960150690BAKERSFIELD             CALIF 050208131A002B27FBN00UUU11UN47 000000
604CA015021C9120003556960150690BAKERSFIELD             CALIF 050822121A003B21MBN00UUU90UN99 000000
604CA015021C9120003556960150690BAKERSFIELD             CALIF 060108131A001A42MWN34MWH11ST99 000000
604CA015021C9120003556960150690BAKERSFIELD             CALIF 060108131A002A31MBN30MBN13OK99 000000
604CA015021C9120003556960150690BAKERSFIELD             CALIF 060108131A003A31MWH19MWH14AQ99 000000
604CA015021C9120003556960150690BAKERSFIELD             CALIF 070118131A001B33MWH00UUU90UN47 000000
604CA015021C9120003556960150690BAKERSFIELD             CALIF 070118131A002B26MWH00UUU12UN47 000000
604CA015021C9120003556960150690BAKERSFIELD             CALIF 070118131A003A53FBN29MBN90MO45 000000
604CA015021C9120003556960150690BAKERSFIELD             CALIF 080208131A001A46MWH28MWH12ST47 000000
604CA015021C9120003556960150690BAKERSFIELD             CALIF 080208131A002C71FWH26MBN40ST47 000002                                                  28MBN40ST47 19MBN40ST47
604CA015021C9120003556960150690BAKERSFIELD             CALIF 090108131A001B24MBN00UUU11UN47 000000
604CA015021C9120003556960150690BAKERSFIELD             CALIF 090108131A002C36MWH18MWH11ST47 000001                                                  23MWH11ST47
604CA015021C9120003556960150690BAKERSFIELD             CALIF 090108131A003C33MBN23MWH11ST47 000001                                                  18MWH11ST47
604CA015021C9120003556960150690BAKERSFIELD             CALIF 090108131A004B42MWN00UUU11UN99 000000
604CA015021C9120003556960150690BAKERSFIELD             CALIF 090313131A005C23MWH40FBN12AQ44 000003                                                  18MBN12AQ44 28MBN12AQ44 29MBN12AQ44
604CA015021C9120003556960150690BAKERSFIELD             CALIF 100208131A001B40FWN00UUU12UN47 000000
604CA015021C9120003556960150690BAKERSFIELD             CALIF 100221131A002A44FW 52MW 11WI45 000000
604CA015021C9120003556960150690BAKERSFIELD             CALIF 100208131A003B23MWH00UUU12UN99 000000
604CA015021C9120003556960150690BAKERSFIELD             CALIF 100208131A004A28MWH25MWN12ST81A000000
604CA015021C9120003556960150690BAKERSFIELD             CALIF 100208131A005B50MBN00UUU12UN99 000000
604CA015021C9120003556960150690BAKERSFIELD             CALIF 110208131A001B29MWH00UUU11UN99 000000
604CA015021C9120003556960150690BAKERSFIELD             CALIF 110208131A002A34MBN24MBN12BR45 000000
604CA015021C9120003556960150690BAKERSFIELD             CALIF 120213131A001A46MBN56MBN20ST80C000000
604CA015021C9120003556960150690BAKERSFIELD             CALIF 120213131A002B29MBN00UUU11UN99 000000
604CA015021C9120003556960150690BAKERSFIELD             CALIF 120213131A003B55FWN00UUU90UN99 000000
604CA015064 9120000282730150691RIDGECREST              CALIF 030822121A001ANBMBN21MBN30SO60 000000
604CA015064 9120000282730150691RIDGECREST              CALIF 070917121A001A47MBN47MBN20AQ45 000000
604CA015075 9120000173910150691SHAFTER                 CALIF 010713121A001A37MWH23MWN12ST81F000000
604CA015095 9120000147660150691TEHACHAPI               CALIF 100118131A001B54MWN00UUU12UN99 000000
604CA015115 9120000144600150691CALIFORNIA CITY         CALIF 120220131A001B75MWN00UUU12UN99 000000
604CA015115 9120000144600150691CALIFORNIA CITY         CALIF 120220131A002B01FBN00UUU40UN60 000000
604CA015115 9120000144600150691CALIFORNIA CITY         CALIF 120220131A003A51FWN76MWN13WI45 000000
604CA016009B9120000346770163421KINGS                   CALIF 040822121A001A30MWN46MWN80FR48 000000
604CA016009B9120000346770163421KINGS                   CALIF 110118131A001A53MWN39MWN12ST81A000000
604CA016023 9120000547870163420HANFORD                 CALIF 030713121A001C32MWH34MWN12ST99 000002                                                  35MWH12ST99 30FWH12ST99
604CA016023 9120000547870163420HANFORD                 CALIF 110208131A001A19MWH26MWH12BR45 000000
604CA016075 9120000157040163421AVENAL                  CALIF 100118131A001A17MWH21MWH12OK47 000000
604CA017008B912000044836017   0LAKE                    CALIF 050822121A001A33FWN44MWN12OK99 000000
604CA017025 912000015311017   0CLEARLAKE               CALIF 061106121A001A43MWN35MWN40AQ45 000000
604CA017025 912000015311017   0CLEARLAKE               CALIF 061106121A002A30MBN32MWN90ST03 000000
604CA017998D912000000000017   0HP: LAKE COUNTY         CALIF 100227131A001A52MWN42FWN11ST81B000000
604CA018015 912000017849018   0SUSANVILLE              CALIF 050822121A001A36MWN24MWN12AQ99 000000
604CA019009A9120010748640194801LOS ANGELES             CALIF 010108131A001B00MUU00UUU12UN99 000000
604CA019009A9120010748640194801LOS ANGELES             CALIF 010108131A002B17MWH00UUU12UN47 000000
604CA019009A9120010748640194801LOS ANGELES             CALIF 010108131A003B27MBN00UUU12UN47 000000
604CA019009A9120010748640194801LOS ANGELES             CALIF 010108131A004D32FBN30MBN20GF45 00100058FBN
604CA019009A9120010748640194801LOS ANGELES             CALIF 010108131A005B22MBN00UUU12UN47 000000
604CA019009A9120010748640194801LOS ANGELES             CALIF 020108131A001F17MWH00UUU12UN47 00100018MWH
604CA019009A9120010748640194801LOS ANGELES             CALIF 020108131A002A44MBN44MBN12ST80E000000
604CA019009A9120010748640194801LOS ANGELES             CALIF 020108131A003B18MBN00UUU12UN47 000000
604CA019009A9120010748640194801LOS ANGELES             CALIF 020108131A004F18MWH00UUU12UN47 00100039MWH
604CA019009A9120010748640194801LOS ANGELES             CALIF 020313131A005A20MUU40MBN40OK48 000000
604CA019009A9120010748640194801LOS ANGELES             CALIF 030108131A001B21MWH00UUU12UN03 000000
604CA019009A9120010748640194801LOS ANGELES             CALIF 030108131A002B19MBN00UUU12UN47 000000
604CA019009A9120010748640194801LOS ANGELES             CALIF 030108131A003B18MBN00UUU80UN99 000000
604CA019009A9120010748640194801LOS ANGELES             CALIF 030108131A004B25MBN00UUU12UN47 000000
604CA019009A9120010748640194801LOS ANGELES             CALIF 030108131A005A17MWH19MWH12OK47 000000
604CA019009A9120010748640194801LOS ANGELES             CALIF 030108131A006B18MBN00UUU20UN99 000000
604CA019009A9120010748640194801LOS ANGELES             CALIF 030108131A007A22MWH30MWH12ST81A000000
604CA019009A9120010748640194801LOS ANGELES             CALIF 040822121A001B20MWH00UUU12UN47 000000
604CA019009A9120010748640194801LOS ANGELES             CALIF 040822121A002B28MBN00UUU12UN47 000000
604CA019009A9120010748640194801LOS ANGELES             CALIF 040822121A003B22MBN00UUU12UN47 000000
604CA019009A9120010748640194801LOS ANGELES             CALIF 040822121A004B22FWH00UUU12UN47 000000
604CA019009A9120010748640194801LOS ANGELES             CALIF 040108131A005B18MUU00UUU65UN09 000000
604CA019009A9120010748640194801LOS ANGELES             CALIF 040822121A006B35MWH00UUU12UN47 000000
604CA019009A9120010748640194801LOS ANGELES             CALIF 040822121A007B24MWH00UUU12UN47 000000
604CA019009A9120010748640194801LOS ANGELES             CALIF 040108131A008B23MWH00UUU20UN47 000000
