601AL001009A6070001475950370981JEFFERSON               ALA   070319080A001A52MW 50MW 90AQ99 000000
601AL001009A6070001475950370981JEFFERSON               ALA   070319080A002A24MB 26MB 90UN45 000000
601AL001009A6070001475950370981JEFFERSON               ALA   110319080A001A27MB 00FU 12UN99 000000
601AL001014 6070000282170370981BESSEMER                ALA   040319080A001A21MB 00MB 12UN99 000000
601AL001014 6070000282170370981BESSEMER                ALA   050319080A001A00FW 30MB 12UN99 000000
601AL001014 6070000282170370981BESSEMER                ALA   050319080A002A00FB 30MB 12UN03 000000
601AL001014 6070000282170370981BESSEMER                ALA   050319080A003A14MB 00MB 12UN99 000000
601AL001014 6070000282170370981BESSEMER                ALA   060319080A001A27MB 30MB 12AQ99 000000
601AL001014 6070000282170370981BESSEMER                ALA   080321081A001B53MB 00UU 12UN99 000000
601AL001014 6070000282170370981BESSEMER                ALA   090321081A001B26FB 00UU 12UN99 000000
601AL001014 6070000282170370981BESSEMER                ALA   090321081A002B19MB 00UU 12UN99 000000
601AL001014 6070000282170370981BESSEMER                ALA   100321081A001B23MB 00UU 12UN99 000000
601AL001014 6070000282170370981BESSEMER                ALA   110321081A001B37MB 00UU 12UN99 000000
601AL001022 6070002276860370980BIRMINGHAM              ALA   010324081A001A20FB 20MB 12GF45 000000
601AL001022 6070002276860370980BIRMINGHAM              ALA   010324081A002B34MB 00UU 12UN60 000000
601AL001022 6070002276860370980BIRMINGHAM              ALA   010324081A003A33MB 00MB 20AQ45 000000
601AL001022 6070002276860370980BIRMINGHAM              ALA   010324081A004A37MB 00MB 12AQ44 000000
601AL001022 6070002276860370980BIRMINGHAM              ALA   010324081A005A24MB 00MB 12AQ45 000000
601AL001022 6070002276860370980BIRMINGHAM              ALA   010324081A006A41MB 26MB 12OF45 000000
601AL001022 6070002276860370980BIRMINGHAM              ALA   010324081A007B37MB 00UU 12UN99 000000
601AL001022 6070002276860370980BIRMINGHAM              ALA   020324081A001C45MB 00MB 12AQ45 000001                                                  00MB 12AQ45
601AL001022 6070002276860370980BIRMINGHAM              ALA   020324081A002C25MB 00MB 13AQ45 000001                                                  00MB 13AQ45
601AL001022 6070002276860370980BIRMINGHAM              ALA   020324081A003A19MB 19MB 12AQ40 000000
601AL001022 6070002276860370980BIRMINGHAM              ALA   020324081A004C26MB 22MB 12AQ43 000001                                                  25MB 12AQ43
601AL001022 6070002276860370980BIRMINGHAM              ALA   030324081A001A19MB 00MB 13ST40 000000
601AL001022 6070002276860370980BIRMINGHAM              ALA   030324081A002A46MB 29MB 12AQ99 000000
601AL001022 6070002276860370980BIRMINGHAM              ALA   030324081A003A21MB 25MB 13AQ45 000000
601AL001022 6070002276860370980BIRMINGHAM              ALA   030324081A004A22MB 25MB 12ST03 000000
601AL001022 6070002276860370980BIRMINGHAM              ALA   040324081A001B18MB 00UU 12UN45 000000
601AL001022 6070002276860370980BIRMINGHAM              ALA   040324081A002A56MW 59MW 30AQ45 000000
601AL001022 6070002276860370980BIRMINGHAM              ALA   040324081A003B51MW 00UU 12UN45 000000
601AL001022 6070002276860370980BIRMINGHAM              ALA   040324081A004A32MB 27MB 12AQ45 000000
601AL001022 6070002276860370980BIRMINGHAM              ALA   050324081A001B53FW 00UU 12UN99 000000
601AL001022 6070002276860370980BIRMINGHAM              ALA   050324081A002B26MB 00UU 12UN99 000000
601AL001022 6070002276860370980BIRMINGHAM              ALA   050324081A003ABBFB 00MB 30OF60 000000
601AL001022 6070002276860370980BIRMINGHAM              ALA   050324081A004B21FW 00UU 12UN99 000000
601AL001022 6070002276860370980BIRMINGHAM              ALA   050324081A005A20MB 25MB 12AQ45 000000
601AL001022 6070002276860370980BIRMINGHAM              ALA   050324081A006B38MB 00UU 12UN99 000000
601AL001022 6070002276860370980BIRMINGHAM              ALA   060324081A001A38MB 30MB 20AQ43 000000
601AL001022 6070002276860370980BIRMINGHAM              ALA   060324081A002B29MW 00UU 12UN99 000000
601AL001022 6070002276860370980BIRMINGHAM              ALA   060324081A003A24MB 49MW 12AQ45 000000
601AL001022 6070002276860370980BIRMINGHAM              ALA   060324081A004A19MB 00MB 12AQ99 000000
601AL001022 6070002276860370980BIRMINGHAM              ALA   060324081A005A27MB 00MB 12UN99 000000
601AL001022 6070002276860370980BIRMINGHAM              ALA   060324081A006B21MB 00UU 12UN99 000000
601AL001022 6070002276860370980BIRMINGHAM              ALA   060324081A007A46MB 53MB 12AQ45 000000
601AL001022 6070002276860370980BIRMINGHAM              ALA   060324081A008A47MB 25MB 12AQ45 000000
601AL001022 6070002276860370980BIRMINGHAM              ALA   070324081A001A44FB 55MW 12ST10 000000
601AL001022 6070002276860370980BIRMINGHAM              ALA   070324081A002A19MB 25MB 12AQ43 000000
601AL001022 6070002276860370980BIRMINGHAM              ALA   070324081A003A21MB 24MW 12AQ43 000000
601AL001022 6070002276860370980BIRMINGHAM              ALA   070324081A004A23FB 22MB 12GF45 000000
601AL001022 6070002276860370980BIRMINGHAM              ALA   070324081A005F37MB 00UU 12UN99 00100042MB
601AL001022 6070002276860370980BIRMINGHAM              ALA   070324081A006B28MW 00UU 12UN03 000000
601AL001022 6070002276860370980BIRMINGHAM              ALA   070324081A007B31MB 00UU 12UN99 000000
601AL001022 6070002276860370980BIRMINGHAM              ALA   070324081A008A35MB 34MW 30AQ45 000000
601AL001022 6070002276860370980BIRMINGHAM              ALA   070324081A009B19MB 00UU 12UN99 000000
601AL001022 6070002276860370980BIRMINGHAM              ALA   070324081A010B42MW 00UU 12UN99 000000
601AL001022 6070002276860370980BIRMINGHAM              ALA   070324081A011A24MB 30MB 12UN60 000000
601AL001022 6070002276860370980BIRMINGHAM              ALA   070324081A012B50MB 00UU 20UN99 000000
601AL001022 6070002276860370980BIRMINGHAM              ALA   070324081A013B29MB 00UU 12UN99 000000
601AL001022 6070002276860370980BIRMINGHAM              ALA   080324081A001A39MB 40MB 12AQ45 000000
601AL001022 6070002276860370980BIRMINGHAM              ALA   080324081A002B20MB 00UU 12UN99 000000
601AL001022 6070002276860370980BIRMINGHAM              ALA   080324081A003B63MB 00UU 12UN03 000000
601AL001022 6070002276860370980BIRMINGHAM              ALA   080324081A004A55MB 16MB 12ST03 000000
601AL001022 6070002276860370980BIRMINGHAM              ALA   090324081A001F23MB 00UU 12UN60 00100023MB
601AL001022 6070002276860370980BIRMINGHAM              ALA   090324081A002B47MB 00UU 12UN99 000000
601AL001022 6070002276860370980BIRMINGHAM              ALA   090324081A003A21MB 25MB 12ST45 000000
601AL001022 6070002276860370980BIRMINGHAM              ALA   090324081A004B29MW 00UU 12UN99 000000
601AL001022 6070002276860370980BIRMINGHAM              ALA   090324081A005A02MW 36MW 75OF60 000000
601AL001022 6070002276860370980BIRMINGHAM              ALA   090324081A006A58MB 22MB 12AQ44 000000
601AL001022 6070002276860370980BIRMINGHAM              ALA   090324081A007A65MW 16MB 30ST03 000000
601AL001022 6070002276860370980BIRMINGHAM              ALA   100324081A001C20FW 21MB 12ST03 000001                                                  21MB 12ST03
601AL001022 6070002276860370980BIRMINGHAM              ALA   100324081A002B51MB 00UU 12UN99 000000
601AL001022 6070002276860370980BIRMINGHAM              ALA   100324081A003A40MB 40MB 12AQ45 000000
601AL001022 6070002276860370980BIRMINGHAM              ALA   100324081A004B38MB 00UU 12UN99 000000
601AL001022 6070002276860370980BIRMINGHAM              ALA   100324081A005B46FW 00UU 12UN99 000000
601AL001022 6070002276860370980BIRMINGHAM              ALA   100324081A006B19MB 00UU 12UN99 000000
601AL001022 6070002276860370980BIRMINGHAM              ALA   100324081A007B33MB 00UU 12UN99 000000
601AL001022 6070002276860370980BIRMINGHAM              ALA   100324081A008A02MB 27MB 30OK60 000000
601AL001022 6070002276860370980BIRMINGHAM              ALA   100324081A009A44FB 23MB 12AQ45 000000
601AL001022 6070002276860370980BIRMINGHAM              ALA   100324081A010A29MB 30MB 12AQ45 000000
601AL001022 6070002276860370980BIRMINGHAM              ALA   110324081A001B61MW 00UU 12UN99 000000
601AL001022 6070002276860370980BIRMINGHAM              ALA   110324081A002A21MB 00MB 12AQ45 000000
601AL001022 6070002276860370980BIRMINGHAM              ALA   110324081A003B29MW 00UU 12UN99 000000
601AL001022 6070002276860370980BIRMINGHAM              ALA   110324081A004A48FW 40MB 20ST45 000000
601AL001022 6070002276860370980BIRMINGHAM              ALA   110324081A005C19MB 16MB 12ST03 000001                                                  15MB 12ST03
601AL001022 6070002276860370980BIRMINGHAM              ALA   110324081A006C30MW 00MB 12ST03 000001                                                  00MB 12ST03
601AL001022 6070002276860370980BIRMINGHAM              ALA   110324081A007B21MW 00UU 12UN99 000000
601AL001022 6070002276860370980BIRMINGHAM              ALA   110324081A008A33MB 20MB 12AQ45 000000
601AL001022 6070002276860370980BIRMINGHAM              ALA   110324081A009A41MW 35MW 30AQ45 000000
601AL001022 6070002276860370980BIRMINGHAM              ALA   110324081A010B29MB 00UU 12UN45 000000
601AL001022 6070002276860370980BIRMINGHAM              ALA   110324081A011A26FB 25MB 80GF45 000000
601AL001022 6070002276860370980BIRMINGHAM              ALA   110324081A012A21MW 17MB 12AQ43 000000
601AL001022 6070002276860370980BIRMINGHAM              ALA   120324081A001A44MB 40MB 30AQ45 000000
601AL001022 6070002276860370980BIRMINGHAM              ALA   120324081A002ABBMW 32FW 12SO60 000000
601AL001022 6070002276860370980BIRMINGHAM              ALA   120324081A003B38MW 00UU 12UN99 000000
601AL001022 6070002276860370980BIRMINGHAM              ALA   120324081A004A52MB 19MB 12ST03 000000
601AL001022 6070002276860370980BIRMINGHAM              ALA   120324081A005B43MB 00UU 12UN99 000000
601AL001045 6070000114430370981FAIRFIELD               ALA   020319080A001A17MB 15MB 12FR99 000000
601AL001045 6070000114430370981FAIRFIELD               ALA   030319080A001A23MB 21MB 12AQ45 000000
601AL001045 6070000114430370981FAIRFIELD               ALA   060319080A001A50MB 25MB 12OF99 000000
601AL001045 6070000114430370981FAIRFIELD               ALA   070319080A001A23MB 26MB 12UN99 000000
601AL001055 6070000132350370981GARDENDALE              ALA   010319080A001A36FW 38MW 12WI45 000000
601AL001065 6070000111690370981LEEDS                   ALA   110321081A001B16MB 00UU 12UN60 000000
601AL001136 6070000094710370981IRONDALE                ALA   020319080A001A19FB 18MB 12GF60 000000
601AL001136 6070000094710370981IRONDALE                ALA   060319080A001A23MW 20MB 12UN99 000000
601AL001136 6070000094710370981IRONDALE                ALA   070319080A001A23MW 19MB 14UN99 000000
601AL001195 6070000158160370981HUEYTOWN                ALA   080319080A001A45MW 39MW 90UN99 000000
601AL002009B6070000875090495471MOBILE                  ALA   010402081A001A23MB 43MB 12ST81D000000
601AL002009B6070000875090495471MOBILE                  ALA   030402081A001A43MW 40MW 20FR45 000000
601AL002009B6070000875090495471MOBILE                  ALA   040402081A001A52FW 38MW 40GF45 000000
601AL002009B6070000875090495471MOBILE                  ALA   050402081A001A57MW 60MW 14AQ45 000000
601AL002009B6070000875090495471MOBILE                  ALA   080402081A001A79MW 32MW 20AQ45 000000
601AL002009B6070000875090495471MOBILE                  ALA   080402081A002A83FW 32MW 20AQ45 000000
601AL002009B6070000875090495471MOBILE                  ALA   100311080A001A49MW 47FW 12HU45 000000
601AL002009B6070000875090495471MOBILE                  ALA   100311080A002A53MW 36MB 12AQ18 000000
601AL002009B6070000875090495471MOBILE                  ALA   110402081A001A18MB 42MW 12ST81D000000
601AL002009B6070000875090495471MOBILE                  ALA   110402081A002A31MW 44MW 12ST81D000000
601AL002011C6070002538420495470MOBILE                  ALA   010501081A001A39MW 42FW 20HU45 000000
601AL002011C6070002538420495470MOBILE                  ALA   010501081A002D22FB 25MB 12AQ45 00100025MB
601AL002011C6070002538420495470MOBILE                  ALA   020501081A001A24MB 18MB 12ST45 000000
601AL002011C6070002538420495470MOBILE                  ALA   020501081A002A22MB 22MB 12AQ18 000000
601AL002011C6070002538420495470MOBILE                  ALA   020506081A003D05MB 22FB 65SO99 00100006MB
601AL002011C6070002538420495470MOBILE                  ALA   030501081A001A26MB 00MB 13UN60 000000
601AL002011C6070002538420495470MOBILE                  ALA   030501081A002C41MB 16MB 12AQ03 000001                                                  16MB 12AQ03
601AL002011C6070002538420495470MOBILE                  ALA   040501081A001A42MB 43FB 12BF60 000000
601AL002011C6070002538420495470MOBILE                  ALA   040501081A002A50MB 20MW 90ST18 000000
601AL002011C6070002538420495470MOBILE                  ALA   040506081A003A12FB 14MB 12SI99 000000
601AL002011C6070002538420495470MOBILE                  ALA   040506081A004A22MB 17MB 12FR99 000000
601AL002011C6070002538420495470MOBILE                  ALA   050501081A001C19MB 23MB 12ST45 000002                                                  28MB 12ST45 38MB 12ST45
601AL002011C6070002538420495470MOBILE                  ALA   050501081A002A44MW 18MB 12ST18 000000
601AL002011C6070002538420495470MOBILE                  ALA   050501081A003A37MB 35FB 20BF45 000000
601AL002011C6070002538420495470MOBILE                  ALA   050501081A004C27MB 17MB 12ST03 000002                                                  17MB 12ST03 19MB 12ST03
601AL002011C6070002538420495470MOBILE                  ALA   050501081A005A18MB 00MB 13UN60 000000
601AL002011C6070002538420495470MOBILE                  ALA   050506081A006A18MB 17MB 13FR99 000000
601AL002011C6070002538420495470MOBILE                  ALA   060501081A001A34MB 35MB 12AQ40 000000
601AL002011C6070002538420495470MOBILE                  ALA   060501081A002D23FB 00MB 12UN18 00100024MB
601AL002011C6070002538420495470MOBILE                  ALA   060501081A003A40FB 54MB 20GF45 000000
601AL002011C6070002538420495470MOBILE                  ALA   070501081A001A43MW 38MW 40AQ80E000000
601AL002011C6070002538420495470MOBILE                  ALA   070501081A002A18MB 18MB 12AQ45 000000
601AL002011C6070002538420495470MOBILE                  ALA   070501081A003A55FW 37MB 20AQ45 000000
601AL002011C6070002538420495470MOBILE                  ALA   080501081A001B16FB 00UU 14UN05 000000
601AL002011C6070002538420495470MOBILE                  ALA   080501081A002A32MB 30MB 13AQ45 000000
601AL002011C6070002538420495470MOBILE                  ALA   080501081A003A22MB 24MB 12AQ45 000000
601AL002011C6070002538420495470MOBILE                  ALA   080501081A004A25MB 26MB 12AQ45 000000
601AL002011C6070002538420495470MOBILE                  ALA   080501081A005A67MB 00MB 12UN03 000000
601AL002011C6070002538420495470MOBILE                  ALA   090501081A001A23MB 29MB 20FR45 000000
601AL002011C6070002538420495470MOBILE                  ALA   090506081A002ABBFA 29MA 90DA99 000000
601AL002011C6070002538420495470MOBILE                  ALA   100501081A001A23MB 19MB 12AQ80G000000
601AL002011C6070002538420495470MOBILE                  ALA   100501081A002A45MB 24MB 12ST81G000000
601AL002011C6070002538420495470MOBILE                  ALA   110501081A001A31MB 49MB 20AQ45 000000
601AL002011C6070002538420495470MOBILE                  ALA   110501081A002A44MW 23MB 12ST03 000000
601AL002011C6070002538420495470MOBILE                  ALA   110501081A003A26FB 29MB 12GF45 000000
601AL002011C6070002538420495470MOBILE                  ALA   110506081A004A15MB 19MB 12AQ99 000000
601AL002011C6070002538420495470MOBILE                  ALA   120501081A001A50MB 52MB 12AQ60 000000
601AL002011C6070002538420495470MOBILE                  ALA   120501081A002B75MB 00UU 30UN03 000000
601AL002024 6070000280870495471PRICHARD                ALA   010319080A001A29MB 32MB 12AQ99 000000
601AL002024 6070000280870495471PRICHARD                ALA   010321081A002B00MB 00UU 12UN99 000000
601AL002024 6070000280870495471PRICHARD                ALA   020321081A001B00MW 00UU 12UN99 000000
601AL002024 6070000280870495471PRICHARD                ALA   050319080A001A45MB 57MB 12AQ45 000000
601AL002024 6070000280870495471PRICHARD                ALA   050319080A002A47MB 16MB 12AQ99 000000
601AL002024 6070000280870495471PRICHARD                ALA   060321081A001B49MB 00UU 12UN99 000000
601AL002024 6070000280870495471PRICHARD                ALA   060319080A002A28MB 23MB 12AQ99 000000
601AL002024 6070000280870495471PRICHARD                ALA   060319080A003A20FW 25MB 12GF45 000000
601AL002024 6070000280870495471PRICHARD                ALA   070423081A001A00FB 18FB 90DA60 000000
601AL002024 6070000280870495471PRICHARD                ALA   070423081A002B33MB 00UU 12UN99 000000
601AL002024 6070000280870495471PRICHARD                ALA   090319080A001A23MB 00MB 12UN99 000000
601AL002024 6070000280870495471PRICHARD                ALA   090423081A002B34MB 00UU 12UN99 000000
601AL002024 6070000280870495471PRICHARD                ALA   100319080A001A22MB 24MB 12AQ45 000000
601AL002024 6070000280870495471PRICHARD                ALA   120319080A001A30MB 00MB 12UN99 000000
601AL002046 6070000037160495471CITRONELLE              ALA   020319080A001A31MB 26MB 12OF45 000000
601AL002046 6070000037160495471CITRONELLE              ALA   100319080A001A38FI 55MW 12WI45 000000
601AL003012 6070002020620515560MONTGOMERY              ALA   010319080A001A21MB 25MB 12UN99 000000
601AL003012 6070002020620515560MONTGOMERY              ALA   020319080A001A17MB 20MB 12UN99 000000
601AL003012 6070002020620515560MONTGOMERY              ALA   020319080A002A19MB 28MB 12UN99 000000
601AL003012 6070002020620515560MONTGOMERY              ALA   020319080A003A18MB 00MB 12UN99 000000
601AL003012 6070002020620515560MONTGOMERY              ALA   030325081A001B25MB 00UU 12UN99 000000
601AL003012 6070002020620515560MONTGOMERY              ALA   030319080A002A21MB 19MB 12UN99 000000
601AL003012 6070002020620515560MONTGOMERY              ALA   030319080A003A37MB 36MB 12UN99 000000
601AL003012 6070002020620515560MONTGOMERY              ALA   030325081A004B25MB 00UU 40UN99 000000
601AL003012 6070002020620515560MONTGOMERY              ALA   030319080A005A25MB 28MB 12UN99 000000
601AL003012 6070002020620515560MONTGOMERY              ALA   030319080A006A18MB 19MB 12UN99 000000
601AL003012 6070002020620515560MONTGOMERY              ALA   030319080A007A32MB 27MB 12NE45 000000
601AL003012 6070002020620515560MONTGOMERY              ALA   040319080A001A23MB 21MB 12AQ99 000000
601AL003012 6070002020620515560MONTGOMERY              ALA   040319080A002A23MW 56MW 12SO99 000000
601AL003012 6070002020620515560MONTGOMERY              ALA   040319080A003A19MB 18MB 12UN99 000000
601AL003012 6070002020620515560MONTGOMERY              ALA   040319080A004A23FB 42MB 90UN99 000000
601AL003012 6070002020620515560MONTGOMERY              ALA   040325081A005B52MW 00UU 12UN45 000000
601AL003012 6070002020620515560MONTGOMERY              ALA   040319080A006A27MB 24MB 12FR99 000000
601AL003012 6070002020620515560MONTGOMERY              ALA   050319080A001A35MB 30MB 90AQ99 000000
601AL003012 6070002020620515560MONTGOMERY              ALA   050319080A002A20MB 21MB 12UN99 000000
601AL003012 6070002020620515560MONTGOMERY              ALA   050319080A003A59MB 35FB 90BF99 000000
601AL003012 6070002020620515560MONTGOMERY              ALA   060319080A001A20FW 00MW 12UN99 000000
601AL003012 6070002020620515560MONTGOMERY              ALA   070319080A001A43MB 20MB 12UN99 000000
601AL003012 6070002020620515560MONTGOMERY              ALA   070325081A002D04MB 42MB 12SO99 00200006MB 11MB
601AL003012 6070002020620515560MONTGOMERY              ALA   070319080A005A27MB 00MU 12UN99 000000
601AL003012 6070002020620515560MONTGOMERY              ALA   070319080A006A49MA 19MB 12UN99 000000
601AL003012 6070002020620515560MONTGOMERY              ALA   080319080A001A04MB 22MB 12UN99 000000
601AL003012 6070002020620515560MONTGOMERY              ALA   080319080A002A59MW 40FW 20UN99 000000
601AL003012 6070002020620515560MONTGOMERY              ALA   080319080A003A26FB 24MB 12GF99 000000
601AL003012 6070002020620515560MONTGOMERY              ALA   080325081A004B25MU 00UU 12UN99 000000
601AL003012 6070002020620515560MONTGOMERY              ALA   080319080A005A26MB 20MB 12UN99 000000
601AL003012 6070002020620515560MONTGOMERY              ALA   090319080A001A34MB 36MB 12UN99 000000
601AL003012 6070002020620515560MONTGOMERY              ALA   090319080A002A59MB 20MB 12UN99 000000
601AL003012 6070002020620515560MONTGOMERY              ALA   090319080A003A19MB 00MB 12UN99 000000
601AL003012 6070002020620515560MONTGOMERY              ALA   090319080A004A53MB 29MB 90UN99 000000
601AL003012 6070002020620515560MONTGOMERY              ALA   100319080A001A20MU 17MB 12UN99 000000
601AL003012 6070002020620515560MONTGOMERY              ALA   100325081A002B30MB 00UU 12UN99 000000
601AL003012 6070002020620515560MONTGOMERY              ALA   100319080A003A00FB 28MB 20GF45 000000
601AL003012 6070002020620515560MONTGOMERY              ALA   100319080A004A00FU 28MB 20UN99 000000
601AL003012 6070002020620515560MONTGOMERY              ALA   110325081A001B25MB 00UU 40UN99 000000
601AL003012 6070002020620515560MONTGOMERY              ALA   110319080A002A20FB 25MB 12AQ99 000000
601AL003012 6070002020620515560MONTGOMERY              ALA   120325081A001B22MB 00UU 12UN99 000000
601AL003012 6070002020620515560MONTGOMERY              ALA   120325081A002B29MB 00UU 12UN99 000000
601AL003012 6070002020620515560MONTGOMERY              ALA   120319080A003A20MB 00MB 12UN45 000000
601AL003012 6070002020620515560MONTGOMERY              ALA   120319080A004A07MB 25MB 14UN99 000000
601AL004014 6070000319490015561PRATTVILLE              ALA   050319080A001A32MW 28MW 12IL45 000000
601AL005016 607000007674002   0BAY MINETTE             ALA   040321081A001A24MB 32FB 20BF99 000000
601AL005035 607000013463002   0FOLEY                   ALA   050319080A001A57FW 26MW 90ST99 000000
601AL005035 607000013463002   0FOLEY                   ALA   050321081A002B33MB 00UU 12UN99 000000
601AL005035 607000013463002   0FOLEY                   ALA   080319080A001A35MW 27MU 20FR45 000000
601AL005046 607000009486002   0GULF SHORES             ALA   030319080A001A48MW 19MW 12FA99 000000
601AL005056 607000004976002   0ROBERTSDALE             ALA   070319080A001A44MW 25MW 40ST99 000000
601AL005056 607000004976002   0ROBERTSDALE             ALA   070319080A002A12MW 25MW 40ST99 000000
601AL005056 607000004976002   0ROBERTSDALE             ALA   070319080A003A42FW 25MW 40ST99 000000
601AL005056 607000004976002   0ROBERTSDALE             ALA   070319080A004A10FW 25MW 40ST99 000000
601AL005067 607000001587002   0LOXLEY                  ALA   100321081A001B19MB 00UU 12UN99 000000
601AL008016 6070000068600050981ONEONTA                 ALA   070319080A001A79MB 42FW 20AQ03 000000
601AL010008C607000011163007   0BUTLER                  ALA   040319080A001A54MB 56FB 12BF99 000000
601AL010016 607000007067007   0GREENVILLE              ALA   080319080A001A44MB 33MB 90UN99 000000
601AL011015 6070000237360080420ANNISTON                ALA   030321081A001B21MB 00UU 14UN99 000000
601AL011015 6070000237360080420ANNISTON                ALA   030319080A002A46MW 43MW 20IL45 000000
601AL011015 6070000237360080420ANNISTON                ALA   040319080A001A23MB 25MB 12UN99 000000
601AL011015 6070000237360080420ANNISTON                ALA   060319080A001A69MB 17MB 12UN44 000000
601AL011015 6070000237360080420ANNISTON                ALA   060319080A002A49MB 35MB 20AQ44 000000
601AL011015 6070000237360080420ANNISTON                ALA   070321081A001A65MW 19MB 14UN44 000000
601AL011015 6070000237360080420ANNISTON                ALA   070321081A002A49MW 30MW 90AQ99 000000
601AL011015 6070000237360080420ANNISTON                ALA   090319080A001A32MB 59MB 12OF45 000000
601AL011015 6070000237360080420ANNISTON                ALA   100319080A001A31MB 27MB 12UN60 000000
601AL011026 6070000092130080421JACKSONVILLE            ALA   040319080A001A17MW 21MB 12AQ45 000000
601AL011026 6070000092130080421JACKSONVILLE            ALA   120319080A001A53MW 45MW 12FR45 000000
601AL011055 6070000203960080420OXFORD                  ALA   030319080A001A25FB 28MB 12GF45 000000
601AL012046 607000008871009   0VALLEY                  ALA   020319080A001A34MW 27MW 12AQ99 000000
601AL012046 607000008871009   0VALLEY                  ALA   060319080A001A31MW 26MB 40UN99 000000
601AL012046 607000008871009   0VALLEY                  ALA   110319080A001A15MB 18MW 12AQ99 000000
601AL014009B6070000281470110981CHILTON                 ALA   030319080A001A44MW 40FW 12BF45 000000
601AL014016 6070000086020110981CLANTON                 ALA   050321081A001B55FW 00UU 20UN03 000000
601AL014036 6070000025930110981JEMISON                 ALA   080319080A001A22MW 22MW 12FR03 000000
601AL016026 607000004558013   0THOMASVILLE             ALA   020319080A001A24MB 30MB 20AQ45 000000
601AL016026 607000004558013   0THOMASVILLE             ALA   070319080A001A29FB 30FB 12AQ45 000000
601AL016026 607000004558013   0THOMASVILLE             ALA   070319080A002A23FB 30FB 12AQ45 000000
601AL018016 607000003439015   0HEFLIN                  ALA   030319080A001A79MW 57MW 90ST99 000000
601AL018016 607000003439015   0HEFLIN                  ALA   030319080A002A04FW 57MW 90ST99 000000
601AL019025 607000024035016   0ENTERPRISE              ALA   070319080A001A23MB 23MB 12AQ99 000000
601AL020016 6070000091760172781SHEFFIELD               ALA   080321081A001B00MB 00UU 20UN45 000000
601AL022008D607000009006019   0COOSA                   ALA   060321081A001B23MB 00UU 14UN45 000000
601AL023008C607000018566020   0COVINGTON               ALA   120319080A001A53MW 31MW 12UN99 000000
601AL023026 607000006701020   0OPP                     ALA   060319080A001A71FW 62MW 14WI99 000000
601AL025008B607000062474022   0CULLMAN                 ALA   030319080A001A43MW 38FW 12XH45 000000
601AL025008B607000062474022   0CULLMAN                 ALA   110319080A001A27MW 23MW 40AQ45 000000
601AL026015 607000014656023   0OZARK                   ALA   010319080A001A30FW 36MW 12XW45 000000
601AL026015 607000014656023   0OZARK                   ALA   110319080A001A24MB 00MB 12ST99 000000
601AL026015 607000014656023   0OZARK                   ALA   120319080A001A40FW 41MW 20WI45 000000
601AL027008C607000024580024   0DALLAS                  ALA   050319080A001A36MB 24MB 40UN99 000000
601AL027015 607000019101024   0SELMA                   ALA   020321081A001B18MB 00UU 12UN45 000000
601AL027015 607000019101024   0SELMA                   ALA   040319080A001A30MB 28MB 12AQ45 000000
601AL027015 607000019101024   0SELMA                   ALA   050319080A001A44MB 20MB 12ST40 000000
601AL027015 607000019101024   0SELMA                   ALA   120319080A001A15MB 17MB 12ST45 000000
601AL028015 607000013889025   0FORT PAYNE              ALA   020321081A001B70FW 00UU 90UN45 000000
601AL029009B6070000457090265561ELMORE                  ALA   010319080A001A26MW 49MW 12NE45 000000
601AL029009B6070000457090265561ELMORE                  ALA   010319080A002A21FW 20MB 40NE45 000000
601AL029026 6070000050910265561TALLASSEE               ALA   010319080A001A27MW 20MW 12IL45 000000
601AL029065 6070000163420265561MILLBROOK               ALA   010319080A001A32FB 34MB 12XW45 000000
601AL030047 607000001541027   0FLOMATON                ALA   090319080A001A47MW 42MW 90UN99 000000
601AL031024 6070000370660283030GADSDEN                 ALA   110321081A001B62FW 00UU 12UN03 000000
601AL031024 6070000370660283030GADSDEN                 ALA   120321081A001B41MB 00UU 12UN99 000000
601AL031076 6070000082790283031SOUTHSIDE               ALA   120319080A001A39MW 41FW 90HU99 000000
601AL034009C6070000150170312271GENEVA                  ALA   040319080A001A52MW 44FW 12XH99 000000
601AL034009C6070000150170312271GENEVA                  ALA   070319080A001A50FW 42MB 40UN99 000000
601AL034009C6070000150170312271GENEVA                  ALA   120319080A001A21MW 18MW 14AQ45 000000
601AL035009D6070000063040329151GREENE                  ALA   040319080A001A20MB 25MB 12OF45 000000
601AL035009D6070000063040329151GREENE                  ALA   040319080A002A34MB 20MB 12UN45 000000
601AL035009D6070000063040329151GREENE                  ALA   050321081A001B52MW 00UU 90UN99 000000
601AL036009C6070000136520339151HALE                    ALA   090319080A001A52MB 54FB 12UN99 000000
601AL036016 6070000025790339151GREENSBORO              ALA   060319080A001A52MB 29MB 12UN99 000000
601AL038009C6070000249500352271HOUSTON                 ALA   060319080A001A37MW 00MW 20AQ45 000000
601AL038009C6070000249500352271HOUSTON                 ALA   070325081A001A66MW 19MW 90UN99 000000
601AL038009C6070000249500352271HOUSTON                 ALA   080319080A001A37FW 43MW 12WI45 000000
601AL038013 6070000649310352270DOTHAN                  ALA   060319080A001A30FB 23FB 12UN99 000000
601AL038013 6070000649310352270DOTHAN                  ALA   060319080A003A25MB 22FB 12UN99 000000
601AL038013 6070000649310352270DOTHAN                  ALA   060321081A004B39FB 00UU 12UN99 000000
601AL038013 6070000649310352270DOTHAN                  ALA   060321081A005B37FW 00UU 14UN99 000000
601AL038013 6070000649310352270DOTHAN                  ALA   090319080A001A42FB 39MB 20UN45 000000
601AL038013 6070000649310352270DOTHAN                  ALA   100321081A001B46FB 00UU 12UN99 000000
601AL038013 6070000649310352270DOTHAN                  ALA   110319080A001A60FB 28FW 40UN45 000000
601AL039008B607000029967036   0JACKSON                 ALA   060319080A001A24MW 20MW 20AQ99 000000
601AL039008B607000029967036   0JACKSON                 ALA   120321081A001B44MW 00UU 12UN45 000000
601AL041009B6070000475880392781LAUDERDALE              ALA   020319080A001A00MW 30MW 20AQ45 000000
601AL041009B6070000475880392781LAUDERDALE              ALA   030319080A001A30FW 20MW 12SI45 000000
601AL041009B6070000475880392781LAUDERDALE              ALA   050319080A001A00MW 29MW 90UN99 000000
601AL041009B6070000475880392781LAUDERDALE              ALA   050319080A002A00MB 28MW 12UN99 000000
601AL041009B6070000475880392781LAUDERDALE              ALA   070319080A001A00MB 49MB 14IL45 000000
601AL041009B6070000475880392781LAUDERDALE              ALA   070319080A002A00MW 46MW 12FR45 000000
601AL043009B6070000472990410571LEE                     ALA   080321081A001B57MB 00UU 12UN99 000000
601AL043013 6070000531600410570AUBURN                  ALA   020321081A001B34MB 00UU 20UN99 000000
601AL043013 6070000531600410570AUBURN                  ALA   120319080A001A46MB 24MW 90UN99 000000
601AL043025 6070000246000410570OPELIKA                 ALA   010319080A001A45MB 45FB 20UN99 000000
601AL043025 6070000246000410570OPELIKA                 ALA   050319080A001A44MW 28MW 12UN45 000000
601AL043025 6070000246000410570OPELIKA                 ALA   070319080A001A50FB 40MB 90UN45 000000
601AL043025 6070000246000410570OPELIKA                 ALA   120319080A001A00MB 18MB 12SO99 000000
601AL043025 6070000246000410570OPELIKA                 ALA   120321081A002B03FB 00UU 12UN99 000000
601AL044015 6070000222950423681ATHENS                  ALA   060319080A001A38MW 58MW 12SF45 000000
601AL044015 6070000222950423681ATHENS                  ALA   090319080A001A23MW 25MW 20AQ99 000000
601AL045009C6070000115630435561LOWNDES                 ALA   060321081A001B42FB 00UU 12UN99 000000
601AL046015 607000011423044   0TUSKEGEE                ALA   040319080A001A17MB 21MB 12AQ45 000000
601AL046015 607000011423044   0TUSKEGEE                ALA   040325081A002A18MB 18MB 12UN60 000000
601AL046015 607000011423044   0TUSKEGEE                ALA   120321081A001B27MB 00UU 12UN45 000000
601AL047009B6070000970040453681MADISON                 ALA   040325081A001A40FW 42MW 14XW45 000000
601AL047009B6070000970040453681MADISON                 ALA   050321081A001B35MW 00UU 12UN99 000000
601AL047009B6070000970040453681MADISON                 ALA   080319080A001A49FW 66MW 90SI09 000000
601AL047009B6070000970040453681MADISON                 ALA   080319080A002A86FW 66MW 90MO09 000000
601AL047012 6070001693910453680HUNTSVILLE              ALA   010324081A001B32MB 00UU 12UN99 000000
601AL047012 6070001693910453680HUNTSVILLE              ALA   020319080A001A60FW 65MW 12GF45 000000
601AL047012 6070001693910453680HUNTSVILLE              ALA   020319080A002A22MB 17MB 12UN45 000000
601AL047012 6070001693910453680HUNTSVILLE              ALA   030319080A001A54MW 17MB 12UN99 000000
601AL047012 6070001693910453680HUNTSVILLE              ALA   040324081A001B26MW 00UU 12UN99 000000
601AL047012 6070001693910453680HUNTSVILLE              ALA   040324081A002B45MW 00UU 12UN99 000000
601AL047012 6070001693910453680HUNTSVILLE              ALA   060324081A001B16FB 00UU 12UN45 000000
601AL047012 6070001693910453680HUNTSVILLE              ALA   070319080A001A22MB 20MB 12UN03 000000
601AL047012 6070001693910453680HUNTSVILLE              ALA   070319080A002A23MW 20UU 20FR44 000000
601AL047012 6070001693910453680HUNTSVILLE              ALA   070319080A003A26MW 21MW 20FR99 000000
601AL047012 6070001693910453680HUNTSVILLE              ALA   070319080A004A29MB 19MB 12UN99 000000
601AL047012 6070001693910453680HUNTSVILLE              ALA   070319080A005A31MB 22FB 20BF45 000000
601AL047012 6070001693910453680HUNTSVILLE              ALA   100319080A001A20MB 19MB 12UN99 000000
601AL047012 6070001693910453680HUNTSVILLE              ALA   110319080A001A32MW 18MB 12ST03 000000
601AL047012 6070001693910453680HUNTSVILLE              ALA   120324081A001B49MB 00UU 12UN99 000000
601AL047012 6070001693910453680HUNTSVILLE              ALA   120324081A002B00MW 00UU 40UN99 000000
601AL047012 6070001693910453680HUNTSVILLE              ALA   120324081A003B47MW 00UU 20UN99 000000
601AL047012 6070001693910453680HUNTSVILLE              ALA   120319080A004A52MW 39FW 12CH99 000000
601AL047012 6070001693910453680HUNTSVILLE              ALA   120324081A005A36MW 53MW 12UN80E000000
601AL047012 6070001693910453680HUNTSVILLE              ALA   120324081A006B18FB 00UU 12UN99 000000
601AL047012 6070001693910453680HUNTSVILLE              ALA   120324081A007B29MB 00UU 12UN99 000000
601AL047012 6070001693910453680HUNTSVILLE              ALA   120324081A008B26MB 00UU 12UN99 000000
601AL050008B607000044058048   0MARSHALL                ALA   060319080A001A54FW 55MW 12UN99 000000
601AL050026 607000008088048   0GUNTERSVILLE            ALA   060319080A001A39FB 40MW 90AQ45 000000
601AL051016 607000006538050   0MONROEVILLE             ALA   100321081A001B34MB 00UU 12UN99 000000
601AL055015 607000014056055   0TROY                    ALA   050319080A001A24MB 00MB 12UN99 000000
601AL056008C607000014596056   0RANDOLPH                ALA   020325081A001A04FB 35FB 90DA60 000000
601AL057009C6070000217550571841RUSSELL                 ALA   070325081A001A20FW 39FW 12AQ60 000000
601AL057014 6070000303090571841PHENIX CITY             ALA   060325081A001A16MB 36MB 12FR99 000000
601AL057014 6070000303090571841PHENIX CITY             ALA   090319080A001A29MW 30MW 40AQ45 000000
601AL057014 6070000303090571841PHENIX CITY             ALA   120319080A001A38MB 34MB 12UN99 000000
601AL058009B6070000363360580981ST. CLAIR               ALA   010321081A001B50MW 00UU 12UN99 000000
601AL058009B6070000363360580981ST. CLAIR               ALA   040321081A001B30MW 00UU 12UN99 000000
601AL058009B6070000363360580981ST. CLAIR               ALA   060319080A001A59FW 47MB 14WI99 000000
601AL058015 6070000122560580981PELL CITY               ALA   040319080A001A59FB 22MW 90UN99 000000
601AL058015 6070000122560580981PELL CITY               ALA   110319080A001A55FW 52FW 90UN99 000000
601AL058037 6070000020820580981RAGLAND                 ALA   040321081A001B00MW 00UU 12UN99 000000
601AL059044 6070000289040590981ALABASTER               ALA   120319080A001A31FW 28FW 90SI99 000000
601AL060026 607000002961060   0LIVINGSTON              ALA   110319080A001A73MB 55MB 90AQ99 000000
601AL061015 607000012946061   0SYLACAUGA               ALA   020319080A001A64FW 64MW 12UN99 000000
601AL061015 607000012946061   0SYLACAUGA               ALA   120319080A001A21MW 24MB 12UN03 000000
601AL061025 607000017104061   0TALLADEGA               ALA   040319080A001A26MB 57MB 12UN45 000000
601AL062008C607000018776062   0TALLAPOOSA              ALA   120321081A001A00MB 00FU 12BF45 000000
601AL062015 607000015053062   0ALEXANDER CITY          ALA   010319080A001A31MW 24MB 12ST40 000000
601AL062015 607000015053062   0ALEXANDER CITY          ALA   040319080A001A44MB 32FB 90HU45 000000
601AL063009B6070000633060639151TUSCALOOSA              ALA   010319080A001A31MB 26MW 12AQ45 000000
601AL063009B6070000633060639151TUSCALOOSA              ALA   030321081A001D56FW 35MW 14MO45 00100068MW
601AL063009B6070000633060639151TUSCALOOSA              ALA   110319080A001A34MB 26MB 12UN45 000000
601AL063013 6070000838110639150TUSCALOOSA              ALA   050319080A001A27MB 28MB 12OF45 000000
601AL063013 6070000838110639150TUSCALOOSA              ALA   050319080A002A26MB 19MB 12ST45 000000
601AL063013 6070000838110639150TUSCALOOSA              ALA   060319080A001A64MB 27MB 90AQ99 000000
601AL063013 6070000838110639150TUSCALOOSA              ALA   070319080A001A32MB 26MB 12AQ45 000000
601AL063013 6070000838110639150TUSCALOOSA              ALA   070319080A002A22MB 19MB 12UN45 000000
601AL063013 6070000838110639150TUSCALOOSA              ALA   080319080A001A19MB 28FB 12AQ60 000000
601AL063013 6070000838110639150TUSCALOOSA              ALA   080319080A002A34MB 00MB 12UN99 000000
601AL063013 6070000838110639150TUSCALOOSA              ALA   110319080A001A20FW 21MU 90ST99 000000
601AL063013 6070000838110639150TUSCALOOSA              ALA   110319080A002A21MW 21MB 12ST18 000000
601AL063013 6070000838110639150TUSCALOOSA              ALA   120321081A001B44FB 00UU 90UN99 000000
601AL063025 6070000222010639151NORTHPORT               ALA   050319080A001A17MB 17FB 20BF99 000000
601AL063025 6070000222010639151NORTHPORT               ALA   120319080A001A31MW 00MB 12UN99 000000
601AL064015 6070000141170640981JASPER                  ALA   120319080A001A58FB 21MB 20OF45 000000
601AL066008D607000009771066   0WILCOX                  ALA   070319080A001A43FW 42FW 12FR40 000000
601AL066027 607000000914066   0PINE HILL               ALA   030319080A001A15FB 15MB 14SI45 000000
601AL067017 607000000989067   0DOUBLE SPRINGS          ALA   040321081A001B31MW 00UU 12UN99 000000
602AZ001016 807000004324001   0EAGAR                   ARIZ  060222080A001A31MWN30MWN13ST81E000000
602AZ002008B807000050636002   0COCHISE                 ARIZ  010801070A001A22MWH39MWN12ST60 000000
602AZ002008B807000050636002   0COCHISE                 ARIZ  100311080A001A16MWN16MWN14FR60 000000
602AZ002094 807000043441002   0SIERRA VISTA            ARIZ  010801070A001A19MAN17MWH12AQ44 000000
602AZ002094 807000043441002   0SIERRA VISTA            ARIZ  040906070A001A57FAN43MWN40AQ42 000000
602AZ002094 807000043441002   0SIERRA VISTA            ARIZ  090222080A001A35MBN33MWN12ST60 000000
602AZ002094 807000043441002   0SIERRA VISTA            ARIZ  110317080A001C23MBN24MBN12AQ18 000002                                                  24MBN12AQ18 22MBN12AQ18
602AZ003013 8070000589780032750FLAGSTAFF               ARIZ  080222080A001A40MWN39FWN12XH45 000000
602AZ003013 8070000589780032750FLAGSTAFF               ARIZ  090222080A001A22MWH22MWH12FR60 000000
602AZ003013 8070000589780032750FLAGSTAFF               ARIZ  100311080A001B22MWH00UUU12UN99 000000
602AZ004065 807000015496004   0PAYSON                  ARIZ  020808070A001A31MWN35MWN12FR45 000000
602AZ007009A8070002896500076621MARICOPA                ARIZ  010801070A001F27MWH00UUU90UN99 00100022MWH
602AZ007009A8070002896500076621MARICOPA                ARIZ  010801070A002C37MWH25MWH12ST60 000001                                                  29MWH12ST60
602AZ007009A8070002896500076621MARICOPA                ARIZ  010801070A003B00MBN00UUU90UN99 000000
602AZ007009A8070002896500076621MARICOPA                ARIZ  020808070A001A32FWN32MWN40GF45 000000
602AZ007009A8070002896500076621MARICOPA                ARIZ  020808070A002B40MWH00UUU20UN99 000000
602AZ007009A8070002896500076621MARICOPA                ARIZ  030814070A001A53FWN30MWH12OK45 000000
602AZ007009A8070002896500076621MARICOPA                ARIZ  030814070A002B00UUU00UUU90UN99 000000
602AZ007009A8070002896500076621MARICOPA                ARIZ  030814070A003B43MWH00UUU12UN99 000000
602AZ007009A8070002896500076621MARICOPA                ARIZ  030814070A004A01MWN29MWN40OK60 000000
602AZ007009A8070002896500076621MARICOPA                ARIZ  030814070A005B00MWN00UUU90UN99 000000
602AZ007009A8070002896500076621MARICOPA                ARIZ  030814070A006B31MWN00UUU12UN45 000000
602AZ007009A8070002896500076621MARICOPA                ARIZ  030814070A007A23MWH00MWH12ST45 000000
602AZ007009A8070002896500076621MARICOPA                ARIZ  040906070A001B00UUU00UUU90UN99 000000
602AZ007009A8070002896500076621MARICOPA                ARIZ  051023070A001B00UUU00UUU65UN99 000000
602AZ007009A8070002896500076621MARICOPA                ARIZ  051029071A002F00MW 00UU 12UN99 00100000MW
602AZ007009A8070002896500076621MARICOPA                ARIZ  061108070A001A47FAN27MWH30ST60 000000
602AZ007009A8070002896500076621MARICOPA                ARIZ  071210070A001B00UUU00UUU90UN99 000000
602AZ007009A8070002896500076621MARICOPA                ARIZ  071210070A002A38MWN45MWN70FR60 000000
602AZ007009A8070002896500076621MARICOPA                ARIZ  071210070B003A54FWN47MWN12GF53 000000
602AZ007009A8070002896500076621MARICOPA                ARIZ  080123080A001B78MWN00UUU14UN99 000000
602AZ007009A8070002896500076621MARICOPA                ARIZ  080123080A002A37MWN50MWN12ST60 000000
602AZ007009A8070002896500076621MARICOPA                ARIZ  080123080A003A22MWH42MWH12AQ45 000000
602AZ007009A8070002896500076621MARICOPA                ARIZ  080123080A004B29MWH00UUU12UN99 000000
602AZ007009A8070002896500076621MARICOPA                ARIZ  080123080A005A26MWH22MWH12ST45 000000
602AZ007009A8070002896500076621MARICOPA                ARIZ  090222080A001C57MWN44MWN30ST60 000001                                                  62FWN30HU60
602AZ007009A8070002896500076621MARICOPA                ARIZ  090222080A002B45MWH00UUU12UN99 000000
602AZ007009A8070002896500076621MARICOPA                ARIZ  090222080A003B55MWN00UUU65UN99 000000
602AZ007009A8070002896500076621MARICOPA                ARIZ  090222080A004B00MWN00UUU30UN99 000000
602AZ007009A8070002896500076621MARICOPA                ARIZ  100311080A001A49MWN44FWN20HU45 000000
602AZ007009A8070002896500076621MARICOPA                ARIZ  110317080A001B28MWH00UUU12UN99 000000
602AZ007009A8070002896500076621MARICOPA                ARIZ  110317080A002B00MWH00UUU80UN99 000000
602AZ007013 8070000834870076620AVONDALE                ARIZ  110317080A001A15MWH19MWH13OK60 000000
602AZ007013 8070000834870076620AVONDALE                ARIZ  110317080A002A52FWN67MWN12WI60 000000
602AZ007034 8070000346180076621BUCKEYE                 ARIZ  060317080A001A24FWH26MWH13GF45 000000
602AZ007051C8070002508680076620CHANDLER                ARIZ  030814070A001B33MWH00UUU12UN99 000000
602AZ007051C8070002508680076620CHANDLER                ARIZ  030814070A002B41MWH00UUU12UN99 000000
602AZ007051C8070002508680076620CHANDLER                ARIZ  051023070A001A77FWH80MWH12WI60 000000
602AZ007051C8070002508680076620CHANDLER                ARIZ  051023070A002B35MWH00UUU12UN99 000000
602AZ007051C8070002508680076620CHANDLER                ARIZ  061108070B001ABBFWN30MWN90DA59 000000
602AZ007051C8070002508680076620CHANDLER                ARIZ  080123080A001A25MBN21MBN12ST60 000000
602AZ007051C8070002508680076620CHANDLER                ARIZ  080123080A002B34MWN00UUU12UN99 000000
602AZ007051C8070002508680076620CHANDLER                ARIZ  110317080A001D06MWN43MWN12SO60 00100004FWN
602AZ007051C8070002508680076620CHANDLER                ARIZ  110317080A002A22FWH27MWH12GF45 000000
602AZ007112 8070002066810076620GILBERT                 ARIZ  010808070A001A19FWN25MWN12AQ60 000000
602AZ007131C8070002504440076620GLENDALE                ARIZ  010801070A001A32MBN29MBN12AQ40 000000
602AZ007131C8070002504440076620GLENDALE                ARIZ  020808070A001C23MWN18MBN12AQ18 000001                                                  21MBN12AQ18
602AZ007131C8070002504440076620GLENDALE                ARIZ  020808070A002A32FBN42MBN12GF45 000000
602AZ007131C8070002504440076620GLENDALE                ARIZ  020808070A003A24MWN33MWN12ST60 000000
602AZ007131C8070002504440076620GLENDALE                ARIZ  030814070A001ABBFBN22MBN30DA60 000000
602AZ007131C8070002504440076620GLENDALE                ARIZ  051023070A001A15MWH14MWH12AQ18 000000
602AZ007131C8070002504440076620GLENDALE                ARIZ  071210070A001A46MBN23MWN12AQ18 000000
602AZ007131C8070002504440076620GLENDALE                ARIZ  080123080A001A16MWN23MBN12AQ18 000000
602AZ007131C8070002504440076620GLENDALE                ARIZ  080222081A002A26MBN19MBN14AQ18 000000
602AZ007131C8070002504440076620GLENDALE                ARIZ  080123080B003A22MWN22MWN13AQ53 000000
602AZ007131C8070002504440076620GLENDALE                ARIZ  090222080A001C28MWH22MWH12AQ18 000001                                                  22MWH12AQ18
602AZ007131C8070002504440076620GLENDALE                ARIZ  090222080A002A19MWH14MWH13AQ45 000000
602AZ007131C8070002504440076620GLENDALE                ARIZ  090222080A003B22MWH00UUU12UN99 000000
602AZ007131C8070002504440076620GLENDALE                ARIZ  090222080A004B55MWN00UUU40UN03 000000
602AZ007131C8070002504440076620GLENDALE                ARIZ  100311080A001B23MWH00UUU12UN99 000000
602AZ007131C8070002504440076620GLENDALE                ARIZ  110317080A001B22MWH00UUU12UN18 000000
602AZ007131C8070002504440076620GLENDALE                ARIZ  120402080B001ABBFWN20MWH40AQ59 000000
602AZ007153 8070000538340076620GOODYEAR                ARIZ  031023070A001B20MWH00UUU12UN99 000000
602AZ007171C8070004545760076620MESA                    ARIZ  010801070A001A19FWN40MWN12ST03 000000
602AZ007171C8070004545760076620MESA                    ARIZ  010222080A002ANBMWN18FWN40SO60 000000
602AZ007171C8070004545760076620MESA                    ARIZ  020808070A001B17FWH00UUU20UN99 000000
602AZ007171C8070004545760076620MESA                    ARIZ  030814070A001B29MWN00UUU12UN99 000000
602AZ007171C8070004545760076620MESA                    ARIZ  030814070A002A23MWH23MWH20OF45 000000
602AZ007171C8070004545760076620MESA                    ARIZ  030814070A003A03MBN22FWN40OK41 000000
602AZ007171C8070004545760076620MESA                    ARIZ  030311080A004A75MWN28MWN30ST45 000000
602AZ007171C8070004545760076620MESA                    ARIZ  040311080A001A50MWN34FWN12ST81B000000
602AZ007171C8070004545760076620MESA                    ARIZ  051023070A001B00MWH00UUU12UN99 000000
602AZ007171C8070004545760076620MESA                    ARIZ  050311080A002BBBMWN00UUU40UN60 000000
602AZ007171C8070004545760076620MESA                    ARIZ  071210070A001A80MWN22FWH20AQ44 000000
602AZ007171C8070004545760076620MESA                    ARIZ  071210070A002A59FWN41MWN40FR45 000000
602AZ007171C8070004545760076620MESA                    ARIZ  071210070A003A22FWN27MWH12FR60 000000
602AZ007171C8070004545760076620MESA                    ARIZ  071210070A004A22MWH32MWH13AQ45 000000
602AZ007171C8070004545760076620MESA                    ARIZ  080123080A001ABBMWN21MWN40SO60 000000
602AZ007171C8070004545760076620MESA                    ARIZ  080123080B002A16MWH21MIN12AQ53 000000
602AZ007171C8070004545760076620MESA                    ARIZ  090222080A001C30MWU25MWH12ST60 000001                                                  30FWH12ST60
602AZ007171C8070004545760076620MESA                    ARIZ  090222080A002C16MBN18MBN12ST42 000001                                                  20MBN12ST42
602AZ007171C8070004545760076620MESA                    ARIZ  100311080A001A19MWH34MWH12AQ18 000000
602AZ007171C8070004545760076620MESA                    ARIZ  100311080A002B44FWN00UUU85UN99 000000
602AZ007171C8070004545760076620MESA                    ARIZ  100311080A003B32MWN00UUU12UN99 000000
602AZ007171C8070004545760076620MESA                    ARIZ  110317080A001B32FIN00UUU40UN99 000000
602AZ007171C8070004545760076620MESA                    ARIZ  110317080A002A40FWH52MWH14WI45 000000
602AZ007171C8070004545760076620MESA                    ARIZ  110317080A003C20MWH35MWN12ST81A000001                                                  35MWN12ST81A
602AZ007171C8070004545760076620MESA                    ARIZ  120402080A001A52MWN27MWN12AQ45 000000
602AZ007212 8070001472230076620PEORIA                  ARIZ  031023070A001B28MWH00UUU12UN99 000000
602AZ007212 8070001472230076620PEORIA                  ARIZ  031023070A002B25MWH00UUU12UN99 000000
602AZ007212 8070001472230076620PEORIA                  ARIZ  041210070A001B00UUU00UUU90UN99 000000
602AZ007212 8070001472230076620PEORIA                  ARIZ  041210070A002A01MWN45FWN40OK41 000000
602AZ007212 8070001472230076620PEORIA                  ARIZ  041210070B003A17MWH14MWH14FR52 000000
602AZ007212 8070001472230076620PEORIA                  ARIZ  060123080B001A21FWH23MWH12CW53 000000
602AZ007212 8070001472230076620PEORIA                  ARIZ  110317080A001B36FBN00UUU12UN99 000000
602AZ007212 8070001472230076620PEORIA                  ARIZ  110317080A002B16MWH00UUU20UN99 000000
602AZ007212 8070001472230076620PEORIA                  ARIZ  110317080A003A37MWN30MWN12ST81A000000
602AZ007231A8070015416980076620PHOENIX                 ARIZ  010801070A001B36MWN00UUU11UN99 000000
602AZ007231A8070015416980076620PHOENIX                 ARIZ  010801070A002B25MWN00UUU12UN03 000000
602AZ007231A8070015416980076620PHOENIX                 ARIZ  010801070A003B23MWH00UUU12UN18 000000
602AZ007231A8070015416980076620PHOENIX                 ARIZ  010801070A004A03FWN28FWN40OK60 000000
602AZ007231A8070015416980076620PHOENIX                 ARIZ  010801070A005B16MWH00UUU12UN99 000000
602AZ007231A8070015416980076620PHOENIX                 ARIZ  010801070A006A55MIN50MWH30FR45 000000
602AZ007231A8070015416980076620PHOENIX                 ARIZ  010801070A007B16MBN00UUU12UN99 000000
602AZ007231A8070015416980076620PHOENIX                 ARIZ  010801070A008B25MWN00UUU12UN45 000000
602AZ007231A8070015416980076620PHOENIX                 ARIZ  010801070A009B15MWH00UUU12UN99 000000
602AZ007231A8070015416980076620PHOENIX                 ARIZ  010813071A010B33MW 00UU 12UN99 000000
602AZ007231A8070015416980076620PHOENIX                 ARIZ  010801070A011A22MIN18MIN12AQ45 000000
602AZ007231A8070015416980076620PHOENIX                 ARIZ  010806071A012A30MW 00MW 12AQ45 000000
602AZ007231A8070015416980076620PHOENIX                 ARIZ  010801070A013B18MWH00UUU12UN99 000000
602AZ007231A8070015416980076620PHOENIX                 ARIZ  010801070A014D10MWN45MWN12SO60 00100011MWN
602AZ007231A8070015416980076620PHOENIX                 ARIZ  010801070A015B20MWH00UUU12UN99 000000
602AZ007231A8070015416980076620PHOENIX                 ARIZ  010801070A016B42MWN00UUU12UN99 000000
602AZ007231A8070015416980076620PHOENIX                 ARIZ  010806071A017A37MW 31MW 12AQ45 000000
602AZ007231A8070015416980076620PHOENIX                 ARIZ  020808070A001B21MWN00UUU12UN99 000000
602AZ007231A8070015416980076620PHOENIX                 ARIZ  020808070A002B18MWH00UUU12UN99 000000
602AZ007231A8070015416980076620PHOENIX                 ARIZ  020808070A003B17MBN00UUU12UN46 000000
602AZ007231A8070015416980076620PHOENIX                 ARIZ  020808070A005B19MWH00UUU12UN42 000000
602AZ007231A8070015416980076620PHOENIX                 ARIZ  020808070A006B24FWH00UUU12UN99 000000
602AZ007231A8070015416980076620PHOENIX                 ARIZ  020808070A007B19MBN00UUU12UN99 000000
602AZ007231A8070015416980076620PHOENIX                 ARIZ  020808070A008A18MWH19MWH12AQ45 000000
602AZ007231A8070015416980076620PHOENIX                 ARIZ  020808070A009D16MBN84MWN12AQ60 00100018FWN
602AZ007231A8070015416980076620PHOENIX                 ARIZ  020808070A010F15MWH00UUU80UN99 00100023MWH
602AZ007231A8070015416980076620PHOENIX                 ARIZ  020808070A011B38MWH00UUU12UN46 000000
602AZ007231A8070015416980076620PHOENIX                 ARIZ  020808070A013B36MWH00UUU12UN03 000000
602AZ007231A8070015416980076620PHOENIX                 ARIZ  020808070A014A76FWN32MWN20AQ45 000000
602AZ007231A8070015416980076620PHOENIX                 ARIZ  020808070A015B19FWH00UUU12UN99 000000
602AZ007231A8070015416980076620PHOENIX                 ARIZ  020808070A016B29MWH00UUU12UN99 000000
602AZ007231A8070015416980076620PHOENIX                 ARIZ  020402081A017B18MWH00UUU12UN18 000000
602AZ007231A8070015416980076620PHOENIX                 ARIZ  020423081A018A33FB 36MB 12WI45 000000
602AZ007231A8070015416980076620PHOENIX                 ARIZ  020808070A019B28MWH00UUU12UN99 000000
602AZ007231A8070015416980076620PHOENIX                 ARIZ  020808070A020F25MBN00UUU12UN45 00100027MBN
602AZ007231A8070015416980076620PHOENIX                 ARIZ  020808070A021B16MWH00UUU12UN45 000000
602AZ007231A8070015416980076620PHOENIX                 ARIZ  020808070A022B42MWN00UUU12UN99 000000
602AZ007231A8070015416980076620PHOENIX                 ARIZ  020808070A023B24MWH00UUU90UN99 000000
602AZ007231A8070015416980076620PHOENIX                 ARIZ  020808070A024A84MWN34MWN12ST81A000000
602AZ007231A8070015416980076620PHOENIX                 ARIZ  030814070A001B34MWH00UUU12UN99 000000
602AZ007231A8070015416980076620PHOENIX                 ARIZ  030814070A002F20MWN00UUU13UN18 00100021MWN
602AZ007231A8070015416980076620PHOENIX                 ARIZ  030814070A003B32MWH00UUU12UN99 000000
602AZ007231A8070015416980076620PHOENIX                 ARIZ  030814070A004B21MWH00UUU13UN18 000000
602AZ007231A8070015416980076620PHOENIX                 ARIZ  030814070A005A25FBN22MBN12GF45 000000
602AZ007231A8070015416980076620PHOENIX                 ARIZ  030814070A006B30MWH00UUU12UN99 000000
602AZ007231A8070015416980076620PHOENIX                 ARIZ  030814070A007B30MWH00UUU12UN99 000000
602AZ007231A8070015416980076620PHOENIX                 ARIZ  030814070A008B17MWH00UUU12UN47 000000
602AZ007231A8070015416980076620PHOENIX                 ARIZ  030814070A009B39MBN00UUU12UN99 000000
602AZ007231A8070015416980076620PHOENIX                 ARIZ  030814070A010A38FWH33MWH20GF45 000000
602AZ007231A8070015416980076620PHOENIX                 ARIZ  030814070A011B31MWH00UUU12UN99 000000
602AZ007231A8070015416980076620PHOENIX                 ARIZ  030814070A012A30FWN32MWN80WI45 000000
602AZ007231A8070015416980076620PHOENIX                 ARIZ  030814070B013A13MWH13MWH12OF52 000000
602AZ007231A8070015416980076620PHOENIX                 ARIZ  040906070A001ANBFWN00FWN90DA60 000000
602AZ007231A8070015416980076620PHOENIX                 ARIZ  040906070A002B75MWN00UUU30UN03 000000
602AZ007231A8070015416980076620PHOENIX                 ARIZ  040906070A003B21MWH00UUU12UN99 000000
602AZ007231A8070015416980076620PHOENIX                 ARIZ  040906070A004A22MWH21MWH12BR45 000000
602AZ007231A8070015416980076620PHOENIX                 ARIZ  040906070A005B37MBN00UUU12UN45 000000
602AZ007231A8070015416980076620PHOENIX                 ARIZ  040906070A006B32FWH00UUU12UN99 000000
602AZ007231A8070015416980076620PHOENIX                 ARIZ  040906070A007A17FWH17MWH80GF45 000000
602AZ007231A8070015416980076620PHOENIX                 ARIZ  040906070A008B21MWH00UUU12UN60 000000
602AZ007231A8070015416980076620PHOENIX                 ARIZ  040906070A009B42MWH00UUU20UN99 000000
602AZ007231A8070015416980076620PHOENIX                 ARIZ  040906070A010CBBMWN22FWN40SO60 000001                                                  29MWN40SO60
602AZ007231A8070015416980076620PHOENIX                 ARIZ  040906070A011A26MBN20MBN12BR45 000000
602AZ007231A8070015416980076620PHOENIX                 ARIZ  040906070A012B27MWH00UUU12UN99 000000
602AZ007231A8070015416980076620PHOENIX                 ARIZ  040906070A013B42MWH00UUU12UN99 000000
602AZ007231A8070015416980076620PHOENIX                 ARIZ  040906070A014A32MBN30MBN12OF44 000000
602AZ007231A8070015416980076620PHOENIX                 ARIZ  040906070A015F19FBN00UUU12UN99 00100023MWH
602AZ007231A8070015416980076620PHOENIX                 ARIZ  040906070A016B04MWN00UUU30UN60 000000
602AZ007231A8070015416980076620PHOENIX                 ARIZ  040906070A017A33MBN29MWN13ST81E000000
602AZ007231A8070015416980076620PHOENIX                 ARIZ  051023070A001B38MWH00UUU12UN45 000000
602AZ007231A8070015416980076620PHOENIX                 ARIZ  051023070A002B56MWH00UUU12UN99 000000
602AZ007231A8070015416980076620PHOENIX                 ARIZ  051023070A003B30MWH00UUU30UN99 000000
602AZ007231A8070015416980076620PHOENIX                 ARIZ  051023070A004B18MWH00UUU12UN99 000000
602AZ007231A8070015416980076620PHOENIX                 ARIZ  051023070A005B20MWH00UUU12UN03 000000
602AZ007231A8070015416980076620PHOENIX                 ARIZ  051023070A006A24FWH27MWH12GF45 000000
602AZ007231A8070015416980076620PHOENIX                 ARIZ  051023070A007B24MWH00UUU12UN45 000000
602AZ007231A8070015416980076620PHOENIX                 ARIZ  051023070A008B26MWH00UUU12UN99 000000
602AZ007231A8070015416980076620PHOENIX                 ARIZ  051029071A009A14MW 16MB 12AQ47 000000
602AZ007231A8070015416980076620PHOENIX                 ARIZ  051023070A010B42MWH00UUU12UN99 000000
602AZ007231A8070015416980076620PHOENIX                 ARIZ  051023070A011A34FAN20MWH20AQ03 000000
602AZ007231A8070015416980076620PHOENIX                 ARIZ  051023070A012B26MWH00UUU13UN18 000000
602AZ007231A8070015416980076620PHOENIX                 ARIZ  051029071A013E24MW 00MI 12ST60 00100128MI                                              00MW 12ST60
602AZ007231A8070015416980076620PHOENIX                 ARIZ  051023070A014B57MWN00UUU20UN99 000000
602AZ007231A8070015416980076620PHOENIX                 ARIZ  051023070A015B34MWN00UUU12UN45 000000
602AZ007231A8070015416980076620PHOENIX                 ARIZ  051023070A016B25MWH00UUU13UN18 000000
602AZ007231A8070015416980076620PHOENIX                 ARIZ  051023070A017B23MWH00UUU13UN18 000000
602AZ007231A8070015416980076620PHOENIX                 ARIZ  051023070A018B34MWH00UUU13UN99 000000
602AZ007231A8070015416980076620PHOENIX                 ARIZ  050402081A019A34MWH47MWH20OF80E000000
602AZ007231A8070015416980076620PHOENIX                 ARIZ  051023070A020A29MWH29MWN12ST81A000000
602AZ007231A8070015416980076620PHOENIX                 ARIZ  051023070A021A19MWH29MWH13ST81E000000
602AZ007231A8070015416980076620PHOENIX                 ARIZ  051023070A022A29MWH24MWH12ST80E000000
602AZ007231A8070015416980076620PHOENIX                 ARIZ  051023070A023A00MWH19MWH13ST80E000000
602AZ007231A8070015416980076620PHOENIX                 ARIZ  051023070B024A25MWN60MWN85OF59 000000
602AZ007231A8070015416980076620PHOENIX                 ARIZ  061108070A001A36MWN26MWN20AQ45 000000
602AZ007231A8070015416980076620PHOENIX                 ARIZ  061108070A002B55MWH00UUU12UN99 000000
602AZ007231A8070015416980076620PHOENIX                 ARIZ  061108070A003A22MWH25MWH12AQ60 000000
602AZ007231A8070015416980076620PHOENIX                 ARIZ  061108070A004B27MWH00UUU12UN70 000000
602AZ007231A8070015416980076620PHOENIX                 ARIZ  061108070A005B28MWH00UUU12UN99 000000
602AZ007231A8070015416980076620PHOENIX                 ARIZ  061115071A006A43MW 00MW 12ST99 000000
602AZ007231A8070015416980076620PHOENIX                 ARIZ  061115071A007A27MW 00MW 20UN45 000000
602AZ007231A8070015416980076620PHOENIX                 ARIZ  061108070A008B41MWN00UUU11UN99 000000
602AZ007231A8070015416980076620PHOENIX                 ARIZ  061108070A009B25MWH00UUU12UN99 000000
602AZ007231A8070015416980076620PHOENIX                 ARIZ  061108070A010B20MWH00UUU11UN45 000000
602AZ007231A8070015416980076620PHOENIX                 ARIZ  061108070A011B55MWN00UUU11UN45 000000
602AZ007231A8070015416980076620PHOENIX                 ARIZ  061108070A012A23MBN00MBN12AQ99 000000
602AZ007231A8070015416980076620PHOENIX                 ARIZ  061108070A013A20MWH22MWH11AQ45 000000
602AZ007231A8070015416980076620PHOENIX                 ARIZ  061108070A014A24MWH19MBN11AQ45 000000
602AZ007231A8070015416980076620PHOENIX                 ARIZ  061108070A015B23FBN00UUU12UN99 000000
602AZ007231A8070015416980076620PHOENIX                 ARIZ  061108070A016B39MWN00UUU12UN99 000000
602AZ007231A8070015416980076620PHOENIX                 ARIZ  061108070A017A18FWH53MWN20ST80E000000
602AZ007231A8070015416980076620PHOENIX                 ARIZ  060423081A018E15MW 17MW 13AQ45 00200217MW 20MW                                         17MW 13AQ45 20MW 13AQ45
602AZ007231A8070015416980076620PHOENIX                 ARIZ  071210070A001F26MWH00UUU12UN99 00100020MWH
602AZ007231A8070015416980076620PHOENIX                 ARIZ  071210070A002A22FWN24MWN20GF45 000000
602AZ007231A8070015416980076620PHOENIX                 ARIZ  071210070A003A40MWH33MWH12AQ45 000000
602AZ007231A8070015416980076620PHOENIX                 ARIZ  071210070A005B17MWH00UUU12UN45 000000
602AZ007231A8070015416980076620PHOENIX                 ARIZ  071210070A006A20MWH20MWH12ST99 000000
602AZ007231A8070015416980076620PHOENIX                 ARIZ  071210070A007C51MWN25MBN20ST45 000001                                                  47MBN20ST45
602AZ007231A8070015416980076620PHOENIX                 ARIZ  071210070A008A05FBN24MBN30OK60 000000
602AZ007231A8070015416980076620PHOENIX                 ARIZ  071210070A009B20MWH00UUU20UN99 000000
602AZ007231A8070015416980076620PHOENIX                 ARIZ  071210070A010B27MBN00UUU12UN45 000000
602AZ007231A8070015416980076620PHOENIX                 ARIZ  071210070A011B52MWH00UUU13UN99 000000
602AZ007231A8070015416980076620PHOENIX                 ARIZ  071210070A012A46FWH28MWH12IL45 000000
602AZ007231A8070015416980076620PHOENIX                 ARIZ  071210070A013B36MWH00UUU30UN45 000000
602AZ007231A8070015416980076620PHOENIX                 ARIZ  071210070A014A33MBN30MBN13AQ45 000000
602AZ007231A8070015416980076620PHOENIX                 ARIZ  071210070A015B72MBN00UUU12UN99 000000
602AZ007231A8070015416980076620PHOENIX                 ARIZ  071210070A016A28MWH00MBN12ST45 000000
602AZ007231A8070015416980076620PHOENIX                 ARIZ  071210070A017B27MWH00UUU12UN99 000000
602AZ007231A8070015416980076620PHOENIX                 ARIZ  071210070A018A22FWH17MWH12AQ60 000000
602AZ007231A8070015416980076620PHOENIX                 ARIZ  071210070A019B21MWN00UUU12UN99 000000
602AZ007231A8070015416980076620PHOENIX                 ARIZ  071210070A020C23MWH19FWH12ST60 000001                                                  20MWH12ST60
602AZ007231A8070015416980076620PHOENIX                 ARIZ  071210070A022B20MWH00UUU12UN45 000000
602AZ007231A8070015416980076620PHOENIX                 ARIZ  071210070A023B50FWH00UUU30UN99 000000
602AZ007231A8070015416980076620PHOENIX                 ARIZ  071213071A024A26MW 00MW 12ST03 000000
602AZ007231A8070015416980076620PHOENIX                 ARIZ  071213071A025A22FB 00MB 12AQ45 000000
602AZ007231A8070015416980076620PHOENIX                 ARIZ  071210070A026A16MBN35MWH12ST80C000000
602AZ007231A8070015416980076620PHOENIX                 ARIZ  071210070A027A23MWH25MWH12ST80E000000
602AZ007231A8070015416980076620PHOENIX                 ARIZ  071210070B028A72FWH36MWH90MO59 000000
602AZ007231A8070015416980076620PHOENIX                 ARIZ  080123080A001B00FIN00UUU20UN99 000000
602AZ007231A8070015416980076620PHOENIX                 ARIZ  080123080A002A82FWN87MWN12WI60 000000
602AZ007231A8070015416980076620PHOENIX                 ARIZ  080123080A003C17MWH20MBN12AQ99 000001                                                  20MWH12AQ99
602AZ007231A8070015416980076620PHOENIX                 ARIZ  080123080A004C29MWH20MWH12ST99 000001                                                  20MWH12ST99
602AZ007231A8070015416980076620PHOENIX                 ARIZ  080123080A005A22MBN00MBN13ST99 000000
602AZ007231A8070015416980076620PHOENIX                 ARIZ  080123080A006A37FWN40MWN12WI45 000000
602AZ007231A8070015416980076620PHOENIX                 ARIZ  080123080A007A38MWH27MWH20AQ45 000000
602AZ007231A8070015416980076620PHOENIX                 ARIZ  080123080A008B34MWN00UUU30UN99 000000
602AZ007231A8070015416980076620PHOENIX                 ARIZ  080123080A009C25MWH21MWH12ST99 000002                                                  20MWH12ST99 20FWH12ST99
602AZ007231A8070015416980076620PHOENIX                 ARIZ  080123080A010B26MWH00UUU12UN99 000000
602AZ007231A8070015416980076620PHOENIX                 ARIZ  080123080A011A01FWN25MWH40OK60 000000
602AZ007231A8070015416980076620PHOENIX                 ARIZ  080123080A013A58MBN22MBN20AQ45 000000
602AZ007231A8070015416980076620PHOENIX                 ARIZ  080123080A014A49MBN49MWN12ST80C000000
602AZ007231A8070015416980076620PHOENIX                 ARIZ  080123080A015A20MIN22FWN20AQ80C000000
602AZ007231A8070015416980076620PHOENIX                 ARIZ  090222080A001A49MWN43MWN30ST45 000000
602AZ007231A8070015416980076620PHOENIX                 ARIZ  090222080A002B34MWH00UUU12UN99 000000
602AZ007231A8070015416980076620PHOENIX                 ARIZ  090222080A003A38MWH00MWH12ST99 000000
602AZ007231A8070015416980076620PHOENIX                 ARIZ  090222080A004A18MWH19MWH14AQ42 000000
602AZ007231A8070015416980076620PHOENIX                 ARIZ  090222080A005B24MBN00UUU12UN99 000000
602AZ007231A8070015416980076620PHOENIX                 ARIZ  090222080A006A33MWH20MBN12ST45 000000
602AZ007231A8070015416980076620PHOENIX                 ARIZ  090222080A007A33MWN22MWH12ST60 000000
602AZ007231A8070015416980076620PHOENIX                 ARIZ  090222080A008A47FWH40MWN12GF45 000000
602AZ007231A8070015416980076620PHOENIX                 ARIZ  090222080A009B32MWH00UUU12UN99 000000
602AZ007231A8070015416980076620PHOENIX                 ARIZ  090222080A010A42FWH42MWH20GF45 000000
602AZ007231A8070015416980076620PHOENIX                 ARIZ  090222080A011B36MBN00UUU12UN99 000000
602AZ007231A8070015416980076620PHOENIX                 ARIZ  090222080A013A21MWH67MWH12ST80E000000
602AZ007231A8070015416980076620PHOENIX                 ARIZ  090414081A014A30MW 19MW 12AQ60 000000
602AZ007231A8070015416980076620PHOENIX                 ARIZ  090222080A015A21MWN00MWN12ST81A000000
602AZ007231A8070015416980076620PHOENIX                 ARIZ  090222080A016A22MWN00MWN13ST81A000000
602AZ007231A8070015416980076620PHOENIX                 ARIZ  090222080B017A59MWN51MWN13OK53 000000
602AZ007231A8070015416980076620PHOENIX                 ARIZ  100311080A001B47MWH00UUU20UN99 000000
602AZ007231A8070015416980076620PHOENIX                 ARIZ  100311080A002A53MWN45MWN13AQ45 000000
602AZ007231A8070015416980076620PHOENIX                 ARIZ  100311080A003B28MWH00UUU12UN99 000000
602AZ007231A8070015416980076620PHOENIX                 ARIZ  100317081A004A48MW 30MW 12AQ45 000000
602AZ007231A8070015416980076620PHOENIX                 ARIZ  100311080A005C38MWH00MWH12ST99 000001                                                  00MWH12ST99
602AZ007231A8070015416980076620PHOENIX                 ARIZ  100311080A006B24MWH00UUU12UN99 000000
602AZ007231A8070015416980076620PHOENIX                 ARIZ  100311080A007A40MWH40MWH30AQ45 000000
602AZ007231A8070015416980076620PHOENIX                 ARIZ  100311080A008F25MWH00UUU12UN99 00100026FWH
602AZ007231A8070015416980076620PHOENIX                 ARIZ  100311080A009B22MWH00UUU12UN99 000000
602AZ007231A8070015416980076620PHOENIX                 ARIZ  100311080A010B29MBN00UUU12UN99 000000
602AZ007231A8070015416980076620PHOENIX                 ARIZ  100311080A011B21MWH00UUU30UN07 000000
602AZ007231A8070015416980076620PHOENIX                 ARIZ  100311080A012B42FWN00UUU80UN99 000000
602AZ007231A8070015416980076620PHOENIX                 ARIZ  100311080A014B44FWN00UUU80UN99 000000
602AZ007231A8070015416980076620PHOENIX                 ARIZ  100311080A015B29MBN00UUU13UN03 000000
602AZ007231A8070015416980076620PHOENIX                 ARIZ  100311080A016B47MWH00UUU30UN99 000000
602AZ007231A8070015416980076620PHOENIX                 ARIZ  100311080A017B41MWN00UUU12UN99 000000
602AZ007231A8070015416980076620PHOENIX                 ARIZ  100311080A018A44MWN35MWN12ST81A000000
602AZ007231A8070015416980076620PHOENIX                 ARIZ  100311080A019C60MWH34MWH12ST81A000002                                                  31MWH12ST81A31MWN12ST81A
602AZ007231A8070015416980076620PHOENIX                 ARIZ  100311080B020A36MWH28MWH30OF59 000000
602AZ007231A8070015416980076620PHOENIX                 ARIZ  100311080B021A24MWN45MWH12FR53 000000
602AZ007231A8070015416980076620PHOENIX                 ARIZ  100311080B022A34FBN24MWH12ST53 000000
602AZ007231A8070015416980076620PHOENIX                 ARIZ  100311080B023A01MWN22FWN90SO59 000000
602AZ007231A8070015416980076620PHOENIX                 ARIZ  110402080A001B39MWH00UUU20UN99 000000
602AZ007231A8070015416980076620PHOENIX                 ARIZ  110402080A002B22MWH00UUU12UN99 000000
602AZ007231A8070015416980076620PHOENIX                 ARIZ  110402080A003B20MWH00UUU90UN99 000000
602AZ007231A8070015416980076620PHOENIX                 ARIZ  110402080A004B24MWH00UUU20UN45 000000
602AZ007231A8070015416980076620PHOENIX                 ARIZ  110407081A005E20MB 16MB 13ST60 00100126MB                                              16MB 13ST60
602AZ007231A8070015416980076620PHOENIX                 ARIZ  110402080A006A55FWN57MWN20WI45 000000
602AZ007231A8070015416980076620PHOENIX                 ARIZ  110402080A007B30MBN00UUU12UN99 000000
602AZ007231A8070015416980076620PHOENIX                 ARIZ  110402080A008B25MWH00UUU12UN99 000000
602AZ007231A8070015416980076620PHOENIX                 ARIZ  110402080A009A17MBN00MBN12ST99 000000
602AZ007231A8070015416980076620PHOENIX                 ARIZ  110402080A010C30MWH00FWH14ST99 000001                                                  29MWH14ST99
602AZ007231A8070015416980076620PHOENIX                 ARIZ  110402080A011C12FBN25FBN30SD60 000001                                                  34MBN30DA60
602AZ007231A8070015416980076620PHOENIX                 ARIZ  110402080A012F21FBN00UUU12UN99 00100024MBN
602AZ007231A8070015416980076620PHOENIX                 ARIZ  110402080A013A36MBN20MWH12ST99 000000
602AZ007231A8070015416980076620PHOENIX                 ARIZ  110402080A014A25MWH25MBN12AQ44 000000
602AZ007231A8070015416980076620PHOENIX                 ARIZ  110402080A015A21FWH21MWN80GF45 000000
602AZ007231A8070015416980076620PHOENIX                 ARIZ  110402080A016A20MWH17MWH13AQ99 000000
602AZ007231A8070015416980076620PHOENIX                 ARIZ  110402080A017B77MWH00UUU30UN99 000000
602AZ007231A8070015416980076620PHOENIX                 ARIZ  110402080A018A23MWH21MWH13ST80C000000
602AZ007231A8070015416980076620PHOENIX                 ARIZ  110402080A019A27MWN30MWN12AQ80E000000
602AZ007231A8070015416980076620PHOENIX                 ARIZ  110402080B020A23MWH15MWH12FR53 000000
602AZ007231A8070015416980076620PHOENIX                 ARIZ  120402080A001B32FWN00UUU80UN99 000000
602AZ007231A8070015416980076620PHOENIX                 ARIZ  120402080A002B37MBN00UUU20UN99 000000
602AZ007231A8070015416980076620PHOENIX                 ARIZ  120402080A003B30MWH00UUU12UN99 000000
602AZ007231A8070015416980076620PHOENIX                 ARIZ  120402080A004A27MWH26MWH20AQ99 000000
602AZ007231A8070015416980076620PHOENIX                 ARIZ  120402080A005A38MWH28MWH14UN99 000000
602AZ007231A8070015416980076620PHOENIX                 ARIZ  120402080A006B25MBN00UUU12UN99 000000
602AZ007231A8070015416980076620PHOENIX                 ARIZ  120402080A007B59MWH00UUU20AQ99 000000
602AZ007231A8070015416980076620PHOENIX                 ARIZ  120402080A008A30FWN37MWN12WI45 000000
602AZ007231A8070015416980076620PHOENIX                 ARIZ  120402080A009F29MWH00UUU90UN99 00200033MWH48MWH
602AZ007231A8070015416980076620PHOENIX                 ARIZ  120402080A010B29MWH00UUU12UN99 000000
602AZ007231A8070015416980076620PHOENIX                 ARIZ  120402080A011A01FBN34FBN30FR60 000000
602AZ007231A8070015416980076620PHOENIX                 ARIZ  120402080A012B43MWH00UUU12UN99 000000
602AZ007231A8070015416980076620PHOENIX                 ARIZ  120402080A013B55MWN00UUU30UN99 000000
602AZ007231A8070015416980076620PHOENIX                 ARIZ  120402080A014B30MWH00UUU12UN18 000000
602AZ007231A8070015416980076620PHOENIX                 ARIZ  120407081A015A34MB 00MU 11UN99 000000
602AZ007231A8070015416980076620PHOENIX                 ARIZ  120402080A016A20MBN17MBN12AQ45 000000
602AZ007231A8070015416980076620PHOENIX                 ARIZ  120402080A017A18MWH20MAN20ST80C000000
602AZ007231A8070015416980076620PHOENIX                 ARIZ  120402080A018A23MWH20MWH20OF80E000000
602AZ007231A8070015416980076620PHOENIX                 ARIZ  120402080A019A18MWH30MWN20ST80E000000
602AZ007252 8070002352430076620SCOTTSDALE              ARIZ  041023070A001C26MWN29MWN12AQ60 000002                                                  30MWH12ST60 46MWN12OK60
602AZ007252 8070002352430076620SCOTTSDALE              ARIZ  041023070A002ANBFWN28FWN40DA60 000000
602AZ007252 8070002352430076620SCOTTSDALE              ARIZ  051108070A001A43MWN56MWN11OK60 000000
602AZ007252 8070002352430076620SCOTTSDALE              ARIZ  070201081A001C27MW 18MB 12ST03 000004                                                  26MB 12ST03 27MB 12ST03 22MB 12AQ03 21MW 12AQ03
602AZ007252 8070002352430076620SCOTTSDALE              ARIZ  110317080A001A46FWN57MWN12GF45 000000
602AZ007273 8070000989650076620SURPRISE                ARIZ  010808070A001B22MWN00UUU90UN99 000000
602AZ007273 8070000989650076620SURPRISE                ARIZ  010808070A002A18MWH17MWN12FR60 000000
602AZ007273 8070000989650076620SURPRISE                ARIZ  040906070A001C25MWN28MWN12OK45 000001                                                  21FWN12HU45
602AZ007273 8070000989650076620SURPRISE                ARIZ  080123080A001A19MWH27MWH12AQ45 000000
602AZ007273 8070000989650076620SURPRISE                ARIZ  080123080A002C37MWH25MWH12AQ42 000001                                                  31MWH12AQ42
602AZ007273 8070000989650076620SURPRISE                ARIZ  120402080A001ABBFWH29MWH40OK60 000000
602AZ007292 8070001713200076620TEMPE                   ARIZ  010801070A001B30MBN00UUU20UN42 000000
602AZ007292 8070001713200076620TEMPE                   ARIZ  010806071A002A22MW 20MB 30AQ42 000000
602AZ007292 8070001713200076620TEMPE                   ARIZ  020808070A001B23MWN00UUU30UN99 000000
602AZ007292 8070001713200076620TEMPE                   ARIZ  020829070A002D20FW 22MW 12AQ60 00100020FW
602AZ007292 8070001713200076620TEMPE                   ARIZ  030814070A001A51MWH32MWH14FA60 000000
602AZ007292 8070001713200076620TEMPE                   ARIZ  040906070A001A42MWN23MWN40AQ44 000000
602AZ007292 8070001713200076620TEMPE                   ARIZ  051023070A001B34MWH00UUU12UN99 000000
602AZ007292 8070001713200076620TEMPE                   ARIZ  071210070A001B19MBN00UUU12UN45 000000
602AZ007292 8070001713200076620TEMPE                   ARIZ  070317080A002ABBFWH25MWH40DA60 000000
602AZ007316 8070000071210076621TOLLESON                ARIZ  090402080A001B22FWH00UUU40UN99 000000
602AZ008009B8070000663090084191MOHAVE                  ARIZ  031023070A001A55MWN61MWN12OK42 000000
602AZ008009B8070000663090084191MOHAVE                  ARIZ  050311080A001C60MWN17MWN12OK60 000001                                                  14MWN12OK60
602AZ008009B8070000663090084191MOHAVE                  ARIZ  070311080A001A68FWN20FWN13ER45 000000
602AZ008009B8070000663090084191MOHAVE                  ARIZ  100311080A001ABBFWN31MWH40OK60 000000
602AZ008009B8070000663090084191MOHAVE                  ARIZ  120402080A001B28MWN00UUU12UN99 000000
602AZ008009B8070000663090084191MOHAVE                  ARIZ  120402080A002B80FWN00UUU30UN07 000000
602AZ008014 8070000283060084190KINGMAN                 ARIZ  110317080A001A40MWN20MWN12AQ44 000000
602AZ008043 8070000586990084190LAKE HAVASU CITY        ARIZ  030814070B001A22MWH36MWN40AQ59 000000
602AZ008043 8070000586990084190LAKE HAVASU CITY        ARIZ  040906070A001D01FWN22MWN12DA45 00100021FWN
602AZ008043 8070000586990084190LAKE HAVASU CITY        ARIZ  071210070A001A29MWN23MWN12ST42 000000
602AZ008043 8070000586990084190LAKE HAVASU CITY        ARIZ  090222080A001A73MWN57FWN12HU45 000000
602AZ008043 8070000586990084190LAKE HAVASU CITY        ARIZ  100311080A001A37MWN31MWN20FR18 000000
602AZ008054 8070000412090084191BULLHEAD CITY           ARIZ  040311080A001D27FWN43MWN20WI45 00100067FWN
602AZ008054 8070000412090084191BULLHEAD CITY           ARIZ  110317080A001A50MWN40MWN30AQ44 000000
602AZ008054 8070000412090084191BULLHEAD CITY           ARIZ  120402080A001A20MWH21MWH20AQ45 000000
602AZ009008B807000072866009   0NAVAJO                  ARIZ  071210070A001A52MWN42MWN12OK45 000000
602AZ009095 807000010018009   0WINSLOW                 ARIZ  051210070A001C31MWH19MIN30ST42 000003                                                  19FIN30ST42 18MIN30ST42 18MWH30ST42
602AZ009095 807000010018009   0WINSLOW                 ARIZ  090222080A001B44MIN00UUU12UN99 000000
602AZ009095 807000010018009   0WINSLOW                 ARIZ  100311080A001B38MIN00UUU30UN99 000000
602AZ010009A8070003444010109061PIMA                    ARIZ  010801070A001A80FWN62MWN20MO60 000000
602AZ010009A8070003444010109061PIMA                    ARIZ  010801070A002B36MWH00UUU12UN99 000000
602AZ010009A8070003444010109061PIMA                    ARIZ  010801070A003A32MWH22MWH14ST80E000000
602AZ010009A8070003444010109061PIMA                    ARIZ  010801070A004A62MWN35MWN13ST81A000000
602AZ010009A8070003444010109061PIMA                    ARIZ  020808070A001A35FWH39MWN20WI45 000000
602AZ010009A8070003444010109061PIMA                    ARIZ  020924071A002E00FW 00MW 13ST03 00200200MW 00MW                                         00MW 13ST03 00MW 13ST03
602AZ010009A8070003444010109061PIMA                    ARIZ  020808070A003B00MWH00UUU12UN99 000000
602AZ010009A8070003444010109061PIMA                    ARIZ  020808070A004A63FWN29MWN20OF45 000000
602AZ010009A8070003444010109061PIMA                    ARIZ  030814070A001A21MWH00MWH12ST60 000000
602AZ010009A8070003444010109061PIMA                    ARIZ  030814070A002A51FBN60MBN12XW45 000000
602AZ010009A8070003444010109061PIMA                    ARIZ  030815071A003E28FW 21MW 13ST60 00100130MW                                              19MW 13ST60
602AZ010009A8070003444010109061PIMA                    ARIZ  040906070A001A38FBN33MBN14AQ60 000000
602AZ010009A8070003444010109061PIMA                    ARIZ  040919071A002A36MW 00MW 12UN18 000000
602AZ010009A8070003444010109061PIMA                    ARIZ  040919071A003A31MW 00MW 12UN99 000000
602AZ010009A8070003444010109061PIMA                    ARIZ  040906070B004A01MIN22MIN30SO59 000000
602AZ010009A8070003444010109061PIMA                    ARIZ  061108070A001A46MWN41FWN13FR45 000000
602AZ010009A8070003444010109061PIMA                    ARIZ  061108070A002A34MWH44MWN40AQ45 000000
602AZ010009A8070003444010109061PIMA                    ARIZ  061108070A003A24MWH22MBN40AQ42 000000
602AZ010009A8070003444010109061PIMA                    ARIZ  061108070A004A52MWN19MWH40AQ05 000000
602AZ010009A8070003444010109061PIMA                    ARIZ  061108070A005B64FWN00UUU30UN99 000000
602AZ010009A8070003444010109061PIMA                    ARIZ  061108070A006A48MWN45MWN13BR45 000000
602AZ010009A8070003444010109061PIMA                    ARIZ  071210070A001A55MWH35MWN13ST81A000000
602AZ010009A8070003444010109061PIMA                    ARIZ  090222080A001B25MWH00UUU12UN60 000000
602AZ010009A8070003444010109061PIMA                    ARIZ  100311080A001B06FWH00UUU12UN60 000000
602AZ010009A8070003444010109061PIMA                    ARIZ  120402080A001A27MWN33MWN12AQ18 000000
602AZ010009A8070003444010109061PIMA                    ARIZ  120402080A002A35MWH29MWH12AQ45 000000
602AZ010031B8070005232990109060TUCSON                  ARIZ  020808070A001A55MWN19MBN12AQ18 000000
602AZ010031B8070005232990109060TUCSON                  ARIZ  020808070A002B84FWN00UUU30UN99 000000
602AZ010031B8070005232990109060TUCSON                  ARIZ  020808070A003A37MWH20MWH12AQ18 000000
602AZ010031B8070005232990109060TUCSON                  ARIZ  020808070A004A03FWN28MWN40DA60 000000
602AZ010031B8070005232990109060TUCSON                  ARIZ  020808070A005B29MWN00UUU12UN99 000000
602AZ010031B8070005232990109060TUCSON                  ARIZ  030814070A001A20MWN30MWH12AQ45 000000
602AZ010031B8070005232990109060TUCSON                  ARIZ  030814070A002A23MWN20FIN20AQ45 000000
602AZ010031B8070005232990109060TUCSON                  ARIZ  030814070A003B33MWN00UUU12UN99 000000
602AZ010031B8070005232990109060TUCSON                  ARIZ  030814070A004A21MWN47MWN12ST05 000000
602AZ010031B8070005232990109060TUCSON                  ARIZ  030814070A005A30MWH27MWH12AQ45 000000
602AZ010031B8070005232990109060TUCSON                  ARIZ  030814070A006B27FWH00UUU12UN99 000000
602AZ010031B8070005232990109060TUCSON                  ARIZ  040906070A001C21MWH27MWH12AQ44 000001                                                  36MWH12AQ44
602AZ010031B8070005232990109060TUCSON                  ARIZ  040906070A002B23MWH00UUU11UN99 000000
602AZ010031B8070005232990109060TUCSON                  ARIZ  040906070A003B22MWN00UUU12UN99 000000
602AZ010031B8070005232990109060TUCSON                  ARIZ  040906070A004B27MWH00UUU12UN45 000000
602AZ010031B8070005232990109060TUCSON                  ARIZ  040906070A005A33MWN29MBN40ST80E000000
602AZ010031B8070005232990109060TUCSON                  ARIZ  051023070A001A28MWH20MWH12AQ18 000000
602AZ010031B8070005232990109060TUCSON                  ARIZ  051023070A002B26MWN00UUU12UN03 000000
602AZ010031B8070005232990109060TUCSON                  ARIZ  051023070A003A29MWN21MWN20AQ45 000000
602AZ010031B8070005232990109060TUCSON                  ARIZ  051023070A004C48MWH25MWN12ST81A000001                                                  36MWN12ST81A
602AZ010031B8070005232990109060TUCSON                  ARIZ  051023070B005A27MWH22MWH12AQ53 000000
602AZ010031B8070005232990109060TUCSON                  ARIZ  061108070A001B69FIN00UUU30UN99 000000
602AZ010031B8070005232990109060TUCSON                  ARIZ  061108070A002A19MWH25MWN80ST03 000000
602AZ010031B8070005232990109060TUCSON                  ARIZ  061108070A003B49MWH00UUU12UN99 000000
602AZ010031B8070005232990109060TUCSON                  ARIZ  071210070A001A40MWN00MWH12ST45 000000
602AZ010031B8070005232990109060TUCSON                  ARIZ  071210070A002D23FWH28MWH12AQ60 00100025MWH
602AZ010031B8070005232990109060TUCSON                  ARIZ  071210070A003A55MWH21MWH20AQ45 000000
602AZ010031B8070005232990109060TUCSON                  ARIZ  071210070A004A43MWN25FWN12BF45 000000
602AZ010031B8070005232990109060TUCSON                  ARIZ  071210070A005C45MBN18MWH20BF45 000001                                                  48FWH20BF45
602AZ010031B8070005232990109060TUCSON                  ARIZ  071210070A006A01MWH24MWH40SS60 000000
602AZ010031B8070005232990109060TUCSON                  ARIZ  071210070A007B49MWH00UUU40UN99 000000
602AZ010031B8070005232990109060TUCSON                  ARIZ  080123080A001B18MWH00UUU12UN99 000000
602AZ010031B8070005232990109060TUCSON                  ARIZ  080123080A002A19MBN22MWN12ST45 000000
602AZ010031B8070005232990109060TUCSON                  ARIZ  080123080A003A40MWN27MWH30ST60 000000
602AZ010031B8070005232990109060TUCSON                  ARIZ  080123080A004A27MIN25MWN12OK40 000000
602AZ010031B8070005232990109060TUCSON                  ARIZ  090222080A001C29MWN18MWH12ST45 000002                                                  22MWH12ST45 22MWH12ST45
602AZ010031B8070005232990109060TUCSON                  ARIZ  090222080A002A54MWH32MWH20AQ44 000000
602AZ010031B8070005232990109060TUCSON                  ARIZ  090222080B003A14MWN14MWN12BR52 000000
602AZ010031B8070005232990109060TUCSON                  ARIZ  100311080A001C18MWH19MWH12AQ18 000001                                                  23MWH12AQ18
602AZ010031B8070005232990109060TUCSON                  ARIZ  100311080A002A27MWH00MWH13ST99 000000
602AZ010031B8070005232990109060TUCSON                  ARIZ  100311080A003ABBMWN26MWH40OK41 000000
602AZ010031B8070005232990109060TUCSON                  ARIZ  100423081A004B24MI 00UU 12UN45 000000
602AZ010031B8070005232990109060TUCSON                  ARIZ  100311080A005A21MWH24MWH12ST60 000000
602AZ010031B8070005232990109060TUCSON                  ARIZ  110317080A001A25MBN21MBN12ST60 000000
602AZ010031B8070005232990109060TUCSON                  ARIZ  110317080A002B17MWH00UUU12UN99 000000
602AZ010031B8070005232990109060TUCSON                  ARIZ  110317080A003A26MWH21MWH12AQ44 000000
602AZ010031B8070005232990109060TUCSON                  ARIZ  110317080A004A19MWH19MWN12AQ45 000000
602AZ010031B8070005232990109060TUCSON                  ARIZ  110317080A005B38MWH00UUU12UN99 000000
602AZ010031B8070005232990109060TUCSON                  ARIZ  110317080A006A08MWN29FWN70SO60 000000
602AZ010031B8070005232990109060TUCSON                  ARIZ  110317080A007A35MWH24MWN12ST81A000000
602AZ010031B8070005232990109060TUCSON                  ARIZ  120402080A001F27MBN00UUU12UN99 00100026FBN
602AZ010031B8070005232990109060TUCSON                  ARIZ  120402080A002A30MWN19MWH12AQ45 000000
602AZ010031B8070005232990109060TUCSON                  ARIZ  120402080A003A20MWH19MWN12ST80E000000
602AZ011009A8070001772090116621PINAL                   ARIZ  010402080A001B46MIN00UUU13UN99 000000
602AZ011009A8070001772090116621PINAL                   ARIZ  020402080A001A26FWN20MWN20ST99 000000
602AZ011009A8070001772090116621PINAL                   ARIZ  030402080A001C17FWN20MWH70AQ60 000001                                                  44MWN70ST60
602AZ011009A8070001772090116621PINAL                   ARIZ  060402080A001A50MWN54MWN13AQ44 000000
602AZ011009A8070001772090116621PINAL                   ARIZ  060402080A002C17FWN16MWH20AQ60 000001                                                  16MWH20AQ60
602AZ011009A8070001772090116621PINAL                   ARIZ  070402080A001A01FWH21MWH40AQ60 000000
602AZ011009A8070001772090116621PINAL                   ARIZ  070402080A002A54MWH26MWN40ST45 000000
602AZ011009A8070001772090116621PINAL                   ARIZ  080402080A001A32MWN34MBN14AQ44 000000
602AZ011009A8070001772090116621PINAL                   ARIZ  080402080A002C00MWH18MWH12ST03 000001                                                  20MWH12ST03
602AZ011009A8070001772090116621PINAL                   ARIZ  090402080A001A36FWN56MWN13AQ60 000000
602AZ011009A8070001772090116621PINAL                   ARIZ  100402080A001B37MWH00UUU30AQ99 000000
602AZ011014 8070000359510116621CASA GRANDE             ARIZ  010801070A001A33MBN24MBN12AQ18 000000
602AZ011014 8070000359510116621CASA GRANDE             ARIZ  020808070A001A21MWH19MWH12AQ45 000000
602AZ011036 8070000078750116621COOLIDGE                ARIZ  071210070A001A20MBN32MBN13AQ44 000000
602AZ011134 8070000309250116621APACHE JUNCTION         ARIZ  040204090A001C43MW 47MW 14ST99 000002                                                  29FW 14OK99 33MW 14OK99
602AZ011134 8070000309250116621APACHE JUNCTION         ARIZ  070204090A001A22MW 46MW 12AQ99 000000
602AZ011134 8070000309250116621APACHE JUNCTION         ARIZ  110204090A001A24MW 24MW 12AQ60 000000
602AZ011134 8070000309250116621APACHE JUNCTION         ARIZ  120204090A001A42MW 32MW 20AQ45 000000
602AZ013009B8070000878680136881YAVAPAI                 ARIZ  040906070A001B28MWH00UUU12UN99 000000
602AZ013009B8070000878680136881YAVAPAI                 ARIZ  070222080A001B25MWH00UUU12UN99 000000
602AZ013009B8070000878680136881YAVAPAI                 ARIZ  090311080A001A33FWN54MWH30WI40 000000
602AZ013035 8070000114550136881COTTONWOOD              ARIZ  010402080A001A52FWH56MWH20WI45 000000
602AZ013074 8070000426740136880PRESCOTT                ARIZ  010801070A001A40MWN41MWN12AQ40 000000
602AZ013135 8070000107800136881CAMP VERDE              ARIZ  040906070A001A19MWN52MWN12NE44 000000
602AZ014009B8070000660950149921YUMA                    ARIZ  080204090A001A03FW 24MW 40DA99 000000
602AZ014009B8070000660950149921YUMA                    ARIZ  080204090A002F24MW 00UU 11UN99 00200027MW 28FW
602AZ014009B8070000660950149921YUMA                    ARIZ  090204090A001B37MW 00UU 12UN99 000000
602AZ014009B8070000660950149921YUMA                    ARIZ  120204090A001A64MW 46MW 30SF45 000000
602AZ014053 8070000888740149920YUMA                    ARIZ  030814070A001A69FBN71MWN12WI45 000000
602AZ014053 8070000888740149920YUMA                    ARIZ  051029071A001A22MW 21MW 12AQ60 000000
602AZ014053 8070000888740149920YUMA                    ARIZ  060402080A001C32MWN45MWN12AQ45 000001                                                  46MWN12AQ45
602AZ014053 8070000888740149920YUMA                    ARIZ  090222080A001C58MWH00MWH12ST99 000002                                                  19MWN12ST99 18MWN12ST99
602AZ014053 8070000888740149920YUMA                    ARIZ  090222080A002A46FWN36MWN80AQ60 000000
602AZ014053 8070000888740149920YUMA                    ARIZ  110317080A001B43MAN00UUU85UN99 000000
603AR001026 707000009197001   0STUTTGART               ARK   100204090A001A54MB 47FB 11UN45 000000
603AR003008B707000025401003   0BAXTER                  ARK   050204090A001A56MW 45MW 11AQ99 000000
603AR004009B7070000623070042701BENTON                  ARK   070204090A001A66MW 39MW 30FA45 000000
603AR004014 7070000342320042700BENTONVILLE             ARK   090222080B001A30MWH26FWN90ST59 000000
603AR005008C707000022893005   0BOONE                   ARK   110222080A001A47MWU56MWU13AQ99 000000
603AR005008C707000022893005   0BOONE                   ARK   110222080A002A65MWU56MWU13AQ99 000000
603AR006016 707000006182006   0WARREN                  ARK   100204090A001A25FW 37MB 85GF26 000000
603AR009008D707000004323009   0CHICOT                  ARK   010506080A001A42FB 21MB 20AQ03 000000
603AR009016 707000003401009   0DERMOTT                 ARK   050204090A001D00FW 00MW 14UN60 00200013FW 10MW
603AR012008C707000016719012   0CLEBURNE                ARK   020204090A001A34MW 23MW 15SF60 000000
603AR016013 7070000611990163960JONESBORO               ARK   060204090A001A39FW 43MW 14WI45 000000
603AR016013 7070000611990163960JONESBORO               ARK   100204090A001B42MW 00UU 11UN99 000000
603AR016013 7070000611990163960JONESBORO               ARK   120204090A001D51MW 33MW 12UN05 00200052FW 24MW
603AR018009C7070000109890185191CRITTENDEN              ARK   040204090A001A15MB 24MB 11UN99 000000
603AR018009C7070000109890185191CRITTENDEN              ARK   040204090A002A15MB 24MB 11UN99 000000
603AR018009C7070000109890185191CRITTENDEN              ARK   050204090A001A22MB 00FB 50UN45 000000
603AR018009C7070000109890185191CRITTENDEN              ARK   090204090A001D41FW 20MW 65MO99 00300055MW 16MW 17MW
603AR018009C7070000109890185191CRITTENDEN              ARK   090204090A002A34MB 28MB 14AQ99 000000
603AR018009C7070000109890185191CRITTENDEN              ARK   090204090A003A34MB 28MB 14UN99 000000
603AR018014 7070000281370185191WEST MEMPHIS            ARK   020204090A001A64FW 41MW 90IL45 000000
603AR018014 7070000281370185191WEST MEMPHIS            ARK   080204090A001A27MB 31MB 12BR45 000000
603AR018014 7070000281370185191WEST MEMPHIS            ARK   110204090A001A20MB 21MB 12UN99 000000
603AR020016 707000004282020   0FORDYCE                 ARK   020204090A001A51FB 44MB 20AQ45 000000
603AR020016 707000004282020   0FORDYCE                 ARK   030204090A001A50MB 23FB 12BF45 000000
603AR020016 707000004282020   0FORDYCE                 ARK   050204090A001B15MB 00UU 12UN99 000000
603AR022008D707000009238022   0DREW                    ARK   100204090A001A50FW 48MW 12WI45 000000
603AR023013 7070000572450234690CONWAY                  ARK   100222080A001A30MBN32MBN12UN99 000000
603AR026009B7070000574430263561GARLAND                 ARK   040204090A001A57FW 64MW 90UN99 000000
603AR026009B7070000574430263561GARLAND                 ARK   040204090A002A29FW 19MW 30UN99 000000
603AR026009B7070000574430263561GARLAND                 ARK   080204090A001A29MW 41MW 14UN99 000000
603AR026014 7070000388280263560HOT SPRINGS             ARK   010204090A001A26MW 34MW 12AQ45 000000
603AR026014 7070000388280263560HOT SPRINGS             ARK   020204090A001C46MW 35MB 12UN99 000001                                                  25FW 12UN99
603AR026014 7070000388280263560HOT SPRINGS             ARK   050204090A001C20MB 18MB 12AQ99 000001                                                  21FB 12AQ99
603AR026014 7070000388280263560HOT SPRINGS             ARK   050204090A002C15FW 14MW 90AQ60 000001                                                  15MW 90AQ60
603AR026014 7070000388280263560HOT SPRINGS             ARK   060204090A001A46FB 40MB 14WI60 000000
603AR026014 7070000388280263560HOT SPRINGS             ARK   060204090A002A41FB 19MW 90UN99 000000
603AR026014 7070000388280263560HOT SPRINGS             ARK   100204090A001C49MW 44FW 20HU99 000001                                                  45FW 20OK99
603AR029015 707000010467029   0HOPE                    ARK   080204090A001A23MB 22MB 12OK45 000000
603AR032008B707000035032032   0INDEPENDENCE            ARK   070204090A001A49MW 58MW 90UN45 000000
603AR032008B707000035032032   0INDEPENDENCE            ARK   110204090A001C27MW 24MW 12UN99 000001                                                  00MW 12UN99
603AR035009C7070000214240356641JEFFERSON               ARK   030204090A001B20MB 00UU 12UN18 000000
603AR035009C7070000214240356641JEFFERSON               ARK   050204090A001A25FW 44MW 90UN99 000000
603AR035009C7070000214240356641JEFFERSON               ARK   050204090A002B60MW 00UU 90UN99 000000
603AR035013 7070000513040356640PINE BLUFF              ARK   010717070A001A28MB 25FB 12OF45 000000
603AR035013 7070000513040356640PINE BLUFF              ARK   010717070A002A19MB 28MB 12ST03 000000
603AR035013 7070000513040356640PINE BLUFF              ARK   020718070A001C37MBU25FWU20BF45 000001                                                  24MWU20AQ45
603AR035013 7070000513040356640PINE BLUFF              ARK   020716070A002B46FBU00UUU40UN99 000000
603AR035013 7070000513040356640PINE BLUFF              ARK   020813070A003B40MB 00UU 12UN99 000000
603AR035013 7070000513040356640PINE BLUFF              ARK   040716070A001A02FBU19MBU40AQ99 000000
603AR035013 7070000513040356640PINE BLUFF              ARK   050716070A003A19MBU20MBU12OF99 000000
603AR035013 7070000513040356640PINE BLUFF              ARK   060807070A001A21FBU28MBU12ST45 000000
603AR035013 7070000513040356640PINE BLUFF              ARK   070910070A001A01FBU21MBU40AQ41 000000
603AR035013 7070000513040356640PINE BLUFF              ARK   080225081A001A53MB 36MB 13OF45 000000
603AR035013 7070000513040356640PINE BLUFF              ARK   080225081A002A27MB 20MB 12AQ45 000000
603AR035013 7070000513040356640PINE BLUFF              ARK   090222080A001B41MBN00UUU12UN99 000000
603AR035013 7070000513040356640PINE BLUFF              ARK   100222080A002A18FBN20MBN12AQ26 000000
603AR035013 7070000513040356640PINE BLUFF              ARK   120506080A001B32MB 00UU 30UN99 000000
603AR035013 7070000513040356640PINE BLUFF              ARK   120506080A002B17MB 00UU 11UN99 000000
603AR039008D707000006611039   0LEE                     ARK   020204090A001D00MW 00MW 13UN45 00200000FW 00FW
603AR039008D707000006611039   0LEE                     ARK   040204090A001A00MB 00FB 11UN45 000000
603AR039008D707000006611039   0LEE                     ARK   120204090A001A43MW 00MW 11AQ45 000000
603AR043009B7070000261940434691LONOKE                  ARK   050204090A001D35FB 55MB 12WI45 00200009FB 07MB
603AR043009B7070000261940434691LONOKE                  ARK   050204090A002A30FW 29MW 85UN45 000000
603AR043009B7070000261940434691LONOKE                  ARK   060204090A001A43FB 41MB 14WI45 000000
603AR043025 7070000233660434691CABOT                   ARK   090204090A001D39MW 36MW 11FR45 00100000UU
603AR044009C7070000131310442701MADISON                 ARK   120204090A001A62FW 67MW 12WI99 000000
603AR046014 7070000301560468870TEXARKANA               ARK   030716070A001A39MBU35FBU20BF45 000000
603AR046014 7070000301560468870TEXARKANA               ARK   030716070A002A41MBU44MWU12ST45 000000
603AR046014 7070000301560468870TEXARKANA               ARK   090222080A001C33FWN33MWN90UN45 000001                                                  35MWN90UN45
603AR047015 707000016161047   0BLYTHEVILLE             ARK   020204090A001C52MW 51MW 90BR60 000001                                                  41FW 90IL60
603AR047015 707000016161047   0BLYTHEVILLE             ARK   030204090A001A47FB 40MB 20GF45 000000
603AR047015 707000016161047   0BLYTHEVILLE             ARK   040204090A001C24MB 19MB 12UN99 000001                                                  17FB 12AQ99
603AR047015 707000016161047   0BLYTHEVILLE             ARK   070204090A001C42FB 40MB 20UN99 000001                                                  44MB 20UN99
603AR047015 707000016161047   0BLYTHEVILLE             ARK   090204090A001C27MW 30MB 12UN45 000001                                                  26MB 12AQ45
603AR048016 707000003368048   0BRINKLEY                ARK   080204090A001B00MB 00UU 12UN45 000000
603AR050008D707000004763050   0NEVADA                  ARK   080506080A001D31FB 39MB 12OK45 00100036MB
603AR050016 707000004653050   0PRESCOTT                ARK   080222080A001A32FBN45MBN20XW45 000000
603AR052008C707000013632052   0OUACHITA                ARK   050204090A001B51MW 00UU 90UN99 000000
603AR054015 707000012800054   0HELENA-WEST HELENA      ARK   090204090A001F28MB 00UU 12UN46 00100017MB
603AR054015 707000012800054   0HELENA-WEST HELENA      ARK   120204090A001B20MB 00UU 11UN45 000000
603AR058014 707000026319058   0RUSSELLVILLE            ARK   010204090A001C20MW 22MB 12UN45 000002                                                  28FW 12UN45 19MB 12UN45
603AR058106 707000002528058   0POTTSVILLE              ARK   070204090A001A40MW 21MW 12AQ60 000000
603AR060009B7070000545770604691PULASKI                 ARK   030204090A001A34MW 13MB 20OK45 000000
603AR060009B7070000545770604691PULASKI                 ARK   030725070A002A34MWU13MBU20UN45 000000
603AR060009B7070000545770604691PULASKI                 ARK   060204090A001D17MW 54MW 12UN60 00100038MW
603AR060009B7070000545770604691PULASKI                 ARK   060204090A002A38MW 54MW 12UN99 000000
603AR060014 7070000305650604691JACKSONVILLE            ARK   060813071A001A24FW 24MB 40GF45 000000
603AR060014 7070000305650604691JACKSONVILLE            ARK   081010071A001A02MW 26MW 40SS41 000000
603AR060014 7070000305650604691JACKSONVILLE            ARK   081009070A002A19MBU22FBU20BF45 000000
603AR060014 7070000305650604691JACKSONVILLE            ARK   090222080A001A23MBU27MBU12AQ45 000000
603AR060014 7070000305650604691JACKSONVILLE            ARK   090222080A002A18MBU27MBU12AQ45 000000
603AR060022 7070001845940604690LITTLE ROCK             ARK   020718070A001A19FWH24MBU12GF45 000000
603AR060022 7070001845940604690LITTLE ROCK             ARK   020718070A002A32MBU25MBU12AQ45 000000
603AR060022 7070001845940604690LITTLE ROCK             ARK   030725070A001A46MWU19MBU12UN03 000000
603AR060022 7070001845940604690LITTLE ROCK             ARK   030725070A002B25MBU00UUU12UN43 000000
603AR060022 7070001845940604690LITTLE ROCK             ARK   030725070A003A25MBU25MBU14AQ45 000000
