601AL001009A6030001518500370981JEFFERSON               ALA   030416041A001B25MB 00UU 14UN99 000000                                                                                                                                                                          
601AL001009A6030001518500370981JEFFERSON               ALA   080413040A001A69MW 46FW 12FA45 000000                                                                                                                                                                          
601AL001009A6030001518500370981JEFFERSON               ALA   080416041A002B18MB 00UU 12UN99 000000                                                                                                                                                                          
601AL001009A6030001518500370981JEFFERSON               ALA   090416041A001B57FB 00UU 40UN03 000000                                                                                                                                                                          
601AL001022 6030002401760370980BIRMINGHAM              ALA   010416041A001B53FB 00UU 12UN99 000000                                                                                                                                                                          
601AL001022 6030002401760370980BIRMINGHAM              ALA   010416041A002A00FA 00MW 40UN99 000000                                                                                                                                                                          
601AL001022 6030002401760370980BIRMINGHAM              ALA   010416041A003B00MB 00UU 12UN99 000000                                                                                                                                                                          
601AL001022 6030002401760370980BIRMINGHAM              ALA   010416041A004B45MB 00UU 90UN99 000000                                                                                                                                                                          
601AL001022 6030002401760370980BIRMINGHAM              ALA   010416041A005B64MW 00UU 90UN99 000000                                                                                                                                                                          
601AL001022 6030002401760370980BIRMINGHAM              ALA   010416041A006A31MB 31MB 12FR99 000000                                                                                                                                                                          
601AL001022 6030002401760370980BIRMINGHAM              ALA   010416041A007B42FB 00UU 20UN45 000000                                                                                                                                                                          
601AL001022 6030002401760370980BIRMINGHAM              ALA   010416041A008B26MB 00UU 20UN45 000000                                                                                                                                                                          
601AL001022 6030002401760370980BIRMINGHAM              ALA   020416041A001A18MU 18UU 12ST99 000000                                                                                                                                                                          
601AL001022 6030002401760370980BIRMINGHAM              ALA   020416041A002B19MB 00UU 12UN99 000000                                                                                                                                                                          
601AL001022 6030002401760370980BIRMINGHAM              ALA   020416041A003A39MB 00MB 12ST99 000000                                                                                                                                                                          
601AL001022 6030002401760370980BIRMINGHAM              ALA   020416041A004A30FB 38MB 12FR99 000000                                                                                                                                                                          
601AL001022 6030002401760370980BIRMINGHAM              ALA   020416041A005A49MB 00MB 12FR99 000000                                                                                                                                                                          
601AL001022 6030002401760370980BIRMINGHAM              ALA   030416041A001B34MB 00UU 12UN99 000000                                                                                                                                                                          
601AL001022 6030002401760370980BIRMINGHAM              ALA   030416041A002B18MB 00UU 12UN99 000000                                                                                                                                                                          
601AL001022 6030002401760370980BIRMINGHAM              ALA   030416041A003B27MB 00UU 12UN99 000000                                                                                                                                                                          
601AL001022 6030002401760370980BIRMINGHAM              ALA   030416041A004A23MB 00MB 12ST99 000000                                                                                                                                                                          
601AL001022 6030002401760370980BIRMINGHAM              ALA   040416041A001B22MB 00UU 90UN99 000000                                                                                                                                                                          
601AL001022 6030002401760370980BIRMINGHAM              ALA   040416041A002B42MB 00UU 90UN45 000000                                                                                                                                                                          
601AL001022 6030002401760370980BIRMINGHAM              ALA   040416041A003A55MB 20MB 12SF45 000000                                                                                                                                                                          
601AL001022 6030002401760370980BIRMINGHAM              ALA   040416041A004B02FB 00UU 12UN45 000000                                                                                                                                                                          
601AL001022 6030002401760370980BIRMINGHAM              ALA   050416041A001B26MW 00UU 40UN45 000000                                                                                                                                                                          
601AL001022 6030002401760370980BIRMINGHAM              ALA   050416041A002A31MB 00MB 12ST99 000000                                                                                                                                                                          
601AL001022 6030002401760370980BIRMINGHAM              ALA   050416041A003B30MB 00UU 12UN99 000000                                                                                                                                                                          
601AL001022 6030002401760370980BIRMINGHAM              ALA   050416041A004A63FB 23FB 12ST99 000000                                                                                                                                                                          
601AL001022 6030002401760370980BIRMINGHAM              ALA   050416041A005B20FB 00UU 12UN99 000000                                                                                                                                                                          
601AL001022 6030002401760370980BIRMINGHAM              ALA   050416041A006B18FB 00UU 90UN99 000000                                                                                                                                                                          
601AL001022 6030002401760370980BIRMINGHAM              ALA   050416041A007B22MB 00UU 40UN99 000000                                                                                                                                                                          
601AL001022 6030002401760370980BIRMINGHAM              ALA   060416041A001B20MB 00UU 20UN99 000000                                                                                                                                                                          
601AL001022 6030002401760370980BIRMINGHAM              ALA   060416041A002B37MB 00UU 12UN99 000000                                                                                                                                                                          
601AL001022 6030002401760370980BIRMINGHAM              ALA   060416041A003B35MB 00UU 12UN99 000000                                                                                                                                                                          
601AL001022 6030002401760370980BIRMINGHAM              ALA   060416041A004A26MB 26FB 12BF99 000000                                                                                                                                                                          
601AL001022 6030002401760370980BIRMINGHAM              ALA   060416041A005B34MU 00UU 20UN99 000000                                                                                                                                                                          
601AL001022 6030002401760370980BIRMINGHAM              ALA   060416041A006A35MB 53MB 20AQ99 000000                                                                                                                                                                          
601AL001022 6030002401760370980BIRMINGHAM              ALA   070416041A001B31MB 00UU 12UN99 000000                                                                                                                                                                          
601AL001022 6030002401760370980BIRMINGHAM              ALA   070416041A002A00FA 00MW 40UN99 000000                                                                                                                                                                          
601AL001022 6030002401760370980BIRMINGHAM              ALA   070416041A003A40MB 40UU 12ST99 000000                                                                                                                                                                          
601AL001022 6030002401760370980BIRMINGHAM              ALA   070416041A004A31MB 31UU 12ST99 000000                                                                                                                                                                          
601AL001022 6030002401760370980BIRMINGHAM              ALA   070416041A005B07FB 00UU 40UN45 000000                                                                                                                                                                          
601AL001022 6030002401760370980BIRMINGHAM              ALA   070416041A006A24MB 00MB 12AQ99 000000                                                                                                                                                                          
601AL001022 6030002401760370980BIRMINGHAM              ALA   070416041A007B23MB 00UU 12UN99 000000                                                                                                                                                                          
601AL001022 6030002401760370980BIRMINGHAM              ALA   070416041A008B26MB 00UU 12UN99 000000                                                                                                                                                                          
601AL001022 6030002401760370980BIRMINGHAM              ALA   070416041A009A24MB 25MB 12AQ99 000000                                                                                                                                                                          
601AL001022 6030002401760370980BIRMINGHAM              ALA   070416041A010B54MB 00UU 12UN99 000000                                                                                                                                                                          
601AL001022 6030002401760370980BIRMINGHAM              ALA   070416041A011B18MU 00UU 12UN99 000000                                                                                                                                                                          
601AL001022 6030002401760370980BIRMINGHAM              ALA   070416041A012B40MU 00UU 12UN99 000000                                                                                                                                                                          
601AL001022 6030002401760370980BIRMINGHAM              ALA   070416041A013A21MB 21UU 12ST45 000000                                                                                                                                                                          
601AL001022 6030002401760370980BIRMINGHAM              ALA   070416041A014B32MB 00UU 12UN99 000000                                                                                                                                                                          
601AL001022 6030002401760370980BIRMINGHAM              ALA   080416041A001A21MB 23MB 12ST99 000000                                                                                                                                                                          
601AL001022 6030002401760370980BIRMINGHAM              ALA   080416041A002B40FW 00UU 40UN99 000000                                                                                                                                                                          
601AL001022 6030002401760370980BIRMINGHAM              ALA   080416041A003A22MU 22MB 12ST99 000000                                                                                                                                                                          
601AL001022 6030002401760370980BIRMINGHAM              ALA   080416041A004A31MB 28FB 20HU99 000000                                                                                                                                                                          
601AL001022 6030002401760370980BIRMINGHAM              ALA   090416041A001A26MB 26UU 12ST99 000000                                                                                                                                                                          
601AL001022 6030002401760370980BIRMINGHAM              ALA   090416041A002B48MB 00UU 12UN99 000000                                                                                                                                                                          
601AL001022 6030002401760370980BIRMINGHAM              ALA   100416041A001B21MB 00UU 12UN99 000000                                                                                                                                                                          
601AL001022 6030002401760370980BIRMINGHAM              ALA   100416041A002B20MB 00UU 12UN99 000000                                                                                                                                                                          
601AL001022 6030002401760370980BIRMINGHAM              ALA   100416041A003B53MB 00UU 12UN99 000000                                                                                                                                                                          
601AL001022 6030002401760370980BIRMINGHAM              ALA   100416041A004B00MU 00UU 12UN99 000000                                                                                                                                                                          
601AL001022 6030002401760370980BIRMINGHAM              ALA   100416041A005B40FW 00UU 12UN99 000000                                                                                                                                                                          
601AL001022 6030002401760370980BIRMINGHAM              ALA   110416041A001A17MB 20MB 12BR99 000000                                                                                                                                                                          
601AL001022 6030002401760370980BIRMINGHAM              ALA   110416041A002B43FW 00UU 90UN99 000000                                                                                                                                                                          
601AL001022 6030002401760370980BIRMINGHAM              ALA   110416041A003A48FB 41MB 12WI99 000000                                                                                                                                                                          
601AL001022 6030002401760370980BIRMINGHAM              ALA   110416041A004B24MB 00UU 12UN99 000000                                                                                                                                                                          
601AL001022 6030002401760370980BIRMINGHAM              ALA   110416041A005A02MB 29FW 90SO99 000000                                                                                                                                                                          
601AL001022 6030002401760370980BIRMINGHAM              ALA   110416041A006B18MB 00UU 12UN99 000000                                                                                                                                                                          
601AL001022 6030002401760370980BIRMINGHAM              ALA   110416041A007A20MB 20MB 12ST99 000000                                                                                                                                                                          
601AL001022 6030002401760370980BIRMINGHAM              ALA   120416041A001B42MU 00UU 12UN99 000000                                                                                                                                                                          
601AL001022 6030002401760370980BIRMINGHAM              ALA   120416041A002A00FA 00MW 40UN99 000000                                                                                                                                                                          
601AL001022 6030002401760370980BIRMINGHAM              ALA   120416041A003A40MB 51MW 20ST99 000000                                                                                                                                                                          
601AL001022 6030002401760370980BIRMINGHAM              ALA   120416041A004A31MB 00MB 12ST99 000000                                                                                                                                                                          
601AL001022 6030002401760370980BIRMINGHAM              ALA   120416041A005B44MB 00UU 90UN99 000000                                                                                                                                                                          
601AL001022 6030002401760370980BIRMINGHAM              ALA   120416041A006A44MB 42MB 90AQ99 000000                                                                                                                                                                          
601AL001022 6030002401760370980BIRMINGHAM              ALA   120416041A007A27MB 00MB 40ST99 000000                                                                                                                                                                          
601AL001022 6030002401760370980BIRMINGHAM              ALA   120416041A008B20MB 00UU 12UN99 000000                                                                                                                                                                          
601AL001022 6030002401760370980BIRMINGHAM              ALA   120416041A009B24MB 00UU 90UN99 000000                                                                                                                                                                          
601AL001022 6030002401760370980BIRMINGHAM              ALA   120416041A010A28MB 00MB 12ST44 000000                                                                                                                                                                          
601AL001022 6030002401760370980BIRMINGHAM              ALA   120416041A011A12MB 12UU 12ST99 000000                                                                                                                                                                          
601AL001022 6030002401760370980BIRMINGHAM              ALA   120416041A012A44FB 00MB 12MO99 000000                                                                                                                                                                          
601AL001022 6030002401760370980BIRMINGHAM              ALA   120416041A013A47MB 30MB 12ST99 000000                                                                                                                                                                          
601AL001022 6030002401760370980BIRMINGHAM              ALA   120416041A014B25MB 00UU 12UN99 000000                                                                                                                                                                          
601AL001022 6030002401760370980BIRMINGHAM              ALA   120416041A015B31MB 00UU 12UN99 000000                                                                                                                                                                          
601AL001022 6030002401760370980BIRMINGHAM              ALA   120416041A016B29MB 00UU 12UN99 000000                                                                                                                                                                          
601AL001022 6030002401760370980BIRMINGHAM              ALA   120416041A017B22MU 00UU 12UN45 000000                                                                                                                                                                          
601AL001022 6030002401760370980BIRMINGHAM              ALA   120416041A018B27MB 00UU 12UN45 000000                                                                                                                                                                          
601AL001022 6030002401760370980BIRMINGHAM              ALA   120416041A019B18MB 00UU 12UN99 000000                                                                                                                                                                          
601AL001045 6030000121060370981FAIRFIELD               ALA   030414041A001B47MB 00UU 14UN99 000000                                                                                                                                                                          
601AL001045 6030000121060370981FAIRFIELD               ALA   030413040A002A37MB 35FB 20CH45 000000                                                                                                                                                                          
601AL001045 6030000121060370981FAIRFIELD               ALA   040413040A001A19MB 00MB 12ST99 000000                                                                                                                                                                          
601AL001045 6030000121060370981FAIRFIELD               ALA   060414041A001B24FB 00UU 12UN99 000000                                                                                                                                                                          
601AL001045 6030000121060370981FAIRFIELD               ALA   110414041A001B29MB 00UU 12UN99 000000                                                                                                                                                                          
601AL001055 6030000120430370981GARDENDALE              ALA   030413040A001A20FB 29MB 12AQ02 000000                                                                                                                                                                          
601AL001065 6030000108260370981LEEDS                   ALA   020413040A001A53MB 39MB 12AQ99 000000                                                                                                                                                                          
601AL001065 6030000108260370981LEEDS                   ALA   030413040A001A35MB 21MB 12AQ45 000000                                                                                                                                                                          
601AL001195 6030000154620370981HUEYTOWN                ALA   050414041A001B18MW 00UU 40UN99 000000                                                                                                                                                                          
601AL001195 6030000154620370981HUEYTOWN                ALA   100413040A001A22MB 17MB 12AQ99 000000                                                                                                                                                                          
601AL002009B6030000865350495471MOBILE                  ALA   020316040A001A74MW 79FW 12HU45 000000                                                                                                                                                                          
601AL002009B6030000865350495471MOBILE                  ALA   030316040A001A29MW 23MW 14OK99 000000                                                                                                                                                                          
601AL002009B6030000865350495471MOBILE                  ALA   060317040A001A52MW 52MW 12UN18 000000                                                                                                                                                                          
601AL002009B6030000865350495471MOBILE                  ALA   100317040A001A31FA 00MW 75XW45 000000                                                                                                                                                                          
601AL002011C6030002513450495470MOBILE                  ALA   010413040A001A22MW 19MB 90ST99 000000                                                                                                                                                                          
601AL002011C6030002513450495470MOBILE                  ALA   010416041A002B00MU 00UU 12UN99 000000                                                                                                                                                                          
601AL002011C6030002513450495470MOBILE                  ALA   010416041A003B00MU 00UU 12UN99 000000                                                                                                                                                                          
601AL002011C6030002513450495470MOBILE                  ALA   010413040A004A00MU 18MB 12UN99 000000                                                                                                                                                                          
601AL002011C6030002513450495470MOBILE                  ALA   020416041A001B29MA 00UU 12UN99 000000                                                                                                                                                                          
601AL002011C6030002513450495470MOBILE                  ALA   020413040A002A00FW 22MW 90UN99 000000                                                                                                                                                                          
601AL002011C6030002513450495470MOBILE                  ALA   020416041A003B00FU 00UU 12UN99 000000                                                                                                                                                                          
601AL002011C6030002513450495470MOBILE                  ALA   030416041A001B46MB 00UU 12UN99 000000                                                                                                                                                                          
601AL002011C6030002513450495470MOBILE                  ALA   050413040A001A76FB 24MB 90UN99 000000                                                                                                                                                                          
601AL002011C6030002513450495470MOBILE                  ALA   060416041A001B00FU 00UU 90UN99 000000                                                                                                                                                                          
601AL002011C6030002513450495470MOBILE                  ALA   070413040A001A31MB 19MB 12UN99 000000                                                                                                                                                                          
601AL002011C6030002513450495470MOBILE                  ALA   070416041A002B01MB 00UU 40UN99 000000                                                                                                                                                                          
601AL002011C6030002513450495470MOBILE                  ALA   070413040A003A00MU 38MW 12UN99 000000                                                                                                                                                                          
601AL002011C6030002513450495470MOBILE                  ALA   070416041A004B23MB 00UU 12UN99 000000                                                                                                                                                                          
601AL002011C6030002513450495470MOBILE                  ALA   080413040A001A42FW 41MW 90GF99 000000                                                                                                                                                                          
601AL002011C6030002513450495470MOBILE                  ALA   080413040A002A38MB 40MB 12UN99 000000                                                                                                                                                                          
601AL002011C6030002513450495470MOBILE                  ALA   090416041A001B34MB 00UU 12UN99 000000                                                                                                                                                                          
601AL002011C6030002513450495470MOBILE                  ALA   090416041A002B22FB 00UU 90UN99 000000                                                                                                                                                                          
601AL002011C6030002513450495470MOBILE                  ALA   090413040A003A44MB 43MB 90UN99 000000                                                                                                                                                                          
601AL002011C6030002513450495470MOBILE                  ALA   100413040A001A74FB 46MB 90UN99 000000                                                                                                                                                                          
601AL002011C6030002513450495470MOBILE                  ALA   110413040A001A22MB 20MB 12AQ99 000000                                                                                                                                                                          
601AL002011C6030002513450495470MOBILE                  ALA   120416041A001B00MU 00UU 12UN99 000000                                                                                                                                                                          
601AL002011C6030002513450495470MOBILE                  ALA   120413040A002A20MB 17MB 12ST99 000000                                                                                                                                                                          
601AL002011C6030002513450495470MOBILE                  ALA   120416041A003B43MW 00UU 90UN99 000000                                                                                                                                                                          
601AL002024 6030000282900495471PRICHARD                ALA   020414041A001B42MW 00UU 12UN99 000000                                                                                                                                                                          
601AL002024 6030000282900495471PRICHARD                ALA   070414041A001B24MB 00UU 12UN99 000000                                                                                                                                                                          
601AL002024 6030000282900495471PRICHARD                ALA   070413040A002A19FB 26MB 12ST99 000000                                                                                                                                                                          
601AL002024 6030000282900495471PRICHARD                ALA   070413040A003A18MB 26MB 12ST99 000000                                                                                                                                                                          
601AL002024 6030000282900495471PRICHARD                ALA   080414041A001B31MB 00UU 12UN99 000000                                                                                                                                                                          
601AL002024 6030000282900495471PRICHARD                ALA   120413040A001A70FB 74MB 12UN99 000000                                                                                                                                                                          
601AL003009C6030000219910515561MONTGOMERY              ALA   080414041A001B00MB 00UU 12UN99 000000                                                                                                                                                                          
601AL003009C6030000219910515561MONTGOMERY              ALA   100413040A001A00MW 27MW 90AQ99 000000                                                                                                                                                                          
601AL003009C6030000219910515561MONTGOMERY              ALA   120413040A001A00MB 24MB 12AQ99 000000                                                                                                                                                                          
601AL003012 6030002020640515560MONTGOMERY              ALA   020413040A001A27MB 31MB 20UN99 000000                                                                                                                                                                          
601AL003012 6030002020640515560MONTGOMERY              ALA   040413040A001A31MB 27MB 14UN99 000000                                                                                                                                                                          
601AL003012 6030002020640515560MONTGOMERY              ALA   040413040A002A21MB 23MB 12UN99 000000                                                                                                                                                                          
601AL003012 6030002020640515560MONTGOMERY              ALA   050413040A001A21MB 24MB 12UN99 000000                                                                                                                                                                          
601AL003012 6030002020640515560MONTGOMERY              ALA   050413040A002A35FB 57MB 14WI99 000000                                                                                                                                                                          
601AL003012 6030002020640515560MONTGOMERY              ALA   060413040A001A25MB 36MB 12UN99 000000                                                                                                                                                                          
601AL003012 6030002020640515560MONTGOMERY              ALA   060413040A002A26MB 22FB 20BF99 000000                                                                                                                                                                          
601AL003012 6030002020640515560MONTGOMERY              ALA   060416041A003B29FB 00UU 12UN99 000000                                                                                                                                                                          
601AL003012 6030002020640515560MONTGOMERY              ALA   070413040A001A43MB 38FB 20BF99 000000                                                                                                                                                                          
601AL003012 6030002020640515560MONTGOMERY              ALA   080413040A001A31MB 21MB 12UN99 000000                                                                                                                                                                          
601AL003012 6030002020640515560MONTGOMERY              ALA   080413040A002A19MW 19MW 12AQ99 000000                                                                                                                                                                          
601AL003012 6030002020640515560MONTGOMERY              ALA   080413040A003A43MB 37FB 12BF99 000000                                                                                                                                                                          
601AL003012 6030002020640515560MONTGOMERY              ALA   080416041A004B32FB 00UU 12UN99 000000                                                                                                                                                                          
601AL003012 6030002020640515560MONTGOMERY              ALA   090413040A001A24FB 19FB 20AQ99 000000                                                                                                                                                                          
601AL003012 6030002020640515560MONTGOMERY              ALA   090413040A002A26MB 22MB 12UN99 000000                                                                                                                                                                          
601AL003012 6030002020640515560MONTGOMERY              ALA   090413040A003A17MB 21MB 12UN99 000000                                                                                                                                                                          
601AL003012 6030002020640515560MONTGOMERY              ALA   120416041A001B35MB 00UU 12UN99 000000                                                                                                                                                                          
601AL003012 6030002020640515560MONTGOMERY              ALA   120413040A002A21MW 23MW 12UN99 000000                                                                                                                                                                          
601AL004009C6030000200160015561AUTAUGA                 ALA   070413040A001A23MB 47FB 12AQ45 000000                                                                                                                                                                          
601AL004009C6030000200160015561AUTAUGA                 ALA   090413040A001A47MW 45MW 40UN99 000000                                                                                                                                                                          
601AL004014 6030000259490015561PRATTVILLE              ALA   060413040A001A20MW 54MW 12SS45 000000                                                                                                                                                                          
601AL005016 603000007833002   0BAY MINETTE             ALA   060413040A001A27MB 34MB 12FR60 000000                                                                                                                                                                          
601AL006015 603000013812003   0EUFAULA                 ALA   050414041A001B62FW 00UU 12UN99 000000                                                                                                                                                                          
601AL008009B6030000429630050981BLOUNT                  ALA   100413040A001A33MW 34MW 12AQ45 000000                                                                                                                                                                          
601AL010016 603000007154007   0GREENVILLE              ALA   080413040A001A28MB 30MB 12AQ45 000000                                                                                                                                                                          
601AL011009B6030000581270080421CALHOUN                 ALA   070413040A001A48FW 41MW 12GF45 000000                                                                                                                                                                          
601AL011015 6030000238680080420ANNISTON                ALA   010413040A001A37MB 23MW 12UN80C000000                                                                                                                                                                          
601AL011015 6030000238680080420ANNISTON                ALA   050413040A001A26MB 31MB 12AQ18 000000                                                                                                                                                                          
601AL011015 6030000238680080420ANNISTON                ALA   080414041A001B39MB 00UU 12UN99 000000                                                                                                                                                                          
601AL011055 6030000152600080420OXFORD                  ALA   100413040A001A43MB 00MB 12UN99 000000                                                                                                                                                                          
601AL014009B6030000275930110981CHILTON                 ALA   020413040A001A70MW 46MW 90FA99 000000                                                                                                                                                                          
601AL014009B6030000275930110981CHILTON                 ALA   020413040A002A23MB 24MW 14AQ18 000000                                                                                                                                                                          
601AL014009B6030000275930110981CHILTON                 ALA   110413040A001A29MW 54MW 90BF45 000000                                                                                                                                                                          
601AL016008C603000015954013   0CLARKE                  ALA   080413040A001A38MB 29MB 14UN45 000000                                                                                                                                                                          
601AL016026 603000004611013   0THOMASVILLE             ALA   080413040A001A21MB 23MB 12AQ45 000000                                                                                                                                                                          
601AL018008C603000011031015   0CLEBURNE                ALA   100414041A001B30MW 00UU 12UN45 000000                                                                                                                                                                          
601AL019025 603000021438016   0ENTERPRISE              ALA   020414041A001B46FB 00UU 12UN99 000000                                                                                                                                                                          
601AL019025 603000021438016   0ENTERPRISE              ALA   020414041A002B40FB 00UU 12UN99 000000                                                                                                                                                                          
601AL020009C6030000223050172771COLBERT                 ALA   100413040A001A54MW 17MW 14FA99 000000                                                                                                                                                                          
601AL020009C6030000223050172771COLBERT                 ALA   100413040A002A55FW 17MW 14MO99 000000                                                                                                                                                                          
601AL020016 6030000094430172771SHEFFIELD               ALA   030413040A001A66FW 23MW 40OF99 000000                                                                                                                                                                          
601AL022008C603000010341019   0COOSA                   ALA   080414041A001B02FB 00UU 40UN41 000000                                                                                                                                                                          
601AL025008B603000061133022   0CULLMAN                 ALA   020413040A001A52FW 00MW 14UN44 000000                                                                                                                                                                          
601AL025008B603000061133022   0CULLMAN                 ALA   110414041A001B75MW 00UU 12UN99 000000                                                                                                                                                                          
601AL027008B603000025744024   0DALLAS                  ALA   080413040A001A74FB 52MB 90MO99 000000                                                                                                                                                                          
601AL027015 603000020054024   0SELMA                   ALA   020413040A001A00FU 26MB 12ST45 000000                                                                                                                                                                          
601AL027015 603000020054024   0SELMA                   ALA   060413040A001A00MB 41MW 12AQ45 000000                                                                                                                                                                          
601AL027015 603000020054024   0SELMA                   ALA   060413040A002A30MB 42MB 40ST81D000000                                                                                                                                                                          
601AL027015 603000020054024   0SELMA                   ALA   070413040A001A27MB 26MB 12AQ45 000000                                                                                                                                                                          
601AL027015 603000020054024   0SELMA                   ALA   080413040A001A00MU 20MB 12ST45 000000                                                                                                                                                                          
601AL027015 603000020054024   0SELMA                   ALA   090413040A001A29MB 30MB 12ST03 000000                                                                                                                                                                          
601AL027015 603000020054024   0SELMA                   ALA   100413040A001A36MB 00MB 12ST40 000000                                                                                                                                                                          
601AL027015 603000020054024   0SELMA                   ALA   110413040A001A20MB 21MB 12AQ99 000000                                                                                                                                                                          
601AL029009B6030000442860265561ELMORE                  ALA   070414041A001B45MW 00UU 12UN99 000000                                                                                                                                                                          
601AL029065 6030000115010265561MILLBROOK               ALA   040413040A001A81MW 55MB 40EE03 000000                                                                                                                                                                          
601AL030016 603000007581027   0ATMORE                  ALA   090413040A001A37MB 31FW 14BF45 000000                                                                                                                                                                          
601AL030026 603000005401027   0BREWTON                 ALA   030413040A001A25MB 30MB 12UN45 000000                                                                                                                                                                          
601AL030026 603000005401027   0BREWTON                 ALA   060413040A001A28MB 21FB 12HU45 000000                                                                                                                                                                          
601AL031009B6030000313300283031ETOWAH                  ALA   030413040A001A55MW 39MW 90AQ45 000000                                                                                                                                                                          
601AL031009B6030000313300283031ETOWAH                  ALA   040429041A001A61MW 41MW 12UN26 000000                                                                                                                                                                          
601AL031024 6030000380870283030GADSDEN                 ALA   020429041A001A01MW 25MW 40AQ99 000000                                                                                                                                                                          
601AL031024 6030000380870283030GADSDEN                 ALA   030429041A001A55MB 48MB 12FR60 000000                                                                                                                                                                          
601AL031024 6030000380870283030GADSDEN                 ALA   050429041A001F08FW 00UU 20UN99 00200031FW 38MW                                                                                                                                                                 
601AL031024 6030000380870283030GADSDEN                 ALA   080429041A001A00FW 00FW 40DA60 000000                                                                                                                                                                          
601AL032016 603000004798029   0FAYETTE                 ALA   060413040A001A43FW 55MW 12GF45 000000                                                                                                                                                                          
601AL033008C603000017491030   0FRANKLIN                ALA   080413040A001A47MW 47MW 12AQ60 000000                                                                                                                                                                          
601AL033016 603000008834030   0RUSSELLVILLE            ALA   080413040A001A40FW 45MW 12GF99 000000                                                                                                                                                                          
601AL034009C6030000147700312271GENEVA                  ALA   060413040A001A01FW 31MW 40UN99 000000                                                                                                                                                                          
601AL034009C6030000147700312271GENEVA                  ALA   110413040A001A41MW 58MW 14FR99 000000                                                                                                                                                                          
601AL035017 6030000018820329151EUTAW                   ALA   050413040A001A22MB 21MB 12AQ99 000000                                                                                                                                                                          
601AL037009D6030000093130342271HENRY                   ALA   010414041A001B55MW 00UU 14UN99 000000                                                                                                                                                                          
601AL037009D6030000093130342271HENRY                   ALA   020413040A001A36MW 43MW 12NE40 000000                                                                                                                                                                          
601AL037009D6030000093130342271HENRY                   ALA   090413040A001A33MW 28MW 12FR99 000000                                                                                                                                                                          
601AL038009B6030000250920352271HOUSTON                 ALA   020413040A001A59FW 67MW 12WI99 000000                                                                                                                                                                          
601AL038013 6030000591850352270DOTHAN                  ALA   020413040A001A19MB 25MB 14UN99 000000                                                                                                                                                                          
601AL038013 6030000591850352270DOTHAN                  ALA   020413040A002A22MW 45MB 14UN99 000000                                                                                                                                                                          
601AL038013 6030000591850352270DOTHAN                  ALA   030413040A001A37MB 41MB 90AQ99 000000                                                                                                                                                                          
601AL038013 6030000591850352270DOTHAN                  ALA   050413040A001A40FW 33MW 40UN99 000000                                                                                                                                                                          
601AL039008B603000032435036   0JACKSON                 ALA   040414041A001B56MW 00UU 12UN99 000000                                                                                                                                                                          
601AL039008B603000032435036   0JACKSON                 ALA   100413040A001A27FW 37FW 40FR45 000000                                                                                                                                                                          
601AL039015 603000014858036   0SCOTTSBORO              ALA   030413040A001A30MW 29MB 12UN99 000000                                                                                                                                                                          
601AL041009B6030000479810392771LAUDERDALE              ALA   060413040A001A47MW 37MW 14AQ99 000000                                                                                                                                                                          
601AL041009B6030000479810392771LAUDERDALE              ALA   110413040A001A47MW 48MW 20AQ45 000000                                                                                                                                                                          
601AL042009B6030000289250402101LAWRENCE                ALA   020413040A001A43FB 58MB 12GF45 000000                                                                                                                                                                          
601AL043009B6030000471340410571LEE                     ALA   090414041A001B38FB 00UU 12UN45 000000                                                                                                                                                                          
601AL043014 6030000455330410570AUBURN                  ALA   090414041A001B21MB 00UU 12UN99 000000                                                                                                                                                                          
601AL043025 6030000236710410570OPELIKA                 ALA   030413040A001A20MB 47MB 12UN45 000000                                                                                                                                                                          
601AL043025 6030000236710410570OPELIKA                 ALA   040413040A001A53MB 21MB 12UN45 000000                                                                                                                                                                          
601AL043025 6030000236710410570OPELIKA                 ALA   060413040A001A33FB 45MB 12UN45 000000                                                                                                                                                                          
601AL043025 6030000236710410570OPELIKA                 ALA   110413040A001A48FW 16MB 12AQ44 000000                                                                                                                                                                          
601AL043025 6030000236710410570OPELIKA                 ALA   110413040A002A16MB 16MB 12AQ44 000000                                                                                                                                                                          
601AL044009B6030000465390423681LIMESTONE               ALA   110413040A001A21MW 35MW 12UN26 000000                                                                                                                                                                          
601AL045009C6030000112550435561LOWNDES                 ALA   030414041A001B34MB 00UU 12UN99 000000                                                                                                                                                                          
601AL045009C6030000112550435561LOWNDES                 ALA   070413040A001A65MB 33MB 90AQ99 000000                                                                                                                                                                          
601AL045009C6030000112550435561LOWNDES                 ALA   080413040A001A20MB 18MB 12AQ99 000000                                                                                                                                                                          
601AL046008C603000010779044   0MACON                   ALA   020413040A001A49MW 37FW 20AQ99 000000                                                                                                                                                                          
601AL046015 603000011874044   0TUSKEGEE                ALA   050413040A001A20MB 00MB 12AQ45 000000                                                                                                                                                                          
601AL047009B6030000867390453681MADISON                 ALA   120413040A001A41MB 00MW 12UN99 000000                                                                                                                                                                          
601AL047012 6030001630520453680HUNTSVILLE              ALA   020413040A001A39MW 53MW 20FR99 000000                                                                                                                                                                          
601AL047012 6030001630520453680HUNTSVILLE              ALA   020413040A002A61MW 23MB 12UN45 000000                                                                                                                                                                          
601AL047012 6030001630520453680HUNTSVILLE              ALA   020413040A003A22MW 23MB 12UN45 000000                                                                                                                                                                          
601AL047012 6030001630520453680HUNTSVILLE              ALA   020413040A004A47MB 23MB 12UN45 000000                                                                                                                                                                          
601AL047012 6030001630520453680HUNTSVILLE              ALA   020413040A005A55MW 23MB 12UN45 000000                                                                                                                                                                          
601AL047012 6030001630520453680HUNTSVILLE              ALA   030413040A001A22MB 28MB 12UN45 000000                                                                                                                                                                          
601AL047012 6030001630520453680HUNTSVILLE              ALA   040413040A001A23MB 20MW 20AQ99 000000                                                                                                                                                                          
601AL047012 6030001630520453680HUNTSVILLE              ALA   050413040A001A17MB 16MB 12UN99 000000                                                                                                                                                                          
601AL047012 6030001630520453680HUNTSVILLE              ALA   050416041A002B24MB 00UU 14UN99 000000                                                                                                                                                                          
601AL047012 6030001630520453680HUNTSVILLE              ALA   050416041A003B49MB 00UU 12UN99 000000                                                                                                                                                                          
601AL047012 6030001630520453680HUNTSVILLE              ALA   060416041A001A20MB 15MB 90FR45 000000                                                                                                                                                                          
601AL047012 6030001630520453680HUNTSVILLE              ALA   060413040A002A39MW 16MB 12UN99 000000                                                                                                                                                                          
601AL047012 6030001630520453680HUNTSVILLE              ALA   060416041A003B24MB 00UU 12UN99 000000                                                                                                                                                                          
601AL047012 6030001630520453680HUNTSVILLE              ALA   070413040A001A37MW 35MB 12EE60 000000                                                                                                                                                                          
601AL047012 6030001630520453680HUNTSVILLE              ALA   080413040A001A29MB 41MW 12SS45 000000                                                                                                                                                                          
601AL047012 6030001630520453680HUNTSVILLE              ALA   080416041A002B58MW 00UU 90UN99 000000                                                                                                                                                                          
601AL047012 6030001630520453680HUNTSVILLE              ALA   090416041A001B23MB 00UU 12UN99 000000                                                                                                                                                                          
601AL047012 6030001630520453680HUNTSVILLE              ALA   110413040A001A58FA 28MA 40MO45 000000                                                                                                                                                                          
601AL047012 6030001630520453680HUNTSVILLE              ALA   110413040A002A38FW 32MW 12GF45 000000                                                                                                                                                                          
601AL047024 6030000324380453681MADISON                 ALA   020413040A001A21MW 00MW 20AQ45 000000                                                                                                                                                                          
601AL048008C603000012169046   0MARENGO                 ALA   070413040A001A21MW 30MB 14UN45 000000                                                                                                                                                                          
601AL048008C603000012169046   0MARENGO                 ALA   080413040A001A52FB 21MB 12UN26 000000                                                                                                                                                                          
601AL048016 603000007459046   0DEMOPOLIS               ALA   010413040A001A25MB 48MB 20AQ40 000000                                                                                                                                                                          
601AL049077 603000001025047   0BEAR CREEK              ALA   100414041A001B33MW 00UU 12UN99 000000                                                                                                                                                                          
601AL050008B603000043703048   0MARSHALL                ALA   080413040A001A48MW 18MW 12UN99 000000                                                                                                                                                                          
601AL050015 603000017658048   0ALBERTVILLE             ALA   040414041A001B28MW 00UU 12UN99 000000                                                                                                                                                                          
601AL052013 6030000541120522100DECATUR                 ALA   010426041A001A26MW 26FW 12BF99 000000                                                                                                                                                                          
601AL052013 6030000541120522100DECATUR                 ALA   040426041A001A46FW 59MW 12WI99 000000                                                                                                                                                                          
601AL052013 6030000541120522100DECATUR                 ALA   090413040A001A50MW 35FW 12AQ99 000000                                                                                                                                                                          
601AL052013 6030000541120522100DECATUR                 ALA   100426041A001A28MB 35FB 40XH45 000000                                                                                                                                                                          
601AL054008C603000014099054   0PICKENS                 ALA   060413040A001A45FW 47MW 12OF45 000000                                                                                                                                                                          
601AL055015 603000013877055   0TROY                    ALA   100413040A001A00MB 29MB 20AQ99 000000                                                                                                                                                                          
601AL056016 603000006587056   0ROANOKE                 ALA   010414041A001B40MB 00UU 90UN99 000000                                                                                                                                                                          
601AL056016 603000006587056   0ROANOKE                 ALA   020413040A001A18MW 23MW 20OF45 000000                                                                                                                                                                          
601AL057014 6030000285930571841PHENIX CITY             ALA   050413040A001A45MW 33FB 12UN03 000000                                                                                                                                                                          
601AL057014 6030000285930571841PHENIX CITY             ALA   110413040A001A68MB 37MB 12IL45 000000                                                                                                                                                                          
601AL058009B6030000355130580981ST. CLAIR               ALA   080413040A001A60MW 40MW 14AQ45 000000                                                                                                                                                                          
601AL059009B6030000708060590981SHELBY                  ALA   020413040A001A59MW 27MW 12UN99 000000                                                                                                                                                                          
601AL059026 6030000034570590981COLUMBIANA              ALA   070414041A001B80FB 00UU 40UN44 000000                                                                                                                                                                          
601AL059065 6030000165730590981PELHAM                  ALA   050413040A001A69FW 25MW 20UN99 000000                                                                                                                                                                          
601AL060016 603000002737060   0YORK                    ALA   050414041A001B48FB 00UU 90UN99 000000                                                                                                                                                                          
601AL060026 603000003200060   0LIVINGSTON              ALA   030413040A001A17MB 17MB 20AQ99 000000                                                                                                                                                                          
601AL061015 603000012685061   0SYLACAUGA               ALA   100413040A001A19MB 20MB 12UN99 000000                                                                                                                                                                          
601AL061036 603000005053061   0CHILDERSBURG            ALA   010413040A001A36FW 36MW 12XW45 000000                                                                                                                                                                          
601AL062037 603000001237062   0CAMP HILL               ALA   030413040A001A30MB 20MB 12AQ99 000000                                                                                                                                                                          
601AL063013 6030000794000639150TUSCALOOSA              ALA   020413040A001A18MB 25MB 12ST45 000000                                                                                                                                                                          
601AL063013 6030000794000639150TUSCALOOSA              ALA   040413040A001A32MW 21MB 20AQ99 000000                                                                                                                                                                          
601AL063013 6030000794000639150TUSCALOOSA              ALA   050413040A001A27MB 18MB 12AQ45 000000                                                                                                                                                                          
601AL063013 6030000794000639150TUSCALOOSA              ALA   070413040A001A46FB 50MB 20GF45 000000                                                                                                                                                                          
601AL063013 6030000794000639150TUSCALOOSA              ALA   070413040A002A35MW 25MB 12ST03 000000                                                                                                                                                                          
601AL063013 6030000794000639150TUSCALOOSA              ALA   090413040A001A75MW 23MB 40ST05 000000                                                                                                                                                                          
601AL063013 6030000794000639150TUSCALOOSA              ALA   110414041A001B23MW 00UU 12UN80C000000                                                                                                                                                                          
601AL063013 6030000794000639150TUSCALOOSA              ALA   110414041A002B23FW 00UU 12UN99 000000                                                                                                                                                                          
601AL063025 6030000198540639151NORTHPORT               ALA   030413040A001A20FW 37FW 90ST99 000000                                                                                                                                                                          
601AL064015 6030000139680640981JASPER                  ALA   010413040A001A21MW 18MW 90AQ40 000000                                                                                                                                                                          
601AL064056 6030000026420640981SUMITON                 ALA   060414041A001B33MW 00UU 20UN99 000000                                                                                                                                                                          
601AL065008C603000015949065   0WASHINGTON              ALA   030414041A001B51FW 00UU 14UN45 000000                                                                                                                                                                          
601AL066008C603000010017066   0WILCOX                  ALA   090413040A001A55MB 00MB 14SF99 000000                                                                                                                                                                          
601AL067008C603000019982067   0WINSTON                 ALA   120413040A001A22FW 00MW 14AQ40 000000                                                                                                                                                                          
602AZ001008B803000059895001   0APACHE                  ARIZ  020813030A001A60MWN45MWN14AQ60 000000                                                                                                                                                                          
602AZ002008B803000048311002   0COCHISE                 ARIZ  041118030A001A35FWN31MWN12AQ60 000000                                                                                                                                                                          
602AZ002008B803000048311002   0COCHISE                 ARIZ  110331040A001A19FWN33MWH40ST99 000000                                                                                                                                                                          
602AZ002008B803000048311002   0COCHISE                 ARIZ  120413040A001D43MWN16MWN14FA45 00100040FWN                                                                                                                                                                     
602AZ002036 803000006121002   0BISBEE                  ARIZ  020813030A001C25MWN28FWN12AQ60 000001                                                  52MWN12AQ60                                                                                                             
602AZ002036 803000006121002   0BISBEE                  ARIZ  090304040A001A56MWN43MWN20AQ42 000000                                                                                                                                                                          
602AZ002036 803000006121002   0BISBEE                  ARIZ  100324040B001ABBFWN18MWN40DA59 000000                                                                                                                                                                          
602AZ002094 803000039888002   0SIERRA VISTA            ARIZ  080226040A001A28FBN27MBN40GF45 000000                                                                                                                                                                          
602AZ003009B8030000522680032751COCONINO                ARIZ  100324040A001B00MWU00UUU30UN99 000000                                                                                                                                                                          
602AZ003013 8030000564300032750FLAGSTAFF               ARIZ  010813030A001C24MWH25MWH30AQ45 000001                                                  22MWH30AQ45                                                                                                             
602AZ004008B803000027503004   0GILA                    ARIZ  080303041A001C31MW 25FW 12ST81A000004                                                  25MW 12ST81A34MW 12ST81A36FW 12ST81A36MW 12ST81A                                                                        
602AZ007009A8030002739730076621MARICOPA                ARIZ  010725030A001B40MWN00UUU12UN99 000000                                                                                                                                                                          
602AZ007009A8030002739730076621MARICOPA                ARIZ  020813030A001D40MWN44MWN12IL45 00400042FWN46FWN65FWN04MWN                                                                                                                                                      
602AZ007009A8030002739730076621MARICOPA                ARIZ  020813030A002A20FWH23MWH14SI99 000000                                                                                                                                                                          
602AZ007009A8030002739730076621MARICOPA                ARIZ  030925030A001B43MWH00UUU90UN99 000000                                                                                                                                                                          
602AZ007009A8030002739730076621MARICOPA                ARIZ  030925030A002B37FBN00UUU12UN99 000000                                                                                                                                                                          
602AZ007009A8030002739730076621MARICOPA                ARIZ  041118030A001B19MBN00UUU65UN99 000000                                                                                                                                                                          
602AZ007009A8030002739730076621MARICOPA                ARIZ  050205040A001B24MWH00UUU12UN99 000000                                                                                                                                                                          
602AZ007009A8030002739730076621MARICOPA                ARIZ  050205040A002A67FWN68MWN12WI45 000000                                                                                                                                                                          
602AZ007009A8030002739730076621MARICOPA                ARIZ  050205040A003C18MWH15MWH20ST42 000001                                                  27MWH20ST42                                                                                                             
602AZ007009A8030002739730076621MARICOPA                ARIZ  050205040A004A54MWH24FWH12FA45 000000                                                                                                                                                                          
602AZ007009A8030002739730076621MARICOPA                ARIZ  090304040A001A52FWN53MWN12WI60 000000                                                                                                                                                                          
602AZ007009A8030002739730076621MARICOPA                ARIZ  100324040A001B20MBN00UUU12UN99 000000                                                                                                                                                                          
602AZ007009A8030002739730076621MARICOPA                ARIZ  100324040A002B84MWH00UUU12UN99 000000                                                                                                                                                                          
602AZ007009A8030002739730076621MARICOPA                ARIZ  100324040A003A40MWH21MWH12NE44 000000                                                                                                                                                                          
602AZ007009A8030002739730076621MARICOPA                ARIZ  110331040A001B35MWH00UUU12UN99 000000                                                                                                                                                                          
602AZ007009A8030002739730076621MARICOPA                ARIZ  110331040A002B26MWH00UUU14UN99 000000                                                                                                                                                                          
602AZ007009A8030002739730076621MARICOPA                ARIZ  110331040A003B23MWN00UUU90UN99 000000                                                                                                                                                                          
602AZ007009A8030002739730076621MARICOPA                ARIZ  120413040A001A21MWN24MWN12ST45 000000                                                                                                                                                                          
602AZ007009A8030002739730076621MARICOPA                ARIZ  120413040A002F20MWH00UUU12UN99 00200025MWH26MWH                                                                                                                                                                
602AZ007052 8030002066200076620CHANDLER                ARIZ  020813030A001A23MWN39MWN12ST81A000000                                                                                                                                                                          
602AZ007052 8030002066200076620CHANDLER                ARIZ  030925030A001A25MWN23MWH12NE99 000000                                                                                                                                                                          
602AZ007052 8030002066200076620CHANDLER                ARIZ  030925030A002A26MWN30MWN12ST81A000000                                                                                                                                                                          
602AZ007052 8030002066200076620CHANDLER                ARIZ  090304040A001A25MWH25MWH12AQ45 000000                                                                                                                                                                          
602AZ007052 8030002066200076620CHANDLER                ARIZ  100324040A001A85MWN00MWH30ST03 000000                                                                                                                                                                          
602AZ007052 8030002066200076620CHANDLER                ARIZ  110331040A001A23MBN00MWH12UN99 000000                                                                                                                                                                          
602AZ007052 8030002066200076620CHANDLER                ARIZ  110331040A002C25MBN19MBN12ST03 000001                                                  20MIN12ST03                                                                                                             
602AZ007052 8030002066200076620CHANDLER                ARIZ  110331040B003A27MWN28MWH30OK59 000000                                                                                                                                                                          
602AZ007075 8030000135570076621EL MIRAGE               ARIZ  080226040A001A42FWH35MWH40GF45 000000                                                                                                                                                                          
602AZ007075 8030000135570076621EL MIRAGE               ARIZ  090304040A001F22MWH00UUU20UN99 00200029MWH17MWH                                                                                                                                                                
602AZ007112 8030001380820076620GILBERT                 ARIZ  080226040A001A39FWN44MWN12GF45 000000                                                                                                                                                                          
602AZ007112 8030001380820076620GILBERT                 ARIZ  100324040B001A05MWN39MWN90SO59 000000                                                                                                                                                                          
602AZ007132 8030002358190076620GLENDALE                ARIZ  010725030B001A55MWN36MWN40FA59 000000                                                                                                                                                                          
602AZ007132 8030002358190076620GLENDALE                ARIZ  020813030A001ABBFWN39MWN40OK60 000000                                                                                                                                                                          
602AZ007132 8030002358190076620GLENDALE                ARIZ  030925030A001B25MWH00UUU12UN45 000000                                                                                                                                                                          
602AZ007132 8030002358190076620GLENDALE                ARIZ  030925030A002C18MWH20MWH12AQ45 000001                                                  25MWN12AQ45                                                                                                             
602AZ007132 8030002358190076620GLENDALE                ARIZ  040212041A001A35MW 00MW 12UN45 000000                                                                                                                                                                          
602AZ007132 8030002358190076620GLENDALE                ARIZ  040212041A002A17MB 00MW 12UN99 000000                                                                                                                                                                          
602AZ007132 8030002358190076620GLENDALE                ARIZ  040212041A003A23FB 38MB 20GF45 000000                                                                                                                                                                          
602AZ007132 8030002358190076620GLENDALE                ARIZ  050205040A001A27MBN16MBN12AQ45 000000                                                                                                                                                                          
602AZ007132 8030002358190076620GLENDALE                ARIZ  060211040A001B33FWH00UUU90UN99 000000                                                                                                                                                                          
602AZ007132 8030002358190076620GLENDALE                ARIZ  060211040B002A43FWN45MWN70WI59 000000                                                                                                                                                                          
602AZ007132 8030002358190076620GLENDALE                ARIZ  090304040A001A27FWN23MWH12GF45 000000                                                                                                                                                                          
602AZ007132 8030002358190076620GLENDALE                ARIZ  110331040A001B36MWH00UUU12UN26 000000                                                                                                                                                                          
602AZ007132 8030002358190076620GLENDALE                ARIZ  120413040A001A52FBN40MBN40WI45 000000                                                                                                                                                                          
602AZ007132 8030002358190076620GLENDALE                ARIZ  120413040A002C34MWN18MBN12ST03 000001                                                  19MBN12ST03                                                                                                             
602AZ007132 8030002358190076620GLENDALE                ARIZ  120413040A003A20MWH24MWH12ST46 000000                                                                                                                                                                          
602AZ007132 8030002358190076620GLENDALE                ARIZ  120413040A004A18MWH13MWH12ST70 000000                                                                                                                                                                          
602AZ007154 8030000283670076621GOODYEAR                ARIZ  100324040A001B35MWH00UUU12UN99 000000                                                                                                                                                                          
602AZ007171C8030004365690076620MESA                    ARIZ  010725030A001A31MWN37MWN40FR45 000000                                                                                                                                                                          
602AZ007171C8030004365690076620MESA                    ARIZ  010725030A002A61MWN68MWN30ST06 000000                                                                                                                                                                          
602AZ007171C8030004365690076620MESA                    ARIZ  020813030A001A34MWN00MWH12ST40 000000                                                                                                                                                                          
602AZ007171C8030004365690076620MESA                    ARIZ  030925030A001A50FIN45MIN20GF45 000000                                                                                                                                                                          
602AZ007171C8030004365690076620MESA                    ARIZ  030925030A002A41MWN24MWN30ST99 000000                                                                                                                                                                          
602AZ007171C8030004365690076620MESA                    ARIZ  030925030A003B52MWN00UUU30UN99 000000                                                                                                                                                                          
602AZ007171C8030004365690076620MESA                    ARIZ  050303041A001A20MW 00MB 12UN99 000000                                                                                                                                                                          
602AZ007171C8030004365690076620MESA                    ARIZ  050205040B002A48MBN29MWN40ST59 000000                                                                                                                                                                          
602AZ007171C8030004365690076620MESA                    ARIZ  060211040A001B17MWH00UUU12UN99 000001                                                  00UUU12UN99                                                                                                             
602AZ007171C8030004365690076620MESA                    ARIZ  060211040A002A26MWH25MWN12UN99 000000                                                                                                                                                                          
602AZ007171C8030004365690076620MESA                    ARIZ  060211040B003ABBFIN19FIN40DA59 000000                                                                                                                                                                          
602AZ007171C8030004365690076620MESA                    ARIZ  070219040B001A01FWN33FWN90AQ59 000000                                                                                                                                                                          
602AZ007171C8030004365690076620MESA                    ARIZ  080226040A001C15MWH25MWN12ST81A000002                                                  39MBN12ST81A31MWN12ST81A                                                                                                
602AZ007171C8030004365690076620MESA                    ARIZ  090304040A001B26MIN00UUU12UN99 000000                                                                                                                                                                          
602AZ007171C8030004365690076620MESA                    ARIZ  090304040A002A23FWN23MWN12ST81A000000                                                                                                                                                                          
602AZ007171C8030004365690076620MESA                    ARIZ  100324040A001B82MWN00UUU90UN99 000000                                                                                                                                                                          
602AZ007171C8030004365690076620MESA                    ARIZ  100324040A002A19MWN21MWN40FR45 000000                                                                                                                                                                          
602AZ007171C8030004365690076620MESA                    ARIZ  110331040A001C45MWN23MWN12AQ60 000001                                                  32MWN12AQ60                                                                                                             
602AZ007171C8030004365690076620MESA                    ARIZ  120413040A001A23MWH26MWH12BR60 000000                                                                                                                                                                          
