601AL001009A6100001453460370981JEFFERSON               ALA   060404110A001A33MB 23MB 12AQ99 000000
601AL001009A6100001453460370981JEFFERSON               ALA   080405111A001A18MW 00MB 40UN99 000000
601AL001009A6100001453460370981JEFFERSON               ALA   080405111A002A34MW 50MW 12AQ99 000000
601AL001009A6100001453460370981JEFFERSON               ALA   090404110A001A32FW 50MW 12GF99 000000
601AL001009A6100001453460370981JEFFERSON               ALA   100404110A001A32MW 32FW 40BF99 000000
601AL001014 6100000274560370981BESSEMER                ALA   010404110A001A31MB 00MB 12UN99 000000
601AL001014 6100000274560370981BESSEMER                ALA   060428111A001B20MB 00UU 12UN99 000000
601AL001014 6100000274560370981BESSEMER                ALA   060406111A002A34MB 22FB 20BF99 000000
601AL001014 6100000274560370981BESSEMER                ALA   080406111A001B45FB 00UU 12UN99 000000
601AL001014 6100000274560370981BESSEMER                ALA   100406111A001B62MB 00UU 90UN99 000000
601AL001045 6100000111170370981FAIRFIELD               ALA   030428111A001B25FB 00UU 90UN99 000000
601AL001045 6100000111170370981FAIRFIELD               ALA   030406111A002B24MB 00UU 12UN18 000000
601AL001045 6100000111170370981FAIRFIELD               ALA   070406111A001B22MB 00UU 12UN18 000000
601AL001045 6100000111170370981FAIRFIELD               ALA   100404110A001A29MB 24MB 12UN18 000000
601AL001055 6100000138930370981GARDENDALE              ALA   010404110A001A18MW 21MW 12AQ99 000000
601AL001055 6100000138930370981GARDENDALE              ALA   040406111A001A01MW 53MW 90SO60 000000
601AL001065 6100000117730370981LEEDS                   ALA   030404110A001A30MB 43MB 12UN99 000000
601AL001065 6100000117730370981LEEDS                   ALA   110404110A001A52MB 43MB 90UN99 000000
601AL001076 6100000053650370981MIDFIELD                ALA   030404110A001A35MB 20MB 12UN99 000000
601AL001076 6100000053650370981MIDFIELD                ALA   120406111A001B22FW 00UU 12UN99 000000
601AL001086 6100000063970370981TARRANT                 ALA   030406111A001A34MB 28MB 12AQ40 000000
601AL001086 6100000063970370981TARRANT                 ALA   030406111A002B49MW 00UU 12UN99 000000
601AL001094 6100000340330370981VESTAVIA HILLS          ALA   070406111A001B45MW 00UU 90UN99 000000
601AL001123 6100000816190370980HOOVER                  ALA   060210120A001C22MB 21MB 12OK45 000002                                                  21MB 12OK45 21MB 12OK45
601AL001135 6100000123490370981IRONDALE                ALA   040404110A001A23MW 20MB 12UN18 000000
601AL001207 6100000022100370981LIPSCOMB                ALA   010404110A001A31MB 29FB 20BF99 000000
601AL002009A6100001023470495471MOBILE                  ALA   020406111A001B90MW 00UU 90UN99 000000
601AL002009A6100001023470495471MOBILE                  ALA   040406111A001B59FW 00UU 12UN03 000000
601AL002009A6100001023470495471MOBILE                  ALA   070406111A001B72MW 00UU 12UN99 000000
601AL002009A6100001023470495471MOBILE                  ALA   070406111A002B61MW 00UU 12UN99 000000
601AL002009A6100001023470495471MOBILE                  ALA   120406111A001A53FW 29MB 90ST99 000000
601AL002011C6100002511060495470MOBILE                  ALA   010404110A001A28MB 27MB 12UN99 000000
601AL002011C6100002511060495470MOBILE                  ALA   020404110A001A42MW 38MW 20FR99 000000
601AL002011C6100002511060495470MOBILE                  ALA   020404110A002A45MB 25MB 12ST99 000000
601AL002011C6100002511060495470MOBILE                  ALA   020405111A003B19MB 00UU 12UN99 000000
601AL002011C6100002511060495470MOBILE                  ALA   030404110A001A26MB 19MB 12ST99 000000
601AL002011C6100002511060495470MOBILE                  ALA   030404110A002A29MB 32MB 12UN99 000000
601AL002011C6100002511060495470MOBILE                  ALA   040404110A001A23MW 19MB 12ST99 000000
601AL002011C6100002511060495470MOBILE                  ALA   050404110A001A53MW 43MW 90AQ99 000000
601AL002011C6100002511060495470MOBILE                  ALA   060404110A001A56FW 58MW 12OF99 000000
601AL002011C6100002511060495470MOBILE                  ALA   060405111A002B69FW 00UU 90UN99 000000
601AL002025 6100000226590495471PRICHARD                ALA   050406111A001B50MB 00UU 12UN99 000000
601AL002025 6100000226590495471PRICHARD                ALA   080404110A001A30MB 28MB 12UN99 000000
601AL003012 6100002057640515560MONTGOMERY              ALA   010404110A001A35MB 00MB 40UN99 000000
601AL003012 6100002057640515560MONTGOMERY              ALA   010404110A002A29FW 00MB 40UN99 000000
601AL003012 6100002057640515560MONTGOMERY              ALA   010404110A003A39MB 00MB 12UN99 000000
601AL003012 6100002057640515560MONTGOMERY              ALA   010404110A004A22FB 00MB 12UN99 000000
601AL003012 6100002057640515560MONTGOMERY              ALA   010404110A005A20MB 20MB 12UN03 000000
601AL003012 6100002057640515560MONTGOMERY              ALA   020405111A001B03MW 00UU 40UN99 000000
601AL003012 6100002057640515560MONTGOMERY              ALA   030404110A001A67MB 20MB 12UN03 000000
601AL003012 6100002057640515560MONTGOMERY              ALA   040404110A001A02FA 00MW 40UN99 000000
601AL003012 6100002057640515560MONTGOMERY              ALA   040404110A002A41MW 20MB 12UN99 000000
601AL003012 6100002057640515560MONTGOMERY              ALA   040405111A003B35MB 00UU 40UN99 000000
601AL003012 6100002057640515560MONTGOMERY              ALA   050404110A001A55FB 68MB 20AQ99 000000
601AL003012 6100002057640515560MONTGOMERY              ALA   060404110A001A38FW 40MW 12XW99 000000
601AL003012 6100002057640515560MONTGOMERY              ALA   060404110A002A34FB 54MB 12WI99 000000
601AL003012 6100002057640515560MONTGOMERY              ALA   060404110A003A32MB 35MB 12UN99 000000
601AL003012 6100002057640515560MONTGOMERY              ALA   060405111A004B81MB 00UU 20UN99 000000
601AL003012 6100002057640515560MONTGOMERY              ALA   060404110A005A23MB 22FB 40BF99 000000
601AL003012 6100002057640515560MONTGOMERY              ALA   060404110A006A42FW 61MW 40WI99 000000
601AL003012 6100002057640515560MONTGOMERY              ALA   060404110A007A00MB 21MB 12UN99 000000
601AL003012 6100002057640515560MONTGOMERY              ALA   100404110A001A36MB 44MB 40FR99 000000
601AL003012 6100002057640515560MONTGOMERY              ALA   100404110A002A24MW 20MB 12UN03 000000
601AL003012 6100002057640515560MONTGOMERY              ALA   100407111A003A04MB 23FB 40SO60 000000
601AL003012 6100002057640515560MONTGOMERY              ALA   100404110A004A28MB 22FB 20BF99 000000
601AL003012 6100002057640515560MONTGOMERY              ALA   110405111A001B32MB 00UU 40UN99 000000
601AL003012 6100002057640515560MONTGOMERY              ALA   110404110A002A19MB 35MB 12AQ99 000000
601AL003012 6100002057640515560MONTGOMERY              ALA   120404110A001A24MB 30FB 12UN99 000000
601AL005025 610000015326002   0FAIRHOPE                ALA   070404110A001A22MB 25MB 12UN40 000000
601AL005046 610000009741002   0GULF SHORES             ALA   050404110A001A45FW 46MW 12UN99 000000
601AL005056 610000005276002   0ROBERTSDALE             ALA   070406111A001B38MB 00UU 20UN99 000000
601AL006015 610000013137003   0EUFAULA                 ALA   020404110A001A25FB 27MW 12GF99 000000
601AL010008C610000010552007   0BUTLER                  ALA   050404110A001A50MW 53MW 20BR99 000000
601AL011015 6100000231060080420ANNISTON                ALA   060404110A001A17MB 16MB 12UN99 000000
601AL011015 6100000231060080420ANNISTON                ALA   070404110A001A30MB 18MB 12UN45 000000
601AL011015 6100000231060080420ANNISTON                ALA   100404110A001A44MB 46FB 20HU99 000000
601AL011025 6100000125480080421JACKSONVILLE            ALA   100404110A001A31FB 60FW 12NE99 000000
601AL011055 6100000213480080420OXFORD                  ALA   030406111A001D00MU 21MB 14AQ60 00300014MB 16FB 20MB
601AL013008C610000019632010   0CHEROKEE                ALA   020404110A001A58MB 35MB 12OF99 000000
601AL016008C610000014474013   0CLARKE                  ALA   020406111A001D24FB 35MB 90UN99 00100047MB
601AL016008C610000014474013   0CLARKE                  ALA   060404110A001A64MB 53MB 20UN99 000000
601AL016008C610000014474013   0CLARKE                  ALA   080404110A001A71FB 70FB 14UN99 000000
601AL016008C610000014474013   0CLARKE                  ALA   120406111A001D01MB 26MB 14UN99 00200012MB 26FB
601AL016026 610000004209013   0THOMASVILLE             ALA   080404110A001A71FB 70MB 14WI99 000000
601AL019016 610000003940016   0ELBA                    ALA   110404110A001A49FB 44MB 20UN99 000000
601AL019024 610000026562016   0ENTERPRISE              ALA   010406111A001A37FW 37MW 12WI60 000000
601AL019024 610000026562016   0ENTERPRISE              ALA   080406111A001B00FB 00UU 90UN99 000000
601AL019024 610000026562016   0ENTERPRISE              ALA   080404110A002A00FW 33FW 90DA99 000000
601AL019024 610000026562016   0ENTERPRISE              ALA   100404110A001A23MB 28MB 12UN45 000000
601AL020009C6100000210320172781COLBERT                 ALA   060404110A001A00MW 00MW 12NE45 000000
601AL023026 610000006659020   0OPP                     ALA   070404110A001A04MW 25MW 14OF99 000000
601AL025008B610000062622022   0CULLMAN                 ALA   070404110A001A39MW 57MU 12FR45 000000
601AL025008B610000062622022   0CULLMAN                 ALA   110406111A001C47MW 51MU 12OF45 000001                                                  29MU 12OF45
601AL026015 610000014907023   0OZARK                   ALA   050406111A001B52FB 00UU 90UN99 000000
601AL027015 610000020756024   0SELMA                   ALA   020406111A001B18MB 00UU 12UN99 000000
601AL027015 610000020756024   0SELMA                   ALA   040404110A001A63MB 35MB 20AQ99 000000
601AL027015 610000020756024   0SELMA                   ALA   040404110A002A04MB 30MB 12ST99 000000
601AL027015 610000020756024   0SELMA                   ALA   060404110A001A00FB 20MB 90ST99 000000
601AL028008B610000039146025   0DE KALB                 ALA   060404110A001A00MW 20MW 12AQ44 000000
601AL028008B610000039146025   0DE KALB                 ALA   070404110A001A00MW 62MW 12AQ45 000000
601AL029009B6100000511520265561ELMORE                  ALA   070404110A001A19MB 18MU 12UN45 000000
601AL030008C610000018799027   0ESCAMBIA                ALA   120404110A001A46FW 26MW 12MO99 000000
601AL031009B6100000314460283031ETOWAH                  ALA   070406111A001A53MW 47FW 12HU99 000000
601AL031024 6100000368560283030GADSDEN                 ALA   010404110A001A63MB 51FB 20UN99 000000
601AL031024 6100000368560283030GADSDEN                 ALA   010406111A002B45MB 00UU 20UN99 000000
601AL031024 6100000368560283030GADSDEN                 ALA   030406111A001B17MB 00UU 12UN99 000000
601AL031024 6100000368560283030GADSDEN                 ALA   110404110A001A44FW 53MW 40UN45 000000
601AL031024 6100000368560283030GADSDEN                 ALA   110404110A002A32MW 00MB 12UN05 000000
601AL031076 6100000084120283031SOUTHSIDE               ALA   020404110A001A50MW 45FW 12HU99 000000
601AL033016 610000009830030   0RUSSELLVILLE            ALA   100404110A001A70MW 54MW 12UN99 000000
601AL034009C6100000157870312271GENEVA                  ALA   070404110A001A34MW 52MW 20UN99 000000
601AL034016 6100000044520312271GENEVA                  ALA   070404110A001A52FW 65MW 12CW99 000000
601AL037009D6100000095600342271HENRY                   ALA   100406111A001B45MW 00UU 12UN99 000000
601AL037016 6100000026880342271ABBEVILLE               ALA   120913111A001A32MB 41FB 20BF99 000000
601AL038013 6100000654960352270DOTHAN                  ALA   030406111A001B69FW 00UU 12UN03 000000
601AL041009B6100000495950392781LAUDERDALE              ALA   010404110A001A23MW 37MW 12OF99 000000
601AL041009B6100000495950392781LAUDERDALE              ALA   030404110A001A37FW 32MW 12GF99 000000
601AL041009B6100000495950392781LAUDERDALE              ALA   060913111A001A27MW 00FW 14HU99 000000
601AL041014 6100000393190392780FLORENCE                ALA   010404110A001A38MB 21MB 12SF45 000000
601AL042009B6100000279750402101LAWRENCE                ALA   080404110A001A53MW 44MW 14SF99 000000
601AL043009B6100000561620410571LEE                     ALA   080404110A001A17MW 00MU 12UN99 000000
601AL043009B6100000561620410571LEE                     ALA   090404110A001A56MW 39MU 90UN99 000000
601AL043013 6100000533800410570AUBURN                  ALA   040406111A001B32MB 00UU 12UN99 000000
601AL043013 6100000533800410570AUBURN                  ALA   060404110A001A20MB 20MB 12UN99 000000
601AL043013 6100000533800410570AUBURN                  ALA   100406111A001B24MB 00UU 12UN99 000000
601AL043024 6100000264770410570OPELIKA                 ALA   040404110A001A21MB 18MB 12UN99 000000
601AL043024 6100000264770410570OPELIKA                 ALA   110406111A001B30MB 00UU 12UN99 000000
601AL044009B6100000546330423681LIMESTONE               ALA   040404110A001A43MW 48FW 12AQ45 000000
601AL044009B6100000546330423681LIMESTONE               ALA   070404110A001A23MW 23MW 14AQ45 000000
601AL046016 610000009865044   0TUSKEGEE                ALA   040913111A001A49FB 57MB 20WI99 000000
601AL046016 610000009865044   0TUSKEGEE                ALA   100404110A001A24MB 22MB 12HU99 000000
601AL046016 610000009865044   0TUSKEGEE                ALA   110406111A001B22MB 00UU 90UN99 000000
601AL047009A6100001111140453681MADISON                 ALA   040405111A001B00FW 00UU 12UN99 000000
601AL047009A6100001111140453681MADISON                 ALA   050404110A001A00MW 40FW 20HU99 000000
601AL047009A6100001111140453681MADISON                 ALA   070405111A001B00MW 00UU 12UN99 000000
601AL047009A6100001111140453681MADISON                 ALA   070404110A002A00FB 69MB 12WI99 000000
601AL047009A6100001111140453681MADISON                 ALA   080404110A001A00MW 41FW 20UN99 000000
601AL047009A6100001111140453681MADISON                 ALA   100405111A001B00MW 00UU 12UN99 000000
601AL047009A6100001111140453681MADISON                 ALA   100404110A002A00MB 24MW 20UN99 000000
601AL047012 6100001801050453680HUNTSVILLE              ALA   020404110A001A30MB 19MB 20AQ99 000000
601AL047012 6100001801050453680HUNTSVILLE              ALA   030404110A001A47MB 67MB 12UN99 000000
601AL047012 6100001801050453680HUNTSVILLE              ALA   060405111A001B23FB 00UU 12UN99 000000
601AL047012 6100001801050453680HUNTSVILLE              ALA   060404110A002A17MB 22MB 12UN99 000000
601AL047012 6100001801050453680HUNTSVILLE              ALA   070404110A001A30MW 33MW 12AQ99 000000
601AL047012 6100001801050453680HUNTSVILLE              ALA   070405111A002B60MB 00UU 90UN99 000000
601AL047012 6100001801050453680HUNTSVILLE              ALA   090404110A001A19MB 47MB 14ST99 000000
601AL047012 6100001801050453680HUNTSVILLE              ALA   090405111A002C28MW 22MB 14AQ03 000001                                                  24MB 14AQ03
601AL047012 6100001801050453680HUNTSVILLE              ALA   110404110A001A61FW 46MB 90UN99 000000
601AL047012 6100001801050453680HUNTSVILLE              ALA   110405111A002B41FW 00UU 90UN99 000000
601AL047012 6100001801050453680HUNTSVILLE              ALA   120404110A001A25MW 44MW 12UN99 000000
601AL047012 6100001801050453680HUNTSVILLE              ALA   120404110A002A49MB 34FB 12BF99 000000
601AL047024 6100000429380453681MADISON                 ALA   020118121A001A14MB 14MI 12UN99 000000
601AL049026 610000004717047   0WINFIELD                ALA   090406111A001A42MW 00MU 14SS99 000000
601AL050008B610000045557048   0MARSHALL                ALA   060913111A001A46FW 57MW 12WI99 000000
601AL050008B610000045557048   0MARSHALL                ALA   100404110A001A45MW 22MW 90FR99 000000
601AL051008C610000014216050   0MONROE                  ALA   070404110A001A37MB 31MB 12FR99 000000
601AL052013 6100000556830522100DECATUR                 ALA   010406111A001B88FB 00UU 90UN99 000000
601AL052013 6100000556830522100DECATUR                 ALA   050406111A001B22MW 00UU 12UN99 000000
601AL052013 6100000556830522100DECATUR                 ALA   090406111A001B19MB 00UU 12UN99 000000
601AL052013 6100000556830522100DECATUR                 ALA   110406111A001A34FW 38MW 12XW60 000000
601AL055008C610000012790055   0PIKE                    ALA   010913111A001A50FB 59MB 12GF99 000000
601AL056016 610000006074056   0ROANOKE                 ALA   070404110A001A31MB 17MB 12UN99 000000
601AL057014 6100000328220571841PHENIX CITY             ALA   010404110A001A36MB 20MB 12FR45 000000
601AL057014 6100000328220571841PHENIX CITY             ALA   060913111A001A32FB 36MB 12WI45 000000
601AL057014 6100000328220571841PHENIX CITY             ALA   100404110A001A28MW 29MW 14AQ45 000000
601AL057014 6100000328220571841PHENIX CITY             ALA   100404110A002A54MB 62MW 14FR45 000000
601AL058009B6100000336260580981ST. CLAIR               ALA   020406111A001B54MW 00UU 90UN05 000000
601AL059009B6100000796600590981SHELBY                  ALA   070404110A001A33MW 56MW 12SO99 000000
601AL059065 6100000213520590981PELHAM                  ALA   050404110A001A77FW 84MW 20WI99 000000
601AL060026 610000003485060   0LIVINGSTON              ALA   010404110A001A32FB 32MB 12WI99 000000
601AL061015 610000012749061   0SYLACAUGA               ALA   080404110A001A38FB 35MB 12XW99 000000
601AL061046 610000006266061   0LINCOLN                 ALA   050404110A001A42MB 48FB 20BF99 000000
601AL062008C610000018973062   0TALLAPOOSA              ALA   060404110A001A58MW 45MW 12BF45 000000
601AL062015 610000014875062   0ALEXANDER CITY          ALA   030404110A001A27MB 23MB 12BF99 000000
601AL063009B6100000767130639151TUSCALOOSA              ALA   020404110A001A40MB 54MB 12BF99 000000
601AL063009B6100000767130639151TUSCALOOSA              ALA   080404110A001A55MW 31MW 12FA99 000000
601AL063013 6100000904680639150TUSCALOOSA              ALA   010406111A001B37MB 00UU 12UN99 000000
601AL063013 6100000904680639150TUSCALOOSA              ALA   020406111A001A01FW 32FW 40DA60 000000
601AL063013 6100000904680639150TUSCALOOSA              ALA   050404110A001A17MB 20MB 12ST45 000000
601AL063013 6100000904680639150TUSCALOOSA              ALA   060404110A001A25MB 25MB 12UN99 000000
601AL063013 6100000904680639150TUSCALOOSA              ALA   060404110A002A46MB 22MB 12AQ03 000000
601AL063013 6100000904680639150TUSCALOOSA              ALA   080404110A001A53MW 36MW 40OF45 000000
601AL063013 6100000904680639150TUSCALOOSA              ALA   100404110A001A46FB 30MB 40AQ99 000000
601AL063025 6100000233300639151NORTHPORT               ALA   040404110A001A01MW 26FW 40SO99 000000
601AL063025 6100000233300639151NORTHPORT               ALA   050404110A001A00MW 29MW 12SO99 000000
602AZ001008B810000061192001   0APACHE                  ARIZ  080104110B001A24FWN23MWN12FR53 000000
602AZ002008B810000052410002   0COCHISE                 ARIZ  020817100A001A33FWH41MWH80WI45 000000
602AZ002008B810000052410002   0COCHISE                 ARIZ  030104111A001B58MWN00UUU12UN99 000000
602AZ002008B810000052410002   0COCHISE                 ARIZ  040907100A001A50FWN50MUH12GF60 000000
602AZ002008B810000052410002   0COCHISE                 ARIZ  100208110A001A23FWN23MWN12FR99 000000
602AZ002008B810000052410002   0COCHISE                 ARIZ  100208110A002A50MWN37MWN12OF45 000000
602AZ002008B810000052410002   0COCHISE                 ARIZ  110222110A001A19MWH20MWN14FR99 000000
602AZ002008B810000052410002   0COCHISE                 ARIZ  110222110A002B45MWN00UUU90UN99 000000
602AZ002094 810000043888002   0SIERRA VISTA            ARIZ  030104111A001A21MWN20FWN20BF99 000000
602AZ003009B8100000541250032751COCONINO                ARIZ  080222110A001A00MIN23MIN13UN99 000000
602AZ003013 8100000658700032750FLAGSTAFF               ARIZ  020113110B001A28MIN41MWN90AQ59 000000
602AZ003013 8100000658700032750FLAGSTAFF               ARIZ  040113110A001A34FWN37MWN12WI99 000000
602AZ003013 8100000658700032750FLAGSTAFF               ARIZ  070208110A001A45MIN33MIN90AQ99 000000
602AZ003013 8100000658700032750FLAGSTAFF               ARIZ  070208110A002A27FWH22MWH20GF99 000000
602AZ003013 8100000658700032750FLAGSTAFF               ARIZ  080208110A001A78MWN33MWN12FA99 000000
602AZ003013 8100000658700032750FLAGSTAFF               ARIZ  090208110A001A40FIN46MBN30GF45 000000
602AZ004016 810000007532004   0GLOBE                   ARIZ  090713111B001A26MWN23MWH20AQ59 000000
602AZ005008C810000020402005   0GRAHAM                  ARIZ  080104110A001A31MWH47MWH20SO45 000000
602AZ007009A8100003541040076621MARICOPA                ARIZ  020817100A001A20MWN36MWN12OK45 000000
602AZ007009A8100003541040076621MARICOPA                ARIZ  020817100A002A29MWH24MWH12AQ60 000000
602AZ007009A8100003541040076621MARICOPA                ARIZ  020817100A003A24MWH24MWN13ST45 000000
602AZ007009A8100003541040076621MARICOPA                ARIZ  030104111A001B00UUU00UUU90UN99 000000
602AZ007009A8100003541040076621MARICOPA                ARIZ  030104111A002C24MWH18MWH12ST99 000002                                                  24MWH12ST99 40MWH12ST99
602AZ007009A8100003541040076621MARICOPA                ARIZ  030104111A003B42MWH00UUU11UN99 000000
602AZ007009A8100003541040076621MARICOPA                ARIZ  030104111A004B28MWH00UUU11UN99 000000
602AZ007009A8100003541040076621MARICOPA                ARIZ  040907100A001B28FWH00UUU90UN99 000000
602AZ007009A8100003541040076621MARICOPA                ARIZ  050917100A001C41MWH19MWN20UN99 000002                                                  23MWN20UN99 20MWN20UN99
602AZ007009A8100003541040076621MARICOPA                ARIZ  050917100A002B27MWH00UUU12UN99 000000
602AZ007009A8100003541040076621MARICOPA                ARIZ  050917100A003A40FWN27MWN12WI99 000000
602AZ007009A8100003541040076621MARICOPA                ARIZ  061018100A001B00UUU00UUU80UN26 000000
602AZ007009A8100003541040076621MARICOPA                ARIZ  061018100A002B00UUU00UUU11UN99 000000
602AZ007009A8100003541040076621MARICOPA                ARIZ  071229100A001A60MWN52FWN15HU99 000000
602AZ007009A8100003541040076621MARICOPA                ARIZ  071229100A002B23MWN00UUU15UN99 000000
602AZ007009A8100003541040076621MARICOPA                ARIZ  071229100A003A18MWN25MBN12UN99 000000
602AZ007009A8100003541040076621MARICOPA                ARIZ  071229100A004B37MBN00UUU15UN99 000000
602AZ007009A8100003541040076621MARICOPA                ARIZ  080104110A001B44FWN00UUU11UN99 000000
602AZ007009A8100003541040076621MARICOPA                ARIZ  080104110A002B47FWN00UUU11UN99 000000
602AZ007009A8100003541040076621MARICOPA                ARIZ  080104110A003B35MWN00UUU11UN99 000000
602AZ007009A8100003541040076621MARICOPA                ARIZ  090113110A001A30MWN48MWN90UN99 000000
602AZ007009A8100003541040076621MARICOPA                ARIZ  100208110A001A17MWN18MWN12UN05 000000
602AZ007009A8100003541040076621MARICOPA                ARIZ  110222110A001F28MWH00UUU11UN99 00100022MWH
602AZ007009A8100003541040076621MARICOPA                ARIZ  120404110A001A74MWN48MWN12FA99 000000
602AZ007009A8100003541040076621MARICOPA                ARIZ  120404110A002B19FBN00UUU90UN99 000000
602AZ007033 8100000508760076620BUCKEYE                 ARIZ  080104110A001B31MUH00UUU11UN99 000000
602AZ007052 8100002361230076620CHANDLER                ARIZ  030823100A001A41FWH31MWH90ST99 000000
602AZ007052 8100002361230076620CHANDLER                ARIZ  030823100B002A18MWH58MWH12AQ53 000000
602AZ007052 8100002361230076620CHANDLER                ARIZ  061018100A001A23MBU39MBU11ST43 000000
602AZ007052 8100002361230076620CHANDLER                ARIZ  100208110A001A33MWH37MWH20UN99 000000
602AZ007052 8100002361230076620CHANDLER                ARIZ  120404110A001A28MBU31MWU20AQ99 000000
602AZ007052 8100002361230076620CHANDLER                ARIZ  120404110A002ABBFWN21MWH90DA99 000000
602AZ007052 8100002361230076620CHANDLER                ARIZ  120404110A003A50FAN50MAN12WI99 000000
602AZ007074 8100000317970076621EL MIRAGE               ARIZ  040104111A001A15FWN16MWN30GF99 000000
602AZ007112 8100002084530076620GILBERT                 ARIZ  010210120A001C00MW 35MW 12ST60 000001                                                  30MW 12ST60
602AZ007112 8100002084530076620GILBERT                 ARIZ  070210120A001A32FW 36MW 12GF45 000000
602AZ007112 8100002084530076620GILBERT                 ARIZ  080210120A001A36MW 21MW 12ST60 000000
602AZ007112 8100002084530076620GILBERT                 ARIZ  090210120A001A26MW 52MW 11OK45 000000
602AZ007112 8100002084530076620GILBERT                 ARIZ  110210120A001C21MW 20MB 12AQ03 000002                                                  18MB 12AQ03 18MW 12AQ03
602AZ007132 8100002267210076620GLENDALE                ARIZ  020817100A001A38MWN27MWH20AQ03 000000
602AZ007132 8100002267210076620GLENDALE                ARIZ  020817100A002A16MWH21MWN13ST81E000000
602AZ007132 8100002267210076620GLENDALE                ARIZ  040907100A001A36MWH29MWH12AQ40 000000
602AZ007132 8100002267210076620GLENDALE                ARIZ  061018100A001B52MWU00UUU20AQ45 000000
602AZ007132 8100002267210076620GLENDALE                ARIZ  061018100A002A21MWU18MWU65AQ09 000000
602AZ007132 8100002267210076620GLENDALE                ARIZ  071229100A001B29MUU00UUU11UN99 000000
602AZ007132 8100002267210076620GLENDALE                ARIZ  071229100A002A30MUU32MUU12AQ45 000000
602AZ007132 8100002267210076620GLENDALE                ARIZ  080104110A001C44MUU17MUU90AQ45 000002                                                  16MUU20FA45 20MUU90AQ45
602AZ007132 8100002267210076620GLENDALE                ARIZ  090113110A001A27MWH42MWH12AQ99 000000
602AZ007132 8100002267210076620GLENDALE                ARIZ  100713111A001B43MWU00UUU20UN99 000000
602AZ007132 8100002267210076620GLENDALE                ARIZ  120404110A001A33MBU24MBU20AQ44 000000
602AZ007132 8100002267210076620GLENDALE                ARIZ  120404110A002A50FUU32MUU20MO99 000000
602AZ007132 8100002267210076620GLENDALE                ARIZ  120404110A003B27MUU00UUU11UN18 000000
602AZ007171C8100004390410076620MESA                    ARIZ  010729101A001D20MW 20MW 12ST45 00100020MW
602AZ007171C8100004390410076620MESA                    ARIZ  020817100B001A48MWH30MWH13FR53 000000
602AZ007171C8100004390410076620MESA                    ARIZ  040104111A001A18MWH00MUH12UN45 000000
602AZ007171C8100004390410076620MESA                    ARIZ  040104111A002A53MWN49FWN12XH43 000000
602AZ007171C8100004390410076620MESA                    ARIZ  040104111A003A42FWN35MWN40GF42 000000
602AZ007171C8100004390410076620MESA                    ARIZ  050917100A001A26MWH33MWN12ST05 000000
602AZ007171C8100004390410076620MESA                    ARIZ  061018100A001A63MWN46FWN30HU45 000000
602AZ007171C8100004390410076620MESA                    ARIZ  061018100A002C38MWH18MWH12UN26 000001                                                  18MWH12UN26
602AZ007171C8100004390410076620MESA                    ARIZ  080107111A001C28MW 20FW 12AQ18 000002                                                  20MW 12ST18 20MW 12ST18
602AZ007171C8100004390410076620MESA                    ARIZ  080107111B002A20FW 21MI 12GF53 000000
602AZ007171C8100004390410076620MESA                    ARIZ  100208110A001C35MWN32MWN12ST81A000001                                                  30FWN12ST81A
602AZ007171C8100004390410076620MESA                    ARIZ  100208110A002A20MWN20MWN15AQ45 000000
602AZ007171C8100004390410076620MESA                    ARIZ  100208110A003A59MWN33MWN15ST81A000000
602AZ007171C8100004390410076620MESA                    ARIZ  100208110A004A48MWN21MWN12FA45 000000
602AZ007171C8100004390410076620MESA                    ARIZ  100208110A005A37FWN42MWN12WI45 000000
602AZ007171C8100004390410076620MESA                    ARIZ  110224111A001C45MW 39MB 11ST81A000003                                                  40MW 11ST81A44MW 11ST81A45MB 11ST81A
602AZ007171C8100004390410076620MESA                    ARIZ  110222110A002A23MWH26MWH12AQ99 000000
602AZ007171C8100004390410076620MESA                    ARIZ  120404110A001A04MWH23MWH40SO99 000000
602AZ007171C8100004390410076620MESA                    ARIZ  120404110A002A42FAN27MAN20UN99 000000
602AZ007212 8100001540650076620PEORIA                  ARIZ  010621100A001C62MWN28MWN12ST81A000001                                                  35MWN12ST81A
602AZ007212 8100001540650076620PEORIA                  ARIZ  020817100A001A45MWN55MWN70AQ26 000000
602AZ007212 8100001540650076620PEORIA                  ARIZ  020817100A002B00MUU00UUU12UN99 000000
602AZ007212 8100001540650076620PEORIA                  ARIZ  040907100A001B27MWN00UUU20UN99 000000
602AZ007212 8100001540650076620PEORIA                  ARIZ  050917100A001A84MWN76FWN12HU26 000000
602AZ007212 8100001540650076620PEORIA                  ARIZ  050917100A002B03MBU00UUU90UN99 000000
602AZ007212 8100001540650076620PEORIA                  ARIZ  071229100A001A44MWH24MWH12FA45 000000
602AZ007231A8100014456320076620PHOENIX                 ARIZ  010621100A001F28MWH00UUU12UN99 00100024MWH
602AZ007231A8100014456320076620PHOENIX                 ARIZ  010621100A002A20MWH00MBN12ST99 000000
602AZ007231A8100014456320076620PHOENIX                 ARIZ  010621100A003ANBFBN24FBN90DA60 000000
602AZ007231A8100014456320076620PHOENIX                 ARIZ  010621100A004C27MBN18MBN14FR45 000001                                                  23FBN14FR45
602AZ007231A8100014456320076620PHOENIX                 ARIZ  010621100A005B23FBN00UUU12UN99 000000
602AZ007231A8100014456320076620PHOENIX                 ARIZ  010621100A006B25FWH00UUU12UN99 000000
602AZ007231A8100014456320076620PHOENIX                 ARIZ  010713101A007A32MW 00FU 11UN99 000000
602AZ007231A8100014456320076620PHOENIX                 ARIZ  010621100A008C23MWN00MWN12ST18 000001                                                  42MWN12ST18
602AZ007231A8100014456320076620PHOENIX                 ARIZ  010621100A009C30MBN37MWH12ST80E000001                                                  30MBN12ST80E
602AZ007231A8100014456320076620PHOENIX                 ARIZ  010621100A010A23MWH25MWN12ST80E000000
602AZ007231A8100014456320076620PHOENIX                 ARIZ  010621100A011C51MWN30MWN12ST81A000001                                                  32MWN12ST81A
602AZ007231A8100014456320076620PHOENIX                 ARIZ  010621100A012A26MWH59MWN12ST80E000000
602AZ007231A8100014456320076620PHOENIX                 ARIZ  020817100A001A51MWN48MWN12FR60 000000
602AZ007231A8100014456320076620PHOENIX                 ARIZ  020817100A003A85FWN55MWN30OF60 000000
602AZ007231A8100014456320076620PHOENIX                 ARIZ  020817100A004B42MWH00UUU12UN99 000000
602AZ007231A8100014456320076620PHOENIX                 ARIZ  020817100A005B53MWN00UUU12UN99 000000
602AZ007231A8100014456320076620PHOENIX                 ARIZ  020817100A006A05FWN47MWN90OF60 000000
602AZ007231A8100014456320076620PHOENIX                 ARIZ  020817100A007A28MWH00MWH11ST26 000000
602AZ007231A8100014456320076620PHOENIX                 ARIZ  020817100A008A23MWN20MWH12ST03 000000
602AZ007231A8100014456320076620PHOENIX                 ARIZ  020817100A009B25MBN00UUU12UN99 000000
602AZ007231A8100014456320076620PHOENIX                 ARIZ  020817100A010A46MWN33MWN12ST81F000000
602AZ007231A8100014456320076620PHOENIX                 ARIZ  030104111A001C86MWH29MWH90OF99 000002                                                  32MWH90OF99 37FWH90OF99
602AZ007231A8100014456320076620PHOENIX                 ARIZ  030104111A002B21MBN00UUU11UN99 000000
602AZ007231A8100014456320076620PHOENIX                 ARIZ  030104111A003B36MWN00UUU14UN99 000000
602AZ007231A8100014456320076620PHOENIX                 ARIZ  030104111A004B32MWH00UUU11UN99 000000
602AZ007231A8100014456320076620PHOENIX                 ARIZ  030104111A005A35MWH22MWH85AQ99 000000
602AZ007231A8100014456320076620PHOENIX                 ARIZ  030104111A006C39MBN00MBN11UN99 000001                                                  00MBN11UN99
602AZ007231A8100014456320076620PHOENIX                 ARIZ  030104111A007C18MWN00MBN11UN99 000001                                                  00MBN11UN99
602AZ007231A8100014456320076620PHOENIX                 ARIZ  030104111A008B51MWH00UUU11UN99 000000
602AZ007231A8100014456320076620PHOENIX                 ARIZ  040917101A001B34MWU00UUU30UN99 000000
602AZ007231A8100014456320076620PHOENIX                 ARIZ  040907100A002B54MWU00UUU30UN99 000000
602AZ007231A8100014456320076620PHOENIX                 ARIZ  040917101A003B54MWU00UUU30UN99 000000
602AZ007231A8100014456320076620PHOENIX                 ARIZ  040907100A004B39MBU00UUU11UN99 000000
602AZ007231A8100014456320076620PHOENIX                 ARIZ  040917101A005A27MWH00MWU13ST81E000000
602AZ007231A8100014456320076620PHOENIX                 ARIZ  040907100A006A47MBU25MWH15NE60 000000
602AZ007231A8100014456320076620PHOENIX                 ARIZ  040917101A007A26MIU32MWH11UN99 000000
602AZ007231A8100014456320076620PHOENIX                 ARIZ  040907100A008A54MWU19MWN20AQ03 000000
602AZ007231A8100014456320076620PHOENIX                 ARIZ  040917101A009A41MBU52MBU20AQ99 000000
602AZ007231A8100014456320076620PHOENIX                 ARIZ  040907100A010A46FBU58MBU20WI45 000000
602AZ007231A8100014456320076620PHOENIX                 ARIZ  040917101A011B64MWH00UUU30UN99 000000
602AZ007231A8100014456320076620PHOENIX                 ARIZ  040907100A012C22MWH00MBU15UN18 000002                                                  00MWH15UN18 22MBU15UN18
602AZ007231A8100014456320076620PHOENIX                 ARIZ  050113111A001A44MWH50MWN12AQ42 000000
602AZ007231A8100014456320076620PHOENIX                 ARIZ  050113111A002A34MWH36MWH12AQ45 000000
602AZ007231A8100014456320076620PHOENIX                 ARIZ  050113111A003A36MWH40MWN12ST81A000000
602AZ007231A8100014456320076620PHOENIX                 ARIZ  050113111A004B27MWH00UUU12UN99 000000
602AZ007231A8100014456320076620PHOENIX                 ARIZ  050120111A005A34MW 22MW 30UN99 000000
602AZ007231A8100014456320076620PHOENIX                 ARIZ  050113111A006A28MWH24MWH12AQ45 000000
602AZ007231A8100014456320076620PHOENIX                 ARIZ  050113111A007A17FAN26MAN20UN45 000000
602AZ007231A8100014456320076620PHOENIX                 ARIZ  050113111A008A29MWN30MWH13ST99 000000
602AZ007231A8100014456320076620PHOENIX                 ARIZ  050113111A009C32MWH25MWN12UN99 000002                                                  41MWH12UN99 51FWH12UN99
602AZ007231A8100014456320076620PHOENIX                 ARIZ  050113111A010C35MBN20MBN11UN99 000001                                                  25MBN11UN99
602AZ007231A8100014456320076620PHOENIX                 ARIZ  050113111A011C34MWH00MWH30UN99 000001                                                  00MWH30UN99
602AZ007231A8100014456320076620PHOENIX                 ARIZ  061110101A001A65FW 56MW 11WI45 000000
602AZ007231A8100014456320076620PHOENIX                 ARIZ  061018100A002C22MWH17MWH13UN99 000002                                                  16FWH13UN99 19MIU13UN99
602AZ007231A8100014456320076620PHOENIX                 ARIZ  061018100A003A29MBU21MWH11UN45 000000
602AZ007231A8100014456320076620PHOENIX                 ARIZ  061020101A004A21MW 00MU 11UN03 000000
602AZ007231A8100014456320076620PHOENIX                 ARIZ  061018100A005B20MWH00UUU11UN99 000000
602AZ007231A8100014456320076620PHOENIX                 ARIZ  061018100A006B50FWH00UUU30UN99 000000
602AZ007231A8100014456320076620PHOENIX                 ARIZ  061020101A008A21MW 00MU 30UN03 000000
602AZ007231A8100014456320076620PHOENIX                 ARIZ  061020101B009A01FB 33MB 85OF59 000000
602AZ007231A8100014456320076620PHOENIX                 ARIZ  070113111A001A79MWH38FIN85HU60 000000
602AZ007231A8100014456320076620PHOENIX                 ARIZ  070113111A002A40MBN00MBN12ST99 000000
602AZ007231A8100014456320076620PHOENIX                 ARIZ  070113111A003B57FWN00UUU12UN99 000000
602AZ007231A8100014456320076620PHOENIX                 ARIZ  070113111A004C22MWH00MWH12ST18 000002                                                  00MWH12ST18 00MWH12ST18
602AZ007231A8100014456320076620PHOENIX                 ARIZ  070113111A005B50MWN00UUU30UN99 000000
602AZ007231A8100014456320076620PHOENIX                 ARIZ  070113111A006B33MWN00UUU20UN99 000000
602AZ007231A8100014456320076620PHOENIX                 ARIZ  070113111A007A19MWH00MWH12ST18 000000
602AZ007231A8100014456320076620PHOENIX                 ARIZ  070113111A008C31MWH25MBN12ST18 000002                                                  38MBH12ST18 35MBN12ST18
602AZ007231A8100014456320076620PHOENIX                 ARIZ  070113111A009B52MBN00UUU11UN99 000000
602AZ007231A8100014456320076620PHOENIX                 ARIZ  070113111A010C29MWH28MWH12ST81A000001                                                  25MWH12ST81A
602AZ007231A8100014456320076620PHOENIX                 ARIZ  070120111A011E26MB 00MW 12ST81A00100131MB                                              00MW 12ST81A
602AZ007231A8100014456320076620PHOENIX                 ARIZ  080104110A001B27MWH00UUU12UN45 000000
602AZ007231A8100014456320076620PHOENIX                 ARIZ  080104110A002B18MBN00UUU11UN26 000000
602AZ007231A8100014456320076620PHOENIX                 ARIZ  080104110A003B57MWH00UUU11UN26 000000
602AZ007231A8100014456320076620PHOENIX                 ARIZ  080104110A004B50MWH00UUU11UN26 000000
602AZ007231A8100014456320076620PHOENIX                 ARIZ  080104110A005B37MWN00UUU12UN26 000000
602AZ007231A8100014456320076620PHOENIX                 ARIZ  080104110A006A36MWH35MWH55AQ44 000000
602AZ007231A8100014456320076620PHOENIX                 ARIZ  080104110A007A43MWH26MWH20FR45 000000
602AZ007231A8100014456320076620PHOENIX                 ARIZ  080104110A008B14MWH00UUU11UN26 000000
602AZ007231A8100014456320076620PHOENIX                 ARIZ  080104110A009B25MWH00UUU12UN26 000000
602AZ007231A8100014456320076620PHOENIX                 ARIZ  080104110A010C32MWH00MWH11UN26 000001                                                  00MWH11UN26
602AZ007231A8100014456320076620PHOENIX                 ARIZ  080104110A011A20MBN28MWH14AQ80C000000
602AZ007231A8100014456320076620PHOENIX                 ARIZ  090113110A001A55MWN37MWN14AQ45 000000
602AZ007231A8100014456320076620PHOENIX                 ARIZ  090113110A002A32MWH00MWH12UN99 000000
602AZ007231A8100014456320076620PHOENIX                 ARIZ  090113110A003A52MWN26MWH12ST03 000000
602AZ007231A8100014456320076620PHOENIX                 ARIZ  090113110A004C37MWH26FWN11AQ26 000001                                                  32MWH11AQ26
602AZ007231A8100014456320076620PHOENIX                 ARIZ  090113110A005A45MBN41MAN12ST45 000000
602AZ007231A8100014456320076620PHOENIX                 ARIZ  090113110A006A18MWH00MUU11ST42 000000
602AZ007231A8100014456320076620PHOENIX                 ARIZ  090113110A007A38FWN44MWH80WI99 000000
602AZ007231A8100014456320076620PHOENIX                 ARIZ  090113110A008C21MBN00MBN12ST81A000001                                                  34MWN12ST81A
602AZ007231A8100014456320076620PHOENIX                 ARIZ  100208110A001A29MWH36MWU12ST81A000000
602AZ007231A8100014456320076620PHOENIX                 ARIZ  100216111A002D27MB 30MB 12AQ45 00100070MB
602AZ007231A8100014456320076620PHOENIX                 ARIZ  100216111A004F22MW 00UU 12UN18 00100027MW
602AZ007231A8100014456320076620PHOENIX                 ARIZ  100208110A006A44FWU48MWU12WI44 000000
602AZ007231A8100014456320076620PHOENIX                 ARIZ  100216111A007A00FU 00MW 90UN99 000000
602AZ007231A8100014456320076620PHOENIX                 ARIZ  100216111A008D50MW 81MW 12SO99 00100079FW
602AZ007231A8100014456320076620PHOENIX                 ARIZ  100216111A009A00MW 29MW 12ST81A000000
602AZ007231A8100014456320076620PHOENIX                 ARIZ  100208110A010A21MWH15MWH12AQ80G000000
602AZ007231A8100014456320076620PHOENIX                 ARIZ  100208110A011A38MWU27MWU12UN45 000000
602AZ007231A8100014456320076620PHOENIX                 ARIZ  100208110A012A02MWU24MWH90OK99 000000
602AZ007231A8100014456320076620PHOENIX                 ARIZ  100216111A013A00MW 32MW 12ST81A000000
602AZ007231A8100014456320076620PHOENIX                 ARIZ  110222110A001A33MWU36MWU12AQ80C000000
602AZ007231A8100014456320076620PHOENIX                 ARIZ  110222110A002A16MBU18MWH11AQ99 000000
602AZ007231A8100014456320076620PHOENIX                 ARIZ  110222110A003F34MIU00UUU11UN99 00100037MWH
602AZ007231A8100014456320076620PHOENIX                 ARIZ  110222110A004B13MWH00UUU12UN99 000000
602AZ007231A8100014456320076620PHOENIX                 ARIZ  110222110A005C48MWU00MWH11UN03 000001                                                  00MWH11UN03
602AZ007231A8100014456320076620PHOENIX                 ARIZ  110222110A006B24MWH00UUU12ST80C000000
602AZ007231A8100014456320076620PHOENIX                 ARIZ  110222110A007A30MWH00MBU14ST44 000000
602AZ007231A8100014456320076620PHOENIX                 ARIZ  110222110A008B23MWH00UUU13UN99 000000
602AZ007231A8100014456320076620PHOENIX                 ARIZ  110222110A009B30FWU00UUU11UN99 000000
602AZ007231A8100014456320076620PHOENIX                 ARIZ  110222110A010A36MWU33FBU12ST99 000000
602AZ007231A8100014456320076620PHOENIX                 ARIZ  110222110A011A00MWH49MWH12ST80C000000
602AZ007231A8100014456320076620PHOENIX                 ARIZ  110224111A012E12MW 00MW 13UN45 00100148MW                                              00MW 13UN45
602AZ007231A8100014456320076620PHOENIX                 ARIZ  110222110A013B25MWH00UUU20UN45 000000
602AZ007231A8100014456320076620PHOENIX                 ARIZ  110222110A014A30MBU00MBU11UN99 000000
602AZ007231A8100014456320076620PHOENIX                 ARIZ  120404110A001A63FWN82FWN55AQ45 000000
602AZ007231A8100014456320076620PHOENIX                 ARIZ  120406111A002B27FW 00UU 80UN99 000000
602AZ007231A8100014456320076620PHOENIX                 ARIZ  120404110A003A87MWU44MWN30AQ99 000000
602AZ007231A8100014456320076620PHOENIX                 ARIZ  120404110A004A36FWN67MWH11FR45 000000
602AZ007231A8100014456320076620PHOENIX                 ARIZ  120404110A005ABBMWH20MWH90SO99 000000
602AZ007231A8100014456320076620PHOENIX                 ARIZ  120404110A006A16MWH18MWH12FR99 000000
602AZ007231A8100014456320076620PHOENIX                 ARIZ  120404110A007A18MWH41MWN11ST80C000000
602AZ007231A8100014456320076620PHOENIX                 ARIZ  120404110A008A48FWN34FWN20AQ45 000000
602AZ007231A8100014456320076620PHOENIX                 ARIZ  120404110A009A27MWH19MWH12BR99 000000
602AZ007231A8100014456320076620PHOENIX                 ARIZ  120404110A010A06MWH19MWH12OF99 000000
602AZ007231A8100014456320076620PHOENIX                 ARIZ  120404110A011C39MWN32MWN12ST81A000001                                                  34MWN12ST81A
602AZ007231A8100014456320076620PHOENIX                 ARIZ  120404110A012B51MWN00UUU11UN99 000000
602AZ007231A8100014456320076620PHOENIX                 ARIZ  120406111A013A20MW 24MB 12UN03 000000
602AZ007231A8100014456320076620PHOENIX                 ARIZ  120404110A014A25MWN32MAN12ST80C000000
602AZ007231A8100014456320076620PHOENIX                 ARIZ  120404110A015D20MWH28MWN12ST99 00100034MWN
602AZ007231A8100014456320076620PHOENIX                 ARIZ  120406111A017B24MW 00UU 11UN99 000000
602AZ007231A8100014456320076620PHOENIX                 ARIZ  120404110A018B01MWH00UUU80OF99 000000
602AZ007231A8100014456320076620PHOENIX                 ARIZ  120406111B019C66FW 64MA 85OK59 000001                                                  65FA 85OK59
602AZ007252 8100002173850076620SCOTTSDALE              ARIZ  010621100A001A44MWN32MWN12ST80E000000
602AZ007252 8100002173850076620SCOTTSDALE              ARIZ  030908101A001D01MW 39MW 12SO99 00100005MW
602AZ007252 8100002173850076620SCOTTSDALE              ARIZ  040907100A001A40MWU39MWN12ST81A000000
602AZ007252 8100002173850076620SCOTTSDALE              ARIZ  060104111A001A38MWN68MWN13SO80E000000
602AZ007252 8100002173850076620SCOTTSDALE              ARIZ  071229100A001A57MWU53FWN12HU99 000000
602AZ007252 8100002173850076620SCOTTSDALE              ARIZ  100208110A001A58FWN52MWN85GF45 000000
602AZ007272 8100001175170076620SURPRISE                ARIZ  090113110B001A14MWH14MWN12FR52 000000
602AZ007292 8100001617190076620TEMPE                   ARIZ  010113111A001A24FWH24MWH12OK45 000000
602AZ007292 8100001617190076620TEMPE                   ARIZ  010314111A002A18MI 25MI 20HO45 000000
602AZ007292 8100001617190076620TEMPE                   ARIZ  010314111A003A25MI 18MI 20HO45 000000
602AZ007292 8100001617190076620TEMPE                   ARIZ  030104111A001A27MWN19FWN20BF40 000000
602AZ007292 8100001617190076620TEMPE                   ARIZ  050917100A001A21FWN00MWH90ST99 000000
602AZ007292 8100001617190076620TEMPE                   ARIZ  050917100A002A27FWN49MWN12GF40 000000
602AZ007292 8100001617190076620TEMPE                   ARIZ  061018100A001B34MWH00UUU11UN26 000000
602AZ007292 8100001617190076620TEMPE                   ARIZ  080104110A001F48MWN00UUU12UN99 00100019MWN
602AZ007292 8100001617190076620TEMPE                   ARIZ  090113110A001B48MBN00UUU20AQ99 000000
602AZ007292 8100001617190076620TEMPE                   ARIZ  100208110A001B21MWN00UUU12ST03 000000
602AZ007336 8100000063630076621WICKENBURG              ARIZ  120404110A001B46FAN00UUU90UN99 000000
602AZ008009B8100000752300084191MOHAVE                  ARIZ  010621100A001A55MWN48MWN12FR60 000000
602AZ008009B8100000752300084191MOHAVE                  ARIZ  040113110A001B37MWN00UUU13UN18 000000
602AZ008009B8100000752300084191MOHAVE                  ARIZ  070104110A001A37MWN53MWN12OK45 000000
602AZ008009B8100000752300084191MOHAVE                  ARIZ  100208110A001A54MWU20MWU90UN99 000000
602AZ008014 8100000280680084190KINGMAN                 ARIZ  070208110A001A18MWN27MWN20AQ42 000000
602AZ008014 8100000280680084190KINGMAN                 ARIZ  090208110B001ABBFWN21MWN90DA59 000000
602AZ008043 8100000525270084190LAKE HAVASU CITY        ARIZ  050917100A001A46MWN39MWN12OF99 000000
602AZ008043 8100000525270084190LAKE HAVASU CITY        ARIZ  071229100A001A45FWN37MWN12UN99 000000
602AZ008043 8100000525270084190LAKE HAVASU CITY        ARIZ  080104110A001D42MWU26MWN12ST70 00400024MWU23FWN20FWU20MWU
602AZ008043 8100000525270084190LAKE HAVASU CITY        ARIZ  120404110A001A84FWN43MWN14MO99 000000
602AZ008054 8100000395400084191BULLHEAD CITY           ARIZ  061018100A001ABBMWN24MWN90SO17 000000
602AZ008054 8100000395400084191BULLHEAD CITY           ARIZ  100208110A001A32MWN33MWH12ST44 000000
602AZ008054 8100000395400084191BULLHEAD CITY           ARIZ  100208110A002A24MWN29MWH40ST44 000000
602AZ009008B810000068097009   0NAVAJO                  ARIZ  080104110A001A58FWN53MWN12WI45 000000
602AZ009035 810000010660009   0SHOW LOW                ARIZ  100208110A001A38MWN33MWN12AQ44 000000
602AZ009056 810000009702009   0SNOWFLAKE-TAYLOR        ARIZ  010621100A001A34MIN18MWN20AQ42 000000
602AZ009056 810000009702009   0SNOWFLAKE-TAYLOR        ARIZ  050113110A001A05FBN52FWN12OF99 000000
602AZ010009A8100003532640109061PIMA                    ARIZ  010817100A001A56MWN32MWN30FA45 000000
602AZ010009A8100003532640109061PIMA                    ARIZ  010817100A002A52FWH53MWH12WI45 000000
602AZ010009A8100003532640109061PIMA                    ARIZ  030104111A001A32MWH25MWH30ST26 000000
602AZ010009A8100003532640109061PIMA                    ARIZ  030104111A002A28MWH25MWH12ST45 000000
602AZ010009A8100003532640109061PIMA                    ARIZ  030107111A003D36FW 00MW 12UN18 00100036MW
602AZ010009A8100003532640109061PIMA                    ARIZ  040104111A001A61MWN67MWN13EE44 000000
602AZ010009A8100003532640109061PIMA                    ARIZ  040104111A002C30MWH31MWH12ST18 000001                                                  33MWH12ST18
602AZ010009A8100003532640109061PIMA                    ARIZ  050917100A001A41FWH37MWH13GF45 000000
602AZ010009A8100003532640109061PIMA                    ARIZ  061018100A001A31MWU00MUU12ST99 000000
602AZ010009A8100003532640109061PIMA                    ARIZ  071229100A001A28MWU20MWU90AQ26 000000
602AZ010009A8100003532640109061PIMA                    ARIZ  071229100A002A50MWU54MWU12AQ44 000000
602AZ010009A8100003532640109061PIMA                    ARIZ  080104110A001A06MWH23MBN55SS99 000000
602AZ010009A8100003532640109061PIMA                    ARIZ  080104110A002A28MBN47MWH12AQ18 000000
602AZ010009A8100003532640109061PIMA                    ARIZ  080104110A003A58MWN25MWN90FA42 000000
602AZ010009A8100003532640109061PIMA                    ARIZ  080104110A004A53FWH57MWN20GF45 000000
602AZ010009A8100003532640109061PIMA                    ARIZ  080104110A005A57MWN00MWN12UN26 000000
602AZ010009A8100003532640109061PIMA                    ARIZ  090113110A001B24MWH00UUU12UN18 000000
602AZ010009A8100003532640109061PIMA                    ARIZ  090113110A002A18MWH18FWH12AQ45 000000
602AZ010009A8100003532640109061PIMA                    ARIZ  090113110A003A45MWN17MWH14AQ99 000000
602AZ010009A8100003532640109061PIMA                    ARIZ  100404110A001A53MWN00MWN12UN99 000000
602AZ010009A8100003532640109061PIMA                    ARIZ  100404110A002D51MWN36MBN20AQ99 00100071MWN
602AZ010009A8100003532640109061PIMA                    ARIZ  100404110A003A51MWH16MWH20ST45 000000
602AZ010009A8100003532640109061PIMA                    ARIZ  100404110A004A62MWH66MWH80AQ99 000000
602AZ010009A8100003532640109061PIMA                    ARIZ  110222110A001A27MWH22MBU12ST03 000000
602AZ010009A8100003532640109061PIMA                    ARIZ  120404110A001B21FWN00UUU90UN18 000000
602AZ010031B8100005201160109060TUCSON                  ARIZ  010621100A001A23MWH25MWH12FR45 000000
602AZ010031B8100005201160109060TUCSON                  ARIZ  010621100A002A24MWH19MWH12ST45 000000
602AZ010031B8100005201160109060TUCSON                  ARIZ  010621100A003A26MBN28MBN12ST42 000000
602AZ010031B8100005201160109060TUCSON                  ARIZ  020817100A001C31MWN30MBN12AQ03 000002                                                  30MBN12AQ03 33MWN12AQ03
602AZ010031B8100005201160109060TUCSON                  ARIZ  020817100A002C28MBN26MBN12ST45 000001                                                  25MBN12ST45
602AZ010031B8100005201160109060TUCSON                  ARIZ  030104111A001D49MWN27MWH12AQ17 00100040MWN
602AZ010031B8100005201160109060TUCSON                  ARIZ  030104111A002B60MWN00UUU20UN99 000000
602AZ010031B8100005201160109060TUCSON                  ARIZ  030104111A003A61MWN44MWH90UN99 000000
602AZ010031B8100005201160109060TUCSON                  ARIZ  030104111A004ANBMWN20FWH90SO99 000000
602AZ010031B8100005201160109060TUCSON                  ARIZ  030104111A005ABBFWH25MWH90DA99 000000
602AZ010031B8100005201160109060TUCSON                  ARIZ  040104111A001A25MWH22MWH12ST80E000000
602AZ010031B8100005201160109060TUCSON                  ARIZ  040107111A002A22MW 25MW 20ST42 000000
602AZ010031B8100005201160109060TUCSON                  ARIZ  040104111A003A18MWH21MWH12AQ26 000000
602AZ010031B8100005201160109060TUCSON                  ARIZ  040104111A004A24MWH23MBN15ST46 000000
602AZ010031B8100005201160109060TUCSON                  ARIZ  040107111A005A22MW 24MW 20ST42 000000
602AZ010031B8100005201160109060TUCSON                  ARIZ  050104111A001A18MWH28MWH14ST80C000000
602AZ010031B8100005201160109060TUCSON                  ARIZ  050104111A002A53FWH56MWH14WI99 000000
602AZ010031B8100005201160109060TUCSON                  ARIZ  061018100A001A46FWN26MWH80AQ26 000000
602AZ010031B8100005201160109060TUCSON                  ARIZ  061018100A002A39MWN54MWH12UN99 000000
602AZ010031B8100005201160109060TUCSON                  ARIZ  061018100A003A29MWH22FWH12AQ45 000000
602AZ010031B8100005201160109060TUCSON                  ARIZ  061018100A004B18FIN00UUU20UN99 000000
602AZ010031B8100005201160109060TUCSON                  ARIZ  061018100A005A27MWH24MBN20FR44 000000
602AZ010031B8100005201160109060TUCSON                  ARIZ  061018100A006A30MWH27MWH14FR99 000000
602AZ010031B8100005201160109060TUCSON                  ARIZ  071229100A001A54MWN25MWH12ST03 000000
602AZ010031B8100005201160109060TUCSON                  ARIZ  071229100A002A36MWH30MBN12ST45 000000
602AZ010031B8100005201160109060TUCSON                  ARIZ  071229100A003A28MWN20MWH30ST45 000000
602AZ010031B8100005201160109060TUCSON                  ARIZ  071229100A004A24MBN32FWH12AQ80E000000
602AZ010031B8100005201160109060TUCSON                  ARIZ  080104110A001C24MBN21MWH12UN46 000001                                                  25MWH12UN46
602AZ010031B8100005201160109060TUCSON                  ARIZ  080104110A002A21MWH25MWH12UN45 000000
602AZ010031B8100005201160109060TUCSON                  ARIZ  080104110A003A35MWH16MWH12ST45 000000
602AZ010031B8100005201160109060TUCSON                  ARIZ  080104110A004A16MBN17MBN20AQ45 000000
602AZ010031B8100005201160109060TUCSON                  ARIZ  080104110A005B24MWN00UUU12UN03 000001                                                  00UUU12UN03
602AZ010031B8100005201160109060TUCSON                  ARIZ  080104110A006C27MWH26MBN12AQ18 000001                                                  26MBN12AQ18
602AZ010031B8100005201160109060TUCSON                  ARIZ  080104110A007B36MBN00UUU12UN99 000000
602AZ010031B8100005201160109060TUCSON                  ARIZ  080104110A008A25MWH25MWH20AQ45 000000
602AZ010031B8100005201160109060TUCSON                  ARIZ  080104110A009B22MWH00UUU12UN18 000000
602AZ010031B8100005201160109060TUCSON                  ARIZ  080104110A010A51MWN00MWH20ST45 000000
602AZ010031B8100005201160109060TUCSON                  ARIZ  080104110A011A20MBN31MBN12ST80E000000
602AZ010031B8100005201160109060TUCSON                  ARIZ  090113110A001B61MWH00UUU13UN45 000000
602AZ010031B8100005201160109060TUCSON                  ARIZ  090113110A002C31MWH00MWH12UN99 000001                                                  00MWH12UN99
602AZ010031B8100005201160109060TUCSON                  ARIZ  090113110A003A33MBN39MBN12AQ99 000000
602AZ010031B8100005201160109060TUCSON                  ARIZ  090113110A004A54FWN54MWN20XW45 000000
602AZ010031B8100005201160109060TUCSON                  ARIZ  090113110A005C36MBN29MBN12AQ45 000001                                                  21MBN12AQ45
602AZ010031B8100005201160109060TUCSON                  ARIZ  090113110A006A02MWN30FWN90SO60 000000
602AZ010031B8100005201160109060TUCSON                  ARIZ  100208110A001B20MWH00UUU12UN99 000000
602AZ010031B8100005201160109060TUCSON                  ARIZ  100208110A002B28FWH00UUU12UN99 000000
602AZ010031B8100005201160109060TUCSON                  ARIZ  100208110A003C38MWH16FWH30FA26 000001                                                  19MWH30AQ26
602AZ010031B8100005201160109060TUCSON                  ARIZ  100208110A004C30MWN28FWN12ST81A000003                                                  32MWH12ST81A34MWH12ST81A58MWH12ST81A
602AZ010031B8100005201160109060TUCSON                  ARIZ  100208110A005A34MIN32MWN12ST81A000000
602AZ010031B8100005201160109060TUCSON                  ARIZ  100208110A006C73MWN00MWN12ST81A000001                                                  30MWN12ST81A
602AZ010031B8100005201160109060TUCSON                  ARIZ  110804111A002A19MW 25MW 20ST80C000000
602AZ010031B8100005201160109060TUCSON                  ARIZ  110713111A003A22MWN00MUU12UN99 000000
602AZ010031B8100005201160109060TUCSON                  ARIZ  110713111A004A30MWN31MWN30AQ45 000000
602AZ010031B8100005201160109060TUCSON                  ARIZ  120404110A001A30FWN57MWN14AQ45 000000
602AZ010031B8100005201160109060TUCSON                  ARIZ  120404110A002C54MWN00MUU12UN99 000002                                                  00MUU12UN99 00MUU12UN99
602AZ010031B8100005201160109060TUCSON                  ARIZ  120404110A003A24MWH00MUU12UN42 000000
602AZ010031B8100005201160109060TUCSON                  ARIZ  120404110A004A63FWN57MWN12WI99 000000
602AZ010107 8100000000000109061TUCSON AIRPORT AUTHORITYARIZ  100208110A001B00MWH00UUU12UN18 000000
602AZ011009A8100001879660116621PINAL                   ARIZ  050917100A001A25MWN24MWH13AQ99 000000
602AZ011009A8100001879660116621PINAL                   ARIZ  060404110A001A25MWN24MWH13AQ45 000000
602AZ011009A8100001879660116621PINAL                   ARIZ  060124121A002F00FU 00UU 11UN99 00100000FU
602AZ011009A8100001879660116621PINAL                   ARIZ  080208110A001A44MIN22MIN90AQ99 000000
602AZ011009A8100001879660116621PINAL                   ARIZ  090208110A001D10MUU45MWH12SO99 00200037FWU08FWU
602AZ011009A8100001879660116621PINAL                   ARIZ  100208110A001A33MWN00MUU12IL99 000000
602AZ011009A8100001879660116621PINAL                   ARIZ  100208110A002B30MWH00UUU12UN99 000000
602AZ011009A8100001879660116621PINAL                   ARIZ  110222110A001A33MWN00MUU15IL99 000000
602AZ011009A8100001879660116621PINAL                   ARIZ  110222110A002A35FWN39MWN12XW99 000000
602AZ011014 8100000485710116621CASA GRANDE             ARIZ  010621100A001A43FWN20MWN20ST60 000000
602AZ011055 8100000166310116621ELOY                    ARIZ  020104111A001A26MWH00MWN20AQ48 000000
602AZ011055 8100000166310116621ELOY                    ARIZ  040208110A001A17MBN18MWH20AQ42 000000
602AZ011055 8100000166310116621ELOY                    ARIZ  060208110A001A23MWH21MWH80AQ45 000000
602AZ011055 8100000166310116621ELOY                    ARIZ  071229100A001C22MWH15MWH13AQ45 000001                                                  22MWH13AQ45
602AZ011134 8100000358400116621APACHE JUNCTION         ARIZ  110210120A001A29MW 49MW 12UN99 000000
602AZ013009B8100000876760136881YAVAPAI                 ARIZ  020713110A001A43MWN26MWN12UN99 000000
602AZ013009B8100000876760136881YAVAPAI                 ARIZ  040907100A001A46FWN67MWN12AQ99 000000
602AZ013009B8100000876760136881YAVAPAI                 ARIZ  061018100A001A73MWU57MWU30FR18 000000
602AZ013009B8100000876760136881YAVAPAI                 ARIZ  080113111A001A38FWH34MWH12AQ99 000000
602AZ013009B8100000876760136881YAVAPAI                 ARIZ  080113110A002A62FWN52MWN12GF45 000000
602AZ013009B8100000876760136881YAVAPAI                 ARIZ  100404110A001A60FWN57MWN12AQ99 000000
602AZ013009B8100000876760136881YAVAPAI                 ARIZ  120404110A001A67FWN18MWN20ER99 000000
602AZ013114 8100000388220136881PRESCOTT VALLEY         ARIZ  070113110A001A54MWN41MWN20AQ99 000000
602AZ014009B8100000600130149921YUMA                    ARIZ  030210120A001B33MW 00UU 11UN99 000000
602AZ014009B8100000600130149921YUMA                    ARIZ  030210120A002A01MW 23MW 90SO60 000000
602AZ014009B8100000600130149921YUMA                    ARIZ  040210120A001A32MW 36MW 20IL45 000000
602AZ014009B8100000600130149921YUMA                    ARIZ  040210120A002A34MW 26MW 20AQ45 000000
602AZ014009B8100000600130149921YUMA                    ARIZ  090210120A001A54MW 22MW 11OK03 000000
602AZ014053 8100000930640149920YUMA                    ARIZ  030823100A001A17MWH19MWH20BR45 000000
602AZ014053 8100000930640149920YUMA                    ARIZ  050917100A001C22MIN23MWH20ST99 000002                                                  32MWN20UN99 33MWH20ST99
602AZ014053 8100000930640149920YUMA                    ARIZ  071229100A001A00MIN31MWH20AQ42 000000
603AR001008D710000006401001   0ARKANSAS                ARK   010210120A001B35FW 00UU 11UN99 000000
603AR001026 710000009326001   0STUTTGART               ARK   020210120A001B55MB 00UU 11UN60 000000
603AR001026 710000009326001   0STUTTGART               ARK   070210120A001B00FW 00UU 30UN99 000000
603AR001026 710000009326001   0STUTTGART               ARK   080210120A001A48MW 18MW 14UN05 000000
603AR002008C710000013489002   0ASHLEY                  ARK   070210120A001B58FB 00UU 12UN99 000000
603AR002008C710000013489002   0ASHLEY                  ARK   100210120A001A19FW 19MB 12AQ60 000000
603AR002016 710000005507002   0CROSSETT                ARK   070210120A001A31MB 32MB 12UN45 000000
603AR003008B710000025276003   0BAXTER                  ARK   090210120A001C43MW 32FW 11XH60 000001                                                  29FW 11OK60
603AR003008B710000025276003   0BAXTER                  ARK   110210120A001A43MW 38FW 13BF45 000000
603AR003008B710000025276003   0BAXTER                  ARK   120210120A001D56FW 52MW 11WI99 00100020MW
603AR004023 7100000559640042700ROGERS                  ARK   060210120A001C28MI 00UU 20UN45 000007                                                  18MW 20UN45 25MW 20UN45 22MW 20UN45 24MW 20UN45 17MW 20UN45 18MW 20UN45 44FW 20UN45
603AR004023 7100000559640042700ROGERS                  ARK   080210120A001ABBMW 27FW 85SO60 000000
603AR004023 7100000559640042700ROGERS                  ARK   100210120A001A54MW 43MW 11ST81A000000
603AR005008C710000023178005   0BOONE                   ARK   070210120A001D56FW 55MW 12OF45 00100057FW
603AR005008C710000023178005   0BOONE                   ARK   080210120A001A45FW 60MW 13WI45 000000
603AR005008C710000023178005   0BOONE                   ARK   090210120A001A49MW 49MU 20AQ99 000000
603AR008027 710000002073008   0EUREKA SPRINGS          ARK   010210120A001A45FW 41MW 90UN99 000000
603AR010015 710000010714010   0ARKADELPHIA             ARK   060210120A001A30MB 23MB 11UN45 000000
603AR012008C710000016999012   0CLEBURNE                ARK   110210120A001A37MW 61MW 14ST80E000000
603AR014008C710000012975014   0COLUMBIA                ARK   030210120A001A46MB 21MB 12SF45 000000
603AR016009C7100000203860163961CRAIGHEAD               ARK   110210120A001A00UU 23MB 12UN45 000000
603AR016009C7100000203860163961CRAIGHEAD               ARK   120210120A001B83FW 00UU 30UN60 000000
603AR016013 7100000672630163960JONESBORO               ARK   100210120A001A33MB 30MB 15UN45 000000
603AR016013 7100000672630163960JONESBORO               ARK   110210120A001C28MB 23MB 11AQ26 000001                                                  21FB 11UN26
603AR016057 7100000000000163961AR STATE UNIV: JONESBOROARK   040210120A001B24MB 00UU 11UN45 000000
603AR018009D7100000098980185191CRITTENDEN              ARK   020210120A001A33MB 26MB 12AQ45 000000
603AR018014 7100000262450185191WEST MEMPHIS            ARK   050210120A001A38FB 37MB 12UN99 000000
603AR018014 7100000262450185191WEST MEMPHIS            ARK   050210120A002E39MW 45MW 13UN60 00100138MW                                              00MW 13UN60
603AR018014 7100000262450185191WEST MEMPHIS            ARK   060210120A001C29MB 24MB 11UN18 000001                                                  26MB 11UN18
603AR018014 7100000262450185191WEST MEMPHIS            ARK   090210120A001A26MB 26MB 11UN60 000000
603AR018014 7100000262450185191WEST MEMPHIS            ARK   100210120A001B20MB 00UU 11UN99 000000
603AR019008D710000009503019   0CROSS                   ARK   060210120A001A80FW 34MU 11UN99 000000
603AR021016 710000004219021   0MCGEHEE                 ARK   020210120A001B72UW 00UU 20UN60 000000
603AR023009B7100000428360234691FAULKNER                ARK   010210120A001A49MW 40MW 90UN60 000000
603AR023009B7100000428360234691FAULKNER                ARK   080210120A001A26FW 34MW 40GF99 000000
603AR023013 7100000589080234690CONWAY                  ARK   070210120A001A32MW 21MB 12OK45 000000
603AR023013 7100000589080234690CONWAY                  ARK   090210120A001A20MB 18MB 12UN45 000000
603AR023013 7100000589080234690CONWAY                  ARK   110210120A001C26MW 22MU 12UN99 000001                                                  24MW 12AQ99
603AR023013 7100000589080234690CONWAY                  ARK   120210120A001A26FB 32MB 12AQ99 000000
603AR026009B7100000608310263561GARLAND                 ARK   040210120A001A40MW 24MW 12UN99 000000
603AR026009B7100000608310263561GARLAND                 ARK   080210120A001A37MW 35MW 12UN45 000000
603AR026014 7100000351930263560HOT SPRINGS             ARK   020210120A001A47MW 48FW 20CH45 000000
603AR026014 7100000351930263560HOT SPRINGS             ARK   020210120A002C53MB 29MW 20AQ99 000001                                                  33FW 20AQ99
603AR026014 7100000351930263560HOT SPRINGS             ARK   020210120A003A53FI 23MB 11UN60 000000
603AR026014 7100000351930263560HOT SPRINGS             ARK   040210120A001A19FW 21MB 12GF45 000000
603AR026014 7100000351930263560HOT SPRINGS             ARK   070210120A001A36MB 35MB 11AQ99 000000
603AR026014 7100000351930263560HOT SPRINGS             ARK   090210120A001A25MW 29MW 40UN45 000000
603AR026014 7100000351930263560HOT SPRINGS             ARK   110210120A001A47MB 28MB 12AQ45 000000
603AR027009C7100000132500274691GRANT                   ARK   120210120A001F65MW 00UU 11UN99 00100038FW
603AR027016 7100000046030274691SHERIDAN                ARK   120210120A001A36FW 37MW 11UN60 000000
603AR030015 710000010318030   0MALVERN                 ARK   110210120A001A53MW 19MW 14AQ45 000000
603AR032008B710000036647032   0INDEPENDENCE            ARK   020210120A001C40MW 15MW 13SS45 000001                                                  15MW 13UN45
603AR033008C710000011537033   0IZARD                   ARK   100210120A001B00UU 00UU 90UN60 000000
603AR034016 710000007879034   0NEWPORT                 ARK   080210120A001A01MB 21MB 90SO60 000000
603AR035009C7100000205450356641JEFFERSON               ARK   010210120A001E59MW 18MW 30UN07 00100200FB                                              16MW 30UN07 15MB 30UN07
603AR035014 7100000490830356640PINE BLUFF              ARK   010210120A001C18FB 00MB 13UN60 000001                                                  00MB 13UN60
603AR035014 7100000490830356640PINE BLUFF              ARK   010210120A002B23MB 00UU 12UN99 000000
603AR035014 7100000490830356640PINE BLUFF              ARK   030210120A001A21FB 44MB 12GF45 000000
603AR035014 7100000490830356640PINE BLUFF              ARK   050210120A001B34MB 00UU 12UN99 000000
603AR035014 7100000490830356640PINE BLUFF              ARK   050210120A002A20MB 22MB 12UN99 000000
603AR035014 7100000490830356640PINE BLUFF              ARK   110210120A001F64FB 00UU 90UN99 00100060MB
603AR036008C710000016362036   0JOHNSON                 ARK   060210120A001B40FW 00UU 30UN99 000000
603AR047008C710000015274047   0MISSISSIPPI             ARK   110210120A001A71FW 65FW 12HO99 000000
603AR047015 710000015620047   0BLYTHEVILLE             ARK   020210120A001C70MB 18MB 11UN99 000001                                                  27MB 11UN99
603AR047015 710000015620047   0BLYTHEVILLE             ARK   040210120A001B35MB 00UU 11UN99 000000
603AR047015 710000015620047   0BLYTHEVILLE             ARK   050210120A001A48MB 31MB 12AQ60 000000
603AR047015 710000015620047   0BLYTHEVILLE             ARK   060210120A001A40MB 51MB 12OF45 000000
603AR047015 710000015620047   0BLYTHEVILLE             ARK   060210120A002A30MB 19MB 12AQ99 000000
603AR047015 710000015620047   0BLYTHEVILLE             ARK   070210120A001A15MB 16MB 12AQ99 000000
603AR047015 710000015620047   0BLYTHEVILLE             ARK   080210120A001B23MB 00UU 12UN99 000000
603AR047015 710000015620047   0BLYTHEVILLE             ARK   090210120A001A34MB 23MB 11UN99 000000
603AR047015 710000015620047   0BLYTHEVILLE             ARK   110210120A001A36FB 39MB 20OK99 000000
603AR047015 710000015620047   0BLYTHEVILLE             ARK   120210120A001B64MB 00UU 11UN99 000000
603AR048016 710000003188048   0BRINKLEY                ARK   010210120A001A31MB 23UU 12AQ45 000000
603AR051008D710000008330051   0NEWTON                  ARK   060210120A001A40FW 48MW 14GF45 000000
603AR052015 710000012183052   0CAMDEN                  ARK   080210120A001A23MB 36MB 12UN45 000000
603AR052015 710000012183052   0CAMDEN                  ARK   110210120A001C56MB 00UU 12UN99 000001                                                  21MB 12UN99
603AR060014 7100000283640604691JACKSONVILLE            ARK   090210120A001A23MB 20MB 30FR99 000000
603AR060022 7100001935240604690LITTLE ROCK             ARK   010210120A001A30MB 23MB 12UN99 000000
603AR060022 7100001935240604690LITTLE ROCK             ARK   010210120A002A30MB 42MB 12AQ45 000000
603AR060022 7100001935240604690LITTLE ROCK             ARK   020210120A001B00MB 00UU 11UN99 000000
603AR060022 7100001935240604690LITTLE ROCK             ARK   020210120A002A30MB 65MB 11FR80C000000
603AR060022 7100001935240604690LITTLE ROCK             ARK   020210120A003A42MB 41MB 12AQ99 000000
603AR060022 7100001935240604690LITTLE ROCK             ARK   030210120A001C45MB 45MB 20OK60 000001                                                  55MB 20OK60
603AR060022 7100001935240604690LITTLE ROCK             ARK   030210120A002C42FB 35MW 12ST60 000002                                                  31MW 12ST60 34MW 12ST60
603AR060022 7100001935240604690LITTLE ROCK             ARK   040210120A001B30MB 00UU 11UN99 000000
603AR060022 7100001935240604690LITTLE ROCK             ARK   050210120A001A28MB 00MB 11UN99 000000
603AR060022 7100001935240604690LITTLE ROCK             ARK   050210120A002A27FB 20MB 11UN99 000000
603AR060022 7100001935240604690LITTLE ROCK             ARK   060210120A001A35FB 39MB 20GF07 000000
603AR060022 7100001935240604690LITTLE ROCK             ARK   060210120A002B18MB 00UU 11UN99 000000
603AR060022 7100001935240604690LITTLE ROCK             ARK   070210120A001C17MW 25MW 90ST07 000001                                                  25MW 90ST07
603AR060022 7100001935240604690LITTLE ROCK             ARK   070210120A002A46MW 19MB 11UN99 000000
603AR060022 7100001935240604690LITTLE ROCK             ARK   070210120A003B44MW 00UU 90UN07 000000
603AR060022 7100001935240604690LITTLE ROCK             ARK   080210120A001A75FW 81MW 12WI99 000000
603AR060022 7100001935240604690LITTLE ROCK             ARK   080210120A002A24MW 20MB 11OK45 000000
603AR060022 7100001935240604690LITTLE ROCK             ARK   080210120A003C30MB 00MB 12UN99 000003                                                  24MB 12UN99 28MB 12UN99 23MB 12UN99
603AR060022 7100001935240604690LITTLE ROCK             ARK   090210120A001A25MW 25MW 40ST45 000000
603AR060022 7100001935240604690LITTLE ROCK             ARK   100210120A001A60MB 45FB 90BF45 000000
603AR060022 7100001935240604690LITTLE ROCK             ARK   100210120A002A00MB 32FB 20NE45 000000
603AR060022 7100001935240604690LITTLE ROCK             ARK   110210120A001C38MB 26MB 12ST60 000001                                                  21MB 12ST60
603AR060022 7100001935240604690LITTLE ROCK             ARK   110210120A002A32MB 27MB 13UN60 000000
603AR060022 7100001935240604690LITTLE ROCK             ARK   110210120A003B22MU 00UU 11UN60 000000
603AR060022 7100001935240604690LITTLE ROCK             ARK   110210120A004A18MB 00MB 12UN99 000000
603AR060022 7100001935240604690LITTLE ROCK             ARK   120210120A001A67MB 37FW 12ST60 000000
603AR060033 7100000623040604690NORTH LITTLE ROCK       ARK   010210120A001A20MB 27MB 12UN80E000000
603AR060033 7100000623040604690NORTH LITTLE ROCK       ARK   030210120A001A33MB 33MB 11UN60 000000
603AR060033 7100000623040604690NORTH LITTLE ROCK       ARK   050210120A001D00MW 38MW 12UN81B00200000MW 00MW
603AR060033 7100000623040604690NORTH LITTLE ROCK       ARK   070210120A001E18MW 16MB 12UN99 00100229MW                                              18MB 12UN99 16MB 12ST99
603AR060033 7100000623040604690NORTH LITTLE ROCK       ARK   090210120A001A31MB 26MB 11UN99 000000
603AR060033 7100000623040604690NORTH LITTLE ROCK       ARK   100210120A001A44MB 42MW 13UN81A000000
603AR060033 7100000623040604690NORTH LITTLE ROCK       ARK   110210120A001A26MB 27MB 11UN99 000000
603AR060033 7100000623040604690NORTH LITTLE ROCK       ARK   110210120A002B21MW 00UU 12UN99 000000
603AR060033 7100000623040604690NORTH LITTLE ROCK       ARK   120210120A001C32MB 50MW 12UN81A000001                                                  36MB 12UN81A
603AR060044 7100000295230604691SHERWOOD                ARK   070210120A001C57FW 23MB 30AQ26 000001                                                  23FW 30MO26
603AR062008C710000012118062   0ST. FRANCIS             ARK   060210120A001A00FB 34MB 12UN60 000000
603AR062015 710000015371062   0FORREST CITY            ARK   010210120A001C56MB 15MB 12ST99 000003                                                  16MB 12ST99 16MB 12ST99 17MB 12ST99
603AR062015 710000015371062   0FORREST CITY            ARK   090210120A001A19MB 23MB 12AQ45 000000
603AR063014 7100000306810634691BENTON                  ARK   110210120A001A27MB 43MB 20OK45 000000
603AR066009B7100000252110662851SEBASTIAN               ARK   090210120A001B64MW 00UU 85UN45 000000
603AR066013 7100000862090662850FORT SMITH              ARK   040210120A001A54FW 53UU 20OK99 000000
603AR066013 7100000862090662850FORT SMITH              ARK   040210120A002A28FW 33MB 11UN99 000000
603AR066013 7100000862090662850FORT SMITH              ARK   090210120A001A27MW 35MW 90OK99 000000
603AR066013 7100000862090662850FORT SMITH              ARK   110210120A001A27MW 69MW 12OK60 000000
603AR066013 7100000862090662850FORT SMITH              ARK   120210120A001A30MW 32MW 20BR42 000000
603AR066013 7100000862090662850FORT SMITH              ARK   120210120A002A42MW 00MW 12OK42 000000
603AR070008C710000020890070   0UNION                   ARK   120210120A001A44FB 53MB 90UN45 000000
603AR070015 710000018884070   0EL DORADO               ARK   100210120A001A31FW 34MB 90WI45 000000
603AR072013 7100000735800722700FAYETTEVILLE            ARK   070210120A001A02MB 22FW 40SO60 000000
603AR073008B710000037815073   0WHITE                   ARK   010210120A001E40FW 38MW 14FR99 00100141MW                                              38MW 14UN99
603AR073008B710000037815073   0WHITE                   ARK   080210120A001A43MW 14MW 12UN99 000000
603AR073008B710000037815073   0WHITE                   ARK   100210120A001A26FW 41MW 12GF45 000000
604CA001009A9100001412660017831ALAMEDA                 CALIF 020623101A001B18MWH00UUU12UN47 000000
604CA001009A9100001412660017831ALAMEDA                 CALIF 031027101A001ABBFWH26MWH40DA60 000000
604CA001009A9100001412660017831ALAMEDA                 CALIF 031230101A002A19MBN20MBN12ST99 000000
604CA001009A9100001412660017831ALAMEDA                 CALIF 031027101A003B21MBN00UUU12UN99 000000
604CA001009A9100001412660017831ALAMEDA                 CALIF 030623101A004B19MWH00UUU11UN99 000000
604CA001009A9100001412660017831ALAMEDA                 CALIF 031027101A005C27MWH62MWH12AQ26 000003                                                  40MWH12AQ26 23MWH12AQ26 47MIN12AQ26
604CA001009A9100001412660017831ALAMEDA                 CALIF 060806101A001A25FWN35MWH20GF45 000000
604CA001009A9100001412660017831ALAMEDA                 CALIF 070902101A001A32MBN29MBN12AQ99 000000
604CA001013 9100000738120017830ALAMEDA                 CALIF 091119101A001B35MBN00UUU12UN26 000000
604CA001032 9100001125800017830BERKELEY                CALIF 020623101A001A39MBN22MWH20AQ45 000000
604CA001032 9100001125800017830BERKELEY                CALIF 060902101A001B30MBN00UUU12UN47 000000
604CA001032 9100001125800017830BERKELEY                CALIF 070902101A001B30MBN00UUU12UN18 000000
604CA001032 9100001125800017830BERKELEY                CALIF 091230101A001B35MWH00UUU12UN03 000000
604CA001032 9100001125800017830BERKELEY                CALIF 101230101A001A35MBN21MBN12ST99 000000
604CA001052 9100002140890017830FREMONT                 CALIF 020924101A001A58MAN47MAN13IL40 000000
604CA001052 9100002140890017830FREMONT                 CALIF 030902101A001A49MWH35MWH12OF99 000000
604CA001052 9100002140890017830FREMONT                 CALIF 051027101A001ABBFAN32FAN65DA60 000000
604CA001062 9100001441860017830HAYWARD                 CALIF 010623101A001B30MWH00UUU12UN47 000000
604CA001062 9100001441860017830HAYWARD                 CALIF 010623101A002B19MAN00UUU12UN26 000000
604CA001062 9100001441860017830HAYWARD                 CALIF 010623101A003B20MBN00UUU12UN99 000000
604CA001062 9100001441860017830HAYWARD                 CALIF 020623101A001D63MAN34MAN20ST07 00100056MWN
604CA001062 9100001441860017830HAYWARD                 CALIF 020924101A002A20MWN25MBN12ST42 000000
604CA001062 9100001441860017830HAYWARD                 CALIF 050806101A001E18MWH17FBN13ST99 00100118MWH                                             21MBN13ST99
604CA001062 9100001441860017830HAYWARD                 CALIF 050806101A002B17MUU00UUU11UN99 000000
604CA001062 9100001441860017830HAYWARD                 CALIF 060924101A001B62FWN00UUU85UN99 000000
604CA001062 9100001441860017830HAYWARD                 CALIF 060924101A002B80FWN00UUU11UN05 000000
604CA001062 9100001441860017830HAYWARD                 CALIF 081027101A001A28MAN19MUU12OK03 000000
604CA001062 9100001441860017830HAYWARD                 CALIF 101230101A001B24MWH00UUU11UN47 000000
604CA001084 9100000425730017831NEWARK                  CALIF 081027101A001A35MWH36MWH20AQ40 000000
604CA001084 9100000425730017831NEWARK                  CALIF 081027101A002A36MWH35MWH12AQ80C000000
604CA001084 9100000425730017831NEWARK                  CALIF 091119101A001B26MBN00UUU11UN47 000000
604CA001084 9100000425730017831NEWARK                  CALIF 101230101A001B22MUU00UUU20UN45 000000
604CA001084 9100000425730017831NEWARK                  CALIF 120218111A001B17MAN00UUU20UN99 000000
604CA001091C9100003907240017830OAKLAND                 CALIF 010310111A001B28MW 00UU 13UN03 000000
604CA001091C9100003907240017830OAKLAND                 CALIF 010310111A002A24MB 22FB 20BF45 000000
604CA001091C9100003907240017830OAKLAND                 CALIF 010310111A003A46FB 45MB 12GF45 000000
604CA001091C9100003907240017830OAKLAND                 CALIF 010310111A004B17MB 00UU 12UN99 000000
604CA001091C9100003907240017830OAKLAND                 CALIF 010318111A005C21MB 35MW 11ST81E000003                                                  30MW 11ST81E23MW 11ST81E31MW 11ST81E
604CA001091C9100003907240017830OAKLAND                 CALIF 020322111A001B38MB 00UU 11UN99 000000
604CA001091C9100003907240017830OAKLAND                 CALIF 020322111A002A17MW 24MW 11ST26 000000
604CA001091C9100003907240017830OAKLAND                 CALIF 020322111A003A46MB 20MU 11ST45 000000
604CA001091C9100003907240017830OAKLAND                 CALIF 030324111A001B31MB 00UU 12UN99 000000
604CA001091C9100003907240017830OAKLAND                 CALIF 030324111A002E29MB 22MB 12ST99 00100156MB                                              26MB 12ST99
604CA001091C9100003907240017830OAKLAND                 CALIF 030324111A003B34MB 00UU 12UN99 000000
604CA001091C9100003907240017830OAKLAND                 CALIF 030324111A004B33MB 00UU 12UN99 000000
604CA001091C9100003907240017830OAKLAND                 CALIF 030324111A005A02FU 19FW 40DA60 000000
604CA001091C9100003907240017830OAKLAND                 CALIF 030324111A006B52MB 00UU 11UN99 000000
604CA001091C9100003907240017830OAKLAND                 CALIF 030324111A007B71MA 00UU 20UN99 000000
604CA001091C9100003907240017830OAKLAND                 CALIF 030324111A008B28MB 00UU 11UN99 000000
604CA001091C9100003907240017830OAKLAND                 CALIF 030324111A009A20MB 16MB 12AQ03 000000
604CA001091C9100003907240017830OAKLAND                 CALIF 030324111A010B17MB 00UU 12UN99 000000
604CA001091C9100003907240017830OAKLAND                 CALIF 030324111A011B18MW 00UU 12UN47 000000
604CA001091C9100003907240017830OAKLAND                 CALIF 040324111A001B21MB 00UU 11UN99 000000
604CA001091C9100003907240017830OAKLAND                 CALIF 040324111A002B24MB 00UU 12UN99 000000
604CA001091C9100003907240017830OAKLAND                 CALIF 040324111A003A27MB 40MW 20AQ99 000000
604CA001091C9100003907240017830OAKLAND                 CALIF 040324111A004B18MW 00UU 11UN99 000000
604CA001091C9100003907240017830OAKLAND                 CALIF 040324111A005B35MB 00UU 12UN99 000000
604CA001091C9100003907240017830OAKLAND                 CALIF 040324111A006B21MB 00UU 12UN03 000000
604CA001091C9100003907240017830OAKLAND                 CALIF 040324111A007A59MB 57MB 13ST99 000000
604CA001091C9100003907240017830OAKLAND                 CALIF 040324111A008B43MW 00UU 12UN03 000000
604CA001091C9100003907240017830OAKLAND                 CALIF 040324111A009C59MA 18MB 40ST99 000001                                                  18MB 40ST99
604CA001091C9100003907240017830OAKLAND                 CALIF 040324111A010A18MB 15FB 12OK99 000000
604CA001091C9100003907240017830OAKLAND                 CALIF 050322111A001B31MB 00UU 12UN99 000000
604CA001091C9100003907240017830OAKLAND                 CALIF 050322111A002B23MW 00UU 12UN99 000000
604CA001091C9100003907240017830OAKLAND                 CALIF 050322111A003F19MB 00UU 11UN99 00100124MB                                              00UU 11UN99
604CA001091C9100003907240017830OAKLAND                 CALIF 050322111A004B26MB 00UU 12UN99 000000
604CA001091C9100003907240017830OAKLAND                 CALIF 060324111A001C43MB 16MB 11ST99 000001                                                  25MB 11ST99
604CA001091C9100003907240017830OAKLAND                 CALIF 060324111A002A23MB 20MW 11ST99 000000
604CA001091C9100003907240017830OAKLAND                 CALIF 060324111A003B24MB 00UU 13UN99 000000
604CA001091C9100003907240017830OAKLAND                 CALIF 060324111A004B22MU 00UU 12UN99 000000
604CA001091C9100003907240017830OAKLAND                 CALIF 060324111A005A17MB 18MB 12ST45 000000
604CA001091C9100003907240017830OAKLAND                 CALIF 060324111A006B19FB 00UU 13UN45 000000
604CA001091C9100003907240017830OAKLAND                 CALIF 060324111A007B59MA 00UU 40UN45 000000
604CA001091C9100003907240017830OAKLAND                 CALIF 070324111A001A35MW 20MW 90AQ45 000000
604CA001091C9100003907240017830OAKLAND                 CALIF 070324111A002A31MB 42MB 11ST99 000000
604CA001091C9100003907240017830OAKLAND                 CALIF 070324111A003B31MB 00UU 12UN99 000000
604CA001091C9100003907240017830OAKLAND                 CALIF 070324111A004B30MB 00UU 11UN99 000000
604CA001091C9100003907240017830OAKLAND                 CALIF 070324111A005C44MB 40MW 11ST81E000001                                                  44MW 11ST81E
604CA001091C9100003907240017830OAKLAND                 CALIF 070324111A006A45MA 24MB 12ST99 000000
604CA001091C9100003907240017830OAKLAND                 CALIF 070324111A007B18MB 00UU 12UN99 000000
604CA001091C9100003907240017830OAKLAND                 CALIF 070324111A008B53MA 00UU 11UN99 000000
604CA001091C9100003907240017830OAKLAND                 CALIF 070324111A009B42MB 00UU 12UN99 000000
604CA001091C9100003907240017830OAKLAND                 CALIF 070324111A010B32MB 00UU 12UN99 000000
604CA001091C9100003907240017830OAKLAND                 CALIF 080324111A001A54MB 39FB 20BF45 000000
604CA001091C9100003907240017830OAKLAND                 CALIF 080324111A002B26MB 00UU 12UN18 000000
604CA001091C9100003907240017830OAKLAND                 CALIF 080324111A003A27MB 32MB 11ST45 000000
604CA001091C9100003907240017830OAKLAND                 CALIF 080324111A004B49MB 00UU 12UN99 000000
604CA001091C9100003907240017830OAKLAND                 CALIF 080324111A005A51MB 39MB 20ST45 000000
604CA001091C9100003907240017830OAKLAND                 CALIF 080324111A006B13MB 00UU 12UN99 000000
604CA001091C9100003907240017830OAKLAND                 CALIF 080324111A007C64MA 43FW 30ST99 000001                                                  50MB 30ST99
604CA001091C9100003907240017830OAKLAND                 CALIF 080324111A008A20MB 23MB 11ST99 000000
604CA001091C9100003907240017830OAKLAND                 CALIF 090317111A001B30FBN00UUU12UN99 000000
604CA001091C9100003907240017830OAKLAND                 CALIF 090317111A002A23MBN34MBN11ST45 000000
604CA001091C9100003907240017830OAKLAND                 CALIF 090317111A003B17MBN00UUU12UN99 000000
604CA001091C9100003907240017830OAKLAND                 CALIF 090317111A004B59FBN00UUU90UN99 000000
604CA001091C9100003907240017830OAKLAND                 CALIF 100317111A001A29FBN30MBN11ST99 000000
604CA001091C9100003907240017830OAKLAND                 CALIF 100317111A002B38MBN00UUU90UN99 000000
604CA001091C9100003907240017830OAKLAND                 CALIF 100317111A003B24MBN00UUU12UN99 000000
604CA001091C9100003907240017830OAKLAND                 CALIF 100317111A004B46FBN00UUU30UN99 000000
604CA001091C9100003907240017830OAKLAND                 CALIF 100317111A005B17MBN00UUU11UN99 000000
604CA001091C9100003907240017830OAKLAND                 CALIF 110317111A001B40MAN00UUU20UN99 000000
604CA001091C9100003907240017830OAKLAND                 CALIF 110317111A002A28MAN32MWN12AQ45 000000
604CA001091C9100003907240017830OAKLAND                 CALIF 110317111A003B45MBN00UUU11UN99 000000
604CA001091C9100003907240017830OAKLAND                 CALIF 110317111A004F18MBN00UUU11UN99 00100017MBN
604CA001091C9100003907240017830OAKLAND                 CALIF 110317111A005B39MBN00UUU12UN99 000000
604CA001091C9100003907240017830OAKLAND                 CALIF 110317111A006A37MBN32MWN12ST81D000000
604CA001091C9100003907240017830OAKLAND                 CALIF 110317111A007B46MBN00UUU12UN99 000000
604CA001091C9100003907240017830OAKLAND                 CALIF 110317111A008B20MBN00UUU11UN99 000000
604CA001091C9100003907240017830OAKLAND                 CALIF 110317111A009B18MBN00UUU13UN99 000000
604CA001091C9100003907240017830OAKLAND                 CALIF 110317111A010B37MBN00UUU11UN99 000000
604CA001091C9100003907240017830OAKLAND                 CALIF 120317111A001B27MBN00UUU13UN99 000000
604CA001091C9100003907240017830OAKLAND                 CALIF 120317111A002B33MBN00UUU12UN99 000000
604CA001091C9100003907240017830OAKLAND                 CALIF 120317111A003A24MBN19MBN12ST99 000000
604CA001091C9100003907240017830OAKLAND                 CALIF 120317111A004B19MBN00UUU12UN99 000000
604CA001091C9100003907240017830OAKLAND                 CALIF 120317111A005B26MBN00UUU11UN99 000000
604CA001091C9100003907240017830OAKLAND                 CALIF 120317111A006B18MWN00UUU11UN99 000000
604CA001091C9100003907240017830OAKLAND                 CALIF 120317111A007A44MAN24MBN12ST03 000000
604CA001091C9100003907240017830OAKLAND                 CALIF 120317111A008B20MBN00UUU12UN99 000000
604CA001091C9100003907240017830OAKLAND                 CALIF 120411111A009B28MB 00UU 11UN99 000000
604CA001091C9100003907240017830OAKLAND                 CALIF 120317111A010B21FBN00UUU20UN99 000000
604CA001091C9100003907240017830OAKLAND                 CALIF 120317111A011B17MBN00UUU13UN99 000000
604CA001091C9100003907240017830OAKLAND                 CALIF 120317111A012ABBMUU26MUU85SO60 000000
604CA001091C9100003907240017830OAKLAND                 CALIF 120317111A013A23MBN30MBN11ST99 000000
604CA001091C9100003907240017830OAKLAND                 CALIF 120322110A014C19MB 32MW 12ST81D000001                                                  35MA 12ST81D
604CA001123 9100000849500017830SAN LEANDRO             CALIF 040623101A001A74FWN32MWN20OF99 000000
604CA001123 9100000849500017830SAN LEANDRO             CALIF 081027101A001B25MWH00UUU12UN99 000000
604CA001123 9100000849500017830SAN LEANDRO             CALIF 101230101A001F18MAN00UUU12UN99 00100019MBN
604CA001133 9100000695160017830UNION CITY              CALIF 020623101A001B21MWH00UUU11UN26 000000
604CA001133 9100000695160017830UNION CITY              CALIF 040623101A001B30MBN00UUU11UN99 000000
604CA001133 9100000695160017830UNION CITY              CALIF 061027101A001B58MWN00UUU40UN99 000000
604CA001133 9100000695160017830UNION CITY              CALIF 091027101A001A59MWH55MWH11SF45 000000
604CA003008C910000023021003   0AMADOR                  CALIF 081027101A001A52FWN54MWN12GF45 000000
604CA004009B9100000837580041641BUTTE                   CALIF 050924101A001A43MWN40FWN12HU45 000000
604CA004009B9100000837580041641BUTTE                   CALIF 050924101A002D69FWN41MWN20AQ05 00100071MWN
604CA004009B9100000837580041641BUTTE                   CALIF 101230101A001B20MWH00UUU11UN99 000000
604CA004023 9100000861870041640CHICO                   CALIF 010623101A001A31MWN25MWH11FR45 000000
604CA004045 9100000155460041641OROVILLE                CALIF 020806101A001C73MWN15MAN30ST03 000003                                                  16MAN30ST03 17MAN30ST03 16MAN30ST03
604CA004054 9100000262180041641PARADISE                CALIF 020623101A001C07FBN43FWN30DA60 000001                                                  46MWN30DA60
604CA005008B910000041742005   0CALAVERAS               CALIF 070317111A001B61MWN00UUU40UN03 000000
604CA007009A9100001547080077831CONTRA COSTA            CALIF 010806101A001B16MBN00UUU11UN26 000000
604CA007009A9100001547080077831CONTRA COSTA            CALIF 030806101A001B49MBN00UUU12UN26 000000
604CA007009A9100001547080077831CONTRA COSTA            CALIF 030806101A002B27MBN00UUU12UN26 000000
604CA007009A9100001547080077831CONTRA COSTA            CALIF 040924101A001A26FWN37MWN80GF45 000000
604CA007009A9100001547080077831CONTRA COSTA            CALIF 050806101A001B23MWH00UUU11UN99 000000
604CA007009A9100001547080077831CONTRA COSTA            CALIF 050924101A002F23MBN00UUU14UN26 00200034MBN31MBN
604CA007009A9100001547080077831CONTRA COSTA            CALIF 060806101A001B27MBN00UUU12UN99 000000
604CA007009A9100001547080077831CONTRA COSTA            CALIF 070924101A001A47MBN37MBN20FR99 000000
604CA007009A9100001547080077831CONTRA COSTA            CALIF 080924101A001A35MWH30MWH12FR40 000000
604CA007009A9100001547080077831CONTRA COSTA            CALIF 101230101A001A63FAN34MWN30OK26 000000
604CA007012 9100001023720077830ANTIOCH                 CALIF 010623101A001A34MBN24MWH12ST26 000000
604CA007012 9100001023720077830ANTIOCH                 CALIF 010924101A002A32MBN21MBN12ST42 000000
604CA007012 9100001023720077830ANTIOCH                 CALIF 030623101A001A16MBN22MBN12ST44 000000
604CA007012 9100001023720077830ANTIOCH                 CALIF 040623101A001A47MWH46MWH30OK40 000000
604CA007012 9100001023720077830ANTIOCH                 CALIF 060924101A001A45FWN45MWN12WI40 000000
604CA007012 9100001023720077830ANTIOCH                 CALIF 060806101A002B15MBN00UUU12UN03 000000
604CA007012 9100001023720077830ANTIOCH                 CALIF 070924101A001B20MBN00UUU12UN26 000000
604CA007012 9100001023720077830ANTIOCH                 CALIF 101230101A001C29MBN39MWN12ST81E000001                                                  35MWN12ST81E
604CA007012 9100001023720077830ANTIOCH                 CALIF 111230101A001B21MBN00UUU12UN99 000000
604CA007012 9100001023720077830ANTIOCH                 CALIF 120218111A002A44FBN56MWN20OK45 000000
604CA007012 9100001023720077830ANTIOCH                 CALIF 120218111A003A47FWN51MWH90OK10 000000
604CA007012 9100001023720077830ANTIOCH                 CALIF 120218111A004B38MBN00UUU20UN45 000000
604CA007012 9100001023720077830ANTIOCH                 CALIF 120218111A005A24MBN19MBN12FR18 000000
604CA007012 9100001023720077830ANTIOCH                 CALIF 120218111A006A28MBN22MBN12ST18 000000
604CA007012 9100001023720077830ANTIOCH                 CALIF 120218111B007BBBFWN00UUU90UN59 000000
604CA007012 9100001023720077830ANTIOCH                 CALIF 120228111B008C02MB 27MB 12SO59 000001                                                  28FB 12SO59
604CA007042 9100001220670077830CONCORD                 CALIF 030623101A001A43MWN35MWN20OK45 000000
604CA007042 9100001220670077830CONCORD                 CALIF 040623101A001A48MWN25MBN14OK45 000000
604CA007042 9100001220670077830CONCORD                 CALIF 040623101A002C55MWN20MBN11ST03 000001                                                  37MWH11ST03
604CA007042 9100001220670077830CONCORD                 CALIF 060218111A001A31MWN35MWH11ST81E000000
604CA007042 9100001220670077830CONCORD                 CALIF 071027101A001B31FBN00UUU30UN99 000000
604CA007065 9100000240600077831HERCULES                CALIF 081027101A001D73MAN38MAN80OK99 00100035MAN
604CA007075 9100000183900077831PINOLE                  CALIF 050902101A001C20MWN25MWN12ST81F000001                                                  41MWN12ST81F
604CA007083 9100000632640077830PITTSBURG               CALIF 020924101A001A31MBN34FBN12BF45 000000
604CA007083 9100000632640077830PITTSBURG               CALIF 040623101A001A37MWN35MWN12ST81A000000
604CA007083 9100000632640077830PITTSBURG               CALIF 040806101A002A19MBN51MBN13ST26 000000
604CA007083 9100000632640077830PITTSBURG               CALIF 050806101A001A35MWH44MWN20ST99 000000
604CA007083 9100000632640077830PITTSBURG               CALIF 050218111A002A20MWH35MWN13ST81E000000
604CA007083 9100000632640077830PITTSBURG               CALIF 081027101A001B25MWH00UUU12UN99 000000
604CA007083 9100000632640077830PITTSBURG               CALIF 091119101A001C33MBN30MUU12ST99 000001                                                  24MBN12ST99
604CA007083 9100000632640077830PITTSBURG               CALIF 091119101A002B18MWH00UUU12UN99 000000
604CA007094 9100000331520077831PLEASANT HILL           CALIF 060806101A001A70FWN56FWN20EE45 000000
604CA007102 9100001037010077830RICHMOND                CALIF 010623101A001B19MWH00UUU12UN99 000000
604CA007102 9100001037010077830RICHMOND                CALIF 010623101A002A57FBN57MBN20GF45 000000
604CA007102 9100001037010077830RICHMOND                CALIF 010623101A003B22MBN00UUU12UN99 000000
604CA007102 9100001037010077830RICHMOND                CALIF 010623101A004A22MBN57MBN12ST99 000000
604CA007102 9100001037010077830RICHMOND                CALIF 010623101A005C54MWH15MWH30SF99 000001                                                  15MWH30SF99
604CA007102 9100001037010077830RICHMOND                CALIF 020623101A001B23FBN00UUU12UN26 000000
604CA007102 9100001037010077830RICHMOND                CALIF 030623101A001B60MBN00UUU30UN99 000000
604CA007102 9100001037010077830RICHMOND                CALIF 030411111A002A25FWH22MBN12ST99 000000
604CA007102 9100001037010077830RICHMOND                CALIF 030924101A003B36MBN00UUU12UN26 000000
604CA007102 9100001037010077830RICHMOND                CALIF 060806101A001C20MUU17MBN12ST99 000003                                                  15MBN12ST99 18MBN12ST99 16MBN12ST99
604CA007102 9100001037010077830RICHMOND                CALIF 060806101A002B20MBN00UUU12UN99 000000
604CA007102 9100001037010077830RICHMOND                CALIF 070902101A001B18MBN00UUU12UN99 000000
604CA007102 9100001037010077830RICHMOND                CALIF 080218111A001B28MBN00UUU20UN99 000000
604CA007102 9100001037010077830RICHMOND                CALIF 080218111A002B16MBN00UUU12UN99 000000
604CA007102 9100001037010077830RICHMOND                CALIF 080218111A003B18MBN00UUU12UN99 000000
604CA007102 9100001037010077830RICHMOND                CALIF 080218111A004C38MAN31MWN12ST81E000001                                                  35MWN12ST81E
604CA007102 9100001037010077830RICHMOND                CALIF 091027101A001B20MWH00UUU12UN99 000000
604CA007102 9100001037010077830RICHMOND                CALIF 101119101A001B21MBN00UUU11UN99 000000
604CA007102 9100001037010077830RICHMOND                CALIF 111230101A001B22MBN00UUU12UN26 000000
604CA007102 9100001037010077830RICHMOND                CALIF 111230101A002B34MWH00UUU12UN99 000000
604CA007102 9100001037010077830RICHMOND                CALIF 111230101A003A41MBN44MBN90ST45 000000
604CA007102 9100001037010077830RICHMOND                CALIF 111230101A004B18MBN00UUU12UN99 000000
604CA007114 9100000291390077831SAN PABLO               CALIF 011027101A001A27MWN28MBN13ST45 000000
604CA007114 9100000291390077831SAN PABLO               CALIF 110126111A001A24MBN20MBN12ST45 000000
604CA007123 9100000641730077830WALNUT CREEK            CALIF 111230101A001A56MWN24MBN20HO45 000000
604CA007144 9100000358240077831MARTINEZ                CALIF 050317111A001A60MWN25FWN12FA45 000000
604CA007344 9100000354320077831OAKLEY                  CALIF 010623101A001A34MWN32MWN30BR45 000000
604CA007344 9100000354320077831OAKLEY                  CALIF 030623101A001A21FWH21MWH30GF45 000000
604CA008008C910000020967008   0DEL NORTE               CALIF 010623101A001A26FWN29MAN12FR26 000000
604CA008008C910000020967008   0DEL NORTE               CALIF 030623101A001A21MWN26MWN40FR18 000000
604CA008008C910000020967008   0DEL NORTE               CALIF 110317111A001A33MWH23MIN40OK48 000000
604CA009009A9100001492660097401EL DORADO               CALIF 010623101A001A70MWN42MWN12ST44 000000
604CA009009A9100001492660097401EL DORADO               CALIF 030623101A001A49MWN36MWN12ST45 000000
604CA009009A9100001492660097401EL DORADO               CALIF 060806101A001A63FWN55MWN12XW45 000000
604CA009015 9100000103890097401PLACERVILLE             CALIF 030411111A001A39FWN26MWN12ST81E000000
604CA009025 9100000214030097401SOUTH LAKE TAHOE        CALIF 071119101B001A25FWN39MWN70GF59 000000
604CA010009A9100001847840102991FRESNO                  CALIF 020218111A001D29MWH51MWN13ST26 00100049MWN
604CA010009A9100001847840102991FRESNO                  CALIF 030623101A001B24MWH00UUU12UN26 000000
604CA010009A9100001847840102991FRESNO                  CALIF 050806101A001A28MWH33MWH14AQ99 000000
604CA010009A9100001847840102991FRESNO                  CALIF 060806101A001B19MWH00UUU12UN47 000000
604CA010009A9100001847840102991FRESNO                  CALIF 060806101A002C26MWH26MWH20FR45 000001                                                  26MWH20FR45
604CA010009A9100001847840102991FRESNO                  CALIF 060928101A003C26MW 20FW 40XH45 000002                                                  20MW 40ST45 27MW 40ST45
604CA010009A9100001847840102991FRESNO                  CALIF 070902101A001C17MWH16MWH20OK47 000003                                                  15MWH20OK47 15MWH20OK47 16MWH20OK47
604CA010009A9100001847840102991FRESNO                  CALIF 080924101A001B25MWH00UUU90UN99 000000
604CA010009A9100001847840102991FRESNO                  CALIF 120218111A001B43MWH00UUU13UN03 000000
604CA010013 9100000956310102990CLOVIS                  CALIF 080924101A001A25FWH25MWH14GF45 000000
604CA010013 9100000956310102990CLOVIS                  CALIF 091119101A001A77FWN49MWN20MO99 000000
604CA010051C9100004946650102990FRESNO                  CALIF 010623101A001A48MBN28FBN90BF45 000000
604CA010051C9100004946650102990FRESNO                  CALIF 010623101A002B24MBN00UUU11UN47 000000
604CA010051C9100004946650102990FRESNO                  CALIF 010623101A003B17MWH00UUU11UN47 000000
604CA010051C9100004946650102990FRESNO                  CALIF 010623101A004B28MWH00UUU11UN47 000000
604CA010051C9100004946650102990FRESNO                  CALIF 010806101A005A20MWH23MWH11ST47 000000
604CA010051C9100004946650102990FRESNO                  CALIF 010623101A006A20MWH24MWH11ST47 000000
604CA010051C9100004946650102990FRESNO                  CALIF 020623101A001B37MWH00UUU11UN47 000000
604CA010051C9100004946650102990FRESNO                  CALIF 020806101A002A22MAN35MWN20FR47 000000
604CA010051C9100004946650102990FRESNO                  CALIF 020623101A003A20MWH22MWH11ST47 000000
604CA010051C9100004946650102990FRESNO                  CALIF 030623101A001A53FWH76MWH30WI45 000000
604CA010051C9100004946650102990FRESNO                  CALIF 030623101A002A66MWH54MWH30BR45 000000
604CA010051C9100004946650102990FRESNO                  CALIF 030623101A003A18MWH18MWH11ST45 000000
604CA010051C9100004946650102990FRESNO                  CALIF 030623101A004B30MWH00UUU11UN03 000000
604CA010051C9100004946650102990FRESNO                  CALIF 030623101A005B42FWN00UUU11UN47 000000
604CA010051C9100004946650102990FRESNO                  CALIF 030623101A006F26FWH00UUU11UN47 00100026MWH
604CA010051C9100004946650102990FRESNO                  CALIF 040806101A001ANBMWH23FWH75SO60 000000
604CA010051C9100004946650102990FRESNO                  CALIF 040806101A002A41MBN20MBN11AQ47 000000
604CA010051C9100004946650102990FRESNO                  CALIF 040806101A003F48FBN00UUU11UN47 00100016MBN
604CA010051C9100004946650102990FRESNO                  CALIF 050924101A001A04MWH21MBN40SS60 000000
604CA010051C9100004946650102990FRESNO                  CALIF 050806101A002B22MBN00UUU11UN47 000000
604CA010051C9100004946650102990FRESNO                  CALIF 051027101A003B74MWH00UUU30UN45 000000
604CA010051C9100004946650102990FRESNO                  CALIF 050806101A004B16MBN00UUU11UN47 000000
